{
	"contracts/poker.sol": {
		"TexasHoldem": {
			"abi": [
				{
					"anonymous": false,
					"inputs": [
						{
							"indexed": true,
							"internalType": "uint256",
							"name": "tableId",
							"type": "uint256"
						},
						{
							"indexed": false,
							"internalType": "uint8[5]",
							"name": "communityCards",
							"type": "uint8[5]"
						}
					],
					"name": "CommunityCardsDealt",
					"type": "event"
				},
				{
					"anonymous": false,
					"inputs": [
						{
							"indexed": true,
							"internalType": "uint256",
							"name": "tableId",
							"type": "uint256"
						}
					],
					"name": "GameStarted",
					"type": "event"
				},
				{
					"anonymous": false,
					"inputs": [
						{
							"indexed": true,
							"internalType": "uint256",
							"name": "tableId",
							"type": "uint256"
						}
					],
					"name": "HandStarted",
					"type": "event"
				},
				{
					"anonymous": false,
					"inputs": [
						{
							"indexed": true,
							"internalType": "uint256",
							"name": "tableId",
							"type": "uint256"
						},
						{
							"indexed": false,
							"internalType": "enum TexasHoldem.GamePhase",
							"name": "newPhase",
							"type": "uint8"
						}
					],
					"name": "PhaseChanged",
					"type": "event"
				},
				{
					"anonymous": false,
					"inputs": [
						{
							"indexed": true,
							"internalType": "uint256",
							"name": "tableId",
							"type": "uint256"
						},
						{
							"indexed": true,
							"internalType": "address",
							"name": "player",
							"type": "address"
						},
						{
							"indexed": false,
							"internalType": "string",
							"name": "action",
							"type": "string"
						},
						{
							"indexed": false,
							"internalType": "uint256",
							"name": "amount",
							"type": "uint256"
						}
					],
					"name": "PlayerAction",
					"type": "event"
				},
				{
					"anonymous": false,
					"inputs": [
						{
							"indexed": true,
							"internalType": "uint256",
							"name": "tableId",
							"type": "uint256"
						},
						{
							"indexed": true,
							"internalType": "address",
							"name": "player",
							"type": "address"
						},
						{
							"indexed": false,
							"internalType": "uint256",
							"name": "amount",
							"type": "uint256"
						}
					],
					"name": "PlayerJoined",
					"type": "event"
				},
				{
					"anonymous": false,
					"inputs": [
						{
							"indexed": true,
							"internalType": "uint256",
							"name": "tableId",
							"type": "uint256"
						},
						{
							"indexed": true,
							"internalType": "address",
							"name": "player",
							"type": "address"
						}
					],
					"name": "PlayerLeft",
					"type": "event"
				},
				{
					"anonymous": false,
					"inputs": [
						{
							"indexed": true,
							"internalType": "uint256",
							"name": "tableId",
							"type": "uint256"
						},
						{
							"indexed": true,
							"internalType": "address",
							"name": "creator",
							"type": "address"
						}
					],
					"name": "TableCreated",
					"type": "event"
				},
				{
					"anonymous": false,
					"inputs": [
						{
							"indexed": true,
							"internalType": "uint256",
							"name": "tableId",
							"type": "uint256"
						},
						{
							"indexed": false,
							"internalType": "address[]",
							"name": "winners",
							"type": "address[]"
						},
						{
							"indexed": false,
							"internalType": "uint256",
							"name": "amount",
							"type": "uint256"
						}
					],
					"name": "WinnerDetermined",
					"type": "event"
				},
				{
					"inputs": [],
					"name": "MAX_PLAYERS",
					"outputs": [
						{
							"internalType": "uint256",
							"name": "",
							"type": "uint256"
						}
					],
					"stateMutability": "view",
					"type": "function"
				},
				{
					"inputs": [],
					"name": "MAX_TABLES",
					"outputs": [
						{
							"internalType": "uint256",
							"name": "",
							"type": "uint256"
						}
					],
					"stateMutability": "view",
					"type": "function"
				},
				{
					"inputs": [],
					"name": "TURN_TIMEOUT",
					"outputs": [
						{
							"internalType": "uint256",
							"name": "",
							"type": "uint256"
						}
					],
					"stateMutability": "view",
					"type": "function"
				},
				{
					"inputs": [
						{
							"internalType": "uint256",
							"name": "tableId",
							"type": "uint256"
						}
					],
					"name": "allIn",
					"outputs": [],
					"stateMutability": "nonpayable",
					"type": "function"
				},
				{
					"inputs": [
						{
							"internalType": "uint256",
							"name": "tableId",
							"type": "uint256"
						}
					],
					"name": "call",
					"outputs": [],
					"stateMutability": "nonpayable",
					"type": "function"
				},
				{
					"inputs": [
						{
							"internalType": "uint256",
							"name": "tableId",
							"type": "uint256"
						}
					],
					"name": "check",
					"outputs": [],
					"stateMutability": "nonpayable",
					"type": "function"
				},
				{
					"inputs": [
						{
							"internalType": "uint256",
							"name": "_minBuyIn",
							"type": "uint256"
						},
						{
							"internalType": "uint256",
							"name": "_maxBuyIn",
							"type": "uint256"
						},
						{
							"internalType": "uint256",
							"name": "_smallBlind",
							"type": "uint256"
						},
						{
							"internalType": "uint256",
							"name": "_bigBlind",
							"type": "uint256"
						}
					],
					"name": "createTable",
					"outputs": [],
					"stateMutability": "nonpayable",
					"type": "function"
				},
				{
					"inputs": [
						{
							"internalType": "uint256",
							"name": "tableId",
							"type": "uint256"
						}
					],
					"name": "fold",
					"outputs": [],
					"stateMutability": "nonpayable",
					"type": "function"
				},
				{
					"inputs": [
						{
							"internalType": "uint256",
							"name": "tableId",
							"type": "uint256"
						},
						{
							"internalType": "address",
							"name": "playerAddr",
							"type": "address"
						}
					],
					"name": "getPlayerState",
					"outputs": [
						{
							"components": [
								{
									"internalType": "address",
									"name": "addr",
									"type": "address"
								},
								{
									"internalType": "uint256",
									"name": "chips",
									"type": "uint256"
								},
								{
									"internalType": "uint256",
									"name": "bet",
									"type": "uint256"
								},
								{
									"internalType": "uint8[2]",
									"name": "holeCards",
									"type": "uint8[2]"
								},
								{
									"internalType": "bool",
									"name": "inHand",
									"type": "bool"
								},
								{
									"internalType": "bool",
									"name": "hasActed",
									"type": "bool"
								},
								{
									"internalType": "uint256",
									"name": "lastActionTimestamp",
									"type": "uint256"
								}
							],
							"internalType": "struct TexasHoldem.Player",
							"name": "",
							"type": "tuple"
						}
					],
					"stateMutability": "view",
					"type": "function"
				},
				{
					"inputs": [
						{
							"internalType": "uint256",
							"name": "tableId",
							"type": "uint256"
						}
					],
					"name": "getTableState",
					"outputs": [
						{
							"components": [
								{
									"internalType": "uint256",
									"name": "id",
									"type": "uint256"
								},
								{
									"internalType": "enum TexasHoldem.TableStatus",
									"name": "status",
									"type": "uint8"
								},
								{
									"internalType": "uint256",
									"name": "minBuyIn",
									"type": "uint256"
								},
								{
									"internalType": "uint256",
									"name": "maxBuyIn",
									"type": "uint256"
								},
								{
									"internalType": "uint256",
									"name": "smallBlind",
									"type": "uint256"
								},
								{
									"internalType": "uint256",
									"name": "bigBlind",
									"type": "uint256"
								},
								{
									"internalType": "uint8",
									"name": "dealerIndex",
									"type": "uint8"
								},
								{
									"internalType": "uint8",
									"name": "actionIndex",
									"type": "uint8"
								},
								{
									"components": [
										{
											"internalType": "address",
											"name": "addr",
											"type": "address"
										},
										{
											"internalType": "uint256",
											"name": "chips",
											"type": "uint256"
										},
										{
											"internalType": "uint256",
											"name": "bet",
											"type": "uint256"
										},
										{
											"internalType": "uint8[2]",
											"name": "holeCards",
											"type": "uint8[2]"
										},
										{
											"internalType": "bool",
											"name": "inHand",
											"type": "bool"
										},
										{
											"internalType": "bool",
											"name": "hasActed",
											"type": "bool"
										},
										{
											"internalType": "uint256",
											"name": "lastActionTimestamp",
											"type": "uint256"
										}
									],
									"internalType": "struct TexasHoldem.Player[]",
									"name": "players",
									"type": "tuple[]"
								},
								{
									"internalType": "uint8[52]",
									"name": "deck",
									"type": "uint8[52]"
								},
								{
									"internalType": "uint8",
									"name": "deckIndex",
									"type": "uint8"
								},
								{
									"internalType": "uint8[5]",
									"name": "communityCards",
									"type": "uint8[5]"
								},
								{
									"internalType": "enum TexasHoldem.GamePhase",
									"name": "phase",
									"type": "uint8"
								},
								{
									"internalType": "uint256",
									"name": "currentBet",
									"type": "uint256"
								},
								{
									"internalType": "uint256",
									"name": "minRaise",
									"type": "uint256"
								},
								{
									"components": [
										{
											"internalType": "uint256",
											"name": "size",
											"type": "uint256"
										},
										{
											"internalType": "address[]",
											"name": "eligiblePlayers",
											"type": "address[]"
										}
									],
									"internalType": "struct TexasHoldem.Pot[]",
									"name": "pots",
									"type": "tuple[]"
								},
								{
									"internalType": "uint256",
									"name": "lastActivityTimestamp",
									"type": "uint256"
								}
							],
							"internalType": "struct TexasHoldem.Table",
							"name": "",
							"type": "tuple"
						}
					],
					"stateMutability": "view",
					"type": "function"
				},
				{
					"inputs": [
						{
							"internalType": "uint256",
							"name": "tableId",
							"type": "uint256"
						},
						{
							"internalType": "uint256",
							"name": "buyInAmount",
							"type": "uint256"
						}
					],
					"name": "joinTable",
					"outputs": [],
					"stateMutability": "nonpayable",
					"type": "function"
				},
				{
					"inputs": [
						{
							"internalType": "uint256",
							"name": "tableId",
							"type": "uint256"
						}
					],
					"name": "leaveTable",
					"outputs": [],
					"stateMutability": "nonpayable",
					"type": "function"
				},
				{
					"inputs": [
						{
							"internalType": "address",
							"name": "",
							"type": "address"
						}
					],
					"name": "playerTableId",
					"outputs": [
						{
							"internalType": "uint256",
							"name": "",
							"type": "uint256"
						}
					],
					"stateMutability": "view",
					"type": "function"
				},
				{
					"inputs": [
						{
							"internalType": "uint256",
							"name": "tableId",
							"type": "uint256"
						},
						{
							"internalType": "uint256",
							"name": "raiseAmount",
							"type": "uint256"
						}
					],
					"name": "raise",
					"outputs": [],
					"stateMutability": "nonpayable",
					"type": "function"
				},
				{
					"inputs": [
						{
							"internalType": "uint256",
							"name": "",
							"type": "uint256"
						}
					],
					"name": "tables",
					"outputs": [
						{
							"internalType": "uint256",
							"name": "id",
							"type": "uint256"
						},
						{
							"internalType": "enum TexasHoldem.TableStatus",
							"name": "status",
							"type": "uint8"
						},
						{
							"internalType": "uint256",
							"name": "minBuyIn",
							"type": "uint256"
						},
						{
							"internalType": "uint256",
							"name": "maxBuyIn",
							"type": "uint256"
						},
						{
							"internalType": "uint256",
							"name": "smallBlind",
							"type": "uint256"
						},
						{
							"internalType": "uint256",
							"name": "bigBlind",
							"type": "uint256"
						},
						{
							"internalType": "uint8",
							"name": "dealerIndex",
							"type": "uint8"
						},
						{
							"internalType": "uint8",
							"name": "actionIndex",
							"type": "uint8"
						},
						{
							"internalType": "uint8",
							"name": "deckIndex",
							"type": "uint8"
						},
						{
							"internalType": "enum TexasHoldem.GamePhase",
							"name": "phase",
							"type": "uint8"
						},
						{
							"internalType": "uint256",
							"name": "currentBet",
							"type": "uint256"
						},
						{
							"internalType": "uint256",
							"name": "minRaise",
							"type": "uint256"
						},
						{
							"internalType": "uint256",
							"name": "lastActivityTimestamp",
							"type": "uint256"
						}
					],
					"stateMutability": "view",
					"type": "function"
				}
			],
			"devdoc": {
				"author": "Gemini",
				"details": "WARNING: This contract is for educational purposes only and is NOT SECURE for real money. It suffers from two major vulnerabilities: 1. Public Card Information: All card data is stored on-chain and is publicly readable. This means a malicious actor can read the deck and players' cards. 2. Insecure Randomness: The card shuffling mechanism is predictable and exploitable. A determined attacker can manipulate the outcome of the shuffle. This contract is designed to be deployed on Base or other EVM-compatible chains.",
				"kind": "dev",
				"methods": {
					"createTable(uint256,uint256,uint256,uint256)": {
						"params": {
							"_bigBlind": "The big blind amount.",
							"_maxBuyIn": "The maximum chips a player can have at the table.",
							"_minBuyIn": "The minimum chips required to join.",
							"_smallBlind": "The small blind amount."
						}
					},
					"getPlayerState(uint256,address)": {
						"params": {
							"playerAddr": "The address of the player.",
							"tableId": "The ID of the table."
						},
						"returns": {
							"_0": "A tuple containing all player state variables."
						}
					},
					"getTableState(uint256)": {
						"params": {
							"tableId": "The ID of the table."
						},
						"returns": {
							"_0": "A tuple containing all table state variables."
						}
					},
					"joinTable(uint256,uint256)": {
						"params": {
							"buyInAmount": "The amount of chips to bring to the table.",
							"tableId": "The ID of the table to join."
						}
					},
					"leaveTable(uint256)": {
						"params": {
							"tableId": "The ID of the table to leave."
						}
					}
				},
				"title": "TexasHoldem",
				"version": 1
			},
			"evm": {
				"assembly": "    /* \"contracts/poker.sol\":729:25810  contract TexasHoldem {... */\n  0x80\n  dup1\n  0x40\n  mstore\n  jumpi(tag_1, callvalue)\n  dataSize(sub_0)\n  swap1\n  dup2\n  dataOffset(sub_0)\n  dup3\n  codecopy\n  return\ntag_1:\n  0x00\n  dup1\n  revert\nstop\n\nsub_0: assembly {\n        /* \"contracts/poker.sol\":729:25810  contract TexasHoldem {... */\n      0xa0\n      dup1\n      0x40\n      mstore\n      jumpi(tag_52, iszero(lt(calldatasize, 0x04)))\n      0x00\n      dup1\n      revert\n    tag_52:\n      shr(0xe0, calldataload(0x00))\n      swap1\n      dup2\n      0x01e22c12\n      eq\n      tag_54\n      jumpi\n      pop\n      dup1\n      0x08ce2011\n      eq\n      tag_56\n      jumpi\n      dup1\n      0x1ff7efc0\n      eq\n      tag_58\n      jumpi\n      dup1\n      0x1ffc9a02\n      eq\n      tag_60\n      jumpi\n      dup1\n      0x2b096926\n      eq\n      tag_62\n      jumpi\n      dup1\n      0x40cb15d8\n      eq\n      tag_64\n      jumpi\n      dup1\n      0x4411b3eb\n      eq\n      tag_66\n      jumpi\n      dup1\n      0x56adcb76\n      eq\n      tag_68\n      jumpi\n      dup1\n      0x5e82ff65\n      eq\n      tag_70\n      jumpi\n      dup1\n      0x5f72f450\n      eq\n      tag_72\n      jumpi\n      dup1\n      0x71671bf2\n      eq\n      tag_74\n      jumpi\n      dup1\n      0xa4dd19a5\n      eq\n      tag_76\n      jumpi\n      dup1\n      0xb20bfbb9\n      eq\n      tag_78\n      jumpi\n      dup1\n      0xbff7a00b\n      eq\n      tag_80\n      jumpi\n      0xe52b2285\n      eq\n      tag_82\n      jumpi\n      0x00\n      dup1\n      revert\n    tag_82:\n      jumpi(tag_86, callvalue)\n      jumpi(tag_86, slt(add(not(0x03), calldatasize), 0x20))\n      calldataload(0x04)\n        /* \"contracts/poker.sol\":3310:3366  require(tableId < tables.length, \"Table does not exist\") */\n      tag_88\n        /* \"contracts/poker.sol\":729:25810  contract TexasHoldem {... */\n      sload(0x00)\n        /* \"contracts/poker.sol\":3318:3341  tableId < tables.length */\n      dup3\n      lt\n        /* \"contracts/poker.sol\":3310:3366  require(tableId < tables.length, \"Table does not exist\") */\n      tag_6\n      jump\t// in\n    tag_88:\n        /* \"contracts/poker.sol\":3411:3421  msg.sender */\n      caller\n        /* \"contracts/poker.sol\":729:25810  contract TexasHoldem {... */\n      0x00\n      mstore\n      mstore(0x20, 0x01)\n        /* \"contracts/poker.sol\":3376:3484  require(... */\n      tag_89\n        /* \"contracts/poker.sol\":729:25810  contract TexasHoldem {... */\n      dup2\n      sload(keccak256(0x00, 0x40))\n        /* \"contracts/poker.sol\":3397:3433  playerTableId[msg.sender] == tableId */\n      eq\n        /* \"contracts/poker.sol\":3376:3484  require(... */\n      tag_7\n      jump\t// in\n    tag_89:\n        /* \"contracts/poker.sol\":3572:3587  tables[tableId] */\n      tag_90\n      dup2\n      tag_5\n      jump\t// in\n    tag_90:\n        /* \"contracts/poker.sol\":3605:3617  table.status */\n      pop\n        /* \"contracts/poker.sol\":729:25810  contract TexasHoldem {... */\n      0xff\n      0x01\n        /* \"contracts/poker.sol\":3605:3617  table.status */\n      dup3\n      add\n        /* \"contracts/poker.sol\":729:25810  contract TexasHoldem {... */\n      sload\n      and\n      swap1\n      0x03\n      dup3\n      lt\n      iszero\n      tag_91\n      jumpi\n        /* \"contracts/poker.sol\":3597:3662  require(table.status == TableStatus.Active, \"Game is not active\") */\n      tag_93\n        /* \"contracts/poker.sol\":729:25810  contract TexasHoldem {... */\n      0x01\n        /* \"contracts/poker.sol\":3672:3843  require(... */\n      tag_94\n        /* \"contracts/poker.sol\":3605:3639  table.status == TableStatus.Active */\n      swap4\n      eq\n        /* \"contracts/poker.sol\":3597:3662  require(table.status == TableStatus.Active, \"Game is not active\") */\n      tag_24\n      jump\t// in\n    tag_93:\n        /* \"contracts/poker.sol\":3693:3706  table.players */\n      0x07\n      dup2\n      add\n        /* \"contracts/poker.sol\":729:25810  contract TexasHoldem {... */\n      swap1\n      0xff\n        /* \"contracts/poker.sol\":3716:3733  table.actionIndex */\n      0x06\n        /* \"contracts/poker.sol\":729:25810  contract TexasHoldem {... */\n      dup4\n      sload\n        /* \"contracts/poker.sol\":3716:3733  table.actionIndex */\n      swap3\n      add\n        /* \"contracts/poker.sol\":729:25810  contract TexasHoldem {... */\n      sload\n      0x08\n      shr\n      and\n        /* \"contracts/poker.sol\":3693:3733  table.players.length > table.actionIndex */\n      dup1\n      swap2\n      gt\n        /* \"contracts/poker.sol\":3693:3804  table.players.length > table.actionIndex &&... */\n      swap2\n      dup3\n      tag_95\n      jumpi\n        /* \"contracts/poker.sol\":729:25810  contract TexasHoldem {... */\n    tag_96:\n        /* \"contracts/poker.sol\":3672:3843  require(... */\n      pop\n      pop\n      tag_25\n      jump\t// in\n    tag_94:\n        /* \"contracts/poker.sol\":11285:11300  tables[tableId] */\n      tag_97\n      dup2\n      tag_5\n      jump\t// in\n    tag_97:\n        /* \"contracts/poker.sol\":11334:11347  table.players */\n      pop\n        /* \"contracts/poker.sol\":3693:3706  table.players */\n      0x07\n        /* \"contracts/poker.sol\":11334:11347  table.players */\n      dup2\n      add\n        /* \"contracts/poker.sol\":11348:11365  table.actionIndex */\n      swap2\n        /* \"contracts/poker.sol\":11334:11366  table.players[table.actionIndex] */\n      tag_98\n        /* \"contracts/poker.sol\":729:25810  contract TexasHoldem {... */\n      0xff\n        /* \"contracts/poker.sol\":3716:3733  table.actionIndex */\n      0x06\n        /* \"contracts/poker.sol\":11348:11365  table.actionIndex */\n      dup5\n      add\n        /* \"contracts/poker.sol\":729:25810  contract TexasHoldem {... */\n      sload\n      0x08\n      shr\n      and\n        /* \"contracts/poker.sol\":11334:11366  table.players[table.actionIndex] */\n      dup5\n      tag_8\n      jump\t// in\n    tag_98:\n        /* \"contracts/poker.sol\":11393:11405  player.chips */\n      pop\n      swap2\n        /* \"contracts/poker.sol\":729:25810  contract TexasHoldem {... */\n      0x01\n        /* \"contracts/poker.sol\":11393:11405  player.chips */\n      dup4\n      add\n        /* \"contracts/poker.sol\":729:25810  contract TexasHoldem {... */\n      swap1\n      0x00\n      dup3\n      sload\n      swap3\n      sstore\n        /* \"contracts/poker.sol\":11442:11452  player.bet */\n      0x02\n      dup5\n      add\n        /* \"contracts/poker.sol\":11442:11464  player.bet += totalBet */\n      tag_99\n        /* \"contracts/poker.sol\":729:25810  contract TexasHoldem {... */\n      dup4\n      dup3\n      sload\n        /* \"contracts/poker.sol\":11442:11464  player.bet += totalBet */\n      tag_10\n      jump\t// in\n    tag_99:\n        /* \"contracts/poker.sol\":729:25810  contract TexasHoldem {... */\n      swap1\n      dup2\n      dup2\n      sstore\n        /* \"contracts/poker.sol\":11492:11508  table.currentBet */\n      0x0d\n      dup4\n      add\n        /* \"contracts/poker.sol\":729:25810  contract TexasHoldem {... */\n      dup1\n      sload\n        /* \"contracts/poker.sol\":11479:11508  player.bet > table.currentBet */\n      dup4\n      gt\n        /* \"contracts/poker.sol\":11475:11680  if (player.bet > table.currentBet) {... */\n      tag_100\n      jumpi\n        /* \"contracts/poker.sol\":729:25810  contract TexasHoldem {... */\n    tag_101:\n      pop\n      pop\n      pop\n      pop\n      mload(0x40)\n      swap1\n      0x40\n      dup3\n      mstore\n        /* \"contracts/poker.sol\":3716:3733  table.actionIndex */\n      0x06\n        /* \"contracts/poker.sol\":729:25810  contract TexasHoldem {... */\n      0x40\n      dup4\n      add\n      mstore\n      shl(0xd1, 0x20b63616b4b7)\n      0x60\n      dup4\n      add\n      mstore\n      0x20\n      dup3\n      add\n      mstore\n        /* \"contracts/poker.sol\":3411:3421  msg.sender */\n      dup2\n      mload(0x00)\n      codecopy(0x00, data_5fbdae1c3a8152e8670d738bce7389093f96aaa8fb2ebef0879d89bfb2dfe752, 0x20)\n      mload(0x00)\n      swap1\n      0x00\n      mstore\n        /* \"contracts/poker.sol\":11695:11748  PlayerAction(tableId, msg.sender, \"All-in\", totalBet) */\n      0x80\n        /* \"contracts/poker.sol\":3411:3421  msg.sender */\n      caller\n        /* \"contracts/poker.sol\":11695:11748  PlayerAction(tableId, msg.sender, \"All-in\", totalBet) */\n      swap4\n      log3\n        /* \"contracts/poker.sol\":729:25810  contract TexasHoldem {... */\n      0x00\n        /* \"contracts/poker.sol\":11802:11805  i++ */\n    tag_102:\n        /* \"contracts/poker.sol\":729:25810  contract TexasHoldem {... */\n      dup4\n      sload\n        /* \"contracts/poker.sol\":11776:11800  i < table.players.length */\n      dup2\n      lt\n      iszero\n      tag_103\n      jumpi\n        /* \"contracts/poker.sol\":11825:11841  table.players[i] */\n      dup1\n        /* \"contracts/poker.sol\":729:25810  contract TexasHoldem {... */\n      0xff\n      0x04\n        /* \"contracts/poker.sol\":11825:11841  table.players[i] */\n      tag_105\n        /* \"contracts/poker.sol\":729:25810  contract TexasHoldem {... */\n      0x01\n        /* \"contracts/poker.sol\":11825:11841  table.players[i] */\n      swap5\n      dup9\n      tag_8\n      jump\t// in\n    tag_105:\n        /* \"contracts/poker.sol\":11825:11848  table.players[i].inHand */\n      pop\n      add\n        /* \"contracts/poker.sol\":729:25810  contract TexasHoldem {... */\n      sload\n      and\n        /* \"contracts/poker.sol\":11821:11916  if (table.players[i].inHand) {... */\n      tag_106\n      jumpi\n        /* \"contracts/poker.sol\":11802:11805  i++ */\n    tag_107:\n        /* \"contracts/poker.sol\":729:25810  contract TexasHoldem {... */\n      add\n        /* \"contracts/poker.sol\":11764:11774  uint i = 0 */\n      jump(tag_102)\n        /* \"contracts/poker.sol\":11821:11916  if (table.players[i].inHand) {... */\n    tag_106:\n        /* \"contracts/poker.sol\":729:25810  contract TexasHoldem {... */\n      0x04\n        /* \"contracts/poker.sol\":11868:11884  table.players[i] */\n      tag_108\n      dup3\n      dup8\n      tag_8\n      jump\t// in\n    tag_108:\n      pop\n        /* \"contracts/poker.sol\":11868:11893  table.players[i].hasActed */\n      add\n        /* \"contracts/poker.sol\":729:25810  contract TexasHoldem {... */\n      dup1\n      sload\n      not(0xff00)\n      and\n      swap1\n      sstore\n        /* \"contracts/poker.sol\":11821:11916  if (table.players[i].inHand) {... */\n      jump(tag_107)\n        /* \"contracts/poker.sol\":11776:11800  i < table.players.length */\n    tag_103:\n      pop\n        /* \"contracts/poker.sol\":729:25810  contract TexasHoldem {... */\n      0x04\n        /* \"contracts/poker.sol\":11983:11990  tableId */\n      tag_109\n        /* \"contracts/poker.sol\":11776:11800  i < table.players.length */\n      swap3\n        /* \"contracts/poker.sol\":11935:11950  player.hasActed */\n      add\n        /* \"contracts/poker.sol\":729:25810  contract TexasHoldem {... */\n      0x0100\n      not(0xff00)\n      dup3\n      sload\n      and\n      or\n      swap1\n      sstore\n        /* \"contracts/poker.sol\":11983:11990  tableId */\n      tag_34\n      jump\t// in\n    tag_109:\n        /* \"contracts/poker.sol\":729:25810  contract TexasHoldem {... */\n      stop\n        /* \"contracts/poker.sol\":11475:11680  if (player.bet > table.currentBet) {... */\n    tag_100:\n        /* \"contracts/poker.sol\":729:25810  contract TexasHoldem {... */\n      dup3\n        /* \"contracts/poker.sol\":11584:11626  totalBet - (table.currentBet - player.bet) */\n      tag_110\n        /* \"contracts/poker.sol\":729:25810  contract TexasHoldem {... */\n      swap3\n        /* \"contracts/poker.sol\":11567:11581  table.minRaise */\n      0x0e\n        /* \"contracts/poker.sol\":729:25810  contract TexasHoldem {... */\n      swap5\n        /* \"contracts/poker.sol\":11596:11625  table.currentBet - player.bet */\n      tag_111\n        /* \"contracts/poker.sol\":729:25810  contract TexasHoldem {... */\n      swap4\n      sstore\n      sload\n        /* \"contracts/poker.sol\":11596:11625  table.currentBet - player.bet */\n      swap1\n      tag_9\n      jump\t// in\n    tag_111:\n        /* \"contracts/poker.sol\":11584:11626  totalBet - (table.currentBet - player.bet) */\n      dup5\n      tag_9\n      jump\t// in\n    tag_110:\n        /* \"contracts/poker.sol\":11567:11581  table.minRaise */\n      swap2\n      add\n        /* \"contracts/poker.sol\":729:25810  contract TexasHoldem {... */\n      sstore\n        /* \"contracts/poker.sol\":11475:11680  if (player.bet > table.currentBet) {... */\n      0x00\n      dup1\n      dup1\n      dup1\n      jump(tag_101)\n        /* \"contracts/poker.sol\":3693:3804  table.players.length > table.actionIndex &&... */\n    tag_95:\n        /* \"contracts/poker.sol\":3753:3785  table.players[table.actionIndex] */\n      tag_112\n      swap3\n      pop\n      tag_8\n      jump\t// in\n    tag_112:\n      pop\n        /* \"contracts/poker.sol\":729:25810  contract TexasHoldem {... */\n      sload\n      sub(shl(0xa0, 0x01), 0x01)\n      and\n        /* \"contracts/poker.sol\":3411:3421  msg.sender */\n      caller\n        /* \"contracts/poker.sol\":3753:3804  table.players[table.actionIndex].addr == msg.sender */\n      eq\n        /* \"contracts/poker.sol\":3693:3804  table.players.length > table.actionIndex &&... */\n      0x00\n      dup1\n      jump(tag_96)\n        /* \"contracts/poker.sol\":729:25810  contract TexasHoldem {... */\n    tag_91:\n      mstore(0x00, shl(0xe0, 0x4e487b71))\n      mstore(0x04, 0x21)\n      revert(0x00, 0x24)\n    tag_86:\n      0x00\n      dup1\n      revert\n    tag_80:\n      jumpi(tag_86, callvalue)\n      jumpi(tag_86, slt(add(not(0x03), calldatasize), 0x20))\n      calldataload(0x04)\n        /* \"contracts/poker.sol\":3310:3366  require(tableId < tables.length, \"Table does not exist\") */\n      tag_117\n        /* \"contracts/poker.sol\":729:25810  contract TexasHoldem {... */\n      sload(0x00)\n        /* \"contracts/poker.sol\":3318:3341  tableId < tables.length */\n      dup3\n      lt\n        /* \"contracts/poker.sol\":3310:3366  require(tableId < tables.length, \"Table does not exist\") */\n      tag_6\n      jump\t// in\n    tag_117:\n        /* \"contracts/poker.sol\":3411:3421  msg.sender */\n      caller\n        /* \"contracts/poker.sol\":729:25810  contract TexasHoldem {... */\n      0x00\n      mstore\n      mstore(0x20, 0x01)\n        /* \"contracts/poker.sol\":3376:3484  require(... */\n      tag_118\n        /* \"contracts/poker.sol\":729:25810  contract TexasHoldem {... */\n      dup2\n      sload(keccak256(0x00, 0x40))\n        /* \"contracts/poker.sol\":3397:3433  playerTableId[msg.sender] == tableId */\n      eq\n        /* \"contracts/poker.sol\":3376:3484  require(... */\n      tag_7\n      jump\t// in\n    tag_118:\n        /* \"contracts/poker.sol\":3572:3587  tables[tableId] */\n      tag_119\n      dup2\n      tag_5\n      jump\t// in\n    tag_119:\n        /* \"contracts/poker.sol\":3605:3617  table.status */\n      pop\n      swap1\n        /* \"contracts/poker.sol\":729:25810  contract TexasHoldem {... */\n      0xff\n      0x01\n        /* \"contracts/poker.sol\":3605:3617  table.status */\n      dup4\n      add\n        /* \"contracts/poker.sol\":729:25810  contract TexasHoldem {... */\n      sload\n      and\n      0x03\n      dup2\n      lt\n      iszero\n      tag_91\n      jumpi\n        /* \"contracts/poker.sol\":9170:9177  tableId */\n      tag_109\n        /* \"contracts/poker.sol\":3605:3639  table.status == TableStatus.Active */\n      swap3\n        /* \"contracts/poker.sol\":3597:3662  require(table.status == TableStatus.Active, \"Game is not active\") */\n      tag_123\n        /* \"contracts/poker.sol\":729:25810  contract TexasHoldem {... */\n      0x01\n        /* \"contracts/poker.sol\":3672:3843  require(... */\n      tag_124\n        /* \"contracts/poker.sol\":3605:3639  table.status == TableStatus.Active */\n      swap4\n      eq\n        /* \"contracts/poker.sol\":3597:3662  require(table.status == TableStatus.Active, \"Game is not active\") */\n      tag_24\n      jump\t// in\n    tag_123:\n        /* \"contracts/poker.sol\":3693:3706  table.players */\n      0x07\n      dup2\n      add\n        /* \"contracts/poker.sol\":729:25810  contract TexasHoldem {... */\n      swap1\n      0xff\n        /* \"contracts/poker.sol\":3716:3733  table.actionIndex */\n      0x06\n        /* \"contracts/poker.sol\":729:25810  contract TexasHoldem {... */\n      dup4\n      sload\n        /* \"contracts/poker.sol\":3716:3733  table.actionIndex */\n      swap3\n      add\n        /* \"contracts/poker.sol\":729:25810  contract TexasHoldem {... */\n      sload\n      0x08\n      shr\n      and\n        /* \"contracts/poker.sol\":3693:3733  table.players.length > table.actionIndex */\n      dup1\n      swap2\n      gt\n        /* \"contracts/poker.sol\":3693:3804  table.players.length > table.actionIndex &&... */\n      swap2\n      dup3\n      tag_125\n      jumpi\n        /* \"contracts/poker.sol\":3672:3843  require(... */\n      pop\n      pop\n      tag_25\n      jump\t// in\n    tag_124:\n        /* \"contracts/poker.sol\":729:25810  contract TexasHoldem {... */\n      0x04\n        /* \"contracts/poker.sol\":9038:9070  table.players[table.actionIndex] */\n      tag_127\n        /* \"contracts/poker.sol\":9013:9028  tables[tableId] */\n      tag_128\n      dup4\n      tag_5\n      jump\t// in\n    tag_128:\n        /* \"contracts/poker.sol\":9052:9069  table.actionIndex */\n      pop\n        /* \"contracts/poker.sol\":3693:3706  table.players */\n      0x07\n        /* \"contracts/poker.sol\":729:25810  contract TexasHoldem {... */\n      0xff\n        /* \"contracts/poker.sol\":3716:3733  table.actionIndex */\n      0x06\n        /* \"contracts/poker.sol\":9052:9069  table.actionIndex */\n      dup4\n      add\n        /* \"contracts/poker.sol\":729:25810  contract TexasHoldem {... */\n      sload\n      0x08\n      shr\n      and\n        /* \"contracts/poker.sol\":9038:9051  table.players */\n      swap2\n      add\n        /* \"contracts/poker.sol\":9038:9070  table.players[table.actionIndex] */\n      tag_8\n      jump\t// in\n    tag_127:\n        /* \"contracts/poker.sol\":9038:9077  table.players[table.actionIndex].inHand */\n      pop\n      add\n        /* \"contracts/poker.sol\":729:25810  contract TexasHoldem {... */\n      not(0xff)\n      dup2\n      sload\n      and\n      swap1\n      sstore\n      mload(0x40)\n      0x40\n      dup2\n      mstore\n      0x04\n      0x40\n      dup3\n      add\n      mstore\n      shl(0xe2, 0x119bdb19)\n      0x60\n      dup3\n      add\n      mstore\n      0x00\n      0x20\n      dup3\n      add\n      mstore\n        /* \"contracts/poker.sol\":3411:3421  msg.sender */\n      dup2\n      mload(0x00)\n      codecopy(0x00, data_5fbdae1c3a8152e8670d738bce7389093f96aaa8fb2ebef0879d89bfb2dfe752, 0x20)\n      mload(0x00)\n      swap1\n      0x00\n      mstore\n        /* \"contracts/poker.sol\":9101:9145  PlayerAction(tableId, msg.sender, \"Fold\", 0) */\n      0x80\n        /* \"contracts/poker.sol\":3411:3421  msg.sender */\n      caller\n        /* \"contracts/poker.sol\":9101:9145  PlayerAction(tableId, msg.sender, \"Fold\", 0) */\n      swap4\n      log3\n        /* \"contracts/poker.sol\":9170:9177  tableId */\n      tag_34\n      jump\t// in\n        /* \"contracts/poker.sol\":3693:3804  table.players.length > table.actionIndex &&... */\n    tag_125:\n        /* \"contracts/poker.sol\":3753:3785  table.players[table.actionIndex] */\n      tag_129\n      swap3\n      pop\n      tag_8\n      jump\t// in\n    tag_129:\n      pop\n        /* \"contracts/poker.sol\":729:25810  contract TexasHoldem {... */\n      sload\n      sub(shl(0xa0, 0x01), 0x01)\n      and\n        /* \"contracts/poker.sol\":3411:3421  msg.sender */\n      caller\n        /* \"contracts/poker.sol\":3753:3804  table.players[table.actionIndex].addr == msg.sender */\n      eq\n        /* \"contracts/poker.sol\":3693:3804  table.players.length > table.actionIndex &&... */\n      dup5\n      dup1\n      jump(tag_96)\n        /* \"contracts/poker.sol\":729:25810  contract TexasHoldem {... */\n    tag_78:\n      jumpi(tag_86, callvalue)\n      jumpi(tag_86, slt(add(not(0x03), calldatasize), 0x40))\n      calldataload(0x24)\n      sub(shl(0xa0, 0x01), 0x01)\n      dup2\n      and\n      dup2\n      sub\n      tag_86\n      jumpi\n      tag_136\n      0x0100\n      swap2\n      calldataload(0x04)\n      tag_30\n      jump\t// in\n    tag_136:\n      tag_137\n      mload(0x40)\n      dup1\n      swap3\n      tag_3\n      jump\t// in\n    tag_137:\n      return\n    tag_76:\n      jumpi(tag_86, callvalue)\n      jumpi(tag_86, slt(add(not(0x03), calldatasize), 0x80))\n      sload(0x00)\n      calldataload(0x44)\n      calldataload(0x04)\n      calldataload(0x24)\n      calldataload(0x64)\n        /* \"contracts/poker.sol\":2291:2293  10 */\n      0x0a\n        /* \"contracts/poker.sol\":5454:5480  tables.length < MAX_TABLES */\n      dup6\n      lt\n        /* \"contracts/poker.sol\":729:25810  contract TexasHoldem {... */\n      iszero\n      tag_142\n      jumpi\n        /* \"contracts/poker.sol\":5538:5551  _minBuyIn > 0 */\n      dup3\n      iszero\n      iszero\n        /* \"contracts/poker.sol\":5538:5570  _minBuyIn > 0 && _smallBlind > 0 */\n      dup1\n      tag_144\n      jumpi\n        /* \"contracts/poker.sol\":729:25810  contract TexasHoldem {... */\n    tag_145:\n        /* \"contracts/poker.sol\":5538:5597  _minBuyIn > 0 && _smallBlind > 0 && _bigBlind > _smallBlind */\n      dup1\n      tag_146\n      jumpi\n        /* \"contracts/poker.sol\":729:25810  contract TexasHoldem {... */\n    tag_147:\n      iszero\n      tag_148\n      jumpi\n        /* \"contracts/poker.sol\":5655:5677  _maxBuyIn >= _minBuyIn */\n      dup3\n      dup3\n      lt\n        /* \"contracts/poker.sol\":729:25810  contract TexasHoldem {... */\n      tag_150\n      jumpi\n      mload(0x40)\n      swap4\n      0x0680\n      tag_152\n      dup2\n      dup8\n      tag_18\n      jump\t// in\n    tag_152:\n      calldatasize\n      dup7\n      calldatacopy\n      0x20\n      swap5\n      mload(0x40)\n      tag_153\n      dup8\n      dup3\n      tag_18\n      jump\t// in\n    tag_153:\n      0x00\n      dup2\n      mstore\n      mload(0x40)\n      swap3\n      0xa0\n      dup5\n      add\n      dup5\n      dup2\n      lt\n      0xffffffffffffffff\n      dup3\n      gt\n      or\n      tag_188\n      jumpi\n      0x40\n      mstore\n      0x00\n      dup5\n      mstore\n      0x00\n        /* \"contracts/poker.sol\":6275:6297  [uint8(0), 0, 0, 0, 0] */\n      dup9\n      dup6\n      add\n        /* \"contracts/poker.sol\":729:25810  contract TexasHoldem {... */\n      mstore\n      0x00\n      0x40\n        /* \"contracts/poker.sol\":6275:6297  [uint8(0), 0, 0, 0, 0] */\n      dup6\n      add\n        /* \"contracts/poker.sol\":729:25810  contract TexasHoldem {... */\n      mstore\n      0x00\n      0x60\n        /* \"contracts/poker.sol\":6275:6297  [uint8(0), 0, 0, 0, 0] */\n      dup6\n      add\n        /* \"contracts/poker.sol\":729:25810  contract TexasHoldem {... */\n      mstore\n      0x00\n      0x80\n        /* \"contracts/poker.sol\":6275:6297  [uint8(0), 0, 0, 0, 0] */\n      dup6\n      add\n        /* \"contracts/poker.sol\":729:25810  contract TexasHoldem {... */\n      mstore\n      mload(0x40)\n      swap6\n      tag_158\n      dup10\n      dup9\n      tag_18\n      jump\t// in\n    tag_158:\n      0x00\n      dup8\n      mstore\n      mload(0x40)\n      swap8\n      tag_161\n      dup10\n      tag_17\n      jump\t// in\n    tag_161:\n      dup11\n      dup10\n      mstore\n      0x00\n        /* \"contracts/poker.sol\":5840:6514  Table({... */\n      dup11\n      dup11\n      add\n        /* \"contracts/poker.sol\":729:25810  contract TexasHoldem {... */\n      mstore\n      0x40\n        /* \"contracts/poker.sol\":5840:6514  Table({... */\n      dup10\n      add\n        /* \"contracts/poker.sol\":729:25810  contract TexasHoldem {... */\n      mstore\n      0x60\n        /* \"contracts/poker.sol\":5840:6514  Table({... */\n      dup9\n      add\n        /* \"contracts/poker.sol\":729:25810  contract TexasHoldem {... */\n      mstore\n      0x80\n        /* \"contracts/poker.sol\":5840:6514  Table({... */\n      dup8\n      add\n        /* \"contracts/poker.sol\":729:25810  contract TexasHoldem {... */\n      mstore\n        /* \"contracts/poker.sol\":5840:6514  Table({... */\n      dup4\n        /* \"contracts/poker.sol\":729:25810  contract TexasHoldem {... */\n      0xa0\n        /* \"contracts/poker.sol\":5840:6514  Table({... */\n      dup8\n      add\n        /* \"contracts/poker.sol\":729:25810  contract TexasHoldem {... */\n      mstore\n      0x00\n        /* \"contracts/poker.sol\":5840:6514  Table({... */\n      0xc0\n      dup8\n      add\n        /* \"contracts/poker.sol\":729:25810  contract TexasHoldem {... */\n      mstore\n      0x00\n      0xe0\n        /* \"contracts/poker.sol\":5840:6514  Table({... */\n      dup8\n      add\n        /* \"contracts/poker.sol\":729:25810  contract TexasHoldem {... */\n      mstore\n        /* \"contracts/poker.sol\":5840:6514  Table({... */\n      0x0100\n      dup7\n      add\n        /* \"contracts/poker.sol\":729:25810  contract TexasHoldem {... */\n      mstore\n        /* \"contracts/poker.sol\":5840:6514  Table({... */\n      0x0120\n      dup6\n      add\n        /* \"contracts/poker.sol\":729:25810  contract TexasHoldem {... */\n      mstore\n      0x00\n        /* \"contracts/poker.sol\":5840:6514  Table({... */\n      0x0140\n      dup6\n      add\n        /* \"contracts/poker.sol\":729:25810  contract TexasHoldem {... */\n      mstore\n        /* \"contracts/poker.sol\":5840:6514  Table({... */\n      0x0160\n      dup5\n      add\n        /* \"contracts/poker.sol\":729:25810  contract TexasHoldem {... */\n      mstore\n      0x00\n        /* \"contracts/poker.sol\":5840:6514  Table({... */\n      0x0180\n      dup5\n      add\n        /* \"contracts/poker.sol\":729:25810  contract TexasHoldem {... */\n      mstore\n      0x00\n        /* \"contracts/poker.sol\":5840:6514  Table({... */\n      0x01a0\n      dup5\n      add\n        /* \"contracts/poker.sol\":729:25810  contract TexasHoldem {... */\n      mstore\n        /* \"contracts/poker.sol\":5840:6514  Table({... */\n      0x01c0\n      dup4\n      add\n        /* \"contracts/poker.sol\":729:25810  contract TexasHoldem {... */\n      mstore\n        /* \"contracts/poker.sol\":5840:6514  Table({... */\n      0x01e0\n      dup3\n      add\n        /* \"contracts/poker.sol\":729:25810  contract TexasHoldem {... */\n      mstore\n        /* \"contracts/poker.sol\":6484:6499  block.timestamp */\n      timestamp\n        /* \"contracts/poker.sol\":5840:6514  Table({... */\n      0x0200\n      dup3\n      add\n        /* \"contracts/poker.sol\":729:25810  contract TexasHoldem {... */\n      mstore\n      shl(0x40, 0x01)\n      dup4\n      lt\n      iszero\n      tag_188\n      jumpi\n      0x01\n      dup4\n      add\n      0x00\n      sstore\n      tag_164\n      dup4\n      tag_5\n      jump\t// in\n    tag_164:\n      swap3\n      swap1\n      swap3\n      tag_165\n      jumpi\n      dup2\n      mload\n      dup4\n      sstore\n      0x01\n      dup4\n      add\n        /* \"contracts/poker.sol\":5840:6514  Table({... */\n      dup2\n      dup4\n      add\n        /* \"contracts/poker.sol\":729:25810  contract TexasHoldem {... */\n      mload\n      0x03\n      dup2\n      lt\n      iszero\n      tag_91\n      jumpi\n      0xff\n      dup1\n      not\n      dup4\n      sload\n      and\n      swap2\n      and\n      or\n      swap1\n      sstore\n      0x40\n        /* \"contracts/poker.sol\":5840:6514  Table({... */\n      dup3\n      add\n        /* \"contracts/poker.sol\":729:25810  contract TexasHoldem {... */\n      mload\n      0x02\n      dup5\n      add\n      sstore\n      0x60\n        /* \"contracts/poker.sol\":5840:6514  Table({... */\n      dup3\n      add\n        /* \"contracts/poker.sol\":729:25810  contract TexasHoldem {... */\n      mload\n      0x03\n      dup5\n      add\n      sstore\n      0x80\n        /* \"contracts/poker.sol\":5840:6514  Table({... */\n      dup3\n      add\n        /* \"contracts/poker.sol\":729:25810  contract TexasHoldem {... */\n      mload\n      0x04\n      dup5\n      add\n      sstore\n      0xa0\n        /* \"contracts/poker.sol\":5840:6514  Table({... */\n      dup3\n      add\n        /* \"contracts/poker.sol\":729:25810  contract TexasHoldem {... */\n      mload\n      0x05\n      dup5\n      add\n      sstore\n      tag_169\n      0x06\n      dup5\n      add\n      0xff\n        /* \"contracts/poker.sol\":5840:6514  Table({... */\n      dup1\n      0xc0\n      dup7\n      add\n        /* \"contracts/poker.sol\":729:25810  contract TexasHoldem {... */\n      mload\n      and\n      and\n      not(0xff)\n      dup3\n      sload\n      and\n      or\n      dup2\n      sstore\n      0xff\n      0xe0\n        /* \"contracts/poker.sol\":5840:6514  Table({... */\n      dup6\n      add\n        /* \"contracts/poker.sol\":729:25810  contract TexasHoldem {... */\n      mload\n      and\n      0xff00\n      dup3\n      sload\n      swap2\n      0x08\n      shl\n      and\n      swap1\n      not(0xff00)\n      and\n      or\n      swap1\n      sstore\n      jump\n    tag_169:\n      0x07\n      dup4\n      add\n        /* \"contracts/poker.sol\":5840:6514  Table({... */\n      0x0100\n      dup4\n      add\n        /* \"contracts/poker.sol\":729:25810  contract TexasHoldem {... */\n      mload\n      swap1\n      dup2\n      mload\n      swap2\n      shl(0x40, 0x01)\n      dup4\n      gt\n      tag_188\n      jumpi\n      dup4\n      swap1\n      dup3\n      sload\n      dup5\n      dup5\n      sstore\n      dup1\n      dup6\n      lt\n      tag_172\n      jumpi\n    tag_173:\n      pop\n      add\n      swap1\n      0x00\n      mstore\n      dup3\n      0x00\n      keccak256\n      dup4\n      0x00\n      swap3\n    tag_174:\n      dup5\n      dup5\n      lt\n      tag_175\n      jumpi\n        /* \"contracts/poker.sol\":5840:6514  Table({... */\n      pop\n      pop\n      pop\n      pop\n      pop\n      0x0120\n      dup3\n      add\n        /* \"contracts/poker.sol\":729:25810  contract TexasHoldem {... */\n      mload\n      0x00\n    tag_177:\n      0x01\n      dup2\n      lt\n      tag_178\n      jumpi\n      pop\n      0x00\n      swap1\n      0x00\n    tag_180:\n      dup4\n      0x14\n      dup3\n      lt\n      tag_181\n      jumpi\n      pop\n      pop\n      pop\n      0x09\n      dup5\n      add\n      sstore\n      0xff\n        /* \"contracts/poker.sol\":5840:6514  Table({... */\n      0x0140\n      dup4\n      add\n        /* \"contracts/poker.sol\":729:25810  contract TexasHoldem {... */\n      mload\n      and\n      0xff\n        /* \"contracts/poker.sol\":2291:2293  10 */\n      0x0a\n        /* \"contracts/poker.sol\":729:25810  contract TexasHoldem {... */\n      dup6\n      add\n      swap2\n      and\n      not(0xff)\n      dup3\n      sload\n      and\n      or\n      swap1\n      sstore\n        /* \"contracts/poker.sol\":5840:6514  Table({... */\n      0x0160\n      dup3\n      add\n        /* \"contracts/poker.sol\":729:25810  contract TexasHoldem {... */\n      mload\n      0x00\n      swap1\n      0x00\n    tag_183:\n      dup4\n      0x05\n      dup3\n      lt\n      tag_184\n      jumpi\n      pop\n      pop\n      pop\n      0x0b\n      dup5\n      add\n      sstore\n      0x0c\n      dup4\n      add\n        /* \"contracts/poker.sol\":5840:6514  Table({... */\n      0x0180\n      dup4\n      add\n        /* \"contracts/poker.sol\":729:25810  contract TexasHoldem {... */\n      mload\n      0x06\n      dup2\n      lt\n      iszero\n      tag_91\n      jumpi\n      0xff\n      dup1\n      not\n      dup4\n      sload\n      and\n      swap2\n      and\n      or\n      swap1\n      sstore\n        /* \"contracts/poker.sol\":5840:6514  Table({... */\n      0x01a0\n      dup3\n      add\n        /* \"contracts/poker.sol\":729:25810  contract TexasHoldem {... */\n      mload\n      0x0d\n      dup5\n      add\n      sstore\n        /* \"contracts/poker.sol\":5840:6514  Table({... */\n      0x01c0\n      dup3\n      add\n        /* \"contracts/poker.sol\":729:25810  contract TexasHoldem {... */\n      mload\n      0x0e\n      dup5\n      add\n      sstore\n      0x0f\n      dup4\n      add\n        /* \"contracts/poker.sol\":5840:6514  Table({... */\n      0x01e0\n      dup4\n      add\n        /* \"contracts/poker.sol\":729:25810  contract TexasHoldem {... */\n      mload\n      swap2\n      dup3\n      mload\n      swap3\n      shl(0x40, 0x01)\n      dup5\n      gt\n      tag_188\n      jumpi\n      dup2\n      swap1\n      dup4\n      sload\n      dup6\n      dup6\n      sstore\n      dup1\n      dup7\n      lt\n      tag_190\n      jumpi\n    tag_191:\n      pop\n      add\n      swap2\n      0x00\n      mstore\n      dup1\n      0x00\n      keccak256\n      0x00\n      swap3\n    tag_192:\n      dup5\n      dup5\n      lt\n      tag_193\n      jumpi\n        /* \"contracts/poker.sol\":5840:6514  Table({... */\n      0x0200\n      dup7\n      add\n        /* \"contracts/poker.sol\":729:25810  contract TexasHoldem {... */\n      mload\n      0x10\n      dup9\n      add\n      sstore\n        /* \"contracts/poker.sol\":6561:6571  msg.sender */\n      caller\n        /* \"contracts/poker.sol\":5840:6514  Table({... */\n      dup9\n        /* \"contracts/poker.sol\":6539:6572  TableCreated(tableId, msg.sender) */\n      0xe93806e02d09f53787d307ada312314ec4cb949dc9bedc8503f94bd46e45dc6b\n        /* \"contracts/poker.sol\":729:25810  contract TexasHoldem {... */\n      0x00\n      dup1\n        /* \"contracts/poker.sol\":6539:6572  TableCreated(tableId, msg.sender) */\n      log3\n        /* \"contracts/poker.sol\":729:25810  contract TexasHoldem {... */\n      stop\n    tag_193:\n      0x02\n      dup4\n      dup3\n      tag_195\n      0x01\n      swap5\n      mload\n      dup7\n      tag_29\n      jump\t// in\n    tag_195:\n      add\n      swap3\n      add\n      swap4\n      add\n      swap3\n      swap1\n      jump(tag_192)\n    tag_190:\n      swap1\n      swap2\n      pop\n      sub(shl(0xff, 0x01), 0x01)\n      dup2\n      and\n      dup2\n      sub\n      tag_198\n      jumpi\n      sub(shl(0xff, 0x01), 0x01)\n      dup6\n      and\n      dup6\n      sub\n      tag_198\n      jumpi\n      swap1\n      dup3\n      swap2\n      dup5\n      0x00\n      mstore\n      dup3\n      0x00\n      keccak256\n      swap1\n      0x01\n      shl\n      dup2\n      add\n      swap1\n      dup7\n      0x01\n      shl\n      add\n    tag_200:\n      dup2\n      dup2\n      lt\n      tag_201\n      jumpi\n      pop\n      jump(tag_191)\n    tag_201:\n      0x02\n      swap2\n      swap3\n      swap4\n      pop\n      0x00\n      dup2\n      sstore\n      tag_203\n      0x01\n      dup3\n      add\n      tag_28\n      jump\t// in\n    tag_203:\n      add\n      swap1\n      dup4\n      swap3\n      swap2\n      jump(tag_200)\n    tag_198:\n      mstore(0x00, shl(0xe0, 0x4e487b71))\n      mstore(0x04, 0x11)\n      revert(0x00, 0x24)\n    tag_188:\n      mstore(0x00, shl(0xe0, 0x4e487b71))\n      mstore(0x04, 0x41)\n      revert(0x00, 0x24)\n    tag_184:\n      dup3\n      mload\n      swap3\n      swap4\n      swap2\n      swap3\n      0x01\n      swap3\n      0xff\n      0x03\n      dup7\n      swap1\n      shl\n      dup2\n      dup2\n      shl\n      not\n      swap1\n      swap3\n      and\n      swap3\n      and\n      swap1\n      shl\n      or\n      swap4\n      add\n      swap2\n      add\n      jump(tag_183)\n    tag_181:\n      dup3\n      mload\n      swap3\n      swap4\n      swap2\n      swap3\n      0x01\n      swap3\n      0xff\n      0x03\n      dup7\n      swap1\n      shl\n      dup2\n      dup2\n      shl\n      not\n      swap1\n      swap3\n      and\n      swap3\n      and\n      swap1\n      shl\n      or\n      swap4\n      add\n      swap2\n      add\n      jump(tag_180)\n    tag_178:\n      0x00\n      0x00\n    tag_206:\n      dup5\n      dup1\n      dup3\n      lt\n      tag_207\n      jumpi\n      pop\n      pop\n      dup6\n      dup3\n      add\n      0x08\n      add\n      sstore\n      0x01\n      add\n      jump(tag_177)\n    tag_207:\n      dup5\n      mload\n      swap2\n      swap5\n      swap3\n      0x01\n      swap3\n      0xff\n      0x03\n      dup9\n      swap1\n      shl\n      dup2\n      dup2\n      shl\n      not\n      swap1\n      swap4\n      and\n      swap2\n      and\n      swap1\n      swap2\n      shl\n      or\n      swap3\n      add\n      swap4\n      add\n      jump(tag_206)\n    tag_175:\n      0x01\n      swap2\n      dup2\n      tag_210\n      0x06\n      swap4\n      mload\n      dup7\n      tag_20\n      jump\t// in\n    tag_210:\n      add\n      swap3\n      add\n      swap3\n      add\n      swap2\n      swap1\n      dup5\n      swap1\n      jump(tag_174)\n    tag_172:\n      dup1\n      swap2\n      swap3\n      pop\n      0x06\n      mul\n      swap1\n      0x06\n      dup3\n      div\n      sub\n      tag_198\n      jumpi\n      dup4\n      0x06\n      mul\n      0x06\n      dup2\n      div\n      dup6\n      sub\n      tag_198\n      jumpi\n      0x00\n      dup5\n      dup2\n      mstore\n      dup7\n      swap1\n      keccak256\n      dup7\n      swap4\n      swap3\n      dup2\n      add\n      swap2\n      add\n    tag_215:\n      dup2\n      dup2\n      lt\n      tag_216\n      jumpi\n      pop\n      jump(tag_173)\n    tag_216:\n      0x06\n      swap2\n      swap3\n      swap4\n      pop\n      0x00\n      dup2\n      sstore\n      0x00\n      0x01\n      dup3\n      add\n      sstore\n      0x00\n      0x02\n      dup3\n      add\n      sstore\n      0x00\n      0x04\n      dup3\n      add\n      tag_218\n      dup2\n      0x03\n      dup6\n      add\n      tag_11\n      jump\t// in\n    tag_218:\n      sstore\n      0x00\n      0x05\n      dup3\n      add\n      sstore\n      add\n      swap1\n      dup6\n      swap3\n      swap2\n      jump(tag_215)\n    tag_165:\n      mstore(0x00, shl(0xe0, 0x4e487b71))\n      mstore(0x04, 0x00)\n      revert(0x00, 0x24)\n    tag_150:\n      mload(0x40)\n      shl(0xe5, 0x461bcd)\n      dup2\n      mstore\n      0x20\n      0x04\n      dup3\n      add\n      mstore\n      0x14\n      0x24\n      dup3\n      add\n      mstore\n      shl(0x60, 0x496e76616c6964206275792d696e2072616e6765)\n      0x44\n      dup3\n      add\n      mstore\n      0x64\n      swap1\n      revert\n    tag_148:\n      mload(0x40)\n      shl(0xe5, 0x461bcd)\n      dup2\n      mstore\n      0x20\n      0x04\n      dup3\n      add\n      mstore\n      0x0e\n      0x24\n      dup3\n      add\n      mstore\n      shl(0x90, 0x496e76616c6964207374616b6573)\n      0x44\n      dup3\n      add\n      mstore\n      0x64\n      swap1\n      revert\n        /* \"contracts/poker.sol\":5538:5597  _minBuyIn > 0 && _smallBlind > 0 && _bigBlind > _smallBlind */\n    tag_146:\n        /* \"contracts/poker.sol\":5574:5597  _bigBlind > _smallBlind */\n      pop\n      dup4\n      dup2\n      gt\n        /* \"contracts/poker.sol\":5538:5597  _minBuyIn > 0 && _smallBlind > 0 && _bigBlind > _smallBlind */\n      jump(tag_147)\n        /* \"contracts/poker.sol\":5538:5570  _minBuyIn > 0 && _smallBlind > 0 */\n    tag_144:\n        /* \"contracts/poker.sol\":5555:5570  _smallBlind > 0 */\n      pop\n      dup4\n      iszero\n      iszero\n        /* \"contracts/poker.sol\":5538:5570  _minBuyIn > 0 && _smallBlind > 0 */\n      jump(tag_145)\n        /* \"contracts/poker.sol\":729:25810  contract TexasHoldem {... */\n    tag_142:\n      mload(0x40)\n      shl(0xe5, 0x461bcd)\n      dup2\n      mstore\n      0x20\n      0x04\n      dup3\n      add\n      mstore\n      0x16\n      0x24\n      dup3\n      add\n      mstore\n      shl(0x52, 0x13585e1a5b5d5b481d18589b195cc81c995858da1959)\n      0x44\n      dup3\n      add\n      mstore\n      0x64\n      swap1\n      revert\n    tag_74:\n      jumpi(tag_86, callvalue)\n      jumpi(tag_86, slt(add(not(0x03), calldatasize), 0x20))\n      calldataload(0x04)\n      sload(0x00)\n        /* \"contracts/poker.sol\":2230:2251  Table[] public tables */\n      dup2\n      lt\n      iszero\n      tag_86\n      jumpi\n      tag_225\n      swap1\n      tag_5\n      jump\t// in\n    tag_225:\n        /* \"contracts/poker.sol\":729:25810  contract TexasHoldem {... */\n      pop\n      dup1\n      sload\n        /* \"contracts/poker.sol\":2230:2251  Table[] public tables */\n      swap1\n        /* \"contracts/poker.sol\":729:25810  contract TexasHoldem {... */\n      0x01\n        /* \"contracts/poker.sol\":2230:2251  Table[] public tables */\n      dup2\n      add\n        /* \"contracts/poker.sol\":729:25810  contract TexasHoldem {... */\n      sload\n      0xff\n      and\n        /* \"contracts/poker.sol\":2230:2251  Table[] public tables */\n      swap1\n      0x02\n      dup2\n      add\n        /* \"contracts/poker.sol\":729:25810  contract TexasHoldem {... */\n      sload\n        /* \"contracts/poker.sol\":2230:2251  Table[] public tables */\n      0x03\n      dup3\n      add\n        /* \"contracts/poker.sol\":729:25810  contract TexasHoldem {... */\n      sload\n      0x04\n        /* \"contracts/poker.sol\":2230:2251  Table[] public tables */\n      dup4\n      add\n        /* \"contracts/poker.sol\":729:25810  contract TexasHoldem {... */\n      sload\n        /* \"contracts/poker.sol\":2230:2251  Table[] public tables */\n      0x05\n      dup5\n      add\n        /* \"contracts/poker.sol\":729:25810  contract TexasHoldem {... */\n      sload\n        /* \"contracts/poker.sol\":2230:2251  Table[] public tables */\n      0x06\n      dup6\n      add\n        /* \"contracts/poker.sol\":729:25810  contract TexasHoldem {... */\n      sload\n        /* \"contracts/poker.sol\":2230:2251  Table[] public tables */\n      swap1\n      0x0a\n      dup7\n      add\n        /* \"contracts/poker.sol\":729:25810  contract TexasHoldem {... */\n      sload\n      0xff\n      and\n        /* \"contracts/poker.sol\":2230:2251  Table[] public tables */\n      swap3\n      0x0c\n      dup8\n      add\n        /* \"contracts/poker.sol\":729:25810  contract TexasHoldem {... */\n      sload\n      0xff\n      and\n        /* \"contracts/poker.sol\":2230:2251  Table[] public tables */\n      swap5\n      0x0d\n      dup9\n      add\n        /* \"contracts/poker.sol\":729:25810  contract TexasHoldem {... */\n      sload\n        /* \"contracts/poker.sol\":2230:2251  Table[] public tables */\n      swap7\n      0x0e\n      dup10\n      add\n        /* \"contracts/poker.sol\":729:25810  contract TexasHoldem {... */\n      sload\n        /* \"contracts/poker.sol\":2230:2251  Table[] public tables */\n      swap9\n      0x10\n      add\n        /* \"contracts/poker.sol\":729:25810  contract TexasHoldem {... */\n      sload\n      swap10\n      mload(0x40)\n      swap12\n      dup13\n      mstore\n      0x20\n      dup13\n      add\n      tag_226\n      swap2\n      tag_2\n      jump\t// in\n    tag_226:\n      0x40\n      dup12\n      add\n      mstore\n      0x60\n      dup11\n      add\n      mstore\n      0x80\n      dup10\n      add\n      mstore\n      0xa0\n      dup9\n      add\n      mstore\n      0xff\n      dup2\n      and\n      0xc0\n      dup9\n      add\n      mstore\n      0x08\n      shr\n      0xff\n      and\n      0xe0\n      dup8\n      add\n      mstore\n      0x0100\n      dup7\n      add\n      mstore\n      0x0120\n      dup6\n      add\n      tag_227\n      swap2\n      tag_4\n      jump\t// in\n    tag_227:\n      0x0140\n      dup5\n      add\n      mstore\n      0x0160\n      dup4\n      add\n      mstore\n      0x0180\n      dup3\n      add\n      mstore\n      0x01a0\n      swap1\n      return\n    tag_72:\n      jumpi(tag_86, callvalue)\n      jumpi(tag_86, slt(add(not(0x03), calldatasize), 0x20))\n      calldataload(0x04)\n        /* \"contracts/poker.sol\":3310:3366  require(tableId < tables.length, \"Table does not exist\") */\n      tag_232\n        /* \"contracts/poker.sol\":729:25810  contract TexasHoldem {... */\n      sload(0x00)\n        /* \"contracts/poker.sol\":3318:3341  tableId < tables.length */\n      dup3\n      lt\n        /* \"contracts/poker.sol\":3310:3366  require(tableId < tables.length, \"Table does not exist\") */\n      tag_6\n      jump\t// in\n    tag_232:\n        /* \"contracts/poker.sol\":3411:3421  msg.sender */\n      caller\n        /* \"contracts/poker.sol\":729:25810  contract TexasHoldem {... */\n      0x00\n      mstore\n      mstore(0x20, 0x01)\n        /* \"contracts/poker.sol\":3376:3484  require(... */\n      tag_233\n        /* \"contracts/poker.sol\":729:25810  contract TexasHoldem {... */\n      dup2\n      sload(keccak256(0x00, 0x40))\n        /* \"contracts/poker.sol\":3397:3433  playerTableId[msg.sender] == tableId */\n      eq\n        /* \"contracts/poker.sol\":3376:3484  require(... */\n      tag_7\n      jump\t// in\n    tag_233:\n        /* \"contracts/poker.sol\":3572:3587  tables[tableId] */\n      tag_234\n      dup2\n      tag_5\n      jump\t// in\n    tag_234:\n        /* \"contracts/poker.sol\":3605:3617  table.status */\n      pop\n        /* \"contracts/poker.sol\":729:25810  contract TexasHoldem {... */\n      0xff\n      0x01\n        /* \"contracts/poker.sol\":3605:3617  table.status */\n      dup3\n      add\n        /* \"contracts/poker.sol\":729:25810  contract TexasHoldem {... */\n      sload\n      and\n      swap1\n      0x03\n      dup3\n      lt\n      iszero\n      tag_91\n      jumpi\n        /* \"contracts/poker.sol\":3597:3662  require(table.status == TableStatus.Active, \"Game is not active\") */\n      tag_237\n        /* \"contracts/poker.sol\":729:25810  contract TexasHoldem {... */\n      0x01\n        /* \"contracts/poker.sol\":3672:3843  require(... */\n      tag_238\n        /* \"contracts/poker.sol\":3605:3639  table.status == TableStatus.Active */\n      swap4\n      eq\n        /* \"contracts/poker.sol\":3597:3662  require(table.status == TableStatus.Active, \"Game is not active\") */\n      tag_24\n      jump\t// in\n    tag_237:\n        /* \"contracts/poker.sol\":3693:3706  table.players */\n      0x07\n      dup2\n      add\n        /* \"contracts/poker.sol\":729:25810  contract TexasHoldem {... */\n      swap1\n      0xff\n        /* \"contracts/poker.sol\":3716:3733  table.actionIndex */\n      0x06\n        /* \"contracts/poker.sol\":729:25810  contract TexasHoldem {... */\n      dup4\n      sload\n        /* \"contracts/poker.sol\":3716:3733  table.actionIndex */\n      swap3\n      add\n        /* \"contracts/poker.sol\":729:25810  contract TexasHoldem {... */\n      sload\n      0x08\n      shr\n      and\n        /* \"contracts/poker.sol\":3693:3733  table.players.length > table.actionIndex */\n      dup1\n      swap2\n      gt\n        /* \"contracts/poker.sol\":3693:3804  table.players.length > table.actionIndex &&... */\n      swap2\n      dup3\n      tag_239\n      jumpi\n        /* \"contracts/poker.sol\":3672:3843  require(... */\n      pop\n      pop\n      tag_25\n      jump\t// in\n    tag_238:\n        /* \"contracts/poker.sol\":9316:9331  tables[tableId] */\n      tag_241\n      dup2\n      tag_5\n      jump\t// in\n    tag_241:\n        /* \"contracts/poker.sol\":9379:9396  table.actionIndex */\n      pop\n        /* \"contracts/poker.sol\":9442:9458  table.currentBet */\n      0x0d\n        /* \"contracts/poker.sol\":9428:9438  player.bet */\n      0x02\n        /* \"contracts/poker.sol\":9365:9397  table.players[table.actionIndex] */\n      tag_242\n        /* \"contracts/poker.sol\":729:25810  contract TexasHoldem {... */\n      0xff\n        /* \"contracts/poker.sol\":3716:3733  table.actionIndex */\n      0x06\n        /* \"contracts/poker.sol\":9379:9396  table.actionIndex */\n      dup6\n      add\n        /* \"contracts/poker.sol\":729:25810  contract TexasHoldem {... */\n      sload\n      0x08\n      shr\n      and\n        /* \"contracts/poker.sol\":3693:3706  table.players */\n      0x07\n        /* \"contracts/poker.sol\":9365:9378  table.players */\n      dup6\n      add\n        /* \"contracts/poker.sol\":9365:9397  table.players[table.actionIndex] */\n      tag_8\n      jump\t// in\n    tag_242:\n        /* \"contracts/poker.sol\":9428:9438  player.bet */\n      pop\n      add\n        /* \"contracts/poker.sol\":729:25810  contract TexasHoldem {... */\n      sload\n        /* \"contracts/poker.sol\":9442:9458  table.currentBet */\n      swap2\n      add\n        /* \"contracts/poker.sol\":729:25810  contract TexasHoldem {... */\n      sload\n        /* \"contracts/poker.sol\":9428:9458  player.bet == table.currentBet */\n      sub\n        /* \"contracts/poker.sol\":729:25810  contract TexasHoldem {... */\n      tag_243\n      jumpi\n        /* \"contracts/poker.sol\":9602:9609  tableId */\n      tag_109\n        /* \"contracts/poker.sol\":729:25810  contract TexasHoldem {... */\n      swap1\n      mload(0x40)\n      0x40\n      dup2\n      mstore\n      0x05\n      0x40\n      dup3\n      add\n      mstore\n      shl(0xd8, 0x436865636b)\n      0x60\n      dup3\n      add\n      mstore\n      0x00\n      0x20\n      dup3\n      add\n      mstore\n        /* \"contracts/poker.sol\":3411:3421  msg.sender */\n      dup2\n      mload(0x00)\n      codecopy(0x00, data_5fbdae1c3a8152e8670d738bce7389093f96aaa8fb2ebef0879d89bfb2dfe752, 0x20)\n      mload(0x00)\n      swap1\n      0x00\n      mstore\n        /* \"contracts/poker.sol\":9532:9577  PlayerAction(tableId, msg.sender, \"Check\", 0) */\n      0x80\n        /* \"contracts/poker.sol\":3411:3421  msg.sender */\n      caller\n        /* \"contracts/poker.sol\":9532:9577  PlayerAction(tableId, msg.sender, \"Check\", 0) */\n      swap4\n      log3\n        /* \"contracts/poker.sol\":9602:9609  tableId */\n      tag_34\n      jump\t// in\n        /* \"contracts/poker.sol\":729:25810  contract TexasHoldem {... */\n    tag_243:\n      0x64\n      mload(0x40)\n      shl(0xe5, 0x461bcd)\n      dup2\n      mstore\n      0x20\n      0x04\n      dup3\n      add\n      mstore\n      0x20\n      0x24\n      dup3\n      add\n      mstore\n      0x43616e6e6f7420636865636b2c206d7573742063616c6c206f72207261697365\n      0x44\n      dup3\n      add\n      mstore\n      revert\n        /* \"contracts/poker.sol\":3693:3804  table.players.length > table.actionIndex &&... */\n    tag_239:\n        /* \"contracts/poker.sol\":3753:3785  table.players[table.actionIndex] */\n      tag_246\n      swap3\n      pop\n      tag_8\n      jump\t// in\n    tag_246:\n      pop\n        /* \"contracts/poker.sol\":729:25810  contract TexasHoldem {... */\n      sload\n      sub(shl(0xa0, 0x01), 0x01)\n      and\n        /* \"contracts/poker.sol\":3411:3421  msg.sender */\n      caller\n        /* \"contracts/poker.sol\":3753:3804  table.players[table.actionIndex].addr == msg.sender */\n      eq\n        /* \"contracts/poker.sol\":3693:3804  table.players.length > table.actionIndex &&... */\n      dup4\n      dup1\n      jump(tag_96)\n        /* \"contracts/poker.sol\":729:25810  contract TexasHoldem {... */\n    tag_70:\n      jumpi(tag_86, callvalue)\n      jumpi(tag_86, slt(add(not(0x03), calldatasize), 0x00))\n      0x20\n      mload(0x40)\n        /* \"contracts/poker.sol\":2335:2345  60 seconds */\n      0x3c\n        /* \"contracts/poker.sol\":729:25810  contract TexasHoldem {... */\n      dup2\n      mstore\n      return\n    tag_68:\n      jumpi(tag_86, callvalue)\n      tag_253\n      calldatasize\n      tag_1\n      jump\t// in\n    tag_253:\n      swap1\n        /* \"contracts/poker.sol\":3310:3366  require(tableId < tables.length, \"Table does not exist\") */\n      tag_254\n        /* \"contracts/poker.sol\":729:25810  contract TexasHoldem {... */\n      sload(0x00)\n        /* \"contracts/poker.sol\":3318:3341  tableId < tables.length */\n      dup3\n      lt\n        /* \"contracts/poker.sol\":3310:3366  require(tableId < tables.length, \"Table does not exist\") */\n      tag_6\n      jump\t// in\n    tag_254:\n        /* \"contracts/poker.sol\":3411:3421  msg.sender */\n      caller\n        /* \"contracts/poker.sol\":729:25810  contract TexasHoldem {... */\n      0x00\n      mstore\n        /* \"contracts/poker.sol\":3397:3410  playerTableId */\n      0x01\n        /* \"contracts/poker.sol\":729:25810  contract TexasHoldem {... */\n      0x20\n      mstore\n        /* \"contracts/poker.sol\":3376:3484  require(... */\n      tag_255\n        /* \"contracts/poker.sol\":729:25810  contract TexasHoldem {... */\n      dup2\n      sload(keccak256(0x00, 0x40))\n        /* \"contracts/poker.sol\":3397:3433  playerTableId[msg.sender] == tableId */\n      eq\n        /* \"contracts/poker.sol\":3376:3484  require(... */\n      tag_7\n      jump\t// in\n    tag_255:\n        /* \"contracts/poker.sol\":3572:3587  tables[tableId] */\n      tag_256\n      dup2\n      tag_5\n      jump\t// in\n    tag_256:\n        /* \"contracts/poker.sol\":3605:3617  table.status */\n      pop\n        /* \"contracts/poker.sol\":729:25810  contract TexasHoldem {... */\n      0xff\n        /* \"contracts/poker.sol\":3397:3410  playerTableId */\n      0x01\n        /* \"contracts/poker.sol\":3605:3617  table.status */\n      dup3\n      add\n        /* \"contracts/poker.sol\":729:25810  contract TexasHoldem {... */\n      sload\n      and\n      swap1\n      0x03\n      dup3\n      lt\n      iszero\n      tag_91\n      jumpi\n        /* \"contracts/poker.sol\":3597:3662  require(table.status == TableStatus.Active, \"Game is not active\") */\n      tag_123\n        /* \"contracts/poker.sol\":3397:3410  playerTableId */\n      0x01\n        /* \"contracts/poker.sol\":3672:3843  require(... */\n      tag_260\n        /* \"contracts/poker.sol\":3605:3639  table.status == TableStatus.Active */\n      swap4\n      eq\n        /* \"contracts/poker.sol\":3597:3662  require(table.status == TableStatus.Active, \"Game is not active\") */\n      tag_24\n      jump\t// in\n        /* \"contracts/poker.sol\":3672:3843  require(... */\n    tag_260:\n        /* \"contracts/poker.sol\":10350:10365  tables[tableId] */\n      tag_263\n      dup2\n      tag_5\n      jump\t// in\n    tag_263:\n        /* \"contracts/poker.sol\":10399:10412  table.players */\n      pop\n      swap1\n        /* \"contracts/poker.sol\":3693:3706  table.players */\n      0x07\n        /* \"contracts/poker.sol\":10399:10412  table.players */\n      dup3\n      add\n        /* \"contracts/poker.sol\":10413:10430  table.actionIndex */\n      swap3\n        /* \"contracts/poker.sol\":10399:10431  table.players[table.actionIndex] */\n      tag_264\n        /* \"contracts/poker.sol\":729:25810  contract TexasHoldem {... */\n      0xff\n        /* \"contracts/poker.sol\":3716:3733  table.actionIndex */\n      0x06\n        /* \"contracts/poker.sol\":10413:10430  table.actionIndex */\n      dup6\n      add\n        /* \"contracts/poker.sol\":729:25810  contract TexasHoldem {... */\n      sload\n      0x08\n      shr\n      and\n        /* \"contracts/poker.sol\":10399:10431  table.players[table.actionIndex] */\n      dup6\n      tag_8\n      jump\t// in\n    tag_264:\n        /* \"contracts/poker.sol\":10460:10476  table.currentBet */\n      pop\n      swap3\n      0x0d\n      dup2\n      add\n        /* \"contracts/poker.sol\":729:25810  contract TexasHoldem {... */\n      dup1\n      sload\n        /* \"contracts/poker.sol\":10479:10489  player.bet */\n      swap1\n      0x02\n      dup7\n      add\n        /* \"contracts/poker.sol\":729:25810  contract TexasHoldem {... */\n      swap1\n        /* \"contracts/poker.sol\":10515:10539  callAmount + raiseAmount */\n      tag_265\n        /* \"contracts/poker.sol\":729:25810  contract TexasHoldem {... */\n      dup6\n        /* \"contracts/poker.sol\":10460:10489  table.currentBet - player.bet */\n      tag_266\n        /* \"contracts/poker.sol\":729:25810  contract TexasHoldem {... */\n      dup5\n      sload\n        /* \"contracts/poker.sol\":10460:10489  table.currentBet - player.bet */\n      dup1\n      swap7\n      tag_9\n      jump\t// in\n    tag_266:\n        /* \"contracts/poker.sol\":10515:10539  callAmount + raiseAmount */\n      tag_10\n      jump\t// in\n    tag_265:\n        /* \"contracts/poker.sol\":10558:10570  player.chips */\n      swap4\n        /* \"contracts/poker.sol\":3397:3410  playerTableId */\n      0x01\n        /* \"contracts/poker.sol\":10558:10570  player.chips */\n      dup9\n      add\n        /* \"contracts/poker.sol\":729:25810  contract TexasHoldem {... */\n      swap5\n      dup6\n      sload\n        /* \"contracts/poker.sol\":10558:10582  player.chips >= totalBet */\n      swap2\n      dup2\n      dup4\n      lt\n        /* \"contracts/poker.sol\":729:25810  contract TexasHoldem {... */\n      tag_267\n      jumpi\n        /* \"contracts/poker.sol\":10647:10661  table.minRaise */\n      0x0e\n      add\n        /* \"contracts/poker.sol\":729:25810  contract TexasHoldem {... */\n      swap5\n      dup6\n      sload\n        /* \"contracts/poker.sol\":10632:10661  raiseAmount >= table.minRaise */\n      dup9\n      lt\n        /* \"contracts/poker.sol\":729:25810  contract TexasHoldem {... */\n      tag_269\n      jumpi\n        /* \"contracts/poker.sol\":10699:10723  player.chips -= totalBet */\n      dup8\n      swap7\n      tag_271\n      dup4\n        /* \"contracts/poker.sol\":10733:10755  player.bet += totalBet */\n      tag_272\n        /* \"contracts/poker.sol\":10699:10723  player.chips -= totalBet */\n      swap6\n      tag_9\n      jump\t// in\n    tag_271:\n        /* \"contracts/poker.sol\":729:25810  contract TexasHoldem {... */\n      swap1\n      sstore\n        /* \"contracts/poker.sol\":10733:10755  player.bet += totalBet */\n      tag_10\n      jump\t// in\n    tag_272:\n        /* \"contracts/poker.sol\":729:25810  contract TexasHoldem {... */\n      dup1\n      swap3\n      sstore\n      sstore\n      sstore\n      mload(0x40)\n      swap1\n      0x40\n      dup3\n      mstore\n      0x05\n      0x40\n      dup4\n      add\n      mstore\n      shl(0xd8, 0x5261697365)\n      0x60\n      dup4\n      add\n      mstore\n      0x20\n      dup3\n      add\n      mstore\n        /* \"contracts/poker.sol\":3411:3421  msg.sender */\n      dup2\n      mload(0x00)\n      codecopy(0x00, data_5fbdae1c3a8152e8670d738bce7389093f96aaa8fb2ebef0879d89bfb2dfe752, 0x20)\n      mload(0x00)\n      swap1\n      0x00\n      mstore\n        /* \"contracts/poker.sol\":10849:10904  PlayerAction(tableId, msg.sender, \"Raise\", raiseAmount) */\n      0x80\n        /* \"contracts/poker.sol\":3411:3421  msg.sender */\n      caller\n        /* \"contracts/poker.sol\":10849:10904  PlayerAction(tableId, msg.sender, \"Raise\", raiseAmount) */\n      swap4\n      log3\n        /* \"contracts/poker.sol\":729:25810  contract TexasHoldem {... */\n      0x00\n        /* \"contracts/poker.sol\":10958:10961  i++ */\n    tag_273:\n        /* \"contracts/poker.sol\":729:25810  contract TexasHoldem {... */\n      dup4\n      sload\n        /* \"contracts/poker.sol\":10932:10956  i < table.players.length */\n      dup2\n      lt\n      iszero\n      tag_103\n      jumpi\n        /* \"contracts/poker.sol\":10981:10997  table.players[i] */\n      dup1\n        /* \"contracts/poker.sol\":729:25810  contract TexasHoldem {... */\n      0xff\n      0x04\n        /* \"contracts/poker.sol\":10981:10997  table.players[i] */\n      tag_276\n        /* \"contracts/poker.sol\":3397:3410  playerTableId */\n      0x01\n        /* \"contracts/poker.sol\":10981:10997  table.players[i] */\n      swap5\n      dup9\n      tag_8\n      jump\t// in\n    tag_276:\n        /* \"contracts/poker.sol\":10981:11004  table.players[i].inHand */\n      pop\n      add\n        /* \"contracts/poker.sol\":729:25810  contract TexasHoldem {... */\n      sload\n      and\n        /* \"contracts/poker.sol\":10977:11072  if (table.players[i].inHand) {... */\n      tag_277\n      jumpi\n        /* \"contracts/poker.sol\":10958:10961  i++ */\n    tag_278:\n        /* \"contracts/poker.sol\":729:25810  contract TexasHoldem {... */\n      add\n        /* \"contracts/poker.sol\":10920:10930  uint i = 0 */\n      jump(tag_273)\n        /* \"contracts/poker.sol\":10977:11072  if (table.players[i].inHand) {... */\n    tag_277:\n        /* \"contracts/poker.sol\":729:25810  contract TexasHoldem {... */\n      0x04\n        /* \"contracts/poker.sol\":11024:11040  table.players[i] */\n      tag_279\n      dup3\n      dup8\n      tag_8\n      jump\t// in\n    tag_279:\n      pop\n        /* \"contracts/poker.sol\":11024:11049  table.players[i].hasActed */\n      add\n        /* \"contracts/poker.sol\":729:25810  contract TexasHoldem {... */\n      dup1\n      sload\n      not(0xff00)\n      and\n      swap1\n      sstore\n        /* \"contracts/poker.sol\":10977:11072  if (table.players[i].inHand) {... */\n      jump(tag_278)\n        /* \"contracts/poker.sol\":729:25810  contract TexasHoldem {... */\n    tag_269:\n      mload(0x40)\n      shl(0xe5, 0x461bcd)\n      dup2\n      mstore\n      0x20\n      0x04\n      dup3\n      add\n      mstore\n      0x16\n      0x24\n      dup3\n      add\n      mstore\n      shl(0x52, 0x14985a5cd948185b5bdd5b9d081d1bdbc81cdb585b1b)\n      0x44\n      dup3\n      add\n      mstore\n      0x64\n      swap1\n      revert\n    tag_267:\n      mload(0x40)\n      shl(0xe5, 0x461bcd)\n      dup2\n      mstore\n      0x20\n      0x04\n      dup3\n      add\n      mstore\n      0x1b\n      0x24\n      dup3\n      add\n      mstore\n      0x496e73756666696369656e7420636869707320746f2072616973650000000000\n      0x44\n      dup3\n      add\n      mstore\n      0x64\n      swap1\n      revert\n    tag_66:\n      jumpi(tag_86, callvalue)\n      jumpi(tag_86, slt(add(not(0x03), calldatasize), 0x00))\n      0x20\n      mload(0x40)\n        /* \"contracts/poker.sol\":2386:2387  9 */\n      0x09\n        /* \"contracts/poker.sol\":729:25810  contract TexasHoldem {... */\n      dup2\n      mstore\n      return\n    tag_64:\n      jumpi(tag_86, callvalue)\n      jumpi(tag_86, slt(add(not(0x03), calldatasize), 0x00))\n      0x20\n      mload(0x40)\n        /* \"contracts/poker.sol\":2291:2293  10 */\n      0x0a\n        /* \"contracts/poker.sol\":729:25810  contract TexasHoldem {... */\n      dup2\n      mstore\n      return\n    tag_62:\n      jumpi(tag_86, callvalue)\n      jumpi(tag_86, slt(add(not(0x03), calldatasize), 0x20))\n      calldataload(0x04)\n        /* \"contracts/poker.sol\":3310:3366  require(tableId < tables.length, \"Table does not exist\") */\n      tag_294\n        /* \"contracts/poker.sol\":729:25810  contract TexasHoldem {... */\n      sload(0x00)\n        /* \"contracts/poker.sol\":3318:3341  tableId < tables.length */\n      dup3\n      lt\n        /* \"contracts/poker.sol\":3310:3366  require(tableId < tables.length, \"Table does not exist\") */\n      tag_6\n      jump\t// in\n    tag_294:\n        /* \"contracts/poker.sol\":3411:3421  msg.sender */\n      caller\n        /* \"contracts/poker.sol\":729:25810  contract TexasHoldem {... */\n      0x00\n      mstore\n      mstore(0x20, 0x01)\n        /* \"contracts/poker.sol\":3376:3484  require(... */\n      tag_295\n        /* \"contracts/poker.sol\":729:25810  contract TexasHoldem {... */\n      dup2\n      sload(keccak256(0x00, 0x40))\n        /* \"contracts/poker.sol\":3397:3433  playerTableId[msg.sender] == tableId */\n      eq\n        /* \"contracts/poker.sol\":3376:3484  require(... */\n      tag_7\n      jump\t// in\n    tag_295:\n        /* \"contracts/poker.sol\":3572:3587  tables[tableId] */\n      tag_296\n      dup2\n      tag_5\n      jump\t// in\n    tag_296:\n        /* \"contracts/poker.sol\":3605:3617  table.status */\n      pop\n        /* \"contracts/poker.sol\":729:25810  contract TexasHoldem {... */\n      0xff\n      0x01\n        /* \"contracts/poker.sol\":3605:3617  table.status */\n      dup3\n      add\n        /* \"contracts/poker.sol\":729:25810  contract TexasHoldem {... */\n      sload\n      and\n      swap1\n      0x03\n      dup3\n      lt\n      iszero\n      tag_91\n      jumpi\n        /* \"contracts/poker.sol\":3597:3662  require(table.status == TableStatus.Active, \"Game is not active\") */\n      tag_237\n        /* \"contracts/poker.sol\":729:25810  contract TexasHoldem {... */\n      0x01\n        /* \"contracts/poker.sol\":3672:3843  require(... */\n      tag_300\n        /* \"contracts/poker.sol\":3605:3639  table.status == TableStatus.Active */\n      swap4\n      eq\n        /* \"contracts/poker.sol\":3597:3662  require(table.status == TableStatus.Active, \"Game is not active\") */\n      tag_24\n      jump\t// in\n        /* \"contracts/poker.sol\":3672:3843  require(... */\n    tag_300:\n        /* \"contracts/poker.sol\":9747:9762  tables[tableId] */\n      tag_303\n      dup2\n      tag_5\n      jump\t// in\n    tag_303:\n        /* \"contracts/poker.sol\":9810:9827  table.actionIndex */\n      pop\n      swap1\n        /* \"contracts/poker.sol\":9856:9872  table.currentBet */\n      0x0d\n        /* \"contracts/poker.sol\":9796:9828  table.players[table.actionIndex] */\n      tag_304\n        /* \"contracts/poker.sol\":729:25810  contract TexasHoldem {... */\n      0xff\n        /* \"contracts/poker.sol\":3716:3733  table.actionIndex */\n      0x06\n        /* \"contracts/poker.sol\":9810:9827  table.actionIndex */\n      dup6\n      add\n        /* \"contracts/poker.sol\":729:25810  contract TexasHoldem {... */\n      sload\n      0x08\n      shr\n      and\n        /* \"contracts/poker.sol\":3693:3706  table.players */\n      0x07\n        /* \"contracts/poker.sol\":9796:9809  table.players */\n      dup6\n      add\n        /* \"contracts/poker.sol\":9796:9828  table.players[table.actionIndex] */\n      tag_8\n      jump\t// in\n    tag_304:\n        /* \"contracts/poker.sol\":9856:9872  table.currentBet */\n      pop\n      swap3\n      add\n        /* \"contracts/poker.sol\":729:25810  contract TexasHoldem {... */\n      sload\n        /* \"contracts/poker.sol\":9875:9885  player.bet */\n      swap2\n      0x02\n      dup2\n      add\n        /* \"contracts/poker.sol\":9856:9885  table.currentBet - player.bet */\n      tag_305\n        /* \"contracts/poker.sol\":729:25810  contract TexasHoldem {... */\n      dup2\n      sload\n        /* \"contracts/poker.sol\":9856:9885  table.currentBet - player.bet */\n      dup1\n      swap6\n      tag_9\n      jump\t// in\n    tag_305:\n        /* \"contracts/poker.sol\":9903:9917  callAmount > 0 */\n      swap2\n      dup3\n      iszero\n        /* \"contracts/poker.sol\":729:25810  contract TexasHoldem {... */\n      tag_306\n      jumpi\n      0x01\n        /* \"contracts/poker.sol\":9955:9967  player.chips */\n      add\n        /* \"contracts/poker.sol\":729:25810  contract TexasHoldem {... */\n      dup1\n      sload\n        /* \"contracts/poker.sol\":9955:9981  player.chips >= callAmount */\n      dup4\n      dup2\n      lt\n        /* \"contracts/poker.sol\":729:25810  contract TexasHoldem {... */\n      tag_308\n      jumpi\n        /* \"contracts/poker.sol\":10178:10185  tableId */\n      tag_109\n        /* \"contracts/poker.sol\":10023:10049  player.chips -= callAmount */\n      swap6\n        /* \"contracts/poker.sol\":10059:10083  player.bet += callAmount */\n      tag_311\n        /* \"contracts/poker.sol\":10023:10049  player.chips -= callAmount */\n      swap3\n      tag_271\n      dup7\n      dup1\n      swap5\n      tag_9\n      jump\t// in\n        /* \"contracts/poker.sol\":10059:10083  player.bet += callAmount */\n    tag_311:\n        /* \"contracts/poker.sol\":729:25810  contract TexasHoldem {... */\n      swap1\n      sstore\n      mload(0x40)\n      swap1\n      0x40\n      dup3\n      mstore\n      0x04\n      0x40\n      dup4\n      add\n      mstore\n      shl(0xe2, 0x10d85b1b)\n      0x60\n      dup4\n      add\n      mstore\n      0x20\n      dup3\n      add\n      mstore\n        /* \"contracts/poker.sol\":3411:3421  msg.sender */\n      dup2\n      mload(0x00)\n      codecopy(0x00, data_5fbdae1c3a8152e8670d738bce7389093f96aaa8fb2ebef0879d89bfb2dfe752, 0x20)\n      mload(0x00)\n      swap1\n      0x00\n      mstore\n        /* \"contracts/poker.sol\":10099:10152  PlayerAction(tableId, msg.sender, \"Call\", callAmount) */\n      0x80\n        /* \"contracts/poker.sol\":3411:3421  msg.sender */\n      caller\n        /* \"contracts/poker.sol\":10099:10152  PlayerAction(tableId, msg.sender, \"Call\", callAmount) */\n      swap4\n      log3\n        /* \"contracts/poker.sol\":10178:10185  tableId */\n      tag_34\n      jump\t// in\n        /* \"contracts/poker.sol\":729:25810  contract TexasHoldem {... */\n    tag_308:\n      mload(0x40)\n      shl(0xe5, 0x461bcd)\n      dup2\n      mstore\n      0x20\n      0x04\n      dup3\n      add\n      mstore\n      0x1a\n      0x24\n      dup3\n      add\n      mstore\n      0x496e73756666696369656e7420636869707320746f2063616c6c000000000000\n      0x44\n      dup3\n      add\n      mstore\n      0x64\n      swap1\n      revert\n    tag_306:\n      mload(0x40)\n      shl(0xe5, 0x461bcd)\n      dup2\n      mstore\n      0x20\n      0x04\n      dup3\n      add\n      mstore\n      0x0f\n      0x24\n      dup3\n      add\n      mstore\n      shl(0x8a, 0x139bdd1a1a5b99c81d1bc818d85b1b)\n      0x44\n      dup3\n      add\n      mstore\n      0x64\n      swap1\n      revert\n    tag_60:\n      jumpi(tag_86, callvalue)\n      jumpi(tag_86, slt(add(not(0x03), calldatasize), 0x20))\n      calldataload(0x04)\n      mload(0x40)\n      tag_318\n      dup2\n      tag_17\n      jump\t// in\n    tag_318:\n      0x00\n      dup2\n      mstore\n      0x00\n      0x20\n      dup3\n      add\n      mstore\n      0x00\n      0x40\n      dup3\n      add\n      mstore\n      0x00\n      0x60\n      dup3\n      add\n      mstore\n      0x00\n      0x80\n      dup3\n      add\n      mstore\n      0x00\n      0xa0\n      dup3\n      add\n      mstore\n      0x00\n      0xc0\n      dup3\n      add\n      mstore\n      0x00\n      0xe0\n      dup3\n      add\n      mstore\n      0x60\n      0x0100\n      dup3\n      add\n      mstore\n        /* \"contracts/poker.sol\":4254:4269  tables[tableId] */\n      tag_319\n        /* \"contracts/poker.sol\":729:25810  contract TexasHoldem {... */\n      0x0680\n      swap3\n      mload(0x40)\n      tag_320\n      dup6\n      dup3\n      tag_18\n      jump\t// in\n    tag_320:\n      dup5\n      calldatasize\n      dup3\n      calldatacopy\n      0x0120\n      dup5\n      add\n      mstore\n      0x00\n      0x0140\n      dup5\n      add\n      mstore\n      0x00\n      0x0200\n      0xa0\n      swap5\n      mload(0x40)\n      tag_321\n      dup8\n      dup3\n      tag_18\n      jump\t// in\n    tag_321:\n      dup7\n      calldatasize\n      dup3\n      calldatacopy\n      0x0160\n      dup3\n      add\n      mstore\n      dup3\n      0x0180\n      dup3\n      add\n      mstore\n      dup3\n      0x01a0\n      dup3\n      add\n      mstore\n      dup3\n      0x01c0\n      dup3\n      add\n      mstore\n      0x60\n      0x01e0\n      dup3\n      add\n      mstore\n      add\n      mstore\n        /* \"contracts/poker.sol\":4181:4237  require(tableId < tables.length, \"Table does not exist\") */\n      tag_322\n        /* \"contracts/poker.sol\":729:25810  contract TexasHoldem {... */\n      sload(0x00)\n        /* \"contracts/poker.sol\":4189:4212  tableId < tables.length */\n      dup3\n      lt\n        /* \"contracts/poker.sol\":4181:4237  require(tableId < tables.length, \"Table does not exist\") */\n      tag_6\n      jump\t// in\n    tag_322:\n        /* \"contracts/poker.sol\":4254:4269  tables[tableId] */\n      tag_5\n      jump\t// in\n    tag_319:\n        /* \"contracts/poker.sol\":729:25810  contract TexasHoldem {... */\n      pop\n      mload(0x40)\n      swap3\n      tag_323\n      dup5\n      tag_17\n      jump\t// in\n    tag_323:\n      dup2\n      sload\n      dup5\n      mstore\n      0xff\n      0x01\n      dup4\n      add\n      sload\n      and\n      0x03\n      dup2\n      lt\n      iszero\n      tag_91\n      jumpi\n      0x20\n      dup6\n      add\n      mstore\n      0x02\n      dup3\n      add\n      sload\n      0x40\n      dup6\n      add\n      mstore\n      0x03\n      dup3\n      add\n      sload\n      0x60\n      dup6\n      add\n      mstore\n      0x04\n      dup3\n      add\n      sload\n      0x80\n      dup6\n      add\n      mstore\n      0x05\n      dup3\n      add\n      sload\n      dup4\n      dup6\n      add\n      mstore\n      0xff\n      0x06\n      dup4\n      add\n      sload\n      dup2\n      dup2\n      and\n      0xc0\n      dup8\n      add\n      mstore\n      0x08\n      shr\n      and\n      0xe0\n      dup6\n      add\n      mstore\n      0x07\n      dup3\n      add\n      dup1\n      sload\n      tag_326\n      dup2\n      tag_21\n      jump\t// in\n    tag_326:\n      swap2\n      tag_327\n      mload(0x40)\n      swap4\n      dup5\n      tag_18\n      jump\t// in\n    tag_327:\n      dup2\n      dup4\n      mstore\n      0x20\n      dup4\n      add\n      swap1\n      0x00\n      mstore\n      keccak256(0x00, 0x20)\n      0x00\n      swap2\n    tag_328:\n      dup4\n      dup4\n      lt\n      tag_329\n      jumpi\n      pop\n      pop\n      pop\n      pop\n      0x0100\n      dup6\n      add\n      mstore\n      mload(0x40)\n      swap1\n      dup2\n      0x08\n      dup5\n      add\n      0x00\n    tag_331:\n      0x34\n      0x1f\n      dup3\n      add\n      lt\n      tag_332\n      jumpi\n      pop\n      swap1\n      0x0260\n      0xff\n      tag_334\n      swap5\n      swap4\n      sload\n      dup2\n      dup2\n      and\n      dup5\n      mstore\n      dup2\n      dup2\n      0x08\n      shr\n      and\n      0x20\n      dup6\n      add\n      mstore\n      dup2\n      dup2\n      0x10\n      shr\n      and\n      0x40\n      dup6\n      add\n      mstore\n      dup2\n      dup2\n      0x18\n      shr\n      and\n      0x60\n      dup6\n      add\n      mstore\n      dup2\n      dup2\n      0x20\n      shr\n      and\n      0x80\n      dup6\n      add\n      mstore\n      dup2\n      dup2\n      0x28\n      shr\n      and\n      dup10\n      dup6\n      add\n      mstore\n      dup2\n      dup2\n      0x30\n      shr\n      and\n      0xc0\n      dup6\n      add\n      mstore\n      dup2\n      dup2\n      0x38\n      shr\n      and\n      0xe0\n      dup6\n      add\n      mstore\n      dup2\n      dup2\n      0x40\n      shr\n      and\n      0x0100\n      dup6\n      add\n      mstore\n      dup2\n      dup2\n      0x48\n      shr\n      and\n      0x0120\n      dup6\n      add\n      mstore\n      dup2\n      dup2\n      0x50\n      shr\n      and\n      0x0140\n      dup6\n      add\n      mstore\n      dup2\n      dup2\n      0x58\n      shr\n      and\n      0x0160\n      dup6\n      add\n      mstore\n      dup2\n      dup2\n      0x60\n      shr\n      and\n      0x0180\n      dup6\n      add\n      mstore\n      dup2\n      dup2\n      0x68\n      shr\n      and\n      0x01a0\n      dup6\n      add\n      mstore\n      dup2\n      dup2\n      0x70\n      shr\n      and\n      0x01c0\n      dup6\n      add\n      mstore\n      dup2\n      dup2\n      0x78\n      shr\n      and\n      0x01e0\n      dup6\n      add\n      mstore\n      dup2\n      dup2\n      0x80\n      shr\n      and\n      0x0200\n      dup6\n      add\n      mstore\n      dup2\n      dup2\n      0x88\n      shr\n      and\n      0x0220\n      dup6\n      add\n      mstore\n      dup2\n      dup2\n      0x90\n      shr\n      and\n      0x0240\n      dup6\n      add\n      mstore\n      0x98\n      shr\n      and\n      swap2\n      add\n      mstore\n      dup3\n      tag_18\n      jump\t// in\n    tag_334:\n      0x0120\n      dup5\n      add\n      mstore\n      0xff\n      0x0a\n      dup3\n      add\n      sload\n      and\n      0x0140\n      dup5\n      add\n      mstore\n      mload(0x40)\n      tag_335\n      dup2\n      0x0b\n      dup5\n      add\n      0xff\n      0x80\n      swap2\n      sload\n      dup2\n      dup2\n      and\n      dup5\n      mstore\n      dup2\n      dup2\n      0x08\n      shr\n      and\n      0x20\n      dup6\n      add\n      mstore\n      dup2\n      dup2\n      0x10\n      shr\n      and\n      0x40\n      dup6\n      add\n      mstore\n      dup2\n      dup2\n      0x18\n      shr\n      and\n      0x60\n      dup6\n      add\n      mstore\n      0x20\n      shr\n      and\n      swap2\n      add\n      mstore\n      jump\n    tag_335:\n      tag_336\n      dup4\n      dup3\n      tag_18\n      jump\t// in\n    tag_336:\n      0x0160\n      dup5\n      add\n      mstore\n      0xff\n      0x0c\n      dup3\n      add\n      sload\n      and\n      0x06\n      dup2\n      lt\n      iszero\n      tag_91\n      jumpi\n      0x0180\n      dup5\n      add\n      mstore\n      0x0d\n      dup2\n      add\n      sload\n      0x01a0\n      dup5\n      add\n      mstore\n      0x0e\n      dup2\n      add\n      sload\n      0x01c0\n      dup5\n      add\n      mstore\n      0x0f\n      dup2\n      add\n      sload\n      tag_339\n      dup2\n      tag_21\n      jump\t// in\n    tag_339:\n      swap1\n      tag_340\n      mload(0x40)\n      swap3\n      dup4\n      tag_18\n      jump\t// in\n    tag_340:\n      dup1\n      dup3\n      mstore\n      0x20\n      dup3\n      add\n      0x0f\n      dup5\n      add\n      0x00\n      mstore\n      keccak256(0x00, 0x20)\n      0x00\n      swap2\n    tag_341:\n      dup4\n      dup4\n      lt\n      tag_342\n      jumpi\n      dup8\n      dup8\n      0x10\n      dup9\n      dup9\n      0x01e0\n      dup6\n      add\n      mstore\n      add\n      sload\n      0x0200\n      dup4\n      add\n      mstore\n      mload(0x40)\n      swap1\n      0x20\n      dup3\n      mstore\n      dup3\n      mload\n      0x20\n      dup4\n      add\n      mstore\n      tag_344\n      0x20\n      dup5\n      add\n      mload\n      0x40\n      dup5\n      add\n      swap1\n      tag_2\n      jump\t// in\n    tag_344:\n      0x40\n      dup4\n      add\n      mload\n      0x60\n      dup4\n      add\n      mstore\n      0x60\n      dup4\n      add\n      mload\n      0x80\n      dup4\n      add\n      mstore\n      0x80\n      dup4\n      add\n      mload\n      dup2\n      dup4\n      add\n      mstore\n      dup3\n      add\n      mload\n      0xc0\n      dup3\n      add\n      mstore\n      0xff\n      0xc0\n      dup4\n      add\n      mload\n      and\n      0xe0\n      dup3\n      add\n      mstore\n      0xff\n      0xe0\n      dup4\n      add\n      mload\n      and\n      0x0100\n      dup3\n      add\n      mstore\n      0x0100\n      dup3\n      add\n      mload\n      swap2\n      0x0900\n      0x0120\n      dup4\n      add\n      mstore\n      dup3\n      mload\n      dup1\n      0x0920\n      dup5\n      add\n      mstore\n      0x20\n      0x0940\n      dup5\n      add\n      swap5\n      add\n      swap1\n      0x00\n    tag_345:\n      dup2\n      dup2\n      lt\n      tag_346\n      jumpi\n      pop\n      pop\n      pop\n      0x0120\n      dup2\n      add\n      mload\n      0x00\n      0x0140\n      dup5\n      add\n    tag_348:\n      0x34\n      dup3\n      lt\n      tag_349\n      jumpi\n      pop\n      pop\n      pop\n      0x0140\n      dup2\n      add\n      mload\n      0xff\n      and\n      0x07c0\n      dup4\n      add\n      mstore\n      0x0160\n      dup2\n      add\n      mload\n      0x00\n      0x07e0\n      dup5\n      add\n    tag_351:\n      0x05\n      dup3\n      lt\n      tag_352\n      jumpi\n      pop\n      pop\n      pop\n      tag_354\n      0x0180\n      dup3\n      add\n      mload\n      0x0880\n      dup5\n      add\n      swap1\n      tag_4\n      jump\t// in\n    tag_354:\n      0x01a0\n      dup2\n      add\n      mload\n      0x08a0\n      dup4\n      add\n      mstore\n      0x01c0\n      dup2\n      add\n      mload\n      0x08c0\n      dup4\n      add\n      mstore\n      0x01e0\n      dup2\n      add\n      mload\n      swap1\n      not(0x1f)\n      dup4\n      dup6\n      sub\n      add\n      0x08e0\n      dup5\n      add\n      mstore\n      dup2\n      mload\n      dup1\n      dup6\n      mstore\n      0x20\n      dup6\n      add\n      swap1\n      0x20\n      dup1\n      dup3\n      0x05\n      shl\n      dup9\n      add\n      add\n      swap5\n      add\n      swap2\n      0x00\n      swap1\n    tag_355:\n      dup3\n      dup3\n      lt\n      tag_356\n      jumpi\n      0x0200\n      dup6\n      add\n      mload\n      0x0900\n      dup9\n      add\n      mstore\n      dup7\n      dup7\n      sub\n      dup8\n      return\n    tag_356:\n      swap1\n      swap2\n      swap3\n      swap5\n      not(0x1f)\n      dup9\n      dup3\n      sub\n      add\n      dup3\n      mstore\n      dup6\n      mload\n      0x20\n      0x60\n      dup2\n      0x40\n      dup6\n      add\n      swap4\n      dup1\n      mload\n      dup7\n      mstore\n      add\n      mload\n      swap4\n      0x40\n      dup4\n      dup3\n      add\n      mstore\n      dup5\n      mload\n      dup1\n      swap5\n      mstore\n      add\n      swap3\n      add\n      swap1\n      0x00\n      swap1\n    tag_358:\n      dup1\n      dup3\n      lt\n      tag_359\n      jumpi\n      pop\n      pop\n      pop\n      0x20\n      dup1\n      0x01\n      swap3\n      swap8\n      add\n      swap3\n      add\n      swap3\n      add\n      swap1\n      swap3\n      swap2\n      jump(tag_355)\n    tag_359:\n      dup3\n      mload\n      sub(shl(0xa0, 0x01), 0x01)\n      and\n      dup5\n      mstore\n      0x20\n      swap4\n      dup5\n      add\n      swap4\n      swap1\n      swap3\n      add\n      swap2\n      0x01\n      swap1\n      swap2\n      add\n      swap1\n      jump(tag_358)\n    tag_352:\n      0x20\n      dup1\n      0x01\n      swap3\n      0xff\n      dup7\n      mload\n      and\n      dup2\n      mstore\n      add\n      swap4\n      add\n      swap2\n      add\n      swap1\n      swap2\n      jump(tag_351)\n    tag_349:\n      0x20\n      dup1\n      0x01\n      swap3\n      0xff\n      dup7\n      mload\n      and\n      dup2\n      mstore\n      add\n      swap4\n      add\n      swap2\n      add\n      swap1\n      swap2\n      jump(tag_348)\n    tag_346:\n      swap1\n      swap2\n      swap5\n      0x20\n      0x0100\n      dup3\n      tag_361\n      0x01\n      swap5\n      dup11\n      mload\n      tag_3\n      jump\t// in\n    tag_361:\n      add\n      swap7\n      add\n      swap3\n      swap2\n      add\n      jump(tag_345)\n    tag_342:\n      mload(0x40)\n      tag_362\n      dup2\n      tag_15\n      jump\t// in\n    tag_362:\n      dup3\n      sload\n      dup2\n      mstore\n      0x01\n      dup4\n      add\n      mload(0x40)\n      swap1\n      dup2\n      0x20\n      dup3\n      sload\n      swap2\n      dup3\n      dup2\n      mstore\n      add\n      swap2\n      0x00\n      mstore\n      keccak256(0x00, 0x20)\n      swap1\n      0x00\n      swap1\n    tag_363:\n      dup1\n      dup3\n      lt\n      tag_364\n      jumpi\n      pop\n      pop\n      pop\n      swap3\n      0x02\n      swap3\n      dup3\n      tag_366\n      0x20\n      swap5\n      0x01\n      swap8\n      sub\n      dup3\n      tag_18\n      jump\t// in\n    tag_366:\n      dup4\n      dup3\n      add\n      mstore\n      dup2\n      mstore\n      add\n      swap3\n      add\n      swap3\n      add\n      swap2\n      swap1\n      jump(tag_341)\n    tag_364:\n      dup3\n      sload\n      sub(shl(0xa0, 0x01), 0x01)\n      and\n      dup5\n      mstore\n      0x20\n      swap1\n      swap4\n      add\n      swap3\n      0x01\n      swap3\n      dup4\n      add\n      swap3\n      swap1\n      swap2\n      add\n      swap1\n      jump(tag_363)\n    tag_332:\n      swap1\n      swap2\n      0x01\n      0x0400\n      0x20\n      swap3\n      dup6\n      sload\n      0xff\n      dup2\n      and\n      dup3\n      mstore\n      0xff\n      dup2\n      0x08\n      shr\n      and\n      dup6\n      dup4\n      add\n      mstore\n      0xff\n      dup2\n      0x10\n      shr\n      and\n      0x40\n      dup4\n      add\n      mstore\n      0xff\n      dup2\n      0x18\n      shr\n      and\n      0x60\n      dup4\n      add\n      mstore\n      0xff\n      dup2\n      dup7\n      shr\n      and\n      0x80\n      dup4\n      add\n      mstore\n      0xff\n      dup2\n      0x28\n      shr\n      and\n      dup12\n      dup4\n      add\n      mstore\n      0xff\n      dup2\n      0x30\n      shr\n      and\n      0xc0\n      dup4\n      add\n      mstore\n      0xff\n      dup2\n      0x38\n      shr\n      and\n      0xe0\n      dup4\n      add\n      mstore\n      0xff\n      dup2\n      0x40\n      shr\n      and\n      0x0100\n      dup4\n      add\n      mstore\n      0xff\n      dup2\n      0x48\n      shr\n      and\n      0x0120\n      dup4\n      add\n      mstore\n      0xff\n      dup2\n      0x50\n      shr\n      and\n      0x0140\n      dup4\n      add\n      mstore\n      0xff\n      dup2\n      0x58\n      shr\n      and\n      0x0160\n      dup4\n      add\n      mstore\n      0xff\n      dup2\n      0x60\n      shr\n      and\n      0x0180\n      dup4\n      add\n      mstore\n      0xff\n      dup2\n      0x68\n      shr\n      and\n      0x01a0\n      dup4\n      add\n      mstore\n      0xff\n      dup2\n      0x70\n      shr\n      and\n      0x01c0\n      dup4\n      add\n      mstore\n      0xff\n      dup2\n      0x78\n      shr\n      and\n      0x01e0\n      dup4\n      add\n      mstore\n      0xff\n      dup2\n      0x80\n      shr\n      and\n      0x0200\n      dup4\n      add\n      mstore\n      0xff\n      dup2\n      0x88\n      shr\n      and\n      0x0220\n      dup4\n      add\n      mstore\n      0xff\n      dup2\n      0x90\n      shr\n      and\n      0x0240\n      dup4\n      add\n      mstore\n      0xff\n      dup2\n      0x98\n      shr\n      and\n      0x0260\n      dup4\n      add\n      mstore\n      0xff\n      dup2\n      dup13\n      shr\n      and\n      0x0280\n      dup4\n      add\n      mstore\n      0xff\n      dup2\n      0xa8\n      shr\n      and\n      0x02a0\n      dup4\n      add\n      mstore\n      0xff\n      dup2\n      0xb0\n      shr\n      and\n      0x02c0\n      dup4\n      add\n      mstore\n      0xff\n      dup2\n      0xb8\n      shr\n      and\n      0x02e0\n      dup4\n      add\n      mstore\n      0xff\n      dup2\n      0xc0\n      shr\n      and\n      0x0300\n      dup4\n      add\n      mstore\n      0xff\n      dup2\n      0xc8\n      shr\n      and\n      0x0320\n      dup4\n      add\n      mstore\n      0xff\n      dup2\n      0xd0\n      shr\n      and\n      0x0340\n      dup4\n      add\n      mstore\n      0xff\n      dup2\n      0xd8\n      shr\n      and\n      0x0360\n      dup4\n      add\n      mstore\n      0xff\n      dup2\n      0xe0\n      shr\n      and\n      0x0380\n      dup4\n      add\n      mstore\n      0xff\n      dup2\n      0xe8\n      shr\n      and\n      0x03a0\n      dup4\n      add\n      mstore\n      0xff\n      dup2\n      0xf0\n      shr\n      and\n      0x03c0\n      dup4\n      add\n      mstore\n      0xf8\n      shr\n      0x03e0\n      dup3\n      add\n      mstore\n      add\n      swap4\n      add\n      swap2\n      add\n      jump(tag_331)\n    tag_329:\n      0x06\n      0x20\n      0x01\n      swap3\n      tag_367\n      dup6\n      tag_22\n      jump\t// in\n    tag_367:\n      dup2\n      mstore\n      add\n      swap3\n      add\n      swap3\n      add\n      swap2\n      swap1\n      jump(tag_328)\n    tag_58:\n      jumpi(tag_86, callvalue)\n      tag_370\n      calldatasize\n      tag_1\n      jump\t// in\n    tag_370:\n        /* \"contracts/poker.sol\":6862:6918  require(tableId < tables.length, \"Table does not exist\") */\n      tag_371\n        /* \"contracts/poker.sol\":729:25810  contract TexasHoldem {... */\n      sload(0x00)\n        /* \"contracts/poker.sol\":6870:6893  tableId < tables.length */\n      dup4\n      lt\n        /* \"contracts/poker.sol\":6862:6918  require(tableId < tables.length, \"Table does not exist\") */\n      tag_6\n      jump\t// in\n    tag_371:\n        /* \"contracts/poker.sol\":6950:6965  tables[tableId] */\n      tag_372\n      dup3\n      tag_5\n      jump\t// in\n    tag_372:\n        /* \"contracts/poker.sol\":6983:6996  table.players */\n      pop\n      swap1\n      0x07\n      dup3\n      add\n        /* \"contracts/poker.sol\":729:25810  contract TexasHoldem {... */\n      dup1\n      sload\n        /* \"contracts/poker.sol\":6983:7017  table.players.length < MAX_PLAYERS */\n      swap2\n        /* \"contracts/poker.sol\":2386:2387  9 */\n      0x09\n        /* \"contracts/poker.sol\":6983:7017  table.players.length < MAX_PLAYERS */\n      dup4\n      lt\n        /* \"contracts/poker.sol\":729:25810  contract TexasHoldem {... */\n      iszero\n      tag_373\n      jumpi\n        /* \"contracts/poker.sol\":7067:7077  msg.sender */\n      caller\n        /* \"contracts/poker.sol\":729:25810  contract TexasHoldem {... */\n      0x00\n      mstore\n        /* \"contracts/poker.sol\":7053:7066  playerTableId */\n      0x01\n        /* \"contracts/poker.sol\":729:25810  contract TexasHoldem {... */\n      0x20\n      mstore\n      jumpi(tag_375, sload(keccak256(0x00, 0x40)))\n        /* \"contracts/poker.sol\":7159:7173  table.minBuyIn */\n      0x02\n      dup5\n      add\n        /* \"contracts/poker.sol\":729:25810  contract TexasHoldem {... */\n      sload\n        /* \"contracts/poker.sol\":7144:7173  buyInAmount >= table.minBuyIn */\n      dup2\n      lt\n      iszero\n        /* \"contracts/poker.sol\":7144:7206  buyInAmount >= table.minBuyIn && buyInAmount <= table.maxBuyIn */\n      dup1\n      tag_377\n      jumpi\n        /* \"contracts/poker.sol\":729:25810  contract TexasHoldem {... */\n    tag_378:\n      iszero\n      tag_379\n      jumpi\n      mload(0x40)\n      swap3\n      tag_381\n      dup5\n      tag_15\n      jump\t// in\n    tag_381:\n      0x00\n      dup5\n      mstore\n      0x00\n      0x20\n        /* \"contracts/poker.sol\":7426:7432  [0, 0] */\n      dup6\n      add\n        /* \"contracts/poker.sol\":729:25810  contract TexasHoldem {... */\n      mstore\n      mload(0x40)\n      swap4\n      tag_382\n      dup6\n      tag_16\n      jump\t// in\n    tag_382:\n        /* \"contracts/poker.sol\":7067:7077  msg.sender */\n      caller\n        /* \"contracts/poker.sol\":729:25810  contract TexasHoldem {... */\n      dup6\n      mstore\n        /* \"contracts/poker.sol\":7296:7564  Player({... */\n      dup3\n        /* \"contracts/poker.sol\":729:25810  contract TexasHoldem {... */\n      0x20\n        /* \"contracts/poker.sol\":7296:7564  Player({... */\n      dup7\n      add\n        /* \"contracts/poker.sol\":729:25810  contract TexasHoldem {... */\n      mstore\n      0x00\n      0x40\n        /* \"contracts/poker.sol\":7296:7564  Player({... */\n      dup7\n      add\n        /* \"contracts/poker.sol\":729:25810  contract TexasHoldem {... */\n      mstore\n        /* \"contracts/poker.sol\":7296:7564  Player({... */\n      0x60\n      dup6\n      add\n        /* \"contracts/poker.sol\":729:25810  contract TexasHoldem {... */\n      mstore\n      0x00\n        /* \"contracts/poker.sol\":7296:7564  Player({... */\n      0x80\n      dup6\n      add\n        /* \"contracts/poker.sol\":729:25810  contract TexasHoldem {... */\n      mstore\n        /* \"contracts/poker.sol\":7053:7066  playerTableId */\n      0x01\n        /* \"contracts/poker.sol\":7296:7564  Player({... */\n      0xa0\n      dup6\n      add\n        /* \"contracts/poker.sol\":729:25810  contract TexasHoldem {... */\n      mstore\n        /* \"contracts/poker.sol\":7534:7549  block.timestamp */\n      timestamp\n        /* \"contracts/poker.sol\":7296:7564  Player({... */\n      0xc0\n      dup6\n      add\n        /* \"contracts/poker.sol\":729:25810  contract TexasHoldem {... */\n      mstore\n      shl(0x40, 0x01)\n      dup2\n      lt\n      iszero\n      tag_188\n      jumpi\n      dup1\n        /* \"contracts/poker.sol\":7053:7066  playerTableId */\n      0x01\n        /* \"contracts/poker.sol\":729:25810  contract TexasHoldem {... */\n      tag_385\n      swap3\n      add\n      dup5\n      sstore\n      dup4\n      tag_8\n      jump\t// in\n    tag_385:\n      tag_165\n      jumpi\n        /* \"contracts/poker.sol\":7159:7173  table.minBuyIn */\n      0x02\n        /* \"contracts/poker.sol\":729:25810  contract TexasHoldem {... */\n      swap4\n      tag_388\n      swap2\n      tag_20\n      jump\t// in\n    tag_388:\n        /* \"contracts/poker.sol\":7067:7077  msg.sender */\n      caller\n        /* \"contracts/poker.sol\":729:25810  contract TexasHoldem {... */\n      0x00\n      mstore\n        /* \"contracts/poker.sol\":7053:7066  playerTableId */\n      0x01\n        /* \"contracts/poker.sol\":729:25810  contract TexasHoldem {... */\n      0x20\n      mstore\n      dup5\n      keccak256(0x00, 0x40)\n      sstore\n        /* \"contracts/poker.sol\":7534:7549  block.timestamp */\n      timestamp\n        /* \"contracts/poker.sol\":7629:7656  table.lastActivityTimestamp */\n      0x10\n      dup6\n      add\n        /* \"contracts/poker.sol\":729:25810  contract TexasHoldem {... */\n      sstore\n      mload(0x40)\n      swap1\n      dup2\n      mstore\n        /* \"contracts/poker.sol\":7067:7077  msg.sender */\n      dup5\n        /* \"contracts/poker.sol\":7690:7736  PlayerJoined(tableId, msg.sender, buyInAmount) */\n      0x03dfbe1fcb4e2d61f3b4a0c93d8f814c92250618b3387f396cc9fc9fafe2c203\n        /* \"contracts/poker.sol\":729:25810  contract TexasHoldem {... */\n      0x20\n        /* \"contracts/poker.sol\":7067:7077  msg.sender */\n      caller\n        /* \"contracts/poker.sol\":7690:7736  PlayerJoined(tableId, msg.sender, buyInAmount) */\n      swap4\n      log3\n        /* \"contracts/poker.sol\":729:25810  contract TexasHoldem {... */\n      sload\n        /* \"contracts/poker.sol\":7751:7776  table.players.length >= 2 */\n      lt\n      iszero\n        /* \"contracts/poker.sol\":7751:7815  table.players.length >= 2 && table.status == TableStatus.Waiting */\n      dup1\n      tag_389\n      jumpi\n        /* \"contracts/poker.sol\":729:25810  contract TexasHoldem {... */\n    tag_390:\n        /* \"contracts/poker.sol\":7747:7950  if (table.players.length >= 2 && table.status == TableStatus.Waiting) {... */\n      tag_391\n      jumpi\n        /* \"contracts/poker.sol\":729:25810  contract TexasHoldem {... */\n      stop\n        /* \"contracts/poker.sol\":7747:7950  if (table.players.length >= 2 && table.status == TableStatus.Waiting) {... */\n    tag_391:\n        /* \"contracts/poker.sol\":7053:7066  playerTableId */\n      0x01\n        /* \"contracts/poker.sol\":7831:7843  table.status */\n      add\n        /* \"contracts/poker.sol\":7053:7066  playerTableId */\n      0x01\n        /* \"contracts/poker.sol\":729:25810  contract TexasHoldem {... */\n      not(0xff)\n      dup3\n      sload\n      and\n      or\n      swap1\n      sstore\n        /* \"contracts/poker.sol\":7892:7899  tableId */\n      tag_393\n      dup2\n      tag_33\n      jump\t// in\n    tag_393:\n        /* \"contracts/poker.sol\":7919:7939  GameStarted(tableId) */\n      0x50ad08f58a27f2851d7e3a1b3a6a46b290f2ce677e99642d30ff639721e77790\n        /* \"contracts/poker.sol\":729:25810  contract TexasHoldem {... */\n      0x00\n        /* \"contracts/poker.sol\":7919:7939  GameStarted(tableId) */\n      dup1\n      log2\n        /* \"contracts/poker.sol\":729:25810  contract TexasHoldem {... */\n      stop\n        /* \"contracts/poker.sol\":7751:7815  table.players.length >= 2 && table.status == TableStatus.Waiting */\n    tag_389:\n        /* \"contracts/poker.sol\":7780:7792  table.status */\n      pop\n        /* \"contracts/poker.sol\":729:25810  contract TexasHoldem {... */\n      0xff\n        /* \"contracts/poker.sol\":7053:7066  playerTableId */\n      0x01\n        /* \"contracts/poker.sol\":7780:7792  table.status */\n      dup3\n      add\n        /* \"contracts/poker.sol\":729:25810  contract TexasHoldem {... */\n      sload\n      and\n      0x03\n      dup2\n      lt\n      iszero\n      tag_91\n      jumpi\n        /* \"contracts/poker.sol\":7780:7815  table.status == TableStatus.Waiting */\n      iszero\n        /* \"contracts/poker.sol\":7751:7815  table.players.length >= 2 && table.status == TableStatus.Waiting */\n      jump(tag_390)\n        /* \"contracts/poker.sol\":729:25810  contract TexasHoldem {... */\n    tag_379:\n      mload(0x40)\n      shl(0xe5, 0x461bcd)\n      dup2\n      mstore\n      0x20\n      0x04\n      dup3\n      add\n      mstore\n      0x15\n      0x24\n      dup3\n      add\n      mstore\n      shl(0x5a, 0x125b9d985b1a5908189d5e4b5a5b88185b5bdd5b9d)\n      0x44\n      dup3\n      add\n      mstore\n      0x64\n      swap1\n      revert\n        /* \"contracts/poker.sol\":7144:7206  buyInAmount >= table.minBuyIn && buyInAmount <= table.maxBuyIn */\n    tag_377:\n        /* \"contracts/poker.sol\":7192:7206  table.maxBuyIn */\n      pop\n      0x03\n      dup5\n      add\n        /* \"contracts/poker.sol\":729:25810  contract TexasHoldem {... */\n      sload\n        /* \"contracts/poker.sol\":7177:7206  buyInAmount <= table.maxBuyIn */\n      dup2\n      gt\n      iszero\n        /* \"contracts/poker.sol\":7144:7206  buyInAmount >= table.minBuyIn && buyInAmount <= table.maxBuyIn */\n      jump(tag_378)\n        /* \"contracts/poker.sol\":729:25810  contract TexasHoldem {... */\n    tag_375:\n      mload(0x40)\n      shl(0xe5, 0x461bcd)\n      dup2\n      mstore\n      0x20\n      0x04\n      dup3\n      add\n      mstore\n      0x19\n      0x24\n      dup3\n      add\n      mstore\n      0x506c6179657220616c72656164792061742061207461626c6500000000000000\n      0x44\n      dup3\n      add\n      mstore\n      0x64\n      swap1\n      revert\n    tag_373:\n      mload(0x40)\n      shl(0xe5, 0x461bcd)\n      dup2\n      mstore\n      0x20\n      0x04\n      dup3\n      add\n      mstore\n      0x0d\n      0x24\n      dup3\n      add\n      mstore\n      shl(0x9a, 0x1518589b19481a5cc8199d5b1b)\n      0x44\n      dup3\n      add\n      mstore\n      0x64\n      swap1\n      revert\n    tag_56:\n      jumpi(tag_86, callvalue)\n      jumpi(tag_86, slt(add(not(0x03), calldatasize), 0x20))\n      calldataload(0x04)\n        /* \"contracts/poker.sol\":3310:3366  require(tableId < tables.length, \"Table does not exist\") */\n      tag_400\n        /* \"contracts/poker.sol\":729:25810  contract TexasHoldem {... */\n      sload(0x00)\n        /* \"contracts/poker.sol\":3318:3341  tableId < tables.length */\n      dup3\n      lt\n        /* \"contracts/poker.sol\":3310:3366  require(tableId < tables.length, \"Table does not exist\") */\n      tag_6\n      jump\t// in\n    tag_400:\n        /* \"contracts/poker.sol\":3411:3421  msg.sender */\n      caller\n        /* \"contracts/poker.sol\":729:25810  contract TexasHoldem {... */\n      0x00\n      mstore\n      mstore(0x20, 0x01)\n        /* \"contracts/poker.sol\":3376:3484  require(... */\n      tag_401\n        /* \"contracts/poker.sol\":729:25810  contract TexasHoldem {... */\n      dup2\n      sload(keccak256(0x00, 0x40))\n        /* \"contracts/poker.sol\":3397:3433  playerTableId[msg.sender] == tableId */\n      eq\n        /* \"contracts/poker.sol\":3376:3484  require(... */\n      tag_7\n      jump\t// in\n    tag_401:\n        /* \"contracts/poker.sol\":8165:8180  tables[tableId] */\n      tag_402\n      dup2\n      tag_5\n      jump\t// in\n    tag_402:\n        /* \"contracts/poker.sol\":8190:8210  uint playerIndex = 0 */\n      pop\n      swap1\n        /* \"contracts/poker.sol\":729:25810  contract TexasHoldem {... */\n      0x00\n        /* \"contracts/poker.sol\":8225:8235  uint i = 0 */\n      swap2\n        /* \"contracts/poker.sol\":729:25810  contract TexasHoldem {... */\n      0x00\n        /* \"contracts/poker.sol\":8241:8254  table.players */\n      swap3\n      0x07\n      dup3\n      add\n        /* \"contracts/poker.sol\":729:25810  contract TexasHoldem {... */\n      swap4\n      dup5\n      sload\n        /* \"contracts/poker.sol\":8220:8404  for (uint i = 0; i < table.players.length; i++) {... */\n      swap1\n        /* \"contracts/poker.sol\":8237:8261  i < table.players.length */\n    tag_403:\n      dup2\n      dup2\n      lt\n      tag_404\n      jumpi\n        /* \"contracts/poker.sol\":8220:8404  for (uint i = 0; i < table.players.length; i++) {... */\n    tag_405:\n        /* \"contracts/poker.sol\":8459:8479  uint i = playerIndex */\n      pop\n      pop\n        /* \"contracts/poker.sol\":8511:8514  i++ */\n    tag_406:\n        /* \"contracts/poker.sol\":729:25810  contract TexasHoldem {... */\n      dup4\n      sload\n      not(0x00)\n      dup2\n      add\n      swap1\n      dup2\n      gt\n      tag_198\n      jumpi\n        /* \"contracts/poker.sol\":8481:8509  i < table.players.length - 1 */\n      dup2\n      lt\n      iszero\n      tag_409\n      jumpi\n        /* \"contracts/poker.sol\":729:25810  contract TexasHoldem {... */\n      0x01\n      dup2\n      add\n      dup1\n      dup3\n      gt\n      tag_198\n      jumpi\n        /* \"contracts/poker.sol\":8549:8569  table.players[i + 1] */\n      tag_413\n      swap1\n      dup6\n      tag_8\n      jump\t// in\n    tag_413:\n        /* \"contracts/poker.sol\":8530:8546  table.players[i] */\n      pop\n      swap1\n      tag_414\n      dup2\n      dup7\n      tag_8\n      jump\t// in\n    tag_414:\n        /* \"contracts/poker.sol\":729:25810  contract TexasHoldem {... */\n      tag_165\n      jumpi\n      dup3\n      0x01\n      swap4\n      dup3\n      sub\n      tag_417\n      jumpi\n        /* \"contracts/poker.sol\":8511:8514  i++ */\n    tag_418:\n      pop\n      pop\n        /* \"contracts/poker.sol\":729:25810  contract TexasHoldem {... */\n      add\n        /* \"contracts/poker.sol\":8459:8479  uint i = playerIndex */\n      jump(tag_406)\n        /* \"contracts/poker.sol\":729:25810  contract TexasHoldem {... */\n    tag_417:\n      0x05\n      dup1\n      swap2\n      dup6\n      dup1\n      0xa0\n      shl\n      sub\n      dup7\n      dup1\n      0xa0\n      shl\n      sub\n      dup3\n      sload\n      and\n      and\n      shl(0xa0, 0xffffffffffffffffffffffff)\n      dup6\n      sload\n      and\n      or\n      dup5\n      sstore\n      dup6\n      dup2\n      add\n      sload\n      dup7\n      dup6\n      add\n      sstore\n      0x02\n      dup2\n      add\n      sload\n      0x02\n      dup6\n      add\n      sstore\n      tag_419\n      0x03\n      dup3\n      add\n      0x03\n      dup7\n      add\n      tag_12\n      jump\t// in\n    tag_419:\n      tag_420\n      0x04\n      dup6\n      add\n      0xff\n      0x04\n      dup5\n      add\n      tag_421\n      dup3\n      dup3\n      sload\n      and\n      dup5\n      swap1\n      0xff\n      dup1\n      not\n      dup4\n      sload\n      and\n      swap2\n      iszero\n      iszero\n      and\n      or\n      swap1\n      sstore\n      jump\n    tag_421:\n      sload\n      0x08\n      shr\n      and\n      0xff00\n      dup3\n      sload\n      swap2\n      iszero\n      iszero\n      0x08\n      shl\n      and\n      swap1\n      not(0xff00)\n      and\n      or\n      swap1\n      sstore\n      jump\n    tag_420:\n      add\n      sload\n      swap2\n      add\n      sstore\n      dup6\n      dup1\n      jump(tag_418)\n        /* \"contracts/poker.sol\":8481:8509  i < table.players.length - 1 */\n    tag_409:\n      pop\n      swap2\n        /* \"contracts/poker.sol\":729:25810  contract TexasHoldem {... */\n      dup1\n      sload\n      dup1\n      iszero\n      tag_422\n      jumpi\n      not(0x00)\n      add\n      swap2\n      tag_424\n      dup4\n      dup4\n      tag_8\n      jump\t// in\n    tag_424:\n      swap4\n      swap1\n      swap4\n      tag_165\n      jumpi\n      0x00\n      0x05\n      dup6\n      dup3\n      0x02\n      swap8\n      sstore\n      dup3\n      0x01\n      dup3\n      add\n      sstore\n      dup3\n      dup8\n      dup3\n      add\n      sstore\n      dup3\n      0x04\n      dup3\n      add\n      tag_427\n      dup2\n      0x03\n      dup6\n      add\n      tag_11\n      jump\t// in\n    tag_427:\n      sstore\n      add\n      sstore\n      dup3\n      sstore\n        /* \"contracts/poker.sol\":3411:3421  msg.sender */\n      caller\n        /* \"contracts/poker.sol\":729:25810  contract TexasHoldem {... */\n      0x00\n      mstore\n      mstore(0x20, 0x01)\n      0x00\n      0x40\n      dup2\n      keccak256\n      sstore\n        /* \"contracts/poker.sol\":3411:3421  msg.sender */\n      caller\n        /* \"contracts/poker.sol\":8663:8694  PlayerLeft(tableId, msg.sender) */\n      swap1\n      0xb2bd643202385c64d9814c6c3fa61b1ba098d6652292e9d9a6f1a0cdae6eb824\n        /* \"contracts/poker.sol\":729:25810  contract TexasHoldem {... */\n      0x00\n        /* \"contracts/poker.sol\":8663:8694  PlayerLeft(tableId, msg.sender) */\n      dup1\n      log3\n        /* \"contracts/poker.sol\":729:25810  contract TexasHoldem {... */\n      sload\n        /* \"contracts/poker.sol\":8709:8733  table.players.length < 2 */\n      lt\n        /* \"contracts/poker.sol\":8705:8839  if (table.players.length < 2) {... */\n      tag_428\n      jumpi\n        /* \"contracts/poker.sol\":729:25810  contract TexasHoldem {... */\n      stop\n        /* \"contracts/poker.sol\":8705:8839  if (table.players.length < 2) {... */\n    tag_428:\n        /* \"contracts/poker.sol\":8749:8761  table.status */\n      dup1\n        /* \"contracts/poker.sol\":729:25810  contract TexasHoldem {... */\n      0x01\n        /* \"contracts/poker.sol\":8797:8808  table.phase */\n      0x0c\n        /* \"contracts/poker.sol\":8749:8761  table.status */\n      swap3\n      add\n        /* \"contracts/poker.sol\":729:25810  contract TexasHoldem {... */\n      not(0xff)\n      dup2\n      sload\n      and\n      swap1\n      sstore\n        /* \"contracts/poker.sol\":8797:8808  table.phase */\n      add\n        /* \"contracts/poker.sol\":729:25810  contract TexasHoldem {... */\n      not(0xff)\n      dup2\n      sload\n      and\n      swap1\n      sstore\n      0x00\n      dup1\n      return\n    tag_422:\n      mstore(0x00, shl(0xe0, 0x4e487b71))\n      mstore(0x04, 0x31)\n      revert(0x00, 0x24)\n        /* \"contracts/poker.sol\":8263:8266  i++ */\n    tag_404:\n        /* \"contracts/poker.sol\":8286:8302  table.players[i] */\n      tag_430\n      dup2\n      dup8\n      tag_8\n      jump\t// in\n    tag_430:\n      pop\n        /* \"contracts/poker.sol\":729:25810  contract TexasHoldem {... */\n      sload\n      sub(shl(0xa0, 0x01), 0x01)\n      and\n        /* \"contracts/poker.sol\":3411:3421  msg.sender */\n      caller\n        /* \"contracts/poker.sol\":8286:8321  table.players[i].addr == msg.sender */\n      eq\n        /* \"contracts/poker.sol\":8282:8394  if (table.players[i].addr == msg.sender) {... */\n      tag_431\n      jumpi\n        /* \"contracts/poker.sol\":729:25810  contract TexasHoldem {... */\n      0x01\n      add\n        /* \"contracts/poker.sol\":8225:8235  uint i = 0 */\n      jump(tag_403)\n        /* \"contracts/poker.sol\":8282:8394  if (table.players[i].addr == msg.sender) {... */\n    tag_431:\n        /* \"contracts/poker.sol\":8341:8356  playerIndex = i */\n      swap2\n      pop\n      pop\n        /* \"contracts/poker.sol\":8374:8379  break */\n      dup5\n      dup1\n      jump(tag_405)\n        /* \"contracts/poker.sol\":729:25810  contract TexasHoldem {... */\n    tag_54:\n      jumpi(tag_86, callvalue)\n      jumpi(tag_86, slt(add(not(0x03), calldatasize), 0x20))\n      calldataload(0x04)\n      sub(shl(0xa0, 0x01), 0x01)\n      dup2\n      and\n      swap2\n      swap1\n      dup3\n      swap1\n      sub\n      tag_86\n      jumpi\n      0x20\n      swap2\n      0x00\n      mstore\n        /* \"contracts/poker.sol\":2394:2439  mapping(address => uint) public playerTableId */\n      0x01\n        /* \"contracts/poker.sol\":729:25810  contract TexasHoldem {... */\n      dup3\n      mstore\n      sload(keccak256(0x00, 0x40))\n      dup2\n      mstore\n      return\n    tag_1:\n      0x40\n      swap1\n      not(0x03)\n      add\n      slt\n      tag_86\n      jumpi\n      calldataload(0x04)\n      swap1\n      calldataload(0x24)\n      swap1\n      jump\t// out\n    tag_2:\n      swap1\n      0x03\n      dup3\n      lt\n      iszero\n      tag_91\n      jumpi\n      mstore\n      jump\t// out\n    tag_3:\n      dup1\n      mload\n      sub(shl(0xa0, 0x01), 0x01)\n      and\n      dup3\n      mstore\n      0x20\n      dup1\n      dup3\n      add\n      mload\n      swap1\n      dup4\n      add\n      mstore\n      0x40\n      dup1\n      dup3\n      add\n      mload\n      swap1\n      dup4\n      add\n      mstore\n      0x60\n      dup1\n      dup3\n      add\n      mload\n      swap1\n      0x00\n      swap1\n      dup5\n      add\n    tag_443:\n      0x02\n      dup3\n      lt\n      tag_444\n      jumpi\n      pop\n      pop\n      pop\n      0xc0\n      dup2\n      0x80\n      0xe0\n      swap4\n      add\n      mload\n      iszero\n      iszero\n      0xa0\n      dup6\n      add\n      mstore\n      0xa0\n      dup2\n      add\n      mload\n      iszero\n      iszero\n      dup3\n      dup6\n      add\n      mstore\n      add\n      mload\n      swap2\n      add\n      mstore\n      jump\t// out\n    tag_444:\n      0x20\n      dup1\n      0x01\n      swap3\n      0xff\n      dup7\n      mload\n      and\n      dup2\n      mstore\n      add\n      swap4\n      add\n      swap2\n      add\n      swap1\n      swap2\n      jump(tag_443)\n    tag_4:\n      swap1\n      0x06\n      dup3\n      lt\n      iszero\n      tag_91\n      jumpi\n      mstore\n      jump\t// out\n    tag_5:\n      sload(0x00)\n      dup2\n      lt\n      iszero\n      tag_448\n      jumpi\n      0x00\n      dup1\n      dup1\n      mstore\n      0x11\n      swap2\n      swap1\n      swap2\n      mul\n      0x290decd9548b62a8d60345a988386fc84ba6bc95484008f6362f93160ef3e563\n      add\n      swap2\n      jump\t// out\n    tag_448:\n      mstore(0x00, shl(0xe0, 0x4e487b71))\n      mstore(0x04, 0x32)\n      revert(0x00, 0x24)\n    tag_6:\n      iszero\n      tag_450\n      jumpi\n      jump\t// out\n    tag_450:\n      mload(0x40)\n      shl(0xe5, 0x461bcd)\n      dup2\n      mstore\n      0x20\n      0x04\n      dup3\n      add\n      mstore\n      0x14\n      0x24\n      dup3\n      add\n      mstore\n      shl(0x62, 0x1518589b1948191bd95cc81b9bdd08195e1a5cdd)\n      0x44\n      dup3\n      add\n      mstore\n      0x64\n      swap1\n      revert\n    tag_7:\n      iszero\n      tag_452\n      jumpi\n      jump\t// out\n    tag_452:\n      mload(0x40)\n      shl(0xe5, 0x461bcd)\n      dup2\n      mstore\n      0x20\n      0x04\n      dup3\n      add\n      mstore\n      0x19\n      0x24\n      dup3\n      add\n      mstore\n      0x596f7520617265206e6f742061742074686973207461626c6500000000000000\n      0x44\n      dup3\n      add\n      mstore\n      0x64\n      swap1\n      revert\n    tag_8:\n      dup1\n      sload\n      dup3\n      lt\n      iszero\n      tag_448\n      jumpi\n      0x00\n      mstore\n      0x06\n      keccak256(0x00, 0x20)\n      swap2\n      mul\n      add\n      swap1\n      0x00\n      swap1\n      jump\t// out\n    tag_9:\n      swap2\n      swap1\n      dup3\n      sub\n      swap2\n      dup3\n      gt\n      tag_198\n      jumpi\n      jump\t// out\n    tag_10:\n      swap2\n      swap1\n      dup3\n      add\n      dup1\n      swap3\n      gt\n      tag_198\n      jumpi\n      jump\t// out\n    tag_11:\n      dup2\n      dup2\n      lt\n      tag_461\n      jumpi\n      pop\n      pop\n      jump\t// out\n    tag_461:\n      0x00\n      dup2\n      sstore\n      0x01\n      add\n      jump(tag_11)\n    tag_12:\n      swap1\n      dup1\n      dup3\n      eq\n      tag_463\n      jumpi\n      sload\n      0xffff\n      and\n      swap1\n      sstore\n      jump\t// out\n    tag_463:\n      pop\n      pop\n      jump\t// out\n    tag_15:\n      0x40\n      dup2\n      add\n      swap1\n      dup2\n      lt\n      0xffffffffffffffff\n      dup3\n      gt\n      or\n      tag_188\n      jumpi\n      0x40\n      mstore\n      jump\t// out\n    tag_16:\n      0xe0\n      dup2\n      add\n      swap1\n      dup2\n      lt\n      0xffffffffffffffff\n      dup3\n      gt\n      or\n      tag_188\n      jumpi\n      0x40\n      mstore\n      jump\t// out\n    tag_17:\n      0x0220\n      dup2\n      add\n      swap1\n      dup2\n      lt\n      0xffffffffffffffff\n      dup3\n      gt\n      or\n      tag_188\n      jumpi\n      0x40\n      mstore\n      jump\t// out\n    tag_18:\n      swap1\n      0x1f\n      dup1\n      not\n      swap2\n      add\n      and\n      dup2\n      add\n      swap1\n      dup2\n      lt\n      0xffffffffffffffff\n      dup3\n      gt\n      or\n      tag_188\n      jumpi\n      0x40\n      mstore\n      jump\t// out\n    tag_20:\n      dup2\n      mload\n      dup2\n      sload\n      not(sub(shl(0xa0, 0x01), 0x01))\n      and\n      sub(shl(0xa0, 0x01), 0x01)\n      swap2\n      swap1\n      swap2\n      and\n      or\n      dup2\n      sstore\n      0x20\n      dup3\n      add\n      mload\n      0x01\n      dup3\n      add\n      sstore\n      0x40\n      dup3\n      add\n      mload\n      0x02\n      dup3\n      add\n      sstore\n      0x60\n      dup3\n      add\n      mload\n      swap1\n      swap2\n      swap1\n      0x00\n      swap1\n      dup2\n    tag_473:\n      0x02\n      dup2\n      lt\n      tag_474\n      jumpi\n      pop\n      pop\n      0x05\n      swap2\n      0xc0\n      swap2\n      0x03\n      dup6\n      add\n      sstore\n      tag_476\n      0x04\n      dup6\n      add\n      tag_477\n      0x80\n      dup5\n      add\n      mload\n      iszero\n      iszero\n      dup3\n      swap1\n      0xff\n      dup1\n      not\n      dup4\n      sload\n      and\n      swap2\n      iszero\n      iszero\n      and\n      or\n      swap1\n      sstore\n      jump\n    tag_477:\n      0xa0\n      dup4\n      add\n      mload\n      dup2\n      sload\n      not(0xff00)\n      and\n      swap1\n      iszero\n      iszero\n      0x08\n      shl\n      0xff00\n      and\n      or\n      swap1\n      sstore\n      jump\n    tag_476:\n      add\n      mload\n      swap2\n      add\n      sstore\n      jump\t// out\n    tag_474:\n      swap1\n      swap2\n      0x20\n      tag_478\n      0x01\n      swap3\n      dup5\n      0xff\n      dup8\n      mload\n      and\n      swap2\n      swap1\n      0xff\n      dup1\n      swap2\n      0x03\n      shl\n      swap4\n      and\n      dup4\n      shl\n      swap3\n      shl\n      not\n      and\n      or\n      swap1\n      jump\n    tag_478:\n      swap4\n      add\n      swap2\n      add\n      jump(tag_473)\n    tag_21:\n      0xffffffffffffffff\n      dup2\n      gt\n      tag_188\n      jumpi\n      0x05\n      shl\n      0x20\n      add\n      swap1\n      jump\t// out\n    tag_22:\n      swap1\n      mload(0x40)\n      tag_481\n      dup2\n      tag_16\n      jump\t// in\n    tag_481:\n      0xc0\n      0x05\n      dup3\n      swap5\n      0x01\n      dup1\n      0xa0\n      shl\n      sub\n      dup2\n      sload\n      and\n      dup5\n      mstore\n      0x01\n      dup2\n      add\n      sload\n      0x20\n      dup6\n      add\n      mstore\n      0x02\n      dup2\n      add\n      sload\n      0x40\n      dup6\n      add\n      mstore\n      mload(0x40)\n      0xff\n      0x03\n      dup4\n      add\n      sload\n      dup2\n      dup2\n      and\n      dup4\n      mstore\n      0x08\n      shr\n      and\n      0x20\n      dup3\n      add\n      mstore\n      tag_482\n      0x40\n      dup3\n      tag_18\n      jump\t// in\n    tag_482:\n      0x60\n      dup6\n      add\n      mstore\n      0xff\n      0x04\n      dup3\n      add\n      sload\n      dup2\n      dup2\n      and\n      iszero\n      iszero\n      0x80\n      dup8\n      add\n      mstore\n      0x08\n      shr\n      and\n      iszero\n      iszero\n      0xa0\n      dup6\n      add\n      mstore\n      add\n      sload\n      swap2\n      add\n      mstore\n      jump\t// out\n    tag_24:\n      iszero\n      tag_483\n      jumpi\n      jump\t// out\n    tag_483:\n      mload(0x40)\n      shl(0xe5, 0x461bcd)\n      dup2\n      mstore\n      0x20\n      0x04\n      dup3\n      add\n      mstore\n      0x12\n      0x24\n      dup3\n      add\n      mstore\n      shl(0x70, 0x47616d65206973206e6f7420616374697665)\n      0x44\n      dup3\n      add\n      mstore\n      0x64\n      swap1\n      revert\n    tag_25:\n      iszero\n      tag_485\n      jumpi\n      jump\t// out\n    tag_485:\n      mload(0x40)\n      shl(0xe5, 0x461bcd)\n      dup2\n      mstore\n      0x20\n      0x04\n      dup3\n      add\n      mstore\n      0x0d\n      0x24\n      dup3\n      add\n      mstore\n      shl(0x99, 0x2737ba103cb7bab9103a3ab937)\n      0x44\n      dup3\n      add\n      mstore\n      0x64\n      swap1\n      revert\n    tag_26:\n      mload(0x40)\n      swap1\n      tag_487\n      dup3\n      tag_15\n      jump\t// in\n    tag_487:\n      0x60\n      0x20\n      dup4\n      0x00\n      dup2\n      mstore\n      add\n      mstore\n      jump\t// out\n    tag_28:\n      dup1\n      sload\n      0x00\n      dup3\n      sstore\n      dup1\n      tag_488\n      jumpi\n      pop\n      pop\n      jump\t// out\n    tag_488:\n      tag_490\n      swap2\n      0x00\n      mstore\n      keccak256(0x00, 0x20)\n      swap1\n      dup2\n      add\n      swap1\n      tag_11\n      jump\t// in\n    tag_490:\n      jump\t// out\n    tag_29:\n      0x01\n      0x20\n      swap2\n      dup4\n      mload\n      dup2\n      sstore\n      add\n      swap2\n      add\n      mload\n      swap1\n      dup2\n      mload\n      swap2\n      0xffffffffffffffff\n      dup4\n      gt\n      tag_188\n      jumpi\n      shl(0x40, 0x01)\n      dup4\n      gt\n      tag_188\n      jumpi\n      0x20\n      swap1\n      dup3\n      sload\n      dup5\n      dup5\n      sstore\n      dup1\n      dup6\n      lt\n      tag_495\n      jumpi\n    tag_496:\n      pop\n      add\n      swap1\n      0x00\n      mstore\n      keccak256(0x00, 0x20)\n      0x00\n    tag_497:\n      dup4\n      dup2\n      lt\n      tag_498\n      jumpi\n      pop\n      pop\n      pop\n      pop\n      jump\t// out\n    tag_498:\n      dup3\n      mload\n      sub(shl(0xa0, 0x01), 0x01)\n      and\n      dup2\n      dup4\n      add\n      sstore\n      0x20\n      swap1\n      swap3\n      add\n      swap2\n      0x01\n      add\n      jump(tag_497)\n    tag_495:\n      tag_500\n      swap1\n      dup5\n      0x00\n      mstore\n      dup6\n      dup5\n      0x00\n      keccak256\n      swap2\n      dup3\n      add\n      swap2\n      add\n      tag_11\n      jump\t// in\n    tag_500:\n      0x00\n      jump(tag_496)\n        /* \"contracts/poker.sol\":4518:4967  function getPlayerState(... */\n    tag_30:\n        /* \"contracts/poker.sol\":729:25810  contract TexasHoldem {... */\n      mload(0x40)\n      swap2\n      tag_501\n      dup4\n      tag_16\n      jump\t// in\n    tag_501:\n      0x00\n      dup4\n      mstore\n      0x00\n      0x20\n      dup5\n      add\n      mstore\n      0x00\n      0x40\n      dup5\n      add\n      mstore\n      0x40\n      swap3\n      dup4\n      mload\n      tag_502\n      dup6\n      dup3\n      tag_18\n      jump\t// in\n    tag_502:\n      dup5\n      calldatasize\n      dup3\n      calldatacopy\n      0x60\n      dup3\n      add\n      mstore\n      0x00\n      0x80\n      dup3\n      add\n      mstore\n      0x00\n      0xa0\n      dup3\n      add\n      mstore\n      0x00\n      0xc0\n      dup3\n      add\n      mstore\n      pop\n        /* \"contracts/poker.sol\":4646:4702  require(tableId < tables.length, \"Table does not exist\") */\n      tag_503\n        /* \"contracts/poker.sol\":4664:4670  tables */\n      0x00\n        /* \"contracts/poker.sol\":729:25810  contract TexasHoldem {... */\n      sload\n        /* \"contracts/poker.sol\":4654:4677  tableId < tables.length */\n      dup4\n      lt\n        /* \"contracts/poker.sol\":4646:4702  require(tableId < tables.length, \"Table does not exist\") */\n      tag_6\n      jump\t// in\n    tag_503:\n        /* \"contracts/poker.sol\":4664:4670  tables */\n      0x00\n        /* \"contracts/poker.sol\":4765:4768  i++ */\n    tag_504:\n        /* \"contracts/poker.sol\":4733:4756  tables[tableId].players */\n      0x07\n        /* \"contracts/poker.sol\":4733:4748  tables[tableId] */\n      tag_505\n      dup5\n      tag_5\n      jump\t// in\n    tag_505:\n        /* \"contracts/poker.sol\":4733:4756  tables[tableId].players */\n      pop\n      add\n        /* \"contracts/poker.sol\":729:25810  contract TexasHoldem {... */\n      sload\n        /* \"contracts/poker.sol\":4729:4763  i < tables[tableId].players.length */\n      dup2\n      lt\n      iszero\n      tag_506\n      jumpi\n        /* \"contracts/poker.sol\":4788:4814  tables[tableId].players[i] */\n      tag_508\n        /* \"contracts/poker.sol\":4788:4803  tables[tableId] */\n      dup2\n        /* \"contracts/poker.sol\":4733:4756  tables[tableId].players */\n      0x07\n        /* \"contracts/poker.sol\":4788:4803  tables[tableId] */\n      tag_509\n      dup7\n      tag_5\n      jump\t// in\n    tag_509:\n        /* \"contracts/poker.sol\":4788:4811  tables[tableId].players */\n      pop\n      add\n        /* \"contracts/poker.sol\":4788:4814  tables[tableId].players[i] */\n      tag_8\n      jump\t// in\n    tag_508:\n      pop\n        /* \"contracts/poker.sol\":729:25810  contract TexasHoldem {... */\n      sload\n      sub(shl(0xa0, 0x01), 0x01)\n      dup4\n      dup2\n      and\n      swap2\n      and\n        /* \"contracts/poker.sol\":4788:4833  tables[tableId].players[i].addr == playerAddr */\n      eq\n        /* \"contracts/poker.sol\":4784:4901  if (tables[tableId].players[i].addr == playerAddr) {... */\n      tag_510\n      jumpi\n        /* \"contracts/poker.sol\":729:25810  contract TexasHoldem {... */\n      0x01\n      add\n        /* \"contracts/poker.sol\":4717:4727  uint i = 0 */\n      jump(tag_504)\n        /* \"contracts/poker.sol\":4784:4901  if (tables[tableId].players[i].addr == playerAddr) {... */\n    tag_510:\n        /* \"contracts/poker.sol\":4860:4875  tables[tableId] */\n      swap1\n      pop\n        /* \"contracts/poker.sol\":729:25810  contract TexasHoldem {... */\n      tag_512\n        /* \"contracts/poker.sol\":4860:4875  tables[tableId] */\n      swap3\n      pop\n        /* \"contracts/poker.sol\":4733:4756  tables[tableId].players */\n      0x07\n        /* \"contracts/poker.sol\":4860:4875  tables[tableId] */\n      tag_509\n        /* \"contracts/poker.sol\":4860:4886  tables[tableId].players[i] */\n      tag_514\n        /* \"contracts/poker.sol\":4860:4875  tables[tableId] */\n      swap4\n      tag_5\n      jump\t// in\n        /* \"contracts/poker.sol\":4860:4886  tables[tableId].players[i] */\n    tag_514:\n        /* \"contracts/poker.sol\":729:25810  contract TexasHoldem {... */\n      pop\n      tag_22\n      jump\t// in\n    tag_512:\n        /* \"contracts/poker.sol\":4853:4886  return tables[tableId].players[i] */\n      swap1\n      jump\t// out\n        /* \"contracts/poker.sol\":4729:4763  i < tables[tableId].players.length */\n    tag_506:\n        /* \"contracts/poker.sol\":729:25810  contract TexasHoldem {... */\n      dup4\n      mload\n      shl(0xe5, 0x461bcd)\n        /* \"contracts/poker.sol\":4920:4960  revert(\"Player not found at this table\") */\n      dup2\n      mstore\n        /* \"contracts/poker.sol\":729:25810  contract TexasHoldem {... */\n      0x20\n        /* \"contracts/poker.sol\":4920:4960  revert(\"Player not found at this table\") */\n      0x04\n      dup3\n      add\n        /* \"contracts/poker.sol\":729:25810  contract TexasHoldem {... */\n      mstore\n      0x1e\n      0x24\n      dup3\n      add\n      mstore\n      0x506c61796572206e6f7420666f756e642061742074686973207461626c650000\n      0x44\n      dup3\n      add\n      mstore\n        /* \"contracts/poker.sol\":4920:4960  revert(\"Player not found at this table\") */\n      0x64\n      swap1\n      revert\n        /* \"contracts/poker.sol\":729:25810  contract TexasHoldem {... */\n    tag_31:\n      0xff\n      0x01\n      swap2\n      and\n      add\n      swap1\n      0xff\n      dup3\n      gt\n      tag_198\n      jumpi\n      jump\t// out\n    tag_32:\n      dup2\n      iszero\n      tag_517\n      jumpi\n      mod\n      swap1\n      jump\t// out\n    tag_517:\n      mstore(0x00, shl(0xe0, 0x4e487b71))\n      mstore(0x04, 0x12)\n      revert(0x00, 0x24)\n        /* \"contracts/poker.sol\":12048:12946  function _startNewHand(uint tableId) internal {... */\n    tag_33:\n        /* \"contracts/poker.sol\":12126:12141  tables[tableId] */\n      tag_519\n      dup2\n      tag_5\n      jump\t// in\n    tag_519:\n      pop\n        /* \"contracts/poker.sol\":12157:12167  uint i = 0 */\n      swap1\n        /* \"contracts/poker.sol\":12173:12186  table.players */\n      0x07\n      dup3\n      add\n      swap1\n        /* \"contracts/poker.sol\":12126:12132  tables */\n      0x00\n        /* \"contracts/poker.sol\":12195:12198  i++ */\n    tag_520:\n        /* \"contracts/poker.sol\":729:25810  contract TexasHoldem {... */\n      dup3\n      sload\n        /* \"contracts/poker.sol\":12169:12193  i < table.players.length */\n      dup2\n      lt\n      iszero\n      tag_521\n      jumpi\n        /* \"contracts/poker.sol\":729:25810  contract TexasHoldem {... */\n      0x01\n        /* \"contracts/poker.sol\":12218:12234  table.players[i] */\n      tag_523\n      dup3\n      dup6\n      tag_8\n      jump\t// in\n    tag_523:\n      pop\n        /* \"contracts/poker.sol\":12218:12240  table.players[i].chips */\n      add\n        /* \"contracts/poker.sol\":729:25810  contract TexasHoldem {... */\n      sload\n        /* \"contracts/poker.sol\":12218:12244  table.players[i].chips > 0 */\n      iszero\n        /* \"contracts/poker.sol\":729:25810  contract TexasHoldem {... */\n      tag_524\n      jumpi\n        /* \"contracts/poker.sol\":12264:12287  table.players[i].inHand */\n      0x04\n        /* \"contracts/poker.sol\":12264:12280  table.players[i] */\n      tag_526\n      dup3\n      dup6\n      tag_8\n      jump\t// in\n    tag_526:\n      pop\n        /* \"contracts/poker.sol\":12264:12287  table.players[i].inHand */\n      add\n        /* \"contracts/poker.sol\":729:25810  contract TexasHoldem {... */\n      dup1\n      sload\n      not(0xff)\n      and\n      0x01\n      or\n      swap1\n      sstore\n        /* \"contracts/poker.sol\":12264:12287  table.players[i].inHand */\n      0x04\n        /* \"contracts/poker.sol\":12312:12328  table.players[i] */\n      tag_527\n      dup3\n      dup6\n      tag_8\n      jump\t// in\n    tag_527:\n      pop\n        /* \"contracts/poker.sol\":12312:12337  table.players[i].hasActed */\n      add\n        /* \"contracts/poker.sol\":729:25810  contract TexasHoldem {... */\n      dup1\n      sload\n      not(0xff00)\n      and\n      swap1\n      sstore\n      0x00\n        /* \"contracts/poker.sol\":12363:12383  table.players[i].bet */\n      0x02\n        /* \"contracts/poker.sol\":12363:12379  table.players[i] */\n      tag_528\n      dup4\n      dup7\n      tag_8\n      jump\t// in\n    tag_528:\n        /* \"contracts/poker.sol\":12363:12383  table.players[i].bet */\n      pop\n      add\n        /* \"contracts/poker.sol\":729:25810  contract TexasHoldem {... */\n      sstore\n      mload(0x40)\n      tag_529\n      dup2\n      tag_15\n      jump\t// in\n    tag_529:\n        /* \"contracts/poker.sol\":12126:12132  tables */\n      0x00\n        /* \"contracts/poker.sol\":729:25810  contract TexasHoldem {... */\n      dup2\n      mstore\n        /* \"contracts/poker.sol\":12126:12132  tables */\n      0x00\n        /* \"contracts/poker.sol\":12434:12440  [0, 0] */\n      0x20\n      dup3\n      add\n        /* \"contracts/poker.sol\":729:25810  contract TexasHoldem {... */\n      mstore\n        /* \"contracts/poker.sol\":12405:12421  table.players[i] */\n      tag_530\n      dup3\n      dup6\n      tag_8\n      jump\t// in\n    tag_530:\n        /* \"contracts/poker.sol\":729:25810  contract TexasHoldem {... */\n      pop\n        /* \"contracts/poker.sol\":12126:12132  tables */\n      0x00\n        /* \"contracts/poker.sol\":729:25810  contract TexasHoldem {... */\n      swap2\n        /* \"contracts/poker.sol\":12126:12132  tables */\n      0x00\n        /* \"contracts/poker.sol\":729:25810  contract TexasHoldem {... */\n    tag_531:\n        /* \"contracts/poker.sol\":12363:12383  table.players[i].bet */\n      0x02\n        /* \"contracts/poker.sol\":729:25810  contract TexasHoldem {... */\n      dup2\n      lt\n      tag_532\n      jumpi\n      pop\n      pop\n        /* \"contracts/poker.sol\":12405:12431  table.players[i].holeCards */\n      0x03\n      add\n        /* \"contracts/poker.sol\":729:25810  contract TexasHoldem {... */\n      sstore\n      0x01\n      swap1\n        /* \"contracts/poker.sol\":12214:12525  if (table.players[i].chips > 0) {... */\n    tag_534:\n        /* \"contracts/poker.sol\":729:25810  contract TexasHoldem {... */\n      add\n        /* \"contracts/poker.sol\":12157:12167  uint i = 0 */\n      jump(tag_520)\n        /* \"contracts/poker.sol\":729:25810  contract TexasHoldem {... */\n    tag_532:\n      swap1\n      swap3\n        /* \"contracts/poker.sol\":12434:12440  [0, 0] */\n      0x20\n        /* \"contracts/poker.sol\":729:25810  contract TexasHoldem {... */\n      tag_535\n      0x01\n      swap3\n      dup5\n      0xff\n      dup9\n      mload\n      and\n      swap2\n      swap1\n      0xff\n      dup1\n      swap2\n      0x03\n      shl\n      swap4\n      and\n      dup4\n      shl\n      swap3\n      shl\n      not\n      and\n      or\n      swap1\n      jump\n    tag_535:\n      swap5\n      add\n      swap2\n      add\n      jump(tag_531)\n        /* \"contracts/poker.sol\":12214:12525  if (table.players[i].chips > 0) {... */\n    tag_524:\n        /* \"contracts/poker.sol\":12479:12495  table.players[i] */\n      dup1\n        /* \"contracts/poker.sol\":12479:12502  table.players[i].inHand */\n      0x04\n        /* \"contracts/poker.sol\":12479:12495  table.players[i] */\n      tag_536\n        /* \"contracts/poker.sol\":729:25810  contract TexasHoldem {... */\n      0x01\n        /* \"contracts/poker.sol\":12479:12495  table.players[i] */\n      swap4\n      dup7\n      tag_8\n      jump\t// in\n    tag_536:\n      pop\n        /* \"contracts/poker.sol\":12479:12502  table.players[i].inHand */\n      add\n        /* \"contracts/poker.sol\":729:25810  contract TexasHoldem {... */\n      dup1\n      sload\n      not(0xff)\n      and\n      swap1\n      sstore\n        /* \"contracts/poker.sol\":12214:12525  if (table.players[i].chips > 0) {... */\n      jump(tag_534)\n        /* \"contracts/poker.sol\":12169:12193  i < table.players.length */\n    tag_521:\n      pop\n      swap2\n      swap1\n        /* \"contracts/poker.sol\":12596:12606  table.pots */\n      0x0f\n      dup3\n      add\n        /* \"contracts/poker.sol\":729:25810  contract TexasHoldem {... */\n      dup1\n      sload\n      swap1\n        /* \"contracts/poker.sol\":12126:12132  tables */\n      0x00\n        /* \"contracts/poker.sol\":729:25810  contract TexasHoldem {... */\n      dup2\n      sstore\n      dup2\n      tag_537\n      jumpi\n        /* \"contracts/poker.sol\":12152:12535  for (uint i = 0; i < table.players.length; i++) {... */\n    tag_538:\n        /* \"contracts/poker.sol\":12657:12674  table.dealerIndex */\n      pop\n      pop\n        /* \"contracts/poker.sol\":729:25810  contract TexasHoldem {... */\n      0xff\n        /* \"contracts/poker.sol\":12657:12674  table.dealerIndex */\n      dup1\n        /* \"contracts/poker.sol\":12656:12702  (table.dealerIndex + 1) % table.players.length */\n      tag_539\n        /* \"contracts/poker.sol\":12657:12674  table.dealerIndex */\n      0x06\n      dup6\n      swap7\n      swap6\n      add\n        /* \"contracts/poker.sol\":729:25810  contract TexasHoldem {... */\n      swap4\n      dup3\n        /* \"contracts/poker.sol\":12657:12678  table.dealerIndex + 1 */\n      tag_540\n        /* \"contracts/poker.sol\":729:25810  contract TexasHoldem {... */\n      dup2\n      dup8\n      sload\n      and\n        /* \"contracts/poker.sol\":12657:12678  table.dealerIndex + 1 */\n      tag_31\n      jump\t// in\n    tag_540:\n        /* \"contracts/poker.sol\":729:25810  contract TexasHoldem {... */\n      swap2\n      sload\n      swap2\n      and\n        /* \"contracts/poker.sol\":12656:12702  (table.dealerIndex + 1) % table.players.length */\n      tag_32\n      jump\t// in\n    tag_539:\n        /* \"contracts/poker.sol\":729:25810  contract TexasHoldem {... */\n      and\n      and\n      not(0xff)\n      dup3\n      sload\n      and\n      or\n      swap1\n      sstore\n        /* \"contracts/poker.sol\":13101:13116  tables[tableId] */\n      tag_541\n      dup2\n      tag_5\n      jump\t// in\n    tag_541:\n      pop\n        /* \"contracts/poker.sol\":13171:13181  table.deck */\n      0x08\n      dup2\n      add\n        /* \"contracts/poker.sol\":12126:12132  tables */\n      0x00\n        /* \"contracts/poker.sol\":13144:13150  i < 52 */\n    tag_542:\n        /* \"contracts/poker.sol\":13148:13150  52 */\n      0x34\n        /* \"contracts/poker.sol\":729:25810  contract TexasHoldem {... */\n      0xff\n      dup3\n      and\n        /* \"contracts/poker.sol\":13144:13150  i < 52 */\n      lt\n      tag_543\n      jumpi\n        /* \"contracts/poker.sol\":729:25810  contract TexasHoldem {... */\n      pop\n      mload(0x40)\n        /* \"contracts/poker.sol\":13295:13469  abi.encodePacked(... */\n      0x20\n      dup2\n      add\n        /* \"contracts/poker.sol\":13333:13348  block.timestamp */\n      swap1\n      timestamp\n        /* \"contracts/poker.sol\":729:25810  contract TexasHoldem {... */\n      dup3\n      mstore\n        /* \"contracts/poker.sol\":13370:13386  block.prevrandao */\n      prevrandao\n        /* \"contracts/poker.sol\":729:25810  contract TexasHoldem {... */\n      0x40\n      dup3\n      add\n      mstore\n        /* \"contracts/poker.sol\":13441:13451  msg.sender */\n      caller\n        /* \"contracts/poker.sol\":729:25810  contract TexasHoldem {... */\n      0x60\n      shl\n      0x60\n      dup3\n      add\n      mstore\n        /* \"contracts/poker.sol\":13295:13469  abi.encodePacked(... */\n      0x54\n      dup2\n      mstore\n      tag_545\n      0x74\n      dup3\n      tag_18\n      jump\t// in\n    tag_545:\n        /* \"contracts/poker.sol\":729:25810  contract TexasHoldem {... */\n      mload\n        /* \"contracts/poker.sol\":13268:13483  keccak256(... */\n      swap1\n      keccak256\n        /* \"contracts/poker.sol\":12126:12132  tables */\n      0x00\n        /* \"contracts/poker.sol\":13520:13526  i < 52 */\n    tag_546:\n        /* \"contracts/poker.sol\":13148:13150  52 */\n      0x34\n        /* \"contracts/poker.sol\":13520:13526  i < 52 */\n      dup2\n      lt\n      tag_547\n      jumpi\n      pop\n      pop\n      pop\n        /* \"contracts/poker.sol\":13674:13689  table.deckIndex */\n      0x0a\n      add\n        /* \"contracts/poker.sol\":729:25810  contract TexasHoldem {... */\n      dup1\n      sload\n      not(0xff)\n      and\n      swap1\n      sstore\n        /* \"contracts/poker.sol\":14515:14584  table.actionIndex = uint8((bigBlindIndex + 1) % table.players.length) */\n      tag_549\n        /* \"contracts/poker.sol\":13782:13797  tables[tableId] */\n      tag_550\n      dup3\n      tag_5\n      jump\t// in\n    tag_550:\n        /* \"contracts/poker.sol\":13875:13892  table.dealerIndex */\n      pop\n        /* \"contracts/poker.sol\":729:25810  contract TexasHoldem {... */\n      0xff\n        /* \"contracts/poker.sol\":14541:14583  (bigBlindIndex + 1) % table.players.length */\n      tag_551\n        /* \"contracts/poker.sol\":12657:12674  table.dealerIndex */\n      0x06\n        /* \"contracts/poker.sol\":13875:13892  table.dealerIndex */\n      dup4\n      add\n        /* \"contracts/poker.sol\":729:25810  contract TexasHoldem {... */\n      swap3\n      dup3\n        /* \"contracts/poker.sol\":14542:14559  bigBlindIndex + 1 */\n      tag_540\n        /* \"contracts/poker.sol\":13875:13896  table.dealerIndex + 1 */\n      tag_553\n        /* \"contracts/poker.sol\":729:25810  contract TexasHoldem {... */\n      dup3\n      dup8\n      sload\n      and\n        /* \"contracts/poker.sol\":13875:13896  table.dealerIndex + 1 */\n      tag_31\n      jump\t// in\n    tag_553:\n        /* \"contracts/poker.sol\":13900:13913  table.players */\n      swap3\n      dup3\n        /* \"contracts/poker.sol\":14231:14275  (smallBlindIndex + 1) % table.players.length */\n      tag_554\n        /* \"contracts/poker.sol\":14232:14251  smallBlindIndex + 1 */\n      tag_555\n        /* \"contracts/poker.sol\":13900:13913  table.players */\n      dup3\n        /* \"contracts/poker.sol\":13874:13920  (table.dealerIndex + 1) % table.players.length */\n      tag_556\n        /* \"contracts/poker.sol\":12173:12186  table.players */\n      0x07\n        /* \"contracts/poker.sol\":13900:13913  table.players */\n      dup7\n      add\n        /* \"contracts/poker.sol\":729:25810  contract TexasHoldem {... */\n      swap9\n      dup3\n      dup11\n      sload\n      swap2\n      and\n        /* \"contracts/poker.sol\":13874:13920  (table.dealerIndex + 1) % table.players.length */\n      tag_32\n      jump\t// in\n    tag_556:\n        /* \"contracts/poker.sol\":729:25810  contract TexasHoldem {... */\n      and\n        /* \"contracts/poker.sol\":13977:13993  table.smallBlind */\n      0x04\n      dup6\n      add\n        /* \"contracts/poker.sol\":729:25810  contract TexasHoldem {... */\n      sload\n        /* \"contracts/poker.sol\":13940:13970  table.players[smallBlindIndex] */\n      dup1\n        /* \"contracts/poker.sol\":13940:13974  table.players[smallBlindIndex].bet */\n      0x02\n        /* \"contracts/poker.sol\":13940:13970  table.players[smallBlindIndex] */\n      tag_557\n      dup5\n      dup13\n      tag_8\n      jump\t// in\n    tag_557:\n        /* \"contracts/poker.sol\":13940:13974  table.players[smallBlindIndex].bet */\n      pop\n      add\n        /* \"contracts/poker.sol\":729:25810  contract TexasHoldem {... */\n      sstore\n        /* \"contracts/poker.sol\":14003:14059  table.players[smallBlindIndex].chips -= table.smallBlind */\n      tag_558\n        /* \"contracts/poker.sol\":729:25810  contract TexasHoldem {... */\n      0x01\n        /* \"contracts/poker.sol\":14003:14033  table.players[smallBlindIndex] */\n      tag_559\n      dup5\n      dup13\n      tag_8\n      jump\t// in\n    tag_559:\n        /* \"contracts/poker.sol\":14003:14039  table.players[smallBlindIndex].chips */\n      pop\n      add\n        /* \"contracts/poker.sol\":729:25810  contract TexasHoldem {... */\n      swap2\n      dup3\n      sload\n        /* \"contracts/poker.sol\":14003:14059  table.players[smallBlindIndex].chips -= table.smallBlind */\n      tag_9\n      jump\t// in\n    tag_558:\n        /* \"contracts/poker.sol\":729:25810  contract TexasHoldem {... */\n      swap1\n      sstore\n        /* \"contracts/poker.sol\":13977:13993  table.smallBlind */\n      0x04\n        /* \"contracts/poker.sol\":14069:14099  table.players[smallBlindIndex] */\n      tag_560\n      dup3\n      dup11\n      tag_8\n      jump\t// in\n    tag_560:\n      pop\n        /* \"contracts/poker.sol\":14069:14108  table.players[smallBlindIndex].hasActed */\n      add\n        /* \"contracts/poker.sol\":729:25810  contract TexasHoldem {... */\n      dup1\n      sload\n      not(0xff00)\n      and\n      swap1\n      sstore\n        /* \"contracts/poker.sol\":14232:14251  smallBlindIndex + 1 */\n      tag_31\n      jump\t// in\n    tag_555:\n        /* \"contracts/poker.sol\":729:25810  contract TexasHoldem {... */\n      dup3\n      dup8\n      sload\n      swap2\n      and\n        /* \"contracts/poker.sol\":14231:14275  (smallBlindIndex + 1) % table.players.length */\n      tag_32\n      jump\t// in\n    tag_554:\n        /* \"contracts/poker.sol\":729:25810  contract TexasHoldem {... */\n      and\n        /* \"contracts/poker.sol\":14330:14344  table.bigBlind */\n      swap1\n        /* \"contracts/poker.sol\":14472:14488  table.currentBet */\n      0x0d\n        /* \"contracts/poker.sol\":14330:14344  table.bigBlind */\n      0x05\n      dup3\n      add\n        /* \"contracts/poker.sol\":729:25810  contract TexasHoldem {... */\n      dup1\n      sload\n        /* \"contracts/poker.sol\":14295:14323  table.players[bigBlindIndex] */\n      dup1\n        /* \"contracts/poker.sol\":13940:13974  table.players[smallBlindIndex].bet */\n      0x02\n        /* \"contracts/poker.sol\":14295:14323  table.players[bigBlindIndex] */\n      tag_561\n      dup8\n      dup12\n      tag_8\n      jump\t// in\n    tag_561:\n        /* \"contracts/poker.sol\":14295:14327  table.players[bigBlindIndex].bet */\n      pop\n      add\n        /* \"contracts/poker.sol\":729:25810  contract TexasHoldem {... */\n      sstore\n        /* \"contracts/poker.sol\":14354:14406  table.players[bigBlindIndex].chips -= table.bigBlind */\n      tag_562\n        /* \"contracts/poker.sol\":729:25810  contract TexasHoldem {... */\n      0x01\n        /* \"contracts/poker.sol\":14354:14382  table.players[bigBlindIndex] */\n      tag_559\n      dup8\n      dup12\n      tag_8\n      jump\t// in\n        /* \"contracts/poker.sol\":14354:14406  table.players[bigBlindIndex].chips -= table.bigBlind */\n    tag_562:\n        /* \"contracts/poker.sol\":729:25810  contract TexasHoldem {... */\n      swap1\n      sstore\n        /* \"contracts/poker.sol\":13977:13993  table.smallBlind */\n      0x04\n        /* \"contracts/poker.sol\":14416:14444  table.players[bigBlindIndex] */\n      tag_564\n      dup6\n      dup10\n      tag_8\n      jump\t// in\n    tag_564:\n      pop\n        /* \"contracts/poker.sol\":14416:14453  table.players[bigBlindIndex].hasActed */\n      add\n        /* \"contracts/poker.sol\":729:25810  contract TexasHoldem {... */\n      dup1\n      sload\n      not(0xff00)\n      and\n      swap1\n      sstore\n      sload\n        /* \"contracts/poker.sol\":14472:14488  table.currentBet */\n      swap2\n      add\n        /* \"contracts/poker.sol\":729:25810  contract TexasHoldem {... */\n      sstore\n        /* \"contracts/poker.sol\":14542:14559  bigBlindIndex + 1 */\n      tag_31\n      jump\t// in\n        /* \"contracts/poker.sol\":14541:14583  (bigBlindIndex + 1) % table.players.length */\n    tag_551:\n        /* \"contracts/poker.sol\":729:25810  contract TexasHoldem {... */\n      dup3\n      sload\n      not(0xff00)\n      and\n      swap2\n      and\n      0x08\n      shl\n      0xff00\n      and\n      or\n      swap1\n      sstore\n      jump\n        /* \"contracts/poker.sol\":14515:14584  table.actionIndex = uint8((bigBlindIndex + 1) % table.players.length) */\n    tag_549:\n        /* \"contracts/poker.sol\":14676:14691  tables[tableId] */\n      tag_565\n      dup2\n      tag_5\n      jump\t// in\n    tag_565:\n      pop\n        /* \"contracts/poker.sol\":12173:12186  table.players */\n      0x07\n        /* \"contracts/poker.sol\":14722:14735  table.players */\n      dup2\n      add\n      swap2\n        /* \"contracts/poker.sol\":12126:12132  tables */\n      0x00\n        /* \"contracts/poker.sol\":14744:14747  i++ */\n    tag_566:\n        /* \"contracts/poker.sol\":729:25810  contract TexasHoldem {... */\n      dup4\n      sload\n        /* \"contracts/poker.sol\":14718:14742  i < table.players.length */\n      dup2\n      lt\n      iszero\n      tag_567\n      jumpi\n        /* \"contracts/poker.sol\":14767:14783  table.players[i] */\n      dup1\n        /* \"contracts/poker.sol\":729:25810  contract TexasHoldem {... */\n      0xff\n        /* \"contracts/poker.sol\":13977:13993  table.smallBlind */\n      0x04\n        /* \"contracts/poker.sol\":14767:14783  table.players[i] */\n      tag_569\n        /* \"contracts/poker.sol\":729:25810  contract TexasHoldem {... */\n      0x01\n        /* \"contracts/poker.sol\":14767:14783  table.players[i] */\n      swap5\n      dup9\n      tag_8\n      jump\t// in\n    tag_569:\n        /* \"contracts/poker.sol\":14767:14790  table.players[i].inHand */\n      pop\n      add\n        /* \"contracts/poker.sol\":729:25810  contract TexasHoldem {... */\n      sload\n      and\n        /* \"contracts/poker.sol\":14763:14965  if (table.players[i].inHand) {... */\n      tag_570\n      jumpi\n        /* \"contracts/poker.sol\":14744:14747  i++ */\n    tag_571:\n        /* \"contracts/poker.sol\":729:25810  contract TexasHoldem {... */\n      add\n        /* \"contracts/poker.sol\":14706:14716  uint i = 0 */\n      jump(tag_566)\n        /* \"contracts/poker.sol\":14763:14965  if (table.players[i].inHand) {... */\n    tag_570:\n        /* \"contracts/poker.sol\":729:25810  contract TexasHoldem {... */\n      0xff\n        /* \"contracts/poker.sol\":14921:14950  table.deck[table.deckIndex++] */\n      tag_572\n        /* \"contracts/poker.sol\":13171:13181  table.deck */\n      0x08\n        /* \"contracts/poker.sol\":14842:14852  table.deck */\n      dup7\n      add\n        /* \"contracts/poker.sol\":13674:13689  table.deckIndex */\n      0x0a\n        /* \"contracts/poker.sol\":14853:14868  table.deckIndex */\n      dup8\n      add\n        /* \"contracts/poker.sol\":729:25810  contract TexasHoldem {... */\n      swap1\n      dup4\n        /* \"contracts/poker.sol\":14842:14871  table.deck[table.deckIndex++] */\n      tag_573\n        /* \"contracts/poker.sol\":729:25810  contract TexasHoldem {... */\n      dup2\n      dup5\n      sload\n      and\n        /* \"contracts/poker.sol\":14853:14870  table.deckIndex++ */\n      dup3\n      tag_574\n      dup3\n      tag_36\n      jump\t// in\n    tag_574:\n        /* \"contracts/poker.sol\":729:25810  contract TexasHoldem {... */\n      and\n      dup4\n      not\n      dup7\n      sload\n      and\n      or\n      dup6\n      sstore\n        /* \"contracts/poker.sol\":14842:14871  table.deck[table.deckIndex++] */\n      dup4\n      tag_35\n      jump\t// in\n    tag_573:\n        /* \"contracts/poker.sol\":729:25810  contract TexasHoldem {... */\n      swap1\n      sload\n      swap1\n      0x03\n      shl\n      shr\n      and\n      0x03\n        /* \"contracts/poker.sol\":14810:14826  table.players[i] */\n      tag_575\n      dup8\n      dup13\n      tag_8\n      jump\t// in\n    tag_575:\n      pop\n        /* \"contracts/poker.sol\":14810:14836  table.players[i].holeCards */\n      add\n        /* \"contracts/poker.sol\":729:25810  contract TexasHoldem {... */\n      dup1\n      sload\n      dup7\n      not\n      and\n      swap2\n      dup7\n      and\n      swap2\n      swap1\n      swap2\n      or\n      swap1\n      sstore\n      dup2\n      sload\n      dup5\n      and\n      swap2\n      dup5\n        /* \"contracts/poker.sol\":14932:14949  table.deckIndex++ */\n      tag_576\n        /* \"contracts/poker.sol\":729:25810  contract TexasHoldem {... */\n      dup5\n        /* \"contracts/poker.sol\":14932:14949  table.deckIndex++ */\n      tag_36\n      jump\t// in\n    tag_576:\n        /* \"contracts/poker.sol\":729:25810  contract TexasHoldem {... */\n      and\n      dup6\n      not\n      dup3\n      sload\n      and\n      or\n      swap1\n      sstore\n        /* \"contracts/poker.sol\":14921:14950  table.deck[table.deckIndex++] */\n      tag_35\n      jump\t// in\n    tag_572:\n        /* \"contracts/poker.sol\":729:25810  contract TexasHoldem {... */\n      swap1\n      sload\n      swap1\n      0x03\n      shl\n      shr\n      and\n      tag_577\n      0x03\n        /* \"contracts/poker.sol\":14889:14905  table.players[i] */\n      tag_578\n      dup5\n      dup10\n      tag_8\n      jump\t// in\n    tag_578:\n        /* \"contracts/poker.sol\":14889:14918  table.players[i].holeCards[1] */\n      pop\n        /* \"contracts/poker.sol\":14889:14915  table.players[i].holeCards */\n      add\n        /* \"contracts/poker.sol\":729:25810  contract TexasHoldem {... */\n      swap2\n      dup5\n      dup4\n      sload\n      swap1\n      0xff\n      dup1\n      swap2\n      0x03\n      shl\n      swap4\n      and\n      dup4\n      shl\n      swap3\n      shl\n      not\n      and\n      or\n      swap1\n      jump\n    tag_577:\n      swap1\n      sstore\n        /* \"contracts/poker.sol\":14763:14965  if (table.players[i].inHand) {... */\n      jump(tag_571)\n        /* \"contracts/poker.sol\":14718:14742  i < table.players.length */\n    tag_567:\n      pop\n      swap3\n      swap1\n      pop\n        /* \"contracts/poker.sol\":12818:12829  table.phase */\n      0x0c\n        /* \"contracts/poker.sol\":14718:14742  i < table.players.length */\n      swap2\n      pop\n        /* \"contracts/poker.sol\":12818:12829  table.phase */\n      add\n        /* \"contracts/poker.sol\":729:25810  contract TexasHoldem {... */\n      0x01\n      not(0xff)\n      dup3\n      sload\n      and\n      or\n      swap1\n      sstore\n      mload(0x00)\n      codecopy(0x00, data_f4757ab01a3c98185065e9d0334826063b79dca553e93f62708b79bdfa8da875, 0x20)\n      mload(0x00)\n      swap1\n      0x00\n      mstore\n        /* \"contracts/poker.sol\":13295:13469  abi.encodePacked(... */\n      0x20\n        /* \"contracts/poker.sol\":729:25810  contract TexasHoldem {... */\n      mload(0x40)\n        /* \"contracts/poker.sol\":12864:12884  HandStarted(tableId) */\n      dup4\n      0x17ef9d3684374ca660f2d6b5a52c09c0c1c6144b13c23ff3681fb0a9ba9fe4c3\n        /* \"contracts/poker.sol\":12126:12132  tables */\n      0x00\n        /* \"contracts/poker.sol\":12864:12884  HandStarted(tableId) */\n      dup1\n      log2\n        /* \"contracts/poker.sol\":729:25810  contract TexasHoldem {... */\n      0x01\n      dup2\n      mstore\n        /* \"contracts/poker.sol\":12899:12939  PhaseChanged(tableId, GamePhase.PreFlop) */\n      log2\n        /* \"contracts/poker.sol\":12048:12946  function _startNewHand(uint tableId) internal {... */\n      jump\t// out\n        /* \"contracts/poker.sol\":13528:13531  i++ */\n    tag_547:\n        /* \"contracts/poker.sol\":13557:13565  seed + i */\n      tag_579\n      dup2\n      dup4\n      swap8\n      swap7\n      swap8\n      tag_10\n      jump\t// in\n    tag_579:\n        /* \"contracts/poker.sol\":729:25810  contract TexasHoldem {... */\n      swap1\n      dup1\n        /* \"contracts/poker.sol\":13148:13150  52 */\n      0x34\n        /* \"contracts/poker.sol\":729:25810  contract TexasHoldem {... */\n      sub\n      swap2\n        /* \"contracts/poker.sol\":13148:13150  52 */\n      0x34\n        /* \"contracts/poker.sol\":729:25810  contract TexasHoldem {... */\n      dup4\n      gt\n      tag_198\n      jumpi\n      0x01\n        /* \"contracts/poker.sol\":13556:13577  (seed + i) % (52 - i) */\n      swap3\n      tag_582\n      swap2\n      tag_32\n      jump\t// in\n    tag_582:\n        /* \"contracts/poker.sol\":729:25810  contract TexasHoldem {... */\n      tag_583\n      0xff\n        /* \"contracts/poker.sol\":13625:13638  table.deck[j] */\n      tag_584\n      dup4\n      dup9\n      tag_35\n      jump\t// in\n    tag_584:\n        /* \"contracts/poker.sol\":729:25810  contract TexasHoldem {... */\n      swap1\n      sload\n      swap1\n      0x03\n      shl\n      shr\n      and\n        /* \"contracts/poker.sol\":13607:13620  table.deck[j] */\n      tag_585\n        /* \"contracts/poker.sol\":729:25810  contract TexasHoldem {... */\n      0xff\n        /* \"contracts/poker.sol\":13640:13653  table.deck[i] */\n      tag_586\n      dup7\n      dup11\n      tag_35\n      jump\t// in\n    tag_586:\n        /* \"contracts/poker.sol\":729:25810  contract TexasHoldem {... */\n      swap1\n      sload\n      swap1\n      0x03\n      shl\n      shr\n      and\n      tag_587\n        /* \"contracts/poker.sol\":13592:13605  table.deck[i] */\n      tag_588\n      dup8\n      dup12\n      tag_35\n      jump\t// in\n    tag_588:\n        /* \"contracts/poker.sol\":13607:13620  table.deck[j] */\n      swap4\n      swap1\n      swap7\n      dup12\n      tag_35\n      jump\t// in\n    tag_585:\n        /* \"contracts/poker.sol\":729:25810  contract TexasHoldem {... */\n      dup2\n      swap4\n      swap2\n      sload\n      swap1\n      0xff\n      dup1\n      swap2\n      0x03\n      shl\n      swap4\n      and\n      dup4\n      shl\n      swap3\n      shl\n      not\n      and\n      or\n      swap1\n      jump\n    tag_587:\n      swap1\n      sstore\n      dup4\n      sload\n      swap1\n      0xff\n      dup1\n      swap2\n      0x03\n      shl\n      swap4\n      and\n      dup4\n      shl\n      swap3\n      shl\n      not\n      and\n      or\n      swap1\n      jump\n    tag_583:\n      swap1\n      sstore\n      add\n        /* \"contracts/poker.sol\":13508:13518  uint i = 0 */\n      swap5\n      swap4\n      swap5\n      jump(tag_546)\n        /* \"contracts/poker.sol\":13152:13155  i++ */\n    tag_543:\n        /* \"contracts/poker.sol\":729:25810  contract TexasHoldem {... */\n      0x01\n        /* \"contracts/poker.sol\":13187:13192  i + 1 */\n      dup2\n      tag_589\n        /* \"contracts/poker.sol\":729:25810  contract TexasHoldem {... */\n      0xff\n        /* \"contracts/poker.sol\":13187:13192  i + 1 */\n      swap4\n      swap8\n      swap7\n      swap8\n      tag_31\n      jump\t// in\n    tag_589:\n        /* \"contracts/poker.sol\":729:25810  contract TexasHoldem {... */\n      tag_590\n        /* \"contracts/poker.sol\":13171:13184  table.deck[i] */\n      dup5\n      tag_591\n      dup5\n      dup9\n      tag_35\n      jump\t// in\n    tag_591:\n        /* \"contracts/poker.sol\":729:25810  contract TexasHoldem {... */\n      swap2\n      swap1\n      swap4\n      and\n      swap1\n      dup4\n      sload\n      swap1\n      0xff\n      dup1\n      swap2\n      0x03\n      shl\n      swap4\n      and\n      dup4\n      shl\n      swap3\n      shl\n      not\n      and\n      or\n      swap1\n      jump\n    tag_590:\n      swap1\n      sstore\n      add\n      and\n        /* \"contracts/poker.sol\":13131:13142  uint8 i = 0 */\n      swap4\n      swap3\n      swap4\n      jump(tag_542)\n        /* \"contracts/poker.sol\":729:25810  contract TexasHoldem {... */\n    tag_537:\n      sub(shl(0xff, 0x01), 0x01)\n      dup3\n      and\n      dup3\n      sub\n      tag_198\n      jumpi\n        /* \"contracts/poker.sol\":12126:12132  tables */\n      0x00\n        /* \"contracts/poker.sol\":729:25810  contract TexasHoldem {... */\n      mstore\n      0x20\n        /* \"contracts/poker.sol\":12126:12132  tables */\n      0x00\n        /* \"contracts/poker.sol\":729:25810  contract TexasHoldem {... */\n      keccak256\n      swap1\n      0x01\n      shl\n      dup2\n      add\n      swap1\n    tag_594:\n      dup2\n      dup2\n      lt\n      iszero\n      tag_538\n      jumpi\n      dup1\n        /* \"contracts/poker.sol\":12126:12132  tables */\n      0x00\n        /* \"contracts/poker.sol\":729:25810  contract TexasHoldem {... */\n      0x02\n      swap3\n      sstore\n      tag_597\n      0x01\n      dup3\n      add\n      tag_28\n      jump\t// in\n    tag_597:\n      add\n      jump(tag_594)\n        /* \"contracts/poker.sol\":15669:16346  function _advanceAction(uint tableId) internal {... */\n    tag_34:\n        /* \"contracts/poker.sol\":15748:15763  tables[tableId] */\n      tag_598\n      dup2\n      tag_5\n      jump\t// in\n    tag_598:\n        /* \"contracts/poker.sol\":15773:15786  table.players */\n      pop\n        /* \"contracts/poker.sol\":15787:15804  table.actionIndex */\n      0x06\n        /* \"contracts/poker.sol\":15773:15786  table.players */\n      0x07\n      dup3\n      add\n        /* \"contracts/poker.sol\":15787:15804  table.actionIndex */\n      swap2\n      add\n        /* \"contracts/poker.sol\":15773:15814  table.players[table.actionIndex].hasActed */\n      0x04\n        /* \"contracts/poker.sol\":15773:15805  table.players[table.actionIndex] */\n      tag_599\n        /* \"contracts/poker.sol\":729:25810  contract TexasHoldem {... */\n      0xff\n      dup4\n      sload\n      0x08\n      shr\n      and\n        /* \"contracts/poker.sol\":15773:15805  table.players[table.actionIndex] */\n      dup5\n      tag_8\n      jump\t// in\n    tag_599:\n        /* \"contracts/poker.sol\":15773:15814  table.players[table.actionIndex].hasActed */\n      pop\n      add\n        /* \"contracts/poker.sol\":729:25810  contract TexasHoldem {... */\n      0x0100\n      not(0xff00)\n      dup3\n      sload\n      and\n      or\n      swap1\n      sstore\n        /* \"contracts/poker.sol\":15831:15863  table.players[table.actionIndex] */\n      tag_600\n        /* \"contracts/poker.sol\":729:25810  contract TexasHoldem {... */\n      0xff\n      dup3\n      sload\n      0x08\n      shr\n      and\n        /* \"contracts/poker.sol\":15831:15863  table.players[table.actionIndex] */\n      dup4\n      tag_8\n      jump\t// in\n    tag_600:\n        /* \"contracts/poker.sol\":15886:15901  block.timestamp */\n      pop\n        /* \"contracts/poker.sol\":15831:15883  table.players[table.actionIndex].lastActionTimestamp */\n      0x05\n        /* \"contracts/poker.sol\":15886:15901  block.timestamp */\n      timestamp\n        /* \"contracts/poker.sol\":15831:15883  table.players[table.actionIndex].lastActionTimestamp */\n      swap2\n      add\n        /* \"contracts/poker.sol\":729:25810  contract TexasHoldem {... */\n      sstore\n        /* \"contracts/poker.sol\":15916:15944  _isBettingRoundOver(tableId) */\n      tag_601\n      dup4\n      tag_37\n      jump\t// in\n    tag_601:\n      iszero\n      tag_602\n      jumpi\n        /* \"contracts/poker.sol\":18089:18104  tables[tableId] */\n      pop\n      pop\n      tag_604\n      dup2\n      tag_5\n      jump\t// in\n    tag_604:\n        /* \"contracts/poker.sol\":18115:18132  uint totalPot = 0 */\n      pop\n      swap2\n        /* \"contracts/poker.sol\":15748:15754  tables */\n      0x00\n        /* \"contracts/poker.sol\":18147:18157  uint i = 0 */\n      swap1\n        /* \"contracts/poker.sol\":15748:15754  tables */\n      0x00\n        /* \"contracts/poker.sol\":18163:18176  table.players */\n      swap4\n        /* \"contracts/poker.sol\":15773:15786  table.players */\n      0x07\n        /* \"contracts/poker.sol\":18163:18176  table.players */\n      dup2\n      add\n        /* \"contracts/poker.sol\":729:25810  contract TexasHoldem {... */\n      swap5\n      dup6\n      sload\n        /* \"contracts/poker.sol\":18159:18183  i < table.players.length */\n    tag_605:\n      dup1\n      dup3\n      lt\n      tag_606\n      jumpi\n        /* \"contracts/poker.sol\":18257:18267  table.pots */\n      pop\n      pop\n      0x0f\n      add\n        /* \"contracts/poker.sol\":729:25810  contract TexasHoldem {... */\n      swap2\n        /* \"contracts/poker.sol\":15748:15754  tables */\n      0x00\n        /* \"contracts/poker.sol\":729:25810  contract TexasHoldem {... */\n      0x80\n      mstore\n      mstore(0x80, 0x20)\n      mload(0x40)\n      tag_608\n      mload(0x80)\n      dup3\n      tag_18\n      jump\t// in\n    tag_608:\n        /* \"contracts/poker.sol\":15748:15754  tables */\n      0x00\n        /* \"contracts/poker.sol\":729:25810  contract TexasHoldem {... */\n      dup1\n      dup3\n      mstore\n      calldatasize\n        /* \"contracts/poker.sol\":15748:15754  tables */\n      dup2\n        /* \"contracts/poker.sol\":729:25810  contract TexasHoldem {... */\n      calldatacopy\n      mload(0x40)\n      swap2\n      tag_609\n      dup4\n      tag_15\n      jump\t// in\n    tag_609:\n      dup3\n      mstore\n      mload(0x80)\n        /* \"contracts/poker.sol\":18286:18342  Pot({size: totalPot, eligiblePlayers: new address[](0)}) */\n      dup3\n      add\n        /* \"contracts/poker.sol\":729:25810  contract TexasHoldem {... */\n      mstore\n      dup3\n      sload\n      swap1\n      shl(0x40, 0x01)\n      dup3\n      lt\n      iszero\n      tag_188\n      jumpi\n        /* \"contracts/poker.sol\":15817:15821  true */\n      0x01\n        /* \"contracts/poker.sol\":729:25810  contract TexasHoldem {... */\n      dup3\n      add\n      dup1\n      dup6\n      sstore\n      dup3\n      lt\n      iszero\n      tag_448\n      jumpi\n      tag_614\n      swap2\n      dup5\n        /* \"contracts/poker.sol\":15748:15754  tables */\n      0x00\n        /* \"contracts/poker.sol\":729:25810  contract TexasHoldem {... */\n      mstore\n      mload(0x80)\n        /* \"contracts/poker.sol\":15748:15754  tables */\n      0x00\n        /* \"contracts/poker.sol\":729:25810  contract TexasHoldem {... */\n      keccak256\n      swap1\n        /* \"contracts/poker.sol\":15817:15821  true */\n      0x01\n        /* \"contracts/poker.sol\":729:25810  contract TexasHoldem {... */\n      shl\n      add\n      tag_29\n      jump\t// in\n    tag_614:\n      0x00\n        /* \"contracts/poker.sol\":18406:18409  i++ */\n    tag_615:\n        /* \"contracts/poker.sol\":729:25810  contract TexasHoldem {... */\n      dup5\n      sload\n        /* \"contracts/poker.sol\":18380:18404  i < table.players.length */\n      dup2\n      lt\n      iszero\n      tag_616\n      jumpi\n        /* \"contracts/poker.sol\":729:25810  contract TexasHoldem {... */\n      0xff\n        /* \"contracts/poker.sol\":15773:15814  table.players[table.actionIndex].hasActed */\n      0x04\n        /* \"contracts/poker.sol\":18429:18445  table.players[i] */\n      tag_618\n      dup4\n      dup9\n      tag_8\n      jump\t// in\n    tag_618:\n        /* \"contracts/poker.sol\":18429:18452  table.players[i].inHand */\n      pop\n      add\n        /* \"contracts/poker.sol\":729:25810  contract TexasHoldem {... */\n      sload\n      and\n        /* \"contracts/poker.sol\":18425:18544  if (table.players[i].inHand) {... */\n      tag_619\n      jumpi\n        /* \"contracts/poker.sol\":18406:18409  i++ */\n    tag_620:\n        /* \"contracts/poker.sol\":15817:15821  true */\n      0x01\n        /* \"contracts/poker.sol\":729:25810  contract TexasHoldem {... */\n      add\n        /* \"contracts/poker.sol\":18368:18378  uint i = 0 */\n      jump(tag_615)\n        /* \"contracts/poker.sol\":18425:18544  if (table.players[i].inHand) {... */\n    tag_619:\n        /* \"contracts/poker.sol\":15817:15821  true */\n      0x01\n        /* \"contracts/poker.sol\":18472:18485  table.pots[0] */\n      tag_621\n      dup5\n      tag_39\n      jump\t// in\n    tag_621:\n        /* \"contracts/poker.sol\":18472:18501  table.pots[0].eligiblePlayers */\n      pop\n      add\n        /* \"contracts/poker.sol\":18507:18523  table.players[i] */\n      swap1\n      tag_622\n      dup2\n      dup8\n      tag_8\n      jump\t// in\n    tag_622:\n      pop\n        /* \"contracts/poker.sol\":729:25810  contract TexasHoldem {... */\n      sload\n      dup3\n      sload\n      sub(shl(0xa0, 0x01), 0x01)\n      swap1\n      swap2\n      and\n      swap1\n      shl(0x40, 0x01)\n      dup2\n      lt\n      iszero\n      tag_188\n      jumpi\n        /* \"contracts/poker.sol\":15817:15821  true */\n      0x01\n        /* \"contracts/poker.sol\":729:25810  contract TexasHoldem {... */\n      dup2\n      add\n      dup1\n      dup6\n      sstore\n      dup2\n      lt\n      iszero\n      tag_448\n      jumpi\n        /* \"contracts/poker.sol\":15817:15821  true */\n      0x01\n        /* \"contracts/poker.sol\":729:25810  contract TexasHoldem {... */\n      swap4\n      0x00\n      mstore\n      keccak256(0x00, mload(0x80))\n      add\n      swap1\n      shl(0xa0, 0xffffffffffffffffffffffff)\n      dup3\n      sload\n      and\n      or\n      swap1\n      sstore\n        /* \"contracts/poker.sol\":18425:18544  if (table.players[i].inHand) {... */\n      swap1\n      pop\n      jump(tag_620)\n        /* \"contracts/poker.sol\":18380:18404  i < table.players.length */\n    tag_616:\n      pop\n      swap2\n      swap3\n      pop\n      pop\n        /* \"contracts/poker.sol\":17024:17039  tables[tableId] */\n      tag_627\n      dup3\n      tag_5\n      jump\t// in\n    tag_627:\n        /* \"contracts/poker.sol\":17055:17065  uint i = 0 */\n      pop\n      swap1\n      0x00\n        /* \"contracts/poker.sol\":17071:17084  table.players */\n      swap3\n        /* \"contracts/poker.sol\":15773:15786  table.players */\n      0x07\n        /* \"contracts/poker.sol\":17071:17084  table.players */\n      dup4\n      add\n        /* \"contracts/poker.sol\":17050:17194  for (uint i = 0; i < table.players.length; i++) {... */\n      swap4\n        /* \"contracts/poker.sol\":17093:17096  i++ */\n    tag_628:\n        /* \"contracts/poker.sol\":729:25810  contract TexasHoldem {... */\n      dup5\n      sload\n        /* \"contracts/poker.sol\":17067:17091  i < table.players.length */\n      dup2\n      lt\n      iszero\n      tag_629\n      jumpi\n        /* \"contracts/poker.sol\":17112:17128  table.players[i] */\n      dup1\n      0x00\n        /* \"contracts/poker.sol\":18216:18236  table.players[i].bet */\n      0x02\n        /* \"contracts/poker.sol\":17112:17128  table.players[i] */\n      tag_631\n        /* \"contracts/poker.sol\":15817:15821  true */\n      0x01\n        /* \"contracts/poker.sol\":17112:17128  table.players[i] */\n      swap5\n      dup10\n      tag_8\n      jump\t// in\n    tag_631:\n        /* \"contracts/poker.sol\":17112:17132  table.players[i].bet */\n      pop\n      add\n        /* \"contracts/poker.sol\":729:25810  contract TexasHoldem {... */\n      sstore\n        /* \"contracts/poker.sol\":15773:15814  table.players[table.actionIndex].hasActed */\n      0x04\n        /* \"contracts/poker.sol\":17150:17166  table.players[i] */\n      tag_632\n      dup3\n      dup9\n      tag_8\n      jump\t// in\n    tag_632:\n      pop\n        /* \"contracts/poker.sol\":17150:17175  table.players[i].hasActed */\n      add\n        /* \"contracts/poker.sol\":729:25810  contract TexasHoldem {... */\n      dup1\n      sload\n      not(0xff00)\n      and\n      swap1\n      sstore\n      add\n        /* \"contracts/poker.sol\":17055:17065  uint i = 0 */\n      jump(tag_628)\n        /* \"contracts/poker.sol\":17067:17091  i < table.players.length */\n    tag_629:\n      pop\n      swap2\n      swap1\n      swap3\n      pop\n      0x00\n        /* \"contracts/poker.sol\":17203:17219  table.currentBet */\n      0x0d\n      dup3\n      add\n        /* \"contracts/poker.sol\":729:25810  contract TexasHoldem {... */\n      sstore\n        /* \"contracts/poker.sol\":15831:15883  table.players[table.actionIndex].lastActionTimestamp */\n      0x05\n        /* \"contracts/poker.sol\":17250:17264  table.bigBlind */\n      dup2\n      add\n        /* \"contracts/poker.sol\":729:25810  contract TexasHoldem {... */\n      sload\n        /* \"contracts/poker.sol\":17233:17247  table.minRaise */\n      0x0e\n      dup3\n      add\n        /* \"contracts/poker.sol\":729:25810  contract TexasHoldem {... */\n      sstore\n      0xff\n        /* \"contracts/poker.sol\":17279:17290  table.phase */\n      0x0c\n      dup3\n      add\n        /* \"contracts/poker.sol\":729:25810  contract TexasHoldem {... */\n      sload\n      and\n        /* \"contracts/poker.sol\":15787:15804  table.actionIndex */\n      0x06\n        /* \"contracts/poker.sol\":729:25810  contract TexasHoldem {... */\n      dup2\n      lt\n      iszero\n      tag_91\n      jumpi\n        /* \"contracts/poker.sol\":15817:15821  true */\n      0x01\n        /* \"contracts/poker.sol\":17279:17311  table.phase == GamePhase.PreFlop */\n      dup2\n      sub\n        /* \"contracts/poker.sol\":15817:15821  true */\n      tag_635\n      jumpi\n        /* \"contracts/poker.sol\":729:25810  contract TexasHoldem {... */\n      pop\n      0xff\n        /* \"contracts/poker.sol\":17279:17290  table.phase */\n      0x0c\n      mload(0x00)\n      codecopy(0x00, data_f4757ab01a3c98185065e9d0334826063b79dca553e93f62708b79bdfa8da875, 0x20)\n      mload(0x00)\n      swap1\n      0x00\n      mstore\n        /* \"contracts/poker.sol\":729:25810  contract TexasHoldem {... */\n      swap3\n        /* \"contracts/poker.sol\":18216:18236  table.players[i].bet */\n      0x02\n        /* \"contracts/poker.sol\":729:25810  contract TexasHoldem {... */\n      dup4\n      not\n        /* \"contracts/poker.sol\":17279:17290  table.phase */\n      dup4\n      dup4\n      add\n        /* \"contracts/poker.sol\":729:25810  contract TexasHoldem {... */\n      sload\n      and\n      or\n        /* \"contracts/poker.sol\":17279:17290  table.phase */\n      dup3\n      dup3\n      add\n        /* \"contracts/poker.sol\":729:25810  contract TexasHoldem {... */\n      sstore\n        /* \"contracts/poker.sol\":17389:17396  tableId */\n      tag_637\n      dup6\n      tag_47\n      jump\t// in\n    tag_637:\n        /* \"contracts/poker.sol\":17279:17290  table.phase */\n      add\n        /* \"contracts/poker.sol\":729:25810  contract TexasHoldem {... */\n      sload\n      and\n      tag_639\n      mload(0x40)\n      dup1\n      swap3\n      tag_4\n      jump\t// in\n    tag_639:\n      mload(0x80)\n        /* \"contracts/poker.sol\":17834:17868  PhaseChanged(tableId, table.phase) */\n      swap1\n      log2\n        /* \"contracts/poker.sol\":15669:16346  function _advanceAction(uint tableId) internal {... */\n      jump\t// out\n        /* \"contracts/poker.sol\":17275:17819  if (table.phase == GamePhase.PreFlop) {... */\n    tag_635:\n        /* \"contracts/poker.sol\":18216:18236  table.players[i].bet */\n      0x02\n        /* \"contracts/poker.sol\":17418:17447  table.phase == GamePhase.Flop */\n      dup2\n      sub\n        /* \"contracts/poker.sol\":18216:18236  table.players[i].bet */\n      tag_641\n      jumpi\n        /* \"contracts/poker.sol\":729:25810  contract TexasHoldem {... */\n      pop\n      0xff\n        /* \"contracts/poker.sol\":17279:17290  table.phase */\n      0x0c\n      mload(0x00)\n      codecopy(0x00, data_f4757ab01a3c98185065e9d0334826063b79dca553e93f62708b79bdfa8da875, 0x20)\n      mload(0x00)\n      swap1\n      0x00\n      mstore\n        /* \"contracts/poker.sol\":729:25810  contract TexasHoldem {... */\n      swap3\n        /* \"contracts/poker.sol\":17477:17491  GamePhase.Turn */\n      0x03\n        /* \"contracts/poker.sol\":729:25810  contract TexasHoldem {... */\n      dup4\n      not\n        /* \"contracts/poker.sol\":17279:17290  table.phase */\n      dup4\n      dup4\n      add\n        /* \"contracts/poker.sol\":729:25810  contract TexasHoldem {... */\n      sload\n      and\n      or\n        /* \"contracts/poker.sol\":17279:17290  table.phase */\n      dup3\n      dup3\n      add\n        /* \"contracts/poker.sol\":729:25810  contract TexasHoldem {... */\n      sstore\n        /* \"contracts/poker.sol\":17525:17532  tableId */\n      tag_643\n      dup6\n      tag_47\n      jump\t// in\n    tag_643:\n        /* \"contracts/poker.sol\":17275:17819  if (table.phase == GamePhase.PreFlop) {... */\n      jump(tag_637)\n        /* \"contracts/poker.sol\":17414:17819  if (table.phase == GamePhase.Flop) {... */\n    tag_641:\n        /* \"contracts/poker.sol\":17569:17583  GamePhase.Turn */\n      0x03\n        /* \"contracts/poker.sol\":17554:17583  table.phase == GamePhase.Turn */\n      dup2\n      sub\n        /* \"contracts/poker.sol\":17569:17583  GamePhase.Turn */\n      tag_645\n      jumpi\n        /* \"contracts/poker.sol\":729:25810  contract TexasHoldem {... */\n      pop\n      0xff\n        /* \"contracts/poker.sol\":17279:17290  table.phase */\n      0x0c\n      mload(0x00)\n      codecopy(0x00, data_f4757ab01a3c98185065e9d0334826063b79dca553e93f62708b79bdfa8da875, 0x20)\n      mload(0x00)\n      swap1\n      0x00\n      mstore\n        /* \"contracts/poker.sol\":729:25810  contract TexasHoldem {... */\n      swap3\n        /* \"contracts/poker.sol\":15773:15814  table.players[table.actionIndex].hasActed */\n      0x04\n        /* \"contracts/poker.sol\":729:25810  contract TexasHoldem {... */\n      dup4\n      not\n        /* \"contracts/poker.sol\":17279:17290  table.phase */\n      dup4\n      dup4\n      add\n        /* \"contracts/poker.sol\":729:25810  contract TexasHoldem {... */\n      sload\n      and\n      or\n        /* \"contracts/poker.sol\":17279:17290  table.phase */\n      dup3\n      dup3\n      add\n        /* \"contracts/poker.sol\":729:25810  contract TexasHoldem {... */\n      sstore\n        /* \"contracts/poker.sol\":17662:17669  tableId */\n      tag_643\n      dup6\n      tag_47\n      jump\t// in\n        /* \"contracts/poker.sol\":17550:17819  if (table.phase == GamePhase.Turn) {... */\n    tag_645:\n        /* \"contracts/poker.sol\":15773:15814  table.players[table.actionIndex].hasActed */\n      0x04\n        /* \"contracts/poker.sol\":17691:17721  table.phase == GamePhase.River */\n      eq\n        /* \"contracts/poker.sol\":17687:17819  if (table.phase == GamePhase.River) {... */\n      tag_649\n      jumpi\n        /* \"contracts/poker.sol\":17550:17819  if (table.phase == GamePhase.Turn) {... */\n    tag_650:\n        /* \"contracts/poker.sol\":729:25810  contract TexasHoldem {... */\n      0xff\n        /* \"contracts/poker.sol\":17279:17290  table.phase */\n      0x0c\n      mload(0x00)\n      codecopy(0x00, data_f4757ab01a3c98185065e9d0334826063b79dca553e93f62708b79bdfa8da875, 0x20)\n      mload(0x00)\n      swap1\n      0x00\n      mstore\n        /* \"contracts/poker.sol\":17550:17819  if (table.phase == GamePhase.Turn) {... */\n      swap3\n        /* \"contracts/poker.sol\":17275:17819  if (table.phase == GamePhase.PreFlop) {... */\n      jump(tag_637)\n        /* \"contracts/poker.sol\":17687:17819  if (table.phase == GamePhase.River) {... */\n    tag_649:\n        /* \"contracts/poker.sol\":17279:17290  table.phase */\n      0x0c\n      dup2\n      add\n        /* \"contracts/poker.sol\":729:25810  contract TexasHoldem {... */\n      dup1\n      sload\n      not(0xff)\n      and\n        /* \"contracts/poker.sol\":15831:15883  table.players[table.actionIndex].lastActionTimestamp */\n      0x05\n        /* \"contracts/poker.sol\":729:25810  contract TexasHoldem {... */\n      or\n      swap1\n      sstore\n        /* \"contracts/poker.sol\":18647:18662  tables[tableId] */\n      tag_651\n      dup3\n      tag_5\n      jump\t// in\n    tag_651:\n      pop\n        /* \"contracts/poker.sol\":729:25810  contract TexasHoldem {... */\n      mload(0x40)\n      0x0140\n      tag_652\n      dup2\n      dup4\n      tag_18\n      jump\t// in\n    tag_652:\n        /* \"contracts/poker.sol\":2386:2387  9 */\n      0x09\n        /* \"contracts/poker.sol\":729:25810  contract TexasHoldem {... */\n      dup3\n      mstore\n      not(0x1f)\n      add\n      calldatasize\n      mload(0x80)\n      dup4\n      add\n      calldatacopy\n      0x00\n      tag_653\n      tag_26\n      jump\t// in\n    tag_653:\n        /* \"contracts/poker.sol\":18837:18847  uint i = 0 */\n      swap3\n      0x00\n        /* \"contracts/poker.sol\":18853:18866  table.players */\n      swap4\n        /* \"contracts/poker.sol\":15773:15786  table.players */\n      0x07\n        /* \"contracts/poker.sol\":18853:18866  table.players */\n      dup3\n      add\n        /* \"contracts/poker.sol\":729:25810  contract TexasHoldem {... */\n      swap5\n      dup6\n      sload\n        /* \"contracts/poker.sol\":18832:20110  for (uint i = 0; i < table.players.length; i++) {... */\n      swap1\n        /* \"contracts/poker.sol\":18849:18873  i < table.players.length */\n    tag_654:\n      dup2\n      dup2\n      lt\n      tag_655\n      jumpi\n        /* \"contracts/poker.sol\":20205:20232  new address[](winningCount) */\n      pop\n      pop\n      pop\n      tag_657\n      dup3\n      tag_38\n      jump\t// in\n    tag_657:\n        /* \"contracts/poker.sol\":20247:20257  uint i = 0 */\n      swap3\n      0x00\n        /* \"contracts/poker.sol\":20259:20275  i < winningCount */\n    tag_658:\n      dup4\n      dup2\n      lt\n      tag_659\n      jumpi\n        /* \"contracts/poker.sol\":20367:20377  table.pots */\n      pop\n      pop\n        /* \"contracts/poker.sol\":18257:18267  table.pots */\n      0x0f\n        /* \"contracts/poker.sol\":20367:20380  table.pots[0] */\n      tag_661\n        /* \"contracts/poker.sol\":20367:20377  table.pots */\n      swap2\n      add\n        /* \"contracts/poker.sol\":20367:20380  table.pots[0] */\n      tag_39\n      jump\t// in\n    tag_661:\n        /* \"contracts/poker.sol\":729:25810  contract TexasHoldem {... */\n      pop\n      sload\n      dup2\n      iszero\n      tag_517\n      jumpi\n      dup2\n      swap1\n      div\n        /* \"contracts/poker.sol\":20453:20463  uint i = 0 */\n      swap3\n      0x00\n        /* \"contracts/poker.sol\":20448:20744  for (uint i = 0; i < winningCount; i++) {... */\n      swap1\n        /* \"contracts/poker.sol\":20465:20481  i < winningCount */\n    tag_664:\n      dup3\n      dup3\n      lt\n      tag_665\n      jumpi\n        /* \"contracts/poker.sol\":729:25810  contract TexasHoldem {... */\n      pop\n      pop\n      pop\n      swap1\n      dup4\n      swap2\n      mload(0x40)\n      swap2\n      0x40\n      dup4\n      add\n      0x40\n      dup5\n      mstore\n      dup3\n      mload\n      dup1\n      swap2\n      mstore\n      0x60\n      dup5\n      add\n      swap3\n      mload(0x80)\n      add\n      swap1\n      0x00\n    tag_667:\n      dup2\n      dup2\n      lt\n      tag_668\n      jumpi\n      pop\n      pop\n      pop\n      swap3\n        /* \"contracts/poker.sol\":20759:20812  WinnerDetermined(tableId, finalWinners, winningShare) */\n      0xedb6330b1b84cda51026e9a0aabf4ce11324d13d69e89d1033001317ad200395\n        /* \"contracts/poker.sol\":729:25810  contract TexasHoldem {... */\n      dup4\n        /* \"contracts/poker.sol\":17279:17290  table.phase */\n      0x0c\n        /* \"contracts/poker.sol\":729:25810  contract TexasHoldem {... */\n      swap5\n      mload(0x00)\n      codecopy(0x00, data_f4757ab01a3c98185065e9d0334826063b79dca553e93f62708b79bdfa8da875, 0x20)\n      mload(0x00)\n      swap1\n      0x00\n      mstore\n      swap8\n      swap5\n      0xff\n      swap8\n      mload(0x80)\n      dup4\n      add\n      mstore\n        /* \"contracts/poker.sol\":20759:20812  WinnerDetermined(tableId, finalWinners, winningShare) */\n      sub\n      swap1\n      log2\n        /* \"contracts/poker.sol\":20836:20843  tableId */\n      tag_670\n      dup6\n      tag_33\n      jump\t// in\n    tag_670:\n        /* \"contracts/poker.sol\":17687:17819  if (table.phase == GamePhase.River) {... */\n      swap3\n      pop\n      pop\n      pop\n      jump(tag_650)\n        /* \"contracts/poker.sol\":729:25810  contract TexasHoldem {... */\n    tag_668:\n      dup3\n      mload\n      sub(shl(0xa0, 0x01), 0x01)\n      and\n      dup6\n      mstore\n      mload(0x80)\n      dup10\n      swap8\n      pop\n      swap5\n      dup6\n      add\n      swap5\n      swap1\n      swap3\n      add\n      swap2\n        /* \"contracts/poker.sol\":15817:15821  true */\n      0x01\n        /* \"contracts/poker.sol\":729:25810  contract TexasHoldem {... */\n      add\n      jump(tag_667)\n        /* \"contracts/poker.sol\":20483:20486  i++ */\n    tag_665:\n        /* \"contracts/poker.sol\":20507:20517  uint j = 0 */\n      swap3\n      swap6\n      0x00\n      swap8\n      swap2\n      swap6\n      swap3\n      swap8\n        /* \"contracts/poker.sol\":20545:20548  j++ */\n    tag_671:\n        /* \"contracts/poker.sol\":729:25810  contract TexasHoldem {... */\n      dup5\n      sload\n        /* \"contracts/poker.sol\":20519:20543  j < table.players.length */\n      dup2\n      lt\n      iszero\n      tag_672\n      jumpi\n        /* \"contracts/poker.sol\":20572:20588  table.players[j] */\n      tag_674\n      dup2\n      dup7\n      tag_8\n      jump\t// in\n    tag_674:\n      pop\n        /* \"contracts/poker.sol\":729:25810  contract TexasHoldem {... */\n      sload\n      sub(shl(0xa0, 0x01), 0x01)\n      swap1\n      dup2\n      and\n      swap1\n        /* \"contracts/poker.sol\":20597:20612  finalWinners[i] */\n      tag_675\n      dup10\n      dup12\n      tag_45\n      jump\t// in\n    tag_675:\n        /* \"contracts/poker.sol\":729:25810  contract TexasHoldem {... */\n      mload\n      and\n        /* \"contracts/poker.sol\":20572:20612  table.players[j].addr == finalWinners[i] */\n      eq\n        /* \"contracts/poker.sol\":20568:20720  if (table.players[j].addr == finalWinners[i]) {... */\n      tag_676\n      jumpi\n        /* \"contracts/poker.sol\":15817:15821  true */\n      0x01\n        /* \"contracts/poker.sol\":729:25810  contract TexasHoldem {... */\n      add\n        /* \"contracts/poker.sol\":20507:20517  uint j = 0 */\n      jump(tag_671)\n        /* \"contracts/poker.sol\":20568:20720  if (table.players[j].addr == finalWinners[i]) {... */\n    tag_676:\n        /* \"contracts/poker.sol\":20636:20652  table.players[j] */\n      swap6\n        /* \"contracts/poker.sol\":15817:15821  true */\n      0x01\n        /* \"contracts/poker.sol\":20636:20652  table.players[j] */\n      tag_678\n      dup7\n      swap5\n      swap11\n      swap6\n      swap9\n      dup3\n      swap5\n      swap11\n      swap8\n      tag_8\n      jump\t// in\n    tag_678:\n        /* \"contracts/poker.sol\":20636:20658  table.players[j].chips */\n      pop\n      add\n        /* \"contracts/poker.sol\":20636:20674  table.players[j].chips += winningShare */\n      tag_679\n        /* \"contracts/poker.sol\":729:25810  contract TexasHoldem {... */\n      dup8\n      dup3\n      sload\n        /* \"contracts/poker.sol\":20636:20674  table.players[j].chips += winningShare */\n      tag_10\n      jump\t// in\n    tag_679:\n        /* \"contracts/poker.sol\":729:25810  contract TexasHoldem {... */\n      swap1\n      sstore\n        /* \"contracts/poker.sol\":20502:20734  for (uint j = 0; j < table.players.length; j++) {... */\n    tag_680:\n        /* \"contracts/poker.sol\":729:25810  contract TexasHoldem {... */\n      add\n        /* \"contracts/poker.sol\":20453:20463  uint i = 0 */\n      swap1\n      jump(tag_664)\n        /* \"contracts/poker.sol\":20519:20543  j < table.players.length */\n    tag_672:\n      pop\n      swap6\n      swap3\n      swap1\n      swap7\n      swap2\n      swap5\n        /* \"contracts/poker.sol\":15817:15821  true */\n      0x01\n        /* \"contracts/poker.sol\":20519:20543  j < table.players.length */\n      swap1\n      jump(tag_680)\n        /* \"contracts/poker.sol\":20277:20280  i++ */\n    tag_659:\n        /* \"contracts/poker.sol\":15817:15821  true */\n      0x01\n      swap1\n      sub(shl(0xa0, 0x01), 0x01)\n        /* \"contracts/poker.sol\":20314:20331  winningPlayers[i] */\n      tag_681\n        /* \"contracts/poker.sol\":729:25810  contract TexasHoldem {... */\n      dup3\n        /* \"contracts/poker.sol\":20314:20331  winningPlayers[i] */\n      dup6\n      tag_45\n      jump\t// in\n    tag_681:\n        /* \"contracts/poker.sol\":729:25810  contract TexasHoldem {... */\n      mload\n      and\n        /* \"contracts/poker.sol\":20296:20331  finalWinners[i] = winningPlayers[i] */\n      tag_682\n      dup3\n      dup9\n      tag_45\n      jump\t// in\n    tag_682:\n        /* \"contracts/poker.sol\":729:25810  contract TexasHoldem {... */\n      mstore\n      add\n        /* \"contracts/poker.sol\":20247:20257  uint i = 0 */\n      jump(tag_658)\n        /* \"contracts/poker.sol\":18875:18878  i++ */\n    tag_655:\n        /* \"contracts/poker.sol\":729:25810  contract TexasHoldem {... */\n      0xff\n        /* \"contracts/poker.sol\":15773:15814  table.players[table.actionIndex].hasActed */\n      0x04\n        /* \"contracts/poker.sol\":18898:18914  table.players[i] */\n      tag_683\n      dup4\n      dup11\n      tag_8\n      jump\t// in\n    tag_683:\n        /* \"contracts/poker.sol\":18898:18921  table.players[i].inHand */\n      pop\n      add\n        /* \"contracts/poker.sol\":729:25810  contract TexasHoldem {... */\n      sload\n      and\n        /* \"contracts/poker.sol\":18894:20100  if (table.players[i].inHand) {... */\n      tag_684\n      jumpi\n        /* \"contracts/poker.sol\":18875:18878  i++ */\n    tag_685:\n        /* \"contracts/poker.sol\":15817:15821  true */\n      0x01\n        /* \"contracts/poker.sol\":729:25810  contract TexasHoldem {... */\n      add\n        /* \"contracts/poker.sol\":18837:18847  uint i = 0 */\n      jump(tag_654)\n        /* \"contracts/poker.sol\":18894:20100  if (table.players[i].inHand) {... */\n    tag_684:\n        /* \"contracts/poker.sol\":729:25810  contract TexasHoldem {... */\n      swap2\n      0x0100\n      swap5\n      mload(0x40)\n      swap6\n      tag_686\n      dup2\n      dup9\n      tag_18\n      jump\t// in\n    tag_686:\n        /* \"contracts/poker.sol\":15773:15786  table.players */\n      0x07\n        /* \"contracts/poker.sol\":729:25810  contract TexasHoldem {... */\n      dup8\n      mstore\n      not(0x1f)\n      add\n      calldatasize\n      mload(0x80)\n      dup9\n      add\n      calldatacopy\n      0xff\n        /* \"contracts/poker.sol\":17569:17583  GamePhase.Turn */\n      0x03\n        /* \"contracts/poker.sol\":19013:19029  table.players[i] */\n      tag_687\n      dup7\n      dup12\n      tag_8\n      jump\t// in\n    tag_687:\n        /* \"contracts/poker.sol\":19013:19039  table.players[i].holeCards */\n      pop\n      add\n        /* \"contracts/poker.sol\":729:25810  contract TexasHoldem {... */\n      sload\n      and\n        /* \"contracts/poker.sol\":18999:19042  allCards[0] = table.players[i].holeCards[0] */\n      tag_688\n      dup8\n      tag_40\n      jump\t// in\n    tag_688:\n        /* \"contracts/poker.sol\":729:25810  contract TexasHoldem {... */\n      mstore\n        /* \"contracts/poker.sol\":17569:17583  GamePhase.Turn */\n      0x03\n        /* \"contracts/poker.sol\":19074:19090  table.players[i] */\n      tag_689\n      dup6\n      dup11\n      tag_8\n      jump\t// in\n    tag_689:\n      pop\n        /* \"contracts/poker.sol\":19074:19100  table.players[i].holeCards */\n      add\n        /* \"contracts/poker.sol\":729:25810  contract TexasHoldem {... */\n      sload\n      0x01\n      swap3\n      swap1\n      0x08\n      shr\n      0xff\n      and\n        /* \"contracts/poker.sol\":19060:19103  allCards[1] = table.players[i].holeCards[1] */\n      tag_690\n      dup9\n      tag_41\n      jump\t// in\n    tag_690:\n        /* \"contracts/poker.sol\":729:25810  contract TexasHoldem {... */\n      mstore\n      0x00\n        /* \"contracts/poker.sol\":19126:19136  uint j = 0 */\n      dup4\n        /* \"contracts/poker.sol\":729:25810  contract TexasHoldem {... */\n    tag_691:\n      tag_692\n      jumpi\n        /* \"contracts/poker.sol\":19121:19232  for (uint j = 0; j < 5; j++) {... */\n    tag_693:\n        /* \"contracts/poker.sol\":729:25810  contract TexasHoldem {... */\n      pop\n      tag_694\n      tag_26\n      jump\t// in\n    tag_694:\n      pop\n        /* \"contracts/poker.sol\":21080:21104  new uint[](cards.length) */\n      tag_695\n        /* \"contracts/poker.sol\":729:25810  contract TexasHoldem {... */\n      dup8\n      mload\n        /* \"contracts/poker.sol\":21080:21104  new uint[](cards.length) */\n      tag_38\n      jump\t// in\n    tag_695:\n        /* \"contracts/poker.sol\":21136:21160  new uint[](cards.length) */\n      tag_696\n        /* \"contracts/poker.sol\":729:25810  contract TexasHoldem {... */\n      dup9\n      mload\n        /* \"contracts/poker.sol\":21136:21160  new uint[](cards.length) */\n      tag_38\n      jump\t// in\n    tag_696:\n        /* \"contracts/poker.sol\":21175:21185  uint i = 0 */\n      swap1\n      dup5\n      dup10\n      0x00\n      dup3\n        /* \"contracts/poker.sol\":729:25810  contract TexasHoldem {... */\n    tag_697:\n      tag_698\n      jumpi\n        /* \"contracts/poker.sol\":21170:21309  for (uint i = 0; i < cards.length; i++) {... */\n    tag_699:\n        /* \"contracts/poker.sol\":21319:21349  HandEvaluation memory bestHand */\n      pop\n      pop\n      pop\n      pop\n      pop\n        /* \"contracts/poker.sol\":729:25810  contract TexasHoldem {... */\n      tag_700\n      tag_26\n      jump\t// in\n    tag_700:\n        /* \"contracts/poker.sol\":21405:21415  uint i = 0 */\n      swap7\n      0x00\n        /* \"contracts/poker.sol\":21417:21422  i < 7 */\n    tag_701:\n        /* \"contracts/poker.sol\":15773:15786  table.players */\n      0x07\n        /* \"contracts/poker.sol\":21417:21422  i < 7 */\n      dup2\n      lt\n      tag_702\n      jumpi\n      pop\n      pop\n        /* \"contracts/poker.sol\":19336:19353  winningCount == 0 */\n      dup2\n      tag_704\n      jumpi\n        /* \"contracts/poker.sol\":19408:19424  table.players[i] */\n      pop\n        /* \"contracts/poker.sol\":15817:15821  true */\n      0x01\n        /* \"contracts/poker.sol\":19408:19424  table.players[i] */\n      swap2\n      pop\n        /* \"contracts/poker.sol\":19451:19465  winningCount++ */\n      tag_706\n        /* \"contracts/poker.sol\":19408:19424  table.players[i] */\n      swap1\n      tag_707\n      dup6\n      dup11\n      tag_8\n      jump\t// in\n    tag_707:\n        /* \"contracts/poker.sol\":729:25810  contract TexasHoldem {... */\n      pop\n      dup4\n      dup1\n      0xa0\n      shl\n      sub\n      swap1\n      sload\n      and\n        /* \"contracts/poker.sol\":19377:19429  winningPlayers[winningCount] = table.players[i].addr */\n      tag_708\n      dup3\n      dup11\n      tag_45\n      jump\t// in\n    tag_708:\n        /* \"contracts/poker.sol\":729:25810  contract TexasHoldem {... */\n      mstore\n        /* \"contracts/poker.sol\":19451:19465  winningCount++ */\n      tag_46\n      jump\t// in\n    tag_706:\n        /* \"contracts/poker.sol\":19487:19512  winningHand = currentHand */\n      swap5\n        /* \"contracts/poker.sol\":19332:20086  if (winningCount == 0) {... */\n      swap3\n    tag_709:\n        /* \"contracts/poker.sol\":18894:20100  if (table.players[i].inHand) {... */\n      swap1\n      pop\n      jump(tag_685)\n        /* \"contracts/poker.sol\":19332:20086  if (winningCount == 0) {... */\n    tag_704:\n        /* \"contracts/poker.sol\":19576:19615  _compareHands(currentHand, winningHand) */\n      tag_710\n      dup2\n      dup9\n      tag_49\n      jump\t// in\n    tag_710:\n      0x00\n        /* \"contracts/poker.sol\":19641:19655  comparison > 0 */\n      dup2\n      sgt\n      iszero\n      tag_711\n      jumpi\n        /* \"contracts/poker.sol\":19765:19781  table.players[i] */\n      pop\n      pop\n      pop\n        /* \"contracts/poker.sol\":15817:15821  true */\n      0x01\n        /* \"contracts/poker.sol\":19765:19781  table.players[i] */\n      swap1\n      tag_713\n      dup5\n      dup10\n      tag_8\n      jump\t// in\n    tag_713:\n        /* \"contracts/poker.sol\":729:25810  contract TexasHoldem {... */\n      pop\n      dup3\n      dup1\n      0xa0\n      shl\n      sub\n      swap1\n      sload\n      and\n        /* \"contracts/poker.sol\":19734:19786  winningPlayers[winningCount] = table.players[i].addr */\n      tag_714\n      dup9\n      tag_40\n      jump\t// in\n    tag_714:\n        /* \"contracts/poker.sol\":729:25810  contract TexasHoldem {... */\n      mstore\n        /* \"contracts/poker.sol\":19852:19877  winningHand = currentHand */\n      swap5\n        /* \"contracts/poker.sol\":19637:20068  if (comparison > 0) {... */\n      swap3\n        /* \"contracts/poker.sol\":19332:20086  if (winningCount == 0) {... */\n      jump(tag_709)\n        /* \"contracts/poker.sol\":19637:20068  if (comparison > 0) {... */\n    tag_711:\n        /* \"contracts/poker.sol\":19910:19925  comparison == 0 */\n      swap2\n      swap7\n      pop\n      swap4\n      swap2\n      pop\n      iszero\n        /* \"contracts/poker.sol\":19906:20068  if (comparison == 0) {... */\n      tag_716\n      jumpi\n        /* \"contracts/poker.sol\":19637:20068  if (comparison > 0) {... */\n    tag_717:\n        /* \"contracts/poker.sol\":15817:15821  true */\n      0x01\n        /* \"contracts/poker.sol\":19637:20068  if (comparison > 0) {... */\n      swap1\n        /* \"contracts/poker.sol\":19332:20086  if (winningCount == 0) {... */\n      jump(tag_709)\n        /* \"contracts/poker.sol\":19906:20068  if (comparison == 0) {... */\n    tag_716:\n        /* \"contracts/poker.sol\":19984:20000  table.players[i] */\n      swap4\n        /* \"contracts/poker.sol\":20031:20045  winningCount++ */\n      tag_718\n        /* \"contracts/poker.sol\":15817:15821  true */\n      0x01\n        /* \"contracts/poker.sol\":19984:20000  table.players[i] */\n      swap2\n      tag_707\n      dup8\n      dup11\n      tag_8\n      jump\t// in\n        /* \"contracts/poker.sol\":20031:20045  winningCount++ */\n    tag_718:\n        /* \"contracts/poker.sol\":19906:20068  if (comparison == 0) {... */\n      swap5\n      swap1\n      pop\n      jump(tag_717)\n        /* \"contracts/poker.sol\":21424:21427  i++ */\n    tag_702:\n        /* \"contracts/poker.sol\":729:25810  contract TexasHoldem {... */\n      dup5\n      dup2\n      add\n      dup1\n      dup3\n      gt\n      tag_198\n      jumpi\n        /* \"contracts/poker.sol\":21448:21462  uint j = i + 1 */\n      swap1\n      dup6\n      swap2\n        /* \"contracts/poker.sol\":21464:21469  j < 7 */\n    tag_723:\n        /* \"contracts/poker.sol\":15773:15786  table.players */\n      0x07\n        /* \"contracts/poker.sol\":21464:21469  j < 7 */\n      dup2\n      lt\n      tag_724\n      jumpi\n        /* \"contracts/poker.sol\":21424:21427  i++ */\n      pop\n        /* \"contracts/poker.sol\":729:25810  contract TexasHoldem {... */\n      add\n        /* \"contracts/poker.sol\":21405:21415  uint i = 0 */\n      jump(tag_701)\n        /* \"contracts/poker.sol\":21471:21474  j++ */\n    tag_724:\n        /* \"contracts/poker.sol\":729:25810  contract TexasHoldem {... */\n      swap1\n      swap2\n      dup2\n      add\n      dup1\n      dup3\n      gt\n      tag_198\n      jumpi\n        /* \"contracts/poker.sol\":21499:21513  uint k = j + 1 */\n      swap1\n      dup7\n      swap2\n        /* \"contracts/poker.sol\":21515:21520  k < 7 */\n    tag_728:\n        /* \"contracts/poker.sol\":15773:15786  table.players */\n      0x07\n        /* \"contracts/poker.sol\":21515:21520  k < 7 */\n      dup2\n      lt\n      tag_729\n      jumpi\n        /* \"contracts/poker.sol\":21471:21474  j++ */\n      pop\n        /* \"contracts/poker.sol\":729:25810  contract TexasHoldem {... */\n      add\n        /* \"contracts/poker.sol\":21448:21462  uint j = i + 1 */\n      swap1\n      dup6\n      swap2\n      jump(tag_723)\n        /* \"contracts/poker.sol\":21522:21525  k++ */\n    tag_729:\n        /* \"contracts/poker.sol\":729:25810  contract TexasHoldem {... */\n      swap1\n      swap2\n      dup2\n      add\n      dup1\n      dup3\n      gt\n      tag_198\n      jumpi\n        /* \"contracts/poker.sol\":21554:21568  uint l = k + 1 */\n      swap1\n      dup8\n      swap2\n        /* \"contracts/poker.sol\":21570:21575  l < 7 */\n    tag_733:\n        /* \"contracts/poker.sol\":15773:15786  table.players */\n      0x07\n        /* \"contracts/poker.sol\":21570:21575  l < 7 */\n      dup2\n      lt\n      tag_734\n      jumpi\n        /* \"contracts/poker.sol\":21522:21525  k++ */\n      pop\n        /* \"contracts/poker.sol\":729:25810  contract TexasHoldem {... */\n      add\n        /* \"contracts/poker.sol\":21499:21513  uint k = j + 1 */\n      swap1\n      dup7\n      swap2\n      jump(tag_728)\n        /* \"contracts/poker.sol\":21577:21580  l++ */\n    tag_734:\n        /* \"contracts/poker.sol\":729:25810  contract TexasHoldem {... */\n      swap1\n      swap2\n      dup2\n      add\n      dup2\n      gt\n      tag_198\n      jumpi\n      dup1\n      dup9\n      dup1\n      swap3\n      add\n        /* \"contracts/poker.sol\":21629:21634  m < 7 */\n    tag_738:\n        /* \"contracts/poker.sol\":15773:15786  table.players */\n      0x07\n        /* \"contracts/poker.sol\":21629:21634  m < 7 */\n      dup2\n      lt\n      tag_739\n      jumpi\n        /* \"contracts/poker.sol\":21577:21580  l++ */\n      pop\n        /* \"contracts/poker.sol\":729:25810  contract TexasHoldem {... */\n      add\n        /* \"contracts/poker.sol\":21554:21568  uint l = k + 1 */\n      swap1\n      dup8\n      swap2\n      jump(tag_733)\n        /* \"contracts/poker.sol\":21636:21639  m++ */\n    tag_739:\n        /* \"contracts/poker.sol\":729:25810  contract TexasHoldem {... */\n      swap1\n      swap2\n      pop\n      dup13\n      0x00\n        /* \"contracts/poker.sol\":22110:22146  _compareHands(currentHand, bestHand) */\n      tag_741\n        /* \"contracts/poker.sol\":22051:22076  _evaluate5CardHand(combo) */\n      tag_742\n        /* \"contracts/poker.sol\":729:25810  contract TexasHoldem {... */\n      0xc0\n      mload(0x40)\n      swap1\n      tag_743\n      dup2\n      dup4\n      tag_18\n      jump\t// in\n    tag_743:\n        /* \"contracts/poker.sol\":15831:15883  table.players[table.actionIndex].lastActionTimestamp */\n      0x05\n        /* \"contracts/poker.sol\":729:25810  contract TexasHoldem {... */\n      dup3\n      mstore\n      pop\n      0xa0\n      calldatasize\n      mload(0x80)\n      dup4\n      add\n      calldatacopy\n      0xff\n        /* \"contracts/poker.sol\":21749:21757  cards[i] */\n      tag_744\n      dup12\n      dup14\n      tag_45\n      jump\t// in\n    tag_744:\n        /* \"contracts/poker.sol\":729:25810  contract TexasHoldem {... */\n      mload\n      and\n        /* \"contracts/poker.sol\":21738:21757  combo[0] = cards[i] */\n      tag_745\n      dup3\n      tag_40\n      jump\t// in\n    tag_745:\n        /* \"contracts/poker.sol\":729:25810  contract TexasHoldem {... */\n      mstore\n      0xff\n        /* \"contracts/poker.sol\":21798:21806  cards[j] */\n      tag_746\n      dup11\n      dup14\n      tag_45\n      jump\t// in\n    tag_746:\n        /* \"contracts/poker.sol\":729:25810  contract TexasHoldem {... */\n      mload\n      and\n        /* \"contracts/poker.sol\":21787:21806  combo[1] = cards[j] */\n      tag_747\n      dup3\n      tag_41\n      jump\t// in\n    tag_747:\n        /* \"contracts/poker.sol\":729:25810  contract TexasHoldem {... */\n      mstore\n      0xff\n        /* \"contracts/poker.sol\":21847:21855  cards[k] */\n      tag_748\n      dup10\n      dup14\n      tag_45\n      jump\t// in\n    tag_748:\n        /* \"contracts/poker.sol\":729:25810  contract TexasHoldem {... */\n      mload\n      and\n        /* \"contracts/poker.sol\":21836:21855  combo[2] = cards[k] */\n      tag_749\n      dup3\n      tag_42\n      jump\t// in\n    tag_749:\n        /* \"contracts/poker.sol\":729:25810  contract TexasHoldem {... */\n      mstore\n      0xff\n        /* \"contracts/poker.sol\":21896:21904  cards[l] */\n      tag_750\n      dup9\n      dup14\n      tag_45\n      jump\t// in\n    tag_750:\n        /* \"contracts/poker.sol\":729:25810  contract TexasHoldem {... */\n      mload\n      and\n        /* \"contracts/poker.sol\":21885:21904  combo[3] = cards[l] */\n      tag_751\n      dup3\n      tag_43\n      jump\t// in\n    tag_751:\n        /* \"contracts/poker.sol\":729:25810  contract TexasHoldem {... */\n      mstore\n      0xff\n        /* \"contracts/poker.sol\":21945:21953  cards[m] */\n      tag_752\n      dup8\n      dup14\n      tag_45\n      jump\t// in\n    tag_752:\n        /* \"contracts/poker.sol\":729:25810  contract TexasHoldem {... */\n      mload\n      and\n        /* \"contracts/poker.sol\":21934:21953  combo[4] = cards[m] */\n      tag_753\n      dup3\n      tag_44\n      jump\t// in\n    tag_753:\n        /* \"contracts/poker.sol\":729:25810  contract TexasHoldem {... */\n      mstore\n        /* \"contracts/poker.sol\":22051:22076  _evaluate5CardHand(combo) */\n      tag_50\n      jump\t// in\n    tag_742:\n        /* \"contracts/poker.sol\":22110:22146  _compareHands(currentHand, bestHand) */\n      swap3\n      dup4\n      tag_49\n      jump\t// in\n    tag_741:\n        /* \"contracts/poker.sol\":22110:22150  _compareHands(currentHand, bestHand) > 0 */\n      sgt\n        /* \"contracts/poker.sol\":22106:22239  if (_compareHands(currentHand, bestHand) > 0) {... */\n      tag_754\n      jumpi\n        /* \"contracts/poker.sol\":21636:21639  m++ */\n    tag_755:\n      pop\n      dup9\n        /* \"contracts/poker.sol\":729:25810  contract TexasHoldem {... */\n      add\n        /* \"contracts/poker.sol\":21613:21627  uint m = l + 1 */\n      swap1\n      dup9\n      swap2\n      jump(tag_738)\n        /* \"contracts/poker.sol\":22106:22239  if (_compareHands(currentHand, bestHand) > 0) {... */\n    tag_754:\n      swap13\n      pop\n        /* \"contracts/poker.sol\":22186:22208  bestHand = currentHand */\n      dup9\n        /* \"contracts/poker.sol\":22106:22239  if (_compareHands(currentHand, bestHand) > 0) {... */\n      jump(tag_755)\n        /* \"contracts/poker.sol\":21205:21208  i++ */\n    tag_698:\n        /* \"contracts/poker.sol\":729:25810  contract TexasHoldem {... */\n      dup2\n      mload\n        /* \"contracts/poker.sol\":21187:21203  i < cards.length */\n      dup2\n      lt\n      iszero\n      tag_756\n      jumpi\n        /* \"contracts/poker.sol\":729:25810  contract TexasHoldem {... */\n      0xff\n        /* \"contracts/poker.sol\":17203:17219  table.currentBet */\n      0x0d\n        /* \"contracts/poker.sol\":21236:21244  cards[i] */\n      dup2\n        /* \"contracts/poker.sol\":21280:21292  cards[i] - 1 */\n      tag_758\n        /* \"contracts/poker.sol\":21236:21244  cards[i] */\n      dup2\n        /* \"contracts/poker.sol\":21280:21288  cards[i] */\n      tag_762\n        /* \"contracts/poker.sol\":21236:21244  cards[i] */\n      dup7\n      dup9\n      dup12\n        /* \"contracts/poker.sol\":21224:21254  ranks[i] = (cards[i] - 1) % 13 */\n      tag_760\n        /* \"contracts/poker.sol\":21236:21244  cards[i] */\n      dup4\n      dup7\n      dup11\n      dup16\n      swap15\n        /* \"contracts/poker.sol\":21236:21248  cards[i] - 1 */\n      tag_761\n        /* \"contracts/poker.sol\":21236:21244  cards[i] */\n      dup4\n      tag_762\n      dup7\n      dup3\n      swap5\n      tag_45\n      jump\t// in\n    tag_762:\n        /* \"contracts/poker.sol\":729:25810  contract TexasHoldem {... */\n      mload\n      and\n        /* \"contracts/poker.sol\":21236:21248  cards[i] - 1 */\n      tag_48\n      jump\t// in\n    tag_761:\n        /* \"contracts/poker.sol\":729:25810  contract TexasHoldem {... */\n      and\n      mod\n      and\n        /* \"contracts/poker.sol\":21224:21254  ranks[i] = (cards[i] - 1) % 13 */\n      swap3\n      tag_45\n      jump\t// in\n    tag_760:\n        /* \"contracts/poker.sol\":729:25810  contract TexasHoldem {... */\n      mstore\n        /* \"contracts/poker.sol\":21280:21288  cards[i] */\n      tag_45\n      jump\t// in\n        /* \"contracts/poker.sol\":21280:21292  cards[i] - 1 */\n    tag_758:\n        /* \"contracts/poker.sol\":729:25810  contract TexasHoldem {... */\n      and\n      div\n      and\n        /* \"contracts/poker.sol\":21268:21298  suits[i] = (cards[i] - 1) / 13 */\n      tag_763\n      dup3\n      dup8\n      tag_45\n      jump\t// in\n    tag_763:\n        /* \"contracts/poker.sol\":729:25810  contract TexasHoldem {... */\n      mstore\n      add\n        /* \"contracts/poker.sol\":21175:21185  uint i = 0 */\n      dup11\n      swap1\n      dup3\n      jump(tag_697)\n        /* \"contracts/poker.sol\":21187:21203  i < cards.length */\n    tag_756:\n      jump(tag_699)\n        /* \"contracts/poker.sol\":19145:19148  j++ */\n    tag_692:\n        /* \"contracts/poker.sol\":15831:15883  table.players[table.actionIndex].lastActionTimestamp */\n      0x05\n        /* \"contracts/poker.sol\":19138:19143  j < 5 */\n      dup2\n      lt\n      iszero\n      tag_764\n      jumpi\n        /* \"contracts/poker.sol\":729:25810  contract TexasHoldem {... */\n      0xff\n        /* \"contracts/poker.sol\":19190:19210  table.communityCards */\n      0x0b\n        /* \"contracts/poker.sol\":729:25810  contract TexasHoldem {... */\n      dup3\n        /* \"contracts/poker.sol\":15831:15883  table.players[table.actionIndex].lastActionTimestamp */\n      0x05\n        /* \"contracts/poker.sol\":729:25810  contract TexasHoldem {... */\n      shr\n      dup10\n      add\n      add\n      sload\n      0xf8\n      dup4\n        /* \"contracts/poker.sol\":17569:17583  GamePhase.Turn */\n      0x03\n        /* \"contracts/poker.sol\":729:25810  contract TexasHoldem {... */\n      shl\n      and\n      shr\n      and\n      swap1\n        /* \"contracts/poker.sol\":18216:18236  table.players[i].bet */\n      0x02\n        /* \"contracts/poker.sol\":729:25810  contract TexasHoldem {... */\n      dup2\n      add\n      swap1\n      dup2\n      dup2\n      gt\n      tag_198\n      jumpi\n        /* \"contracts/poker.sol\":19172:19213  allCards[j + 2] = table.communityCards[j] */\n      dup6\n      swap3\n      tag_768\n      dup5\n      swap4\n      dup13\n      tag_45\n      jump\t// in\n    tag_768:\n        /* \"contracts/poker.sol\":729:25810  contract TexasHoldem {... */\n      mstore\n      add\n        /* \"contracts/poker.sol\":19126:19136  uint j = 0 */\n      swap1\n      jump(tag_691)\n        /* \"contracts/poker.sol\":19138:19143  j < 5 */\n    tag_764:\n      jump(tag_693)\n        /* \"contracts/poker.sol\":18185:18188  i++ */\n    tag_606:\n        /* \"contracts/poker.sol\":18216:18232  table.players[i] */\n      swap1\n      swap4\n        /* \"contracts/poker.sol\":18204:18236  totalPot += table.players[i].bet */\n      tag_769\n        /* \"contracts/poker.sol\":15817:15821  true */\n      0x01\n        /* \"contracts/poker.sol\":18216:18232  table.players[i] */\n      swap2\n        /* \"contracts/poker.sol\":18216:18236  table.players[i].bet */\n      0x02\n        /* \"contracts/poker.sol\":18216:18232  table.players[i] */\n      tag_770\n      dup9\n      dup12\n      tag_8\n      jump\t// in\n    tag_770:\n        /* \"contracts/poker.sol\":18216:18236  table.players[i].bet */\n      pop\n      add\n        /* \"contracts/poker.sol\":729:25810  contract TexasHoldem {... */\n      sload\n        /* \"contracts/poker.sol\":18204:18236  totalPot += table.players[i].bet */\n      swap1\n      tag_10\n      jump\t// in\n    tag_769:\n        /* \"contracts/poker.sol\":18185:18188  i++ */\n      swap5\n        /* \"contracts/poker.sol\":729:25810  contract TexasHoldem {... */\n      add\n        /* \"contracts/poker.sol\":18147:18157  uint i = 0 */\n      swap1\n      jump(tag_605)\n        /* \"contracts/poker.sol\":15912:16340  if (_isBettingRoundOver(tableId)) {... */\n    tag_602:\n        /* \"contracts/poker.sol\":729:25810  contract TexasHoldem {... */\n      swap2\n      pop\n      swap2\n      0xff\n      dup3\n      sload\n      0x08\n      shr\n      and\n        /* \"contracts/poker.sol\":16065:16287  do {... */\n      swap1\n        /* \"contracts/poker.sol\":15817:15821  true */\n      0x01\n        /* \"contracts/poker.sol\":729:25810  contract TexasHoldem {... */\n      swap3\n      0xff\n      dup6\n      sload\n      and\n      swap5\n      dup6\n      iszero\n        /* \"contracts/poker.sol\":16065:16287  do {... */\n      swap5\n    tag_771:\n      iszero\n      tag_772\n      jumpi\n    tag_773:\n        /* \"contracts/poker.sol\":16099:16112  nextIndex + 1 */\n      tag_774\n        /* \"contracts/poker.sol\":15748:15754  tables */\n      0x00\n        /* \"contracts/poker.sol\":16099:16112  nextIndex + 1 */\n      swap5\n      tag_31\n      jump\t// in\n    tag_774:\n        /* \"contracts/poker.sol\":16098:16143  (nextIndex + 1) % uint8(table.players.length) */\n      dup6\n        /* \"contracts/poker.sol\":729:25810  contract TexasHoldem {... */\n      tag_517\n      jumpi\n      0xff\n      dup8\n      swap2\n      and\n      mod\n        /* \"contracts/poker.sol\":16065:16287  do {... */\n      swap4\n      jump(tag_771)\n    tag_772:\n        /* \"contracts/poker.sol\":729:25810  contract TexasHoldem {... */\n      0xff\n        /* \"contracts/poker.sol\":15773:15814  table.players[table.actionIndex].hasActed */\n      0x04\n        /* \"contracts/poker.sol\":16184:16208  table.players[nextIndex] */\n      tag_777\n      dup7\n      dup5\n      tag_8\n      jump\t// in\n    tag_777:\n        /* \"contracts/poker.sol\":16184:16215  table.players[nextIndex].inHand */\n      pop\n      add\n        /* \"contracts/poker.sol\":729:25810  contract TexasHoldem {... */\n      sload\n      and\n        /* \"contracts/poker.sol\":16183:16215  !table.players[nextIndex].inHand */\n      iszero\n        /* \"contracts/poker.sol\":729:25810  contract TexasHoldem {... */\n      dup1\n      iszero\n        /* \"contracts/poker.sol\":16183:16272  !table.players[nextIndex].inHand ||... */\n      tag_778\n      jumpi\n        /* \"contracts/poker.sol\":16065:16287  do {... */\n    tag_779:\n      tag_773\n        /* \"contracts/poker.sol\":16183:16272  !table.players[nextIndex].inHand ||... */\n      jumpi\n      pop\n      swap1\n      swap4\n      pop\n        /* \"contracts/poker.sol\":16300:16329  table.actionIndex = nextIndex */\n      tag_490\n        /* \"contracts/poker.sol\":16183:16272  !table.players[nextIndex].inHand ||... */\n      swap3\n      pop\n        /* \"contracts/poker.sol\":729:25810  contract TexasHoldem {... */\n      swap1\n      0xff00\n      dup3\n      sload\n      swap2\n      0x08\n      shl\n      and\n      swap1\n      not(0xff00)\n      and\n      or\n      swap1\n      sstore\n      jump\n        /* \"contracts/poker.sol\":16183:16272  !table.players[nextIndex].inHand ||... */\n    tag_778:\n        /* \"contracts/poker.sol\":16239:16263  table.players[nextIndex] */\n      pop\n        /* \"contracts/poker.sol\":729:25810  contract TexasHoldem {... */\n      0xff\n        /* \"contracts/poker.sol\":15773:15814  table.players[table.actionIndex].hasActed */\n      0x04\n        /* \"contracts/poker.sol\":16239:16263  table.players[nextIndex] */\n      tag_783\n      dup7\n      dup5\n      tag_8\n      jump\t// in\n    tag_783:\n        /* \"contracts/poker.sol\":16239:16272  table.players[nextIndex].hasActed */\n      pop\n      add\n        /* \"contracts/poker.sol\":729:25810  contract TexasHoldem {... */\n      sload\n      0x08\n      shr\n      and\n        /* \"contracts/poker.sol\":16183:16272  !table.players[nextIndex].inHand ||... */\n      jump(tag_779)\n        /* \"contracts/poker.sol\":729:25810  contract TexasHoldem {... */\n    tag_35:\n      swap2\n      swap1\n      swap2\n      0x34\n      dup4\n      lt\n      iszero\n      tag_448\n      jumpi\n      0x1f\n      swap1\n      dup4\n      0x05\n      shr\n      add\n      swap3\n      and\n      swap1\n      jump\t// out\n    tag_36:\n      0xff\n      and\n      0xff\n      dup2\n      eq\n      tag_198\n      jumpi\n      0x01\n      add\n      swap1\n      jump\t// out\n        /* \"contracts/poker.sol\":16352:16906  function _isBettingRoundOver(uint tableId) internal view returns (bool) {... */\n    tag_37:\n        /* \"contracts/poker.sol\":16456:16471  tables[tableId] */\n      tag_788\n        /* \"contracts/poker.sol\":16352:16906  function _isBettingRoundOver(uint tableId) internal view returns (bool) {... */\n      swap1\n        /* \"contracts/poker.sol\":16456:16471  tables[tableId] */\n      tag_5\n      jump\t// in\n    tag_788:\n        /* \"contracts/poker.sol\":16486:16496  uint i = 0 */\n      pop\n        /* \"contracts/poker.sol\":729:25810  contract TexasHoldem {... */\n      0x00\n        /* \"contracts/poker.sol\":16502:16515  table.players */\n      swap1\n      0x07\n      dup2\n      add\n        /* \"contracts/poker.sol\":729:25810  contract TexasHoldem {... */\n      dup1\n      sload\n        /* \"contracts/poker.sol\":16481:16879  for (uint i = 0; i < table.players.length; i++) {... */\n      swap3\n        /* \"contracts/poker.sol\":16498:16522  i < table.players.length */\n    tag_789:\n      dup4\n      dup2\n      lt\n      tag_790\n      jumpi\n        /* \"contracts/poker.sol\":16888:16899  return true */\n      pop\n      pop\n      pop\n      pop\n        /* \"contracts/poker.sol\":729:25810  contract TexasHoldem {... */\n      0x01\n        /* \"contracts/poker.sol\":16352:16906  function _isBettingRoundOver(uint tableId) internal view returns (bool) {... */\n      swap1\n      jump\t// out\n        /* \"contracts/poker.sol\":16524:16527  i++ */\n    tag_790:\n        /* \"contracts/poker.sol\":729:25810  contract TexasHoldem {... */\n      0xff\n        /* \"contracts/poker.sol\":16547:16570  table.players[i].inHand */\n      0x04\n        /* \"contracts/poker.sol\":16547:16563  table.players[i] */\n      tag_792\n      dup4\n      dup6\n      tag_8\n      jump\t// in\n    tag_792:\n        /* \"contracts/poker.sol\":16547:16570  table.players[i].inHand */\n      pop\n      add\n        /* \"contracts/poker.sol\":729:25810  contract TexasHoldem {... */\n      sload\n      and\n        /* \"contracts/poker.sol\":16547:16600  table.players[i].inHand && !table.players[i].hasActed */\n      dup1\n      tag_793\n      jumpi\n        /* \"contracts/poker.sol\":16524:16527  i++ */\n    tag_794:\n        /* \"contracts/poker.sol\":16543:16647  if (table.players[i].inHand && !table.players[i].hasActed) {... */\n      tag_802\n      jumpi\n        /* \"contracts/poker.sol\":729:25810  contract TexasHoldem {... */\n      0xff\n        /* \"contracts/poker.sol\":16547:16570  table.players[i].inHand */\n      0x04\n        /* \"contracts/poker.sol\":16681:16697  table.players[i] */\n      tag_797\n      dup4\n      dup6\n      tag_8\n      jump\t// in\n    tag_797:\n        /* \"contracts/poker.sol\":16681:16704  table.players[i].inHand */\n      pop\n      add\n        /* \"contracts/poker.sol\":729:25810  contract TexasHoldem {... */\n      sload\n      and\n        /* \"contracts/poker.sol\":16681:16763  table.players[i].inHand &&... */\n      dup1\n      tag_798\n      jumpi\n        /* \"contracts/poker.sol\":16524:16527  i++ */\n    tag_799:\n        /* \"contracts/poker.sol\":16681:16809  table.players[i].inHand &&... */\n      dup1\n      tag_800\n      jumpi\n        /* \"contracts/poker.sol\":16524:16527  i++ */\n    tag_801:\n        /* \"contracts/poker.sol\":16660:16869  if (... */\n      tag_802\n      jumpi\n        /* \"contracts/poker.sol\":729:25810  contract TexasHoldem {... */\n      0x01\n      add\n        /* \"contracts/poker.sol\":16486:16496  uint i = 0 */\n      jump(tag_789)\n        /* \"contracts/poker.sol\":16660:16869  if (... */\n    tag_802:\n        /* \"contracts/poker.sol\":16842:16854  return false */\n      pop\n      pop\n      pop\n      pop\n        /* \"contracts/poker.sol\":729:25810  contract TexasHoldem {... */\n      0x00\n        /* \"contracts/poker.sol\":16842:16854  return false */\n      swap1\n      jump\t// out\n        /* \"contracts/poker.sol\":16681:16809  table.players[i].inHand &&... */\n    tag_800:\n        /* \"contracts/poker.sol\":16783:16799  table.players[i] */\n      pop\n        /* \"contracts/poker.sol\":729:25810  contract TexasHoldem {... */\n      0x01\n        /* \"contracts/poker.sol\":16783:16799  table.players[i] */\n      tag_804\n      dup3\n      dup5\n      tag_8\n      jump\t// in\n    tag_804:\n        /* \"contracts/poker.sol\":16783:16805  table.players[i].chips */\n      pop\n      add\n        /* \"contracts/poker.sol\":729:25810  contract TexasHoldem {... */\n      sload\n        /* \"contracts/poker.sol\":16783:16809  table.players[i].chips > 0 */\n      iszero\n      iszero\n        /* \"contracts/poker.sol\":16681:16809  table.players[i].inHand &&... */\n      jump(tag_801)\n        /* \"contracts/poker.sol\":16681:16763  table.players[i].inHand &&... */\n    tag_798:\n        /* \"contracts/poker.sol\":16724:16740  table.players[i] */\n      pop\n        /* \"contracts/poker.sol\":16724:16744  table.players[i].bet */\n      0x02\n        /* \"contracts/poker.sol\":16724:16740  table.players[i] */\n      tag_805\n      dup3\n      dup5\n      tag_8\n      jump\t// in\n    tag_805:\n        /* \"contracts/poker.sol\":16724:16744  table.players[i].bet */\n      pop\n      add\n        /* \"contracts/poker.sol\":729:25810  contract TexasHoldem {... */\n      sload\n        /* \"contracts/poker.sol\":16747:16763  table.currentBet */\n      0x0d\n      dup5\n      add\n        /* \"contracts/poker.sol\":729:25810  contract TexasHoldem {... */\n      sload\n      gt\n        /* \"contracts/poker.sol\":16681:16763  table.players[i].inHand &&... */\n      jump(tag_799)\n        /* \"contracts/poker.sol\":16547:16600  table.players[i].inHand && !table.players[i].hasActed */\n    tag_793:\n        /* \"contracts/poker.sol\":16575:16591  table.players[i] */\n      pop\n        /* \"contracts/poker.sol\":729:25810  contract TexasHoldem {... */\n      0xff\n        /* \"contracts/poker.sol\":16547:16570  table.players[i].inHand */\n      0x04\n        /* \"contracts/poker.sol\":16575:16591  table.players[i] */\n      tag_806\n      dup4\n      dup6\n      tag_8\n      jump\t// in\n    tag_806:\n        /* \"contracts/poker.sol\":16575:16600  table.players[i].hasActed */\n      pop\n      add\n        /* \"contracts/poker.sol\":729:25810  contract TexasHoldem {... */\n      sload\n      0x08\n      shr\n      and\n        /* \"contracts/poker.sol\":16574:16600  !table.players[i].hasActed */\n      iszero\n        /* \"contracts/poker.sol\":16547:16600  table.players[i].inHand && !table.players[i].hasActed */\n      jump(tag_794)\n        /* \"contracts/poker.sol\":729:25810  contract TexasHoldem {... */\n    tag_38:\n      swap1\n      tag_807\n      dup3\n      tag_21\n      jump\t// in\n    tag_807:\n      tag_808\n      mload(0x40)\n      swap2\n      dup3\n      tag_18\n      jump\t// in\n    tag_808:\n      dup3\n      dup2\n      mstore\n      dup1\n      swap3\n      tag_809\n      not(0x1f)\n      swap2\n      tag_21\n      jump\t// in\n    tag_809:\n      add\n      swap1\n      0x20\n      calldatasize\n      swap2\n      add\n      calldatacopy\n      jump\t// out\n    tag_39:\n      dup1\n      sload\n      iszero\n      tag_448\n      jumpi\n        /* \"contracts/poker.sol\":15748:15754  tables */\n      0x00\n        /* \"contracts/poker.sol\":729:25810  contract TexasHoldem {... */\n      mstore\n      0x20\n        /* \"contracts/poker.sol\":15748:15754  tables */\n      0x00\n        /* \"contracts/poker.sol\":729:25810  contract TexasHoldem {... */\n      keccak256\n      swap1\n        /* \"contracts/poker.sol\":15748:15754  tables */\n      0x00\n        /* \"contracts/poker.sol\":729:25810  contract TexasHoldem {... */\n      swap1\n      jump\t// out\n    tag_40:\n      dup1\n      mload\n      iszero\n      tag_448\n      jumpi\n      0x20\n      add\n      swap1\n      jump\t// out\n    tag_41:\n      dup1\n      mload\n        /* \"contracts/poker.sol\":15817:15821  true */\n      0x01\n        /* \"contracts/poker.sol\":729:25810  contract TexasHoldem {... */\n      lt\n      iszero\n      tag_448\n      jumpi\n      0x40\n      add\n      swap1\n      jump\t// out\n    tag_42:\n      dup1\n      mload\n        /* \"contracts/poker.sol\":18216:18236  table.players[i].bet */\n      0x02\n        /* \"contracts/poker.sol\":729:25810  contract TexasHoldem {... */\n      lt\n      iszero\n      tag_448\n      jumpi\n      0x60\n      add\n      swap1\n      jump\t// out\n    tag_43:\n      dup1\n      mload\n        /* \"contracts/poker.sol\":17569:17583  GamePhase.Turn */\n      0x03\n        /* \"contracts/poker.sol\":729:25810  contract TexasHoldem {... */\n      lt\n      iszero\n      tag_448\n      jumpi\n      0x80\n      add\n      swap1\n      jump\t// out\n    tag_44:\n      dup1\n      mload\n        /* \"contracts/poker.sol\":15773:15814  table.players[table.actionIndex].hasActed */\n      0x04\n        /* \"contracts/poker.sol\":729:25810  contract TexasHoldem {... */\n      lt\n      iszero\n      tag_448\n      jumpi\n      0xa0\n      add\n      swap1\n      jump\t// out\n    tag_45:\n      dup1\n      mload\n      dup3\n      lt\n      iszero\n      tag_448\n      jumpi\n      0x20\n      swap2\n      0x05\n      shl\n      add\n      add\n      swap1\n      jump\t// out\n    tag_46:\n      not(0x00)\n      dup2\n      eq\n      tag_198\n      jumpi\n      0x01\n      add\n      swap1\n      jump\t// out\n        /* \"contracts/poker.sol\":14987:15663  function _dealCommunityCards(uint tableId) internal {... */\n    tag_47:\n        /* \"contracts/poker.sol\":15071:15086  tables[tableId] */\n      tag_826\n      dup2\n      tag_5\n      jump\t// in\n    tag_826:\n        /* \"contracts/poker.sol\":15100:15111  table.phase */\n      pop\n        /* \"contracts/poker.sol\":729:25810  contract TexasHoldem {... */\n      0xff\n        /* \"contracts/poker.sol\":15100:15111  table.phase */\n      0x0c\n      dup3\n      add\n        /* \"contracts/poker.sol\":729:25810  contract TexasHoldem {... */\n      sload\n      and\n      0x06\n      dup2\n      lt\n      iszero\n      tag_91\n      jumpi\n        /* \"contracts/poker.sol\":15635:15655  table.communityCards */\n      0x0b\n        /* \"contracts/poker.sol\":729:25810  contract TexasHoldem {... */\n      tag_829\n        /* \"contracts/poker.sol\":15606:15656  CommunityCardsDealt(tableId, table.communityCards) */\n      0x86981aa8c80c36d41a56382bb6d7f4f432477216193063fc8196ede419c99ec0\n        /* \"contracts/poker.sol\":15100:15129  table.phase == GamePhase.Flop */\n      swap4\n      dup4\n        /* \"contracts/poker.sol\":15115:15129  GamePhase.Flop */\n      0x02\n        /* \"contracts/poker.sol\":729:25810  contract TexasHoldem {... */\n      0xa0\n        /* \"contracts/poker.sol\":15100:15129  table.phase == GamePhase.Flop */\n      swap6\n      eq\n        /* \"contracts/poker.sol\":15096:15592  if (table.phase == GamePhase.Flop) {... */\n      0x00\n        /* \"contracts/poker.sol\":15115:15129  GamePhase.Flop */\n      eq\n      tag_830\n      jumpi\n        /* \"contracts/poker.sol\":15171:15181  table.deck */\n      pop\n      0x08\n      dup2\n      add\n        /* \"contracts/poker.sol\":729:25810  contract TexasHoldem {... */\n      0xff\n        /* \"contracts/poker.sol\":15309:15338  table.deck[table.deckIndex++] */\n      tag_832\n        /* \"contracts/poker.sol\":15182:15197  table.deckIndex */\n      0x0a\n      dup5\n      add\n        /* \"contracts/poker.sol\":729:25810  contract TexasHoldem {... */\n      dup3\n        /* \"contracts/poker.sol\":15171:15200  table.deck[table.deckIndex++] */\n      tag_833\n        /* \"contracts/poker.sol\":729:25810  contract TexasHoldem {... */\n      dup2\n      dup4\n      sload\n      and\n        /* \"contracts/poker.sol\":15182:15199  table.deckIndex++ */\n      dup3\n      tag_834\n      dup3\n      tag_36\n      jump\t// in\n    tag_834:\n        /* \"contracts/poker.sol\":729:25810  contract TexasHoldem {... */\n      and\n      dup4\n      not\n      dup6\n      sload\n      and\n      or\n      dup5\n      sstore\n        /* \"contracts/poker.sol\":15171:15200  table.deck[table.deckIndex++] */\n      dup7\n      tag_35\n      jump\t// in\n    tag_833:\n        /* \"contracts/poker.sol\":729:25810  contract TexasHoldem {... */\n      swap1\n      sload\n      swap1\n      0x03\n      shl\n      shr\n      and\n        /* \"contracts/poker.sol\":15145:15165  table.communityCards */\n      swap4\n      dup8\n      dup7\n      add\n        /* \"contracts/poker.sol\":15145:15168  table.communityCards[0] */\n      swap5\n        /* \"contracts/poker.sol\":729:25810  contract TexasHoldem {... */\n      dup6\n      sload\n      dup6\n      dup1\n        /* \"contracts/poker.sol\":15071:15077  tables */\n      0x00\n        /* \"contracts/poker.sol\":729:25810  contract TexasHoldem {... */\n      0x03\n      shl\n      swap4\n      and\n      dup4\n      shl\n      swap3\n      shl\n      not\n      and\n      or\n      dup6\n      sstore\n      dup4\n        /* \"contracts/poker.sol\":15240:15269  table.deck[table.deckIndex++] */\n      tag_835\n        /* \"contracts/poker.sol\":729:25810  contract TexasHoldem {... */\n      dup2\n      dup5\n      sload\n      and\n        /* \"contracts/poker.sol\":15251:15268  table.deckIndex++ */\n      dup3\n      tag_574\n      dup3\n      tag_36\n      jump\t// in\n        /* \"contracts/poker.sol\":15240:15269  table.deck[table.deckIndex++] */\n    tag_835:\n        /* \"contracts/poker.sol\":729:25810  contract TexasHoldem {... */\n      swap1\n      sload\n      swap1\n      0x03\n      shl\n      shr\n      and\n      dup6\n      sload\n      dup6\n      dup1\n      shl(0x03, 0x01)\n      swap4\n      and\n      dup4\n      shl\n      swap3\n      shl\n      not\n      and\n      or\n      dup6\n      sstore\n      dup4\n      dup3\n      sload\n      and\n        /* \"contracts/poker.sol\":15320:15337  table.deckIndex++ */\n      swap2\n      dup5\n      tag_576\n      dup5\n      tag_36\n      jump\t// in\n        /* \"contracts/poker.sol\":15309:15338  table.deck[table.deckIndex++] */\n    tag_832:\n        /* \"contracts/poker.sol\":729:25810  contract TexasHoldem {... */\n      swap1\n      sload\n      swap1\n      0x03\n      shl\n      shr\n      and\n      dup2\n      sload\n      0xff\n      dup1\n        /* \"contracts/poker.sol\":15115:15129  GamePhase.Flop */\n      0x02\n        /* \"contracts/poker.sol\":729:25810  contract TexasHoldem {... */\n      0x03\n      shl\n      swap4\n      and\n      dup4\n      shl\n      swap3\n      shl\n      not\n      and\n      or\n      swap1\n      sstore\n        /* \"contracts/poker.sol\":15096:15592  if (table.phase == GamePhase.Flop) {... */\n    tag_838:\n        /* \"contracts/poker.sol\":729:25810  contract TexasHoldem {... */\n      mload(0x40)\n        /* \"contracts/poker.sol\":15635:15655  table.communityCards */\n      swap3\n      dup4\n      swap2\n      add\n        /* \"contracts/poker.sol\":729:25810  contract TexasHoldem {... */\n      0xff\n      0x80\n      swap2\n      sload\n      dup2\n      dup2\n      and\n      dup5\n      mstore\n      dup2\n      dup2\n      0x08\n      shr\n      and\n      0x20\n      dup6\n      add\n      mstore\n      dup2\n      dup2\n      0x10\n      shr\n      and\n      0x40\n      dup6\n      add\n      mstore\n      dup2\n      dup2\n      0x18\n      shr\n      and\n      0x60\n      dup6\n      add\n      mstore\n      0x20\n      shr\n      and\n      swap2\n      add\n      mstore\n      jump\n    tag_829:\n        /* \"contracts/poker.sol\":15606:15656  CommunityCardsDealt(tableId, table.communityCards) */\n      log2\n        /* \"contracts/poker.sol\":14987:15663  function _dealCommunityCards(uint tableId) internal {... */\n      jump\t// out\n        /* \"contracts/poker.sol\":15096:15592  if (table.phase == GamePhase.Flop) {... */\n    tag_830:\n        /* \"contracts/poker.sol\":15374:15388  GamePhase.Turn */\n      0x03\n        /* \"contracts/poker.sol\":15359:15388  table.phase == GamePhase.Turn */\n      dup2\n      sub\n        /* \"contracts/poker.sol\":15374:15388  GamePhase.Turn */\n      tag_839\n      jumpi\n        /* \"contracts/poker.sol\":15441:15456  table.deckIndex */\n      pop\n        /* \"contracts/poker.sol\":729:25810  contract TexasHoldem {... */\n      0xff\n        /* \"contracts/poker.sol\":15430:15459  table.deck[table.deckIndex++] */\n      tag_841\n        /* \"contracts/poker.sol\":15441:15456  table.deckIndex */\n      0x0a\n      dup4\n      add\n        /* \"contracts/poker.sol\":729:25810  contract TexasHoldem {... */\n      dup3\n      dup2\n      sload\n      and\n        /* \"contracts/poker.sol\":15441:15458  table.deckIndex++ */\n      swap1\n      dup4\n      tag_842\n      dup4\n      tag_36\n      jump\t// in\n    tag_842:\n        /* \"contracts/poker.sol\":729:25810  contract TexasHoldem {... */\n      and\n      dup5\n      not\n      dup3\n      sload\n      and\n      or\n      swap1\n      sstore\n        /* \"contracts/poker.sol\":15430:15440  table.deck */\n      0x08\n      dup5\n      add\n        /* \"contracts/poker.sol\":15430:15459  table.deck[table.deckIndex++] */\n      tag_35\n      jump\t// in\n    tag_841:\n        /* \"contracts/poker.sol\":729:25810  contract TexasHoldem {... */\n      swap1\n      sload\n      swap1\n        /* \"contracts/poker.sol\":15374:15388  GamePhase.Turn */\n      0x03\n        /* \"contracts/poker.sol\":729:25810  contract TexasHoldem {... */\n      shl\n      shr\n      and\n        /* \"contracts/poker.sol\":15404:15424  table.communityCards */\n      dup4\n      dup3\n      add\n        /* \"contracts/poker.sol\":15404:15427  table.communityCards[3] */\n      swap1\n        /* \"contracts/poker.sol\":729:25810  contract TexasHoldem {... */\n      dup2\n      sload\n      0xff\n      dup1\n        /* \"contracts/poker.sol\":15374:15388  GamePhase.Turn */\n      0x03\n        /* \"contracts/poker.sol\":729:25810  contract TexasHoldem {... */\n      dup1\n      shl\n      swap4\n      and\n      dup4\n      shl\n      swap3\n      shl\n      not\n      and\n      or\n      swap1\n      sstore\n        /* \"contracts/poker.sol\":15096:15592  if (table.phase == GamePhase.Flop) {... */\n      jump(tag_838)\n        /* \"contracts/poker.sol\":15355:15592  if (table.phase == GamePhase.Turn) {... */\n    tag_839:\n        /* \"contracts/poker.sol\":15495:15510  GamePhase.River */\n      0x04\n        /* \"contracts/poker.sol\":15480:15510  table.phase == GamePhase.River */\n      sub\n        /* \"contracts/poker.sol\":15096:15592  if (table.phase == GamePhase.Flop) {... */\n      tag_838\n        /* \"contracts/poker.sol\":15476:15592  if (table.phase == GamePhase.River) {... */\n      jumpi\n        /* \"contracts/poker.sol\":729:25810  contract TexasHoldem {... */\n      0xff\n        /* \"contracts/poker.sol\":15552:15581  table.deck[table.deckIndex++] */\n      tag_846\n        /* \"contracts/poker.sol\":15563:15578  table.deckIndex */\n      0x0a\n      dup4\n      add\n        /* \"contracts/poker.sol\":729:25810  contract TexasHoldem {... */\n      dup3\n      dup2\n      sload\n      and\n        /* \"contracts/poker.sol\":15563:15580  table.deckIndex++ */\n      swap1\n      dup4\n      tag_842\n      dup4\n      tag_36\n      jump\t// in\n        /* \"contracts/poker.sol\":15552:15581  table.deck[table.deckIndex++] */\n    tag_846:\n        /* \"contracts/poker.sol\":729:25810  contract TexasHoldem {... */\n      swap1\n      sload\n      swap1\n        /* \"contracts/poker.sol\":15374:15388  GamePhase.Turn */\n      0x03\n        /* \"contracts/poker.sol\":729:25810  contract TexasHoldem {... */\n      shl\n      shr\n      and\n        /* \"contracts/poker.sol\":15526:15546  table.communityCards */\n      dup4\n      dup3\n      add\n        /* \"contracts/poker.sol\":15526:15549  table.communityCards[4] */\n      swap1\n        /* \"contracts/poker.sol\":729:25810  contract TexasHoldem {... */\n      dup2\n      sload\n      0xff\n      dup1\n        /* \"contracts/poker.sol\":15495:15510  GamePhase.River */\n      0x04\n        /* \"contracts/poker.sol\":729:25810  contract TexasHoldem {... */\n      0x03\n      shl\n      swap4\n      and\n      dup4\n      shl\n      swap3\n      shl\n      not\n      and\n      or\n      swap1\n      sstore\n        /* \"contracts/poker.sol\":15096:15592  if (table.phase == GamePhase.Flop) {... */\n      jump(tag_838)\n        /* \"contracts/poker.sol\":729:25810  contract TexasHoldem {... */\n    tag_48:\n      0xff\n      not(0x00)\n      swap2\n      and\n      add\n      swap1\n      0xff\n      dup3\n      gt\n      tag_198\n      jumpi\n      jump\t// out\n        /* \"contracts/poker.sol\":25303:25808  function _compareHands(... */\n    tag_49:\n      swap1\n        /* \"contracts/poker.sol\":729:25810  contract TexasHoldem {... */\n      dup2\n      mload\n      0x0a\n      dup2\n      lt\n      iszero\n      tag_91\n      jumpi\n      dup2\n      mload\n      swap1\n      0x0a\n      dup3\n      lt\n      iszero\n      tag_91\n      jumpi\n        /* \"contracts/poker.sol\":25448:25491  uint(hand1.handType) > uint(hand2.handType) */\n      gt\n        /* \"contracts/poker.sol\":25444:25501  if (uint(hand1.handType) > uint(hand2.handType)) return 1 */\n      tag_854\n      jumpi\n        /* \"contracts/poker.sol\":729:25810  contract TexasHoldem {... */\n      dup2\n      mload\n      0x0a\n      dup2\n      lt\n      iszero\n      tag_91\n      jumpi\n      dup2\n      mload\n      swap1\n      0x0a\n      dup3\n      lt\n      iszero\n      tag_91\n      jumpi\n        /* \"contracts/poker.sol\":25515:25558  uint(hand1.handType) < uint(hand2.handType) */\n      lt\n        /* \"contracts/poker.sol\":25511:25569  if (uint(hand1.handType) < uint(hand2.handType)) return -1 */\n      tag_860\n      jumpi\n        /* \"contracts/poker.sol\":729:25810  contract TexasHoldem {... */\n      0x00\n        /* \"contracts/poker.sol\":25625:25628  i++ */\n    tag_862:\n        /* \"contracts/poker.sol\":25601:25616  hand1.rankCards */\n      0x20\n      dup4\n      add\n      dup1\n      mload\n        /* \"contracts/poker.sol\":729:25810  contract TexasHoldem {... */\n      dup1\n      mload\n        /* \"contracts/poker.sol\":25597:25623  i < hand1.rankCards.length */\n      dup4\n      lt\n      iszero\n      tag_863\n      jumpi\n        /* \"contracts/poker.sol\":25648:25666  hand1.rankCards[i] */\n      dup3\n      tag_865\n      swap2\n      tag_45\n      jump\t// in\n    tag_865:\n        /* \"contracts/poker.sol\":729:25810  contract TexasHoldem {... */\n      mload\n        /* \"contracts/poker.sol\":25669:25684  hand2.rankCards */\n      swap1\n        /* \"contracts/poker.sol\":25601:25616  hand1.rankCards */\n      0x20\n        /* \"contracts/poker.sol\":25669:25684  hand2.rankCards */\n      dup5\n      add\n      swap2\n        /* \"contracts/poker.sol\":25669:25687  hand2.rankCards[i] */\n      tag_866\n        /* \"contracts/poker.sol\":25669:25684  hand2.rankCards */\n      dup5\n      dup5\n      mload\n        /* \"contracts/poker.sol\":25669:25687  hand2.rankCards[i] */\n      tag_45\n      jump\t// in\n    tag_866:\n        /* \"contracts/poker.sol\":729:25810  contract TexasHoldem {... */\n      mload\n      lt\n        /* \"contracts/poker.sol\":25644:25697  if (hand1.rankCards[i] > hand2.rankCards[i]) return 1 */\n      tag_867\n      jumpi\n        /* \"contracts/poker.sol\":25715:25730  hand1.rankCards */\n      dup3\n        /* \"contracts/poker.sol\":25715:25733  hand1.rankCards[i] */\n      tag_869\n        /* \"contracts/poker.sol\":25715:25730  hand1.rankCards */\n      dup2\n        /* \"contracts/poker.sol\":25736:25754  hand2.rankCards[i] */\n      tag_870\n        /* \"contracts/poker.sol\":25715:25730  hand1.rankCards */\n      swap4\n      mload\n        /* \"contracts/poker.sol\":25715:25733  hand1.rankCards[i] */\n      tag_45\n      jump\t// in\n    tag_869:\n        /* \"contracts/poker.sol\":729:25810  contract TexasHoldem {... */\n      mload\n        /* \"contracts/poker.sol\":25736:25751  hand2.rankCards */\n      swap3\n      mload\n        /* \"contracts/poker.sol\":25736:25754  hand2.rankCards[i] */\n      tag_45\n      jump\t// in\n    tag_870:\n        /* \"contracts/poker.sol\":729:25810  contract TexasHoldem {... */\n      mload\n      gt\n        /* \"contracts/poker.sol\":25711:25765  if (hand1.rankCards[i] < hand2.rankCards[i]) return -1 */\n      tag_871\n      jumpi\n        /* \"contracts/poker.sol\":729:25810  contract TexasHoldem {... */\n      0x01\n      add\n        /* \"contracts/poker.sol\":25585:25595  uint i = 0 */\n      jump(tag_862)\n        /* \"contracts/poker.sol\":25711:25765  if (hand1.rankCards[i] < hand2.rankCards[i]) return -1 */\n    tag_871:\n        /* \"contracts/poker.sol\":729:25810  contract TexasHoldem {... */\n      pop\n      pop\n      pop\n      not(0x00)\n        /* \"contracts/poker.sol\":25756:25765  return -1 */\n      swap1\n      jump\t// out\n        /* \"contracts/poker.sol\":25644:25697  if (hand1.rankCards[i] > hand2.rankCards[i]) return 1 */\n    tag_867:\n        /* \"contracts/poker.sol\":25689:25697  return 1 */\n      pop\n      pop\n      pop\n      pop\n      pop\n        /* \"contracts/poker.sol\":729:25810  contract TexasHoldem {... */\n      0x01\n        /* \"contracts/poker.sol\":25689:25697  return 1 */\n      swap1\n      jump\t// out\n        /* \"contracts/poker.sol\":25597:25623  i < hand1.rankCards.length */\n    tag_863:\n      pop\n      pop\n      pop\n      pop\n      pop\n        /* \"contracts/poker.sol\":729:25810  contract TexasHoldem {... */\n      0x00\n        /* \"contracts/poker.sol\":25303:25808  function _compareHands(... */\n      swap1\n      jump\t// out\n        /* \"contracts/poker.sol\":25511:25569  if (uint(hand1.handType) < uint(hand2.handType)) return -1 */\n    tag_860:\n        /* \"contracts/poker.sol\":729:25810  contract TexasHoldem {... */\n      pop\n      pop\n      not(0x00)\n        /* \"contracts/poker.sol\":25560:25569  return -1 */\n      swap1\n      jump\t// out\n        /* \"contracts/poker.sol\":25444:25501  if (uint(hand1.handType) > uint(hand2.handType)) return 1 */\n    tag_854:\n        /* \"contracts/poker.sol\":25493:25501  return 1 */\n      pop\n      pop\n        /* \"contracts/poker.sol\":25500:25501  1 */\n      0x01\n        /* \"contracts/poker.sol\":25493:25501  return 1 */\n      swap1\n      jump\t// out\n        /* \"contracts/poker.sol\":22366:24902  function _evaluate5CardHand(... */\n    tag_50:\n        /* \"contracts/poker.sol\":729:25810  contract TexasHoldem {... */\n      tag_873\n      tag_26\n      jump\t// in\n    tag_873:\n        /* \"contracts/poker.sol\":22535:22545  uint i = 0 */\n      pop\n        /* \"contracts/poker.sol\":22544:22545  0 */\n      0x00\n        /* \"contracts/poker.sol\":22547:22552  i < 4 */\n    tag_874:\n        /* \"contracts/poker.sol\":22551:22552  4 */\n      0x04\n        /* \"contracts/poker.sol\":22547:22552  i < 4 */\n      dup2\n      lt\n      tag_875\n      jumpi\n        /* \"contracts/poker.sol\":729:25810  contract TexasHoldem {... */\n      pop\n      0xc0\n      mload(0x40)\n      swap2\n      tag_877\n      dup3\n      dup5\n      tag_18\n      jump\t// in\n    tag_877:\n        /* \"contracts/poker.sol\":22598:22599  5 */\n      0x05\n        /* \"contracts/poker.sol\":729:25810  contract TexasHoldem {... */\n      dup4\n      mstore\n      0xa0\n      calldatasize\n      0x20\n      dup6\n      add\n      calldatacopy\n      mload(0x40)\n      swap2\n      tag_878\n      dup2\n      dup5\n      tag_18\n      jump\t// in\n    tag_878:\n        /* \"contracts/poker.sol\":22598:22599  5 */\n      0x05\n        /* \"contracts/poker.sol\":729:25810  contract TexasHoldem {... */\n      dup4\n      mstore\n      pop\n      0xa0\n      calldatasize\n      0x20\n      dup5\n      add\n      calldatacopy\n        /* \"contracts/poker.sol\":22544:22545  0 */\n      0x00\n        /* \"contracts/poker.sol\":22874:22879  i < 5 */\n    tag_879:\n        /* \"contracts/poker.sol\":22598:22599  5 */\n      0x05\n        /* \"contracts/poker.sol\":22874:22879  i < 5 */\n      dup2\n      lt\n      tag_880\n      jumpi\n      pop\n      pop\n        /* \"contracts/poker.sol\":729:25810  contract TexasHoldem {... */\n      mload(0x40)\n      swap1\n      0x01c0\n      tag_882\n      dup2\n      dup5\n      tag_18\n      jump\t// in\n    tag_882:\n        /* \"contracts/poker.sol\":22928:22930  13 */\n      0x0d\n        /* \"contracts/poker.sol\":729:25810  contract TexasHoldem {... */\n      dup4\n      mstore\n      not(0x1f)\n      add\n      calldatasize\n      0x20\n      dup5\n      add\n      calldatacopy\n        /* \"contracts/poker.sol\":22544:22545  0 */\n      0x00\n        /* \"contracts/poker.sol\":23063:23068  i < 5 */\n    tag_883:\n        /* \"contracts/poker.sol\":22598:22599  5 */\n      0x05\n        /* \"contracts/poker.sol\":23063:23068  i < 5 */\n      dup2\n      lt\n      tag_884\n      jumpi\n        /* \"contracts/poker.sol\":23148:23156  suits[0] */\n      pop\n      tag_886\n      dup2\n      tag_40\n      jump\t// in\n    tag_886:\n        /* \"contracts/poker.sol\":729:25810  contract TexasHoldem {... */\n      mload\n        /* \"contracts/poker.sol\":23160:23168  suits[1] */\n      tag_887\n      dup3\n      tag_41\n      jump\t// in\n    tag_887:\n        /* \"contracts/poker.sol\":729:25810  contract TexasHoldem {... */\n      mload\n        /* \"contracts/poker.sol\":23148:23168  suits[0] == suits[1] */\n      eq\n        /* \"contracts/poker.sol\":23148:23204  suits[0] == suits[1] &&... */\n      swap1\n      dup2\n      tag_888\n      jumpi\n        /* \"contracts/poker.sol\":23046:23122  for (uint i = 0; i < 5; i++) {... */\n    tag_889:\n        /* \"contracts/poker.sol\":23148:23240  suits[0] == suits[1] &&... */\n      dup2\n      tag_890\n      jumpi\n        /* \"contracts/poker.sol\":23046:23122  for (uint i = 0; i < 5; i++) {... */\n    tag_891:\n        /* \"contracts/poker.sol\":23148:23276  suits[0] == suits[1] &&... */\n      dup2\n      tag_892\n      jumpi\n        /* \"contracts/poker.sol\":23046:23122  for (uint i = 0; i < 5; i++) {... */\n    tag_893:\n        /* \"contracts/poker.sol\":23306:23314  ranks[0] */\n      pop\n      tag_894\n      dup4\n      tag_40\n      jump\t// in\n    tag_894:\n        /* \"contracts/poker.sol\":729:25810  contract TexasHoldem {... */\n      mload\n        /* \"contracts/poker.sol\":22591:22592  1 */\n      0x01\n        /* \"contracts/poker.sol\":729:25810  contract TexasHoldem {... */\n      dup2\n      add\n      dup1\n      swap2\n      gt\n      tag_198\n      jumpi\n        /* \"contracts/poker.sol\":23322:23330  ranks[1] */\n      tag_897\n      dup5\n      tag_41\n      jump\t// in\n    tag_897:\n        /* \"contracts/poker.sol\":729:25810  contract TexasHoldem {... */\n      mload\n        /* \"contracts/poker.sol\":23306:23330  ranks[0] + 1 == ranks[1] */\n      eq\n        /* \"contracts/poker.sol\":23306:23370  ranks[0] + 1 == ranks[1] &&... */\n      dup1\n      tag_898\n      jumpi\n        /* \"contracts/poker.sol\":23046:23122  for (uint i = 0; i < 5; i++) {... */\n    tag_899:\n        /* \"contracts/poker.sol\":23306:23410  ranks[0] + 1 == ranks[1] &&... */\n      dup1\n      tag_900\n      jumpi\n        /* \"contracts/poker.sol\":23046:23122  for (uint i = 0; i < 5; i++) {... */\n    tag_901:\n        /* \"contracts/poker.sol\":23306:23450  ranks[0] + 1 == ranks[1] &&... */\n      dup1\n      tag_902\n      jumpi\n        /* \"contracts/poker.sol\":23046:23122  for (uint i = 0; i < 5; i++) {... */\n    tag_903:\n        /* \"contracts/poker.sol\":23466:23487  isStraight && isFlush */\n      dup1\n      dup1\n      tag_904\n      jumpi\n        /* \"contracts/poker.sol\":23046:23122  for (uint i = 0; i < 5; i++) {... */\n    tag_905:\n        /* \"contracts/poker.sol\":23462:23737  if (isStraight && isFlush) {... */\n      tag_906\n      jumpi\n        /* \"contracts/poker.sol\":22544:22545  0 */\n      0x00\n        /* \"contracts/poker.sol\":23774:23791  uint numTrips = 0 */\n      swap3\n        /* \"contracts/poker.sol\":22544:22545  0 */\n      0x00\n        /* \"contracts/poker.sol\":23801:23818  uint numQuads = 0 */\n      swap1\n        /* \"contracts/poker.sol\":22544:22545  0 */\n      0x00\n        /* \"contracts/poker.sol\":23933:23943  uint i = 0 */\n      swap1\n        /* \"contracts/poker.sol\":22544:22545  0 */\n      0x00\n        /* \"contracts/poker.sol\":23945:23951  i < 13 */\n    tag_908:\n        /* \"contracts/poker.sol\":22928:22930  13 */\n      0x0d\n        /* \"contracts/poker.sol\":23945:23951  i < 13 */\n      dup2\n      lt\n      tag_909\n      jumpi\n        /* \"contracts/poker.sol\":24127:24140  numQuads == 1 */\n      pop\n      pop\n        /* \"contracts/poker.sol\":22591:22592  1 */\n      0x01\n        /* \"contracts/poker.sol\":24127:24140  numQuads == 1 */\n      eq\n        /* \"contracts/poker.sol\":24123:24218  if (numQuads == 1)... */\n      tag_911\n      jumpi\n        /* \"contracts/poker.sol\":22591:22592  1 */\n      0x01\n        /* \"contracts/poker.sol\":24232:24245  numTrips == 1 */\n      eq\n      swap2\n      dup3\n      dup1\n        /* \"contracts/poker.sol\":24232:24262  numTrips == 1 && numPairs == 1 */\n      tag_913\n      jumpi\n        /* \"contracts/poker.sol\":23928:24113  for (uint i = 0; i < 13; i++) {... */\n    tag_914:\n        /* \"contracts/poker.sol\":24228:24338  if (numTrips == 1 && numPairs == 1)... */\n      tag_915\n      jumpi\n        /* \"contracts/poker.sol\":24348:24419  if (isFlush) return HandEvaluation(HandType.Flush, _sortedRanks(ranks)) */\n      tag_917\n      jumpi\n        /* \"contracts/poker.sol\":24429:24518  if (isStraight)... */\n      tag_919\n      jumpi\n        /* \"contracts/poker.sol\":24528:24624  if (numTrips == 1)... */\n      tag_921\n      jumpi\n        /* \"contracts/poker.sol\":23993:23994  2 */\n      0x02\n        /* \"contracts/poker.sol\":24638:24651  numPairs == 2 */\n      dup2\n      eq\n        /* \"contracts/poker.sol\":24634:24725  if (numPairs == 2)... */\n      tag_923\n      jumpi\n        /* \"contracts/poker.sol\":22591:22592  1 */\n      0x01\n        /* \"contracts/poker.sol\":24739:24752  numPairs == 1 */\n      eq\n        /* \"contracts/poker.sol\":24735:24823  if (numPairs == 1)... */\n      tag_925\n      jumpi\n        /* \"contracts/poker.sol\":24875:24894  _sortedRanks(ranks) */\n      tag_927\n      swap1\n      tag_51\n      jump\t// in\n    tag_927:\n        /* \"contracts/poker.sol\":729:25810  contract TexasHoldem {... */\n      mload(0x40)\n      swap1\n      tag_928\n      dup3\n      tag_15\n      jump\t// in\n    tag_928:\n        /* \"contracts/poker.sol\":22544:22545  0 */\n      0x00\n        /* \"contracts/poker.sol\":729:25810  contract TexasHoldem {... */\n      dup3\n      mstore\n      0x20\n        /* \"contracts/poker.sol\":24841:24895  HandEvaluation(HandType.HighCard, _sortedRanks(ranks)) */\n      dup3\n      add\n        /* \"contracts/poker.sol\":729:25810  contract TexasHoldem {... */\n      mstore\n        /* \"contracts/poker.sol\":22366:24902  function _evaluate5CardHand(... */\n      swap1\n      jump\t// out\n        /* \"contracts/poker.sol\":24735:24823  if (numPairs == 1)... */\n    tag_925:\n        /* \"contracts/poker.sol\":24803:24822  _sortedRanks(ranks) */\n      tag_929\n      swap1\n      tag_51\n      jump\t// in\n    tag_929:\n        /* \"contracts/poker.sol\":729:25810  contract TexasHoldem {... */\n      mload(0x40)\n      swap1\n      tag_930\n      dup3\n      tag_15\n      jump\t// in\n    tag_930:\n        /* \"contracts/poker.sol\":22591:22592  1 */\n      0x01\n        /* \"contracts/poker.sol\":729:25810  contract TexasHoldem {... */\n      dup3\n      mstore\n      0x20\n        /* \"contracts/poker.sol\":24773:24823  HandEvaluation(HandType.Pair, _sortedRanks(ranks)) */\n      dup3\n      add\n        /* \"contracts/poker.sol\":729:25810  contract TexasHoldem {... */\n      mstore\n        /* \"contracts/poker.sol\":24766:24823  return HandEvaluation(HandType.Pair, _sortedRanks(ranks)) */\n      swap1\n      jump\t// out\n        /* \"contracts/poker.sol\":24634:24725  if (numPairs == 2)... */\n    tag_923:\n        /* \"contracts/poker.sol\":24705:24724  _sortedRanks(ranks) */\n      pop\n      tag_931\n      swap1\n      tag_51\n      jump\t// in\n    tag_931:\n        /* \"contracts/poker.sol\":729:25810  contract TexasHoldem {... */\n      mload(0x40)\n      swap1\n      tag_932\n      dup3\n      tag_15\n      jump\t// in\n    tag_932:\n        /* \"contracts/poker.sol\":23993:23994  2 */\n      0x02\n        /* \"contracts/poker.sol\":729:25810  contract TexasHoldem {... */\n      dup3\n      mstore\n      0x20\n        /* \"contracts/poker.sol\":24672:24725  HandEvaluation(HandType.TwoPair, _sortedRanks(ranks)) */\n      dup3\n      add\n        /* \"contracts/poker.sol\":729:25810  contract TexasHoldem {... */\n      mstore\n        /* \"contracts/poker.sol\":24665:24725  return HandEvaluation(HandType.TwoPair, _sortedRanks(ranks)) */\n      swap1\n      jump\t// out\n        /* \"contracts/poker.sol\":24528:24624  if (numTrips == 1)... */\n    tag_921:\n        /* \"contracts/poker.sol\":24604:24623  _sortedRanks(ranks) */\n      pop\n      tag_933\n      swap1\n      tag_51\n      jump\t// in\n    tag_933:\n        /* \"contracts/poker.sol\":729:25810  contract TexasHoldem {... */\n      mload(0x40)\n      swap1\n      tag_934\n      dup3\n      tag_15\n      jump\t// in\n    tag_934:\n        /* \"contracts/poker.sol\":24041:24042  3 */\n      0x03\n        /* \"contracts/poker.sol\":729:25810  contract TexasHoldem {... */\n      dup3\n      mstore\n      0x20\n        /* \"contracts/poker.sol\":24566:24624  HandEvaluation(HandType.ThreeOfAKind, _sortedRanks(ranks)) */\n      dup3\n      add\n        /* \"contracts/poker.sol\":729:25810  contract TexasHoldem {... */\n      mstore\n        /* \"contracts/poker.sol\":24559:24624  return HandEvaluation(HandType.ThreeOfAKind, _sortedRanks(ranks)) */\n      swap1\n      jump\t// out\n        /* \"contracts/poker.sol\":24429:24518  if (isStraight)... */\n    tag_919:\n        /* \"contracts/poker.sol\":24498:24517  _sortedRanks(ranks) */\n      pop\n      pop\n      tag_935\n      swap1\n      tag_51\n      jump\t// in\n    tag_935:\n        /* \"contracts/poker.sol\":729:25810  contract TexasHoldem {... */\n      mload(0x40)\n      swap1\n      tag_936\n      dup3\n      tag_15\n      jump\t// in\n    tag_936:\n        /* \"contracts/poker.sol\":22551:22552  4 */\n      0x04\n        /* \"contracts/poker.sol\":729:25810  contract TexasHoldem {... */\n      dup3\n      mstore\n      0x20\n        /* \"contracts/poker.sol\":24464:24518  HandEvaluation(HandType.Straight, _sortedRanks(ranks)) */\n      dup3\n      add\n        /* \"contracts/poker.sol\":729:25810  contract TexasHoldem {... */\n      mstore\n        /* \"contracts/poker.sol\":24457:24518  return HandEvaluation(HandType.Straight, _sortedRanks(ranks)) */\n      swap1\n      jump\t// out\n        /* \"contracts/poker.sol\":24348:24419  if (isFlush) return HandEvaluation(HandType.Flush, _sortedRanks(ranks)) */\n    tag_917:\n        /* \"contracts/poker.sol\":24399:24418  _sortedRanks(ranks) */\n      pop\n      pop\n      pop\n      tag_937\n      swap1\n      tag_51\n      jump\t// in\n    tag_937:\n        /* \"contracts/poker.sol\":729:25810  contract TexasHoldem {... */\n      mload(0x40)\n      swap1\n      tag_938\n      dup3\n      tag_15\n      jump\t// in\n    tag_938:\n        /* \"contracts/poker.sol\":22598:22599  5 */\n      0x05\n        /* \"contracts/poker.sol\":729:25810  contract TexasHoldem {... */\n      dup3\n      mstore\n      0x20\n        /* \"contracts/poker.sol\":24368:24419  HandEvaluation(HandType.Flush, _sortedRanks(ranks)) */\n      dup3\n      add\n        /* \"contracts/poker.sol\":729:25810  contract TexasHoldem {... */\n      mstore\n        /* \"contracts/poker.sol\":24361:24419  return HandEvaluation(HandType.Flush, _sortedRanks(ranks)) */\n      swap1\n      jump\t// out\n        /* \"contracts/poker.sol\":24228:24338  if (numTrips == 1 && numPairs == 1)... */\n    tag_915:\n        /* \"contracts/poker.sol\":24318:24337  _sortedRanks(ranks) */\n      pop\n      pop\n      pop\n      pop\n      tag_939\n      swap1\n      tag_51\n      jump\t// in\n    tag_939:\n        /* \"contracts/poker.sol\":729:25810  contract TexasHoldem {... */\n      mload(0x40)\n      swap1\n      tag_940\n      dup3\n      tag_15\n      jump\t// in\n    tag_940:\n        /* \"contracts/poker.sol\":24298:24316  HandType.FullHouse */\n      0x06\n        /* \"contracts/poker.sol\":729:25810  contract TexasHoldem {... */\n      dup3\n      mstore\n      0x20\n        /* \"contracts/poker.sol\":24283:24338  HandEvaluation(HandType.FullHouse, _sortedRanks(ranks)) */\n      dup3\n      add\n        /* \"contracts/poker.sol\":729:25810  contract TexasHoldem {... */\n      mstore\n        /* \"contracts/poker.sol\":24276:24338  return HandEvaluation(HandType.FullHouse, _sortedRanks(ranks)) */\n      swap1\n      jump\t// out\n        /* \"contracts/poker.sol\":24232:24262  numTrips == 1 && numPairs == 1 */\n    tag_913:\n        /* \"contracts/poker.sol\":24249:24262  numPairs == 1 */\n      pop\n        /* \"contracts/poker.sol\":22591:22592  1 */\n      0x01\n        /* \"contracts/poker.sol\":24249:24262  numPairs == 1 */\n      dup5\n      eq\n        /* \"contracts/poker.sol\":24232:24262  numTrips == 1 && numPairs == 1 */\n      jump(tag_914)\n        /* \"contracts/poker.sol\":24123:24218  if (numQuads == 1)... */\n    tag_911:\n        /* \"contracts/poker.sol\":24198:24217  _sortedRanks(ranks) */\n      pop\n      pop\n      pop\n      pop\n      tag_941\n      swap1\n      tag_51\n      jump\t// in\n    tag_941:\n        /* \"contracts/poker.sol\":729:25810  contract TexasHoldem {... */\n      mload(0x40)\n      swap1\n      tag_942\n      dup3\n      tag_15\n      jump\t// in\n    tag_942:\n        /* \"contracts/poker.sol\":24176:24196  HandType.FourOfAKind */\n      0x07\n        /* \"contracts/poker.sol\":729:25810  contract TexasHoldem {... */\n      dup3\n      mstore\n      0x20\n        /* \"contracts/poker.sol\":24161:24218  HandEvaluation(HandType.FourOfAKind, _sortedRanks(ranks)) */\n      dup3\n      add\n        /* \"contracts/poker.sol\":729:25810  contract TexasHoldem {... */\n      mstore\n        /* \"contracts/poker.sol\":24154:24218  return HandEvaluation(HandType.FourOfAKind, _sortedRanks(ranks)) */\n      swap1\n      jump\t// out\n        /* \"contracts/poker.sol\":23953:23956  i++ */\n    tag_909:\n        /* \"contracts/poker.sol\":23993:23994  2 */\n      0x02\n        /* \"contracts/poker.sol\":23976:23989  rankCounts[i] */\n      tag_943\n      dup3\n      dup5\n      tag_45\n      jump\t// in\n    tag_943:\n        /* \"contracts/poker.sol\":729:25810  contract TexasHoldem {... */\n      mload\n        /* \"contracts/poker.sol\":23976:23994  rankCounts[i] == 2 */\n      eq\n        /* \"contracts/poker.sol\":23972:24006  if (rankCounts[i] == 2) numPairs++ */\n      tag_944\n      jumpi\n        /* \"contracts/poker.sol\":23953:23956  i++ */\n    tag_945:\n        /* \"contracts/poker.sol\":24041:24042  3 */\n      0x03\n        /* \"contracts/poker.sol\":24024:24037  rankCounts[i] */\n      tag_946\n      dup3\n      dup5\n      tag_45\n      jump\t// in\n    tag_946:\n        /* \"contracts/poker.sol\":729:25810  contract TexasHoldem {... */\n      mload\n        /* \"contracts/poker.sol\":24024:24042  rankCounts[i] == 3 */\n      eq\n        /* \"contracts/poker.sol\":24020:24054  if (rankCounts[i] == 3) numTrips++ */\n      tag_947\n      jumpi\n        /* \"contracts/poker.sol\":23953:23956  i++ */\n    tag_948:\n        /* \"contracts/poker.sol\":22551:22552  4 */\n      0x04\n        /* \"contracts/poker.sol\":24072:24085  rankCounts[i] */\n      tag_949\n      dup3\n      dup5\n      tag_45\n      jump\t// in\n    tag_949:\n        /* \"contracts/poker.sol\":729:25810  contract TexasHoldem {... */\n      mload\n        /* \"contracts/poker.sol\":24072:24090  rankCounts[i] == 4 */\n      eq\n        /* \"contracts/poker.sol\":24068:24102  if (rankCounts[i] == 4) numQuads++ */\n      tag_950\n      jumpi\n        /* \"contracts/poker.sol\":23953:23956  i++ */\n    tag_951:\n        /* \"contracts/poker.sol\":22591:22592  1 */\n      0x01\n        /* \"contracts/poker.sol\":729:25810  contract TexasHoldem {... */\n      add\n        /* \"contracts/poker.sol\":23933:23943  uint i = 0 */\n      jump(tag_908)\n        /* \"contracts/poker.sol\":24068:24102  if (rankCounts[i] == 4) numQuads++ */\n    tag_950:\n        /* \"contracts/poker.sol\":24092:24102  numQuads++ */\n      swap2\n      tag_952\n        /* \"contracts/poker.sol\":22591:22592  1 */\n      0x01\n        /* \"contracts/poker.sol\":24092:24102  numQuads++ */\n      swap2\n      tag_46\n      jump\t// in\n    tag_952:\n        /* \"contracts/poker.sol\":24068:24102  if (rankCounts[i] == 4) numQuads++ */\n      swap3\n      swap1\n      pop\n      jump(tag_951)\n        /* \"contracts/poker.sol\":24020:24054  if (rankCounts[i] == 3) numTrips++ */\n    tag_947:\n        /* \"contracts/poker.sol\":24044:24054  numTrips++ */\n      swap3\n      tag_953\n      swap1\n      tag_46\n      jump\t// in\n    tag_953:\n        /* \"contracts/poker.sol\":24020:24054  if (rankCounts[i] == 3) numTrips++ */\n      swap3\n      jump(tag_948)\n        /* \"contracts/poker.sol\":23972:24006  if (rankCounts[i] == 2) numPairs++ */\n    tag_944:\n        /* \"contracts/poker.sol\":23996:24006  numPairs++ */\n      swap6\n      tag_954\n      swap1\n      tag_46\n      jump\t// in\n    tag_954:\n        /* \"contracts/poker.sol\":23972:24006  if (rankCounts[i] == 2) numPairs++ */\n      swap6\n      jump(tag_945)\n        /* \"contracts/poker.sol\":23462:23737  if (isStraight && isFlush) {... */\n    tag_906:\n        /* \"contracts/poker.sol\":23507:23515  ranks[4] */\n      pop\n      pop\n      pop\n        /* \"contracts/poker.sol\":23519:23521  12 */\n      0x0c\n        /* \"contracts/poker.sol\":23507:23515  ranks[4] */\n      tag_955\n      dup3\n      tag_44\n      jump\t// in\n    tag_955:\n        /* \"contracts/poker.sol\":729:25810  contract TexasHoldem {... */\n      mload\n        /* \"contracts/poker.sol\":23507:23521  ranks[4] == 12 */\n      eq\n        /* \"contracts/poker.sol\":23503:23647  if (ranks[4] == 12) {... */\n      tag_956\n      jumpi\n        /* \"contracts/poker.sol\":23706:23725  _sortedRanks(ranks) */\n      tag_958\n      swap1\n      tag_51\n      jump\t// in\n    tag_958:\n        /* \"contracts/poker.sol\":729:25810  contract TexasHoldem {... */\n      mload(0x40)\n      swap1\n      tag_959\n      dup3\n      tag_15\n      jump\t// in\n    tag_959:\n        /* \"contracts/poker.sol\":23682:23704  HandType.StraightFlush */\n      0x08\n        /* \"contracts/poker.sol\":729:25810  contract TexasHoldem {... */\n      dup3\n      mstore\n      0x20\n        /* \"contracts/poker.sol\":23667:23726  HandEvaluation(HandType.StraightFlush, _sortedRanks(ranks)) */\n      dup3\n      add\n        /* \"contracts/poker.sol\":729:25810  contract TexasHoldem {... */\n      mstore\n        /* \"contracts/poker.sol\":23660:23726  return HandEvaluation(HandType.StraightFlush, _sortedRanks(ranks)) */\n      swap1\n      jump\t// out\n        /* \"contracts/poker.sol\":23503:23647  if (ranks[4] == 12) {... */\n    tag_956:\n        /* \"contracts/poker.sol\":23612:23631  _sortedRanks(ranks) */\n      tag_960\n      swap1\n      tag_51\n      jump\t// in\n    tag_960:\n        /* \"contracts/poker.sol\":729:25810  contract TexasHoldem {... */\n      mload(0x40)\n      swap1\n      tag_961\n      dup3\n      tag_15\n      jump\t// in\n    tag_961:\n        /* \"contracts/poker.sol\":23591:23610  HandType.RoyalFlush */\n      0x09\n        /* \"contracts/poker.sol\":729:25810  contract TexasHoldem {... */\n      dup3\n      mstore\n      0x20\n        /* \"contracts/poker.sol\":23576:23632  HandEvaluation(HandType.RoyalFlush, _sortedRanks(ranks)) */\n      dup3\n      add\n        /* \"contracts/poker.sol\":729:25810  contract TexasHoldem {... */\n      mstore\n        /* \"contracts/poker.sol\":23569:23632  return HandEvaluation(HandType.RoyalFlush, _sortedRanks(ranks)) */\n      swap1\n      jump\t// out\n        /* \"contracts/poker.sol\":23466:23487  isStraight && isFlush */\n    tag_904:\n      pop\n      dup2\n      jump(tag_905)\n        /* \"contracts/poker.sol\":23306:23450  ranks[0] + 1 == ranks[1] &&... */\n    tag_902:\n        /* \"contracts/poker.sol\":23426:23434  ranks[3] */\n      pop\n      tag_962\n      dup4\n      tag_43\n      jump\t// in\n    tag_962:\n        /* \"contracts/poker.sol\":729:25810  contract TexasHoldem {... */\n      mload\n        /* \"contracts/poker.sol\":22591:22592  1 */\n      0x01\n        /* \"contracts/poker.sol\":729:25810  contract TexasHoldem {... */\n      dup2\n      add\n      dup1\n      swap2\n      gt\n      tag_198\n      jumpi\n        /* \"contracts/poker.sol\":23442:23450  ranks[4] */\n      tag_965\n      dup5\n      tag_44\n      jump\t// in\n    tag_965:\n        /* \"contracts/poker.sol\":729:25810  contract TexasHoldem {... */\n      mload\n        /* \"contracts/poker.sol\":23426:23450  ranks[3] + 1 == ranks[4] */\n      eq\n        /* \"contracts/poker.sol\":23306:23450  ranks[0] + 1 == ranks[1] &&... */\n      jump(tag_903)\n        /* \"contracts/poker.sol\":23306:23410  ranks[0] + 1 == ranks[1] &&... */\n    tag_900:\n        /* \"contracts/poker.sol\":23386:23394  ranks[2] */\n      pop\n      tag_966\n      dup4\n      tag_42\n      jump\t// in\n    tag_966:\n        /* \"contracts/poker.sol\":729:25810  contract TexasHoldem {... */\n      mload\n        /* \"contracts/poker.sol\":22591:22592  1 */\n      0x01\n        /* \"contracts/poker.sol\":729:25810  contract TexasHoldem {... */\n      dup2\n      add\n      dup1\n      swap2\n      gt\n      tag_198\n      jumpi\n        /* \"contracts/poker.sol\":23402:23410  ranks[3] */\n      tag_969\n      dup5\n      tag_43\n      jump\t// in\n    tag_969:\n        /* \"contracts/poker.sol\":729:25810  contract TexasHoldem {... */\n      mload\n        /* \"contracts/poker.sol\":23386:23410  ranks[2] + 1 == ranks[3] */\n      eq\n        /* \"contracts/poker.sol\":23306:23410  ranks[0] + 1 == ranks[1] &&... */\n      jump(tag_901)\n        /* \"contracts/poker.sol\":23306:23370  ranks[0] + 1 == ranks[1] &&... */\n    tag_898:\n        /* \"contracts/poker.sol\":23346:23354  ranks[1] */\n      pop\n      tag_970\n      dup4\n      tag_41\n      jump\t// in\n    tag_970:\n        /* \"contracts/poker.sol\":729:25810  contract TexasHoldem {... */\n      mload\n        /* \"contracts/poker.sol\":22591:22592  1 */\n      0x01\n        /* \"contracts/poker.sol\":729:25810  contract TexasHoldem {... */\n      dup2\n      add\n      dup1\n      swap2\n      gt\n      tag_198\n      jumpi\n        /* \"contracts/poker.sol\":23362:23370  ranks[2] */\n      tag_973\n      dup5\n      tag_42\n      jump\t// in\n    tag_973:\n        /* \"contracts/poker.sol\":729:25810  contract TexasHoldem {... */\n      mload\n        /* \"contracts/poker.sol\":23346:23370  ranks[1] + 1 == ranks[2] */\n      eq\n        /* \"contracts/poker.sol\":23306:23370  ranks[0] + 1 == ranks[1] &&... */\n      jump(tag_899)\n        /* \"contracts/poker.sol\":23148:23276  suits[0] == suits[1] &&... */\n    tag_892:\n        /* \"contracts/poker.sol\":23256:23264  suits[3] */\n      swap1\n      pop\n        /* \"contracts/poker.sol\":23268:23276  suits[4] */\n      tag_974\n        /* \"contracts/poker.sol\":23256:23264  suits[3] */\n      tag_975\n      dup3\n      tag_43\n      jump\t// in\n    tag_975:\n        /* \"contracts/poker.sol\":729:25810  contract TexasHoldem {... */\n      mload\n        /* \"contracts/poker.sol\":23268:23276  suits[4] */\n      swap2\n      tag_44\n      jump\t// in\n    tag_974:\n        /* \"contracts/poker.sol\":729:25810  contract TexasHoldem {... */\n      mload\n        /* \"contracts/poker.sol\":23256:23276  suits[3] == suits[4] */\n      eq\n        /* \"contracts/poker.sol\":23148:23276  suits[0] == suits[1] &&... */\n      0x00\n      jump(tag_893)\n        /* \"contracts/poker.sol\":23148:23240  suits[0] == suits[1] &&... */\n    tag_890:\n        /* \"contracts/poker.sol\":23220:23228  suits[2] */\n      swap1\n      pop\n      tag_976\n      dup2\n      tag_42\n      jump\t// in\n    tag_976:\n        /* \"contracts/poker.sol\":729:25810  contract TexasHoldem {... */\n      mload\n        /* \"contracts/poker.sol\":23232:23240  suits[3] */\n      tag_977\n      dup3\n      tag_43\n      jump\t// in\n    tag_977:\n        /* \"contracts/poker.sol\":729:25810  contract TexasHoldem {... */\n      mload\n        /* \"contracts/poker.sol\":23220:23240  suits[2] == suits[3] */\n      eq\n        /* \"contracts/poker.sol\":23148:23240  suits[0] == suits[1] &&... */\n      swap1\n      jump(tag_891)\n        /* \"contracts/poker.sol\":23148:23204  suits[0] == suits[1] &&... */\n    tag_888:\n        /* \"contracts/poker.sol\":23184:23192  suits[1] */\n      swap1\n      pop\n      tag_978\n      dup2\n      tag_41\n      jump\t// in\n    tag_978:\n        /* \"contracts/poker.sol\":729:25810  contract TexasHoldem {... */\n      mload\n        /* \"contracts/poker.sol\":23196:23204  suits[2] */\n      tag_979\n      dup3\n      tag_42\n      jump\t// in\n    tag_979:\n        /* \"contracts/poker.sol\":729:25810  contract TexasHoldem {... */\n      mload\n        /* \"contracts/poker.sol\":23184:23204  suits[1] == suits[2] */\n      eq\n        /* \"contracts/poker.sol\":23148:23204  suits[0] == suits[1] &&... */\n      swap1\n      jump(tag_889)\n        /* \"contracts/poker.sol\":23070:23073  i++ */\n    tag_884:\n        /* \"contracts/poker.sol\":23100:23108  ranks[i] */\n      dup1\n      tag_980\n        /* \"contracts/poker.sol\":22591:22592  1 */\n      0x01\n        /* \"contracts/poker.sol\":23100:23108  ranks[i] */\n      swap3\n      dup7\n      tag_45\n      jump\t// in\n    tag_980:\n        /* \"contracts/poker.sol\":729:25810  contract TexasHoldem {... */\n      mload\n        /* \"contracts/poker.sol\":23089:23111  rankCounts[ranks[i]]++ */\n      tag_981\n      tag_982\n      tag_983\n      dup4\n      dup9\n      tag_45\n      jump\t// in\n    tag_983:\n        /* \"contracts/poker.sol\":729:25810  contract TexasHoldem {... */\n      mload\n        /* \"contracts/poker.sol\":23089:23111  rankCounts[ranks[i]]++ */\n      tag_46\n      jump\t// in\n    tag_982:\n      swap2\n      dup7\n      tag_45\n      jump\t// in\n    tag_981:\n        /* \"contracts/poker.sol\":729:25810  contract TexasHoldem {... */\n      mstore\n      add\n        /* \"contracts/poker.sol\":23051:23061  uint i = 0 */\n      jump(tag_883)\n        /* \"contracts/poker.sol\":22881:22884  i++ */\n    tag_880:\n        /* \"contracts/poker.sol\":22912:22920  cards[i] */\n      dup1\n        /* \"contracts/poker.sol\":729:25810  contract TexasHoldem {... */\n      0xff\n        /* \"contracts/poker.sol\":22928:22930  13 */\n      0x0d\n        /* \"contracts/poker.sol\":22912:22920  cards[i] */\n      dup2\n        /* \"contracts/poker.sol\":22912:22924  cards[i] - 1 */\n      tag_984\n        /* \"contracts/poker.sol\":22912:22920  cards[i] */\n      dup2\n      tag_762\n        /* \"contracts/poker.sol\":22591:22592  1 */\n      0x01\n        /* \"contracts/poker.sol\":22912:22920  cards[i] */\n      swap8\n      dup10\n      tag_45\n      jump\t// in\n        /* \"contracts/poker.sol\":22912:22924  cards[i] - 1 */\n    tag_984:\n        /* \"contracts/poker.sol\":729:25810  contract TexasHoldem {... */\n      and\n      mod\n      and\n        /* \"contracts/poker.sol\":22900:22930  ranks[i] = (cards[i] - 1) % 13 */\n      tag_986\n      dup3\n      dup8\n      tag_45\n      jump\t// in\n    tag_986:\n        /* \"contracts/poker.sol\":729:25810  contract TexasHoldem {... */\n      mstore\n      0xff\n        /* \"contracts/poker.sol\":22928:22930  13 */\n      0x0d\n        /* \"contracts/poker.sol\":22956:22964  cards[i] */\n      dup2\n        /* \"contracts/poker.sol\":22956:22968  cards[i] - 1 */\n      tag_987\n        /* \"contracts/poker.sol\":22956:22964  cards[i] */\n      dup2\n      tag_762\n      dup7\n      dup10\n      tag_45\n      jump\t// in\n        /* \"contracts/poker.sol\":22956:22968  cards[i] - 1 */\n    tag_987:\n        /* \"contracts/poker.sol\":729:25810  contract TexasHoldem {... */\n      and\n      div\n      and\n        /* \"contracts/poker.sol\":22944:22974  suits[i] = (cards[i] - 1) / 13 */\n      tag_989\n      dup3\n      dup7\n      tag_45\n      jump\t// in\n    tag_989:\n        /* \"contracts/poker.sol\":729:25810  contract TexasHoldem {... */\n      mstore\n      add\n        /* \"contracts/poker.sol\":22862:22872  uint i = 0 */\n      jump(tag_879)\n        /* \"contracts/poker.sol\":22554:22557  i++ */\n    tag_875:\n        /* \"contracts/poker.sol\":729:25810  contract TexasHoldem {... */\n      swap2\n      swap1\n        /* \"contracts/poker.sol\":22591:22592  1 */\n      0x01\n        /* \"contracts/poker.sol\":729:25810  contract TexasHoldem {... */\n      dup4\n      add\n      dup1\n      dup5\n      gt\n      tag_198\n      jumpi\n        /* \"contracts/poker.sol\":22594:22599  j < 5 */\n    tag_992:\n        /* \"contracts/poker.sol\":22598:22599  5 */\n      0x05\n        /* \"contracts/poker.sol\":22594:22599  j < 5 */\n      dup2\n      lt\n      tag_993\n      jumpi\n        /* \"contracts/poker.sol\":22554:22557  i++ */\n      pop\n      swap1\n      swap2\n        /* \"contracts/poker.sol\":22591:22592  1 */\n      0x01\n        /* \"contracts/poker.sol\":729:25810  contract TexasHoldem {... */\n      add\n        /* \"contracts/poker.sol\":22535:22545  uint i = 0 */\n      jump(tag_874)\n        /* \"contracts/poker.sol\":22601:22604  j++ */\n    tag_993:\n        /* \"contracts/poker.sol\":22591:22592  1 */\n      0x01\n        /* \"contracts/poker.sol\":22628:22636  cards[i] */\n      swap1\n        /* \"contracts/poker.sol\":729:25810  contract TexasHoldem {... */\n      0xff\n        /* \"contracts/poker.sol\":22628:22636  cards[i] */\n      tag_995\n      dup7\n      dup6\n      tag_45\n      jump\t// in\n    tag_995:\n        /* \"contracts/poker.sol\":729:25810  contract TexasHoldem {... */\n      mload\n      and\n      0xff\n        /* \"contracts/poker.sol\":22639:22647  cards[j] */\n      tag_996\n      dup4\n      dup7\n      tag_45\n      jump\t// in\n    tag_996:\n        /* \"contracts/poker.sol\":729:25810  contract TexasHoldem {... */\n      mload\n      and\n      lt\n        /* \"contracts/poker.sol\":22624:22733  if (cards[i] > cards[j]) {... */\n      tag_997\n      jumpi\n        /* \"contracts/poker.sol\":22601:22604  j++ */\n    tag_998:\n        /* \"contracts/poker.sol\":729:25810  contract TexasHoldem {... */\n      add\n        /* \"contracts/poker.sol\":22578:22592  uint j = i + 1 */\n      jump(tag_992)\n        /* \"contracts/poker.sol\":22624:22733  if (cards[i] > cards[j]) {... */\n    tag_997:\n        /* \"contracts/poker.sol\":729:25810  contract TexasHoldem {... */\n      0xff\n        /* \"contracts/poker.sol\":22695:22703  cards[j] */\n      tag_999\n      dup3\n      dup6\n      tag_45\n      jump\t// in\n    tag_999:\n        /* \"contracts/poker.sol\":729:25810  contract TexasHoldem {... */\n      mload\n      and\n      0xff\n        /* \"contracts/poker.sol\":22705:22713  cards[i] */\n      tag_1000\n      dup8\n      dup7\n      tag_45\n      jump\t// in\n    tag_1000:\n        /* \"contracts/poker.sol\":729:25810  contract TexasHoldem {... */\n      mload\n      and\n        /* \"contracts/poker.sol\":22671:22714  (cards[i], cards[j]) = (cards[j], cards[i]) */\n      tag_1001\n      dup4\n      dup7\n      tag_45\n      jump\t// in\n    tag_1001:\n        /* \"contracts/poker.sol\":729:25810  contract TexasHoldem {... */\n      mstore\n        /* \"contracts/poker.sol\":22671:22714  (cards[i], cards[j]) = (cards[j], cards[i]) */\n      tag_1002\n      dup7\n      dup6\n      tag_45\n      jump\t// in\n    tag_1002:\n        /* \"contracts/poker.sol\":729:25810  contract TexasHoldem {... */\n      mstore\n        /* \"contracts/poker.sol\":22624:22733  if (cards[i] > cards[j]) {... */\n      jump(tag_998)\n        /* \"contracts/poker.sol\":24908:25297  function _sortedRanks(... */\n    tag_51:\n      swap1\n        /* \"contracts/poker.sol\":25034:25035  0 */\n      0x00\n        /* \"contracts/poker.sol\":25020:25269  for (uint i = 0; i < ranks.length; i++) {... */\n      swap1\n        /* \"contracts/poker.sol\":25055:25058  i++ */\n    tag_1003:\n        /* \"contracts/poker.sol\":729:25810  contract TexasHoldem {... */\n      dup3\n      mload\n        /* \"contracts/poker.sol\":25037:25053  i < ranks.length */\n      dup3\n      lt\n      iszero\n      tag_1004\n      jumpi\n        /* \"contracts/poker.sol\":25092:25093  1 */\n      0x01\n        /* \"contracts/poker.sol\":729:25810  contract TexasHoldem {... */\n      dup3\n      add\n      dup1\n      dup4\n      gt\n      tag_198\n      jumpi\n        /* \"contracts/poker.sol\":25113:25116  j++ */\n    tag_1008:\n        /* \"contracts/poker.sol\":729:25810  contract TexasHoldem {... */\n      dup4\n      mload\n        /* \"contracts/poker.sol\":25095:25111  j < ranks.length */\n      dup2\n      lt\n      iszero\n      tag_1009\n      jumpi\n        /* \"contracts/poker.sol\":25092:25093  1 */\n      0x01\n        /* \"contracts/poker.sol\":25140:25148  ranks[i] */\n      swap1\n      tag_1011\n      dup5\n      dup7\n      tag_45\n      jump\t// in\n    tag_1011:\n        /* \"contracts/poker.sol\":729:25810  contract TexasHoldem {... */\n      mload\n        /* \"contracts/poker.sol\":25151:25159  ranks[j] */\n      tag_1012\n      dup3\n      dup8\n      tag_45\n      jump\t// in\n    tag_1012:\n        /* \"contracts/poker.sol\":729:25810  contract TexasHoldem {... */\n      mload\n      gt\n        /* \"contracts/poker.sol\":25136:25245  if (ranks[i] < ranks[j]) {... */\n      tag_1013\n      jumpi\n        /* \"contracts/poker.sol\":25113:25116  j++ */\n    tag_1014:\n        /* \"contracts/poker.sol\":729:25810  contract TexasHoldem {... */\n      add\n        /* \"contracts/poker.sol\":25079:25093  uint j = i + 1 */\n      jump(tag_1008)\n        /* \"contracts/poker.sol\":25136:25245  if (ranks[i] < ranks[j]) {... */\n    tag_1013:\n        /* \"contracts/poker.sol\":25207:25215  ranks[j] */\n      tag_1015\n      dup2\n      dup7\n      tag_45\n      jump\t// in\n    tag_1015:\n        /* \"contracts/poker.sol\":729:25810  contract TexasHoldem {... */\n      mload\n        /* \"contracts/poker.sol\":25217:25225  ranks[i] */\n      tag_1016\n      dup6\n      dup8\n      tag_45\n      jump\t// in\n    tag_1016:\n        /* \"contracts/poker.sol\":729:25810  contract TexasHoldem {... */\n      mload\n        /* \"contracts/poker.sol\":25183:25226  (ranks[i], ranks[j]) = (ranks[j], ranks[i]) */\n      tag_1017\n      dup4\n      dup9\n      tag_45\n      jump\t// in\n    tag_1017:\n        /* \"contracts/poker.sol\":729:25810  contract TexasHoldem {... */\n      mstore\n        /* \"contracts/poker.sol\":25183:25226  (ranks[i], ranks[j]) = (ranks[j], ranks[i]) */\n      tag_1018\n      dup6\n      dup8\n      tag_45\n      jump\t// in\n    tag_1018:\n        /* \"contracts/poker.sol\":729:25810  contract TexasHoldem {... */\n      mstore\n        /* \"contracts/poker.sol\":25136:25245  if (ranks[i] < ranks[j]) {... */\n      jump(tag_1014)\n        /* \"contracts/poker.sol\":25095:25111  j < ranks.length */\n    tag_1009:\n      pop\n      swap1\n        /* \"contracts/poker.sol\":25092:25093  1 */\n      0x01\n        /* \"contracts/poker.sol\":729:25810  contract TexasHoldem {... */\n      add\n        /* \"contracts/poker.sol\":25025:25035  uint i = 0 */\n      swap1\n      jump(tag_1003)\n        /* \"contracts/poker.sol\":25037:25053  i < ranks.length */\n    tag_1004:\n      swap1\n      pop\n        /* \"contracts/poker.sol\":24908:25297  function _sortedRanks(... */\n      jump\t// out\n    stop\n    data_5fbdae1c3a8152e8670d738bce7389093f96aaa8fb2ebef0879d89bfb2dfe752 f3d4f57e05aae06b4017c0b2ed81f62aa6f19deef046d6a78ad2a4223858c4f0\n    data_f4757ab01a3c98185065e9d0334826063b79dca553e93f62708b79bdfa8da875 70eca82567b065893a5e6cc590178b6b320855676b6a9a066625933e0c8ebe58\n\n    auxdata: 0xa2646970667358221220706ab01d7d6643500562186ad03393355575d9f036ae4512d8fceab8e97e0f6964736f6c634300081e0033\n}\n",
				"bytecode": {
					"linkReferences": {},
					"object": "60808060405234601557613967908161001a8239f35b5f80fdfe60a0806040526004361015610012575f80fd5b5f3560e01c90816301e22c1214611b3d5750806308ce20111461191a5780631ff7efc0146116e15780631ffc9a0214610f4d5780632b09692614610dd457806340cb15d814610db95780634411b3eb14610d9e57806356adcb7614610bc35780635e82ff6514610ba85780635f72f45014610a5357806371671bf21461097c578063a4dd19a5146103de578063b20bfbb91461039c578063bff7a00b1461028f5763e52b2285146100c1575f80fd5b3461028b57602036600319011261028b576004356100e15f548210611c66565b335f5260016020526100f88160405f205414611ca9565b61010181611c1a565b5060ff6001820154169060038210156102775761012360016101469314611f25565b600781019060ff6006835492015460081c168091119182610259575b5050611f66565b61014f81611c1a565b50600781019161016960ff600684015460081c1684611cf5565b509160018301905f8254925560028401610184838254611d1b565b90818155600d830180548311610233575b505050506040519060408252600660408301526520b63616b4b760d11b60608301526020820152815f5160206138f25f395f51905f5260803393a35f5b8354811015610217578060ff60046101ec60019488611cf5565b500154166101fb575b016101d2565b60046102078287611cf5565b5001805461ff00191690556101f5565b506004610231920161010061ff0019825416179055612689565b005b8261024d92600e9461024793555490611d0e565b84611d0e565b9101555f808080610195565b6102639250611cf5565b50546001600160a01b031633145f8061013f565b634e487b7160e01b5f52602160045260245ffd5b5f80fd5b3461028b57602036600319011261028b576004356102af5f548210611c66565b335f5260016020526102c68160405f205414611ca9565b6102cf81611c1a565b509060ff600183015416600381101561027757610231926102f560016103179314611f25565b600781019060ff6006835492015460081c16809111918261037e575050611f66565b600461033a61032583611c1a565b50600760ff600683015460081c169101611cf5565b500160ff198154169055604051604081526004604082015263119bdb1960e21b60608201525f6020820152815f5160206138f25f395f51905f5260803393a3612689565b6103889250611cf5565b50546001600160a01b03163314848061013f565b3461028b57604036600319011261028b576024356001600160a01b038116810361028b576103cf61010091600435612069565b6103dc6040518092611b99565bf35b3461028b57608036600319011261028b575f54604435600435602435606435600a85101561093e5782151580610935575b8061092c575b156108f6578282106108ba57604051936106806104328187611da8565b3686376020946040516104458782611da8565b5f81526040519260a0840184811067ffffffffffffffff821117610776576040525f84525f888501525f60408501525f60608501525f60808501526040519561048e8988611da8565b5f87526040519761049e89611d8b565b8a89525f8a8a01526040890152606088015260808701528360a08701525f60c08701525f60e08701526101008601526101208501525f6101408501526101608401525f6101808401525f6101a08401526101c08301526101e082015242610200820152600160401b83101561077657600183015f5561051c83611c1a565b9290926108a75781518355600183018183015160038110156102775760ff8019835416911617905560408201516002840155606082015160038401556080820151600484015560a082015160058401556105a36006840160ff8060c0860151161660ff1982541617815560ff60e08501511661ff0082549160081b169061ff001916179055565b6007830161010083015190815191600160401b83116107765783908254848455808510610834575b5001905f52825f20835f925b8484106108155750505050506101208201515f5b600181106107d457505f905f5b83601482106107af57505050600984015560ff6101408301511660ff600a8501911660ff198254161790556101608201515f905f5b836005821061078a57505050600b840155600c830161018083015160068110156102775760ff801983541691161790556101a0820151600d8401556101c0820151600e840155600f83016101e083015191825192600160401b841161077657819083548585558086106106fd575b5001915f52805f205f925b8484106106e057610200860151601088015533887fe93806e02d09f53787d307ada312314ec4cb949dc9bedc8503f94bd46e45dc6b5f80a3005b600283826106f16001945186611fde565b019201930192906106a6565b9091506001600160ff1b0381168103610762576001600160ff1b038516850361076257908291845f52825f209060011b8101908660011b015b818110610743575061069b565b6002919293505f815561075860018201611fbb565b0190839291610736565b634e487b7160e01b5f52601160045260245ffd5b634e487b7160e01b5f52604160045260245ffd5b82519293919260019260ff600386901b81811b199092169216901b179301910161062d565b82519293919260019260ff600386901b81811b199092169216901b17930191016105f8565b5f5f5b848082106107f0575050858201600801556001016105eb565b845191949260019260ff600388901b81811b19909316911690911b17920193016107d7565b600191816108266006935186611dca565b0192019201919084906105d7565b809192506006029060068204036107625783600602600681048503610762575f848152869020869392810191015b81811061086f57506105cb565b6006919293505f81555f60018201555f60028201555f600482016108968160038501611d28565b555f60058201550190859291610862565b634e487b7160e01b5f525f60045260245ffd5b60405162461bcd60e51b8152602060048201526014602482015273496e76616c6964206275792d696e2072616e676560601b6044820152606490fd5b60405162461bcd60e51b815260206004820152600e60248201526d496e76616c6964207374616b657360901b6044820152606490fd5b50838111610415565b5083151561040f565b60405162461bcd60e51b815260206004820152601660248201527513585e1a5b5d5b481d18589b195cc81c995858da195960521b6044820152606490fd5b3461028b57602036600319011261028b576004355f5481101561028b576109a290611c1a565b50805490600181015460ff16906002810154600382015460048301546005840154600685015490600a86015460ff1692600c87015460ff1694600d88015496600e8901549860100154996040519b8c5260208c016109ff91611b8c565b60408b015260608a0152608089015260a088015260ff811660c088015260081c60ff1660e08701526101008601526101208501610a3b91611c0d565b6101408401526101608301526101808201526101a090f35b3461028b57602036600319011261028b57600435610a735f548210611c66565b335f526001602052610a8a8160405f205414611ca9565b610a9381611c1a565b5060ff60018201541690600382101561027757610ab56001610ad79314611f25565b600781019060ff6006835492015460081c168091119182610b8a575050611f66565b610ae081611c1a565b50600d6002610afc60ff600685015460081c1660078501611cf5565b50015491015403610b465761023190604051604081526005604082015264436865636b60d81b60608201525f6020820152815f5160206138f25f395f51905f5260803393a3612689565b606460405162461bcd60e51b815260206004820152602060248201527f43616e6e6f7420636865636b2c206d7573742063616c6c206f722072616973656044820152fd5b610b949250611cf5565b50546001600160a01b03163314838061013f565b3461028b575f36600319011261028b576020604051603c8152f35b3461028b57610bd136611b76565b90610bde5f548210611c66565b335f526001602052610bf58160405f205414611ca9565b610bfe81611c1a565b5060ff600182015416906003821015610277576102f56001610c209314611f25565b610c2981611c1a565b50906007820192610c4460ff600685015460081c1685611cf5565b5092600d81018054906002860190610c6785610c6284548096611d0e565b611d1b565b936001880194855491818310610d5957600e019485548810610d1b578796610c9283610c9995611d0e565b9055611d1b565b809255555560405190604082526005604083015264526169736560d81b60608301526020820152815f5160206138f25f395f51905f5260803393a35f5b8354811015610217578060ff6004610cf060019488611cf5565b50015416610cff575b01610cd6565b6004610d0b8287611cf5565b5001805461ff0019169055610cf9565b60405162461bcd60e51b815260206004820152601660248201527514985a5cd948185b5bdd5b9d081d1bdbc81cdb585b1b60521b6044820152606490fd5b60405162461bcd60e51b815260206004820152601b60248201527f496e73756666696369656e7420636869707320746f20726169736500000000006044820152606490fd5b3461028b575f36600319011261028b57602060405160098152f35b3461028b575f36600319011261028b576020604051600a8152f35b3461028b57602036600319011261028b57600435610df45f548210611c66565b335f526001602052610e0b8160405f205414611ca9565b610e1481611c1a565b5060ff60018201541690600382101561027757610ab56001610e369314611f25565b610e3f81611c1a565b5090600d610e5a60ff600685015460081c1660078501611cf5565b509201549160028101610e6f81548095611d0e565b918215610f16576001018054838110610ed15761023195610e9592610c92868094611d0e565b90556040519060408252600460408301526310d85b1b60e21b60608301526020820152815f5160206138f25f395f51905f5260803393a3612689565b60405162461bcd60e51b815260206004820152601a60248201527f496e73756666696369656e7420636869707320746f2063616c6c0000000000006044820152606490fd5b60405162461bcd60e51b815260206004820152600f60248201526e139bdd1a1a5b99c81d1bc818d85b1b608a1b6044820152606490fd5b3461028b57602036600319011261028b57600435604051610f6d81611d8b565b5f81525f60208201525f60408201525f60608201525f60808201525f60a08201525f60c08201525f60e0820152606061010082015261101561068092604051610fb68582611da8565b843682376101208401525f6101408401525f61020060a094604051610fdb8782611da8565b8636823761016082015282610180820152826101a0820152826101c082015260606101e082015201526110105f548210611c66565b611c1a565b506040519261102384611d8b565b8154845260ff600183015416600381101561027757602085015260028201546040850152600382015460608501526004820154608085015260058201548385015260ff600683015481811660c087015260081c1660e085015260078201805461108b81611e8f565b916110996040519384611da8565b81835260208301905f5260205f205f915b8383106116c357505050506101008501526040519081600884015f5b6034601f82011061152357509061026060ff6111c09493548181168452818160081c166020850152818160101c166040850152818160181c166060850152818160201c166080850152818160281c1689850152818160301c1660c0850152818160381c1660e0850152818160401c16610100850152818160481c16610120850152818160501c16610140850152818160581c16610160850152818160601c16610180850152818160681c166101a0850152818160701c166101c0850152818160781c166101e0850152818160801c16610200850152818160881c16610220850152818160901c1661024085015260981c1691015282611da8565b61012084015260ff600a8201541661014084015260405161121481600b840160ff608091548181168452818160081c166020850152818160101c166040850152818160181c16606085015260201c16910152565b61121e8382611da8565b61016084015260ff600c82015416600681101561027757610180840152600d8101546101a0840152600e8101546101c0840152600f81015461125f81611e8f565b9061126d6040519283611da8565b80825260208201600f84015f5260205f205f915b8383106114a3578787601088886101e085015201546102008301526040519060208252825160208301526112bd60208401516040840190611b8c565b604083015160608301526060830151608083015260808301518183015282015160c082015260ff60c08301511660e082015260ff60e08301511661010082015261010082015191610900610120830152825180610920840152602061094084019401905f5b818110611482575050506101208101515f61014084015b603482106114695750505061014081015160ff166107c08301526101608101515f6107e084015b600582106114505750505061137f610180820151610880840190611c0d565b6101a08101516108a08301526101c08101516108c08301526101e081015190601f19838503016108e0840152815180855260208501906020808260051b8801019401915f905b8282106113de5761020085015161090088015286860387f35b90919294601f19888203018252855160206060816040850193805186520151936040838201528451809452019201905f905b80821061142e575050506020806001929701920192019092916113c5565b82516001600160a01b0316845260209384019390920191600190910190611410565b60208060019260ff865116815201930191019091611360565b60208060019260ff865116815201930191019091611339565b9091946020610100826114986001948a51611b99565b019601929101611322565b6040516114af81611d53565b82548152600183016040519081602082549182815201915f5260205f20905f905b8082106115015750505092600292826114ef6020946001970382611da8565b83820152815201920192019190611281565b82546001600160a01b03168452602090930192600192830192909101906114d0565b90916001610400602092855460ff8116825260ff8160081c168583015260ff8160101c16604083015260ff8160181c16606083015260ff81861c16608083015260ff8160281c168b83015260ff8160301c1660c083015260ff8160381c1660e083015260ff8160401c1661010083015260ff8160481c1661012083015260ff8160501c1661014083015260ff8160581c1661016083015260ff8160601c1661018083015260ff8160681c166101a083015260ff8160701c166101c083015260ff8160781c166101e083015260ff8160801c1661020083015260ff8160881c1661022083015260ff8160901c1661024083015260ff8160981c1661026083015260ff818c1c1661028083015260ff8160a81c166102a083015260ff8160b01c166102c083015260ff8160b81c166102e083015260ff8160c01c1661030083015260ff8160c81c1661032083015260ff8160d01c1661034083015260ff8160d81c1661036083015260ff8160e01c1661038083015260ff8160e81c166103a083015260ff8160f01c166103c083015260f81c6103e082015201930191016110c6565b600660206001926116d385611ea7565b8152019201920191906110aa565b3461028b576116ef36611b76565b6116fb5f548310611c66565b61170482611c1a565b50906007820180549160098310156118e557335f52600160205260405f20546118a057600284015481101580611892575b15611855576040519261174784611d53565b5f84525f60208501526040519361175d85611d6f565b3385528260208601525f604086015260608501525f6080850152600160a08501524260c0850152600160401b811015610776578060016117a09201845583611cf5565b6108a7576002936117b091611dca565b335f5260016020528460405f2055426010850155604051908152847f03dfbe1fcb4e2d61f3b4a0c93d8f814c92250618b3387f396cc9fc9fafe2c20360203393a35410158061183d575b61180057005b600101600160ff1982541617905561181781612197565b7f50ad08f58a27f2851d7e3a1b3a6a46b290f2ce677e99642d30ff639721e777905f80a2005b5060ff600182015416600381101561027757156117fa565b60405162461bcd60e51b8152602060048201526015602482015274125b9d985b1a5908189d5e4b5a5b88185b5bdd5b9d605a1b6044820152606490fd5b506003840154811115611735565b60405162461bcd60e51b815260206004820152601960248201527f506c6179657220616c72656164792061742061207461626c65000000000000006044820152606490fd5b60405162461bcd60e51b815260206004820152600d60248201526c1518589b19481a5cc8199d5b1b609a1b6044820152606490fd5b3461028b57602036600319011261028b5760043561193a5f548210611c66565b335f5260016020526119518160405f205414611ca9565b61195a81611c1a565b50905f915f9260078201938454905b818110611b10575b50505b83545f19810190811161076257811015611a5a57600181018082116107625761199d9085611cf5565b50906119a98186611cf5565b6108a7578260019382036119c0575b505001611974565b60058091858060a01b03868060a01b03825416166bffffffffffffffffffffffff60a01b855416178455858101548685015560028101546002850155611a0c6003820160038601611d3e565b611a4e6004850160ff60048401611a3282825416849060ff801983541691151516179055565b5460081c1661ff00825491151560081b169061ff001916179055565b015491015585806119b8565b509180548015611afc575f190191611a728383611cf5565b9390936108a7575f600585826002975582600182015582878201558260048201611a9f8160038501611d28565b5501558255335f5260016020525f604081205533907fb2bd643202385c64d9814c6c3fa61b1ba098d6652292e9d9a6f1a0cdae6eb8245f80a35410611ae057005b806001600c920160ff1981541690550160ff1981541690555f80f35b634e487b7160e01b5f52603160045260245ffd5b611b1a8187611cf5565b50546001600160a01b03163314611b3357600101611969565b9150508480611971565b3461028b57602036600319011261028b576004356001600160a01b038116919082900361028b576020915f526001825260405f20548152f35b604090600319011261028b576004359060243590565b9060038210156102775752565b80516001600160a01b031682526020808201519083015260408082015190830152606080820151905f9084015b60028210611bf45750505060c081608060e0930151151560a085015260a08101511515828501520151910152565b60208060019260ff865116815201930191019091611bc6565b9060068210156102775752565b5f54811015611c52575f8080526011919091027f290decd9548b62a8d60345a988386fc84ba6bc95484008f6362f93160ef3e5630191565b634e487b7160e01b5f52603260045260245ffd5b15611c6d57565b60405162461bcd60e51b81526020600482015260146024820152731518589b1948191bd95cc81b9bdd08195e1a5cdd60621b6044820152606490fd5b15611cb057565b60405162461bcd60e51b815260206004820152601960248201527f596f7520617265206e6f742061742074686973207461626c65000000000000006044820152606490fd5b8054821015611c52575f52600660205f20910201905f90565b9190820391821161076257565b9190820180921161076257565b818110611d33575050565b5f8155600101611d28565b90808214611d4f575461ffff169055565b5050565b6040810190811067ffffffffffffffff82111761077657604052565b60e0810190811067ffffffffffffffff82111761077657604052565b610220810190811067ffffffffffffffff82111761077657604052565b90601f8019910116810190811067ffffffffffffffff82111761077657604052565b815181546001600160a01b0319166001600160a01b0391909116178155602082015160018201556040820151600282015560608201519091905f90815b60028110611e6157505060059160c0916003850155611e5a60048501611e3f60808401511515829060ff801983541691151516179055565b60a0830151815461ff00191690151560081b61ff0016179055565b0151910155565b90916020611e866001928460ff875116919060ff809160031b9316831b921b19161790565b93019101611e07565b67ffffffffffffffff81116107765760051b60200190565b90604051611eb481611d6f565b60c06005829460018060a01b038154168452600181015460208501526002810154604085015260405160ff6003830154818116835260081c166020820152611efd604082611da8565b606085015260ff60048201548181161515608087015260081c16151560a08501520154910152565b15611f2c57565b60405162461bcd60e51b815260206004820152601260248201527147616d65206973206e6f742061637469766560701b6044820152606490fd5b15611f6d57565b60405162461bcd60e51b815260206004820152600d60248201526c2737ba103cb7bab9103a3ab93760991b6044820152606490fd5b60405190611faf82611d53565b60606020835f81520152565b80545f825580611fc9575050565b611fdc915f5260205f2090810190611d28565b565b600160209183518155019101519081519167ffffffffffffffff831161077657600160401b831161077657602090825484845580851061204e575b5001905f5260205f205f5b8381106120315750505050565b82516001600160a01b031681830155602090920191600101612024565b61206390845f5285845f209182019101611d28565b5f612019565b6040519161207683611d6f565b5f83525f60208401525f604084015260409283516120948582611da8565b8436823760608201525f60808201525f60a08201525f60c0820152506120bc5f548310611c66565b5f5b60076120c984611c1a565b500154811015612123576120e98160076120e286611c1a565b5001611cf5565b50546001600160a01b03838116911614612105576001016120be565b9050612120925060076120e261211a93611c1a565b50611ea7565b90565b835162461bcd60e51b815260206004820152601e60248201527f506c61796572206e6f7420666f756e642061742074686973207461626c6500006044820152606490fd5b60ff60019116019060ff821161076257565b8115612183570690565b634e487b7160e01b5f52601260045260245ffd5b6121a081611c1a565b509060078201905f5b825481101561228e5760016121be8285611cf5565b500154156122705760046121d28285611cf5565b5001805460ff1916600117905560046121eb8285611cf5565b5001805461ff00191690555f60026122038386611cf5565b50015560405161221281611d53565b5f81525f60208201526122258285611cf5565b505f915f5b60028110612242575050600301556001905b016121a9565b909260206122676001928460ff885116919060ff809160031b9316831b921b19161790565b9401910161222a565b80600461227f60019386611cf5565b5001805460ff1916905561223c565b509190600f82018054905f81558161264b575b505060ff806122c660068596950193826122bd81875416612167565b91549116612179565b161660ff198254161790556122da81611c1a565b50600881015f5b603460ff821610612605575060405160208101904282524460408201523360601b606082015260548152612316607482611da8565b5190205f5b6034811061255f57505050600a01805460ff1916905561242a61233d82611c1a565b5060ff6124156006830192826122bd61235882875416612167565b92826123ca6123c0826123736007860198828a549116612179565b166004850154806002612386848c611cf5565b5001556123a26001612398848c611cf5565b5001918254611d0e565b905560046123b0828a611cf5565b5001805461ff0019169055612167565b8287549116612179565b1690600d6005820180548060026123e1878b611cf5565b5001556123f36001612398878b611cf5565b905560046124018589611cf5565b5001805461ff001916905554910155612167565b825461ff001916911660081b61ff0016179055565b61243381611c1a565b5060078101915f5b835481101561250c578060ff600461245560019488611cf5565b50015416612464575b0161243b565b60ff6124d460088601600a87019083612493818454168261248482612f56565b16831986541617855583612f3d565b90549060031b1c1660036124a7878c611cf5565b500180548619169186169190911790558154841691846124c684612f56565b168519825416179055612f3d565b90549060031b1c1661250560036124eb8489611cf5565b5001918483549060ff809160031b9316831b921b19161790565b905561245e565b50929050600c915001600160ff198254161790555f5160206139125f395f51905f526020604051837f17ef9d3684374ca660f2d6b5a52c09c0c1c6144b13c23ff3681fb0a9ba9fe4c35f80a260018152a2565b61256c8183979697611d1b565b908060340391603483116107625760019261258691612179565b6125fa60ff6125958388612f3d565b90549060031b1c166125ca60ff6125ac868a612f3d565b90549060031b1c166125e26125c1878b612f3d565b9390968b612f3d565b819391549060ff809160031b9316831b921b19161790565b905583549060ff809160031b9316831b921b19161790565b90550194939461231b565b60018161261660ff93979697612167565b61263f846126248488612f3d565b919093169083549060ff809160031b9316831b921b19161790565b905501169392936122e1565b6001600160ff1b0382168203610762575f5260205f209060011b8101905b818110156122a157805f6002925561268360018201611fbb565b01612669565b61269281611c1a565b50600660078201910160046126ae60ff835460081c1684611cf5565b500161010061ff00198254161790556126ce60ff825460081c1683611cf5565b506005429101556126de83612f67565b15612eab5750506126ee81611c1a565b50915f905f93600781019485545b808210612e86575050600f01915f608052602060805260405161272160805182611da8565b5f8082523681376040519161273583611d53565b8252608051820152825490600160401b8210156107765760018201808555821015611c525761277091845f526080515f209060011b01611fde565b5f5b84548110156128055760ff60046127898388611cf5565b5001541661279a575b600101612772565b60016127a584613059565b5001906127b28187611cf5565b505482546001600160a01b0390911690600160401b8110156107765760018101808555811015611c52576001935f526080515f2001906bffffffffffffffffffffffff60a01b8254161790559050612792565b509192505061281382611c1a565b50905f9260078301935b845481101561285657805f600261283660019489611cf5565b50015560046128458288611cf5565b5001805461ff00191690550161281d565b50919092505f600d8201556005810154600e82015560ff600c82015416600681101561027757600181036128c6575060ff600c5f5160206139125f395f51905f529260028319838301541617828201556128af856130da565b0154166128bf6040518092611c0d565b60805190a2565b600281036128fe575060ff600c5f5160206139125f395f51905f529260038319838301541617828201556128f9856130da565b6128af565b60038103612931575060ff600c5f5160206139125f395f51905f529260048319838301541617828201556128f9856130da565b600414612951575b60ff600c5f5160206139125f395f51905f52926128af565b600c8101805460ff1916600517905561296982611c1a565b5060405161014061297a8183611da8565b60098252601f1901366080518301375f612992611fa2565b925f9360078201948554905b818110612b28575050506129b182613027565b925f5b838110612b00575050600f6129c99101613059565b5054811561218357819004925f905b828210612a83575050509083916040519160408301604084528251809152606084019260805101905f5b818110612a6057505050927fedb6330b1b84cda51026e9a0aabf4ce11324d13d69e89d1033001317ad20039583600c945f5160206139125f395f51905f52979460ff976080518301520390a2612a5785612197565b92505050612939565b82516001600160a01b031685526080518997509485019490920191600101612a02565b92955f97919592975b8454811015612af157612a9f8186611cf5565b50546001600160a01b0390811690612ab7898b6130b8565b511614612ac657600101612a8c565b956001612ada86949a959882949a97611cf5565b5001612ae7878254611d1b565b90555b01906129d8565b50959290969194600190612aea565b6001906001600160a01b03612b1582856130b8565b5116612b2182886130b8565b52016129b4565b60ff6004612b36838a611cf5565b50015416612b47575b60010161299e565b916101009460405195612b5a8188611da8565b60078752601f19013660805188013760ff6003612b77868b611cf5565b50015416612b848761306b565b526003612b91858a611cf5565b5001546001929060081c60ff16612ba788613078565b525f835b612e41575b50612bb9611fa2565b50612bc48751613027565b612bce8851613027565b9084895f825b612de0575b5050505050612be6611fa2565b965f5b60078110612c9957505081612c2f575060019150612c2590612c0b858a611cf5565b50838060a01b03905416612c1f828a6130b8565b526130cc565b94925b9050612b3f565b612c3981886132c1565b5f811315612c6c57505050600190612c518489611cf5565b50828060a01b03905416612c648861306b565b529492612c28565b91965093915015612c80575b600190612c28565b93612c91600191612c0b878a611cf5565b949050612c78565b848101808211610762579085915b60078110612cb6575001612be9565b90918101808211610762579086915b60078110612cd7575001908591612ca7565b90918101808211610762579087915b60078110612cf8575001908691612cc5565b9091810181116107625780888092015b60078110612d1a575001908791612ce6565b9091508c5f612dc7612dc060c060405190612d358183611da8565b600582525060a03660805183013760ff612d4f8b8d6130b8565b5116612d5a8261306b565b5260ff612d678a8d6130b8565b5116612d7282613078565b5260ff612d7f898d6130b8565b5116612d8a82613088565b5260ff612d97888d6130b8565b5116612da282613098565b5260ff612daf878d6130b8565b5116612dba826130a8565b5261337b565b92836132c1565b13612dd8575b508801908891612d08565b9c5088612dcd565b8151811015612e3c5760ff600d81612e2581612e0f86888b612e1f83868a8f9e612e1683612e0f8682946130b8565b51166132af565b160616926130b8565b526130b8565b160416612e3282876130b8565b52018a9082612bd4565b612bd9565b6005811015612e815760ff600b8260051c8901015460f88360031b161c16906002810190818111610762578592612e7984938c6130b8565b520190612bab565b612bb0565b9093612ea36001916002612e9a888b611cf5565b50015490611d1b565b9401906126fc565b91509160ff825460081c169060019260ff855416948515945b15612ee5575b612ed45f94612167565b856121835760ff8791160693612ec4565b60ff6004612ef38684611cf5565b50015416158015612f22575b612eca5750909350611fdc92509061ff0082549160081b169061ff001916179055565b5060ff6004612f318684611cf5565b50015460081c16612eff565b9190916034831015611c5257601f908360051c01921690565b60ff1660ff81146107625760010190565b612f7090611c1a565b505f90600781018054925b838110612f8b5750505050600190565b60ff6004612f998385611cf5565b500154168061300b575b612fd15760ff6004612fb58385611cf5565b5001541680612ff0575b80612fd9575b612fd157600101612f7b565b505050505f90565b506001612fe68284611cf5565b5001541515612fc5565b506002612ffd8284611cf5565b500154600d84015411612fbf565b5060ff600461301a8385611cf5565b50015460081c1615612fa3565b9061303182611e8f565b61303e6040519182611da8565b828152809261304f601f1991611e8f565b0190602036910137565b805415611c52575f5260205f20905f90565b805115611c525760200190565b805160011015611c525760400190565b805160021015611c525760600190565b805160031015611c525760800190565b805160041015611c525760a00190565b8051821015611c525760209160051b010190565b5f1981146107625760010190565b6130e381611c1a565b5060ff600c82015416600681101561027757600b61320f7f86981aa8c80c36d41a56382bb6d7f4f432477216193063fc8196ede419c99ec09383600260a095145f1461321257506008810160ff6131b5600a840182613158818354168261314982612f56565b16831985541617845586612f3d565b90549060031b1c169387860194855485805f60031b9316831b921b19161785558361318a818454168261248482612f56565b90549060031b1c1685548580600160031b9316831b921b19161785558382541691846124c684612f56565b90549060031b1c16815460ff80600260031b9316831b921b19161790555b6040519283910160ff608091548181168452818160081c166020850152818160101c166040850152818160181c16606085015260201c16910152565ba2565b6003810361326a575060ff613245600a830182815416908361323383612f56565b16841982541617905560088401612f3d565b90549060031b1c1683820190815460ff806003801b9316831b921b19161790556131d3565b6004036131d35760ff613289600a830182815416908361323383612f56565b90549060031b1c1683820190815460ff80600460031b9316831b921b19161790556131d3565b60ff5f199116019060ff821161076257565b908151600a81101561027757815190600a8210156102775711613374578151600a81101561027757815190600a821015610277571061336d575f5b60208301805180518310156133645782613315916130b8565b519060208401916133278484516130b8565b511061335a578261333c8161334493516130b8565b5192516130b8565b5111613352576001016132fc565b5050505f1990565b5050505050600190565b50505050505f90565b50505f1990565b5050600190565b613383611fa2565b505f5b600481106137e7575060c06040519161339f8284611da8565b6005835260a0366020850137604051916133b98184611da8565b600583525060a03660208401375f5b6005811061379c575050604051906101c06133e38184611da8565b600d8352601f19013660208401375f5b6005811061376a57506134058161306b565b5161340f82613078565b5114908161374d575b81613730575b81613713575b5061342e8361306b565b51600181018091116107625761344384613078565b5114806136ed575b806136c7575b806136a1575b808061369a575b613642575f925f905f905f5b600d81106135cd5750506001146135a75760011491828061359d575b613577576135525761352e5761350b57600281146134e8576001146134c6576134ae9061386a565b604051906134bb82611d53565b5f8252602082015290565b6134cf9061386a565b604051906134dc82611d53565b60018252602082015290565b506134f29061386a565b604051906134ff82611d53565b60028252602082015290565b506135159061386a565b6040519061352282611d53565b60038252602082015290565b50506135399061386a565b6040519061354682611d53565b60048252602082015290565b50505061355e9061386a565b6040519061356b82611d53565b60058252602082015290565b505050506135849061386a565b6040519061359182611d53565b60068252602082015290565b5060018414613486565b505050506135b49061386a565b604051906135c182611d53565b60078252602082015290565b60026135d982846130b8565b5114613632575b60036135ec82846130b8565b5114613622575b60046135ff82846130b8565b511461360e575b60010161346a565b9161361a6001916130cc565b929050613606565b9261362c906130cc565b926135f3565b9561363c906130cc565b956135e0565b505050600c613650826130a8565b51146136785761365f9061386a565b6040519061366c82611d53565b60088252602082015290565b6136819061386a565b6040519061368e82611d53565b60098252602082015290565b508161345e565b506136ab83613098565b5160018101809111610762576136c0846130a8565b5114613457565b506136d183613088565b5160018101809111610762576136e684613098565b5114613451565b506136f783613078565b51600181018091116107625761370c84613088565b511461344b565b905061372861372182613098565b51916130a8565b51145f613424565b905061373b81613088565b5161374582613098565b51149061341e565b905061375881613078565b5161376282613088565b511490613418565b80613777600192866130b8565b5161379561378e61378883886130b8565b516130cc565b91866130b8565b52016133f3565b8060ff600d816137b281612e0f600197896130b8565b1606166137bf82876130b8565b5260ff600d816137d381612e0f86896130b8565b1604166137e082866130b8565b52016133c8565b919060018301808411610762575b6005811061380857509091600101613386565b60019060ff61381786856130b8565b511660ff61382583866130b8565b511610613833575b016137f5565b60ff61383f82856130b8565b511660ff61384d87866130b8565b511661385983866130b8565b5261386486856130b8565b5261382d565b905f905b82518210156138ed5760018201808311610762575b83518110156138e25760019061389984866130b8565b516138a482876130b8565b51116138b1575b01613883565b6138bb81866130b8565b516138c685876130b8565b516138d183886130b8565b526138dc85876130b8565b526138ab565b50906001019061386e565b905056fef3d4f57e05aae06b4017c0b2ed81f62aa6f19deef046d6a78ad2a4223858c4f070eca82567b065893a5e6cc590178b6b320855676b6a9a066625933e0c8ebe58a2646970667358221220706ab01d7d6643500562186ad03393355575d9f036ae4512d8fceab8e97e0f6964736f6c634300081e0033",
					"opcodes": "PUSH1 0x80 DUP1 PUSH1 0x40 MSTORE CALLVALUE PUSH1 0x15 JUMPI PUSH2 0x3967 SWAP1 DUP2 PUSH2 0x1A DUP3 CODECOPY RETURN JUMPDEST PUSH0 DUP1 REVERT INVALID PUSH1 0xA0 DUP1 PUSH1 0x40 MSTORE PUSH1 0x4 CALLDATASIZE LT ISZERO PUSH2 0x12 JUMPI PUSH0 DUP1 REVERT JUMPDEST PUSH0 CALLDATALOAD PUSH1 0xE0 SHR SWAP1 DUP2 PUSH4 0x1E22C12 EQ PUSH2 0x1B3D JUMPI POP DUP1 PUSH4 0x8CE2011 EQ PUSH2 0x191A JUMPI DUP1 PUSH4 0x1FF7EFC0 EQ PUSH2 0x16E1 JUMPI DUP1 PUSH4 0x1FFC9A02 EQ PUSH2 0xF4D JUMPI DUP1 PUSH4 0x2B096926 EQ PUSH2 0xDD4 JUMPI DUP1 PUSH4 0x40CB15D8 EQ PUSH2 0xDB9 JUMPI DUP1 PUSH4 0x4411B3EB EQ PUSH2 0xD9E JUMPI DUP1 PUSH4 0x56ADCB76 EQ PUSH2 0xBC3 JUMPI DUP1 PUSH4 0x5E82FF65 EQ PUSH2 0xBA8 JUMPI DUP1 PUSH4 0x5F72F450 EQ PUSH2 0xA53 JUMPI DUP1 PUSH4 0x71671BF2 EQ PUSH2 0x97C JUMPI DUP1 PUSH4 0xA4DD19A5 EQ PUSH2 0x3DE JUMPI DUP1 PUSH4 0xB20BFBB9 EQ PUSH2 0x39C JUMPI DUP1 PUSH4 0xBFF7A00B EQ PUSH2 0x28F JUMPI PUSH4 0xE52B2285 EQ PUSH2 0xC1 JUMPI PUSH0 DUP1 REVERT JUMPDEST CALLVALUE PUSH2 0x28B JUMPI PUSH1 0x20 CALLDATASIZE PUSH1 0x3 NOT ADD SLT PUSH2 0x28B JUMPI PUSH1 0x4 CALLDATALOAD PUSH2 0xE1 PUSH0 SLOAD DUP3 LT PUSH2 0x1C66 JUMP JUMPDEST CALLER PUSH0 MSTORE PUSH1 0x1 PUSH1 0x20 MSTORE PUSH2 0xF8 DUP2 PUSH1 0x40 PUSH0 KECCAK256 SLOAD EQ PUSH2 0x1CA9 JUMP JUMPDEST PUSH2 0x101 DUP2 PUSH2 0x1C1A JUMP JUMPDEST POP PUSH1 0xFF PUSH1 0x1 DUP3 ADD SLOAD AND SWAP1 PUSH1 0x3 DUP3 LT ISZERO PUSH2 0x277 JUMPI PUSH2 0x123 PUSH1 0x1 PUSH2 0x146 SWAP4 EQ PUSH2 0x1F25 JUMP JUMPDEST PUSH1 0x7 DUP2 ADD SWAP1 PUSH1 0xFF PUSH1 0x6 DUP4 SLOAD SWAP3 ADD SLOAD PUSH1 0x8 SHR AND DUP1 SWAP2 GT SWAP2 DUP3 PUSH2 0x259 JUMPI JUMPDEST POP POP PUSH2 0x1F66 JUMP JUMPDEST PUSH2 0x14F DUP2 PUSH2 0x1C1A JUMP JUMPDEST POP PUSH1 0x7 DUP2 ADD SWAP2 PUSH2 0x169 PUSH1 0xFF PUSH1 0x6 DUP5 ADD SLOAD PUSH1 0x8 SHR AND DUP5 PUSH2 0x1CF5 JUMP JUMPDEST POP SWAP2 PUSH1 0x1 DUP4 ADD SWAP1 PUSH0 DUP3 SLOAD SWAP3 SSTORE PUSH1 0x2 DUP5 ADD PUSH2 0x184 DUP4 DUP3 SLOAD PUSH2 0x1D1B JUMP JUMPDEST SWAP1 DUP2 DUP2 SSTORE PUSH1 0xD DUP4 ADD DUP1 SLOAD DUP4 GT PUSH2 0x233 JUMPI JUMPDEST POP POP POP POP PUSH1 0x40 MLOAD SWAP1 PUSH1 0x40 DUP3 MSTORE PUSH1 0x6 PUSH1 0x40 DUP4 ADD MSTORE PUSH6 0x20B63616B4B7 PUSH1 0xD1 SHL PUSH1 0x60 DUP4 ADD MSTORE PUSH1 0x20 DUP3 ADD MSTORE DUP2 PUSH0 MLOAD PUSH1 0x20 PUSH2 0x38F2 PUSH0 CODECOPY PUSH0 MLOAD SWAP1 PUSH0 MSTORE PUSH1 0x80 CALLER SWAP4 LOG3 PUSH0 JUMPDEST DUP4 SLOAD DUP2 LT ISZERO PUSH2 0x217 JUMPI DUP1 PUSH1 0xFF PUSH1 0x4 PUSH2 0x1EC PUSH1 0x1 SWAP5 DUP9 PUSH2 0x1CF5 JUMP JUMPDEST POP ADD SLOAD AND PUSH2 0x1FB JUMPI JUMPDEST ADD PUSH2 0x1D2 JUMP JUMPDEST PUSH1 0x4 PUSH2 0x207 DUP3 DUP8 PUSH2 0x1CF5 JUMP JUMPDEST POP ADD DUP1 SLOAD PUSH2 0xFF00 NOT AND SWAP1 SSTORE PUSH2 0x1F5 JUMP JUMPDEST POP PUSH1 0x4 PUSH2 0x231 SWAP3 ADD PUSH2 0x100 PUSH2 0xFF00 NOT DUP3 SLOAD AND OR SWAP1 SSTORE PUSH2 0x2689 JUMP JUMPDEST STOP JUMPDEST DUP3 PUSH2 0x24D SWAP3 PUSH1 0xE SWAP5 PUSH2 0x247 SWAP4 SSTORE SLOAD SWAP1 PUSH2 0x1D0E JUMP JUMPDEST DUP5 PUSH2 0x1D0E JUMP JUMPDEST SWAP2 ADD SSTORE PUSH0 DUP1 DUP1 DUP1 PUSH2 0x195 JUMP JUMPDEST PUSH2 0x263 SWAP3 POP PUSH2 0x1CF5 JUMP JUMPDEST POP SLOAD PUSH1 0x1 PUSH1 0x1 PUSH1 0xA0 SHL SUB AND CALLER EQ PUSH0 DUP1 PUSH2 0x13F JUMP JUMPDEST PUSH4 0x4E487B71 PUSH1 0xE0 SHL PUSH0 MSTORE PUSH1 0x21 PUSH1 0x4 MSTORE PUSH1 0x24 PUSH0 REVERT JUMPDEST PUSH0 DUP1 REVERT JUMPDEST CALLVALUE PUSH2 0x28B JUMPI PUSH1 0x20 CALLDATASIZE PUSH1 0x3 NOT ADD SLT PUSH2 0x28B JUMPI PUSH1 0x4 CALLDATALOAD PUSH2 0x2AF PUSH0 SLOAD DUP3 LT PUSH2 0x1C66 JUMP JUMPDEST CALLER PUSH0 MSTORE PUSH1 0x1 PUSH1 0x20 MSTORE PUSH2 0x2C6 DUP2 PUSH1 0x40 PUSH0 KECCAK256 SLOAD EQ PUSH2 0x1CA9 JUMP JUMPDEST PUSH2 0x2CF DUP2 PUSH2 0x1C1A JUMP JUMPDEST POP SWAP1 PUSH1 0xFF PUSH1 0x1 DUP4 ADD SLOAD AND PUSH1 0x3 DUP2 LT ISZERO PUSH2 0x277 JUMPI PUSH2 0x231 SWAP3 PUSH2 0x2F5 PUSH1 0x1 PUSH2 0x317 SWAP4 EQ PUSH2 0x1F25 JUMP JUMPDEST PUSH1 0x7 DUP2 ADD SWAP1 PUSH1 0xFF PUSH1 0x6 DUP4 SLOAD SWAP3 ADD SLOAD PUSH1 0x8 SHR AND DUP1 SWAP2 GT SWAP2 DUP3 PUSH2 0x37E JUMPI POP POP PUSH2 0x1F66 JUMP JUMPDEST PUSH1 0x4 PUSH2 0x33A PUSH2 0x325 DUP4 PUSH2 0x1C1A JUMP JUMPDEST POP PUSH1 0x7 PUSH1 0xFF PUSH1 0x6 DUP4 ADD SLOAD PUSH1 0x8 SHR AND SWAP2 ADD PUSH2 0x1CF5 JUMP JUMPDEST POP ADD PUSH1 0xFF NOT DUP2 SLOAD AND SWAP1 SSTORE PUSH1 0x40 MLOAD PUSH1 0x40 DUP2 MSTORE PUSH1 0x4 PUSH1 0x40 DUP3 ADD MSTORE PUSH4 0x119BDB19 PUSH1 0xE2 SHL PUSH1 0x60 DUP3 ADD MSTORE PUSH0 PUSH1 0x20 DUP3 ADD MSTORE DUP2 PUSH0 MLOAD PUSH1 0x20 PUSH2 0x38F2 PUSH0 CODECOPY PUSH0 MLOAD SWAP1 PUSH0 MSTORE PUSH1 0x80 CALLER SWAP4 LOG3 PUSH2 0x2689 JUMP JUMPDEST PUSH2 0x388 SWAP3 POP PUSH2 0x1CF5 JUMP JUMPDEST POP SLOAD PUSH1 0x1 PUSH1 0x1 PUSH1 0xA0 SHL SUB AND CALLER EQ DUP5 DUP1 PUSH2 0x13F JUMP JUMPDEST CALLVALUE PUSH2 0x28B JUMPI PUSH1 0x40 CALLDATASIZE PUSH1 0x3 NOT ADD SLT PUSH2 0x28B JUMPI PUSH1 0x24 CALLDATALOAD PUSH1 0x1 PUSH1 0x1 PUSH1 0xA0 SHL SUB DUP2 AND DUP2 SUB PUSH2 0x28B JUMPI PUSH2 0x3CF PUSH2 0x100 SWAP2 PUSH1 0x4 CALLDATALOAD PUSH2 0x2069 JUMP JUMPDEST PUSH2 0x3DC PUSH1 0x40 MLOAD DUP1 SWAP3 PUSH2 0x1B99 JUMP JUMPDEST RETURN JUMPDEST CALLVALUE PUSH2 0x28B JUMPI PUSH1 0x80 CALLDATASIZE PUSH1 0x3 NOT ADD SLT PUSH2 0x28B JUMPI PUSH0 SLOAD PUSH1 0x44 CALLDATALOAD PUSH1 0x4 CALLDATALOAD PUSH1 0x24 CALLDATALOAD PUSH1 0x64 CALLDATALOAD PUSH1 0xA DUP6 LT ISZERO PUSH2 0x93E JUMPI DUP3 ISZERO ISZERO DUP1 PUSH2 0x935 JUMPI JUMPDEST DUP1 PUSH2 0x92C JUMPI JUMPDEST ISZERO PUSH2 0x8F6 JUMPI DUP3 DUP3 LT PUSH2 0x8BA JUMPI PUSH1 0x40 MLOAD SWAP4 PUSH2 0x680 PUSH2 0x432 DUP2 DUP8 PUSH2 0x1DA8 JUMP JUMPDEST CALLDATASIZE DUP7 CALLDATACOPY PUSH1 0x20 SWAP5 PUSH1 0x40 MLOAD PUSH2 0x445 DUP8 DUP3 PUSH2 0x1DA8 JUMP JUMPDEST PUSH0 DUP2 MSTORE PUSH1 0x40 MLOAD SWAP3 PUSH1 0xA0 DUP5 ADD DUP5 DUP2 LT PUSH8 0xFFFFFFFFFFFFFFFF DUP3 GT OR PUSH2 0x776 JUMPI PUSH1 0x40 MSTORE PUSH0 DUP5 MSTORE PUSH0 DUP9 DUP6 ADD MSTORE PUSH0 PUSH1 0x40 DUP6 ADD MSTORE PUSH0 PUSH1 0x60 DUP6 ADD MSTORE PUSH0 PUSH1 0x80 DUP6 ADD MSTORE PUSH1 0x40 MLOAD SWAP6 PUSH2 0x48E DUP10 DUP9 PUSH2 0x1DA8 JUMP JUMPDEST PUSH0 DUP8 MSTORE PUSH1 0x40 MLOAD SWAP8 PUSH2 0x49E DUP10 PUSH2 0x1D8B JUMP JUMPDEST DUP11 DUP10 MSTORE PUSH0 DUP11 DUP11 ADD MSTORE PUSH1 0x40 DUP10 ADD MSTORE PUSH1 0x60 DUP9 ADD MSTORE PUSH1 0x80 DUP8 ADD MSTORE DUP4 PUSH1 0xA0 DUP8 ADD MSTORE PUSH0 PUSH1 0xC0 DUP8 ADD MSTORE PUSH0 PUSH1 0xE0 DUP8 ADD MSTORE PUSH2 0x100 DUP7 ADD MSTORE PUSH2 0x120 DUP6 ADD MSTORE PUSH0 PUSH2 0x140 DUP6 ADD MSTORE PUSH2 0x160 DUP5 ADD MSTORE PUSH0 PUSH2 0x180 DUP5 ADD MSTORE PUSH0 PUSH2 0x1A0 DUP5 ADD MSTORE PUSH2 0x1C0 DUP4 ADD MSTORE PUSH2 0x1E0 DUP3 ADD MSTORE TIMESTAMP PUSH2 0x200 DUP3 ADD MSTORE PUSH1 0x1 PUSH1 0x40 SHL DUP4 LT ISZERO PUSH2 0x776 JUMPI PUSH1 0x1 DUP4 ADD PUSH0 SSTORE PUSH2 0x51C DUP4 PUSH2 0x1C1A JUMP JUMPDEST SWAP3 SWAP1 SWAP3 PUSH2 0x8A7 JUMPI DUP2 MLOAD DUP4 SSTORE PUSH1 0x1 DUP4 ADD DUP2 DUP4 ADD MLOAD PUSH1 0x3 DUP2 LT ISZERO PUSH2 0x277 JUMPI PUSH1 0xFF DUP1 NOT DUP4 SLOAD AND SWAP2 AND OR SWAP1 SSTORE PUSH1 0x40 DUP3 ADD MLOAD PUSH1 0x2 DUP5 ADD SSTORE PUSH1 0x60 DUP3 ADD MLOAD PUSH1 0x3 DUP5 ADD SSTORE PUSH1 0x80 DUP3 ADD MLOAD PUSH1 0x4 DUP5 ADD SSTORE PUSH1 0xA0 DUP3 ADD MLOAD PUSH1 0x5 DUP5 ADD SSTORE PUSH2 0x5A3 PUSH1 0x6 DUP5 ADD PUSH1 0xFF DUP1 PUSH1 0xC0 DUP7 ADD MLOAD AND AND PUSH1 0xFF NOT DUP3 SLOAD AND OR DUP2 SSTORE PUSH1 0xFF PUSH1 0xE0 DUP6 ADD MLOAD AND PUSH2 0xFF00 DUP3 SLOAD SWAP2 PUSH1 0x8 SHL AND SWAP1 PUSH2 0xFF00 NOT AND OR SWAP1 SSTORE JUMP JUMPDEST PUSH1 0x7 DUP4 ADD PUSH2 0x100 DUP4 ADD MLOAD SWAP1 DUP2 MLOAD SWAP2 PUSH1 0x1 PUSH1 0x40 SHL DUP4 GT PUSH2 0x776 JUMPI DUP4 SWAP1 DUP3 SLOAD DUP5 DUP5 SSTORE DUP1 DUP6 LT PUSH2 0x834 JUMPI JUMPDEST POP ADD SWAP1 PUSH0 MSTORE DUP3 PUSH0 KECCAK256 DUP4 PUSH0 SWAP3 JUMPDEST DUP5 DUP5 LT PUSH2 0x815 JUMPI POP POP POP POP POP PUSH2 0x120 DUP3 ADD MLOAD PUSH0 JUMPDEST PUSH1 0x1 DUP2 LT PUSH2 0x7D4 JUMPI POP PUSH0 SWAP1 PUSH0 JUMPDEST DUP4 PUSH1 0x14 DUP3 LT PUSH2 0x7AF JUMPI POP POP POP PUSH1 0x9 DUP5 ADD SSTORE PUSH1 0xFF PUSH2 0x140 DUP4 ADD MLOAD AND PUSH1 0xFF PUSH1 0xA DUP6 ADD SWAP2 AND PUSH1 0xFF NOT DUP3 SLOAD AND OR SWAP1 SSTORE PUSH2 0x160 DUP3 ADD MLOAD PUSH0 SWAP1 PUSH0 JUMPDEST DUP4 PUSH1 0x5 DUP3 LT PUSH2 0x78A JUMPI POP POP POP PUSH1 0xB DUP5 ADD SSTORE PUSH1 0xC DUP4 ADD PUSH2 0x180 DUP4 ADD MLOAD PUSH1 0x6 DUP2 LT ISZERO PUSH2 0x277 JUMPI PUSH1 0xFF DUP1 NOT DUP4 SLOAD AND SWAP2 AND OR SWAP1 SSTORE PUSH2 0x1A0 DUP3 ADD MLOAD PUSH1 0xD DUP5 ADD SSTORE PUSH2 0x1C0 DUP3 ADD MLOAD PUSH1 0xE DUP5 ADD SSTORE PUSH1 0xF DUP4 ADD PUSH2 0x1E0 DUP4 ADD MLOAD SWAP2 DUP3 MLOAD SWAP3 PUSH1 0x1 PUSH1 0x40 SHL DUP5 GT PUSH2 0x776 JUMPI DUP2 SWAP1 DUP4 SLOAD DUP6 DUP6 SSTORE DUP1 DUP7 LT PUSH2 0x6FD JUMPI JUMPDEST POP ADD SWAP2 PUSH0 MSTORE DUP1 PUSH0 KECCAK256 PUSH0 SWAP3 JUMPDEST DUP5 DUP5 LT PUSH2 0x6E0 JUMPI PUSH2 0x200 DUP7 ADD MLOAD PUSH1 0x10 DUP9 ADD SSTORE CALLER DUP9 PUSH32 0xE93806E02D09F53787D307ADA312314EC4CB949DC9BEDC8503F94BD46E45DC6B PUSH0 DUP1 LOG3 STOP JUMPDEST PUSH1 0x2 DUP4 DUP3 PUSH2 0x6F1 PUSH1 0x1 SWAP5 MLOAD DUP7 PUSH2 0x1FDE JUMP JUMPDEST ADD SWAP3 ADD SWAP4 ADD SWAP3 SWAP1 PUSH2 0x6A6 JUMP JUMPDEST SWAP1 SWAP2 POP PUSH1 0x1 PUSH1 0x1 PUSH1 0xFF SHL SUB DUP2 AND DUP2 SUB PUSH2 0x762 JUMPI PUSH1 0x1 PUSH1 0x1 PUSH1 0xFF SHL SUB DUP6 AND DUP6 SUB PUSH2 0x762 JUMPI SWAP1 DUP3 SWAP2 DUP5 PUSH0 MSTORE DUP3 PUSH0 KECCAK256 SWAP1 PUSH1 0x1 SHL DUP2 ADD SWAP1 DUP7 PUSH1 0x1 SHL ADD JUMPDEST DUP2 DUP2 LT PUSH2 0x743 JUMPI POP PUSH2 0x69B JUMP JUMPDEST PUSH1 0x2 SWAP2 SWAP3 SWAP4 POP PUSH0 DUP2 SSTORE PUSH2 0x758 PUSH1 0x1 DUP3 ADD PUSH2 0x1FBB JUMP JUMPDEST ADD SWAP1 DUP4 SWAP3 SWAP2 PUSH2 0x736 JUMP JUMPDEST PUSH4 0x4E487B71 PUSH1 0xE0 SHL PUSH0 MSTORE PUSH1 0x11 PUSH1 0x4 MSTORE PUSH1 0x24 PUSH0 REVERT JUMPDEST PUSH4 0x4E487B71 PUSH1 0xE0 SHL PUSH0 MSTORE PUSH1 0x41 PUSH1 0x4 MSTORE PUSH1 0x24 PUSH0 REVERT JUMPDEST DUP3 MLOAD SWAP3 SWAP4 SWAP2 SWAP3 PUSH1 0x1 SWAP3 PUSH1 0xFF PUSH1 0x3 DUP7 SWAP1 SHL DUP2 DUP2 SHL NOT SWAP1 SWAP3 AND SWAP3 AND SWAP1 SHL OR SWAP4 ADD SWAP2 ADD PUSH2 0x62D JUMP JUMPDEST DUP3 MLOAD SWAP3 SWAP4 SWAP2 SWAP3 PUSH1 0x1 SWAP3 PUSH1 0xFF PUSH1 0x3 DUP7 SWAP1 SHL DUP2 DUP2 SHL NOT SWAP1 SWAP3 AND SWAP3 AND SWAP1 SHL OR SWAP4 ADD SWAP2 ADD PUSH2 0x5F8 JUMP JUMPDEST PUSH0 PUSH0 JUMPDEST DUP5 DUP1 DUP3 LT PUSH2 0x7F0 JUMPI POP POP DUP6 DUP3 ADD PUSH1 0x8 ADD SSTORE PUSH1 0x1 ADD PUSH2 0x5EB JUMP JUMPDEST DUP5 MLOAD SWAP2 SWAP5 SWAP3 PUSH1 0x1 SWAP3 PUSH1 0xFF PUSH1 0x3 DUP9 SWAP1 SHL DUP2 DUP2 SHL NOT SWAP1 SWAP4 AND SWAP2 AND SWAP1 SWAP2 SHL OR SWAP3 ADD SWAP4 ADD PUSH2 0x7D7 JUMP JUMPDEST PUSH1 0x1 SWAP2 DUP2 PUSH2 0x826 PUSH1 0x6 SWAP4 MLOAD DUP7 PUSH2 0x1DCA JUMP JUMPDEST ADD SWAP3 ADD SWAP3 ADD SWAP2 SWAP1 DUP5 SWAP1 PUSH2 0x5D7 JUMP JUMPDEST DUP1 SWAP2 SWAP3 POP PUSH1 0x6 MUL SWAP1 PUSH1 0x6 DUP3 DIV SUB PUSH2 0x762 JUMPI DUP4 PUSH1 0x6 MUL PUSH1 0x6 DUP2 DIV DUP6 SUB PUSH2 0x762 JUMPI PUSH0 DUP5 DUP2 MSTORE DUP7 SWAP1 KECCAK256 DUP7 SWAP4 SWAP3 DUP2 ADD SWAP2 ADD JUMPDEST DUP2 DUP2 LT PUSH2 0x86F JUMPI POP PUSH2 0x5CB JUMP JUMPDEST PUSH1 0x6 SWAP2 SWAP3 SWAP4 POP PUSH0 DUP2 SSTORE PUSH0 PUSH1 0x1 DUP3 ADD SSTORE PUSH0 PUSH1 0x2 DUP3 ADD SSTORE PUSH0 PUSH1 0x4 DUP3 ADD PUSH2 0x896 DUP2 PUSH1 0x3 DUP6 ADD PUSH2 0x1D28 JUMP JUMPDEST SSTORE PUSH0 PUSH1 0x5 DUP3 ADD SSTORE ADD SWAP1 DUP6 SWAP3 SWAP2 PUSH2 0x862 JUMP JUMPDEST PUSH4 0x4E487B71 PUSH1 0xE0 SHL PUSH0 MSTORE PUSH0 PUSH1 0x4 MSTORE PUSH1 0x24 PUSH0 REVERT JUMPDEST PUSH1 0x40 MLOAD PUSH3 0x461BCD PUSH1 0xE5 SHL DUP2 MSTORE PUSH1 0x20 PUSH1 0x4 DUP3 ADD MSTORE PUSH1 0x14 PUSH1 0x24 DUP3 ADD MSTORE PUSH20 0x496E76616C6964206275792D696E2072616E6765 PUSH1 0x60 SHL PUSH1 0x44 DUP3 ADD MSTORE PUSH1 0x64 SWAP1 REVERT JUMPDEST PUSH1 0x40 MLOAD PUSH3 0x461BCD PUSH1 0xE5 SHL DUP2 MSTORE PUSH1 0x20 PUSH1 0x4 DUP3 ADD MSTORE PUSH1 0xE PUSH1 0x24 DUP3 ADD MSTORE PUSH14 0x496E76616C6964207374616B6573 PUSH1 0x90 SHL PUSH1 0x44 DUP3 ADD MSTORE PUSH1 0x64 SWAP1 REVERT JUMPDEST POP DUP4 DUP2 GT PUSH2 0x415 JUMP JUMPDEST POP DUP4 ISZERO ISZERO PUSH2 0x40F JUMP JUMPDEST PUSH1 0x40 MLOAD PUSH3 0x461BCD PUSH1 0xE5 SHL DUP2 MSTORE PUSH1 0x20 PUSH1 0x4 DUP3 ADD MSTORE PUSH1 0x16 PUSH1 0x24 DUP3 ADD MSTORE PUSH22 0x13585E1A5B5D5B481D18589B195CC81C995858DA1959 PUSH1 0x52 SHL PUSH1 0x44 DUP3 ADD MSTORE PUSH1 0x64 SWAP1 REVERT JUMPDEST CALLVALUE PUSH2 0x28B JUMPI PUSH1 0x20 CALLDATASIZE PUSH1 0x3 NOT ADD SLT PUSH2 0x28B JUMPI PUSH1 0x4 CALLDATALOAD PUSH0 SLOAD DUP2 LT ISZERO PUSH2 0x28B JUMPI PUSH2 0x9A2 SWAP1 PUSH2 0x1C1A JUMP JUMPDEST POP DUP1 SLOAD SWAP1 PUSH1 0x1 DUP2 ADD SLOAD PUSH1 0xFF AND SWAP1 PUSH1 0x2 DUP2 ADD SLOAD PUSH1 0x3 DUP3 ADD SLOAD PUSH1 0x4 DUP4 ADD SLOAD PUSH1 0x5 DUP5 ADD SLOAD PUSH1 0x6 DUP6 ADD SLOAD SWAP1 PUSH1 0xA DUP7 ADD SLOAD PUSH1 0xFF AND SWAP3 PUSH1 0xC DUP8 ADD SLOAD PUSH1 0xFF AND SWAP5 PUSH1 0xD DUP9 ADD SLOAD SWAP7 PUSH1 0xE DUP10 ADD SLOAD SWAP9 PUSH1 0x10 ADD SLOAD SWAP10 PUSH1 0x40 MLOAD SWAP12 DUP13 MSTORE PUSH1 0x20 DUP13 ADD PUSH2 0x9FF SWAP2 PUSH2 0x1B8C JUMP JUMPDEST PUSH1 0x40 DUP12 ADD MSTORE PUSH1 0x60 DUP11 ADD MSTORE PUSH1 0x80 DUP10 ADD MSTORE PUSH1 0xA0 DUP9 ADD MSTORE PUSH1 0xFF DUP2 AND PUSH1 0xC0 DUP9 ADD MSTORE PUSH1 0x8 SHR PUSH1 0xFF AND PUSH1 0xE0 DUP8 ADD MSTORE PUSH2 0x100 DUP7 ADD MSTORE PUSH2 0x120 DUP6 ADD PUSH2 0xA3B SWAP2 PUSH2 0x1C0D JUMP JUMPDEST PUSH2 0x140 DUP5 ADD MSTORE PUSH2 0x160 DUP4 ADD MSTORE PUSH2 0x180 DUP3 ADD MSTORE PUSH2 0x1A0 SWAP1 RETURN JUMPDEST CALLVALUE PUSH2 0x28B JUMPI PUSH1 0x20 CALLDATASIZE PUSH1 0x3 NOT ADD SLT PUSH2 0x28B JUMPI PUSH1 0x4 CALLDATALOAD PUSH2 0xA73 PUSH0 SLOAD DUP3 LT PUSH2 0x1C66 JUMP JUMPDEST CALLER PUSH0 MSTORE PUSH1 0x1 PUSH1 0x20 MSTORE PUSH2 0xA8A DUP2 PUSH1 0x40 PUSH0 KECCAK256 SLOAD EQ PUSH2 0x1CA9 JUMP JUMPDEST PUSH2 0xA93 DUP2 PUSH2 0x1C1A JUMP JUMPDEST POP PUSH1 0xFF PUSH1 0x1 DUP3 ADD SLOAD AND SWAP1 PUSH1 0x3 DUP3 LT ISZERO PUSH2 0x277 JUMPI PUSH2 0xAB5 PUSH1 0x1 PUSH2 0xAD7 SWAP4 EQ PUSH2 0x1F25 JUMP JUMPDEST PUSH1 0x7 DUP2 ADD SWAP1 PUSH1 0xFF PUSH1 0x6 DUP4 SLOAD SWAP3 ADD SLOAD PUSH1 0x8 SHR AND DUP1 SWAP2 GT SWAP2 DUP3 PUSH2 0xB8A JUMPI POP POP PUSH2 0x1F66 JUMP JUMPDEST PUSH2 0xAE0 DUP2 PUSH2 0x1C1A JUMP JUMPDEST POP PUSH1 0xD PUSH1 0x2 PUSH2 0xAFC PUSH1 0xFF PUSH1 0x6 DUP6 ADD SLOAD PUSH1 0x8 SHR AND PUSH1 0x7 DUP6 ADD PUSH2 0x1CF5 JUMP JUMPDEST POP ADD SLOAD SWAP2 ADD SLOAD SUB PUSH2 0xB46 JUMPI PUSH2 0x231 SWAP1 PUSH1 0x40 MLOAD PUSH1 0x40 DUP2 MSTORE PUSH1 0x5 PUSH1 0x40 DUP3 ADD MSTORE PUSH5 0x436865636B PUSH1 0xD8 SHL PUSH1 0x60 DUP3 ADD MSTORE PUSH0 PUSH1 0x20 DUP3 ADD MSTORE DUP2 PUSH0 MLOAD PUSH1 0x20 PUSH2 0x38F2 PUSH0 CODECOPY PUSH0 MLOAD SWAP1 PUSH0 MSTORE PUSH1 0x80 CALLER SWAP4 LOG3 PUSH2 0x2689 JUMP JUMPDEST PUSH1 0x64 PUSH1 0x40 MLOAD PUSH3 0x461BCD PUSH1 0xE5 SHL DUP2 MSTORE PUSH1 0x20 PUSH1 0x4 DUP3 ADD MSTORE PUSH1 0x20 PUSH1 0x24 DUP3 ADD MSTORE PUSH32 0x43616E6E6F7420636865636B2C206D7573742063616C6C206F72207261697365 PUSH1 0x44 DUP3 ADD MSTORE REVERT JUMPDEST PUSH2 0xB94 SWAP3 POP PUSH2 0x1CF5 JUMP JUMPDEST POP SLOAD PUSH1 0x1 PUSH1 0x1 PUSH1 0xA0 SHL SUB AND CALLER EQ DUP4 DUP1 PUSH2 0x13F JUMP JUMPDEST CALLVALUE PUSH2 0x28B JUMPI PUSH0 CALLDATASIZE PUSH1 0x3 NOT ADD SLT PUSH2 0x28B JUMPI PUSH1 0x20 PUSH1 0x40 MLOAD PUSH1 0x3C DUP2 MSTORE RETURN JUMPDEST CALLVALUE PUSH2 0x28B JUMPI PUSH2 0xBD1 CALLDATASIZE PUSH2 0x1B76 JUMP JUMPDEST SWAP1 PUSH2 0xBDE PUSH0 SLOAD DUP3 LT PUSH2 0x1C66 JUMP JUMPDEST CALLER PUSH0 MSTORE PUSH1 0x1 PUSH1 0x20 MSTORE PUSH2 0xBF5 DUP2 PUSH1 0x40 PUSH0 KECCAK256 SLOAD EQ PUSH2 0x1CA9 JUMP JUMPDEST PUSH2 0xBFE DUP2 PUSH2 0x1C1A JUMP JUMPDEST POP PUSH1 0xFF PUSH1 0x1 DUP3 ADD SLOAD AND SWAP1 PUSH1 0x3 DUP3 LT ISZERO PUSH2 0x277 JUMPI PUSH2 0x2F5 PUSH1 0x1 PUSH2 0xC20 SWAP4 EQ PUSH2 0x1F25 JUMP JUMPDEST PUSH2 0xC29 DUP2 PUSH2 0x1C1A JUMP JUMPDEST POP SWAP1 PUSH1 0x7 DUP3 ADD SWAP3 PUSH2 0xC44 PUSH1 0xFF PUSH1 0x6 DUP6 ADD SLOAD PUSH1 0x8 SHR AND DUP6 PUSH2 0x1CF5 JUMP JUMPDEST POP SWAP3 PUSH1 0xD DUP2 ADD DUP1 SLOAD SWAP1 PUSH1 0x2 DUP7 ADD SWAP1 PUSH2 0xC67 DUP6 PUSH2 0xC62 DUP5 SLOAD DUP1 SWAP7 PUSH2 0x1D0E JUMP JUMPDEST PUSH2 0x1D1B JUMP JUMPDEST SWAP4 PUSH1 0x1 DUP9 ADD SWAP5 DUP6 SLOAD SWAP2 DUP2 DUP4 LT PUSH2 0xD59 JUMPI PUSH1 0xE ADD SWAP5 DUP6 SLOAD DUP9 LT PUSH2 0xD1B JUMPI DUP8 SWAP7 PUSH2 0xC92 DUP4 PUSH2 0xC99 SWAP6 PUSH2 0x1D0E JUMP JUMPDEST SWAP1 SSTORE PUSH2 0x1D1B JUMP JUMPDEST DUP1 SWAP3 SSTORE SSTORE SSTORE PUSH1 0x40 MLOAD SWAP1 PUSH1 0x40 DUP3 MSTORE PUSH1 0x5 PUSH1 0x40 DUP4 ADD MSTORE PUSH5 0x5261697365 PUSH1 0xD8 SHL PUSH1 0x60 DUP4 ADD MSTORE PUSH1 0x20 DUP3 ADD MSTORE DUP2 PUSH0 MLOAD PUSH1 0x20 PUSH2 0x38F2 PUSH0 CODECOPY PUSH0 MLOAD SWAP1 PUSH0 MSTORE PUSH1 0x80 CALLER SWAP4 LOG3 PUSH0 JUMPDEST DUP4 SLOAD DUP2 LT ISZERO PUSH2 0x217 JUMPI DUP1 PUSH1 0xFF PUSH1 0x4 PUSH2 0xCF0 PUSH1 0x1 SWAP5 DUP9 PUSH2 0x1CF5 JUMP JUMPDEST POP ADD SLOAD AND PUSH2 0xCFF JUMPI JUMPDEST ADD PUSH2 0xCD6 JUMP JUMPDEST PUSH1 0x4 PUSH2 0xD0B DUP3 DUP8 PUSH2 0x1CF5 JUMP JUMPDEST POP ADD DUP1 SLOAD PUSH2 0xFF00 NOT AND SWAP1 SSTORE PUSH2 0xCF9 JUMP JUMPDEST PUSH1 0x40 MLOAD PUSH3 0x461BCD PUSH1 0xE5 SHL DUP2 MSTORE PUSH1 0x20 PUSH1 0x4 DUP3 ADD MSTORE PUSH1 0x16 PUSH1 0x24 DUP3 ADD MSTORE PUSH22 0x14985A5CD948185B5BDD5B9D081D1BDBC81CDB585B1B PUSH1 0x52 SHL PUSH1 0x44 DUP3 ADD MSTORE PUSH1 0x64 SWAP1 REVERT JUMPDEST PUSH1 0x40 MLOAD PUSH3 0x461BCD PUSH1 0xE5 SHL DUP2 MSTORE PUSH1 0x20 PUSH1 0x4 DUP3 ADD MSTORE PUSH1 0x1B PUSH1 0x24 DUP3 ADD MSTORE PUSH32 0x496E73756666696369656E7420636869707320746F2072616973650000000000 PUSH1 0x44 DUP3 ADD MSTORE PUSH1 0x64 SWAP1 REVERT JUMPDEST CALLVALUE PUSH2 0x28B JUMPI PUSH0 CALLDATASIZE PUSH1 0x3 NOT ADD SLT PUSH2 0x28B JUMPI PUSH1 0x20 PUSH1 0x40 MLOAD PUSH1 0x9 DUP2 MSTORE RETURN JUMPDEST CALLVALUE PUSH2 0x28B JUMPI PUSH0 CALLDATASIZE PUSH1 0x3 NOT ADD SLT PUSH2 0x28B JUMPI PUSH1 0x20 PUSH1 0x40 MLOAD PUSH1 0xA DUP2 MSTORE RETURN JUMPDEST CALLVALUE PUSH2 0x28B JUMPI PUSH1 0x20 CALLDATASIZE PUSH1 0x3 NOT ADD SLT PUSH2 0x28B JUMPI PUSH1 0x4 CALLDATALOAD PUSH2 0xDF4 PUSH0 SLOAD DUP3 LT PUSH2 0x1C66 JUMP JUMPDEST CALLER PUSH0 MSTORE PUSH1 0x1 PUSH1 0x20 MSTORE PUSH2 0xE0B DUP2 PUSH1 0x40 PUSH0 KECCAK256 SLOAD EQ PUSH2 0x1CA9 JUMP JUMPDEST PUSH2 0xE14 DUP2 PUSH2 0x1C1A JUMP JUMPDEST POP PUSH1 0xFF PUSH1 0x1 DUP3 ADD SLOAD AND SWAP1 PUSH1 0x3 DUP3 LT ISZERO PUSH2 0x277 JUMPI PUSH2 0xAB5 PUSH1 0x1 PUSH2 0xE36 SWAP4 EQ PUSH2 0x1F25 JUMP JUMPDEST PUSH2 0xE3F DUP2 PUSH2 0x1C1A JUMP JUMPDEST POP SWAP1 PUSH1 0xD PUSH2 0xE5A PUSH1 0xFF PUSH1 0x6 DUP6 ADD SLOAD PUSH1 0x8 SHR AND PUSH1 0x7 DUP6 ADD PUSH2 0x1CF5 JUMP JUMPDEST POP SWAP3 ADD SLOAD SWAP2 PUSH1 0x2 DUP2 ADD PUSH2 0xE6F DUP2 SLOAD DUP1 SWAP6 PUSH2 0x1D0E JUMP JUMPDEST SWAP2 DUP3 ISZERO PUSH2 0xF16 JUMPI PUSH1 0x1 ADD DUP1 SLOAD DUP4 DUP2 LT PUSH2 0xED1 JUMPI PUSH2 0x231 SWAP6 PUSH2 0xE95 SWAP3 PUSH2 0xC92 DUP7 DUP1 SWAP5 PUSH2 0x1D0E JUMP JUMPDEST SWAP1 SSTORE PUSH1 0x40 MLOAD SWAP1 PUSH1 0x40 DUP3 MSTORE PUSH1 0x4 PUSH1 0x40 DUP4 ADD MSTORE PUSH4 0x10D85B1B PUSH1 0xE2 SHL PUSH1 0x60 DUP4 ADD MSTORE PUSH1 0x20 DUP3 ADD MSTORE DUP2 PUSH0 MLOAD PUSH1 0x20 PUSH2 0x38F2 PUSH0 CODECOPY PUSH0 MLOAD SWAP1 PUSH0 MSTORE PUSH1 0x80 CALLER SWAP4 LOG3 PUSH2 0x2689 JUMP JUMPDEST PUSH1 0x40 MLOAD PUSH3 0x461BCD PUSH1 0xE5 SHL DUP2 MSTORE PUSH1 0x20 PUSH1 0x4 DUP3 ADD MSTORE PUSH1 0x1A PUSH1 0x24 DUP3 ADD MSTORE PUSH32 0x496E73756666696369656E7420636869707320746F2063616C6C000000000000 PUSH1 0x44 DUP3 ADD MSTORE PUSH1 0x64 SWAP1 REVERT JUMPDEST PUSH1 0x40 MLOAD PUSH3 0x461BCD PUSH1 0xE5 SHL DUP2 MSTORE PUSH1 0x20 PUSH1 0x4 DUP3 ADD MSTORE PUSH1 0xF PUSH1 0x24 DUP3 ADD MSTORE PUSH15 0x139BDD1A1A5B99C81D1BC818D85B1B PUSH1 0x8A SHL PUSH1 0x44 DUP3 ADD MSTORE PUSH1 0x64 SWAP1 REVERT JUMPDEST CALLVALUE PUSH2 0x28B JUMPI PUSH1 0x20 CALLDATASIZE PUSH1 0x3 NOT ADD SLT PUSH2 0x28B JUMPI PUSH1 0x4 CALLDATALOAD PUSH1 0x40 MLOAD PUSH2 0xF6D DUP2 PUSH2 0x1D8B JUMP JUMPDEST PUSH0 DUP2 MSTORE PUSH0 PUSH1 0x20 DUP3 ADD MSTORE PUSH0 PUSH1 0x40 DUP3 ADD MSTORE PUSH0 PUSH1 0x60 DUP3 ADD MSTORE PUSH0 PUSH1 0x80 DUP3 ADD MSTORE PUSH0 PUSH1 0xA0 DUP3 ADD MSTORE PUSH0 PUSH1 0xC0 DUP3 ADD MSTORE PUSH0 PUSH1 0xE0 DUP3 ADD MSTORE PUSH1 0x60 PUSH2 0x100 DUP3 ADD MSTORE PUSH2 0x1015 PUSH2 0x680 SWAP3 PUSH1 0x40 MLOAD PUSH2 0xFB6 DUP6 DUP3 PUSH2 0x1DA8 JUMP JUMPDEST DUP5 CALLDATASIZE DUP3 CALLDATACOPY PUSH2 0x120 DUP5 ADD MSTORE PUSH0 PUSH2 0x140 DUP5 ADD MSTORE PUSH0 PUSH2 0x200 PUSH1 0xA0 SWAP5 PUSH1 0x40 MLOAD PUSH2 0xFDB DUP8 DUP3 PUSH2 0x1DA8 JUMP JUMPDEST DUP7 CALLDATASIZE DUP3 CALLDATACOPY PUSH2 0x160 DUP3 ADD MSTORE DUP3 PUSH2 0x180 DUP3 ADD MSTORE DUP3 PUSH2 0x1A0 DUP3 ADD MSTORE DUP3 PUSH2 0x1C0 DUP3 ADD MSTORE PUSH1 0x60 PUSH2 0x1E0 DUP3 ADD MSTORE ADD MSTORE PUSH2 0x1010 PUSH0 SLOAD DUP3 LT PUSH2 0x1C66 JUMP JUMPDEST PUSH2 0x1C1A JUMP JUMPDEST POP PUSH1 0x40 MLOAD SWAP3 PUSH2 0x1023 DUP5 PUSH2 0x1D8B JUMP JUMPDEST DUP2 SLOAD DUP5 MSTORE PUSH1 0xFF PUSH1 0x1 DUP4 ADD SLOAD AND PUSH1 0x3 DUP2 LT ISZERO PUSH2 0x277 JUMPI PUSH1 0x20 DUP6 ADD MSTORE PUSH1 0x2 DUP3 ADD SLOAD PUSH1 0x40 DUP6 ADD MSTORE PUSH1 0x3 DUP3 ADD SLOAD PUSH1 0x60 DUP6 ADD MSTORE PUSH1 0x4 DUP3 ADD SLOAD PUSH1 0x80 DUP6 ADD MSTORE PUSH1 0x5 DUP3 ADD SLOAD DUP4 DUP6 ADD MSTORE PUSH1 0xFF PUSH1 0x6 DUP4 ADD SLOAD DUP2 DUP2 AND PUSH1 0xC0 DUP8 ADD MSTORE PUSH1 0x8 SHR AND PUSH1 0xE0 DUP6 ADD MSTORE PUSH1 0x7 DUP3 ADD DUP1 SLOAD PUSH2 0x108B DUP2 PUSH2 0x1E8F JUMP JUMPDEST SWAP2 PUSH2 0x1099 PUSH1 0x40 MLOAD SWAP4 DUP5 PUSH2 0x1DA8 JUMP JUMPDEST DUP2 DUP4 MSTORE PUSH1 0x20 DUP4 ADD SWAP1 PUSH0 MSTORE PUSH1 0x20 PUSH0 KECCAK256 PUSH0 SWAP2 JUMPDEST DUP4 DUP4 LT PUSH2 0x16C3 JUMPI POP POP POP POP PUSH2 0x100 DUP6 ADD MSTORE PUSH1 0x40 MLOAD SWAP1 DUP2 PUSH1 0x8 DUP5 ADD PUSH0 JUMPDEST PUSH1 0x34 PUSH1 0x1F DUP3 ADD LT PUSH2 0x1523 JUMPI POP SWAP1 PUSH2 0x260 PUSH1 0xFF PUSH2 0x11C0 SWAP5 SWAP4 SLOAD DUP2 DUP2 AND DUP5 MSTORE DUP2 DUP2 PUSH1 0x8 SHR AND PUSH1 0x20 DUP6 ADD MSTORE DUP2 DUP2 PUSH1 0x10 SHR AND PUSH1 0x40 DUP6 ADD MSTORE DUP2 DUP2 PUSH1 0x18 SHR AND PUSH1 0x60 DUP6 ADD MSTORE DUP2 DUP2 PUSH1 0x20 SHR AND PUSH1 0x80 DUP6 ADD MSTORE DUP2 DUP2 PUSH1 0x28 SHR AND DUP10 DUP6 ADD MSTORE DUP2 DUP2 PUSH1 0x30 SHR AND PUSH1 0xC0 DUP6 ADD MSTORE DUP2 DUP2 PUSH1 0x38 SHR AND PUSH1 0xE0 DUP6 ADD MSTORE DUP2 DUP2 PUSH1 0x40 SHR AND PUSH2 0x100 DUP6 ADD MSTORE DUP2 DUP2 PUSH1 0x48 SHR AND PUSH2 0x120 DUP6 ADD MSTORE DUP2 DUP2 PUSH1 0x50 SHR AND PUSH2 0x140 DUP6 ADD MSTORE DUP2 DUP2 PUSH1 0x58 SHR AND PUSH2 0x160 DUP6 ADD MSTORE DUP2 DUP2 PUSH1 0x60 SHR AND PUSH2 0x180 DUP6 ADD MSTORE DUP2 DUP2 PUSH1 0x68 SHR AND PUSH2 0x1A0 DUP6 ADD MSTORE DUP2 DUP2 PUSH1 0x70 SHR AND PUSH2 0x1C0 DUP6 ADD MSTORE DUP2 DUP2 PUSH1 0x78 SHR AND PUSH2 0x1E0 DUP6 ADD MSTORE DUP2 DUP2 PUSH1 0x80 SHR AND PUSH2 0x200 DUP6 ADD MSTORE DUP2 DUP2 PUSH1 0x88 SHR AND PUSH2 0x220 DUP6 ADD MSTORE DUP2 DUP2 PUSH1 0x90 SHR AND PUSH2 0x240 DUP6 ADD MSTORE PUSH1 0x98 SHR AND SWAP2 ADD MSTORE DUP3 PUSH2 0x1DA8 JUMP JUMPDEST PUSH2 0x120 DUP5 ADD MSTORE PUSH1 0xFF PUSH1 0xA DUP3 ADD SLOAD AND PUSH2 0x140 DUP5 ADD MSTORE PUSH1 0x40 MLOAD PUSH2 0x1214 DUP2 PUSH1 0xB DUP5 ADD PUSH1 0xFF PUSH1 0x80 SWAP2 SLOAD DUP2 DUP2 AND DUP5 MSTORE DUP2 DUP2 PUSH1 0x8 SHR AND PUSH1 0x20 DUP6 ADD MSTORE DUP2 DUP2 PUSH1 0x10 SHR AND PUSH1 0x40 DUP6 ADD MSTORE DUP2 DUP2 PUSH1 0x18 SHR AND PUSH1 0x60 DUP6 ADD MSTORE PUSH1 0x20 SHR AND SWAP2 ADD MSTORE JUMP JUMPDEST PUSH2 0x121E DUP4 DUP3 PUSH2 0x1DA8 JUMP JUMPDEST PUSH2 0x160 DUP5 ADD MSTORE PUSH1 0xFF PUSH1 0xC DUP3 ADD SLOAD AND PUSH1 0x6 DUP2 LT ISZERO PUSH2 0x277 JUMPI PUSH2 0x180 DUP5 ADD MSTORE PUSH1 0xD DUP2 ADD SLOAD PUSH2 0x1A0 DUP5 ADD MSTORE PUSH1 0xE DUP2 ADD SLOAD PUSH2 0x1C0 DUP5 ADD MSTORE PUSH1 0xF DUP2 ADD SLOAD PUSH2 0x125F DUP2 PUSH2 0x1E8F JUMP JUMPDEST SWAP1 PUSH2 0x126D PUSH1 0x40 MLOAD SWAP3 DUP4 PUSH2 0x1DA8 JUMP JUMPDEST DUP1 DUP3 MSTORE PUSH1 0x20 DUP3 ADD PUSH1 0xF DUP5 ADD PUSH0 MSTORE PUSH1 0x20 PUSH0 KECCAK256 PUSH0 SWAP2 JUMPDEST DUP4 DUP4 LT PUSH2 0x14A3 JUMPI DUP8 DUP8 PUSH1 0x10 DUP9 DUP9 PUSH2 0x1E0 DUP6 ADD MSTORE ADD SLOAD PUSH2 0x200 DUP4 ADD MSTORE PUSH1 0x40 MLOAD SWAP1 PUSH1 0x20 DUP3 MSTORE DUP3 MLOAD PUSH1 0x20 DUP4 ADD MSTORE PUSH2 0x12BD PUSH1 0x20 DUP5 ADD MLOAD PUSH1 0x40 DUP5 ADD SWAP1 PUSH2 0x1B8C JUMP JUMPDEST PUSH1 0x40 DUP4 ADD MLOAD PUSH1 0x60 DUP4 ADD MSTORE PUSH1 0x60 DUP4 ADD MLOAD PUSH1 0x80 DUP4 ADD MSTORE PUSH1 0x80 DUP4 ADD MLOAD DUP2 DUP4 ADD MSTORE DUP3 ADD MLOAD PUSH1 0xC0 DUP3 ADD MSTORE PUSH1 0xFF PUSH1 0xC0 DUP4 ADD MLOAD AND PUSH1 0xE0 DUP3 ADD MSTORE PUSH1 0xFF PUSH1 0xE0 DUP4 ADD MLOAD AND PUSH2 0x100 DUP3 ADD MSTORE PUSH2 0x100 DUP3 ADD MLOAD SWAP2 PUSH2 0x900 PUSH2 0x120 DUP4 ADD MSTORE DUP3 MLOAD DUP1 PUSH2 0x920 DUP5 ADD MSTORE PUSH1 0x20 PUSH2 0x940 DUP5 ADD SWAP5 ADD SWAP1 PUSH0 JUMPDEST DUP2 DUP2 LT PUSH2 0x1482 JUMPI POP POP POP PUSH2 0x120 DUP2 ADD MLOAD PUSH0 PUSH2 0x140 DUP5 ADD JUMPDEST PUSH1 0x34 DUP3 LT PUSH2 0x1469 JUMPI POP POP POP PUSH2 0x140 DUP2 ADD MLOAD PUSH1 0xFF AND PUSH2 0x7C0 DUP4 ADD MSTORE PUSH2 0x160 DUP2 ADD MLOAD PUSH0 PUSH2 0x7E0 DUP5 ADD JUMPDEST PUSH1 0x5 DUP3 LT PUSH2 0x1450 JUMPI POP POP POP PUSH2 0x137F PUSH2 0x180 DUP3 ADD MLOAD PUSH2 0x880 DUP5 ADD SWAP1 PUSH2 0x1C0D JUMP JUMPDEST PUSH2 0x1A0 DUP2 ADD MLOAD PUSH2 0x8A0 DUP4 ADD MSTORE PUSH2 0x1C0 DUP2 ADD MLOAD PUSH2 0x8C0 DUP4 ADD MSTORE PUSH2 0x1E0 DUP2 ADD MLOAD SWAP1 PUSH1 0x1F NOT DUP4 DUP6 SUB ADD PUSH2 0x8E0 DUP5 ADD MSTORE DUP2 MLOAD DUP1 DUP6 MSTORE PUSH1 0x20 DUP6 ADD SWAP1 PUSH1 0x20 DUP1 DUP3 PUSH1 0x5 SHL DUP9 ADD ADD SWAP5 ADD SWAP2 PUSH0 SWAP1 JUMPDEST DUP3 DUP3 LT PUSH2 0x13DE JUMPI PUSH2 0x200 DUP6 ADD MLOAD PUSH2 0x900 DUP9 ADD MSTORE DUP7 DUP7 SUB DUP8 RETURN JUMPDEST SWAP1 SWAP2 SWAP3 SWAP5 PUSH1 0x1F NOT DUP9 DUP3 SUB ADD DUP3 MSTORE DUP6 MLOAD PUSH1 0x20 PUSH1 0x60 DUP2 PUSH1 0x40 DUP6 ADD SWAP4 DUP1 MLOAD DUP7 MSTORE ADD MLOAD SWAP4 PUSH1 0x40 DUP4 DUP3 ADD MSTORE DUP5 MLOAD DUP1 SWAP5 MSTORE ADD SWAP3 ADD SWAP1 PUSH0 SWAP1 JUMPDEST DUP1 DUP3 LT PUSH2 0x142E JUMPI POP POP POP PUSH1 0x20 DUP1 PUSH1 0x1 SWAP3 SWAP8 ADD SWAP3 ADD SWAP3 ADD SWAP1 SWAP3 SWAP2 PUSH2 0x13C5 JUMP JUMPDEST DUP3 MLOAD PUSH1 0x1 PUSH1 0x1 PUSH1 0xA0 SHL SUB AND DUP5 MSTORE PUSH1 0x20 SWAP4 DUP5 ADD SWAP4 SWAP1 SWAP3 ADD SWAP2 PUSH1 0x1 SWAP1 SWAP2 ADD SWAP1 PUSH2 0x1410 JUMP JUMPDEST PUSH1 0x20 DUP1 PUSH1 0x1 SWAP3 PUSH1 0xFF DUP7 MLOAD AND DUP2 MSTORE ADD SWAP4 ADD SWAP2 ADD SWAP1 SWAP2 PUSH2 0x1360 JUMP JUMPDEST PUSH1 0x20 DUP1 PUSH1 0x1 SWAP3 PUSH1 0xFF DUP7 MLOAD AND DUP2 MSTORE ADD SWAP4 ADD SWAP2 ADD SWAP1 SWAP2 PUSH2 0x1339 JUMP JUMPDEST SWAP1 SWAP2 SWAP5 PUSH1 0x20 PUSH2 0x100 DUP3 PUSH2 0x1498 PUSH1 0x1 SWAP5 DUP11 MLOAD PUSH2 0x1B99 JUMP JUMPDEST ADD SWAP7 ADD SWAP3 SWAP2 ADD PUSH2 0x1322 JUMP JUMPDEST PUSH1 0x40 MLOAD PUSH2 0x14AF DUP2 PUSH2 0x1D53 JUMP JUMPDEST DUP3 SLOAD DUP2 MSTORE PUSH1 0x1 DUP4 ADD PUSH1 0x40 MLOAD SWAP1 DUP2 PUSH1 0x20 DUP3 SLOAD SWAP2 DUP3 DUP2 MSTORE ADD SWAP2 PUSH0 MSTORE PUSH1 0x20 PUSH0 KECCAK256 SWAP1 PUSH0 SWAP1 JUMPDEST DUP1 DUP3 LT PUSH2 0x1501 JUMPI POP POP POP SWAP3 PUSH1 0x2 SWAP3 DUP3 PUSH2 0x14EF PUSH1 0x20 SWAP5 PUSH1 0x1 SWAP8 SUB DUP3 PUSH2 0x1DA8 JUMP JUMPDEST DUP4 DUP3 ADD MSTORE DUP2 MSTORE ADD SWAP3 ADD SWAP3 ADD SWAP2 SWAP1 PUSH2 0x1281 JUMP JUMPDEST DUP3 SLOAD PUSH1 0x1 PUSH1 0x1 PUSH1 0xA0 SHL SUB AND DUP5 MSTORE PUSH1 0x20 SWAP1 SWAP4 ADD SWAP3 PUSH1 0x1 SWAP3 DUP4 ADD SWAP3 SWAP1 SWAP2 ADD SWAP1 PUSH2 0x14D0 JUMP JUMPDEST SWAP1 SWAP2 PUSH1 0x1 PUSH2 0x400 PUSH1 0x20 SWAP3 DUP6 SLOAD PUSH1 0xFF DUP2 AND DUP3 MSTORE PUSH1 0xFF DUP2 PUSH1 0x8 SHR AND DUP6 DUP4 ADD MSTORE PUSH1 0xFF DUP2 PUSH1 0x10 SHR AND PUSH1 0x40 DUP4 ADD MSTORE PUSH1 0xFF DUP2 PUSH1 0x18 SHR AND PUSH1 0x60 DUP4 ADD MSTORE PUSH1 0xFF DUP2 DUP7 SHR AND PUSH1 0x80 DUP4 ADD MSTORE PUSH1 0xFF DUP2 PUSH1 0x28 SHR AND DUP12 DUP4 ADD MSTORE PUSH1 0xFF DUP2 PUSH1 0x30 SHR AND PUSH1 0xC0 DUP4 ADD MSTORE PUSH1 0xFF DUP2 PUSH1 0x38 SHR AND PUSH1 0xE0 DUP4 ADD MSTORE PUSH1 0xFF DUP2 PUSH1 0x40 SHR AND PUSH2 0x100 DUP4 ADD MSTORE PUSH1 0xFF DUP2 PUSH1 0x48 SHR AND PUSH2 0x120 DUP4 ADD MSTORE PUSH1 0xFF DUP2 PUSH1 0x50 SHR AND PUSH2 0x140 DUP4 ADD MSTORE PUSH1 0xFF DUP2 PUSH1 0x58 SHR AND PUSH2 0x160 DUP4 ADD MSTORE PUSH1 0xFF DUP2 PUSH1 0x60 SHR AND PUSH2 0x180 DUP4 ADD MSTORE PUSH1 0xFF DUP2 PUSH1 0x68 SHR AND PUSH2 0x1A0 DUP4 ADD MSTORE PUSH1 0xFF DUP2 PUSH1 0x70 SHR AND PUSH2 0x1C0 DUP4 ADD MSTORE PUSH1 0xFF DUP2 PUSH1 0x78 SHR AND PUSH2 0x1E0 DUP4 ADD MSTORE PUSH1 0xFF DUP2 PUSH1 0x80 SHR AND PUSH2 0x200 DUP4 ADD MSTORE PUSH1 0xFF DUP2 PUSH1 0x88 SHR AND PUSH2 0x220 DUP4 ADD MSTORE PUSH1 0xFF DUP2 PUSH1 0x90 SHR AND PUSH2 0x240 DUP4 ADD MSTORE PUSH1 0xFF DUP2 PUSH1 0x98 SHR AND PUSH2 0x260 DUP4 ADD MSTORE PUSH1 0xFF DUP2 DUP13 SHR AND PUSH2 0x280 DUP4 ADD MSTORE PUSH1 0xFF DUP2 PUSH1 0xA8 SHR AND PUSH2 0x2A0 DUP4 ADD MSTORE PUSH1 0xFF DUP2 PUSH1 0xB0 SHR AND PUSH2 0x2C0 DUP4 ADD MSTORE PUSH1 0xFF DUP2 PUSH1 0xB8 SHR AND PUSH2 0x2E0 DUP4 ADD MSTORE PUSH1 0xFF DUP2 PUSH1 0xC0 SHR AND PUSH2 0x300 DUP4 ADD MSTORE PUSH1 0xFF DUP2 PUSH1 0xC8 SHR AND PUSH2 0x320 DUP4 ADD MSTORE PUSH1 0xFF DUP2 PUSH1 0xD0 SHR AND PUSH2 0x340 DUP4 ADD MSTORE PUSH1 0xFF DUP2 PUSH1 0xD8 SHR AND PUSH2 0x360 DUP4 ADD MSTORE PUSH1 0xFF DUP2 PUSH1 0xE0 SHR AND PUSH2 0x380 DUP4 ADD MSTORE PUSH1 0xFF DUP2 PUSH1 0xE8 SHR AND PUSH2 0x3A0 DUP4 ADD MSTORE PUSH1 0xFF DUP2 PUSH1 0xF0 SHR AND PUSH2 0x3C0 DUP4 ADD MSTORE PUSH1 0xF8 SHR PUSH2 0x3E0 DUP3 ADD MSTORE ADD SWAP4 ADD SWAP2 ADD PUSH2 0x10C6 JUMP JUMPDEST PUSH1 0x6 PUSH1 0x20 PUSH1 0x1 SWAP3 PUSH2 0x16D3 DUP6 PUSH2 0x1EA7 JUMP JUMPDEST DUP2 MSTORE ADD SWAP3 ADD SWAP3 ADD SWAP2 SWAP1 PUSH2 0x10AA JUMP JUMPDEST CALLVALUE PUSH2 0x28B JUMPI PUSH2 0x16EF CALLDATASIZE PUSH2 0x1B76 JUMP JUMPDEST PUSH2 0x16FB PUSH0 SLOAD DUP4 LT PUSH2 0x1C66 JUMP JUMPDEST PUSH2 0x1704 DUP3 PUSH2 0x1C1A JUMP JUMPDEST POP SWAP1 PUSH1 0x7 DUP3 ADD DUP1 SLOAD SWAP2 PUSH1 0x9 DUP4 LT ISZERO PUSH2 0x18E5 JUMPI CALLER PUSH0 MSTORE PUSH1 0x1 PUSH1 0x20 MSTORE PUSH1 0x40 PUSH0 KECCAK256 SLOAD PUSH2 0x18A0 JUMPI PUSH1 0x2 DUP5 ADD SLOAD DUP2 LT ISZERO DUP1 PUSH2 0x1892 JUMPI JUMPDEST ISZERO PUSH2 0x1855 JUMPI PUSH1 0x40 MLOAD SWAP3 PUSH2 0x1747 DUP5 PUSH2 0x1D53 JUMP JUMPDEST PUSH0 DUP5 MSTORE PUSH0 PUSH1 0x20 DUP6 ADD MSTORE PUSH1 0x40 MLOAD SWAP4 PUSH2 0x175D DUP6 PUSH2 0x1D6F JUMP JUMPDEST CALLER DUP6 MSTORE DUP3 PUSH1 0x20 DUP7 ADD MSTORE PUSH0 PUSH1 0x40 DUP7 ADD MSTORE PUSH1 0x60 DUP6 ADD MSTORE PUSH0 PUSH1 0x80 DUP6 ADD MSTORE PUSH1 0x1 PUSH1 0xA0 DUP6 ADD MSTORE TIMESTAMP PUSH1 0xC0 DUP6 ADD MSTORE PUSH1 0x1 PUSH1 0x40 SHL DUP2 LT ISZERO PUSH2 0x776 JUMPI DUP1 PUSH1 0x1 PUSH2 0x17A0 SWAP3 ADD DUP5 SSTORE DUP4 PUSH2 0x1CF5 JUMP JUMPDEST PUSH2 0x8A7 JUMPI PUSH1 0x2 SWAP4 PUSH2 0x17B0 SWAP2 PUSH2 0x1DCA JUMP JUMPDEST CALLER PUSH0 MSTORE PUSH1 0x1 PUSH1 0x20 MSTORE DUP5 PUSH1 0x40 PUSH0 KECCAK256 SSTORE TIMESTAMP PUSH1 0x10 DUP6 ADD SSTORE PUSH1 0x40 MLOAD SWAP1 DUP2 MSTORE DUP5 PUSH32 0x3DFBE1FCB4E2D61F3B4A0C93D8F814C92250618B3387F396CC9FC9FAFE2C203 PUSH1 0x20 CALLER SWAP4 LOG3 SLOAD LT ISZERO DUP1 PUSH2 0x183D JUMPI JUMPDEST PUSH2 0x1800 JUMPI STOP JUMPDEST PUSH1 0x1 ADD PUSH1 0x1 PUSH1 0xFF NOT DUP3 SLOAD AND OR SWAP1 SSTORE PUSH2 0x1817 DUP2 PUSH2 0x2197 JUMP JUMPDEST PUSH32 0x50AD08F58A27F2851D7E3A1B3A6A46B290F2CE677E99642D30FF639721E77790 PUSH0 DUP1 LOG2 STOP JUMPDEST POP PUSH1 0xFF PUSH1 0x1 DUP3 ADD SLOAD AND PUSH1 0x3 DUP2 LT ISZERO PUSH2 0x277 JUMPI ISZERO PUSH2 0x17FA JUMP JUMPDEST PUSH1 0x40 MLOAD PUSH3 0x461BCD PUSH1 0xE5 SHL DUP2 MSTORE PUSH1 0x20 PUSH1 0x4 DUP3 ADD MSTORE PUSH1 0x15 PUSH1 0x24 DUP3 ADD MSTORE PUSH21 0x125B9D985B1A5908189D5E4B5A5B88185B5BDD5B9D PUSH1 0x5A SHL PUSH1 0x44 DUP3 ADD MSTORE PUSH1 0x64 SWAP1 REVERT JUMPDEST POP PUSH1 0x3 DUP5 ADD SLOAD DUP2 GT ISZERO PUSH2 0x1735 JUMP JUMPDEST PUSH1 0x40 MLOAD PUSH3 0x461BCD PUSH1 0xE5 SHL DUP2 MSTORE PUSH1 0x20 PUSH1 0x4 DUP3 ADD MSTORE PUSH1 0x19 PUSH1 0x24 DUP3 ADD MSTORE PUSH32 0x506C6179657220616C72656164792061742061207461626C6500000000000000 PUSH1 0x44 DUP3 ADD MSTORE PUSH1 0x64 SWAP1 REVERT JUMPDEST PUSH1 0x40 MLOAD PUSH3 0x461BCD PUSH1 0xE5 SHL DUP2 MSTORE PUSH1 0x20 PUSH1 0x4 DUP3 ADD MSTORE PUSH1 0xD PUSH1 0x24 DUP3 ADD MSTORE PUSH13 0x1518589B19481A5CC8199D5B1B PUSH1 0x9A SHL PUSH1 0x44 DUP3 ADD MSTORE PUSH1 0x64 SWAP1 REVERT JUMPDEST CALLVALUE PUSH2 0x28B JUMPI PUSH1 0x20 CALLDATASIZE PUSH1 0x3 NOT ADD SLT PUSH2 0x28B JUMPI PUSH1 0x4 CALLDATALOAD PUSH2 0x193A PUSH0 SLOAD DUP3 LT PUSH2 0x1C66 JUMP JUMPDEST CALLER PUSH0 MSTORE PUSH1 0x1 PUSH1 0x20 MSTORE PUSH2 0x1951 DUP2 PUSH1 0x40 PUSH0 KECCAK256 SLOAD EQ PUSH2 0x1CA9 JUMP JUMPDEST PUSH2 0x195A DUP2 PUSH2 0x1C1A JUMP JUMPDEST POP SWAP1 PUSH0 SWAP2 PUSH0 SWAP3 PUSH1 0x7 DUP3 ADD SWAP4 DUP5 SLOAD SWAP1 JUMPDEST DUP2 DUP2 LT PUSH2 0x1B10 JUMPI JUMPDEST POP POP JUMPDEST DUP4 SLOAD PUSH0 NOT DUP2 ADD SWAP1 DUP2 GT PUSH2 0x762 JUMPI DUP2 LT ISZERO PUSH2 0x1A5A JUMPI PUSH1 0x1 DUP2 ADD DUP1 DUP3 GT PUSH2 0x762 JUMPI PUSH2 0x199D SWAP1 DUP6 PUSH2 0x1CF5 JUMP JUMPDEST POP SWAP1 PUSH2 0x19A9 DUP2 DUP7 PUSH2 0x1CF5 JUMP JUMPDEST PUSH2 0x8A7 JUMPI DUP3 PUSH1 0x1 SWAP4 DUP3 SUB PUSH2 0x19C0 JUMPI JUMPDEST POP POP ADD PUSH2 0x1974 JUMP JUMPDEST PUSH1 0x5 DUP1 SWAP2 DUP6 DUP1 PUSH1 0xA0 SHL SUB DUP7 DUP1 PUSH1 0xA0 SHL SUB DUP3 SLOAD AND AND PUSH12 0xFFFFFFFFFFFFFFFFFFFFFFFF PUSH1 0xA0 SHL DUP6 SLOAD AND OR DUP5 SSTORE DUP6 DUP2 ADD SLOAD DUP7 DUP6 ADD SSTORE PUSH1 0x2 DUP2 ADD SLOAD PUSH1 0x2 DUP6 ADD SSTORE PUSH2 0x1A0C PUSH1 0x3 DUP3 ADD PUSH1 0x3 DUP7 ADD PUSH2 0x1D3E JUMP JUMPDEST PUSH2 0x1A4E PUSH1 0x4 DUP6 ADD PUSH1 0xFF PUSH1 0x4 DUP5 ADD PUSH2 0x1A32 DUP3 DUP3 SLOAD AND DUP5 SWAP1 PUSH1 0xFF DUP1 NOT DUP4 SLOAD AND SWAP2 ISZERO ISZERO AND OR SWAP1 SSTORE JUMP JUMPDEST SLOAD PUSH1 0x8 SHR AND PUSH2 0xFF00 DUP3 SLOAD SWAP2 ISZERO ISZERO PUSH1 0x8 SHL AND SWAP1 PUSH2 0xFF00 NOT AND OR SWAP1 SSTORE JUMP JUMPDEST ADD SLOAD SWAP2 ADD SSTORE DUP6 DUP1 PUSH2 0x19B8 JUMP JUMPDEST POP SWAP2 DUP1 SLOAD DUP1 ISZERO PUSH2 0x1AFC JUMPI PUSH0 NOT ADD SWAP2 PUSH2 0x1A72 DUP4 DUP4 PUSH2 0x1CF5 JUMP JUMPDEST SWAP4 SWAP1 SWAP4 PUSH2 0x8A7 JUMPI PUSH0 PUSH1 0x5 DUP6 DUP3 PUSH1 0x2 SWAP8 SSTORE DUP3 PUSH1 0x1 DUP3 ADD SSTORE DUP3 DUP8 DUP3 ADD SSTORE DUP3 PUSH1 0x4 DUP3 ADD PUSH2 0x1A9F DUP2 PUSH1 0x3 DUP6 ADD PUSH2 0x1D28 JUMP JUMPDEST SSTORE ADD SSTORE DUP3 SSTORE CALLER PUSH0 MSTORE PUSH1 0x1 PUSH1 0x20 MSTORE PUSH0 PUSH1 0x40 DUP2 KECCAK256 SSTORE CALLER SWAP1 PUSH32 0xB2BD643202385C64D9814C6C3FA61B1BA098D6652292E9D9A6F1A0CDAE6EB824 PUSH0 DUP1 LOG3 SLOAD LT PUSH2 0x1AE0 JUMPI STOP JUMPDEST DUP1 PUSH1 0x1 PUSH1 0xC SWAP3 ADD PUSH1 0xFF NOT DUP2 SLOAD AND SWAP1 SSTORE ADD PUSH1 0xFF NOT DUP2 SLOAD AND SWAP1 SSTORE PUSH0 DUP1 RETURN JUMPDEST PUSH4 0x4E487B71 PUSH1 0xE0 SHL PUSH0 MSTORE PUSH1 0x31 PUSH1 0x4 MSTORE PUSH1 0x24 PUSH0 REVERT JUMPDEST PUSH2 0x1B1A DUP2 DUP8 PUSH2 0x1CF5 JUMP JUMPDEST POP SLOAD PUSH1 0x1 PUSH1 0x1 PUSH1 0xA0 SHL SUB AND CALLER EQ PUSH2 0x1B33 JUMPI PUSH1 0x1 ADD PUSH2 0x1969 JUMP JUMPDEST SWAP2 POP POP DUP5 DUP1 PUSH2 0x1971 JUMP JUMPDEST CALLVALUE PUSH2 0x28B JUMPI PUSH1 0x20 CALLDATASIZE PUSH1 0x3 NOT ADD SLT PUSH2 0x28B JUMPI PUSH1 0x4 CALLDATALOAD PUSH1 0x1 PUSH1 0x1 PUSH1 0xA0 SHL SUB DUP2 AND SWAP2 SWAP1 DUP3 SWAP1 SUB PUSH2 0x28B JUMPI PUSH1 0x20 SWAP2 PUSH0 MSTORE PUSH1 0x1 DUP3 MSTORE PUSH1 0x40 PUSH0 KECCAK256 SLOAD DUP2 MSTORE RETURN JUMPDEST PUSH1 0x40 SWAP1 PUSH1 0x3 NOT ADD SLT PUSH2 0x28B JUMPI PUSH1 0x4 CALLDATALOAD SWAP1 PUSH1 0x24 CALLDATALOAD SWAP1 JUMP JUMPDEST SWAP1 PUSH1 0x3 DUP3 LT ISZERO PUSH2 0x277 JUMPI MSTORE JUMP JUMPDEST DUP1 MLOAD PUSH1 0x1 PUSH1 0x1 PUSH1 0xA0 SHL SUB AND DUP3 MSTORE PUSH1 0x20 DUP1 DUP3 ADD MLOAD SWAP1 DUP4 ADD MSTORE PUSH1 0x40 DUP1 DUP3 ADD MLOAD SWAP1 DUP4 ADD MSTORE PUSH1 0x60 DUP1 DUP3 ADD MLOAD SWAP1 PUSH0 SWAP1 DUP5 ADD JUMPDEST PUSH1 0x2 DUP3 LT PUSH2 0x1BF4 JUMPI POP POP POP PUSH1 0xC0 DUP2 PUSH1 0x80 PUSH1 0xE0 SWAP4 ADD MLOAD ISZERO ISZERO PUSH1 0xA0 DUP6 ADD MSTORE PUSH1 0xA0 DUP2 ADD MLOAD ISZERO ISZERO DUP3 DUP6 ADD MSTORE ADD MLOAD SWAP2 ADD MSTORE JUMP JUMPDEST PUSH1 0x20 DUP1 PUSH1 0x1 SWAP3 PUSH1 0xFF DUP7 MLOAD AND DUP2 MSTORE ADD SWAP4 ADD SWAP2 ADD SWAP1 SWAP2 PUSH2 0x1BC6 JUMP JUMPDEST SWAP1 PUSH1 0x6 DUP3 LT ISZERO PUSH2 0x277 JUMPI MSTORE JUMP JUMPDEST PUSH0 SLOAD DUP2 LT ISZERO PUSH2 0x1C52 JUMPI PUSH0 DUP1 DUP1 MSTORE PUSH1 0x11 SWAP2 SWAP1 SWAP2 MUL PUSH32 0x290DECD9548B62A8D60345A988386FC84BA6BC95484008F6362F93160EF3E563 ADD SWAP2 JUMP JUMPDEST PUSH4 0x4E487B71 PUSH1 0xE0 SHL PUSH0 MSTORE PUSH1 0x32 PUSH1 0x4 MSTORE PUSH1 0x24 PUSH0 REVERT JUMPDEST ISZERO PUSH2 0x1C6D JUMPI JUMP JUMPDEST PUSH1 0x40 MLOAD PUSH3 0x461BCD PUSH1 0xE5 SHL DUP2 MSTORE PUSH1 0x20 PUSH1 0x4 DUP3 ADD MSTORE PUSH1 0x14 PUSH1 0x24 DUP3 ADD MSTORE PUSH20 0x1518589B1948191BD95CC81B9BDD08195E1A5CDD PUSH1 0x62 SHL PUSH1 0x44 DUP3 ADD MSTORE PUSH1 0x64 SWAP1 REVERT JUMPDEST ISZERO PUSH2 0x1CB0 JUMPI JUMP JUMPDEST PUSH1 0x40 MLOAD PUSH3 0x461BCD PUSH1 0xE5 SHL DUP2 MSTORE PUSH1 0x20 PUSH1 0x4 DUP3 ADD MSTORE PUSH1 0x19 PUSH1 0x24 DUP3 ADD MSTORE PUSH32 0x596F7520617265206E6F742061742074686973207461626C6500000000000000 PUSH1 0x44 DUP3 ADD MSTORE PUSH1 0x64 SWAP1 REVERT JUMPDEST DUP1 SLOAD DUP3 LT ISZERO PUSH2 0x1C52 JUMPI PUSH0 MSTORE PUSH1 0x6 PUSH1 0x20 PUSH0 KECCAK256 SWAP2 MUL ADD SWAP1 PUSH0 SWAP1 JUMP JUMPDEST SWAP2 SWAP1 DUP3 SUB SWAP2 DUP3 GT PUSH2 0x762 JUMPI JUMP JUMPDEST SWAP2 SWAP1 DUP3 ADD DUP1 SWAP3 GT PUSH2 0x762 JUMPI JUMP JUMPDEST DUP2 DUP2 LT PUSH2 0x1D33 JUMPI POP POP JUMP JUMPDEST PUSH0 DUP2 SSTORE PUSH1 0x1 ADD PUSH2 0x1D28 JUMP JUMPDEST SWAP1 DUP1 DUP3 EQ PUSH2 0x1D4F JUMPI SLOAD PUSH2 0xFFFF AND SWAP1 SSTORE JUMP JUMPDEST POP POP JUMP JUMPDEST PUSH1 0x40 DUP2 ADD SWAP1 DUP2 LT PUSH8 0xFFFFFFFFFFFFFFFF DUP3 GT OR PUSH2 0x776 JUMPI PUSH1 0x40 MSTORE JUMP JUMPDEST PUSH1 0xE0 DUP2 ADD SWAP1 DUP2 LT PUSH8 0xFFFFFFFFFFFFFFFF DUP3 GT OR PUSH2 0x776 JUMPI PUSH1 0x40 MSTORE JUMP JUMPDEST PUSH2 0x220 DUP2 ADD SWAP1 DUP2 LT PUSH8 0xFFFFFFFFFFFFFFFF DUP3 GT OR PUSH2 0x776 JUMPI PUSH1 0x40 MSTORE JUMP JUMPDEST SWAP1 PUSH1 0x1F DUP1 NOT SWAP2 ADD AND DUP2 ADD SWAP1 DUP2 LT PUSH8 0xFFFFFFFFFFFFFFFF DUP3 GT OR PUSH2 0x776 JUMPI PUSH1 0x40 MSTORE JUMP JUMPDEST DUP2 MLOAD DUP2 SLOAD PUSH1 0x1 PUSH1 0x1 PUSH1 0xA0 SHL SUB NOT AND PUSH1 0x1 PUSH1 0x1 PUSH1 0xA0 SHL SUB SWAP2 SWAP1 SWAP2 AND OR DUP2 SSTORE PUSH1 0x20 DUP3 ADD MLOAD PUSH1 0x1 DUP3 ADD SSTORE PUSH1 0x40 DUP3 ADD MLOAD PUSH1 0x2 DUP3 ADD SSTORE PUSH1 0x60 DUP3 ADD MLOAD SWAP1 SWAP2 SWAP1 PUSH0 SWAP1 DUP2 JUMPDEST PUSH1 0x2 DUP2 LT PUSH2 0x1E61 JUMPI POP POP PUSH1 0x5 SWAP2 PUSH1 0xC0 SWAP2 PUSH1 0x3 DUP6 ADD SSTORE PUSH2 0x1E5A PUSH1 0x4 DUP6 ADD PUSH2 0x1E3F PUSH1 0x80 DUP5 ADD MLOAD ISZERO ISZERO DUP3 SWAP1 PUSH1 0xFF DUP1 NOT DUP4 SLOAD AND SWAP2 ISZERO ISZERO AND OR SWAP1 SSTORE JUMP JUMPDEST PUSH1 0xA0 DUP4 ADD MLOAD DUP2 SLOAD PUSH2 0xFF00 NOT AND SWAP1 ISZERO ISZERO PUSH1 0x8 SHL PUSH2 0xFF00 AND OR SWAP1 SSTORE JUMP JUMPDEST ADD MLOAD SWAP2 ADD SSTORE JUMP JUMPDEST SWAP1 SWAP2 PUSH1 0x20 PUSH2 0x1E86 PUSH1 0x1 SWAP3 DUP5 PUSH1 0xFF DUP8 MLOAD AND SWAP2 SWAP1 PUSH1 0xFF DUP1 SWAP2 PUSH1 0x3 SHL SWAP4 AND DUP4 SHL SWAP3 SHL NOT AND OR SWAP1 JUMP JUMPDEST SWAP4 ADD SWAP2 ADD PUSH2 0x1E07 JUMP JUMPDEST PUSH8 0xFFFFFFFFFFFFFFFF DUP2 GT PUSH2 0x776 JUMPI PUSH1 0x5 SHL PUSH1 0x20 ADD SWAP1 JUMP JUMPDEST SWAP1 PUSH1 0x40 MLOAD PUSH2 0x1EB4 DUP2 PUSH2 0x1D6F JUMP JUMPDEST PUSH1 0xC0 PUSH1 0x5 DUP3 SWAP5 PUSH1 0x1 DUP1 PUSH1 0xA0 SHL SUB DUP2 SLOAD AND DUP5 MSTORE PUSH1 0x1 DUP2 ADD SLOAD PUSH1 0x20 DUP6 ADD MSTORE PUSH1 0x2 DUP2 ADD SLOAD PUSH1 0x40 DUP6 ADD MSTORE PUSH1 0x40 MLOAD PUSH1 0xFF PUSH1 0x3 DUP4 ADD SLOAD DUP2 DUP2 AND DUP4 MSTORE PUSH1 0x8 SHR AND PUSH1 0x20 DUP3 ADD MSTORE PUSH2 0x1EFD PUSH1 0x40 DUP3 PUSH2 0x1DA8 JUMP JUMPDEST PUSH1 0x60 DUP6 ADD MSTORE PUSH1 0xFF PUSH1 0x4 DUP3 ADD SLOAD DUP2 DUP2 AND ISZERO ISZERO PUSH1 0x80 DUP8 ADD MSTORE PUSH1 0x8 SHR AND ISZERO ISZERO PUSH1 0xA0 DUP6 ADD MSTORE ADD SLOAD SWAP2 ADD MSTORE JUMP JUMPDEST ISZERO PUSH2 0x1F2C JUMPI JUMP JUMPDEST PUSH1 0x40 MLOAD PUSH3 0x461BCD PUSH1 0xE5 SHL DUP2 MSTORE PUSH1 0x20 PUSH1 0x4 DUP3 ADD MSTORE PUSH1 0x12 PUSH1 0x24 DUP3 ADD MSTORE PUSH18 0x47616D65206973206E6F7420616374697665 PUSH1 0x70 SHL PUSH1 0x44 DUP3 ADD MSTORE PUSH1 0x64 SWAP1 REVERT JUMPDEST ISZERO PUSH2 0x1F6D JUMPI JUMP JUMPDEST PUSH1 0x40 MLOAD PUSH3 0x461BCD PUSH1 0xE5 SHL DUP2 MSTORE PUSH1 0x20 PUSH1 0x4 DUP3 ADD MSTORE PUSH1 0xD PUSH1 0x24 DUP3 ADD MSTORE PUSH13 0x2737BA103CB7BAB9103A3AB937 PUSH1 0x99 SHL PUSH1 0x44 DUP3 ADD MSTORE PUSH1 0x64 SWAP1 REVERT JUMPDEST PUSH1 0x40 MLOAD SWAP1 PUSH2 0x1FAF DUP3 PUSH2 0x1D53 JUMP JUMPDEST PUSH1 0x60 PUSH1 0x20 DUP4 PUSH0 DUP2 MSTORE ADD MSTORE JUMP JUMPDEST DUP1 SLOAD PUSH0 DUP3 SSTORE DUP1 PUSH2 0x1FC9 JUMPI POP POP JUMP JUMPDEST PUSH2 0x1FDC SWAP2 PUSH0 MSTORE PUSH1 0x20 PUSH0 KECCAK256 SWAP1 DUP2 ADD SWAP1 PUSH2 0x1D28 JUMP JUMPDEST JUMP JUMPDEST PUSH1 0x1 PUSH1 0x20 SWAP2 DUP4 MLOAD DUP2 SSTORE ADD SWAP2 ADD MLOAD SWAP1 DUP2 MLOAD SWAP2 PUSH8 0xFFFFFFFFFFFFFFFF DUP4 GT PUSH2 0x776 JUMPI PUSH1 0x1 PUSH1 0x40 SHL DUP4 GT PUSH2 0x776 JUMPI PUSH1 0x20 SWAP1 DUP3 SLOAD DUP5 DUP5 SSTORE DUP1 DUP6 LT PUSH2 0x204E JUMPI JUMPDEST POP ADD SWAP1 PUSH0 MSTORE PUSH1 0x20 PUSH0 KECCAK256 PUSH0 JUMPDEST DUP4 DUP2 LT PUSH2 0x2031 JUMPI POP POP POP POP JUMP JUMPDEST DUP3 MLOAD PUSH1 0x1 PUSH1 0x1 PUSH1 0xA0 SHL SUB AND DUP2 DUP4 ADD SSTORE PUSH1 0x20 SWAP1 SWAP3 ADD SWAP2 PUSH1 0x1 ADD PUSH2 0x2024 JUMP JUMPDEST PUSH2 0x2063 SWAP1 DUP5 PUSH0 MSTORE DUP6 DUP5 PUSH0 KECCAK256 SWAP2 DUP3 ADD SWAP2 ADD PUSH2 0x1D28 JUMP JUMPDEST PUSH0 PUSH2 0x2019 JUMP JUMPDEST PUSH1 0x40 MLOAD SWAP2 PUSH2 0x2076 DUP4 PUSH2 0x1D6F JUMP JUMPDEST PUSH0 DUP4 MSTORE PUSH0 PUSH1 0x20 DUP5 ADD MSTORE PUSH0 PUSH1 0x40 DUP5 ADD MSTORE PUSH1 0x40 SWAP3 DUP4 MLOAD PUSH2 0x2094 DUP6 DUP3 PUSH2 0x1DA8 JUMP JUMPDEST DUP5 CALLDATASIZE DUP3 CALLDATACOPY PUSH1 0x60 DUP3 ADD MSTORE PUSH0 PUSH1 0x80 DUP3 ADD MSTORE PUSH0 PUSH1 0xA0 DUP3 ADD MSTORE PUSH0 PUSH1 0xC0 DUP3 ADD MSTORE POP PUSH2 0x20BC PUSH0 SLOAD DUP4 LT PUSH2 0x1C66 JUMP JUMPDEST PUSH0 JUMPDEST PUSH1 0x7 PUSH2 0x20C9 DUP5 PUSH2 0x1C1A JUMP JUMPDEST POP ADD SLOAD DUP2 LT ISZERO PUSH2 0x2123 JUMPI PUSH2 0x20E9 DUP2 PUSH1 0x7 PUSH2 0x20E2 DUP7 PUSH2 0x1C1A JUMP JUMPDEST POP ADD PUSH2 0x1CF5 JUMP JUMPDEST POP SLOAD PUSH1 0x1 PUSH1 0x1 PUSH1 0xA0 SHL SUB DUP4 DUP2 AND SWAP2 AND EQ PUSH2 0x2105 JUMPI PUSH1 0x1 ADD PUSH2 0x20BE JUMP JUMPDEST SWAP1 POP PUSH2 0x2120 SWAP3 POP PUSH1 0x7 PUSH2 0x20E2 PUSH2 0x211A SWAP4 PUSH2 0x1C1A JUMP JUMPDEST POP PUSH2 0x1EA7 JUMP JUMPDEST SWAP1 JUMP JUMPDEST DUP4 MLOAD PUSH3 0x461BCD PUSH1 0xE5 SHL DUP2 MSTORE PUSH1 0x20 PUSH1 0x4 DUP3 ADD MSTORE PUSH1 0x1E PUSH1 0x24 DUP3 ADD MSTORE PUSH32 0x506C61796572206E6F7420666F756E642061742074686973207461626C650000 PUSH1 0x44 DUP3 ADD MSTORE PUSH1 0x64 SWAP1 REVERT JUMPDEST PUSH1 0xFF PUSH1 0x1 SWAP2 AND ADD SWAP1 PUSH1 0xFF DUP3 GT PUSH2 0x762 JUMPI JUMP JUMPDEST DUP2 ISZERO PUSH2 0x2183 JUMPI MOD SWAP1 JUMP JUMPDEST PUSH4 0x4E487B71 PUSH1 0xE0 SHL PUSH0 MSTORE PUSH1 0x12 PUSH1 0x4 MSTORE PUSH1 0x24 PUSH0 REVERT JUMPDEST PUSH2 0x21A0 DUP2 PUSH2 0x1C1A JUMP JUMPDEST POP SWAP1 PUSH1 0x7 DUP3 ADD SWAP1 PUSH0 JUMPDEST DUP3 SLOAD DUP2 LT ISZERO PUSH2 0x228E JUMPI PUSH1 0x1 PUSH2 0x21BE DUP3 DUP6 PUSH2 0x1CF5 JUMP JUMPDEST POP ADD SLOAD ISZERO PUSH2 0x2270 JUMPI PUSH1 0x4 PUSH2 0x21D2 DUP3 DUP6 PUSH2 0x1CF5 JUMP JUMPDEST POP ADD DUP1 SLOAD PUSH1 0xFF NOT AND PUSH1 0x1 OR SWAP1 SSTORE PUSH1 0x4 PUSH2 0x21EB DUP3 DUP6 PUSH2 0x1CF5 JUMP JUMPDEST POP ADD DUP1 SLOAD PUSH2 0xFF00 NOT AND SWAP1 SSTORE PUSH0 PUSH1 0x2 PUSH2 0x2203 DUP4 DUP7 PUSH2 0x1CF5 JUMP JUMPDEST POP ADD SSTORE PUSH1 0x40 MLOAD PUSH2 0x2212 DUP2 PUSH2 0x1D53 JUMP JUMPDEST PUSH0 DUP2 MSTORE PUSH0 PUSH1 0x20 DUP3 ADD MSTORE PUSH2 0x2225 DUP3 DUP6 PUSH2 0x1CF5 JUMP JUMPDEST POP PUSH0 SWAP2 PUSH0 JUMPDEST PUSH1 0x2 DUP2 LT PUSH2 0x2242 JUMPI POP POP PUSH1 0x3 ADD SSTORE PUSH1 0x1 SWAP1 JUMPDEST ADD PUSH2 0x21A9 JUMP JUMPDEST SWAP1 SWAP3 PUSH1 0x20 PUSH2 0x2267 PUSH1 0x1 SWAP3 DUP5 PUSH1 0xFF DUP9 MLOAD AND SWAP2 SWAP1 PUSH1 0xFF DUP1 SWAP2 PUSH1 0x3 SHL SWAP4 AND DUP4 SHL SWAP3 SHL NOT AND OR SWAP1 JUMP JUMPDEST SWAP5 ADD SWAP2 ADD PUSH2 0x222A JUMP JUMPDEST DUP1 PUSH1 0x4 PUSH2 0x227F PUSH1 0x1 SWAP4 DUP7 PUSH2 0x1CF5 JUMP JUMPDEST POP ADD DUP1 SLOAD PUSH1 0xFF NOT AND SWAP1 SSTORE PUSH2 0x223C JUMP JUMPDEST POP SWAP2 SWAP1 PUSH1 0xF DUP3 ADD DUP1 SLOAD SWAP1 PUSH0 DUP2 SSTORE DUP2 PUSH2 0x264B JUMPI JUMPDEST POP POP PUSH1 0xFF DUP1 PUSH2 0x22C6 PUSH1 0x6 DUP6 SWAP7 SWAP6 ADD SWAP4 DUP3 PUSH2 0x22BD DUP2 DUP8 SLOAD AND PUSH2 0x2167 JUMP JUMPDEST SWAP2 SLOAD SWAP2 AND PUSH2 0x2179 JUMP JUMPDEST AND AND PUSH1 0xFF NOT DUP3 SLOAD AND OR SWAP1 SSTORE PUSH2 0x22DA DUP2 PUSH2 0x1C1A JUMP JUMPDEST POP PUSH1 0x8 DUP2 ADD PUSH0 JUMPDEST PUSH1 0x34 PUSH1 0xFF DUP3 AND LT PUSH2 0x2605 JUMPI POP PUSH1 0x40 MLOAD PUSH1 0x20 DUP2 ADD SWAP1 TIMESTAMP DUP3 MSTORE PREVRANDAO PUSH1 0x40 DUP3 ADD MSTORE CALLER PUSH1 0x60 SHL PUSH1 0x60 DUP3 ADD MSTORE PUSH1 0x54 DUP2 MSTORE PUSH2 0x2316 PUSH1 0x74 DUP3 PUSH2 0x1DA8 JUMP JUMPDEST MLOAD SWAP1 KECCAK256 PUSH0 JUMPDEST PUSH1 0x34 DUP2 LT PUSH2 0x255F JUMPI POP POP POP PUSH1 0xA ADD DUP1 SLOAD PUSH1 0xFF NOT AND SWAP1 SSTORE PUSH2 0x242A PUSH2 0x233D DUP3 PUSH2 0x1C1A JUMP JUMPDEST POP PUSH1 0xFF PUSH2 0x2415 PUSH1 0x6 DUP4 ADD SWAP3 DUP3 PUSH2 0x22BD PUSH2 0x2358 DUP3 DUP8 SLOAD AND PUSH2 0x2167 JUMP JUMPDEST SWAP3 DUP3 PUSH2 0x23CA PUSH2 0x23C0 DUP3 PUSH2 0x2373 PUSH1 0x7 DUP7 ADD SWAP9 DUP3 DUP11 SLOAD SWAP2 AND PUSH2 0x2179 JUMP JUMPDEST AND PUSH1 0x4 DUP6 ADD SLOAD DUP1 PUSH1 0x2 PUSH2 0x2386 DUP5 DUP13 PUSH2 0x1CF5 JUMP JUMPDEST POP ADD SSTORE PUSH2 0x23A2 PUSH1 0x1 PUSH2 0x2398 DUP5 DUP13 PUSH2 0x1CF5 JUMP JUMPDEST POP ADD SWAP2 DUP3 SLOAD PUSH2 0x1D0E JUMP JUMPDEST SWAP1 SSTORE PUSH1 0x4 PUSH2 0x23B0 DUP3 DUP11 PUSH2 0x1CF5 JUMP JUMPDEST POP ADD DUP1 SLOAD PUSH2 0xFF00 NOT AND SWAP1 SSTORE PUSH2 0x2167 JUMP JUMPDEST DUP3 DUP8 SLOAD SWAP2 AND PUSH2 0x2179 JUMP JUMPDEST AND SWAP1 PUSH1 0xD PUSH1 0x5 DUP3 ADD DUP1 SLOAD DUP1 PUSH1 0x2 PUSH2 0x23E1 DUP8 DUP12 PUSH2 0x1CF5 JUMP JUMPDEST POP ADD SSTORE PUSH2 0x23F3 PUSH1 0x1 PUSH2 0x2398 DUP8 DUP12 PUSH2 0x1CF5 JUMP JUMPDEST SWAP1 SSTORE PUSH1 0x4 PUSH2 0x2401 DUP6 DUP10 PUSH2 0x1CF5 JUMP JUMPDEST POP ADD DUP1 SLOAD PUSH2 0xFF00 NOT AND SWAP1 SSTORE SLOAD SWAP2 ADD SSTORE PUSH2 0x2167 JUMP JUMPDEST DUP3 SLOAD PUSH2 0xFF00 NOT AND SWAP2 AND PUSH1 0x8 SHL PUSH2 0xFF00 AND OR SWAP1 SSTORE JUMP JUMPDEST PUSH2 0x2433 DUP2 PUSH2 0x1C1A JUMP JUMPDEST POP PUSH1 0x7 DUP2 ADD SWAP2 PUSH0 JUMPDEST DUP4 SLOAD DUP2 LT ISZERO PUSH2 0x250C JUMPI DUP1 PUSH1 0xFF PUSH1 0x4 PUSH2 0x2455 PUSH1 0x1 SWAP5 DUP9 PUSH2 0x1CF5 JUMP JUMPDEST POP ADD SLOAD AND PUSH2 0x2464 JUMPI JUMPDEST ADD PUSH2 0x243B JUMP JUMPDEST PUSH1 0xFF PUSH2 0x24D4 PUSH1 0x8 DUP7 ADD PUSH1 0xA DUP8 ADD SWAP1 DUP4 PUSH2 0x2493 DUP2 DUP5 SLOAD AND DUP3 PUSH2 0x2484 DUP3 PUSH2 0x2F56 JUMP JUMPDEST AND DUP4 NOT DUP7 SLOAD AND OR DUP6 SSTORE DUP4 PUSH2 0x2F3D JUMP JUMPDEST SWAP1 SLOAD SWAP1 PUSH1 0x3 SHL SHR AND PUSH1 0x3 PUSH2 0x24A7 DUP8 DUP13 PUSH2 0x1CF5 JUMP JUMPDEST POP ADD DUP1 SLOAD DUP7 NOT AND SWAP2 DUP7 AND SWAP2 SWAP1 SWAP2 OR SWAP1 SSTORE DUP2 SLOAD DUP5 AND SWAP2 DUP5 PUSH2 0x24C6 DUP5 PUSH2 0x2F56 JUMP JUMPDEST AND DUP6 NOT DUP3 SLOAD AND OR SWAP1 SSTORE PUSH2 0x2F3D JUMP JUMPDEST SWAP1 SLOAD SWAP1 PUSH1 0x3 SHL SHR AND PUSH2 0x2505 PUSH1 0x3 PUSH2 0x24EB DUP5 DUP10 PUSH2 0x1CF5 JUMP JUMPDEST POP ADD SWAP2 DUP5 DUP4 SLOAD SWAP1 PUSH1 0xFF DUP1 SWAP2 PUSH1 0x3 SHL SWAP4 AND DUP4 SHL SWAP3 SHL NOT AND OR SWAP1 JUMP JUMPDEST SWAP1 SSTORE PUSH2 0x245E JUMP JUMPDEST POP SWAP3 SWAP1 POP PUSH1 0xC SWAP2 POP ADD PUSH1 0x1 PUSH1 0xFF NOT DUP3 SLOAD AND OR SWAP1 SSTORE PUSH0 MLOAD PUSH1 0x20 PUSH2 0x3912 PUSH0 CODECOPY PUSH0 MLOAD SWAP1 PUSH0 MSTORE PUSH1 0x20 PUSH1 0x40 MLOAD DUP4 PUSH32 0x17EF9D3684374CA660F2D6B5A52C09C0C1C6144B13C23FF3681FB0A9BA9FE4C3 PUSH0 DUP1 LOG2 PUSH1 0x1 DUP2 MSTORE LOG2 JUMP JUMPDEST PUSH2 0x256C DUP2 DUP4 SWAP8 SWAP7 SWAP8 PUSH2 0x1D1B JUMP JUMPDEST SWAP1 DUP1 PUSH1 0x34 SUB SWAP2 PUSH1 0x34 DUP4 GT PUSH2 0x762 JUMPI PUSH1 0x1 SWAP3 PUSH2 0x2586 SWAP2 PUSH2 0x2179 JUMP JUMPDEST PUSH2 0x25FA PUSH1 0xFF PUSH2 0x2595 DUP4 DUP9 PUSH2 0x2F3D JUMP JUMPDEST SWAP1 SLOAD SWAP1 PUSH1 0x3 SHL SHR AND PUSH2 0x25CA PUSH1 0xFF PUSH2 0x25AC DUP7 DUP11 PUSH2 0x2F3D JUMP JUMPDEST SWAP1 SLOAD SWAP1 PUSH1 0x3 SHL SHR AND PUSH2 0x25E2 PUSH2 0x25C1 DUP8 DUP12 PUSH2 0x2F3D JUMP JUMPDEST SWAP4 SWAP1 SWAP7 DUP12 PUSH2 0x2F3D JUMP JUMPDEST DUP2 SWAP4 SWAP2 SLOAD SWAP1 PUSH1 0xFF DUP1 SWAP2 PUSH1 0x3 SHL SWAP4 AND DUP4 SHL SWAP3 SHL NOT AND OR SWAP1 JUMP JUMPDEST SWAP1 SSTORE DUP4 SLOAD SWAP1 PUSH1 0xFF DUP1 SWAP2 PUSH1 0x3 SHL SWAP4 AND DUP4 SHL SWAP3 SHL NOT AND OR SWAP1 JUMP JUMPDEST SWAP1 SSTORE ADD SWAP5 SWAP4 SWAP5 PUSH2 0x231B JUMP JUMPDEST PUSH1 0x1 DUP2 PUSH2 0x2616 PUSH1 0xFF SWAP4 SWAP8 SWAP7 SWAP8 PUSH2 0x2167 JUMP JUMPDEST PUSH2 0x263F DUP5 PUSH2 0x2624 DUP5 DUP9 PUSH2 0x2F3D JUMP JUMPDEST SWAP2 SWAP1 SWAP4 AND SWAP1 DUP4 SLOAD SWAP1 PUSH1 0xFF DUP1 SWAP2 PUSH1 0x3 SHL SWAP4 AND DUP4 SHL SWAP3 SHL NOT AND OR SWAP1 JUMP JUMPDEST SWAP1 SSTORE ADD AND SWAP4 SWAP3 SWAP4 PUSH2 0x22E1 JUMP JUMPDEST PUSH1 0x1 PUSH1 0x1 PUSH1 0xFF SHL SUB DUP3 AND DUP3 SUB PUSH2 0x762 JUMPI PUSH0 MSTORE PUSH1 0x20 PUSH0 KECCAK256 SWAP1 PUSH1 0x1 SHL DUP2 ADD SWAP1 JUMPDEST DUP2 DUP2 LT ISZERO PUSH2 0x22A1 JUMPI DUP1 PUSH0 PUSH1 0x2 SWAP3 SSTORE PUSH2 0x2683 PUSH1 0x1 DUP3 ADD PUSH2 0x1FBB JUMP JUMPDEST ADD PUSH2 0x2669 JUMP JUMPDEST PUSH2 0x2692 DUP2 PUSH2 0x1C1A JUMP JUMPDEST POP PUSH1 0x6 PUSH1 0x7 DUP3 ADD SWAP2 ADD PUSH1 0x4 PUSH2 0x26AE PUSH1 0xFF DUP4 SLOAD PUSH1 0x8 SHR AND DUP5 PUSH2 0x1CF5 JUMP JUMPDEST POP ADD PUSH2 0x100 PUSH2 0xFF00 NOT DUP3 SLOAD AND OR SWAP1 SSTORE PUSH2 0x26CE PUSH1 0xFF DUP3 SLOAD PUSH1 0x8 SHR AND DUP4 PUSH2 0x1CF5 JUMP JUMPDEST POP PUSH1 0x5 TIMESTAMP SWAP2 ADD SSTORE PUSH2 0x26DE DUP4 PUSH2 0x2F67 JUMP JUMPDEST ISZERO PUSH2 0x2EAB JUMPI POP POP PUSH2 0x26EE DUP2 PUSH2 0x1C1A JUMP JUMPDEST POP SWAP2 PUSH0 SWAP1 PUSH0 SWAP4 PUSH1 0x7 DUP2 ADD SWAP5 DUP6 SLOAD JUMPDEST DUP1 DUP3 LT PUSH2 0x2E86 JUMPI POP POP PUSH1 0xF ADD SWAP2 PUSH0 PUSH1 0x80 MSTORE PUSH1 0x20 PUSH1 0x80 MSTORE PUSH1 0x40 MLOAD PUSH2 0x2721 PUSH1 0x80 MLOAD DUP3 PUSH2 0x1DA8 JUMP JUMPDEST PUSH0 DUP1 DUP3 MSTORE CALLDATASIZE DUP2 CALLDATACOPY PUSH1 0x40 MLOAD SWAP2 PUSH2 0x2735 DUP4 PUSH2 0x1D53 JUMP JUMPDEST DUP3 MSTORE PUSH1 0x80 MLOAD DUP3 ADD MSTORE DUP3 SLOAD SWAP1 PUSH1 0x1 PUSH1 0x40 SHL DUP3 LT ISZERO PUSH2 0x776 JUMPI PUSH1 0x1 DUP3 ADD DUP1 DUP6 SSTORE DUP3 LT ISZERO PUSH2 0x1C52 JUMPI PUSH2 0x2770 SWAP2 DUP5 PUSH0 MSTORE PUSH1 0x80 MLOAD PUSH0 KECCAK256 SWAP1 PUSH1 0x1 SHL ADD PUSH2 0x1FDE JUMP JUMPDEST PUSH0 JUMPDEST DUP5 SLOAD DUP2 LT ISZERO PUSH2 0x2805 JUMPI PUSH1 0xFF PUSH1 0x4 PUSH2 0x2789 DUP4 DUP9 PUSH2 0x1CF5 JUMP JUMPDEST POP ADD SLOAD AND PUSH2 0x279A JUMPI JUMPDEST PUSH1 0x1 ADD PUSH2 0x2772 JUMP JUMPDEST PUSH1 0x1 PUSH2 0x27A5 DUP5 PUSH2 0x3059 JUMP JUMPDEST POP ADD SWAP1 PUSH2 0x27B2 DUP2 DUP8 PUSH2 0x1CF5 JUMP JUMPDEST POP SLOAD DUP3 SLOAD PUSH1 0x1 PUSH1 0x1 PUSH1 0xA0 SHL SUB SWAP1 SWAP2 AND SWAP1 PUSH1 0x1 PUSH1 0x40 SHL DUP2 LT ISZERO PUSH2 0x776 JUMPI PUSH1 0x1 DUP2 ADD DUP1 DUP6 SSTORE DUP2 LT ISZERO PUSH2 0x1C52 JUMPI PUSH1 0x1 SWAP4 PUSH0 MSTORE PUSH1 0x80 MLOAD PUSH0 KECCAK256 ADD SWAP1 PUSH12 0xFFFFFFFFFFFFFFFFFFFFFFFF PUSH1 0xA0 SHL DUP3 SLOAD AND OR SWAP1 SSTORE SWAP1 POP PUSH2 0x2792 JUMP JUMPDEST POP SWAP2 SWAP3 POP POP PUSH2 0x2813 DUP3 PUSH2 0x1C1A JUMP JUMPDEST POP SWAP1 PUSH0 SWAP3 PUSH1 0x7 DUP4 ADD SWAP4 JUMPDEST DUP5 SLOAD DUP2 LT ISZERO PUSH2 0x2856 JUMPI DUP1 PUSH0 PUSH1 0x2 PUSH2 0x2836 PUSH1 0x1 SWAP5 DUP10 PUSH2 0x1CF5 JUMP JUMPDEST POP ADD SSTORE PUSH1 0x4 PUSH2 0x2845 DUP3 DUP9 PUSH2 0x1CF5 JUMP JUMPDEST POP ADD DUP1 SLOAD PUSH2 0xFF00 NOT AND SWAP1 SSTORE ADD PUSH2 0x281D JUMP JUMPDEST POP SWAP2 SWAP1 SWAP3 POP PUSH0 PUSH1 0xD DUP3 ADD SSTORE PUSH1 0x5 DUP2 ADD SLOAD PUSH1 0xE DUP3 ADD SSTORE PUSH1 0xFF PUSH1 0xC DUP3 ADD SLOAD AND PUSH1 0x6 DUP2 LT ISZERO PUSH2 0x277 JUMPI PUSH1 0x1 DUP2 SUB PUSH2 0x28C6 JUMPI POP PUSH1 0xFF PUSH1 0xC PUSH0 MLOAD PUSH1 0x20 PUSH2 0x3912 PUSH0 CODECOPY PUSH0 MLOAD SWAP1 PUSH0 MSTORE SWAP3 PUSH1 0x2 DUP4 NOT DUP4 DUP4 ADD SLOAD AND OR DUP3 DUP3 ADD SSTORE PUSH2 0x28AF DUP6 PUSH2 0x30DA JUMP JUMPDEST ADD SLOAD AND PUSH2 0x28BF PUSH1 0x40 MLOAD DUP1 SWAP3 PUSH2 0x1C0D JUMP JUMPDEST PUSH1 0x80 MLOAD SWAP1 LOG2 JUMP JUMPDEST PUSH1 0x2 DUP2 SUB PUSH2 0x28FE JUMPI POP PUSH1 0xFF PUSH1 0xC PUSH0 MLOAD PUSH1 0x20 PUSH2 0x3912 PUSH0 CODECOPY PUSH0 MLOAD SWAP1 PUSH0 MSTORE SWAP3 PUSH1 0x3 DUP4 NOT DUP4 DUP4 ADD SLOAD AND OR DUP3 DUP3 ADD SSTORE PUSH2 0x28F9 DUP6 PUSH2 0x30DA JUMP JUMPDEST PUSH2 0x28AF JUMP JUMPDEST PUSH1 0x3 DUP2 SUB PUSH2 0x2931 JUMPI POP PUSH1 0xFF PUSH1 0xC PUSH0 MLOAD PUSH1 0x20 PUSH2 0x3912 PUSH0 CODECOPY PUSH0 MLOAD SWAP1 PUSH0 MSTORE SWAP3 PUSH1 0x4 DUP4 NOT DUP4 DUP4 ADD SLOAD AND OR DUP3 DUP3 ADD SSTORE PUSH2 0x28F9 DUP6 PUSH2 0x30DA JUMP JUMPDEST PUSH1 0x4 EQ PUSH2 0x2951 JUMPI JUMPDEST PUSH1 0xFF PUSH1 0xC PUSH0 MLOAD PUSH1 0x20 PUSH2 0x3912 PUSH0 CODECOPY PUSH0 MLOAD SWAP1 PUSH0 MSTORE SWAP3 PUSH2 0x28AF JUMP JUMPDEST PUSH1 0xC DUP2 ADD DUP1 SLOAD PUSH1 0xFF NOT AND PUSH1 0x5 OR SWAP1 SSTORE PUSH2 0x2969 DUP3 PUSH2 0x1C1A JUMP JUMPDEST POP PUSH1 0x40 MLOAD PUSH2 0x140 PUSH2 0x297A DUP2 DUP4 PUSH2 0x1DA8 JUMP JUMPDEST PUSH1 0x9 DUP3 MSTORE PUSH1 0x1F NOT ADD CALLDATASIZE PUSH1 0x80 MLOAD DUP4 ADD CALLDATACOPY PUSH0 PUSH2 0x2992 PUSH2 0x1FA2 JUMP JUMPDEST SWAP3 PUSH0 SWAP4 PUSH1 0x7 DUP3 ADD SWAP5 DUP6 SLOAD SWAP1 JUMPDEST DUP2 DUP2 LT PUSH2 0x2B28 JUMPI POP POP POP PUSH2 0x29B1 DUP3 PUSH2 0x3027 JUMP JUMPDEST SWAP3 PUSH0 JUMPDEST DUP4 DUP2 LT PUSH2 0x2B00 JUMPI POP POP PUSH1 0xF PUSH2 0x29C9 SWAP2 ADD PUSH2 0x3059 JUMP JUMPDEST POP SLOAD DUP2 ISZERO PUSH2 0x2183 JUMPI DUP2 SWAP1 DIV SWAP3 PUSH0 SWAP1 JUMPDEST DUP3 DUP3 LT PUSH2 0x2A83 JUMPI POP POP POP SWAP1 DUP4 SWAP2 PUSH1 0x40 MLOAD SWAP2 PUSH1 0x40 DUP4 ADD PUSH1 0x40 DUP5 MSTORE DUP3 MLOAD DUP1 SWAP2 MSTORE PUSH1 0x60 DUP5 ADD SWAP3 PUSH1 0x80 MLOAD ADD SWAP1 PUSH0 JUMPDEST DUP2 DUP2 LT PUSH2 0x2A60 JUMPI POP POP POP SWAP3 PUSH32 0xEDB6330B1B84CDA51026E9A0AABF4CE11324D13D69E89D1033001317AD200395 DUP4 PUSH1 0xC SWAP5 PUSH0 MLOAD PUSH1 0x20 PUSH2 0x3912 PUSH0 CODECOPY PUSH0 MLOAD SWAP1 PUSH0 MSTORE SWAP8 SWAP5 PUSH1 0xFF SWAP8 PUSH1 0x80 MLOAD DUP4 ADD MSTORE SUB SWAP1 LOG2 PUSH2 0x2A57 DUP6 PUSH2 0x2197 JUMP JUMPDEST SWAP3 POP POP POP PUSH2 0x2939 JUMP JUMPDEST DUP3 MLOAD PUSH1 0x1 PUSH1 0x1 PUSH1 0xA0 SHL SUB AND DUP6 MSTORE PUSH1 0x80 MLOAD DUP10 SWAP8 POP SWAP5 DUP6 ADD SWAP5 SWAP1 SWAP3 ADD SWAP2 PUSH1 0x1 ADD PUSH2 0x2A02 JUMP JUMPDEST SWAP3 SWAP6 PUSH0 SWAP8 SWAP2 SWAP6 SWAP3 SWAP8 JUMPDEST DUP5 SLOAD DUP2 LT ISZERO PUSH2 0x2AF1 JUMPI PUSH2 0x2A9F DUP2 DUP7 PUSH2 0x1CF5 JUMP JUMPDEST POP SLOAD PUSH1 0x1 PUSH1 0x1 PUSH1 0xA0 SHL SUB SWAP1 DUP2 AND SWAP1 PUSH2 0x2AB7 DUP10 DUP12 PUSH2 0x30B8 JUMP JUMPDEST MLOAD AND EQ PUSH2 0x2AC6 JUMPI PUSH1 0x1 ADD PUSH2 0x2A8C JUMP JUMPDEST SWAP6 PUSH1 0x1 PUSH2 0x2ADA DUP7 SWAP5 SWAP11 SWAP6 SWAP9 DUP3 SWAP5 SWAP11 SWAP8 PUSH2 0x1CF5 JUMP JUMPDEST POP ADD PUSH2 0x2AE7 DUP8 DUP3 SLOAD PUSH2 0x1D1B JUMP JUMPDEST SWAP1 SSTORE JUMPDEST ADD SWAP1 PUSH2 0x29D8 JUMP JUMPDEST POP SWAP6 SWAP3 SWAP1 SWAP7 SWAP2 SWAP5 PUSH1 0x1 SWAP1 PUSH2 0x2AEA JUMP JUMPDEST PUSH1 0x1 SWAP1 PUSH1 0x1 PUSH1 0x1 PUSH1 0xA0 SHL SUB PUSH2 0x2B15 DUP3 DUP6 PUSH2 0x30B8 JUMP JUMPDEST MLOAD AND PUSH2 0x2B21 DUP3 DUP9 PUSH2 0x30B8 JUMP JUMPDEST MSTORE ADD PUSH2 0x29B4 JUMP JUMPDEST PUSH1 0xFF PUSH1 0x4 PUSH2 0x2B36 DUP4 DUP11 PUSH2 0x1CF5 JUMP JUMPDEST POP ADD SLOAD AND PUSH2 0x2B47 JUMPI JUMPDEST PUSH1 0x1 ADD PUSH2 0x299E JUMP JUMPDEST SWAP2 PUSH2 0x100 SWAP5 PUSH1 0x40 MLOAD SWAP6 PUSH2 0x2B5A DUP2 DUP9 PUSH2 0x1DA8 JUMP JUMPDEST PUSH1 0x7 DUP8 MSTORE PUSH1 0x1F NOT ADD CALLDATASIZE PUSH1 0x80 MLOAD DUP9 ADD CALLDATACOPY PUSH1 0xFF PUSH1 0x3 PUSH2 0x2B77 DUP7 DUP12 PUSH2 0x1CF5 JUMP JUMPDEST POP ADD SLOAD AND PUSH2 0x2B84 DUP8 PUSH2 0x306B JUMP JUMPDEST MSTORE PUSH1 0x3 PUSH2 0x2B91 DUP6 DUP11 PUSH2 0x1CF5 JUMP JUMPDEST POP ADD SLOAD PUSH1 0x1 SWAP3 SWAP1 PUSH1 0x8 SHR PUSH1 0xFF AND PUSH2 0x2BA7 DUP9 PUSH2 0x3078 JUMP JUMPDEST MSTORE PUSH0 DUP4 JUMPDEST PUSH2 0x2E41 JUMPI JUMPDEST POP PUSH2 0x2BB9 PUSH2 0x1FA2 JUMP JUMPDEST POP PUSH2 0x2BC4 DUP8 MLOAD PUSH2 0x3027 JUMP JUMPDEST PUSH2 0x2BCE DUP9 MLOAD PUSH2 0x3027 JUMP JUMPDEST SWAP1 DUP5 DUP10 PUSH0 DUP3 JUMPDEST PUSH2 0x2DE0 JUMPI JUMPDEST POP POP POP POP POP PUSH2 0x2BE6 PUSH2 0x1FA2 JUMP JUMPDEST SWAP7 PUSH0 JUMPDEST PUSH1 0x7 DUP2 LT PUSH2 0x2C99 JUMPI POP POP DUP2 PUSH2 0x2C2F JUMPI POP PUSH1 0x1 SWAP2 POP PUSH2 0x2C25 SWAP1 PUSH2 0x2C0B DUP6 DUP11 PUSH2 0x1CF5 JUMP JUMPDEST POP DUP4 DUP1 PUSH1 0xA0 SHL SUB SWAP1 SLOAD AND PUSH2 0x2C1F DUP3 DUP11 PUSH2 0x30B8 JUMP JUMPDEST MSTORE PUSH2 0x30CC JUMP JUMPDEST SWAP5 SWAP3 JUMPDEST SWAP1 POP PUSH2 0x2B3F JUMP JUMPDEST PUSH2 0x2C39 DUP2 DUP9 PUSH2 0x32C1 JUMP JUMPDEST PUSH0 DUP2 SGT ISZERO PUSH2 0x2C6C JUMPI POP POP POP PUSH1 0x1 SWAP1 PUSH2 0x2C51 DUP5 DUP10 PUSH2 0x1CF5 JUMP JUMPDEST POP DUP3 DUP1 PUSH1 0xA0 SHL SUB SWAP1 SLOAD AND PUSH2 0x2C64 DUP9 PUSH2 0x306B JUMP JUMPDEST MSTORE SWAP5 SWAP3 PUSH2 0x2C28 JUMP JUMPDEST SWAP2 SWAP7 POP SWAP4 SWAP2 POP ISZERO PUSH2 0x2C80 JUMPI JUMPDEST PUSH1 0x1 SWAP1 PUSH2 0x2C28 JUMP JUMPDEST SWAP4 PUSH2 0x2C91 PUSH1 0x1 SWAP2 PUSH2 0x2C0B DUP8 DUP11 PUSH2 0x1CF5 JUMP JUMPDEST SWAP5 SWAP1 POP PUSH2 0x2C78 JUMP JUMPDEST DUP5 DUP2 ADD DUP1 DUP3 GT PUSH2 0x762 JUMPI SWAP1 DUP6 SWAP2 JUMPDEST PUSH1 0x7 DUP2 LT PUSH2 0x2CB6 JUMPI POP ADD PUSH2 0x2BE9 JUMP JUMPDEST SWAP1 SWAP2 DUP2 ADD DUP1 DUP3 GT PUSH2 0x762 JUMPI SWAP1 DUP7 SWAP2 JUMPDEST PUSH1 0x7 DUP2 LT PUSH2 0x2CD7 JUMPI POP ADD SWAP1 DUP6 SWAP2 PUSH2 0x2CA7 JUMP JUMPDEST SWAP1 SWAP2 DUP2 ADD DUP1 DUP3 GT PUSH2 0x762 JUMPI SWAP1 DUP8 SWAP2 JUMPDEST PUSH1 0x7 DUP2 LT PUSH2 0x2CF8 JUMPI POP ADD SWAP1 DUP7 SWAP2 PUSH2 0x2CC5 JUMP JUMPDEST SWAP1 SWAP2 DUP2 ADD DUP2 GT PUSH2 0x762 JUMPI DUP1 DUP9 DUP1 SWAP3 ADD JUMPDEST PUSH1 0x7 DUP2 LT PUSH2 0x2D1A JUMPI POP ADD SWAP1 DUP8 SWAP2 PUSH2 0x2CE6 JUMP JUMPDEST SWAP1 SWAP2 POP DUP13 PUSH0 PUSH2 0x2DC7 PUSH2 0x2DC0 PUSH1 0xC0 PUSH1 0x40 MLOAD SWAP1 PUSH2 0x2D35 DUP2 DUP4 PUSH2 0x1DA8 JUMP JUMPDEST PUSH1 0x5 DUP3 MSTORE POP PUSH1 0xA0 CALLDATASIZE PUSH1 0x80 MLOAD DUP4 ADD CALLDATACOPY PUSH1 0xFF PUSH2 0x2D4F DUP12 DUP14 PUSH2 0x30B8 JUMP JUMPDEST MLOAD AND PUSH2 0x2D5A DUP3 PUSH2 0x306B JUMP JUMPDEST MSTORE PUSH1 0xFF PUSH2 0x2D67 DUP11 DUP14 PUSH2 0x30B8 JUMP JUMPDEST MLOAD AND PUSH2 0x2D72 DUP3 PUSH2 0x3078 JUMP JUMPDEST MSTORE PUSH1 0xFF PUSH2 0x2D7F DUP10 DUP14 PUSH2 0x30B8 JUMP JUMPDEST MLOAD AND PUSH2 0x2D8A DUP3 PUSH2 0x3088 JUMP JUMPDEST MSTORE PUSH1 0xFF PUSH2 0x2D97 DUP9 DUP14 PUSH2 0x30B8 JUMP JUMPDEST MLOAD AND PUSH2 0x2DA2 DUP3 PUSH2 0x3098 JUMP JUMPDEST MSTORE PUSH1 0xFF PUSH2 0x2DAF DUP8 DUP14 PUSH2 0x30B8 JUMP JUMPDEST MLOAD AND PUSH2 0x2DBA DUP3 PUSH2 0x30A8 JUMP JUMPDEST MSTORE PUSH2 0x337B JUMP JUMPDEST SWAP3 DUP4 PUSH2 0x32C1 JUMP JUMPDEST SGT PUSH2 0x2DD8 JUMPI JUMPDEST POP DUP9 ADD SWAP1 DUP9 SWAP2 PUSH2 0x2D08 JUMP JUMPDEST SWAP13 POP DUP9 PUSH2 0x2DCD JUMP JUMPDEST DUP2 MLOAD DUP2 LT ISZERO PUSH2 0x2E3C JUMPI PUSH1 0xFF PUSH1 0xD DUP2 PUSH2 0x2E25 DUP2 PUSH2 0x2E0F DUP7 DUP9 DUP12 PUSH2 0x2E1F DUP4 DUP7 DUP11 DUP16 SWAP15 PUSH2 0x2E16 DUP4 PUSH2 0x2E0F DUP7 DUP3 SWAP5 PUSH2 0x30B8 JUMP JUMPDEST MLOAD AND PUSH2 0x32AF JUMP JUMPDEST AND MOD AND SWAP3 PUSH2 0x30B8 JUMP JUMPDEST MSTORE PUSH2 0x30B8 JUMP JUMPDEST AND DIV AND PUSH2 0x2E32 DUP3 DUP8 PUSH2 0x30B8 JUMP JUMPDEST MSTORE ADD DUP11 SWAP1 DUP3 PUSH2 0x2BD4 JUMP JUMPDEST PUSH2 0x2BD9 JUMP JUMPDEST PUSH1 0x5 DUP2 LT ISZERO PUSH2 0x2E81 JUMPI PUSH1 0xFF PUSH1 0xB DUP3 PUSH1 0x5 SHR DUP10 ADD ADD SLOAD PUSH1 0xF8 DUP4 PUSH1 0x3 SHL AND SHR AND SWAP1 PUSH1 0x2 DUP2 ADD SWAP1 DUP2 DUP2 GT PUSH2 0x762 JUMPI DUP6 SWAP3 PUSH2 0x2E79 DUP5 SWAP4 DUP13 PUSH2 0x30B8 JUMP JUMPDEST MSTORE ADD SWAP1 PUSH2 0x2BAB JUMP JUMPDEST PUSH2 0x2BB0 JUMP JUMPDEST SWAP1 SWAP4 PUSH2 0x2EA3 PUSH1 0x1 SWAP2 PUSH1 0x2 PUSH2 0x2E9A DUP9 DUP12 PUSH2 0x1CF5 JUMP JUMPDEST POP ADD SLOAD SWAP1 PUSH2 0x1D1B JUMP JUMPDEST SWAP5 ADD SWAP1 PUSH2 0x26FC JUMP JUMPDEST SWAP2 POP SWAP2 PUSH1 0xFF DUP3 SLOAD PUSH1 0x8 SHR AND SWAP1 PUSH1 0x1 SWAP3 PUSH1 0xFF DUP6 SLOAD AND SWAP5 DUP6 ISZERO SWAP5 JUMPDEST ISZERO PUSH2 0x2EE5 JUMPI JUMPDEST PUSH2 0x2ED4 PUSH0 SWAP5 PUSH2 0x2167 JUMP JUMPDEST DUP6 PUSH2 0x2183 JUMPI PUSH1 0xFF DUP8 SWAP2 AND MOD SWAP4 PUSH2 0x2EC4 JUMP JUMPDEST PUSH1 0xFF PUSH1 0x4 PUSH2 0x2EF3 DUP7 DUP5 PUSH2 0x1CF5 JUMP JUMPDEST POP ADD SLOAD AND ISZERO DUP1 ISZERO PUSH2 0x2F22 JUMPI JUMPDEST PUSH2 0x2ECA JUMPI POP SWAP1 SWAP4 POP PUSH2 0x1FDC SWAP3 POP SWAP1 PUSH2 0xFF00 DUP3 SLOAD SWAP2 PUSH1 0x8 SHL AND SWAP1 PUSH2 0xFF00 NOT AND OR SWAP1 SSTORE JUMP JUMPDEST POP PUSH1 0xFF PUSH1 0x4 PUSH2 0x2F31 DUP7 DUP5 PUSH2 0x1CF5 JUMP JUMPDEST POP ADD SLOAD PUSH1 0x8 SHR AND PUSH2 0x2EFF JUMP JUMPDEST SWAP2 SWAP1 SWAP2 PUSH1 0x34 DUP4 LT ISZERO PUSH2 0x1C52 JUMPI PUSH1 0x1F SWAP1 DUP4 PUSH1 0x5 SHR ADD SWAP3 AND SWAP1 JUMP JUMPDEST PUSH1 0xFF AND PUSH1 0xFF DUP2 EQ PUSH2 0x762 JUMPI PUSH1 0x1 ADD SWAP1 JUMP JUMPDEST PUSH2 0x2F70 SWAP1 PUSH2 0x1C1A JUMP JUMPDEST POP PUSH0 SWAP1 PUSH1 0x7 DUP2 ADD DUP1 SLOAD SWAP3 JUMPDEST DUP4 DUP2 LT PUSH2 0x2F8B JUMPI POP POP POP POP PUSH1 0x1 SWAP1 JUMP JUMPDEST PUSH1 0xFF PUSH1 0x4 PUSH2 0x2F99 DUP4 DUP6 PUSH2 0x1CF5 JUMP JUMPDEST POP ADD SLOAD AND DUP1 PUSH2 0x300B JUMPI JUMPDEST PUSH2 0x2FD1 JUMPI PUSH1 0xFF PUSH1 0x4 PUSH2 0x2FB5 DUP4 DUP6 PUSH2 0x1CF5 JUMP JUMPDEST POP ADD SLOAD AND DUP1 PUSH2 0x2FF0 JUMPI JUMPDEST DUP1 PUSH2 0x2FD9 JUMPI JUMPDEST PUSH2 0x2FD1 JUMPI PUSH1 0x1 ADD PUSH2 0x2F7B JUMP JUMPDEST POP POP POP POP PUSH0 SWAP1 JUMP JUMPDEST POP PUSH1 0x1 PUSH2 0x2FE6 DUP3 DUP5 PUSH2 0x1CF5 JUMP JUMPDEST POP ADD SLOAD ISZERO ISZERO PUSH2 0x2FC5 JUMP JUMPDEST POP PUSH1 0x2 PUSH2 0x2FFD DUP3 DUP5 PUSH2 0x1CF5 JUMP JUMPDEST POP ADD SLOAD PUSH1 0xD DUP5 ADD SLOAD GT PUSH2 0x2FBF JUMP JUMPDEST POP PUSH1 0xFF PUSH1 0x4 PUSH2 0x301A DUP4 DUP6 PUSH2 0x1CF5 JUMP JUMPDEST POP ADD SLOAD PUSH1 0x8 SHR AND ISZERO PUSH2 0x2FA3 JUMP JUMPDEST SWAP1 PUSH2 0x3031 DUP3 PUSH2 0x1E8F JUMP JUMPDEST PUSH2 0x303E PUSH1 0x40 MLOAD SWAP2 DUP3 PUSH2 0x1DA8 JUMP JUMPDEST DUP3 DUP2 MSTORE DUP1 SWAP3 PUSH2 0x304F PUSH1 0x1F NOT SWAP2 PUSH2 0x1E8F JUMP JUMPDEST ADD SWAP1 PUSH1 0x20 CALLDATASIZE SWAP2 ADD CALLDATACOPY JUMP JUMPDEST DUP1 SLOAD ISZERO PUSH2 0x1C52 JUMPI PUSH0 MSTORE PUSH1 0x20 PUSH0 KECCAK256 SWAP1 PUSH0 SWAP1 JUMP JUMPDEST DUP1 MLOAD ISZERO PUSH2 0x1C52 JUMPI PUSH1 0x20 ADD SWAP1 JUMP JUMPDEST DUP1 MLOAD PUSH1 0x1 LT ISZERO PUSH2 0x1C52 JUMPI PUSH1 0x40 ADD SWAP1 JUMP JUMPDEST DUP1 MLOAD PUSH1 0x2 LT ISZERO PUSH2 0x1C52 JUMPI PUSH1 0x60 ADD SWAP1 JUMP JUMPDEST DUP1 MLOAD PUSH1 0x3 LT ISZERO PUSH2 0x1C52 JUMPI PUSH1 0x80 ADD SWAP1 JUMP JUMPDEST DUP1 MLOAD PUSH1 0x4 LT ISZERO PUSH2 0x1C52 JUMPI PUSH1 0xA0 ADD SWAP1 JUMP JUMPDEST DUP1 MLOAD DUP3 LT ISZERO PUSH2 0x1C52 JUMPI PUSH1 0x20 SWAP2 PUSH1 0x5 SHL ADD ADD SWAP1 JUMP JUMPDEST PUSH0 NOT DUP2 EQ PUSH2 0x762 JUMPI PUSH1 0x1 ADD SWAP1 JUMP JUMPDEST PUSH2 0x30E3 DUP2 PUSH2 0x1C1A JUMP JUMPDEST POP PUSH1 0xFF PUSH1 0xC DUP3 ADD SLOAD AND PUSH1 0x6 DUP2 LT ISZERO PUSH2 0x277 JUMPI PUSH1 0xB PUSH2 0x320F PUSH32 0x86981AA8C80C36D41A56382BB6D7F4F432477216193063FC8196EDE419C99EC0 SWAP4 DUP4 PUSH1 0x2 PUSH1 0xA0 SWAP6 EQ PUSH0 EQ PUSH2 0x3212 JUMPI POP PUSH1 0x8 DUP2 ADD PUSH1 0xFF PUSH2 0x31B5 PUSH1 0xA DUP5 ADD DUP3 PUSH2 0x3158 DUP2 DUP4 SLOAD AND DUP3 PUSH2 0x3149 DUP3 PUSH2 0x2F56 JUMP JUMPDEST AND DUP4 NOT DUP6 SLOAD AND OR DUP5 SSTORE DUP7 PUSH2 0x2F3D JUMP JUMPDEST SWAP1 SLOAD SWAP1 PUSH1 0x3 SHL SHR AND SWAP4 DUP8 DUP7 ADD SWAP5 DUP6 SLOAD DUP6 DUP1 PUSH0 PUSH1 0x3 SHL SWAP4 AND DUP4 SHL SWAP3 SHL NOT AND OR DUP6 SSTORE DUP4 PUSH2 0x318A DUP2 DUP5 SLOAD AND DUP3 PUSH2 0x2484 DUP3 PUSH2 0x2F56 JUMP JUMPDEST SWAP1 SLOAD SWAP1 PUSH1 0x3 SHL SHR AND DUP6 SLOAD DUP6 DUP1 PUSH1 0x1 PUSH1 0x3 SHL SWAP4 AND DUP4 SHL SWAP3 SHL NOT AND OR DUP6 SSTORE DUP4 DUP3 SLOAD AND SWAP2 DUP5 PUSH2 0x24C6 DUP5 PUSH2 0x2F56 JUMP JUMPDEST SWAP1 SLOAD SWAP1 PUSH1 0x3 SHL SHR AND DUP2 SLOAD PUSH1 0xFF DUP1 PUSH1 0x2 PUSH1 0x3 SHL SWAP4 AND DUP4 SHL SWAP3 SHL NOT AND OR SWAP1 SSTORE JUMPDEST PUSH1 0x40 MLOAD SWAP3 DUP4 SWAP2 ADD PUSH1 0xFF PUSH1 0x80 SWAP2 SLOAD DUP2 DUP2 AND DUP5 MSTORE DUP2 DUP2 PUSH1 0x8 SHR AND PUSH1 0x20 DUP6 ADD MSTORE DUP2 DUP2 PUSH1 0x10 SHR AND PUSH1 0x40 DUP6 ADD MSTORE DUP2 DUP2 PUSH1 0x18 SHR AND PUSH1 0x60 DUP6 ADD MSTORE PUSH1 0x20 SHR AND SWAP2 ADD MSTORE JUMP JUMPDEST LOG2 JUMP JUMPDEST PUSH1 0x3 DUP2 SUB PUSH2 0x326A JUMPI POP PUSH1 0xFF PUSH2 0x3245 PUSH1 0xA DUP4 ADD DUP3 DUP2 SLOAD AND SWAP1 DUP4 PUSH2 0x3233 DUP4 PUSH2 0x2F56 JUMP JUMPDEST AND DUP5 NOT DUP3 SLOAD AND OR SWAP1 SSTORE PUSH1 0x8 DUP5 ADD PUSH2 0x2F3D JUMP JUMPDEST SWAP1 SLOAD SWAP1 PUSH1 0x3 SHL SHR AND DUP4 DUP3 ADD SWAP1 DUP2 SLOAD PUSH1 0xFF DUP1 PUSH1 0x3 DUP1 SHL SWAP4 AND DUP4 SHL SWAP3 SHL NOT AND OR SWAP1 SSTORE PUSH2 0x31D3 JUMP JUMPDEST PUSH1 0x4 SUB PUSH2 0x31D3 JUMPI PUSH1 0xFF PUSH2 0x3289 PUSH1 0xA DUP4 ADD DUP3 DUP2 SLOAD AND SWAP1 DUP4 PUSH2 0x3233 DUP4 PUSH2 0x2F56 JUMP JUMPDEST SWAP1 SLOAD SWAP1 PUSH1 0x3 SHL SHR AND DUP4 DUP3 ADD SWAP1 DUP2 SLOAD PUSH1 0xFF DUP1 PUSH1 0x4 PUSH1 0x3 SHL SWAP4 AND DUP4 SHL SWAP3 SHL NOT AND OR SWAP1 SSTORE PUSH2 0x31D3 JUMP JUMPDEST PUSH1 0xFF PUSH0 NOT SWAP2 AND ADD SWAP1 PUSH1 0xFF DUP3 GT PUSH2 0x762 JUMPI JUMP JUMPDEST SWAP1 DUP2 MLOAD PUSH1 0xA DUP2 LT ISZERO PUSH2 0x277 JUMPI DUP2 MLOAD SWAP1 PUSH1 0xA DUP3 LT ISZERO PUSH2 0x277 JUMPI GT PUSH2 0x3374 JUMPI DUP2 MLOAD PUSH1 0xA DUP2 LT ISZERO PUSH2 0x277 JUMPI DUP2 MLOAD SWAP1 PUSH1 0xA DUP3 LT ISZERO PUSH2 0x277 JUMPI LT PUSH2 0x336D JUMPI PUSH0 JUMPDEST PUSH1 0x20 DUP4 ADD DUP1 MLOAD DUP1 MLOAD DUP4 LT ISZERO PUSH2 0x3364 JUMPI DUP3 PUSH2 0x3315 SWAP2 PUSH2 0x30B8 JUMP JUMPDEST MLOAD SWAP1 PUSH1 0x20 DUP5 ADD SWAP2 PUSH2 0x3327 DUP5 DUP5 MLOAD PUSH2 0x30B8 JUMP JUMPDEST MLOAD LT PUSH2 0x335A JUMPI DUP3 PUSH2 0x333C DUP2 PUSH2 0x3344 SWAP4 MLOAD PUSH2 0x30B8 JUMP JUMPDEST MLOAD SWAP3 MLOAD PUSH2 0x30B8 JUMP JUMPDEST MLOAD GT PUSH2 0x3352 JUMPI PUSH1 0x1 ADD PUSH2 0x32FC JUMP JUMPDEST POP POP POP PUSH0 NOT SWAP1 JUMP JUMPDEST POP POP POP POP POP PUSH1 0x1 SWAP1 JUMP JUMPDEST POP POP POP POP POP PUSH0 SWAP1 JUMP JUMPDEST POP POP PUSH0 NOT SWAP1 JUMP JUMPDEST POP POP PUSH1 0x1 SWAP1 JUMP JUMPDEST PUSH2 0x3383 PUSH2 0x1FA2 JUMP JUMPDEST POP PUSH0 JUMPDEST PUSH1 0x4 DUP2 LT PUSH2 0x37E7 JUMPI POP PUSH1 0xC0 PUSH1 0x40 MLOAD SWAP2 PUSH2 0x339F DUP3 DUP5 PUSH2 0x1DA8 JUMP JUMPDEST PUSH1 0x5 DUP4 MSTORE PUSH1 0xA0 CALLDATASIZE PUSH1 0x20 DUP6 ADD CALLDATACOPY PUSH1 0x40 MLOAD SWAP2 PUSH2 0x33B9 DUP2 DUP5 PUSH2 0x1DA8 JUMP JUMPDEST PUSH1 0x5 DUP4 MSTORE POP PUSH1 0xA0 CALLDATASIZE PUSH1 0x20 DUP5 ADD CALLDATACOPY PUSH0 JUMPDEST PUSH1 0x5 DUP2 LT PUSH2 0x379C JUMPI POP POP PUSH1 0x40 MLOAD SWAP1 PUSH2 0x1C0 PUSH2 0x33E3 DUP2 DUP5 PUSH2 0x1DA8 JUMP JUMPDEST PUSH1 0xD DUP4 MSTORE PUSH1 0x1F NOT ADD CALLDATASIZE PUSH1 0x20 DUP5 ADD CALLDATACOPY PUSH0 JUMPDEST PUSH1 0x5 DUP2 LT PUSH2 0x376A JUMPI POP PUSH2 0x3405 DUP2 PUSH2 0x306B JUMP JUMPDEST MLOAD PUSH2 0x340F DUP3 PUSH2 0x3078 JUMP JUMPDEST MLOAD EQ SWAP1 DUP2 PUSH2 0x374D JUMPI JUMPDEST DUP2 PUSH2 0x3730 JUMPI JUMPDEST DUP2 PUSH2 0x3713 JUMPI JUMPDEST POP PUSH2 0x342E DUP4 PUSH2 0x306B JUMP JUMPDEST MLOAD PUSH1 0x1 DUP2 ADD DUP1 SWAP2 GT PUSH2 0x762 JUMPI PUSH2 0x3443 DUP5 PUSH2 0x3078 JUMP JUMPDEST MLOAD EQ DUP1 PUSH2 0x36ED JUMPI JUMPDEST DUP1 PUSH2 0x36C7 JUMPI JUMPDEST DUP1 PUSH2 0x36A1 JUMPI JUMPDEST DUP1 DUP1 PUSH2 0x369A JUMPI JUMPDEST PUSH2 0x3642 JUMPI PUSH0 SWAP3 PUSH0 SWAP1 PUSH0 SWAP1 PUSH0 JUMPDEST PUSH1 0xD DUP2 LT PUSH2 0x35CD JUMPI POP POP PUSH1 0x1 EQ PUSH2 0x35A7 JUMPI PUSH1 0x1 EQ SWAP2 DUP3 DUP1 PUSH2 0x359D JUMPI JUMPDEST PUSH2 0x3577 JUMPI PUSH2 0x3552 JUMPI PUSH2 0x352E JUMPI PUSH2 0x350B JUMPI PUSH1 0x2 DUP2 EQ PUSH2 0x34E8 JUMPI PUSH1 0x1 EQ PUSH2 0x34C6 JUMPI PUSH2 0x34AE SWAP1 PUSH2 0x386A JUMP JUMPDEST PUSH1 0x40 MLOAD SWAP1 PUSH2 0x34BB DUP3 PUSH2 0x1D53 JUMP JUMPDEST PUSH0 DUP3 MSTORE PUSH1 0x20 DUP3 ADD MSTORE SWAP1 JUMP JUMPDEST PUSH2 0x34CF SWAP1 PUSH2 0x386A JUMP JUMPDEST PUSH1 0x40 MLOAD SWAP1 PUSH2 0x34DC DUP3 PUSH2 0x1D53 JUMP JUMPDEST PUSH1 0x1 DUP3 MSTORE PUSH1 0x20 DUP3 ADD MSTORE SWAP1 JUMP JUMPDEST POP PUSH2 0x34F2 SWAP1 PUSH2 0x386A JUMP JUMPDEST PUSH1 0x40 MLOAD SWAP1 PUSH2 0x34FF DUP3 PUSH2 0x1D53 JUMP JUMPDEST PUSH1 0x2 DUP3 MSTORE PUSH1 0x20 DUP3 ADD MSTORE SWAP1 JUMP JUMPDEST POP PUSH2 0x3515 SWAP1 PUSH2 0x386A JUMP JUMPDEST PUSH1 0x40 MLOAD SWAP1 PUSH2 0x3522 DUP3 PUSH2 0x1D53 JUMP JUMPDEST PUSH1 0x3 DUP3 MSTORE PUSH1 0x20 DUP3 ADD MSTORE SWAP1 JUMP JUMPDEST POP POP PUSH2 0x3539 SWAP1 PUSH2 0x386A JUMP JUMPDEST PUSH1 0x40 MLOAD SWAP1 PUSH2 0x3546 DUP3 PUSH2 0x1D53 JUMP JUMPDEST PUSH1 0x4 DUP3 MSTORE PUSH1 0x20 DUP3 ADD MSTORE SWAP1 JUMP JUMPDEST POP POP POP PUSH2 0x355E SWAP1 PUSH2 0x386A JUMP JUMPDEST PUSH1 0x40 MLOAD SWAP1 PUSH2 0x356B DUP3 PUSH2 0x1D53 JUMP JUMPDEST PUSH1 0x5 DUP3 MSTORE PUSH1 0x20 DUP3 ADD MSTORE SWAP1 JUMP JUMPDEST POP POP POP POP PUSH2 0x3584 SWAP1 PUSH2 0x386A JUMP JUMPDEST PUSH1 0x40 MLOAD SWAP1 PUSH2 0x3591 DUP3 PUSH2 0x1D53 JUMP JUMPDEST PUSH1 0x6 DUP3 MSTORE PUSH1 0x20 DUP3 ADD MSTORE SWAP1 JUMP JUMPDEST POP PUSH1 0x1 DUP5 EQ PUSH2 0x3486 JUMP JUMPDEST POP POP POP POP PUSH2 0x35B4 SWAP1 PUSH2 0x386A JUMP JUMPDEST PUSH1 0x40 MLOAD SWAP1 PUSH2 0x35C1 DUP3 PUSH2 0x1D53 JUMP JUMPDEST PUSH1 0x7 DUP3 MSTORE PUSH1 0x20 DUP3 ADD MSTORE SWAP1 JUMP JUMPDEST PUSH1 0x2 PUSH2 0x35D9 DUP3 DUP5 PUSH2 0x30B8 JUMP JUMPDEST MLOAD EQ PUSH2 0x3632 JUMPI JUMPDEST PUSH1 0x3 PUSH2 0x35EC DUP3 DUP5 PUSH2 0x30B8 JUMP JUMPDEST MLOAD EQ PUSH2 0x3622 JUMPI JUMPDEST PUSH1 0x4 PUSH2 0x35FF DUP3 DUP5 PUSH2 0x30B8 JUMP JUMPDEST MLOAD EQ PUSH2 0x360E JUMPI JUMPDEST PUSH1 0x1 ADD PUSH2 0x346A JUMP JUMPDEST SWAP2 PUSH2 0x361A PUSH1 0x1 SWAP2 PUSH2 0x30CC JUMP JUMPDEST SWAP3 SWAP1 POP PUSH2 0x3606 JUMP JUMPDEST SWAP3 PUSH2 0x362C SWAP1 PUSH2 0x30CC JUMP JUMPDEST SWAP3 PUSH2 0x35F3 JUMP JUMPDEST SWAP6 PUSH2 0x363C SWAP1 PUSH2 0x30CC JUMP JUMPDEST SWAP6 PUSH2 0x35E0 JUMP JUMPDEST POP POP POP PUSH1 0xC PUSH2 0x3650 DUP3 PUSH2 0x30A8 JUMP JUMPDEST MLOAD EQ PUSH2 0x3678 JUMPI PUSH2 0x365F SWAP1 PUSH2 0x386A JUMP JUMPDEST PUSH1 0x40 MLOAD SWAP1 PUSH2 0x366C DUP3 PUSH2 0x1D53 JUMP JUMPDEST PUSH1 0x8 DUP3 MSTORE PUSH1 0x20 DUP3 ADD MSTORE SWAP1 JUMP JUMPDEST PUSH2 0x3681 SWAP1 PUSH2 0x386A JUMP JUMPDEST PUSH1 0x40 MLOAD SWAP1 PUSH2 0x368E DUP3 PUSH2 0x1D53 JUMP JUMPDEST PUSH1 0x9 DUP3 MSTORE PUSH1 0x20 DUP3 ADD MSTORE SWAP1 JUMP JUMPDEST POP DUP2 PUSH2 0x345E JUMP JUMPDEST POP PUSH2 0x36AB DUP4 PUSH2 0x3098 JUMP JUMPDEST MLOAD PUSH1 0x1 DUP2 ADD DUP1 SWAP2 GT PUSH2 0x762 JUMPI PUSH2 0x36C0 DUP5 PUSH2 0x30A8 JUMP JUMPDEST MLOAD EQ PUSH2 0x3457 JUMP JUMPDEST POP PUSH2 0x36D1 DUP4 PUSH2 0x3088 JUMP JUMPDEST MLOAD PUSH1 0x1 DUP2 ADD DUP1 SWAP2 GT PUSH2 0x762 JUMPI PUSH2 0x36E6 DUP5 PUSH2 0x3098 JUMP JUMPDEST MLOAD EQ PUSH2 0x3451 JUMP JUMPDEST POP PUSH2 0x36F7 DUP4 PUSH2 0x3078 JUMP JUMPDEST MLOAD PUSH1 0x1 DUP2 ADD DUP1 SWAP2 GT PUSH2 0x762 JUMPI PUSH2 0x370C DUP5 PUSH2 0x3088 JUMP JUMPDEST MLOAD EQ PUSH2 0x344B JUMP JUMPDEST SWAP1 POP PUSH2 0x3728 PUSH2 0x3721 DUP3 PUSH2 0x3098 JUMP JUMPDEST MLOAD SWAP2 PUSH2 0x30A8 JUMP JUMPDEST MLOAD EQ PUSH0 PUSH2 0x3424 JUMP JUMPDEST SWAP1 POP PUSH2 0x373B DUP2 PUSH2 0x3088 JUMP JUMPDEST MLOAD PUSH2 0x3745 DUP3 PUSH2 0x3098 JUMP JUMPDEST MLOAD EQ SWAP1 PUSH2 0x341E JUMP JUMPDEST SWAP1 POP PUSH2 0x3758 DUP2 PUSH2 0x3078 JUMP JUMPDEST MLOAD PUSH2 0x3762 DUP3 PUSH2 0x3088 JUMP JUMPDEST MLOAD EQ SWAP1 PUSH2 0x3418 JUMP JUMPDEST DUP1 PUSH2 0x3777 PUSH1 0x1 SWAP3 DUP7 PUSH2 0x30B8 JUMP JUMPDEST MLOAD PUSH2 0x3795 PUSH2 0x378E PUSH2 0x3788 DUP4 DUP9 PUSH2 0x30B8 JUMP JUMPDEST MLOAD PUSH2 0x30CC JUMP JUMPDEST SWAP2 DUP7 PUSH2 0x30B8 JUMP JUMPDEST MSTORE ADD PUSH2 0x33F3 JUMP JUMPDEST DUP1 PUSH1 0xFF PUSH1 0xD DUP2 PUSH2 0x37B2 DUP2 PUSH2 0x2E0F PUSH1 0x1 SWAP8 DUP10 PUSH2 0x30B8 JUMP JUMPDEST AND MOD AND PUSH2 0x37BF DUP3 DUP8 PUSH2 0x30B8 JUMP JUMPDEST MSTORE PUSH1 0xFF PUSH1 0xD DUP2 PUSH2 0x37D3 DUP2 PUSH2 0x2E0F DUP7 DUP10 PUSH2 0x30B8 JUMP JUMPDEST AND DIV AND PUSH2 0x37E0 DUP3 DUP7 PUSH2 0x30B8 JUMP JUMPDEST MSTORE ADD PUSH2 0x33C8 JUMP JUMPDEST SWAP2 SWAP1 PUSH1 0x1 DUP4 ADD DUP1 DUP5 GT PUSH2 0x762 JUMPI JUMPDEST PUSH1 0x5 DUP2 LT PUSH2 0x3808 JUMPI POP SWAP1 SWAP2 PUSH1 0x1 ADD PUSH2 0x3386 JUMP JUMPDEST PUSH1 0x1 SWAP1 PUSH1 0xFF PUSH2 0x3817 DUP7 DUP6 PUSH2 0x30B8 JUMP JUMPDEST MLOAD AND PUSH1 0xFF PUSH2 0x3825 DUP4 DUP7 PUSH2 0x30B8 JUMP JUMPDEST MLOAD AND LT PUSH2 0x3833 JUMPI JUMPDEST ADD PUSH2 0x37F5 JUMP JUMPDEST PUSH1 0xFF PUSH2 0x383F DUP3 DUP6 PUSH2 0x30B8 JUMP JUMPDEST MLOAD AND PUSH1 0xFF PUSH2 0x384D DUP8 DUP7 PUSH2 0x30B8 JUMP JUMPDEST MLOAD AND PUSH2 0x3859 DUP4 DUP7 PUSH2 0x30B8 JUMP JUMPDEST MSTORE PUSH2 0x3864 DUP7 DUP6 PUSH2 0x30B8 JUMP JUMPDEST MSTORE PUSH2 0x382D JUMP JUMPDEST SWAP1 PUSH0 SWAP1 JUMPDEST DUP3 MLOAD DUP3 LT ISZERO PUSH2 0x38ED JUMPI PUSH1 0x1 DUP3 ADD DUP1 DUP4 GT PUSH2 0x762 JUMPI JUMPDEST DUP4 MLOAD DUP2 LT ISZERO PUSH2 0x38E2 JUMPI PUSH1 0x1 SWAP1 PUSH2 0x3899 DUP5 DUP7 PUSH2 0x30B8 JUMP JUMPDEST MLOAD PUSH2 0x38A4 DUP3 DUP8 PUSH2 0x30B8 JUMP JUMPDEST MLOAD GT PUSH2 0x38B1 JUMPI JUMPDEST ADD PUSH2 0x3883 JUMP JUMPDEST PUSH2 0x38BB DUP2 DUP7 PUSH2 0x30B8 JUMP JUMPDEST MLOAD PUSH2 0x38C6 DUP6 DUP8 PUSH2 0x30B8 JUMP JUMPDEST MLOAD PUSH2 0x38D1 DUP4 DUP9 PUSH2 0x30B8 JUMP JUMPDEST MSTORE PUSH2 0x38DC DUP6 DUP8 PUSH2 0x30B8 JUMP JUMPDEST MSTORE PUSH2 0x38AB JUMP JUMPDEST POP SWAP1 PUSH1 0x1 ADD SWAP1 PUSH2 0x386E JUMP JUMPDEST SWAP1 POP JUMP INVALID RETURN 0xD4 CREATE2 PUSH31 0x5AAE06B4017C0B2ED81F62AA6F19DEEF046D6A78AD2A4223858C4F070ECA8 0x25 PUSH8 0xB065893A5E6CC590 OR DUP12 PUSH12 0x320855676B6A9A066625933E 0xC DUP15 0xBE PC LOG2 PUSH5 0x6970667358 0x22 SLT KECCAK256 PUSH17 0x6AB01D7D6643500562186AD03393355575 0xD9 CREATE CALLDATASIZE 0xAE GASLIMIT SLT 0xD8 0xFC 0xEA 0xB8 0xE9 PUSH31 0xF6964736F6C634300081E0033000000000000000000000000000000000000 "
				},
				"gasEstimates": {
					"creation": {
						"codeDepositCost": "2939000",
						"executionCost": "3237",
						"totalCost": "2942237"
					},
					"external": {
						"MAX_PLAYERS()": "288",
						"MAX_TABLES()": "266",
						"TURN_TIMEOUT()": "332",
						"allIn(uint256)": "infinite",
						"call(uint256)": "infinite",
						"check(uint256)": "infinite",
						"createTable(uint256,uint256,uint256,uint256)": "infinite",
						"fold(uint256)": "infinite",
						"getPlayerState(uint256,address)": "infinite",
						"getTableState(uint256)": "infinite",
						"joinTable(uint256,uint256)": "infinite",
						"leaveTable(uint256)": "infinite",
						"playerTableId(address)": "2365",
						"raise(uint256,uint256)": "infinite",
						"tables(uint256)": "30352"
					},
					"internal": {
						"_advanceAction(uint256)": "infinite",
						"_compareHands(struct TexasHoldem.HandEvaluation memory,struct TexasHoldem.HandEvaluation memory)": "infinite",
						"_dealCommunityCards(uint256)": "infinite",
						"_dealHoleCards(uint256)": "infinite",
						"_determineWinner(uint256)": "infinite",
						"_endBettingRound(uint256)": "infinite",
						"_evaluate5CardHand(uint8[] memory)": "infinite",
						"_evaluateBestHand(uint8[] memory)": "infinite",
						"_isBettingRoundOver(uint256)": "infinite",
						"_managePots(uint256)": "infinite",
						"_postBlinds(uint256)": "infinite",
						"_shuffleDeck(uint256)": "infinite",
						"_sortedRanks(uint256[] memory)": "infinite",
						"_startNewHand(uint256)": "infinite"
					}
				},
				"methodIdentifiers": {
					"MAX_PLAYERS()": "4411b3eb",
					"MAX_TABLES()": "40cb15d8",
					"TURN_TIMEOUT()": "5e82ff65",
					"allIn(uint256)": "e52b2285",
					"call(uint256)": "2b096926",
					"check(uint256)": "5f72f450",
					"createTable(uint256,uint256,uint256,uint256)": "a4dd19a5",
					"fold(uint256)": "bff7a00b",
					"getPlayerState(uint256,address)": "b20bfbb9",
					"getTableState(uint256)": "1ffc9a02",
					"joinTable(uint256,uint256)": "1ff7efc0",
					"leaveTable(uint256)": "08ce2011",
					"playerTableId(address)": "01e22c12",
					"raise(uint256,uint256)": "56adcb76",
					"tables(uint256)": "71671bf2"
				}
			},
			"storageLayout": {
				"storage": [
					{
						"astId": 103,
						"contract": "contracts/poker.sol:TexasHoldem",
						"label": "tables",
						"offset": 0,
						"slot": "0",
						"type": "t_array(t_struct(Table)81_storage)dyn_storage"
					},
					{
						"astId": 116,
						"contract": "contracts/poker.sol:TexasHoldem",
						"label": "playerTableId",
						"offset": 0,
						"slot": "1",
						"type": "t_mapping(t_address,t_uint256)"
					}
				],
				"types": {
					"t_address": {
						"encoding": "inplace",
						"label": "address",
						"numberOfBytes": "20"
					},
					"t_array(t_address)dyn_storage": {
						"base": "t_address",
						"encoding": "dynamic_array",
						"label": "address[]",
						"numberOfBytes": "32"
					},
					"t_array(t_struct(Player)30_storage)dyn_storage": {
						"base": "t_struct(Player)30_storage",
						"encoding": "dynamic_array",
						"label": "struct TexasHoldem.Player[]",
						"numberOfBytes": "32"
					},
					"t_array(t_struct(Pot)36_storage)dyn_storage": {
						"base": "t_struct(Pot)36_storage",
						"encoding": "dynamic_array",
						"label": "struct TexasHoldem.Pot[]",
						"numberOfBytes": "32"
					},
					"t_array(t_struct(Table)81_storage)dyn_storage": {
						"base": "t_struct(Table)81_storage",
						"encoding": "dynamic_array",
						"label": "struct TexasHoldem.Table[]",
						"numberOfBytes": "32"
					},
					"t_array(t_uint8)2_storage": {
						"base": "t_uint8",
						"encoding": "inplace",
						"label": "uint8[2]",
						"numberOfBytes": "32"
					},
					"t_array(t_uint8)52_storage": {
						"base": "t_uint8",
						"encoding": "inplace",
						"label": "uint8[52]",
						"numberOfBytes": "64"
					},
					"t_array(t_uint8)5_storage": {
						"base": "t_uint8",
						"encoding": "inplace",
						"label": "uint8[5]",
						"numberOfBytes": "32"
					},
					"t_bool": {
						"encoding": "inplace",
						"label": "bool",
						"numberOfBytes": "1"
					},
					"t_enum(GamePhase)13": {
						"encoding": "inplace",
						"label": "enum TexasHoldem.GamePhase",
						"numberOfBytes": "1"
					},
					"t_enum(TableStatus)6": {
						"encoding": "inplace",
						"label": "enum TexasHoldem.TableStatus",
						"numberOfBytes": "1"
					},
					"t_mapping(t_address,t_uint256)": {
						"encoding": "mapping",
						"key": "t_address",
						"label": "mapping(address => uint256)",
						"numberOfBytes": "32",
						"value": "t_uint256"
					},
					"t_struct(Player)30_storage": {
						"encoding": "inplace",
						"label": "struct TexasHoldem.Player",
						"members": [
							{
								"astId": 15,
								"contract": "contracts/poker.sol:TexasHoldem",
								"label": "addr",
								"offset": 0,
								"slot": "0",
								"type": "t_address"
							},
							{
								"astId": 17,
								"contract": "contracts/poker.sol:TexasHoldem",
								"label": "chips",
								"offset": 0,
								"slot": "1",
								"type": "t_uint256"
							},
							{
								"astId": 19,
								"contract": "contracts/poker.sol:TexasHoldem",
								"label": "bet",
								"offset": 0,
								"slot": "2",
								"type": "t_uint256"
							},
							{
								"astId": 23,
								"contract": "contracts/poker.sol:TexasHoldem",
								"label": "holeCards",
								"offset": 0,
								"slot": "3",
								"type": "t_array(t_uint8)2_storage"
							},
							{
								"astId": 25,
								"contract": "contracts/poker.sol:TexasHoldem",
								"label": "inHand",
								"offset": 0,
								"slot": "4",
								"type": "t_bool"
							},
							{
								"astId": 27,
								"contract": "contracts/poker.sol:TexasHoldem",
								"label": "hasActed",
								"offset": 1,
								"slot": "4",
								"type": "t_bool"
							},
							{
								"astId": 29,
								"contract": "contracts/poker.sol:TexasHoldem",
								"label": "lastActionTimestamp",
								"offset": 0,
								"slot": "5",
								"type": "t_uint256"
							}
						],
						"numberOfBytes": "192"
					},
					"t_struct(Pot)36_storage": {
						"encoding": "inplace",
						"label": "struct TexasHoldem.Pot",
						"members": [
							{
								"astId": 32,
								"contract": "contracts/poker.sol:TexasHoldem",
								"label": "size",
								"offset": 0,
								"slot": "0",
								"type": "t_uint256"
							},
							{
								"astId": 35,
								"contract": "contracts/poker.sol:TexasHoldem",
								"label": "eligiblePlayers",
								"offset": 0,
								"slot": "1",
								"type": "t_array(t_address)dyn_storage"
							}
						],
						"numberOfBytes": "64"
					},
					"t_struct(Table)81_storage": {
						"encoding": "inplace",
						"label": "struct TexasHoldem.Table",
						"members": [
							{
								"astId": 38,
								"contract": "contracts/poker.sol:TexasHoldem",
								"label": "id",
								"offset": 0,
								"slot": "0",
								"type": "t_uint256"
							},
							{
								"astId": 41,
								"contract": "contracts/poker.sol:TexasHoldem",
								"label": "status",
								"offset": 0,
								"slot": "1",
								"type": "t_enum(TableStatus)6"
							},
							{
								"astId": 43,
								"contract": "contracts/poker.sol:TexasHoldem",
								"label": "minBuyIn",
								"offset": 0,
								"slot": "2",
								"type": "t_uint256"
							},
							{
								"astId": 45,
								"contract": "contracts/poker.sol:TexasHoldem",
								"label": "maxBuyIn",
								"offset": 0,
								"slot": "3",
								"type": "t_uint256"
							},
							{
								"astId": 47,
								"contract": "contracts/poker.sol:TexasHoldem",
								"label": "smallBlind",
								"offset": 0,
								"slot": "4",
								"type": "t_uint256"
							},
							{
								"astId": 49,
								"contract": "contracts/poker.sol:TexasHoldem",
								"label": "bigBlind",
								"offset": 0,
								"slot": "5",
								"type": "t_uint256"
							},
							{
								"astId": 51,
								"contract": "contracts/poker.sol:TexasHoldem",
								"label": "dealerIndex",
								"offset": 0,
								"slot": "6",
								"type": "t_uint8"
							},
							{
								"astId": 53,
								"contract": "contracts/poker.sol:TexasHoldem",
								"label": "actionIndex",
								"offset": 1,
								"slot": "6",
								"type": "t_uint8"
							},
							{
								"astId": 57,
								"contract": "contracts/poker.sol:TexasHoldem",
								"label": "players",
								"offset": 0,
								"slot": "7",
								"type": "t_array(t_struct(Player)30_storage)dyn_storage"
							},
							{
								"astId": 61,
								"contract": "contracts/poker.sol:TexasHoldem",
								"label": "deck",
								"offset": 0,
								"slot": "8",
								"type": "t_array(t_uint8)52_storage"
							},
							{
								"astId": 63,
								"contract": "contracts/poker.sol:TexasHoldem",
								"label": "deckIndex",
								"offset": 0,
								"slot": "10",
								"type": "t_uint8"
							},
							{
								"astId": 67,
								"contract": "contracts/poker.sol:TexasHoldem",
								"label": "communityCards",
								"offset": 0,
								"slot": "11",
								"type": "t_array(t_uint8)5_storage"
							},
							{
								"astId": 70,
								"contract": "contracts/poker.sol:TexasHoldem",
								"label": "phase",
								"offset": 0,
								"slot": "12",
								"type": "t_enum(GamePhase)13"
							},
							{
								"astId": 72,
								"contract": "contracts/poker.sol:TexasHoldem",
								"label": "currentBet",
								"offset": 0,
								"slot": "13",
								"type": "t_uint256"
							},
							{
								"astId": 74,
								"contract": "contracts/poker.sol:TexasHoldem",
								"label": "minRaise",
								"offset": 0,
								"slot": "14",
								"type": "t_uint256"
							},
							{
								"astId": 78,
								"contract": "contracts/poker.sol:TexasHoldem",
								"label": "pots",
								"offset": 0,
								"slot": "15",
								"type": "t_array(t_struct(Pot)36_storage)dyn_storage"
							},
							{
								"astId": 80,
								"contract": "contracts/poker.sol:TexasHoldem",
								"label": "lastActivityTimestamp",
								"offset": 0,
								"slot": "16",
								"type": "t_uint256"
							}
						],
						"numberOfBytes": "544"
					},
					"t_uint256": {
						"encoding": "inplace",
						"label": "uint256",
						"numberOfBytes": "32"
					},
					"t_uint8": {
						"encoding": "inplace",
						"label": "uint8",
						"numberOfBytes": "1"
					}
				}
			},
			"userdoc": {
				"kind": "user",
				"methods": {
					"createTable(uint256,uint256,uint256,uint256)": {
						"notice": "Creates a new poker table."
					},
					"getPlayerState(uint256,address)": {
						"notice": "Retrieves a player's state at a specific table."
					},
					"getTableState(uint256)": {
						"notice": "Retrieves the full state of a specific table."
					},
					"joinTable(uint256,uint256)": {
						"notice": "Joins an existing table with a specified buy-in amount."
					},
					"leaveTable(uint256)": {
						"notice": "Leaves a poker table."
					}
				},
				"notice": "A feature-complete implementation of a Texas Hold'em poker game.",
				"version": 1
			}
		}
	}
}