{
	"data": {
		"bytecode": {
			"linkReferences": {},
			"object": "6080806040523460355760028054610100600160a81b0319163360081b610100600160a81b0316179055614860908161003a8239f35b5f80fdfe6080806040526004361015610012575f80fd5b5f3560e01c90816301e22c121461282657508063034ae62b14612634578063051036b614611b9257806308ce2011146125e45780630e622b911461250057806311568b33146102c357806317f12247146121495780631ff7efc014611ecf5780631ffc9a0214611e0957806327a1d94814611bca57806327ef8c9914611b925780632eb92332146119b25780633a240e981461198c5780633e5c73fc146119635780633f47475f146118f25780633f4ba83a146118bb57806340cb15d8146118a05780634411b3eb146118855780634afe62b5146111f957806355266422146111b557806357e73f021461119a57806359328401146111305780635c7b79f514610f2a5780635c975abb14610f055780635e82ff6514610eea578063705c64f214610eba57806371671bf214610e0a57806380278ae314610d015780638456cb5914610cc45780638da5cb5b14610c9857806396b76c2314610b475780639be4757014610b2c5780639c3930ad146109c65780639d325c2314610984578063a73e38d614610966578063a88baa63146108fe578063af8ada5d1461078c578063b20bfbb91461074d578063b62b29f61461072d578063baf5ed86146105f9578063bbbe133b146105dd578063d33ada98146105a5578063dfd1e44f14610587578063ebf6e91d14610322578063ecd7aebd14610300578063ef2490a7146102c35763f2fde38b14610221575f80fd5b346102bf5760203660031901126102bf5761023a61285a565b6002549061025633600884901c6001600160a01b031614613917565b6001600160a01b0381161561028857610100600160a81b031990911660089190911b610100600160a81b031617600255005b60405162461bcd60e51b815260206004820152600f60248201526e496e76616c6964206164647265737360881b6044820152606490fd5b5f80fd5b346102bf5760203660031901126102bf576001600160a01b036102e461285a565b165f526003602052602060ff60405f2054166040519015158152f35b346102bf57602061031861031336612b2b565b614668565b6040519015158152f35b346102bf5760203660031901126102bf576004358015158061057c575b61034890612d95565b335f52600160205261035f8160405f205414612dd8565b61036881613b20565b60ff60018201541660038110156105685760ff9161038a6001600693146136ca565b015460081c1660068110156105685760026103a5911461370b565b6103b66103b182613bd3565b613750565b60ff60066103c383613b20565b015460081c1660068110156105685760026103de911461370b565b6103fd60076103ec83613b20565b016103f73384613b55565b90612e24565b5090600482019160ff835416156105195760039061041b3384613d35565b60405160408152835f5160206147cb5f395f51905f5261044f604084016040906003815262121a5d60ea1b60208201520190565b925f60208201528033940390a30180545f19810191908211610505576104bb8161047e6015946104c094613b0b565b50855f5160206147eb5f395f51905f52604051806104b3339582919091602060ff604083019454818116845260081c16910152565b0390a3612c27565b613eac565b116104c757005b6105039161010061ffff1982541617905533817f0475f10c44bc61743d8f3430819178c37e18a17e3c392efd04f634315098055b5f80a3613e2d565b005b634e487b7160e01b5f52601160045260245ffd5b60405162461bcd60e51b815260206004820152602160248201527f506c61796572206973206e6f742061637469766520696e20746869732068616e6044820152601960fa1b6064820152608490fd5b634e487b7160e01b5f52602160045260245ffd5b505f5481111561033f565b346102bf576020601561059c6104bb36612b2b565b11604051908152f35b346102bf5760203660031901126102bf576001600160a01b036105c661285a565b165f526001602052602060405f2054604051908152f35b346102bf575f3660031901126102bf5760205f54604051908152f35b346102bf575f3660031901126102bf5761061b60ff60025460a81c1615612cba565b335f52600360205260ff60405f2054166106e857335f52600160205260405f20546106a357335f52600360205260405f20600160ff19825416179055335f52600460205260405f208054906127108201809211610505575560405161271081527fcc806627f1e0406af9febb5d05946dc6797aad4466a6be3d5ad400cb960e830460203392a2005b60405162461bcd60e51b815260206004820152601d60248201527f43616e6e6f7420636c61696d207768696c652061742061207461626c650000006044820152606490fd5b60405162461bcd60e51b815260206004820152601a60248201527f4672656520636869707320616c726561647920636c61696d65640000000000006044820152606490fd5b346102bf575f3660031901126102bf5760206040516509184e72a0008152f35b346102bf5760403660031901126102bf5761078861077461076c612870565b600435613a0b565b6040519182916020835260208301906128ec565b0390f35b346102bf5760203660031901126102bf57600435801515806108f3575b6107b290612d95565b5f198101818111610505576107c690612bdb565b506007810180545f928392835b8381106108a657505060ff6001820154169360038510156105685760ff600683015460081c16926006841015610568576040519663382e327960e11b88526004880152602087602481305afa92831561089b5760e0975f94610867575b50600801546040805197885260208801959095529386015260608501526001600160a01b0316608084015260a083015260c0820152f35b600891945061088d9060203d602011610894575b6108858183612ae3565b81019061379a565b9390610830565b503d61087b565b6040513d5f823e3d90fd5b60ff60046108b48385612e24565b500154166108c5575b6001016107d3565b93946108eb6108d560019261378c565b9660026108e28886612e24565b50015490612e3d565b9490506108bd565b505f548111156107a9565b346102bf5760203660031901126102bf576004358015158061095b575b61092490612d95565b5f19810190811161050557610947600761094061078893612bdb565b50016131dc565b604051918291602083526020830190612940565b505f5481111561091b565b346102bf575f3660031901126102bf5760206040516305f5e1008152f35b346102bf5760203660031901126102bf576004356305f5e1008102908082046305f5e100149015171561050557602090670de0b6b3a764000060405191048152f35b5f3660031901126102bf576109e360ff60025460a81c1615612cba565b3415610ae757335f52600160205260405f2054610a98576305f5e10034023481046305f5e1000361050557670de0b6b3a76400009004335f52600460205260405f20610a30828254612e3d565b90556040513481528160208201527f6a73271893757eff3e2109a31a1f50f0b3cafea2d51a26dc5cfe54ba216b531c60403392a26040519034825260208201527fa0d2b79bb60a5d517cdbeb6b3e57f9858157dd8dee6b24dee138764d7cb471fe60403392a2005b60405162461bcd60e51b815260206004820152602160248201527f43616e6e6f7420627579206368697073207768696c652061742061207461626c6044820152606560f81b6064820152608490fd5b60405162461bcd60e51b815260206004820152601a60248201527f4d7573742073656e642045544820746f206275792063686970730000000000006044820152606490fd5b346102bf575f3660031901126102bf57602060405160038152f35b346102bf5760203660031901126102bf5760043580151580610c8d575b610b6d90612d95565b335f526001602052610b848160405f205414612dd8565b610b8d81613b20565b60ff60018201541660038110156105685760ff91610baf6001600693146136ca565b015460081c166006811015610568576002610bca911461370b565b610bd66103b182613bd3565b60ff6006610be383613b20565b015460081c1690600682101561056857610c026002610503931461370b565b6004610c1d6007610c1284613b20565b016103f73385613b55565b500161010061ff001982541617905560405160408152600560408201526414dd185b9960da1b60608201525f6020820152815f5160206147cb5f395f51905f5260803393a333817f03de674cf1533ee6eeabc1d725b845b7d34879d2b61ea70c982ce01b4a73ef435f80a3613e2d565b505f54811115610b64565b346102bf575f3660031901126102bf5760025460405160089190911c6001600160a01b03168152602090f35b346102bf575f3660031901126102bf57600254610cef33600883901c6001600160a01b031614613917565b60ff60a81b1916600160a81b17600255005b346102bf5760203660031901126102bf5760043580151580610dff575b610d2790612d95565b335f526001602052610d3e8160405f205414612dd8565b610d4781613b20565b60ff600682015460081c16600681101561056857600203610dba57600701905f5b8254811015610db1578060ff6004610d8260019487612e24565b50015416610d91575b01610d68565b6004610d9d8286612e24565b5001805461ff001916610100179055610d8b565b61050382613f81565b60405162461bcd60e51b815260206004820152601960248201527f4e6f7420696e20706c61796572207475726e73207068617365000000000000006044820152606490fd5b505f54811115610d1e565b346102bf5760203660031901126102bf576004355f548110156102bf57610e3090612bdb565b50805460ff60018301541691610eb0600282015491610e9d6003820154600683015490600a610e6160088601612c90565b94015495610e7a604051998a998a5260208a0190612886565b6040880152606087015260ff8116608087015260ff60a087019160081c16612893565b61010060c0850152610100840190612998565b9060e08301520390f35b346102bf5760203660031901126102bf576020610ed8600435613950565b6040516001600160a01b039091168152f35b346102bf575f3660031901126102bf576020604051601e8152f35b346102bf575f3660031901126102bf57602060ff60025460a81c166040519015158152f35b346102bf5760203660031901126102bf5760043580151580611125575b610f5090612d95565b335f526001602052610f678160405f205414612dd8565b6001600254610f7960ff821615612cfb565b60ff191617600255610f8a81613b20565b906006820160ff815460081c166006811015610568576110d557610fae3383613b55565b9260078101936001610fc08287612e24565b500154801561109957335f526004602052610fe060405f20918254612e3d565b90555b84545f198101908111610505578110156110295760018101908181116105055761102361101260019388612e24565b5061101d8389612e24565b90612f30565b01610fe3565b506002848461103782612fc8565b335f5260016020525f604081205533907fb2bd643202385c64d9814c6c3fa61b1ba098d6652292e9d9a6f1a0cdae6eb8245f80a3541061107e575b6002805460ff19169055005b600101805460ff19169055805461ff00191690558080611072565b60405162461bcd60e51b8152602060048201526014602482015273139bc818da1a5c1cc81d1bc818d85cda081bdd5d60621b6044820152606490fd5b60405162461bcd60e51b815260206004820152602260248201527f43616e6e6f742063617368206f757420647572696e67206163746976652068616044820152611b9960f21b6064820152608490fd5b505f54811115610f47565b346102bf5760203660031901126102bf5760806001600160a01b0361115361285a565b165f90815260046020908152604080832054600180845282852054600385529483902054908452825191825292810184905260ff9092161515908201529015156060820152f35b346102bf5760206111ad6104bb36612b2b565b604051908152f35b346102bf5760203660031901126102bf576004356509184e72a0008102908082046509184e72a0001490151715610505576020906509184e72a00060405191048152f35b346102bf5761120736612a78565b8115158061187a575b61121990612d95565b335f5260016020526112308260405f205414612dd8565b61123982613b20565b9060ff600683015460081c1660068110156105685761183e5761126b600761126085613b20565b016103f73386613b55565b50906002830191825482101580611830575b156117f6578082600260049301556001810161129a848254612d88565b90550161010161ffff1982541617905560405160408152600360408201526210995d60ea1b6060820152816020820152845f5160206147cb5f395f51905f5260803393a3604051908152837f87b9df6fa7123c2e6044c3a3a37b4b0662c188d7a58ef86ee55067c46e4613ad60203393a35f5f9260075f9101928354935b848310611759575050501515918261173c575b505061133357005b61133c81613b20565b6001808201805460ff1916909117905560068101805461ffff1916610100178155909161136881613b20565b600401915f5b60ff811660348110156113be5760010160ff811161050557816001916113b560ff61139a81968a613cde565b919093169083549060ff809160031b9316831b921b19161790565b9055011661136e565b5050929160405160208101904282524460408201523360601b6060820152605481526113eb607482612ae3565b5190205f5b6033811061167e57505050600782015f5b81548110156114ad57611412613586565b600361141e8385612e24565b5001602082519261142f8484612e7a565b01905f5260205f20905f905b838210611490575050505080600461145560019385612e24565b5001805461ff001916905561147d61146d8285612e24565b50838060a01b0390541685613d35565b61148a61146d8285612e24565b01611401565b60016020826114a1839451876135cb565b0193019101909161143b565b50509060086114ba613586565b910160208251926114cb8484612e7a565b01905f5260205f205f915b8383106116615750505050906114eb82614745565b6114f482614745565b6114fd82613b20565b9161150d61031360088501612c27565b60078401935f939184805b87548110156115935760ff600461152f838b612e24565b50015416611540575b600101611518565b9061155a6103136003611553858c612e24565b5001612c27565b156115875750600180916004611570828b612e24565b5001805461ff0019166101001790555b9050611538565b90955060018096611580565b509193955091938215611647575b5050611628575b5060ff815460081c166006811015610568576001146115e9575b507f17ef9d3684374ca660f2d6b5a52c09c0c1c6144b13c23ff3681fb0a9ba9fe4c35f80a2005b61020061ff0019825416179055807f70eca82567b065893a5e6cc590178b6b320855676b6a9a066625933e0c8ebe58602060405160028152a2816115c2565b600601805461ff00191661030017905561164182613f81565b826115a8565b90915081611658575b5084806115a1565b90501584611650565b6001602082611672839451866135cb565b019201920191906114d6565b6116888183612e3d565b908060340391603483116105055781603414611728576001926116ac910682612e3d565b61172060ff6116bb8388613cde565b90549060031b1c166116f060ff6116d2868a613cde565b90549060031b1c166117086116e7878b613cde565b9390968b613cde565b819391549060ff809160031b9316831b921b19161790565b905583549060ff809160031b9316831b921b19161790565b9055016113f0565b634e487b7160e01b5f52601260045260245ffd5b159150811561174e575b50828061132b565b600191501482611746565b90919260ff600461176a8685612e24565b50015416806117df575b1561178e5761178460019161378c565b935b019190611318565b92600161179b8284612e24565b50015483541115806117c9575b6117b5575b600190611786565b946117c160019161378c565b9590506117ad565b5060026117d68284612e24565b500154156117a8565b5060026117ec8584612e24565b5001541515611774565b60405162461bcd60e51b8152602060048201526012602482015271125b9d985b1a590818995d08185b5bdd5b9d60721b6044820152606490fd5b50600181015482111561127d565b60405162461bcd60e51b815260206004820152601460248201527343616e6e6f7420706c61636520626574206e6f7760601b6044820152606490fd5b505f54821115611210565b346102bf575f3660031901126102bf57602060405160078152f35b346102bf575f3660031901126102bf576020604051600a8152f35b346102bf575f3660031901126102bf576002546118e633600883901c6001600160a01b031614613917565b60ff60a81b1916600255005b346102bf5760203660031901126102bf5760043561190e6136b1565b5080151580611958575b61192190612d95565b5f19810190811161050557611944600861193d61078893612bdb565b5001612c90565b604051918291602083526020830190612998565b505f54811115611918565b346102bf575f3660031901126102bf57604080516305f5e10081526509184e72a0006020820152f35b346102bf5760403660031901126102bf5760206103186119aa612870565b6004356137b9565b346102bf5760203660031901126102bf5760043580151580611b87575b6119d890612d95565b5f198101818111610505576119ec90612bdb565b505f5f600783018054915b828110611b545750505f60ff600185015416936003851015610568576001851480611b37575b611b2e575b600660ff91015460081c169260068410156105685760405163382e327960e11b81526004810187905292602084602481305afa93841561089b575f94611b0d575b506040519663074481d360e31b88526004880152336024880152602087604481305afa94851561089b575f95611acd575b6040805197885260208801919091528601526060850152151560808401526001600160a01b031660a0830152151560c082015260e09150f35b9450956020813d602011611b05575b81611ae960209383612ae3565b810103126102bf57519586151587036102bf5760e09694611a94565b3d9150611adc565b611b2791945060203d602011610894576108858183612ae3565b9287611a63565b60019150611a22565b5060ff600682015460081c16600681101561056857600214611a1d565b60ff6004611b628385612e24565b50015416611b73575b6001016119f7565b92611b7f60019161378c565b939050611b6b565b505f548111156119cf565b346102bf5760203660031901126102bf576001600160a01b03611bb361285a565b165f526004602052602060405f2054604051908152f35b346102bf5760203660031901126102bf5760043580151580611dfe575b611bf090612d95565b335f526001602052611c078160405f205414612dd8565b611c1081613b20565b60ff60018201541660038110156105685760ff91611c326001600693146136ca565b015460081c166006811015610568576002611c4d911461370b565b611c596103b182613bd3565b60ff6006611c6683613b20565b015460081c166006811015610568576002611c81911461370b565b611c8f60076103ec83613b20565b5090600382016002815403611da957600183019081546002850192835491828110611d5a5782611cbe91612d88565b90558060011b9080820460021490151715610505576104bb601592600461050397611d40948755019461010061ff0019875416178655611cfe3388613d35565b546040519060408252600b60408301526a2237bab13632902237bbb760a91b60608301526020820152865f5160206147cb5f395f51905f5260803393a3612c27565b11611d4c575b50613e2d565b805460ff1916905582611d46565b60405162461bcd60e51b815260206004820152602160248201527f496e73756666696369656e7420636869707320746f20646f75626c6520646f776044820152603760f91b6064820152608490fd5b60405162461bcd60e51b815260206004820152602760248201527f43616e206f6e6c7920646f75626c6520646f776e206f6e2066697273742074776044820152666f20636172647360c81b6064820152608490fd5b505f54811115611be7565b346102bf5760203660031901126102bf576004355f610120604051611e2d81612aaa565b82815282602082015282604082015282606082015261068060405190611e538183612ae3565b36823760808201528260a08201528260c0820152606060e0820152611e766136b1565b610100820152015280151580611ec4575b611e9090612d95565b5f19810190811161050557611eb0611eaa61078892612bdb565b50613232565b6040519182916020835260208301906129ba565b505f54811115611e87565b346102bf57611edd36612a78565b611eef60ff60025460a81c1615612cba565b611ef882613b20565b906007820160078154101561211457335f52600160205260405f20546120cf576002830154821015806120c1575b1561208457335f526004602052611f438260405f20541015612d47565b335f52600460205260405f20611f5a838254612d88565b9055611f64613586565b9160405192611f7284612ac7565b3384528160208501525f604085015260608401525f6080840152600160a08401528154600160401b81101561207057806001611fb19201845583612e24565b61205d57600293611fc1916135f6565b335f5260016020528460405f205542600a850155604051908152847f03dfbe1fcb4e2d61f3b4a0c93d8f814c92250618b3387f396cc9fc9fafe2c20360203393a354101580612045575b61201157005b600101600160ff198254161790557f50ad08f58a27f2851d7e3a1b3a6a46b290f2ce677e99642d30ff639721e777905f80a2005b5060ff6001820154166003811015610568571561200b565b634e487b7160e01b5f525f60045260245ffd5b634e487b7160e01b5f52604160045260245ffd5b60405162461bcd60e51b8152602060048201526015602482015274125b9d985b1a5908189d5e4b5a5b88185b5bdd5b9d605a1b6044820152606490fd5b506003830154821115611f26565b60405162461bcd60e51b815260206004820152601960248201527f506c6179657220616c72656164792061742061207461626c65000000000000006044820152606490fd5b60405162461bcd60e51b815260206004820152600d60248201526c1518589b19481a5cc8199d5b1b609a1b6044820152606490fd5b346102bf5761215736612a78565b61216960ff60025460a81c1615612cba565b5f54600a8110156124c257821515806124b8575b15612482576001810192838211610505576040519261068061219f8186612ae3565b3685376040516020926121b28483612ae3565b5f82526121bd613586565b92604051936121cb85612a8e565b84525f85850152604051966121df88612aaa565b888852858801915f835260408901938452606089019081526080890191825260a08901935f855260c08a01935f855260e08b019687526101008b019788526101208b0199428b52600160401b8110156120705761223e908d5f55612bdb565b9b909b61205d57518b5560018b01905160038110156105685760ff801983541691161790555160028a0155516003890155515f5b6001811061244157505f905f5b876014821061241c57505050600588015560ff80600689019351161660ff1983541617825551600681101561056857815461ff00191660089190911b61ff0016179055518051906007860190600160401b831161207057849082548484558085106123b0575b5001905f52835f20845f925b84841061239157505050505060088401905190815190838251926123158484612e7a565b01905f52835f205f915b838310612375578888600a896123498a8a01511515600985019060ff801983541691151516179055565b5191015533907fe93806e02d09f53787d307ada312314ec4cb949dc9bedc8503f94bd46e45dc6b5f80a3005b60018682612385839451866135cb565b0192019201919061231f565b600191816123a260059351866135f6565b0192019201919085906122f1565b809192506005029060058204036105055783600502600581048503610505575f848152879020879392810191015b8181106123eb57506122e5565b6005919293505f81555f60018201555f600282015561240c60038201612e4a565b5f600482015501908692916123de565b82519293919260019260ff600386901b81811b199092169216901b179301910161227f565b5f5f5b8880821061245d57505089820160040155600101612272565b845191949260019260ff600388901b81811b19909316911690911b1792019301612444565b60405162461bcd60e51b815260206004820152600e60248201526d496e76616c6964207374616b657360901b6044820152606490fd5b508282101561217d565b60405162461bcd60e51b815260206004820152601660248201527513585e1a5b5d5b481d18589b195cc81c995858da195960521b6044820152606490fd5b346102bf575f3660031901126102bf575f5461251b81612b05565b906125296040519283612ae3565b8082526020820190815f80527f290decd9548b62a8d60345a988386fc84ba6bc95484008f6362f93160ef3e5635f915b8383106125c657848660405191829160208301906020845251809152604083019060408160051b85010192915f905b82821061259757505050500390f35b919360019193955060206125b68192603f198a820301865288516129ba565b9601920192018594939192612588565b600b60206001926125d685613232565b815201920192019190612559565b346102bf5760203660031901126102bf5761050360043580151580612629575b61260d90612d95565b335f5260016020526126248160405f205414612dd8565b61301a565b505f54811115612604565b346102bf5760203660031901126102bf57600435600160025461265d60ff8260a81c1615612cba565b61266a60ff821615612cfb565b60ff19161760025580156127e157335f5260046020526126908160405f20541015612d47565b335f52600160205260405f205461279d57335f52600460205260405f206126b8828254612d88565b90556509184e72a00081028181046509184e72a00003610505576509184e72a00090045f80808084335af13d15612798573d67ffffffffffffffff81116120705760405190612711601f8201601f191660200183612ae3565b81525f60203d92013e5b1561275d5760405191825260208201527f5f1238e7c3295f06e8183d1c3550f5ebf2cbe37947e4ab6865905fea1c41eaac60403392a26002805460ff19169055005b60405162461bcd60e51b8152602060048201526013602482015272115512081d1c985b9cd9995c8819985a5b1959606a1b6044820152606490fd5b61271b565b606460405162461bcd60e51b815260206004820152602060248201527f43616e6e6f74207769746864726177207768696c652061742061207461626c656044820152fd5b60405162461bcd60e51b815260206004820152601f60248201527f4d757374207769746864726177206d6f7265207468616e2030206368697073006044820152606490fd5b346102bf5760203660031901126102bf576020906001600160a01b0361284a61285a565b165f526001825260405f20548152f35b600435906001600160a01b03821682036102bf57565b602435906001600160a01b03821682036102bf57565b9060038210156105685752565b9060068210156105685752565b90602080835192838152019201905f5b8181106128bd5750505090565b90919260206040826128e1600194885160ff60208092828151168552015116910152565b0194019291016128b0565b9060018060a01b038251168152602082015160208201526040820151604082015260a080612929606085015160c0606086015260c08501906128a0565b936080810151151560808501520151151591015290565b9080602083519182815201916020808360051b8301019401925f915b83831061296b57505050505090565b9091929394602080612989600193601f1986820301875289516128ec565b9701930193019193929061295c565b906020806129af84516040855260408501906128a0565b930151151591015290565b90815181526129d160208301516020830190612886565b60408201516040820152606082015160608201526080820151608082015f905b60348210612a5f5750505060ff60a083015116610700820152612a1d60c0830151610720830190612893565b610780610120612a56612a4260e08601516107a06107408701526107a0860190612940565b610100860151858203610760870152612998565b93015191015290565b60208060019260ff8651168152019301910190916129f1565b60409060031901126102bf576004359060243590565b6040810190811067ffffffffffffffff82111761207057604052565b610140810190811067ffffffffffffffff82111761207057604052565b60c0810190811067ffffffffffffffff82111761207057604052565b90601f8019910116810190811067ffffffffffffffff82111761207057604052565b67ffffffffffffffff81116120705760051b60200190565b359060ff821682036102bf57565b60206003198201126102bf5760043567ffffffffffffffff81116102bf57816023820112156102bf57806004013590612b6382612b05565b92612b716040519485612ae3565b8284526024602085019360061b830101918183116102bf57602401925b828410612b9c575050505090565b6040848303126102bf5760206040918251612bb681612a8e565b612bbf87612b1d565b8152612bcc838801612b1d565b83820152815201930192612b8e565b5f54811015612c13575f808052600b919091027f290decd9548b62a8d60345a988386fc84ba6bc95484008f6362f93160ef3e5630191565b634e487b7160e01b5f52603260045260245ffd5b908154612c3381612b05565b92612c416040519485612ae3565b81845260208401905f5260205f205f915b838310612c5f5750505050565b600160208192604051612c7181612a8e565b60ff8654818116835260081c1683820152815201920192019190612c52565b90604051612c9d81612a8e565b602060ff60018395612cae81612c27565b85520154161515910152565b15612cc157565b60405162461bcd60e51b815260206004820152601260248201527110dbdb9d1c9858dd081a5cc81c185d5cd95960721b6044820152606490fd5b15612d0257565b60405162461bcd60e51b815260206004820152601f60248201527f5265656e7472616e637947756172643a207265656e7472616e742063616c6c006044820152606490fd5b15612d4e57565b60405162461bcd60e51b8152602060048201526012602482015271496e73756666696369656e7420636869707360701b6044820152606490fd5b9190820391821161050557565b15612d9c57565b60405162461bcd60e51b81526020600482015260146024820152731518589b1948191bd95cc81b9bdd08195e1a5cdd60621b6044820152606490fd5b15612ddf57565b60405162461bcd60e51b815260206004820152601960248201527f596f7520617265206e6f742061742074686973207461626c65000000000000006044820152606490fd5b8054821015612c13575f52600560205f20910201905f90565b9190820180921161050557565b8054905f815581612e59575050565b5f5260205f20908101905b818110612e6f575050565b5f8155600101612e64565b90600160401b811161207057815491818155828210612e9857505050565b5f5260205f2091820191015b818110612eaf575050565b5f8155600101612ea4565b818114612f2c57815491612ece8383612e7a565b5f5260205f20905f5260205f205f915b838310612eeb5750505050565b6001808281938503612f04575b01920192019190612ede565b8054855460ff90911660ff19821681178755825461ff001661ffff1990921617178555612ef8565b5050565b919061205d57808203612f41575050565b805482546001600160a01b0319166001600160a01b03919091161782556001818101549083015560028082015490830155612fc69160ff906004908190612f8e6003808701908301612eba565b019201612faa82825416849060ff801983541691151516179055565b5460081c1661ff00825491151560081b169061ff001916179055565b565b80548015613006575f190190612fde8282612e24565b61205d576004815f80935582600182015582600282015561300160038201612e4a565b015555565b634e487b7160e01b5f52603160045260245ffd5b61302381613b20565b9161302e3383613b55565b600784019361303d8286612e24565b5091600682019260ff845460081c1660068110156105685761311b5760010154335f52600460205261307460405f20918254612e3d565b90555b85545f198101908111610505578110156130b7576001810190818111610505576130b16130a660019389612e24565b5061101d838a612e24565b01613077565b509193600291936130c782612fc8565b335f5260016020525f604081205533907fb2bd643202385c64d9814c6c3fa61b1ba098d6652292e9d9a6f1a0cdae6eb8245f80a35410613105575050565b600101805460ff19169055805461ff0019169055565b9250505060049193506001810154335f528260205261313f60405f20918254612e3d565b9055335f5260016020525f60408120550160ff19815416905533907fb2bd643202385c64d9814c6c3fa61b1ba098d6652292e9d9a6f1a0cdae6eb8245f80a3565b9060405161318d81612ac7565b60a060ff60048395600180851b03815416855260018101546020860152600281015460408601526131c060038201612c27565b606086015201548181161515608085015260081c161515910152565b9081546131e881612b05565b926131f66040519485612ae3565b81845260208401905f5260205f205f915b8383106132145750505050565b6005602060019261322485613180565b815201920192019190613207565b9060405161323f81612aaa565b80928054825260ff6001820154166003811015610568576020830152600281015460408301526003810154606083015260405180600483015f5b6034601f8201106133cc575060ff61026091548181168452818160081c166020850152818160101c166040850152818160181c166060850152818160201c166080850152818160281c1660a0850152818160301c1660c0850152818160381c1660e0850152818160401c16610100850152818160481c16610120850152818160501c16610140850152818160581c16610160850152818160601c16610180850152818160681c166101a0850152818160701c166101c0850152818160781c166101e0850152818160801c16610200850152818160881c16610220850152818160901c1661024085015260981c1691015261337561068082612ae3565b608083015260ff600682015481811660a085015260081c1660068110156105685761012091600a9160c08501526133ae600782016131dc565b60e08501526133bf60088201612c90565b6101008501520154910152565b90916001610400602092855460ff8116825260ff8160081c168583015260ff8160101c16604083015260ff8160181c16606083015260ff81861c16608083015260ff8160281c1660a083015260ff8160301c1660c083015260ff8160381c1660e083015260ff8160401c1661010083015260ff8160481c1661012083015260ff8160501c1661014083015260ff8160581c1661016083015260ff8160601c1661018083015260ff8160681c166101a083015260ff8160701c166101c083015260ff8160781c166101e083015260ff8160801c1661020083015260ff8160881c1661022083015260ff8160901c1661024083015260ff8160981c1661026083015260ff8160a01c1661028083015260ff8160a81c166102a083015260ff8160b01c166102c083015260ff8160b81c166102e083015260ff8160c01c1661030083015260ff8160c81c1661032083015260ff8160d01c1661034083015260ff8160d81c1661036083015260ff8160e01c1661038083015260ff8160e81c166103a083015260ff8160f01c166103c083015260f81c6103e08201520193019101613279565b6040519061357b82612a8e565b5f6020838281520152565b60405190613595602083612ae3565b5f80835282815b8281106135a857505050565b6020906040516135b781612a8e565b5f81525f838201528282850101520161359c565b815181546020939093015161ffff1990931660ff919091161760089290921b61ff0016919091179055565b815181546001600160a01b0319166001600160a01b03919091161781556020808301516001830155604083015160028301556060830151805191600384019161363f8484612e7a565b01905f5260205f205f915b83831061369457505050509060a06004612fc693019161367c60808201511515849060ff801983541691151516179055565b0151815461ff00191690151560081b61ff0016179055565b60016020826136a5839451866135cb565b0192019201919061364a565b604051906136be82612a8e565b5f602083606081520152565b156136d157565b60405162461bcd60e51b815260206004820152601260248201527147616d65206973206e6f742061637469766560701b6044820152606490fd5b1561371257565b60405162461bcd60e51b81526020600482015260166024820152754e6f7420706c61796572207475726e7320706861736560501b6044820152606490fd5b1561375757565b60405162461bcd60e51b815260206004820152600d60248201526c2737ba103cb7bab9103a3ab93760991b6044820152606490fd5b5f1981146105055760010190565b908160209103126102bf57516001600160a01b03811681036102bf5790565b908115801561390d575b6138ce5760018060a01b031690815f5260016020528060405f2054036138ce575f198101908111610505576137f790612bdb565b509060ff6001830154166003811015610568576001148015906138ef575b6138ce5760075f9201908154925b83811061383257505050505f90565b8161383d8285612e24565b50546001600160a01b03161461385557600101613823565b92505060ff60046138668484612e24565b500154161580156138d4575b6138ce575f5b82811061388757505050600190565b60ff60046138958385612e24565b50015416806138b2575b6138ab57600101613878565b5050505f90565b5060ff60046138c18385612e24565b50015460081c161561389f565b50505f90565b5060ff60046138e38484612e24565b50015460081c16613872565b5060ff600683015460081c1660068110156105685760021415613815565b505f5482116137c3565b1561391e57565b60405162461bcd60e51b815260206004820152600a60248201526927b7363c9037bbb732b960b11b6044820152606490fd5b80158015613a01575b6139fc575f1981019081116105055761397190612bdb565b5060ff600682015460081c166006811015610568576002036139fc576007018054905f5b8281106139a3575050505f90565b60ff60046139b18385612e24565b50015416806139e0575b6139c757600101613995565b906139d29250612e24565b50546001600160a01b031690565b5060ff60046139ef8385612e24565b50015460081c16156139bb565b505f90565b505f548111613959565b604051613a1781612ac7565b5f81525f60208201525f60408201526060808201525f60808201525f60a08201525080151580613b00575b613a4b90612d95565b5f198101908111610505575f5b6007613a6383612bdb565b500154811015613abb57613a83816007613a7c85612bdb565b5001612e24565b50546001600160a01b03848116911614613a9f57600101613a58565b613ab892506007613a7c613ab293612bdb565b50613180565b90565b60405162461bcd60e51b815260206004820152601e60248201527f506c61796572206e6f7420666f756e642061742074686973207461626c6500006044820152606490fd5b505f54811115613a42565b8054821015612c13575f5260205f2001905f90565b80151580613b4a575b613b3290612d95565b5f19810190811161050557613b4690612bdb565b5090565b505f54811115613b29565b613b5e90613b20565b600701805491905f5b838110613ba65760405162461bcd60e51b815260206004820152601060248201526f141b185e595c881b9bdd08199bdd5b9960821b6044820152606490fd5b613bb08183612e24565b50546001600160a01b03848116911614613bcc57600101613b67565b9250505090565b613bdc90613b20565b6007018054905f5b828110613bf2575050505f90565b60ff6004613c008385612e24565b5001541680613c85575b613c17575b600101613be4565b613c218183612e24565b50546001600160a01b03163303613c0f5791505f5b828110613c4557505050600190565b60ff6004613c538385612e24565b5001541680613c69575b6138ab57600101613c36565b5060ff6004613c788385612e24565b50015460081c1615613c5d565b5060ff6004613c948385612e24565b50015460081c1615613c0a565b15613ca857565b60405162461bcd60e51b815260206004820152600e60248201526d111958dac8195e1a185d5cdd195960921b6044820152606490fd5b9190916034831015612c1357601f908360051c01921690565b60ff1660ff81146105055760010190565b8054600160401b81101561207057613d2591600182018155613b0b565b91909161205d57612fc6916135cb565b90613d3f82613b20565b91600683019160ff83541692613d5760348510613ca1565b60ff613d80613d7a82613d6d8860048b01613cde565b90549060031b1c166146f5565b95613cf7565b1660ff1982541617905560075f9401935b8454811015613e1257613da48186612e24565b50546001600160a01b03838116911614613dc057600101613d91565b90613dea846003613de36040955f5160206147eb5f395f51905f52979899612e24565b5001613d08565b613e058251809660ff60208092828151168552015116910152565b6001600160a01b031693a3565b505f5160206147eb5f395f51905f5291929350604090613dea565b613e3681613b20565b600701805491905f5b838110613e52575050612fc69150613f81565b60ff6004613e608385612e24565b5001541680613e7c575b613e7657600101613e3f565b50505050565b5060ff6004613e8b8385612e24565b50015460081c1615613e6a565b8051821015612c135760209160051b010190565b5f91908290815b8151851015613f4257600e60ff613eca8785613e98565b51511603613ef357600b810180911161050557613ee96001919361378c565b945b019391613eb3565b600a60ff613f048785989698613e98565b5151161115613f2157600a81018091116105055760019092613eeb565b613f3c60019160ff613f338686613e98565b51511690612e3d565b92613eeb565b91929350505b6015811180613f78575b15613f7357600919810190811161050557908015610505575f190190613f48565b905090565b50811515613f52565b90613f8b82613b20565b600681019061030061ff001983541617825560088101805460011015612c1357805f52847f7500685859874da230d9e3b31d1ce014262e99e340e89ccb0b9c8b96818cb595613ffc600160205f200160405191829182919091602060ff604083019454818116845260081c16910152565b0390a2601161400d6104bb83612c27565b106146015750600901805460ff19166001179055805461ff00191661040017905561403782613b20565b906140476104bb60088401612c27565b92601584115f60075f9501948554905b81811061458357505061406981612b05565b916140776040519384612ae3565b81835261408382612b05565b602084019690601f19013688376140b261409c84612b05565b936140aa6040519586612ae3565b808552612b05565b602084019690601f19013688375f96875b83548910156142e9576140d68985612e24565b509860ff60048b015416156142df5760038a018c6141026103136140fc6104bb85612c27565b93612c27565b91601581116142d25788156141e9575050156141a25760028a0154916003830283810460031484151715610505575f51602061480b5f395f51905f52602061417860018f8f958f918f8961417e9161418495614163889f84978a1c90612e3d565b9889955b898060a01b039054169d8e92613e98565b52613e98565b5261378c565b9f01614191828254612e3d565b9055604051908152a35b01976140c3565b60028a0154918260011b928084046002149015171561050557895f51602061480b5f395f51905f52602061417860018f868f918f8261417e9161418495879e988995614167565b818111156142a55750501561425e5760028a0154916003830283810460031484151715610505575f51602061480b5f395f51905f52602061417860018f8f958f918f8961417e9161424395614163889f84978a1c90612e3d565b9f01614250828254612e3d565b9055604051908152a361419b565b60028a0154918260011b928084046002149015171561050557895f51602061480b5f395f51905f52602061417860018f868f918f8261417e9161424395879e988995614167565b6001949c9250146142b7575b5061419b565b6142ca8360028301549201918254612e3d565b90555f6142b1565b505050600191995061419b565b600191995061419b565b5095979496509750505083516144d5575b5050505061430781613b20565b60068101805461ff00191690559060078201905f5b82548110156143c45761432d613586565b60036143398386612e24565b5001602082519261434a8484612e7a565b01905f5260205f20905f905b8382106143a7575050505080600461437060019386612e24565b5001805460ff1916905560046143868286612e24565b5001805461ff00191690555f600261439e8387612e24565b5001550161431c565b60016020826143b8839451876135cb565b01930191019091614356565b509190506143d0613586565b6008820160208251926143e38484612e7a565b01905f5260205f205f915b8383106144b85750505050600901805460ff1916905561440d81613b20565b6001905f6007820160028154930154915b83811061448c575b5050505061445c575b7f70eca82567b065893a5e6cc590178b6b320855676b6a9a066625933e0c8ebe58602060405160048152a2565b807f70eca82567b065893a5e6cc590178b6b320855676b6a9a066625933e0c8ebe5860206040515f8152a261442f565b8260016144998385612e24565b500154106144a95760010161441e565b50505050505f5f808080614426565b60016020826144c9839451866135cb565b019201920191906143ee565b604080518181529451908501819052859493926060850192915f5b818110614561575050506020908483038286015251918281520191905f5b8181106145485750505090807fb8056501289c04ac55d8a0be36479249fd1e49c5c138ca3cda8248a6d07bfd10920390a25f8080806142fa565b825184528695506020938401939092019160010161450e565b82516001600160a01b03168552889750602094850194909201916001016144f0565b61458d8188612e24565b5060ff600482015416156145f8576104bb60036145aa9201612c27565b601581111590816145da575b506145c6575b6001905b01614057565b916145d260019161378c565b9290506145bc565b905088859186156145ee575b50505f6145b6565b119050885f6145e6565b506001906145c0565b61460a85614745565b60116146186104bb83612c27565b867fbf4b56bbb9bdb14e56bbe6172af19ea0186e1d51e3e595cd7680fc02ad786abb6040516020815280614660602082016040906003815262121a5d60ea1b60208201520190565b0390a261400d565b60028151036139fc57601561467c82613eac565b036139fc575f905f905f5b6002811061469a57505081613f73575090565b600e60ff6146a88385613e98565b515116146146da575b600a60ff6146bf8385613e98565b51511610156146d1575b600101614687565b600192506146c9565b600193506146b1565b60ff5f199116019060ff821161050557565b6146fd61356e565b50600260ff600d8161471b8282614713886146e3565b1604956146e3565b160616019060ff82116105055760ff90816040519361473985612a8e565b16835216602082015290565b6147899061479961475582613b20565b6008600682019160ff8354169261476e60348510613ca1565b60ff61478181613d6d8760048701613cde565b978895613cf7565b1660ff1982541617905501613d08565b6147b5604051809360ff60208092828151168552015116910152565b5f5160206147eb5f395f51905f5260403093a356fef3d4f57e05aae06b4017c0b2ed81f62aa6f19deef046d6a78ad2a4223858c4f0f6f217fadd711758a20d81e016907afe2adbed4e4d72be25424b9fe51ddd10f8ac496bf04b429bf7a6bb179271f3194066e9462a4f0d8afac065edd1f2be36b8a264697066735822122030c4682c76cea357d519e494c1e119850eeb0e4f33ca35d68d218385a849499064736f6c634300081e0033",
			"opcodes": "PUSH1 0x80 DUP1 PUSH1 0x40 MSTORE CALLVALUE PUSH1 0x35 JUMPI PUSH1 0x2 DUP1 SLOAD PUSH2 0x100 PUSH1 0x1 PUSH1 0xA8 SHL SUB NOT AND CALLER PUSH1 0x8 SHL PUSH2 0x100 PUSH1 0x1 PUSH1 0xA8 SHL SUB AND OR SWAP1 SSTORE PUSH2 0x4860 SWAP1 DUP2 PUSH2 0x3A DUP3 CODECOPY RETURN JUMPDEST PUSH0 DUP1 REVERT INVALID PUSH1 0x80 DUP1 PUSH1 0x40 MSTORE PUSH1 0x4 CALLDATASIZE LT ISZERO PUSH2 0x12 JUMPI PUSH0 DUP1 REVERT JUMPDEST PUSH0 CALLDATALOAD PUSH1 0xE0 SHR SWAP1 DUP2 PUSH4 0x1E22C12 EQ PUSH2 0x2826 JUMPI POP DUP1 PUSH4 0x34AE62B EQ PUSH2 0x2634 JUMPI DUP1 PUSH4 0x51036B6 EQ PUSH2 0x1B92 JUMPI DUP1 PUSH4 0x8CE2011 EQ PUSH2 0x25E4 JUMPI DUP1 PUSH4 0xE622B91 EQ PUSH2 0x2500 JUMPI DUP1 PUSH4 0x11568B33 EQ PUSH2 0x2C3 JUMPI DUP1 PUSH4 0x17F12247 EQ PUSH2 0x2149 JUMPI DUP1 PUSH4 0x1FF7EFC0 EQ PUSH2 0x1ECF JUMPI DUP1 PUSH4 0x1FFC9A02 EQ PUSH2 0x1E09 JUMPI DUP1 PUSH4 0x27A1D948 EQ PUSH2 0x1BCA JUMPI DUP1 PUSH4 0x27EF8C99 EQ PUSH2 0x1B92 JUMPI DUP1 PUSH4 0x2EB92332 EQ PUSH2 0x19B2 JUMPI DUP1 PUSH4 0x3A240E98 EQ PUSH2 0x198C JUMPI DUP1 PUSH4 0x3E5C73FC EQ PUSH2 0x1963 JUMPI DUP1 PUSH4 0x3F47475F EQ PUSH2 0x18F2 JUMPI DUP1 PUSH4 0x3F4BA83A EQ PUSH2 0x18BB JUMPI DUP1 PUSH4 0x40CB15D8 EQ PUSH2 0x18A0 JUMPI DUP1 PUSH4 0x4411B3EB EQ PUSH2 0x1885 JUMPI DUP1 PUSH4 0x4AFE62B5 EQ PUSH2 0x11F9 JUMPI DUP1 PUSH4 0x55266422 EQ PUSH2 0x11B5 JUMPI DUP1 PUSH4 0x57E73F02 EQ PUSH2 0x119A JUMPI DUP1 PUSH4 0x59328401 EQ PUSH2 0x1130 JUMPI DUP1 PUSH4 0x5C7B79F5 EQ PUSH2 0xF2A JUMPI DUP1 PUSH4 0x5C975ABB EQ PUSH2 0xF05 JUMPI DUP1 PUSH4 0x5E82FF65 EQ PUSH2 0xEEA JUMPI DUP1 PUSH4 0x705C64F2 EQ PUSH2 0xEBA JUMPI DUP1 PUSH4 0x71671BF2 EQ PUSH2 0xE0A JUMPI DUP1 PUSH4 0x80278AE3 EQ PUSH2 0xD01 JUMPI DUP1 PUSH4 0x8456CB59 EQ PUSH2 0xCC4 JUMPI DUP1 PUSH4 0x8DA5CB5B EQ PUSH2 0xC98 JUMPI DUP1 PUSH4 0x96B76C23 EQ PUSH2 0xB47 JUMPI DUP1 PUSH4 0x9BE47570 EQ PUSH2 0xB2C JUMPI DUP1 PUSH4 0x9C3930AD EQ PUSH2 0x9C6 JUMPI DUP1 PUSH4 0x9D325C23 EQ PUSH2 0x984 JUMPI DUP1 PUSH4 0xA73E38D6 EQ PUSH2 0x966 JUMPI DUP1 PUSH4 0xA88BAA63 EQ PUSH2 0x8FE JUMPI DUP1 PUSH4 0xAF8ADA5D EQ PUSH2 0x78C JUMPI DUP1 PUSH4 0xB20BFBB9 EQ PUSH2 0x74D JUMPI DUP1 PUSH4 0xB62B29F6 EQ PUSH2 0x72D JUMPI DUP1 PUSH4 0xBAF5ED86 EQ PUSH2 0x5F9 JUMPI DUP1 PUSH4 0xBBBE133B EQ PUSH2 0x5DD JUMPI DUP1 PUSH4 0xD33ADA98 EQ PUSH2 0x5A5 JUMPI DUP1 PUSH4 0xDFD1E44F EQ PUSH2 0x587 JUMPI DUP1 PUSH4 0xEBF6E91D EQ PUSH2 0x322 JUMPI DUP1 PUSH4 0xECD7AEBD EQ PUSH2 0x300 JUMPI DUP1 PUSH4 0xEF2490A7 EQ PUSH2 0x2C3 JUMPI PUSH4 0xF2FDE38B EQ PUSH2 0x221 JUMPI PUSH0 DUP1 REVERT JUMPDEST CALLVALUE PUSH2 0x2BF JUMPI PUSH1 0x20 CALLDATASIZE PUSH1 0x3 NOT ADD SLT PUSH2 0x2BF JUMPI PUSH2 0x23A PUSH2 0x285A JUMP JUMPDEST PUSH1 0x2 SLOAD SWAP1 PUSH2 0x256 CALLER PUSH1 0x8 DUP5 SWAP1 SHR PUSH1 0x1 PUSH1 0x1 PUSH1 0xA0 SHL SUB AND EQ PUSH2 0x3917 JUMP JUMPDEST PUSH1 0x1 PUSH1 0x1 PUSH1 0xA0 SHL SUB DUP2 AND ISZERO PUSH2 0x288 JUMPI PUSH2 0x100 PUSH1 0x1 PUSH1 0xA8 SHL SUB NOT SWAP1 SWAP2 AND PUSH1 0x8 SWAP2 SWAP1 SWAP2 SHL PUSH2 0x100 PUSH1 0x1 PUSH1 0xA8 SHL SUB AND OR PUSH1 0x2 SSTORE STOP JUMPDEST PUSH1 0x40 MLOAD PUSH3 0x461BCD PUSH1 0xE5 SHL DUP2 MSTORE PUSH1 0x20 PUSH1 0x4 DUP3 ADD MSTORE PUSH1 0xF PUSH1 0x24 DUP3 ADD MSTORE PUSH15 0x496E76616C69642061646472657373 PUSH1 0x88 SHL PUSH1 0x44 DUP3 ADD MSTORE PUSH1 0x64 SWAP1 REVERT JUMPDEST PUSH0 DUP1 REVERT JUMPDEST CALLVALUE PUSH2 0x2BF JUMPI PUSH1 0x20 CALLDATASIZE PUSH1 0x3 NOT ADD SLT PUSH2 0x2BF JUMPI PUSH1 0x1 PUSH1 0x1 PUSH1 0xA0 SHL SUB PUSH2 0x2E4 PUSH2 0x285A JUMP JUMPDEST AND PUSH0 MSTORE PUSH1 0x3 PUSH1 0x20 MSTORE PUSH1 0x20 PUSH1 0xFF PUSH1 0x40 PUSH0 KECCAK256 SLOAD AND PUSH1 0x40 MLOAD SWAP1 ISZERO ISZERO DUP2 MSTORE RETURN JUMPDEST CALLVALUE PUSH2 0x2BF JUMPI PUSH1 0x20 PUSH2 0x318 PUSH2 0x313 CALLDATASIZE PUSH2 0x2B2B JUMP JUMPDEST PUSH2 0x4668 JUMP JUMPDEST PUSH1 0x40 MLOAD SWAP1 ISZERO ISZERO DUP2 MSTORE RETURN JUMPDEST CALLVALUE PUSH2 0x2BF JUMPI PUSH1 0x20 CALLDATASIZE PUSH1 0x3 NOT ADD SLT PUSH2 0x2BF JUMPI PUSH1 0x4 CALLDATALOAD DUP1 ISZERO ISZERO DUP1 PUSH2 0x57C JUMPI JUMPDEST PUSH2 0x348 SWAP1 PUSH2 0x2D95 JUMP JUMPDEST CALLER PUSH0 MSTORE PUSH1 0x1 PUSH1 0x20 MSTORE PUSH2 0x35F DUP2 PUSH1 0x40 PUSH0 KECCAK256 SLOAD EQ PUSH2 0x2DD8 JUMP JUMPDEST PUSH2 0x368 DUP2 PUSH2 0x3B20 JUMP JUMPDEST PUSH1 0xFF PUSH1 0x1 DUP3 ADD SLOAD AND PUSH1 0x3 DUP2 LT ISZERO PUSH2 0x568 JUMPI PUSH1 0xFF SWAP2 PUSH2 0x38A PUSH1 0x1 PUSH1 0x6 SWAP4 EQ PUSH2 0x36CA JUMP JUMPDEST ADD SLOAD PUSH1 0x8 SHR AND PUSH1 0x6 DUP2 LT ISZERO PUSH2 0x568 JUMPI PUSH1 0x2 PUSH2 0x3A5 SWAP2 EQ PUSH2 0x370B JUMP JUMPDEST PUSH2 0x3B6 PUSH2 0x3B1 DUP3 PUSH2 0x3BD3 JUMP JUMPDEST PUSH2 0x3750 JUMP JUMPDEST PUSH1 0xFF PUSH1 0x6 PUSH2 0x3C3 DUP4 PUSH2 0x3B20 JUMP JUMPDEST ADD SLOAD PUSH1 0x8 SHR AND PUSH1 0x6 DUP2 LT ISZERO PUSH2 0x568 JUMPI PUSH1 0x2 PUSH2 0x3DE SWAP2 EQ PUSH2 0x370B JUMP JUMPDEST PUSH2 0x3FD PUSH1 0x7 PUSH2 0x3EC DUP4 PUSH2 0x3B20 JUMP JUMPDEST ADD PUSH2 0x3F7 CALLER DUP5 PUSH2 0x3B55 JUMP JUMPDEST SWAP1 PUSH2 0x2E24 JUMP JUMPDEST POP SWAP1 PUSH1 0x4 DUP3 ADD SWAP2 PUSH1 0xFF DUP4 SLOAD AND ISZERO PUSH2 0x519 JUMPI PUSH1 0x3 SWAP1 PUSH2 0x41B CALLER DUP5 PUSH2 0x3D35 JUMP JUMPDEST PUSH1 0x40 MLOAD PUSH1 0x40 DUP2 MSTORE DUP4 PUSH0 MLOAD PUSH1 0x20 PUSH2 0x47CB PUSH0 CODECOPY PUSH0 MLOAD SWAP1 PUSH0 MSTORE PUSH2 0x44F PUSH1 0x40 DUP5 ADD PUSH1 0x40 SWAP1 PUSH1 0x3 DUP2 MSTORE PUSH3 0x121A5D PUSH1 0xEA SHL PUSH1 0x20 DUP3 ADD MSTORE ADD SWAP1 JUMP JUMPDEST SWAP3 PUSH0 PUSH1 0x20 DUP3 ADD MSTORE DUP1 CALLER SWAP5 SUB SWAP1 LOG3 ADD DUP1 SLOAD PUSH0 NOT DUP2 ADD SWAP2 SWAP1 DUP3 GT PUSH2 0x505 JUMPI PUSH2 0x4BB DUP2 PUSH2 0x47E PUSH1 0x15 SWAP5 PUSH2 0x4C0 SWAP5 PUSH2 0x3B0B JUMP JUMPDEST POP DUP6 PUSH0 MLOAD PUSH1 0x20 PUSH2 0x47EB PUSH0 CODECOPY PUSH0 MLOAD SWAP1 PUSH0 MSTORE PUSH1 0x40 MLOAD DUP1 PUSH2 0x4B3 CALLER SWAP6 DUP3 SWAP2 SWAP1 SWAP2 PUSH1 0x20 PUSH1 0xFF PUSH1 0x40 DUP4 ADD SWAP5 SLOAD DUP2 DUP2 AND DUP5 MSTORE PUSH1 0x8 SHR AND SWAP2 ADD MSTORE JUMP JUMPDEST SUB SWAP1 LOG3 PUSH2 0x2C27 JUMP JUMPDEST PUSH2 0x3EAC JUMP JUMPDEST GT PUSH2 0x4C7 JUMPI STOP JUMPDEST PUSH2 0x503 SWAP2 PUSH2 0x100 PUSH2 0xFFFF NOT DUP3 SLOAD AND OR SWAP1 SSTORE CALLER DUP2 PUSH32 0x475F10C44BC61743D8F3430819178C37E18A17E3C392EFD04F634315098055B PUSH0 DUP1 LOG3 PUSH2 0x3E2D JUMP JUMPDEST STOP JUMPDEST PUSH4 0x4E487B71 PUSH1 0xE0 SHL PUSH0 MSTORE PUSH1 0x11 PUSH1 0x4 MSTORE PUSH1 0x24 PUSH0 REVERT JUMPDEST PUSH1 0x40 MLOAD PUSH3 0x461BCD PUSH1 0xE5 SHL DUP2 MSTORE PUSH1 0x20 PUSH1 0x4 DUP3 ADD MSTORE PUSH1 0x21 PUSH1 0x24 DUP3 ADD MSTORE PUSH32 0x506C61796572206973206E6F742061637469766520696E20746869732068616E PUSH1 0x44 DUP3 ADD MSTORE PUSH1 0x19 PUSH1 0xFA SHL PUSH1 0x64 DUP3 ADD MSTORE PUSH1 0x84 SWAP1 REVERT JUMPDEST PUSH4 0x4E487B71 PUSH1 0xE0 SHL PUSH0 MSTORE PUSH1 0x21 PUSH1 0x4 MSTORE PUSH1 0x24 PUSH0 REVERT JUMPDEST POP PUSH0 SLOAD DUP2 GT ISZERO PUSH2 0x33F JUMP JUMPDEST CALLVALUE PUSH2 0x2BF JUMPI PUSH1 0x20 PUSH1 0x15 PUSH2 0x59C PUSH2 0x4BB CALLDATASIZE PUSH2 0x2B2B JUMP JUMPDEST GT PUSH1 0x40 MLOAD SWAP1 DUP2 MSTORE RETURN JUMPDEST CALLVALUE PUSH2 0x2BF JUMPI PUSH1 0x20 CALLDATASIZE PUSH1 0x3 NOT ADD SLT PUSH2 0x2BF JUMPI PUSH1 0x1 PUSH1 0x1 PUSH1 0xA0 SHL SUB PUSH2 0x5C6 PUSH2 0x285A JUMP JUMPDEST AND PUSH0 MSTORE PUSH1 0x1 PUSH1 0x20 MSTORE PUSH1 0x20 PUSH1 0x40 PUSH0 KECCAK256 SLOAD PUSH1 0x40 MLOAD SWAP1 DUP2 MSTORE RETURN JUMPDEST CALLVALUE PUSH2 0x2BF JUMPI PUSH0 CALLDATASIZE PUSH1 0x3 NOT ADD SLT PUSH2 0x2BF JUMPI PUSH1 0x20 PUSH0 SLOAD PUSH1 0x40 MLOAD SWAP1 DUP2 MSTORE RETURN JUMPDEST CALLVALUE PUSH2 0x2BF JUMPI PUSH0 CALLDATASIZE PUSH1 0x3 NOT ADD SLT PUSH2 0x2BF JUMPI PUSH2 0x61B PUSH1 0xFF PUSH1 0x2 SLOAD PUSH1 0xA8 SHR AND ISZERO PUSH2 0x2CBA JUMP JUMPDEST CALLER PUSH0 MSTORE PUSH1 0x3 PUSH1 0x20 MSTORE PUSH1 0xFF PUSH1 0x40 PUSH0 KECCAK256 SLOAD AND PUSH2 0x6E8 JUMPI CALLER PUSH0 MSTORE PUSH1 0x1 PUSH1 0x20 MSTORE PUSH1 0x40 PUSH0 KECCAK256 SLOAD PUSH2 0x6A3 JUMPI CALLER PUSH0 MSTORE PUSH1 0x3 PUSH1 0x20 MSTORE PUSH1 0x40 PUSH0 KECCAK256 PUSH1 0x1 PUSH1 0xFF NOT DUP3 SLOAD AND OR SWAP1 SSTORE CALLER PUSH0 MSTORE PUSH1 0x4 PUSH1 0x20 MSTORE PUSH1 0x40 PUSH0 KECCAK256 DUP1 SLOAD SWAP1 PUSH2 0x2710 DUP3 ADD DUP1 SWAP3 GT PUSH2 0x505 JUMPI SSTORE PUSH1 0x40 MLOAD PUSH2 0x2710 DUP2 MSTORE PUSH32 0xCC806627F1E0406AF9FEBB5D05946DC6797AAD4466A6BE3D5AD400CB960E8304 PUSH1 0x20 CALLER SWAP3 LOG2 STOP JUMPDEST PUSH1 0x40 MLOAD PUSH3 0x461BCD PUSH1 0xE5 SHL DUP2 MSTORE PUSH1 0x20 PUSH1 0x4 DUP3 ADD MSTORE PUSH1 0x1D PUSH1 0x24 DUP3 ADD MSTORE PUSH32 0x43616E6E6F7420636C61696D207768696C652061742061207461626C65000000 PUSH1 0x44 DUP3 ADD MSTORE PUSH1 0x64 SWAP1 REVERT JUMPDEST PUSH1 0x40 MLOAD PUSH3 0x461BCD PUSH1 0xE5 SHL DUP2 MSTORE PUSH1 0x20 PUSH1 0x4 DUP3 ADD MSTORE PUSH1 0x1A PUSH1 0x24 DUP3 ADD MSTORE PUSH32 0x4672656520636869707320616C726561647920636C61696D6564000000000000 PUSH1 0x44 DUP3 ADD MSTORE PUSH1 0x64 SWAP1 REVERT JUMPDEST CALLVALUE PUSH2 0x2BF JUMPI PUSH0 CALLDATASIZE PUSH1 0x3 NOT ADD SLT PUSH2 0x2BF JUMPI PUSH1 0x20 PUSH1 0x40 MLOAD PUSH6 0x9184E72A000 DUP2 MSTORE RETURN JUMPDEST CALLVALUE PUSH2 0x2BF JUMPI PUSH1 0x40 CALLDATASIZE PUSH1 0x3 NOT ADD SLT PUSH2 0x2BF JUMPI PUSH2 0x788 PUSH2 0x774 PUSH2 0x76C PUSH2 0x2870 JUMP JUMPDEST PUSH1 0x4 CALLDATALOAD PUSH2 0x3A0B JUMP JUMPDEST PUSH1 0x40 MLOAD SWAP2 DUP3 SWAP2 PUSH1 0x20 DUP4 MSTORE PUSH1 0x20 DUP4 ADD SWAP1 PUSH2 0x28EC JUMP JUMPDEST SUB SWAP1 RETURN JUMPDEST CALLVALUE PUSH2 0x2BF JUMPI PUSH1 0x20 CALLDATASIZE PUSH1 0x3 NOT ADD SLT PUSH2 0x2BF JUMPI PUSH1 0x4 CALLDATALOAD DUP1 ISZERO ISZERO DUP1 PUSH2 0x8F3 JUMPI JUMPDEST PUSH2 0x7B2 SWAP1 PUSH2 0x2D95 JUMP JUMPDEST PUSH0 NOT DUP2 ADD DUP2 DUP2 GT PUSH2 0x505 JUMPI PUSH2 0x7C6 SWAP1 PUSH2 0x2BDB JUMP JUMPDEST POP PUSH1 0x7 DUP2 ADD DUP1 SLOAD PUSH0 SWAP3 DUP4 SWAP3 DUP4 JUMPDEST DUP4 DUP2 LT PUSH2 0x8A6 JUMPI POP POP PUSH1 0xFF PUSH1 0x1 DUP3 ADD SLOAD AND SWAP4 PUSH1 0x3 DUP6 LT ISZERO PUSH2 0x568 JUMPI PUSH1 0xFF PUSH1 0x6 DUP4 ADD SLOAD PUSH1 0x8 SHR AND SWAP3 PUSH1 0x6 DUP5 LT ISZERO PUSH2 0x568 JUMPI PUSH1 0x40 MLOAD SWAP7 PUSH4 0x382E3279 PUSH1 0xE1 SHL DUP9 MSTORE PUSH1 0x4 DUP9 ADD MSTORE PUSH1 0x20 DUP8 PUSH1 0x24 DUP2 ADDRESS GAS STATICCALL SWAP3 DUP4 ISZERO PUSH2 0x89B JUMPI PUSH1 0xE0 SWAP8 PUSH0 SWAP5 PUSH2 0x867 JUMPI JUMPDEST POP PUSH1 0x8 ADD SLOAD PUSH1 0x40 DUP1 MLOAD SWAP8 DUP9 MSTORE PUSH1 0x20 DUP9 ADD SWAP6 SWAP1 SWAP6 MSTORE SWAP4 DUP7 ADD MSTORE PUSH1 0x60 DUP6 ADD MSTORE PUSH1 0x1 PUSH1 0x1 PUSH1 0xA0 SHL SUB AND PUSH1 0x80 DUP5 ADD MSTORE PUSH1 0xA0 DUP4 ADD MSTORE PUSH1 0xC0 DUP3 ADD MSTORE RETURN JUMPDEST PUSH1 0x8 SWAP2 SWAP5 POP PUSH2 0x88D SWAP1 PUSH1 0x20 RETURNDATASIZE PUSH1 0x20 GT PUSH2 0x894 JUMPI JUMPDEST PUSH2 0x885 DUP2 DUP4 PUSH2 0x2AE3 JUMP JUMPDEST DUP2 ADD SWAP1 PUSH2 0x379A JUMP JUMPDEST SWAP4 SWAP1 PUSH2 0x830 JUMP JUMPDEST POP RETURNDATASIZE PUSH2 0x87B JUMP JUMPDEST PUSH1 0x40 MLOAD RETURNDATASIZE PUSH0 DUP3 RETURNDATACOPY RETURNDATASIZE SWAP1 REVERT JUMPDEST PUSH1 0xFF PUSH1 0x4 PUSH2 0x8B4 DUP4 DUP6 PUSH2 0x2E24 JUMP JUMPDEST POP ADD SLOAD AND PUSH2 0x8C5 JUMPI JUMPDEST PUSH1 0x1 ADD PUSH2 0x7D3 JUMP JUMPDEST SWAP4 SWAP5 PUSH2 0x8EB PUSH2 0x8D5 PUSH1 0x1 SWAP3 PUSH2 0x378C JUMP JUMPDEST SWAP7 PUSH1 0x2 PUSH2 0x8E2 DUP9 DUP7 PUSH2 0x2E24 JUMP JUMPDEST POP ADD SLOAD SWAP1 PUSH2 0x2E3D JUMP JUMPDEST SWAP5 SWAP1 POP PUSH2 0x8BD JUMP JUMPDEST POP PUSH0 SLOAD DUP2 GT ISZERO PUSH2 0x7A9 JUMP JUMPDEST CALLVALUE PUSH2 0x2BF JUMPI PUSH1 0x20 CALLDATASIZE PUSH1 0x3 NOT ADD SLT PUSH2 0x2BF JUMPI PUSH1 0x4 CALLDATALOAD DUP1 ISZERO ISZERO DUP1 PUSH2 0x95B JUMPI JUMPDEST PUSH2 0x924 SWAP1 PUSH2 0x2D95 JUMP JUMPDEST PUSH0 NOT DUP2 ADD SWAP1 DUP2 GT PUSH2 0x505 JUMPI PUSH2 0x947 PUSH1 0x7 PUSH2 0x940 PUSH2 0x788 SWAP4 PUSH2 0x2BDB JUMP JUMPDEST POP ADD PUSH2 0x31DC JUMP JUMPDEST PUSH1 0x40 MLOAD SWAP2 DUP3 SWAP2 PUSH1 0x20 DUP4 MSTORE PUSH1 0x20 DUP4 ADD SWAP1 PUSH2 0x2940 JUMP JUMPDEST POP PUSH0 SLOAD DUP2 GT ISZERO PUSH2 0x91B JUMP JUMPDEST CALLVALUE PUSH2 0x2BF JUMPI PUSH0 CALLDATASIZE PUSH1 0x3 NOT ADD SLT PUSH2 0x2BF JUMPI PUSH1 0x20 PUSH1 0x40 MLOAD PUSH4 0x5F5E100 DUP2 MSTORE RETURN JUMPDEST CALLVALUE PUSH2 0x2BF JUMPI PUSH1 0x20 CALLDATASIZE PUSH1 0x3 NOT ADD SLT PUSH2 0x2BF JUMPI PUSH1 0x4 CALLDATALOAD PUSH4 0x5F5E100 DUP2 MUL SWAP1 DUP1 DUP3 DIV PUSH4 0x5F5E100 EQ SWAP1 ISZERO OR ISZERO PUSH2 0x505 JUMPI PUSH1 0x20 SWAP1 PUSH8 0xDE0B6B3A7640000 PUSH1 0x40 MLOAD SWAP2 DIV DUP2 MSTORE RETURN JUMPDEST PUSH0 CALLDATASIZE PUSH1 0x3 NOT ADD SLT PUSH2 0x2BF JUMPI PUSH2 0x9E3 PUSH1 0xFF PUSH1 0x2 SLOAD PUSH1 0xA8 SHR AND ISZERO PUSH2 0x2CBA JUMP JUMPDEST CALLVALUE ISZERO PUSH2 0xAE7 JUMPI CALLER PUSH0 MSTORE PUSH1 0x1 PUSH1 0x20 MSTORE PUSH1 0x40 PUSH0 KECCAK256 SLOAD PUSH2 0xA98 JUMPI PUSH4 0x5F5E100 CALLVALUE MUL CALLVALUE DUP2 DIV PUSH4 0x5F5E100 SUB PUSH2 0x505 JUMPI PUSH8 0xDE0B6B3A7640000 SWAP1 DIV CALLER PUSH0 MSTORE PUSH1 0x4 PUSH1 0x20 MSTORE PUSH1 0x40 PUSH0 KECCAK256 PUSH2 0xA30 DUP3 DUP3 SLOAD PUSH2 0x2E3D JUMP JUMPDEST SWAP1 SSTORE PUSH1 0x40 MLOAD CALLVALUE DUP2 MSTORE DUP2 PUSH1 0x20 DUP3 ADD MSTORE PUSH32 0x6A73271893757EFF3E2109A31A1F50F0B3CAFEA2D51A26DC5CFE54BA216B531C PUSH1 0x40 CALLER SWAP3 LOG2 PUSH1 0x40 MLOAD SWAP1 CALLVALUE DUP3 MSTORE PUSH1 0x20 DUP3 ADD MSTORE PUSH32 0xA0D2B79BB60A5D517CDBEB6B3E57F9858157DD8DEE6B24DEE138764D7CB471FE PUSH1 0x40 CALLER SWAP3 LOG2 STOP JUMPDEST PUSH1 0x40 MLOAD PUSH3 0x461BCD PUSH1 0xE5 SHL DUP2 MSTORE PUSH1 0x20 PUSH1 0x4 DUP3 ADD MSTORE PUSH1 0x21 PUSH1 0x24 DUP3 ADD MSTORE PUSH32 0x43616E6E6F7420627579206368697073207768696C652061742061207461626C PUSH1 0x44 DUP3 ADD MSTORE PUSH1 0x65 PUSH1 0xF8 SHL PUSH1 0x64 DUP3 ADD MSTORE PUSH1 0x84 SWAP1 REVERT JUMPDEST PUSH1 0x40 MLOAD PUSH3 0x461BCD PUSH1 0xE5 SHL DUP2 MSTORE PUSH1 0x20 PUSH1 0x4 DUP3 ADD MSTORE PUSH1 0x1A PUSH1 0x24 DUP3 ADD MSTORE PUSH32 0x4D7573742073656E642045544820746F20627579206368697073000000000000 PUSH1 0x44 DUP3 ADD MSTORE PUSH1 0x64 SWAP1 REVERT JUMPDEST CALLVALUE PUSH2 0x2BF JUMPI PUSH0 CALLDATASIZE PUSH1 0x3 NOT ADD SLT PUSH2 0x2BF JUMPI PUSH1 0x20 PUSH1 0x40 MLOAD PUSH1 0x3 DUP2 MSTORE RETURN JUMPDEST CALLVALUE PUSH2 0x2BF JUMPI PUSH1 0x20 CALLDATASIZE PUSH1 0x3 NOT ADD SLT PUSH2 0x2BF JUMPI PUSH1 0x4 CALLDATALOAD DUP1 ISZERO ISZERO DUP1 PUSH2 0xC8D JUMPI JUMPDEST PUSH2 0xB6D SWAP1 PUSH2 0x2D95 JUMP JUMPDEST CALLER PUSH0 MSTORE PUSH1 0x1 PUSH1 0x20 MSTORE PUSH2 0xB84 DUP2 PUSH1 0x40 PUSH0 KECCAK256 SLOAD EQ PUSH2 0x2DD8 JUMP JUMPDEST PUSH2 0xB8D DUP2 PUSH2 0x3B20 JUMP JUMPDEST PUSH1 0xFF PUSH1 0x1 DUP3 ADD SLOAD AND PUSH1 0x3 DUP2 LT ISZERO PUSH2 0x568 JUMPI PUSH1 0xFF SWAP2 PUSH2 0xBAF PUSH1 0x1 PUSH1 0x6 SWAP4 EQ PUSH2 0x36CA JUMP JUMPDEST ADD SLOAD PUSH1 0x8 SHR AND PUSH1 0x6 DUP2 LT ISZERO PUSH2 0x568 JUMPI PUSH1 0x2 PUSH2 0xBCA SWAP2 EQ PUSH2 0x370B JUMP JUMPDEST PUSH2 0xBD6 PUSH2 0x3B1 DUP3 PUSH2 0x3BD3 JUMP JUMPDEST PUSH1 0xFF PUSH1 0x6 PUSH2 0xBE3 DUP4 PUSH2 0x3B20 JUMP JUMPDEST ADD SLOAD PUSH1 0x8 SHR AND SWAP1 PUSH1 0x6 DUP3 LT ISZERO PUSH2 0x568 JUMPI PUSH2 0xC02 PUSH1 0x2 PUSH2 0x503 SWAP4 EQ PUSH2 0x370B JUMP JUMPDEST PUSH1 0x4 PUSH2 0xC1D PUSH1 0x7 PUSH2 0xC12 DUP5 PUSH2 0x3B20 JUMP JUMPDEST ADD PUSH2 0x3F7 CALLER DUP6 PUSH2 0x3B55 JUMP JUMPDEST POP ADD PUSH2 0x100 PUSH2 0xFF00 NOT DUP3 SLOAD AND OR SWAP1 SSTORE PUSH1 0x40 MLOAD PUSH1 0x40 DUP2 MSTORE PUSH1 0x5 PUSH1 0x40 DUP3 ADD MSTORE PUSH5 0x14DD185B99 PUSH1 0xDA SHL PUSH1 0x60 DUP3 ADD MSTORE PUSH0 PUSH1 0x20 DUP3 ADD MSTORE DUP2 PUSH0 MLOAD PUSH1 0x20 PUSH2 0x47CB PUSH0 CODECOPY PUSH0 MLOAD SWAP1 PUSH0 MSTORE PUSH1 0x80 CALLER SWAP4 LOG3 CALLER DUP2 PUSH32 0x3DE674CF1533EE6EEABC1D725B845B7D34879D2B61EA70C982CE01B4A73EF43 PUSH0 DUP1 LOG3 PUSH2 0x3E2D JUMP JUMPDEST POP PUSH0 SLOAD DUP2 GT ISZERO PUSH2 0xB64 JUMP JUMPDEST CALLVALUE PUSH2 0x2BF JUMPI PUSH0 CALLDATASIZE PUSH1 0x3 NOT ADD SLT PUSH2 0x2BF JUMPI PUSH1 0x2 SLOAD PUSH1 0x40 MLOAD PUSH1 0x8 SWAP2 SWAP1 SWAP2 SHR PUSH1 0x1 PUSH1 0x1 PUSH1 0xA0 SHL SUB AND DUP2 MSTORE PUSH1 0x20 SWAP1 RETURN JUMPDEST CALLVALUE PUSH2 0x2BF JUMPI PUSH0 CALLDATASIZE PUSH1 0x3 NOT ADD SLT PUSH2 0x2BF JUMPI PUSH1 0x2 SLOAD PUSH2 0xCEF CALLER PUSH1 0x8 DUP4 SWAP1 SHR PUSH1 0x1 PUSH1 0x1 PUSH1 0xA0 SHL SUB AND EQ PUSH2 0x3917 JUMP JUMPDEST PUSH1 0xFF PUSH1 0xA8 SHL NOT AND PUSH1 0x1 PUSH1 0xA8 SHL OR PUSH1 0x2 SSTORE STOP JUMPDEST CALLVALUE PUSH2 0x2BF JUMPI PUSH1 0x20 CALLDATASIZE PUSH1 0x3 NOT ADD SLT PUSH2 0x2BF JUMPI PUSH1 0x4 CALLDATALOAD DUP1 ISZERO ISZERO DUP1 PUSH2 0xDFF JUMPI JUMPDEST PUSH2 0xD27 SWAP1 PUSH2 0x2D95 JUMP JUMPDEST CALLER PUSH0 MSTORE PUSH1 0x1 PUSH1 0x20 MSTORE PUSH2 0xD3E DUP2 PUSH1 0x40 PUSH0 KECCAK256 SLOAD EQ PUSH2 0x2DD8 JUMP JUMPDEST PUSH2 0xD47 DUP2 PUSH2 0x3B20 JUMP JUMPDEST PUSH1 0xFF PUSH1 0x6 DUP3 ADD SLOAD PUSH1 0x8 SHR AND PUSH1 0x6 DUP2 LT ISZERO PUSH2 0x568 JUMPI PUSH1 0x2 SUB PUSH2 0xDBA JUMPI PUSH1 0x7 ADD SWAP1 PUSH0 JUMPDEST DUP3 SLOAD DUP2 LT ISZERO PUSH2 0xDB1 JUMPI DUP1 PUSH1 0xFF PUSH1 0x4 PUSH2 0xD82 PUSH1 0x1 SWAP5 DUP8 PUSH2 0x2E24 JUMP JUMPDEST POP ADD SLOAD AND PUSH2 0xD91 JUMPI JUMPDEST ADD PUSH2 0xD68 JUMP JUMPDEST PUSH1 0x4 PUSH2 0xD9D DUP3 DUP7 PUSH2 0x2E24 JUMP JUMPDEST POP ADD DUP1 SLOAD PUSH2 0xFF00 NOT AND PUSH2 0x100 OR SWAP1 SSTORE PUSH2 0xD8B JUMP JUMPDEST PUSH2 0x503 DUP3 PUSH2 0x3F81 JUMP JUMPDEST PUSH1 0x40 MLOAD PUSH3 0x461BCD PUSH1 0xE5 SHL DUP2 MSTORE PUSH1 0x20 PUSH1 0x4 DUP3 ADD MSTORE PUSH1 0x19 PUSH1 0x24 DUP3 ADD MSTORE PUSH32 0x4E6F7420696E20706C61796572207475726E7320706861736500000000000000 PUSH1 0x44 DUP3 ADD MSTORE PUSH1 0x64 SWAP1 REVERT JUMPDEST POP PUSH0 SLOAD DUP2 GT ISZERO PUSH2 0xD1E JUMP JUMPDEST CALLVALUE PUSH2 0x2BF JUMPI PUSH1 0x20 CALLDATASIZE PUSH1 0x3 NOT ADD SLT PUSH2 0x2BF JUMPI PUSH1 0x4 CALLDATALOAD PUSH0 SLOAD DUP2 LT ISZERO PUSH2 0x2BF JUMPI PUSH2 0xE30 SWAP1 PUSH2 0x2BDB JUMP JUMPDEST POP DUP1 SLOAD PUSH1 0xFF PUSH1 0x1 DUP4 ADD SLOAD AND SWAP2 PUSH2 0xEB0 PUSH1 0x2 DUP3 ADD SLOAD SWAP2 PUSH2 0xE9D PUSH1 0x3 DUP3 ADD SLOAD PUSH1 0x6 DUP4 ADD SLOAD SWAP1 PUSH1 0xA PUSH2 0xE61 PUSH1 0x8 DUP7 ADD PUSH2 0x2C90 JUMP JUMPDEST SWAP5 ADD SLOAD SWAP6 PUSH2 0xE7A PUSH1 0x40 MLOAD SWAP10 DUP11 SWAP10 DUP11 MSTORE PUSH1 0x20 DUP11 ADD SWAP1 PUSH2 0x2886 JUMP JUMPDEST PUSH1 0x40 DUP9 ADD MSTORE PUSH1 0x60 DUP8 ADD MSTORE PUSH1 0xFF DUP2 AND PUSH1 0x80 DUP8 ADD MSTORE PUSH1 0xFF PUSH1 0xA0 DUP8 ADD SWAP2 PUSH1 0x8 SHR AND PUSH2 0x2893 JUMP JUMPDEST PUSH2 0x100 PUSH1 0xC0 DUP6 ADD MSTORE PUSH2 0x100 DUP5 ADD SWAP1 PUSH2 0x2998 JUMP JUMPDEST SWAP1 PUSH1 0xE0 DUP4 ADD MSTORE SUB SWAP1 RETURN JUMPDEST CALLVALUE PUSH2 0x2BF JUMPI PUSH1 0x20 CALLDATASIZE PUSH1 0x3 NOT ADD SLT PUSH2 0x2BF JUMPI PUSH1 0x20 PUSH2 0xED8 PUSH1 0x4 CALLDATALOAD PUSH2 0x3950 JUMP JUMPDEST PUSH1 0x40 MLOAD PUSH1 0x1 PUSH1 0x1 PUSH1 0xA0 SHL SUB SWAP1 SWAP2 AND DUP2 MSTORE RETURN JUMPDEST CALLVALUE PUSH2 0x2BF JUMPI PUSH0 CALLDATASIZE PUSH1 0x3 NOT ADD SLT PUSH2 0x2BF JUMPI PUSH1 0x20 PUSH1 0x40 MLOAD PUSH1 0x1E DUP2 MSTORE RETURN JUMPDEST CALLVALUE PUSH2 0x2BF JUMPI PUSH0 CALLDATASIZE PUSH1 0x3 NOT ADD SLT PUSH2 0x2BF JUMPI PUSH1 0x20 PUSH1 0xFF PUSH1 0x2 SLOAD PUSH1 0xA8 SHR AND PUSH1 0x40 MLOAD SWAP1 ISZERO ISZERO DUP2 MSTORE RETURN JUMPDEST CALLVALUE PUSH2 0x2BF JUMPI PUSH1 0x20 CALLDATASIZE PUSH1 0x3 NOT ADD SLT PUSH2 0x2BF JUMPI PUSH1 0x4 CALLDATALOAD DUP1 ISZERO ISZERO DUP1 PUSH2 0x1125 JUMPI JUMPDEST PUSH2 0xF50 SWAP1 PUSH2 0x2D95 JUMP JUMPDEST CALLER PUSH0 MSTORE PUSH1 0x1 PUSH1 0x20 MSTORE PUSH2 0xF67 DUP2 PUSH1 0x40 PUSH0 KECCAK256 SLOAD EQ PUSH2 0x2DD8 JUMP JUMPDEST PUSH1 0x1 PUSH1 0x2 SLOAD PUSH2 0xF79 PUSH1 0xFF DUP3 AND ISZERO PUSH2 0x2CFB JUMP JUMPDEST PUSH1 0xFF NOT AND OR PUSH1 0x2 SSTORE PUSH2 0xF8A DUP2 PUSH2 0x3B20 JUMP JUMPDEST SWAP1 PUSH1 0x6 DUP3 ADD PUSH1 0xFF DUP2 SLOAD PUSH1 0x8 SHR AND PUSH1 0x6 DUP2 LT ISZERO PUSH2 0x568 JUMPI PUSH2 0x10D5 JUMPI PUSH2 0xFAE CALLER DUP4 PUSH2 0x3B55 JUMP JUMPDEST SWAP3 PUSH1 0x7 DUP2 ADD SWAP4 PUSH1 0x1 PUSH2 0xFC0 DUP3 DUP8 PUSH2 0x2E24 JUMP JUMPDEST POP ADD SLOAD DUP1 ISZERO PUSH2 0x1099 JUMPI CALLER PUSH0 MSTORE PUSH1 0x4 PUSH1 0x20 MSTORE PUSH2 0xFE0 PUSH1 0x40 PUSH0 KECCAK256 SWAP2 DUP3 SLOAD PUSH2 0x2E3D JUMP JUMPDEST SWAP1 SSTORE JUMPDEST DUP5 SLOAD PUSH0 NOT DUP2 ADD SWAP1 DUP2 GT PUSH2 0x505 JUMPI DUP2 LT ISZERO PUSH2 0x1029 JUMPI PUSH1 0x1 DUP2 ADD SWAP1 DUP2 DUP2 GT PUSH2 0x505 JUMPI PUSH2 0x1023 PUSH2 0x1012 PUSH1 0x1 SWAP4 DUP9 PUSH2 0x2E24 JUMP JUMPDEST POP PUSH2 0x101D DUP4 DUP10 PUSH2 0x2E24 JUMP JUMPDEST SWAP1 PUSH2 0x2F30 JUMP JUMPDEST ADD PUSH2 0xFE3 JUMP JUMPDEST POP PUSH1 0x2 DUP5 DUP5 PUSH2 0x1037 DUP3 PUSH2 0x2FC8 JUMP JUMPDEST CALLER PUSH0 MSTORE PUSH1 0x1 PUSH1 0x20 MSTORE PUSH0 PUSH1 0x40 DUP2 KECCAK256 SSTORE CALLER SWAP1 PUSH32 0xB2BD643202385C64D9814C6C3FA61B1BA098D6652292E9D9A6F1A0CDAE6EB824 PUSH0 DUP1 LOG3 SLOAD LT PUSH2 0x107E JUMPI JUMPDEST PUSH1 0x2 DUP1 SLOAD PUSH1 0xFF NOT AND SWAP1 SSTORE STOP JUMPDEST PUSH1 0x1 ADD DUP1 SLOAD PUSH1 0xFF NOT AND SWAP1 SSTORE DUP1 SLOAD PUSH2 0xFF00 NOT AND SWAP1 SSTORE DUP1 DUP1 PUSH2 0x1072 JUMP JUMPDEST PUSH1 0x40 MLOAD PUSH3 0x461BCD PUSH1 0xE5 SHL DUP2 MSTORE PUSH1 0x20 PUSH1 0x4 DUP3 ADD MSTORE PUSH1 0x14 PUSH1 0x24 DUP3 ADD MSTORE PUSH20 0x139BC818DA1A5C1CC81D1BC818D85CDA081BDD5D PUSH1 0x62 SHL PUSH1 0x44 DUP3 ADD MSTORE PUSH1 0x64 SWAP1 REVERT JUMPDEST PUSH1 0x40 MLOAD PUSH3 0x461BCD PUSH1 0xE5 SHL DUP2 MSTORE PUSH1 0x20 PUSH1 0x4 DUP3 ADD MSTORE PUSH1 0x22 PUSH1 0x24 DUP3 ADD MSTORE PUSH32 0x43616E6E6F742063617368206F757420647572696E6720616374697665206861 PUSH1 0x44 DUP3 ADD MSTORE PUSH2 0x1B99 PUSH1 0xF2 SHL PUSH1 0x64 DUP3 ADD MSTORE PUSH1 0x84 SWAP1 REVERT JUMPDEST POP PUSH0 SLOAD DUP2 GT ISZERO PUSH2 0xF47 JUMP JUMPDEST CALLVALUE PUSH2 0x2BF JUMPI PUSH1 0x20 CALLDATASIZE PUSH1 0x3 NOT ADD SLT PUSH2 0x2BF JUMPI PUSH1 0x80 PUSH1 0x1 PUSH1 0x1 PUSH1 0xA0 SHL SUB PUSH2 0x1153 PUSH2 0x285A JUMP JUMPDEST AND PUSH0 SWAP1 DUP2 MSTORE PUSH1 0x4 PUSH1 0x20 SWAP1 DUP2 MSTORE PUSH1 0x40 DUP1 DUP4 KECCAK256 SLOAD PUSH1 0x1 DUP1 DUP5 MSTORE DUP3 DUP6 KECCAK256 SLOAD PUSH1 0x3 DUP6 MSTORE SWAP5 DUP4 SWAP1 KECCAK256 SLOAD SWAP1 DUP5 MSTORE DUP3 MLOAD SWAP2 DUP3 MSTORE SWAP3 DUP2 ADD DUP5 SWAP1 MSTORE PUSH1 0xFF SWAP1 SWAP3 AND ISZERO ISZERO SWAP1 DUP3 ADD MSTORE SWAP1 ISZERO ISZERO PUSH1 0x60 DUP3 ADD MSTORE RETURN JUMPDEST CALLVALUE PUSH2 0x2BF JUMPI PUSH1 0x20 PUSH2 0x11AD PUSH2 0x4BB CALLDATASIZE PUSH2 0x2B2B JUMP JUMPDEST PUSH1 0x40 MLOAD SWAP1 DUP2 MSTORE RETURN JUMPDEST CALLVALUE PUSH2 0x2BF JUMPI PUSH1 0x20 CALLDATASIZE PUSH1 0x3 NOT ADD SLT PUSH2 0x2BF JUMPI PUSH1 0x4 CALLDATALOAD PUSH6 0x9184E72A000 DUP2 MUL SWAP1 DUP1 DUP3 DIV PUSH6 0x9184E72A000 EQ SWAP1 ISZERO OR ISZERO PUSH2 0x505 JUMPI PUSH1 0x20 SWAP1 PUSH6 0x9184E72A000 PUSH1 0x40 MLOAD SWAP2 DIV DUP2 MSTORE RETURN JUMPDEST CALLVALUE PUSH2 0x2BF JUMPI PUSH2 0x1207 CALLDATASIZE PUSH2 0x2A78 JUMP JUMPDEST DUP2 ISZERO ISZERO DUP1 PUSH2 0x187A JUMPI JUMPDEST PUSH2 0x1219 SWAP1 PUSH2 0x2D95 JUMP JUMPDEST CALLER PUSH0 MSTORE PUSH1 0x1 PUSH1 0x20 MSTORE PUSH2 0x1230 DUP3 PUSH1 0x40 PUSH0 KECCAK256 SLOAD EQ PUSH2 0x2DD8 JUMP JUMPDEST PUSH2 0x1239 DUP3 PUSH2 0x3B20 JUMP JUMPDEST SWAP1 PUSH1 0xFF PUSH1 0x6 DUP4 ADD SLOAD PUSH1 0x8 SHR AND PUSH1 0x6 DUP2 LT ISZERO PUSH2 0x568 JUMPI PUSH2 0x183E JUMPI PUSH2 0x126B PUSH1 0x7 PUSH2 0x1260 DUP6 PUSH2 0x3B20 JUMP JUMPDEST ADD PUSH2 0x3F7 CALLER DUP7 PUSH2 0x3B55 JUMP JUMPDEST POP SWAP1 PUSH1 0x2 DUP4 ADD SWAP2 DUP3 SLOAD DUP3 LT ISZERO DUP1 PUSH2 0x1830 JUMPI JUMPDEST ISZERO PUSH2 0x17F6 JUMPI DUP1 DUP3 PUSH1 0x2 PUSH1 0x4 SWAP4 ADD SSTORE PUSH1 0x1 DUP2 ADD PUSH2 0x129A DUP5 DUP3 SLOAD PUSH2 0x2D88 JUMP JUMPDEST SWAP1 SSTORE ADD PUSH2 0x101 PUSH2 0xFFFF NOT DUP3 SLOAD AND OR SWAP1 SSTORE PUSH1 0x40 MLOAD PUSH1 0x40 DUP2 MSTORE PUSH1 0x3 PUSH1 0x40 DUP3 ADD MSTORE PUSH3 0x10995D PUSH1 0xEA SHL PUSH1 0x60 DUP3 ADD MSTORE DUP2 PUSH1 0x20 DUP3 ADD MSTORE DUP5 PUSH0 MLOAD PUSH1 0x20 PUSH2 0x47CB PUSH0 CODECOPY PUSH0 MLOAD SWAP1 PUSH0 MSTORE PUSH1 0x80 CALLER SWAP4 LOG3 PUSH1 0x40 MLOAD SWAP1 DUP2 MSTORE DUP4 PUSH32 0x87B9DF6FA7123C2E6044C3A3A37B4B0662C188D7A58EF86EE55067C46E4613AD PUSH1 0x20 CALLER SWAP4 LOG3 PUSH0 PUSH0 SWAP3 PUSH1 0x7 PUSH0 SWAP2 ADD SWAP3 DUP4 SLOAD SWAP4 JUMPDEST DUP5 DUP4 LT PUSH2 0x1759 JUMPI POP POP POP ISZERO ISZERO SWAP2 DUP3 PUSH2 0x173C JUMPI JUMPDEST POP POP PUSH2 0x1333 JUMPI STOP JUMPDEST PUSH2 0x133C DUP2 PUSH2 0x3B20 JUMP JUMPDEST PUSH1 0x1 DUP1 DUP3 ADD DUP1 SLOAD PUSH1 0xFF NOT AND SWAP1 SWAP2 OR SWAP1 SSTORE PUSH1 0x6 DUP2 ADD DUP1 SLOAD PUSH2 0xFFFF NOT AND PUSH2 0x100 OR DUP2 SSTORE SWAP1 SWAP2 PUSH2 0x1368 DUP2 PUSH2 0x3B20 JUMP JUMPDEST PUSH1 0x4 ADD SWAP2 PUSH0 JUMPDEST PUSH1 0xFF DUP2 AND PUSH1 0x34 DUP2 LT ISZERO PUSH2 0x13BE JUMPI PUSH1 0x1 ADD PUSH1 0xFF DUP2 GT PUSH2 0x505 JUMPI DUP2 PUSH1 0x1 SWAP2 PUSH2 0x13B5 PUSH1 0xFF PUSH2 0x139A DUP2 SWAP7 DUP11 PUSH2 0x3CDE JUMP JUMPDEST SWAP2 SWAP1 SWAP4 AND SWAP1 DUP4 SLOAD SWAP1 PUSH1 0xFF DUP1 SWAP2 PUSH1 0x3 SHL SWAP4 AND DUP4 SHL SWAP3 SHL NOT AND OR SWAP1 JUMP JUMPDEST SWAP1 SSTORE ADD AND PUSH2 0x136E JUMP JUMPDEST POP POP SWAP3 SWAP2 PUSH1 0x40 MLOAD PUSH1 0x20 DUP2 ADD SWAP1 TIMESTAMP DUP3 MSTORE PREVRANDAO PUSH1 0x40 DUP3 ADD MSTORE CALLER PUSH1 0x60 SHL PUSH1 0x60 DUP3 ADD MSTORE PUSH1 0x54 DUP2 MSTORE PUSH2 0x13EB PUSH1 0x74 DUP3 PUSH2 0x2AE3 JUMP JUMPDEST MLOAD SWAP1 KECCAK256 PUSH0 JUMPDEST PUSH1 0x33 DUP2 LT PUSH2 0x167E JUMPI POP POP POP PUSH1 0x7 DUP3 ADD PUSH0 JUMPDEST DUP2 SLOAD DUP2 LT ISZERO PUSH2 0x14AD JUMPI PUSH2 0x1412 PUSH2 0x3586 JUMP JUMPDEST PUSH1 0x3 PUSH2 0x141E DUP4 DUP6 PUSH2 0x2E24 JUMP JUMPDEST POP ADD PUSH1 0x20 DUP3 MLOAD SWAP3 PUSH2 0x142F DUP5 DUP5 PUSH2 0x2E7A JUMP JUMPDEST ADD SWAP1 PUSH0 MSTORE PUSH1 0x20 PUSH0 KECCAK256 SWAP1 PUSH0 SWAP1 JUMPDEST DUP4 DUP3 LT PUSH2 0x1490 JUMPI POP POP POP POP DUP1 PUSH1 0x4 PUSH2 0x1455 PUSH1 0x1 SWAP4 DUP6 PUSH2 0x2E24 JUMP JUMPDEST POP ADD DUP1 SLOAD PUSH2 0xFF00 NOT AND SWAP1 SSTORE PUSH2 0x147D PUSH2 0x146D DUP3 DUP6 PUSH2 0x2E24 JUMP JUMPDEST POP DUP4 DUP1 PUSH1 0xA0 SHL SUB SWAP1 SLOAD AND DUP6 PUSH2 0x3D35 JUMP JUMPDEST PUSH2 0x148A PUSH2 0x146D DUP3 DUP6 PUSH2 0x2E24 JUMP JUMPDEST ADD PUSH2 0x1401 JUMP JUMPDEST PUSH1 0x1 PUSH1 0x20 DUP3 PUSH2 0x14A1 DUP4 SWAP5 MLOAD DUP8 PUSH2 0x35CB JUMP JUMPDEST ADD SWAP4 ADD SWAP2 ADD SWAP1 SWAP2 PUSH2 0x143B JUMP JUMPDEST POP POP SWAP1 PUSH1 0x8 PUSH2 0x14BA PUSH2 0x3586 JUMP JUMPDEST SWAP2 ADD PUSH1 0x20 DUP3 MLOAD SWAP3 PUSH2 0x14CB DUP5 DUP5 PUSH2 0x2E7A JUMP JUMPDEST ADD SWAP1 PUSH0 MSTORE PUSH1 0x20 PUSH0 KECCAK256 PUSH0 SWAP2 JUMPDEST DUP4 DUP4 LT PUSH2 0x1661 JUMPI POP POP POP POP SWAP1 PUSH2 0x14EB DUP3 PUSH2 0x4745 JUMP JUMPDEST PUSH2 0x14F4 DUP3 PUSH2 0x4745 JUMP JUMPDEST PUSH2 0x14FD DUP3 PUSH2 0x3B20 JUMP JUMPDEST SWAP2 PUSH2 0x150D PUSH2 0x313 PUSH1 0x8 DUP6 ADD PUSH2 0x2C27 JUMP JUMPDEST PUSH1 0x7 DUP5 ADD SWAP4 PUSH0 SWAP4 SWAP2 DUP5 DUP1 JUMPDEST DUP8 SLOAD DUP2 LT ISZERO PUSH2 0x1593 JUMPI PUSH1 0xFF PUSH1 0x4 PUSH2 0x152F DUP4 DUP12 PUSH2 0x2E24 JUMP JUMPDEST POP ADD SLOAD AND PUSH2 0x1540 JUMPI JUMPDEST PUSH1 0x1 ADD PUSH2 0x1518 JUMP JUMPDEST SWAP1 PUSH2 0x155A PUSH2 0x313 PUSH1 0x3 PUSH2 0x1553 DUP6 DUP13 PUSH2 0x2E24 JUMP JUMPDEST POP ADD PUSH2 0x2C27 JUMP JUMPDEST ISZERO PUSH2 0x1587 JUMPI POP PUSH1 0x1 DUP1 SWAP2 PUSH1 0x4 PUSH2 0x1570 DUP3 DUP12 PUSH2 0x2E24 JUMP JUMPDEST POP ADD DUP1 SLOAD PUSH2 0xFF00 NOT AND PUSH2 0x100 OR SWAP1 SSTORE JUMPDEST SWAP1 POP PUSH2 0x1538 JUMP JUMPDEST SWAP1 SWAP6 POP PUSH1 0x1 DUP1 SWAP7 PUSH2 0x1580 JUMP JUMPDEST POP SWAP2 SWAP4 SWAP6 POP SWAP2 SWAP4 DUP3 ISZERO PUSH2 0x1647 JUMPI JUMPDEST POP POP PUSH2 0x1628 JUMPI JUMPDEST POP PUSH1 0xFF DUP2 SLOAD PUSH1 0x8 SHR AND PUSH1 0x6 DUP2 LT ISZERO PUSH2 0x568 JUMPI PUSH1 0x1 EQ PUSH2 0x15E9 JUMPI JUMPDEST POP PUSH32 0x17EF9D3684374CA660F2D6B5A52C09C0C1C6144B13C23FF3681FB0A9BA9FE4C3 PUSH0 DUP1 LOG2 STOP JUMPDEST PUSH2 0x200 PUSH2 0xFF00 NOT DUP3 SLOAD AND OR SWAP1 SSTORE DUP1 PUSH32 0x70ECA82567B065893A5E6CC590178B6B320855676B6A9A066625933E0C8EBE58 PUSH1 0x20 PUSH1 0x40 MLOAD PUSH1 0x2 DUP2 MSTORE LOG2 DUP2 PUSH2 0x15C2 JUMP JUMPDEST PUSH1 0x6 ADD DUP1 SLOAD PUSH2 0xFF00 NOT AND PUSH2 0x300 OR SWAP1 SSTORE PUSH2 0x1641 DUP3 PUSH2 0x3F81 JUMP JUMPDEST DUP3 PUSH2 0x15A8 JUMP JUMPDEST SWAP1 SWAP2 POP DUP2 PUSH2 0x1658 JUMPI JUMPDEST POP DUP5 DUP1 PUSH2 0x15A1 JUMP JUMPDEST SWAP1 POP ISZERO DUP5 PUSH2 0x1650 JUMP JUMPDEST PUSH1 0x1 PUSH1 0x20 DUP3 PUSH2 0x1672 DUP4 SWAP5 MLOAD DUP7 PUSH2 0x35CB JUMP JUMPDEST ADD SWAP3 ADD SWAP3 ADD SWAP2 SWAP1 PUSH2 0x14D6 JUMP JUMPDEST PUSH2 0x1688 DUP2 DUP4 PUSH2 0x2E3D JUMP JUMPDEST SWAP1 DUP1 PUSH1 0x34 SUB SWAP2 PUSH1 0x34 DUP4 GT PUSH2 0x505 JUMPI DUP2 PUSH1 0x34 EQ PUSH2 0x1728 JUMPI PUSH1 0x1 SWAP3 PUSH2 0x16AC SWAP2 MOD DUP3 PUSH2 0x2E3D JUMP JUMPDEST PUSH2 0x1720 PUSH1 0xFF PUSH2 0x16BB DUP4 DUP9 PUSH2 0x3CDE JUMP JUMPDEST SWAP1 SLOAD SWAP1 PUSH1 0x3 SHL SHR AND PUSH2 0x16F0 PUSH1 0xFF PUSH2 0x16D2 DUP7 DUP11 PUSH2 0x3CDE JUMP JUMPDEST SWAP1 SLOAD SWAP1 PUSH1 0x3 SHL SHR AND PUSH2 0x1708 PUSH2 0x16E7 DUP8 DUP12 PUSH2 0x3CDE JUMP JUMPDEST SWAP4 SWAP1 SWAP7 DUP12 PUSH2 0x3CDE JUMP JUMPDEST DUP2 SWAP4 SWAP2 SLOAD SWAP1 PUSH1 0xFF DUP1 SWAP2 PUSH1 0x3 SHL SWAP4 AND DUP4 SHL SWAP3 SHL NOT AND OR SWAP1 JUMP JUMPDEST SWAP1 SSTORE DUP4 SLOAD SWAP1 PUSH1 0xFF DUP1 SWAP2 PUSH1 0x3 SHL SWAP4 AND DUP4 SHL SWAP3 SHL NOT AND OR SWAP1 JUMP JUMPDEST SWAP1 SSTORE ADD PUSH2 0x13F0 JUMP JUMPDEST PUSH4 0x4E487B71 PUSH1 0xE0 SHL PUSH0 MSTORE PUSH1 0x12 PUSH1 0x4 MSTORE PUSH1 0x24 PUSH0 REVERT JUMPDEST ISZERO SWAP2 POP DUP2 ISZERO PUSH2 0x174E JUMPI JUMPDEST POP DUP3 DUP1 PUSH2 0x132B JUMP JUMPDEST PUSH1 0x1 SWAP2 POP EQ DUP3 PUSH2 0x1746 JUMP JUMPDEST SWAP1 SWAP2 SWAP3 PUSH1 0xFF PUSH1 0x4 PUSH2 0x176A DUP7 DUP6 PUSH2 0x2E24 JUMP JUMPDEST POP ADD SLOAD AND DUP1 PUSH2 0x17DF JUMPI JUMPDEST ISZERO PUSH2 0x178E JUMPI PUSH2 0x1784 PUSH1 0x1 SWAP2 PUSH2 0x378C JUMP JUMPDEST SWAP4 JUMPDEST ADD SWAP2 SWAP1 PUSH2 0x1318 JUMP JUMPDEST SWAP3 PUSH1 0x1 PUSH2 0x179B DUP3 DUP5 PUSH2 0x2E24 JUMP JUMPDEST POP ADD SLOAD DUP4 SLOAD GT ISZERO DUP1 PUSH2 0x17C9 JUMPI JUMPDEST PUSH2 0x17B5 JUMPI JUMPDEST PUSH1 0x1 SWAP1 PUSH2 0x1786 JUMP JUMPDEST SWAP5 PUSH2 0x17C1 PUSH1 0x1 SWAP2 PUSH2 0x378C JUMP JUMPDEST SWAP6 SWAP1 POP PUSH2 0x17AD JUMP JUMPDEST POP PUSH1 0x2 PUSH2 0x17D6 DUP3 DUP5 PUSH2 0x2E24 JUMP JUMPDEST POP ADD SLOAD ISZERO PUSH2 0x17A8 JUMP JUMPDEST POP PUSH1 0x2 PUSH2 0x17EC DUP6 DUP5 PUSH2 0x2E24 JUMP JUMPDEST POP ADD SLOAD ISZERO ISZERO PUSH2 0x1774 JUMP JUMPDEST PUSH1 0x40 MLOAD PUSH3 0x461BCD PUSH1 0xE5 SHL DUP2 MSTORE PUSH1 0x20 PUSH1 0x4 DUP3 ADD MSTORE PUSH1 0x12 PUSH1 0x24 DUP3 ADD MSTORE PUSH18 0x125B9D985B1A590818995D08185B5BDD5B9D PUSH1 0x72 SHL PUSH1 0x44 DUP3 ADD MSTORE PUSH1 0x64 SWAP1 REVERT JUMPDEST POP PUSH1 0x1 DUP2 ADD SLOAD DUP3 GT ISZERO PUSH2 0x127D JUMP JUMPDEST PUSH1 0x40 MLOAD PUSH3 0x461BCD PUSH1 0xE5 SHL DUP2 MSTORE PUSH1 0x20 PUSH1 0x4 DUP3 ADD MSTORE PUSH1 0x14 PUSH1 0x24 DUP3 ADD MSTORE PUSH20 0x43616E6E6F7420706C61636520626574206E6F77 PUSH1 0x60 SHL PUSH1 0x44 DUP3 ADD MSTORE PUSH1 0x64 SWAP1 REVERT JUMPDEST POP PUSH0 SLOAD DUP3 GT ISZERO PUSH2 0x1210 JUMP JUMPDEST CALLVALUE PUSH2 0x2BF JUMPI PUSH0 CALLDATASIZE PUSH1 0x3 NOT ADD SLT PUSH2 0x2BF JUMPI PUSH1 0x20 PUSH1 0x40 MLOAD PUSH1 0x7 DUP2 MSTORE RETURN JUMPDEST CALLVALUE PUSH2 0x2BF JUMPI PUSH0 CALLDATASIZE PUSH1 0x3 NOT ADD SLT PUSH2 0x2BF JUMPI PUSH1 0x20 PUSH1 0x40 MLOAD PUSH1 0xA DUP2 MSTORE RETURN JUMPDEST CALLVALUE PUSH2 0x2BF JUMPI PUSH0 CALLDATASIZE PUSH1 0x3 NOT ADD SLT PUSH2 0x2BF JUMPI PUSH1 0x2 SLOAD PUSH2 0x18E6 CALLER PUSH1 0x8 DUP4 SWAP1 SHR PUSH1 0x1 PUSH1 0x1 PUSH1 0xA0 SHL SUB AND EQ PUSH2 0x3917 JUMP JUMPDEST PUSH1 0xFF PUSH1 0xA8 SHL NOT AND PUSH1 0x2 SSTORE STOP JUMPDEST CALLVALUE PUSH2 0x2BF JUMPI PUSH1 0x20 CALLDATASIZE PUSH1 0x3 NOT ADD SLT PUSH2 0x2BF JUMPI PUSH1 0x4 CALLDATALOAD PUSH2 0x190E PUSH2 0x36B1 JUMP JUMPDEST POP DUP1 ISZERO ISZERO DUP1 PUSH2 0x1958 JUMPI JUMPDEST PUSH2 0x1921 SWAP1 PUSH2 0x2D95 JUMP JUMPDEST PUSH0 NOT DUP2 ADD SWAP1 DUP2 GT PUSH2 0x505 JUMPI PUSH2 0x1944 PUSH1 0x8 PUSH2 0x193D PUSH2 0x788 SWAP4 PUSH2 0x2BDB JUMP JUMPDEST POP ADD PUSH2 0x2C90 JUMP JUMPDEST PUSH1 0x40 MLOAD SWAP2 DUP3 SWAP2 PUSH1 0x20 DUP4 MSTORE PUSH1 0x20 DUP4 ADD SWAP1 PUSH2 0x2998 JUMP JUMPDEST POP PUSH0 SLOAD DUP2 GT ISZERO PUSH2 0x1918 JUMP JUMPDEST CALLVALUE PUSH2 0x2BF JUMPI PUSH0 CALLDATASIZE PUSH1 0x3 NOT ADD SLT PUSH2 0x2BF JUMPI PUSH1 0x40 DUP1 MLOAD PUSH4 0x5F5E100 DUP2 MSTORE PUSH6 0x9184E72A000 PUSH1 0x20 DUP3 ADD MSTORE RETURN JUMPDEST CALLVALUE PUSH2 0x2BF JUMPI PUSH1 0x40 CALLDATASIZE PUSH1 0x3 NOT ADD SLT PUSH2 0x2BF JUMPI PUSH1 0x20 PUSH2 0x318 PUSH2 0x19AA PUSH2 0x2870 JUMP JUMPDEST PUSH1 0x4 CALLDATALOAD PUSH2 0x37B9 JUMP JUMPDEST CALLVALUE PUSH2 0x2BF JUMPI PUSH1 0x20 CALLDATASIZE PUSH1 0x3 NOT ADD SLT PUSH2 0x2BF JUMPI PUSH1 0x4 CALLDATALOAD DUP1 ISZERO ISZERO DUP1 PUSH2 0x1B87 JUMPI JUMPDEST PUSH2 0x19D8 SWAP1 PUSH2 0x2D95 JUMP JUMPDEST PUSH0 NOT DUP2 ADD DUP2 DUP2 GT PUSH2 0x505 JUMPI PUSH2 0x19EC SWAP1 PUSH2 0x2BDB JUMP JUMPDEST POP PUSH0 PUSH0 PUSH1 0x7 DUP4 ADD DUP1 SLOAD SWAP2 JUMPDEST DUP3 DUP2 LT PUSH2 0x1B54 JUMPI POP POP PUSH0 PUSH1 0xFF PUSH1 0x1 DUP6 ADD SLOAD AND SWAP4 PUSH1 0x3 DUP6 LT ISZERO PUSH2 0x568 JUMPI PUSH1 0x1 DUP6 EQ DUP1 PUSH2 0x1B37 JUMPI JUMPDEST PUSH2 0x1B2E JUMPI JUMPDEST PUSH1 0x6 PUSH1 0xFF SWAP2 ADD SLOAD PUSH1 0x8 SHR AND SWAP3 PUSH1 0x6 DUP5 LT ISZERO PUSH2 0x568 JUMPI PUSH1 0x40 MLOAD PUSH4 0x382E3279 PUSH1 0xE1 SHL DUP2 MSTORE PUSH1 0x4 DUP2 ADD DUP8 SWAP1 MSTORE SWAP3 PUSH1 0x20 DUP5 PUSH1 0x24 DUP2 ADDRESS GAS STATICCALL SWAP4 DUP5 ISZERO PUSH2 0x89B JUMPI PUSH0 SWAP5 PUSH2 0x1B0D JUMPI JUMPDEST POP PUSH1 0x40 MLOAD SWAP7 PUSH4 0x74481D3 PUSH1 0xE3 SHL DUP9 MSTORE PUSH1 0x4 DUP9 ADD MSTORE CALLER PUSH1 0x24 DUP9 ADD MSTORE PUSH1 0x20 DUP8 PUSH1 0x44 DUP2 ADDRESS GAS STATICCALL SWAP5 DUP6 ISZERO PUSH2 0x89B JUMPI PUSH0 SWAP6 PUSH2 0x1ACD JUMPI JUMPDEST PUSH1 0x40 DUP1 MLOAD SWAP8 DUP9 MSTORE PUSH1 0x20 DUP9 ADD SWAP2 SWAP1 SWAP2 MSTORE DUP7 ADD MSTORE PUSH1 0x60 DUP6 ADD MSTORE ISZERO ISZERO PUSH1 0x80 DUP5 ADD MSTORE PUSH1 0x1 PUSH1 0x1 PUSH1 0xA0 SHL SUB AND PUSH1 0xA0 DUP4 ADD MSTORE ISZERO ISZERO PUSH1 0xC0 DUP3 ADD MSTORE PUSH1 0xE0 SWAP2 POP RETURN JUMPDEST SWAP5 POP SWAP6 PUSH1 0x20 DUP2 RETURNDATASIZE PUSH1 0x20 GT PUSH2 0x1B05 JUMPI JUMPDEST DUP2 PUSH2 0x1AE9 PUSH1 0x20 SWAP4 DUP4 PUSH2 0x2AE3 JUMP JUMPDEST DUP2 ADD SUB SLT PUSH2 0x2BF JUMPI MLOAD SWAP6 DUP7 ISZERO ISZERO DUP8 SUB PUSH2 0x2BF JUMPI PUSH1 0xE0 SWAP7 SWAP5 PUSH2 0x1A94 JUMP JUMPDEST RETURNDATASIZE SWAP2 POP PUSH2 0x1ADC JUMP JUMPDEST PUSH2 0x1B27 SWAP2 SWAP5 POP PUSH1 0x20 RETURNDATASIZE PUSH1 0x20 GT PUSH2 0x894 JUMPI PUSH2 0x885 DUP2 DUP4 PUSH2 0x2AE3 JUMP JUMPDEST SWAP3 DUP8 PUSH2 0x1A63 JUMP JUMPDEST PUSH1 0x1 SWAP2 POP PUSH2 0x1A22 JUMP JUMPDEST POP PUSH1 0xFF PUSH1 0x6 DUP3 ADD SLOAD PUSH1 0x8 SHR AND PUSH1 0x6 DUP2 LT ISZERO PUSH2 0x568 JUMPI PUSH1 0x2 EQ PUSH2 0x1A1D JUMP JUMPDEST PUSH1 0xFF PUSH1 0x4 PUSH2 0x1B62 DUP4 DUP6 PUSH2 0x2E24 JUMP JUMPDEST POP ADD SLOAD AND PUSH2 0x1B73 JUMPI JUMPDEST PUSH1 0x1 ADD PUSH2 0x19F7 JUMP JUMPDEST SWAP3 PUSH2 0x1B7F PUSH1 0x1 SWAP2 PUSH2 0x378C JUMP JUMPDEST SWAP4 SWAP1 POP PUSH2 0x1B6B JUMP JUMPDEST POP PUSH0 SLOAD DUP2 GT ISZERO PUSH2 0x19CF JUMP JUMPDEST CALLVALUE PUSH2 0x2BF JUMPI PUSH1 0x20 CALLDATASIZE PUSH1 0x3 NOT ADD SLT PUSH2 0x2BF JUMPI PUSH1 0x1 PUSH1 0x1 PUSH1 0xA0 SHL SUB PUSH2 0x1BB3 PUSH2 0x285A JUMP JUMPDEST AND PUSH0 MSTORE PUSH1 0x4 PUSH1 0x20 MSTORE PUSH1 0x20 PUSH1 0x40 PUSH0 KECCAK256 SLOAD PUSH1 0x40 MLOAD SWAP1 DUP2 MSTORE RETURN JUMPDEST CALLVALUE PUSH2 0x2BF JUMPI PUSH1 0x20 CALLDATASIZE PUSH1 0x3 NOT ADD SLT PUSH2 0x2BF JUMPI PUSH1 0x4 CALLDATALOAD DUP1 ISZERO ISZERO DUP1 PUSH2 0x1DFE JUMPI JUMPDEST PUSH2 0x1BF0 SWAP1 PUSH2 0x2D95 JUMP JUMPDEST CALLER PUSH0 MSTORE PUSH1 0x1 PUSH1 0x20 MSTORE PUSH2 0x1C07 DUP2 PUSH1 0x40 PUSH0 KECCAK256 SLOAD EQ PUSH2 0x2DD8 JUMP JUMPDEST PUSH2 0x1C10 DUP2 PUSH2 0x3B20 JUMP JUMPDEST PUSH1 0xFF PUSH1 0x1 DUP3 ADD SLOAD AND PUSH1 0x3 DUP2 LT ISZERO PUSH2 0x568 JUMPI PUSH1 0xFF SWAP2 PUSH2 0x1C32 PUSH1 0x1 PUSH1 0x6 SWAP4 EQ PUSH2 0x36CA JUMP JUMPDEST ADD SLOAD PUSH1 0x8 SHR AND PUSH1 0x6 DUP2 LT ISZERO PUSH2 0x568 JUMPI PUSH1 0x2 PUSH2 0x1C4D SWAP2 EQ PUSH2 0x370B JUMP JUMPDEST PUSH2 0x1C59 PUSH2 0x3B1 DUP3 PUSH2 0x3BD3 JUMP JUMPDEST PUSH1 0xFF PUSH1 0x6 PUSH2 0x1C66 DUP4 PUSH2 0x3B20 JUMP JUMPDEST ADD SLOAD PUSH1 0x8 SHR AND PUSH1 0x6 DUP2 LT ISZERO PUSH2 0x568 JUMPI PUSH1 0x2 PUSH2 0x1C81 SWAP2 EQ PUSH2 0x370B JUMP JUMPDEST PUSH2 0x1C8F PUSH1 0x7 PUSH2 0x3EC DUP4 PUSH2 0x3B20 JUMP JUMPDEST POP SWAP1 PUSH1 0x3 DUP3 ADD PUSH1 0x2 DUP2 SLOAD SUB PUSH2 0x1DA9 JUMPI PUSH1 0x1 DUP4 ADD SWAP1 DUP2 SLOAD PUSH1 0x2 DUP6 ADD SWAP3 DUP4 SLOAD SWAP2 DUP3 DUP2 LT PUSH2 0x1D5A JUMPI DUP3 PUSH2 0x1CBE SWAP2 PUSH2 0x2D88 JUMP JUMPDEST SWAP1 SSTORE DUP1 PUSH1 0x1 SHL SWAP1 DUP1 DUP3 DIV PUSH1 0x2 EQ SWAP1 ISZERO OR ISZERO PUSH2 0x505 JUMPI PUSH2 0x4BB PUSH1 0x15 SWAP3 PUSH1 0x4 PUSH2 0x503 SWAP8 PUSH2 0x1D40 SWAP5 DUP8 SSTORE ADD SWAP5 PUSH2 0x100 PUSH2 0xFF00 NOT DUP8 SLOAD AND OR DUP7 SSTORE PUSH2 0x1CFE CALLER DUP9 PUSH2 0x3D35 JUMP JUMPDEST SLOAD PUSH1 0x40 MLOAD SWAP1 PUSH1 0x40 DUP3 MSTORE PUSH1 0xB PUSH1 0x40 DUP4 ADD MSTORE PUSH11 0x2237BAB13632902237BBB7 PUSH1 0xA9 SHL PUSH1 0x60 DUP4 ADD MSTORE PUSH1 0x20 DUP3 ADD MSTORE DUP7 PUSH0 MLOAD PUSH1 0x20 PUSH2 0x47CB PUSH0 CODECOPY PUSH0 MLOAD SWAP1 PUSH0 MSTORE PUSH1 0x80 CALLER SWAP4 LOG3 PUSH2 0x2C27 JUMP JUMPDEST GT PUSH2 0x1D4C JUMPI JUMPDEST POP PUSH2 0x3E2D JUMP JUMPDEST DUP1 SLOAD PUSH1 0xFF NOT AND SWAP1 SSTORE DUP3 PUSH2 0x1D46 JUMP JUMPDEST PUSH1 0x40 MLOAD PUSH3 0x461BCD PUSH1 0xE5 SHL DUP2 MSTORE PUSH1 0x20 PUSH1 0x4 DUP3 ADD MSTORE PUSH1 0x21 PUSH1 0x24 DUP3 ADD MSTORE PUSH32 0x496E73756666696369656E7420636869707320746F20646F75626C6520646F77 PUSH1 0x44 DUP3 ADD MSTORE PUSH1 0x37 PUSH1 0xF9 SHL PUSH1 0x64 DUP3 ADD MSTORE PUSH1 0x84 SWAP1 REVERT JUMPDEST PUSH1 0x40 MLOAD PUSH3 0x461BCD PUSH1 0xE5 SHL DUP2 MSTORE PUSH1 0x20 PUSH1 0x4 DUP3 ADD MSTORE PUSH1 0x27 PUSH1 0x24 DUP3 ADD MSTORE PUSH32 0x43616E206F6E6C7920646F75626C6520646F776E206F6E206669727374207477 PUSH1 0x44 DUP3 ADD MSTORE PUSH7 0x6F206361726473 PUSH1 0xC8 SHL PUSH1 0x64 DUP3 ADD MSTORE PUSH1 0x84 SWAP1 REVERT JUMPDEST POP PUSH0 SLOAD DUP2 GT ISZERO PUSH2 0x1BE7 JUMP JUMPDEST CALLVALUE PUSH2 0x2BF JUMPI PUSH1 0x20 CALLDATASIZE PUSH1 0x3 NOT ADD SLT PUSH2 0x2BF JUMPI PUSH1 0x4 CALLDATALOAD PUSH0 PUSH2 0x120 PUSH1 0x40 MLOAD PUSH2 0x1E2D DUP2 PUSH2 0x2AAA JUMP JUMPDEST DUP3 DUP2 MSTORE DUP3 PUSH1 0x20 DUP3 ADD MSTORE DUP3 PUSH1 0x40 DUP3 ADD MSTORE DUP3 PUSH1 0x60 DUP3 ADD MSTORE PUSH2 0x680 PUSH1 0x40 MLOAD SWAP1 PUSH2 0x1E53 DUP2 DUP4 PUSH2 0x2AE3 JUMP JUMPDEST CALLDATASIZE DUP3 CALLDATACOPY PUSH1 0x80 DUP3 ADD MSTORE DUP3 PUSH1 0xA0 DUP3 ADD MSTORE DUP3 PUSH1 0xC0 DUP3 ADD MSTORE PUSH1 0x60 PUSH1 0xE0 DUP3 ADD MSTORE PUSH2 0x1E76 PUSH2 0x36B1 JUMP JUMPDEST PUSH2 0x100 DUP3 ADD MSTORE ADD MSTORE DUP1 ISZERO ISZERO DUP1 PUSH2 0x1EC4 JUMPI JUMPDEST PUSH2 0x1E90 SWAP1 PUSH2 0x2D95 JUMP JUMPDEST PUSH0 NOT DUP2 ADD SWAP1 DUP2 GT PUSH2 0x505 JUMPI PUSH2 0x1EB0 PUSH2 0x1EAA PUSH2 0x788 SWAP3 PUSH2 0x2BDB JUMP JUMPDEST POP PUSH2 0x3232 JUMP JUMPDEST PUSH1 0x40 MLOAD SWAP2 DUP3 SWAP2 PUSH1 0x20 DUP4 MSTORE PUSH1 0x20 DUP4 ADD SWAP1 PUSH2 0x29BA JUMP JUMPDEST POP PUSH0 SLOAD DUP2 GT ISZERO PUSH2 0x1E87 JUMP JUMPDEST CALLVALUE PUSH2 0x2BF JUMPI PUSH2 0x1EDD CALLDATASIZE PUSH2 0x2A78 JUMP JUMPDEST PUSH2 0x1EEF PUSH1 0xFF PUSH1 0x2 SLOAD PUSH1 0xA8 SHR AND ISZERO PUSH2 0x2CBA JUMP JUMPDEST PUSH2 0x1EF8 DUP3 PUSH2 0x3B20 JUMP JUMPDEST SWAP1 PUSH1 0x7 DUP3 ADD PUSH1 0x7 DUP2 SLOAD LT ISZERO PUSH2 0x2114 JUMPI CALLER PUSH0 MSTORE PUSH1 0x1 PUSH1 0x20 MSTORE PUSH1 0x40 PUSH0 KECCAK256 SLOAD PUSH2 0x20CF JUMPI PUSH1 0x2 DUP4 ADD SLOAD DUP3 LT ISZERO DUP1 PUSH2 0x20C1 JUMPI JUMPDEST ISZERO PUSH2 0x2084 JUMPI CALLER PUSH0 MSTORE PUSH1 0x4 PUSH1 0x20 MSTORE PUSH2 0x1F43 DUP3 PUSH1 0x40 PUSH0 KECCAK256 SLOAD LT ISZERO PUSH2 0x2D47 JUMP JUMPDEST CALLER PUSH0 MSTORE PUSH1 0x4 PUSH1 0x20 MSTORE PUSH1 0x40 PUSH0 KECCAK256 PUSH2 0x1F5A DUP4 DUP3 SLOAD PUSH2 0x2D88 JUMP JUMPDEST SWAP1 SSTORE PUSH2 0x1F64 PUSH2 0x3586 JUMP JUMPDEST SWAP2 PUSH1 0x40 MLOAD SWAP3 PUSH2 0x1F72 DUP5 PUSH2 0x2AC7 JUMP JUMPDEST CALLER DUP5 MSTORE DUP2 PUSH1 0x20 DUP6 ADD MSTORE PUSH0 PUSH1 0x40 DUP6 ADD MSTORE PUSH1 0x60 DUP5 ADD MSTORE PUSH0 PUSH1 0x80 DUP5 ADD MSTORE PUSH1 0x1 PUSH1 0xA0 DUP5 ADD MSTORE DUP2 SLOAD PUSH1 0x1 PUSH1 0x40 SHL DUP2 LT ISZERO PUSH2 0x2070 JUMPI DUP1 PUSH1 0x1 PUSH2 0x1FB1 SWAP3 ADD DUP5 SSTORE DUP4 PUSH2 0x2E24 JUMP JUMPDEST PUSH2 0x205D JUMPI PUSH1 0x2 SWAP4 PUSH2 0x1FC1 SWAP2 PUSH2 0x35F6 JUMP JUMPDEST CALLER PUSH0 MSTORE PUSH1 0x1 PUSH1 0x20 MSTORE DUP5 PUSH1 0x40 PUSH0 KECCAK256 SSTORE TIMESTAMP PUSH1 0xA DUP6 ADD SSTORE PUSH1 0x40 MLOAD SWAP1 DUP2 MSTORE DUP5 PUSH32 0x3DFBE1FCB4E2D61F3B4A0C93D8F814C92250618B3387F396CC9FC9FAFE2C203 PUSH1 0x20 CALLER SWAP4 LOG3 SLOAD LT ISZERO DUP1 PUSH2 0x2045 JUMPI JUMPDEST PUSH2 0x2011 JUMPI STOP JUMPDEST PUSH1 0x1 ADD PUSH1 0x1 PUSH1 0xFF NOT DUP3 SLOAD AND OR SWAP1 SSTORE PUSH32 0x50AD08F58A27F2851D7E3A1B3A6A46B290F2CE677E99642D30FF639721E77790 PUSH0 DUP1 LOG2 STOP JUMPDEST POP PUSH1 0xFF PUSH1 0x1 DUP3 ADD SLOAD AND PUSH1 0x3 DUP2 LT ISZERO PUSH2 0x568 JUMPI ISZERO PUSH2 0x200B JUMP JUMPDEST PUSH4 0x4E487B71 PUSH1 0xE0 SHL PUSH0 MSTORE PUSH0 PUSH1 0x4 MSTORE PUSH1 0x24 PUSH0 REVERT JUMPDEST PUSH4 0x4E487B71 PUSH1 0xE0 SHL PUSH0 MSTORE PUSH1 0x41 PUSH1 0x4 MSTORE PUSH1 0x24 PUSH0 REVERT JUMPDEST PUSH1 0x40 MLOAD PUSH3 0x461BCD PUSH1 0xE5 SHL DUP2 MSTORE PUSH1 0x20 PUSH1 0x4 DUP3 ADD MSTORE PUSH1 0x15 PUSH1 0x24 DUP3 ADD MSTORE PUSH21 0x125B9D985B1A5908189D5E4B5A5B88185B5BDD5B9D PUSH1 0x5A SHL PUSH1 0x44 DUP3 ADD MSTORE PUSH1 0x64 SWAP1 REVERT JUMPDEST POP PUSH1 0x3 DUP4 ADD SLOAD DUP3 GT ISZERO PUSH2 0x1F26 JUMP JUMPDEST PUSH1 0x40 MLOAD PUSH3 0x461BCD PUSH1 0xE5 SHL DUP2 MSTORE PUSH1 0x20 PUSH1 0x4 DUP3 ADD MSTORE PUSH1 0x19 PUSH1 0x24 DUP3 ADD MSTORE PUSH32 0x506C6179657220616C72656164792061742061207461626C6500000000000000 PUSH1 0x44 DUP3 ADD MSTORE PUSH1 0x64 SWAP1 REVERT JUMPDEST PUSH1 0x40 MLOAD PUSH3 0x461BCD PUSH1 0xE5 SHL DUP2 MSTORE PUSH1 0x20 PUSH1 0x4 DUP3 ADD MSTORE PUSH1 0xD PUSH1 0x24 DUP3 ADD MSTORE PUSH13 0x1518589B19481A5CC8199D5B1B PUSH1 0x9A SHL PUSH1 0x44 DUP3 ADD MSTORE PUSH1 0x64 SWAP1 REVERT JUMPDEST CALLVALUE PUSH2 0x2BF JUMPI PUSH2 0x2157 CALLDATASIZE PUSH2 0x2A78 JUMP JUMPDEST PUSH2 0x2169 PUSH1 0xFF PUSH1 0x2 SLOAD PUSH1 0xA8 SHR AND ISZERO PUSH2 0x2CBA JUMP JUMPDEST PUSH0 SLOAD PUSH1 0xA DUP2 LT ISZERO PUSH2 0x24C2 JUMPI DUP3 ISZERO ISZERO DUP1 PUSH2 0x24B8 JUMPI JUMPDEST ISZERO PUSH2 0x2482 JUMPI PUSH1 0x1 DUP2 ADD SWAP3 DUP4 DUP3 GT PUSH2 0x505 JUMPI PUSH1 0x40 MLOAD SWAP3 PUSH2 0x680 PUSH2 0x219F DUP2 DUP7 PUSH2 0x2AE3 JUMP JUMPDEST CALLDATASIZE DUP6 CALLDATACOPY PUSH1 0x40 MLOAD PUSH1 0x20 SWAP3 PUSH2 0x21B2 DUP5 DUP4 PUSH2 0x2AE3 JUMP JUMPDEST PUSH0 DUP3 MSTORE PUSH2 0x21BD PUSH2 0x3586 JUMP JUMPDEST SWAP3 PUSH1 0x40 MLOAD SWAP4 PUSH2 0x21CB DUP6 PUSH2 0x2A8E JUMP JUMPDEST DUP5 MSTORE PUSH0 DUP6 DUP6 ADD MSTORE PUSH1 0x40 MLOAD SWAP7 PUSH2 0x21DF DUP9 PUSH2 0x2AAA JUMP JUMPDEST DUP9 DUP9 MSTORE DUP6 DUP9 ADD SWAP2 PUSH0 DUP4 MSTORE PUSH1 0x40 DUP10 ADD SWAP4 DUP5 MSTORE PUSH1 0x60 DUP10 ADD SWAP1 DUP2 MSTORE PUSH1 0x80 DUP10 ADD SWAP2 DUP3 MSTORE PUSH1 0xA0 DUP10 ADD SWAP4 PUSH0 DUP6 MSTORE PUSH1 0xC0 DUP11 ADD SWAP4 PUSH0 DUP6 MSTORE PUSH1 0xE0 DUP12 ADD SWAP7 DUP8 MSTORE PUSH2 0x100 DUP12 ADD SWAP8 DUP9 MSTORE PUSH2 0x120 DUP12 ADD SWAP10 TIMESTAMP DUP12 MSTORE PUSH1 0x1 PUSH1 0x40 SHL DUP2 LT ISZERO PUSH2 0x2070 JUMPI PUSH2 0x223E SWAP1 DUP14 PUSH0 SSTORE PUSH2 0x2BDB JUMP JUMPDEST SWAP12 SWAP1 SWAP12 PUSH2 0x205D JUMPI MLOAD DUP12 SSTORE PUSH1 0x1 DUP12 ADD SWAP1 MLOAD PUSH1 0x3 DUP2 LT ISZERO PUSH2 0x568 JUMPI PUSH1 0xFF DUP1 NOT DUP4 SLOAD AND SWAP2 AND OR SWAP1 SSTORE MLOAD PUSH1 0x2 DUP11 ADD SSTORE MLOAD PUSH1 0x3 DUP10 ADD SSTORE MLOAD PUSH0 JUMPDEST PUSH1 0x1 DUP2 LT PUSH2 0x2441 JUMPI POP PUSH0 SWAP1 PUSH0 JUMPDEST DUP8 PUSH1 0x14 DUP3 LT PUSH2 0x241C JUMPI POP POP POP PUSH1 0x5 DUP9 ADD SSTORE PUSH1 0xFF DUP1 PUSH1 0x6 DUP10 ADD SWAP4 MLOAD AND AND PUSH1 0xFF NOT DUP4 SLOAD AND OR DUP3 SSTORE MLOAD PUSH1 0x6 DUP2 LT ISZERO PUSH2 0x568 JUMPI DUP2 SLOAD PUSH2 0xFF00 NOT AND PUSH1 0x8 SWAP2 SWAP1 SWAP2 SHL PUSH2 0xFF00 AND OR SWAP1 SSTORE MLOAD DUP1 MLOAD SWAP1 PUSH1 0x7 DUP7 ADD SWAP1 PUSH1 0x1 PUSH1 0x40 SHL DUP4 GT PUSH2 0x2070 JUMPI DUP5 SWAP1 DUP3 SLOAD DUP5 DUP5 SSTORE DUP1 DUP6 LT PUSH2 0x23B0 JUMPI JUMPDEST POP ADD SWAP1 PUSH0 MSTORE DUP4 PUSH0 KECCAK256 DUP5 PUSH0 SWAP3 JUMPDEST DUP5 DUP5 LT PUSH2 0x2391 JUMPI POP POP POP POP POP PUSH1 0x8 DUP5 ADD SWAP1 MLOAD SWAP1 DUP2 MLOAD SWAP1 DUP4 DUP3 MLOAD SWAP3 PUSH2 0x2315 DUP5 DUP5 PUSH2 0x2E7A JUMP JUMPDEST ADD SWAP1 PUSH0 MSTORE DUP4 PUSH0 KECCAK256 PUSH0 SWAP2 JUMPDEST DUP4 DUP4 LT PUSH2 0x2375 JUMPI DUP9 DUP9 PUSH1 0xA DUP10 PUSH2 0x2349 DUP11 DUP11 ADD MLOAD ISZERO ISZERO PUSH1 0x9 DUP6 ADD SWAP1 PUSH1 0xFF DUP1 NOT DUP4 SLOAD AND SWAP2 ISZERO ISZERO AND OR SWAP1 SSTORE JUMP JUMPDEST MLOAD SWAP2 ADD SSTORE CALLER SWAP1 PUSH32 0xE93806E02D09F53787D307ADA312314EC4CB949DC9BEDC8503F94BD46E45DC6B PUSH0 DUP1 LOG3 STOP JUMPDEST PUSH1 0x1 DUP7 DUP3 PUSH2 0x2385 DUP4 SWAP5 MLOAD DUP7 PUSH2 0x35CB JUMP JUMPDEST ADD SWAP3 ADD SWAP3 ADD SWAP2 SWAP1 PUSH2 0x231F JUMP JUMPDEST PUSH1 0x1 SWAP2 DUP2 PUSH2 0x23A2 PUSH1 0x5 SWAP4 MLOAD DUP7 PUSH2 0x35F6 JUMP JUMPDEST ADD SWAP3 ADD SWAP3 ADD SWAP2 SWAP1 DUP6 SWAP1 PUSH2 0x22F1 JUMP JUMPDEST DUP1 SWAP2 SWAP3 POP PUSH1 0x5 MUL SWAP1 PUSH1 0x5 DUP3 DIV SUB PUSH2 0x505 JUMPI DUP4 PUSH1 0x5 MUL PUSH1 0x5 DUP2 DIV DUP6 SUB PUSH2 0x505 JUMPI PUSH0 DUP5 DUP2 MSTORE DUP8 SWAP1 KECCAK256 DUP8 SWAP4 SWAP3 DUP2 ADD SWAP2 ADD JUMPDEST DUP2 DUP2 LT PUSH2 0x23EB JUMPI POP PUSH2 0x22E5 JUMP JUMPDEST PUSH1 0x5 SWAP2 SWAP3 SWAP4 POP PUSH0 DUP2 SSTORE PUSH0 PUSH1 0x1 DUP3 ADD SSTORE PUSH0 PUSH1 0x2 DUP3 ADD SSTORE PUSH2 0x240C PUSH1 0x3 DUP3 ADD PUSH2 0x2E4A JUMP JUMPDEST PUSH0 PUSH1 0x4 DUP3 ADD SSTORE ADD SWAP1 DUP7 SWAP3 SWAP2 PUSH2 0x23DE JUMP JUMPDEST DUP3 MLOAD SWAP3 SWAP4 SWAP2 SWAP3 PUSH1 0x1 SWAP3 PUSH1 0xFF PUSH1 0x3 DUP7 SWAP1 SHL DUP2 DUP2 SHL NOT SWAP1 SWAP3 AND SWAP3 AND SWAP1 SHL OR SWAP4 ADD SWAP2 ADD PUSH2 0x227F JUMP JUMPDEST PUSH0 PUSH0 JUMPDEST DUP9 DUP1 DUP3 LT PUSH2 0x245D JUMPI POP POP DUP10 DUP3 ADD PUSH1 0x4 ADD SSTORE PUSH1 0x1 ADD PUSH2 0x2272 JUMP JUMPDEST DUP5 MLOAD SWAP2 SWAP5 SWAP3 PUSH1 0x1 SWAP3 PUSH1 0xFF PUSH1 0x3 DUP9 SWAP1 SHL DUP2 DUP2 SHL NOT SWAP1 SWAP4 AND SWAP2 AND SWAP1 SWAP2 SHL OR SWAP3 ADD SWAP4 ADD PUSH2 0x2444 JUMP JUMPDEST PUSH1 0x40 MLOAD PUSH3 0x461BCD PUSH1 0xE5 SHL DUP2 MSTORE PUSH1 0x20 PUSH1 0x4 DUP3 ADD MSTORE PUSH1 0xE PUSH1 0x24 DUP3 ADD MSTORE PUSH14 0x496E76616C6964207374616B6573 PUSH1 0x90 SHL PUSH1 0x44 DUP3 ADD MSTORE PUSH1 0x64 SWAP1 REVERT JUMPDEST POP DUP3 DUP3 LT ISZERO PUSH2 0x217D JUMP JUMPDEST PUSH1 0x40 MLOAD PUSH3 0x461BCD PUSH1 0xE5 SHL DUP2 MSTORE PUSH1 0x20 PUSH1 0x4 DUP3 ADD MSTORE PUSH1 0x16 PUSH1 0x24 DUP3 ADD MSTORE PUSH22 0x13585E1A5B5D5B481D18589B195CC81C995858DA1959 PUSH1 0x52 SHL PUSH1 0x44 DUP3 ADD MSTORE PUSH1 0x64 SWAP1 REVERT JUMPDEST CALLVALUE PUSH2 0x2BF JUMPI PUSH0 CALLDATASIZE PUSH1 0x3 NOT ADD SLT PUSH2 0x2BF JUMPI PUSH0 SLOAD PUSH2 0x251B DUP2 PUSH2 0x2B05 JUMP JUMPDEST SWAP1 PUSH2 0x2529 PUSH1 0x40 MLOAD SWAP3 DUP4 PUSH2 0x2AE3 JUMP JUMPDEST DUP1 DUP3 MSTORE PUSH1 0x20 DUP3 ADD SWAP1 DUP2 PUSH0 DUP1 MSTORE PUSH32 0x290DECD9548B62A8D60345A988386FC84BA6BC95484008F6362F93160EF3E563 PUSH0 SWAP2 JUMPDEST DUP4 DUP4 LT PUSH2 0x25C6 JUMPI DUP5 DUP7 PUSH1 0x40 MLOAD SWAP2 DUP3 SWAP2 PUSH1 0x20 DUP4 ADD SWAP1 PUSH1 0x20 DUP5 MSTORE MLOAD DUP1 SWAP2 MSTORE PUSH1 0x40 DUP4 ADD SWAP1 PUSH1 0x40 DUP2 PUSH1 0x5 SHL DUP6 ADD ADD SWAP3 SWAP2 PUSH0 SWAP1 JUMPDEST DUP3 DUP3 LT PUSH2 0x2597 JUMPI POP POP POP POP SUB SWAP1 RETURN JUMPDEST SWAP2 SWAP4 PUSH1 0x1 SWAP2 SWAP4 SWAP6 POP PUSH1 0x20 PUSH2 0x25B6 DUP2 SWAP3 PUSH1 0x3F NOT DUP11 DUP3 SUB ADD DUP7 MSTORE DUP9 MLOAD PUSH2 0x29BA JUMP JUMPDEST SWAP7 ADD SWAP3 ADD SWAP3 ADD DUP6 SWAP5 SWAP4 SWAP2 SWAP3 PUSH2 0x2588 JUMP JUMPDEST PUSH1 0xB PUSH1 0x20 PUSH1 0x1 SWAP3 PUSH2 0x25D6 DUP6 PUSH2 0x3232 JUMP JUMPDEST DUP2 MSTORE ADD SWAP3 ADD SWAP3 ADD SWAP2 SWAP1 PUSH2 0x2559 JUMP JUMPDEST CALLVALUE PUSH2 0x2BF JUMPI PUSH1 0x20 CALLDATASIZE PUSH1 0x3 NOT ADD SLT PUSH2 0x2BF JUMPI PUSH2 0x503 PUSH1 0x4 CALLDATALOAD DUP1 ISZERO ISZERO DUP1 PUSH2 0x2629 JUMPI JUMPDEST PUSH2 0x260D SWAP1 PUSH2 0x2D95 JUMP JUMPDEST CALLER PUSH0 MSTORE PUSH1 0x1 PUSH1 0x20 MSTORE PUSH2 0x2624 DUP2 PUSH1 0x40 PUSH0 KECCAK256 SLOAD EQ PUSH2 0x2DD8 JUMP JUMPDEST PUSH2 0x301A JUMP JUMPDEST POP PUSH0 SLOAD DUP2 GT ISZERO PUSH2 0x2604 JUMP JUMPDEST CALLVALUE PUSH2 0x2BF JUMPI PUSH1 0x20 CALLDATASIZE PUSH1 0x3 NOT ADD SLT PUSH2 0x2BF JUMPI PUSH1 0x4 CALLDATALOAD PUSH1 0x1 PUSH1 0x2 SLOAD PUSH2 0x265D PUSH1 0xFF DUP3 PUSH1 0xA8 SHR AND ISZERO PUSH2 0x2CBA JUMP JUMPDEST PUSH2 0x266A PUSH1 0xFF DUP3 AND ISZERO PUSH2 0x2CFB JUMP JUMPDEST PUSH1 0xFF NOT AND OR PUSH1 0x2 SSTORE DUP1 ISZERO PUSH2 0x27E1 JUMPI CALLER PUSH0 MSTORE PUSH1 0x4 PUSH1 0x20 MSTORE PUSH2 0x2690 DUP2 PUSH1 0x40 PUSH0 KECCAK256 SLOAD LT ISZERO PUSH2 0x2D47 JUMP JUMPDEST CALLER PUSH0 MSTORE PUSH1 0x1 PUSH1 0x20 MSTORE PUSH1 0x40 PUSH0 KECCAK256 SLOAD PUSH2 0x279D JUMPI CALLER PUSH0 MSTORE PUSH1 0x4 PUSH1 0x20 MSTORE PUSH1 0x40 PUSH0 KECCAK256 PUSH2 0x26B8 DUP3 DUP3 SLOAD PUSH2 0x2D88 JUMP JUMPDEST SWAP1 SSTORE PUSH6 0x9184E72A000 DUP2 MUL DUP2 DUP2 DIV PUSH6 0x9184E72A000 SUB PUSH2 0x505 JUMPI PUSH6 0x9184E72A000 SWAP1 DIV PUSH0 DUP1 DUP1 DUP1 DUP5 CALLER GAS CALL RETURNDATASIZE ISZERO PUSH2 0x2798 JUMPI RETURNDATASIZE PUSH8 0xFFFFFFFFFFFFFFFF DUP2 GT PUSH2 0x2070 JUMPI PUSH1 0x40 MLOAD SWAP1 PUSH2 0x2711 PUSH1 0x1F DUP3 ADD PUSH1 0x1F NOT AND PUSH1 0x20 ADD DUP4 PUSH2 0x2AE3 JUMP JUMPDEST DUP2 MSTORE PUSH0 PUSH1 0x20 RETURNDATASIZE SWAP3 ADD RETURNDATACOPY JUMPDEST ISZERO PUSH2 0x275D JUMPI PUSH1 0x40 MLOAD SWAP2 DUP3 MSTORE PUSH1 0x20 DUP3 ADD MSTORE PUSH32 0x5F1238E7C3295F06E8183D1C3550F5EBF2CBE37947E4AB6865905FEA1C41EAAC PUSH1 0x40 CALLER SWAP3 LOG2 PUSH1 0x2 DUP1 SLOAD PUSH1 0xFF NOT AND SWAP1 SSTORE STOP JUMPDEST PUSH1 0x40 MLOAD PUSH3 0x461BCD PUSH1 0xE5 SHL DUP2 MSTORE PUSH1 0x20 PUSH1 0x4 DUP3 ADD MSTORE PUSH1 0x13 PUSH1 0x24 DUP3 ADD MSTORE PUSH19 0x115512081D1C985B9CD9995C8819985A5B1959 PUSH1 0x6A SHL PUSH1 0x44 DUP3 ADD MSTORE PUSH1 0x64 SWAP1 REVERT JUMPDEST PUSH2 0x271B JUMP JUMPDEST PUSH1 0x64 PUSH1 0x40 MLOAD PUSH3 0x461BCD PUSH1 0xE5 SHL DUP2 MSTORE PUSH1 0x20 PUSH1 0x4 DUP3 ADD MSTORE PUSH1 0x20 PUSH1 0x24 DUP3 ADD MSTORE PUSH32 0x43616E6E6F74207769746864726177207768696C652061742061207461626C65 PUSH1 0x44 DUP3 ADD MSTORE REVERT JUMPDEST PUSH1 0x40 MLOAD PUSH3 0x461BCD PUSH1 0xE5 SHL DUP2 MSTORE PUSH1 0x20 PUSH1 0x4 DUP3 ADD MSTORE PUSH1 0x1F PUSH1 0x24 DUP3 ADD MSTORE PUSH32 0x4D757374207769746864726177206D6F7265207468616E203020636869707300 PUSH1 0x44 DUP3 ADD MSTORE PUSH1 0x64 SWAP1 REVERT JUMPDEST CALLVALUE PUSH2 0x2BF JUMPI PUSH1 0x20 CALLDATASIZE PUSH1 0x3 NOT ADD SLT PUSH2 0x2BF JUMPI PUSH1 0x20 SWAP1 PUSH1 0x1 PUSH1 0x1 PUSH1 0xA0 SHL SUB PUSH2 0x284A PUSH2 0x285A JUMP JUMPDEST AND PUSH0 MSTORE PUSH1 0x1 DUP3 MSTORE PUSH1 0x40 PUSH0 KECCAK256 SLOAD DUP2 MSTORE RETURN JUMPDEST PUSH1 0x4 CALLDATALOAD SWAP1 PUSH1 0x1 PUSH1 0x1 PUSH1 0xA0 SHL SUB DUP3 AND DUP3 SUB PUSH2 0x2BF JUMPI JUMP JUMPDEST PUSH1 0x24 CALLDATALOAD SWAP1 PUSH1 0x1 PUSH1 0x1 PUSH1 0xA0 SHL SUB DUP3 AND DUP3 SUB PUSH2 0x2BF JUMPI JUMP JUMPDEST SWAP1 PUSH1 0x3 DUP3 LT ISZERO PUSH2 0x568 JUMPI MSTORE JUMP JUMPDEST SWAP1 PUSH1 0x6 DUP3 LT ISZERO PUSH2 0x568 JUMPI MSTORE JUMP JUMPDEST SWAP1 PUSH1 0x20 DUP1 DUP4 MLOAD SWAP3 DUP4 DUP2 MSTORE ADD SWAP3 ADD SWAP1 PUSH0 JUMPDEST DUP2 DUP2 LT PUSH2 0x28BD JUMPI POP POP POP SWAP1 JUMP JUMPDEST SWAP1 SWAP2 SWAP3 PUSH1 0x20 PUSH1 0x40 DUP3 PUSH2 0x28E1 PUSH1 0x1 SWAP5 DUP9 MLOAD PUSH1 0xFF PUSH1 0x20 DUP1 SWAP3 DUP3 DUP2 MLOAD AND DUP6 MSTORE ADD MLOAD AND SWAP2 ADD MSTORE JUMP JUMPDEST ADD SWAP5 ADD SWAP3 SWAP2 ADD PUSH2 0x28B0 JUMP JUMPDEST SWAP1 PUSH1 0x1 DUP1 PUSH1 0xA0 SHL SUB DUP3 MLOAD AND DUP2 MSTORE PUSH1 0x20 DUP3 ADD MLOAD PUSH1 0x20 DUP3 ADD MSTORE PUSH1 0x40 DUP3 ADD MLOAD PUSH1 0x40 DUP3 ADD MSTORE PUSH1 0xA0 DUP1 PUSH2 0x2929 PUSH1 0x60 DUP6 ADD MLOAD PUSH1 0xC0 PUSH1 0x60 DUP7 ADD MSTORE PUSH1 0xC0 DUP6 ADD SWAP1 PUSH2 0x28A0 JUMP JUMPDEST SWAP4 PUSH1 0x80 DUP2 ADD MLOAD ISZERO ISZERO PUSH1 0x80 DUP6 ADD MSTORE ADD MLOAD ISZERO ISZERO SWAP2 ADD MSTORE SWAP1 JUMP JUMPDEST SWAP1 DUP1 PUSH1 0x20 DUP4 MLOAD SWAP2 DUP3 DUP2 MSTORE ADD SWAP2 PUSH1 0x20 DUP1 DUP4 PUSH1 0x5 SHL DUP4 ADD ADD SWAP5 ADD SWAP3 PUSH0 SWAP2 JUMPDEST DUP4 DUP4 LT PUSH2 0x296B JUMPI POP POP POP POP POP SWAP1 JUMP JUMPDEST SWAP1 SWAP2 SWAP3 SWAP4 SWAP5 PUSH1 0x20 DUP1 PUSH2 0x2989 PUSH1 0x1 SWAP4 PUSH1 0x1F NOT DUP7 DUP3 SUB ADD DUP8 MSTORE DUP10 MLOAD PUSH2 0x28EC JUMP JUMPDEST SWAP8 ADD SWAP4 ADD SWAP4 ADD SWAP2 SWAP4 SWAP3 SWAP1 PUSH2 0x295C JUMP JUMPDEST SWAP1 PUSH1 0x20 DUP1 PUSH2 0x29AF DUP5 MLOAD PUSH1 0x40 DUP6 MSTORE PUSH1 0x40 DUP6 ADD SWAP1 PUSH2 0x28A0 JUMP JUMPDEST SWAP4 ADD MLOAD ISZERO ISZERO SWAP2 ADD MSTORE SWAP1 JUMP JUMPDEST SWAP1 DUP2 MLOAD DUP2 MSTORE PUSH2 0x29D1 PUSH1 0x20 DUP4 ADD MLOAD PUSH1 0x20 DUP4 ADD SWAP1 PUSH2 0x2886 JUMP JUMPDEST PUSH1 0x40 DUP3 ADD MLOAD PUSH1 0x40 DUP3 ADD MSTORE PUSH1 0x60 DUP3 ADD MLOAD PUSH1 0x60 DUP3 ADD MSTORE PUSH1 0x80 DUP3 ADD MLOAD PUSH1 0x80 DUP3 ADD PUSH0 SWAP1 JUMPDEST PUSH1 0x34 DUP3 LT PUSH2 0x2A5F JUMPI POP POP POP PUSH1 0xFF PUSH1 0xA0 DUP4 ADD MLOAD AND PUSH2 0x700 DUP3 ADD MSTORE PUSH2 0x2A1D PUSH1 0xC0 DUP4 ADD MLOAD PUSH2 0x720 DUP4 ADD SWAP1 PUSH2 0x2893 JUMP JUMPDEST PUSH2 0x780 PUSH2 0x120 PUSH2 0x2A56 PUSH2 0x2A42 PUSH1 0xE0 DUP7 ADD MLOAD PUSH2 0x7A0 PUSH2 0x740 DUP8 ADD MSTORE PUSH2 0x7A0 DUP7 ADD SWAP1 PUSH2 0x2940 JUMP JUMPDEST PUSH2 0x100 DUP7 ADD MLOAD DUP6 DUP3 SUB PUSH2 0x760 DUP8 ADD MSTORE PUSH2 0x2998 JUMP JUMPDEST SWAP4 ADD MLOAD SWAP2 ADD MSTORE SWAP1 JUMP JUMPDEST PUSH1 0x20 DUP1 PUSH1 0x1 SWAP3 PUSH1 0xFF DUP7 MLOAD AND DUP2 MSTORE ADD SWAP4 ADD SWAP2 ADD SWAP1 SWAP2 PUSH2 0x29F1 JUMP JUMPDEST PUSH1 0x40 SWAP1 PUSH1 0x3 NOT ADD SLT PUSH2 0x2BF JUMPI PUSH1 0x4 CALLDATALOAD SWAP1 PUSH1 0x24 CALLDATALOAD SWAP1 JUMP JUMPDEST PUSH1 0x40 DUP2 ADD SWAP1 DUP2 LT PUSH8 0xFFFFFFFFFFFFFFFF DUP3 GT OR PUSH2 0x2070 JUMPI PUSH1 0x40 MSTORE JUMP JUMPDEST PUSH2 0x140 DUP2 ADD SWAP1 DUP2 LT PUSH8 0xFFFFFFFFFFFFFFFF DUP3 GT OR PUSH2 0x2070 JUMPI PUSH1 0x40 MSTORE JUMP JUMPDEST PUSH1 0xC0 DUP2 ADD SWAP1 DUP2 LT PUSH8 0xFFFFFFFFFFFFFFFF DUP3 GT OR PUSH2 0x2070 JUMPI PUSH1 0x40 MSTORE JUMP JUMPDEST SWAP1 PUSH1 0x1F DUP1 NOT SWAP2 ADD AND DUP2 ADD SWAP1 DUP2 LT PUSH8 0xFFFFFFFFFFFFFFFF DUP3 GT OR PUSH2 0x2070 JUMPI PUSH1 0x40 MSTORE JUMP JUMPDEST PUSH8 0xFFFFFFFFFFFFFFFF DUP2 GT PUSH2 0x2070 JUMPI PUSH1 0x5 SHL PUSH1 0x20 ADD SWAP1 JUMP JUMPDEST CALLDATALOAD SWAP1 PUSH1 0xFF DUP3 AND DUP3 SUB PUSH2 0x2BF JUMPI JUMP JUMPDEST PUSH1 0x20 PUSH1 0x3 NOT DUP3 ADD SLT PUSH2 0x2BF JUMPI PUSH1 0x4 CALLDATALOAD PUSH8 0xFFFFFFFFFFFFFFFF DUP2 GT PUSH2 0x2BF JUMPI DUP2 PUSH1 0x23 DUP3 ADD SLT ISZERO PUSH2 0x2BF JUMPI DUP1 PUSH1 0x4 ADD CALLDATALOAD SWAP1 PUSH2 0x2B63 DUP3 PUSH2 0x2B05 JUMP JUMPDEST SWAP3 PUSH2 0x2B71 PUSH1 0x40 MLOAD SWAP5 DUP6 PUSH2 0x2AE3 JUMP JUMPDEST DUP3 DUP5 MSTORE PUSH1 0x24 PUSH1 0x20 DUP6 ADD SWAP4 PUSH1 0x6 SHL DUP4 ADD ADD SWAP2 DUP2 DUP4 GT PUSH2 0x2BF JUMPI PUSH1 0x24 ADD SWAP3 JUMPDEST DUP3 DUP5 LT PUSH2 0x2B9C JUMPI POP POP POP POP SWAP1 JUMP JUMPDEST PUSH1 0x40 DUP5 DUP4 SUB SLT PUSH2 0x2BF JUMPI PUSH1 0x20 PUSH1 0x40 SWAP2 DUP3 MLOAD PUSH2 0x2BB6 DUP2 PUSH2 0x2A8E JUMP JUMPDEST PUSH2 0x2BBF DUP8 PUSH2 0x2B1D JUMP JUMPDEST DUP2 MSTORE PUSH2 0x2BCC DUP4 DUP9 ADD PUSH2 0x2B1D JUMP JUMPDEST DUP4 DUP3 ADD MSTORE DUP2 MSTORE ADD SWAP4 ADD SWAP3 PUSH2 0x2B8E JUMP JUMPDEST PUSH0 SLOAD DUP2 LT ISZERO PUSH2 0x2C13 JUMPI PUSH0 DUP1 DUP1 MSTORE PUSH1 0xB SWAP2 SWAP1 SWAP2 MUL PUSH32 0x290DECD9548B62A8D60345A988386FC84BA6BC95484008F6362F93160EF3E563 ADD SWAP2 JUMP JUMPDEST PUSH4 0x4E487B71 PUSH1 0xE0 SHL PUSH0 MSTORE PUSH1 0x32 PUSH1 0x4 MSTORE PUSH1 0x24 PUSH0 REVERT JUMPDEST SWAP1 DUP2 SLOAD PUSH2 0x2C33 DUP2 PUSH2 0x2B05 JUMP JUMPDEST SWAP3 PUSH2 0x2C41 PUSH1 0x40 MLOAD SWAP5 DUP6 PUSH2 0x2AE3 JUMP JUMPDEST DUP2 DUP5 MSTORE PUSH1 0x20 DUP5 ADD SWAP1 PUSH0 MSTORE PUSH1 0x20 PUSH0 KECCAK256 PUSH0 SWAP2 JUMPDEST DUP4 DUP4 LT PUSH2 0x2C5F JUMPI POP POP POP POP JUMP JUMPDEST PUSH1 0x1 PUSH1 0x20 DUP2 SWAP3 PUSH1 0x40 MLOAD PUSH2 0x2C71 DUP2 PUSH2 0x2A8E JUMP JUMPDEST PUSH1 0xFF DUP7 SLOAD DUP2 DUP2 AND DUP4 MSTORE PUSH1 0x8 SHR AND DUP4 DUP3 ADD MSTORE DUP2 MSTORE ADD SWAP3 ADD SWAP3 ADD SWAP2 SWAP1 PUSH2 0x2C52 JUMP JUMPDEST SWAP1 PUSH1 0x40 MLOAD PUSH2 0x2C9D DUP2 PUSH2 0x2A8E JUMP JUMPDEST PUSH1 0x20 PUSH1 0xFF PUSH1 0x1 DUP4 SWAP6 PUSH2 0x2CAE DUP2 PUSH2 0x2C27 JUMP JUMPDEST DUP6 MSTORE ADD SLOAD AND ISZERO ISZERO SWAP2 ADD MSTORE JUMP JUMPDEST ISZERO PUSH2 0x2CC1 JUMPI JUMP JUMPDEST PUSH1 0x40 MLOAD PUSH3 0x461BCD PUSH1 0xE5 SHL DUP2 MSTORE PUSH1 0x20 PUSH1 0x4 DUP3 ADD MSTORE PUSH1 0x12 PUSH1 0x24 DUP3 ADD MSTORE PUSH18 0x10DBDB9D1C9858DD081A5CC81C185D5CD959 PUSH1 0x72 SHL PUSH1 0x44 DUP3 ADD MSTORE PUSH1 0x64 SWAP1 REVERT JUMPDEST ISZERO PUSH2 0x2D02 JUMPI JUMP JUMPDEST PUSH1 0x40 MLOAD PUSH3 0x461BCD PUSH1 0xE5 SHL DUP2 MSTORE PUSH1 0x20 PUSH1 0x4 DUP3 ADD MSTORE PUSH1 0x1F PUSH1 0x24 DUP3 ADD MSTORE PUSH32 0x5265656E7472616E637947756172643A207265656E7472616E742063616C6C00 PUSH1 0x44 DUP3 ADD MSTORE PUSH1 0x64 SWAP1 REVERT JUMPDEST ISZERO PUSH2 0x2D4E JUMPI JUMP JUMPDEST PUSH1 0x40 MLOAD PUSH3 0x461BCD PUSH1 0xE5 SHL DUP2 MSTORE PUSH1 0x20 PUSH1 0x4 DUP3 ADD MSTORE PUSH1 0x12 PUSH1 0x24 DUP3 ADD MSTORE PUSH18 0x496E73756666696369656E74206368697073 PUSH1 0x70 SHL PUSH1 0x44 DUP3 ADD MSTORE PUSH1 0x64 SWAP1 REVERT JUMPDEST SWAP2 SWAP1 DUP3 SUB SWAP2 DUP3 GT PUSH2 0x505 JUMPI JUMP JUMPDEST ISZERO PUSH2 0x2D9C JUMPI JUMP JUMPDEST PUSH1 0x40 MLOAD PUSH3 0x461BCD PUSH1 0xE5 SHL DUP2 MSTORE PUSH1 0x20 PUSH1 0x4 DUP3 ADD MSTORE PUSH1 0x14 PUSH1 0x24 DUP3 ADD MSTORE PUSH20 0x1518589B1948191BD95CC81B9BDD08195E1A5CDD PUSH1 0x62 SHL PUSH1 0x44 DUP3 ADD MSTORE PUSH1 0x64 SWAP1 REVERT JUMPDEST ISZERO PUSH2 0x2DDF JUMPI JUMP JUMPDEST PUSH1 0x40 MLOAD PUSH3 0x461BCD PUSH1 0xE5 SHL DUP2 MSTORE PUSH1 0x20 PUSH1 0x4 DUP3 ADD MSTORE PUSH1 0x19 PUSH1 0x24 DUP3 ADD MSTORE PUSH32 0x596F7520617265206E6F742061742074686973207461626C6500000000000000 PUSH1 0x44 DUP3 ADD MSTORE PUSH1 0x64 SWAP1 REVERT JUMPDEST DUP1 SLOAD DUP3 LT ISZERO PUSH2 0x2C13 JUMPI PUSH0 MSTORE PUSH1 0x5 PUSH1 0x20 PUSH0 KECCAK256 SWAP2 MUL ADD SWAP1 PUSH0 SWAP1 JUMP JUMPDEST SWAP2 SWAP1 DUP3 ADD DUP1 SWAP3 GT PUSH2 0x505 JUMPI JUMP JUMPDEST DUP1 SLOAD SWAP1 PUSH0 DUP2 SSTORE DUP2 PUSH2 0x2E59 JUMPI POP POP JUMP JUMPDEST PUSH0 MSTORE PUSH1 0x20 PUSH0 KECCAK256 SWAP1 DUP2 ADD SWAP1 JUMPDEST DUP2 DUP2 LT PUSH2 0x2E6F JUMPI POP POP JUMP JUMPDEST PUSH0 DUP2 SSTORE PUSH1 0x1 ADD PUSH2 0x2E64 JUMP JUMPDEST SWAP1 PUSH1 0x1 PUSH1 0x40 SHL DUP2 GT PUSH2 0x2070 JUMPI DUP2 SLOAD SWAP2 DUP2 DUP2 SSTORE DUP3 DUP3 LT PUSH2 0x2E98 JUMPI POP POP POP JUMP JUMPDEST PUSH0 MSTORE PUSH1 0x20 PUSH0 KECCAK256 SWAP2 DUP3 ADD SWAP2 ADD JUMPDEST DUP2 DUP2 LT PUSH2 0x2EAF JUMPI POP POP JUMP JUMPDEST PUSH0 DUP2 SSTORE PUSH1 0x1 ADD PUSH2 0x2EA4 JUMP JUMPDEST DUP2 DUP2 EQ PUSH2 0x2F2C JUMPI DUP2 SLOAD SWAP2 PUSH2 0x2ECE DUP4 DUP4 PUSH2 0x2E7A JUMP JUMPDEST PUSH0 MSTORE PUSH1 0x20 PUSH0 KECCAK256 SWAP1 PUSH0 MSTORE PUSH1 0x20 PUSH0 KECCAK256 PUSH0 SWAP2 JUMPDEST DUP4 DUP4 LT PUSH2 0x2EEB JUMPI POP POP POP POP JUMP JUMPDEST PUSH1 0x1 DUP1 DUP3 DUP2 SWAP4 DUP6 SUB PUSH2 0x2F04 JUMPI JUMPDEST ADD SWAP3 ADD SWAP3 ADD SWAP2 SWAP1 PUSH2 0x2EDE JUMP JUMPDEST DUP1 SLOAD DUP6 SLOAD PUSH1 0xFF SWAP1 SWAP2 AND PUSH1 0xFF NOT DUP3 AND DUP2 OR DUP8 SSTORE DUP3 SLOAD PUSH2 0xFF00 AND PUSH2 0xFFFF NOT SWAP1 SWAP3 AND OR OR DUP6 SSTORE PUSH2 0x2EF8 JUMP JUMPDEST POP POP JUMP JUMPDEST SWAP2 SWAP1 PUSH2 0x205D JUMPI DUP1 DUP3 SUB PUSH2 0x2F41 JUMPI POP POP JUMP JUMPDEST DUP1 SLOAD DUP3 SLOAD PUSH1 0x1 PUSH1 0x1 PUSH1 0xA0 SHL SUB NOT AND PUSH1 0x1 PUSH1 0x1 PUSH1 0xA0 SHL SUB SWAP2 SWAP1 SWAP2 AND OR DUP3 SSTORE PUSH1 0x1 DUP2 DUP2 ADD SLOAD SWAP1 DUP4 ADD SSTORE PUSH1 0x2 DUP1 DUP3 ADD SLOAD SWAP1 DUP4 ADD SSTORE PUSH2 0x2FC6 SWAP2 PUSH1 0xFF SWAP1 PUSH1 0x4 SWAP1 DUP2 SWAP1 PUSH2 0x2F8E PUSH1 0x3 DUP1 DUP8 ADD SWAP1 DUP4 ADD PUSH2 0x2EBA JUMP JUMPDEST ADD SWAP3 ADD PUSH2 0x2FAA DUP3 DUP3 SLOAD AND DUP5 SWAP1 PUSH1 0xFF DUP1 NOT DUP4 SLOAD AND SWAP2 ISZERO ISZERO AND OR SWAP1 SSTORE JUMP JUMPDEST SLOAD PUSH1 0x8 SHR AND PUSH2 0xFF00 DUP3 SLOAD SWAP2 ISZERO ISZERO PUSH1 0x8 SHL AND SWAP1 PUSH2 0xFF00 NOT AND OR SWAP1 SSTORE JUMP JUMPDEST JUMP JUMPDEST DUP1 SLOAD DUP1 ISZERO PUSH2 0x3006 JUMPI PUSH0 NOT ADD SWAP1 PUSH2 0x2FDE DUP3 DUP3 PUSH2 0x2E24 JUMP JUMPDEST PUSH2 0x205D JUMPI PUSH1 0x4 DUP2 PUSH0 DUP1 SWAP4 SSTORE DUP3 PUSH1 0x1 DUP3 ADD SSTORE DUP3 PUSH1 0x2 DUP3 ADD SSTORE PUSH2 0x3001 PUSH1 0x3 DUP3 ADD PUSH2 0x2E4A JUMP JUMPDEST ADD SSTORE SSTORE JUMP JUMPDEST PUSH4 0x4E487B71 PUSH1 0xE0 SHL PUSH0 MSTORE PUSH1 0x31 PUSH1 0x4 MSTORE PUSH1 0x24 PUSH0 REVERT JUMPDEST PUSH2 0x3023 DUP2 PUSH2 0x3B20 JUMP JUMPDEST SWAP2 PUSH2 0x302E CALLER DUP4 PUSH2 0x3B55 JUMP JUMPDEST PUSH1 0x7 DUP5 ADD SWAP4 PUSH2 0x303D DUP3 DUP7 PUSH2 0x2E24 JUMP JUMPDEST POP SWAP2 PUSH1 0x6 DUP3 ADD SWAP3 PUSH1 0xFF DUP5 SLOAD PUSH1 0x8 SHR AND PUSH1 0x6 DUP2 LT ISZERO PUSH2 0x568 JUMPI PUSH2 0x311B JUMPI PUSH1 0x1 ADD SLOAD CALLER PUSH0 MSTORE PUSH1 0x4 PUSH1 0x20 MSTORE PUSH2 0x3074 PUSH1 0x40 PUSH0 KECCAK256 SWAP2 DUP3 SLOAD PUSH2 0x2E3D JUMP JUMPDEST SWAP1 SSTORE JUMPDEST DUP6 SLOAD PUSH0 NOT DUP2 ADD SWAP1 DUP2 GT PUSH2 0x505 JUMPI DUP2 LT ISZERO PUSH2 0x30B7 JUMPI PUSH1 0x1 DUP2 ADD SWAP1 DUP2 DUP2 GT PUSH2 0x505 JUMPI PUSH2 0x30B1 PUSH2 0x30A6 PUSH1 0x1 SWAP4 DUP10 PUSH2 0x2E24 JUMP JUMPDEST POP PUSH2 0x101D DUP4 DUP11 PUSH2 0x2E24 JUMP JUMPDEST ADD PUSH2 0x3077 JUMP JUMPDEST POP SWAP2 SWAP4 PUSH1 0x2 SWAP2 SWAP4 PUSH2 0x30C7 DUP3 PUSH2 0x2FC8 JUMP JUMPDEST CALLER PUSH0 MSTORE PUSH1 0x1 PUSH1 0x20 MSTORE PUSH0 PUSH1 0x40 DUP2 KECCAK256 SSTORE CALLER SWAP1 PUSH32 0xB2BD643202385C64D9814C6C3FA61B1BA098D6652292E9D9A6F1A0CDAE6EB824 PUSH0 DUP1 LOG3 SLOAD LT PUSH2 0x3105 JUMPI POP POP JUMP JUMPDEST PUSH1 0x1 ADD DUP1 SLOAD PUSH1 0xFF NOT AND SWAP1 SSTORE DUP1 SLOAD PUSH2 0xFF00 NOT AND SWAP1 SSTORE JUMP JUMPDEST SWAP3 POP POP POP PUSH1 0x4 SWAP2 SWAP4 POP PUSH1 0x1 DUP2 ADD SLOAD CALLER PUSH0 MSTORE DUP3 PUSH1 0x20 MSTORE PUSH2 0x313F PUSH1 0x40 PUSH0 KECCAK256 SWAP2 DUP3 SLOAD PUSH2 0x2E3D JUMP JUMPDEST SWAP1 SSTORE CALLER PUSH0 MSTORE PUSH1 0x1 PUSH1 0x20 MSTORE PUSH0 PUSH1 0x40 DUP2 KECCAK256 SSTORE ADD PUSH1 0xFF NOT DUP2 SLOAD AND SWAP1 SSTORE CALLER SWAP1 PUSH32 0xB2BD643202385C64D9814C6C3FA61B1BA098D6652292E9D9A6F1A0CDAE6EB824 PUSH0 DUP1 LOG3 JUMP JUMPDEST SWAP1 PUSH1 0x40 MLOAD PUSH2 0x318D DUP2 PUSH2 0x2AC7 JUMP JUMPDEST PUSH1 0xA0 PUSH1 0xFF PUSH1 0x4 DUP4 SWAP6 PUSH1 0x1 DUP1 DUP6 SHL SUB DUP2 SLOAD AND DUP6 MSTORE PUSH1 0x1 DUP2 ADD SLOAD PUSH1 0x20 DUP7 ADD MSTORE PUSH1 0x2 DUP2 ADD SLOAD PUSH1 0x40 DUP7 ADD MSTORE PUSH2 0x31C0 PUSH1 0x3 DUP3 ADD PUSH2 0x2C27 JUMP JUMPDEST PUSH1 0x60 DUP7 ADD MSTORE ADD SLOAD DUP2 DUP2 AND ISZERO ISZERO PUSH1 0x80 DUP6 ADD MSTORE PUSH1 0x8 SHR AND ISZERO ISZERO SWAP2 ADD MSTORE JUMP JUMPDEST SWAP1 DUP2 SLOAD PUSH2 0x31E8 DUP2 PUSH2 0x2B05 JUMP JUMPDEST SWAP3 PUSH2 0x31F6 PUSH1 0x40 MLOAD SWAP5 DUP6 PUSH2 0x2AE3 JUMP JUMPDEST DUP2 DUP5 MSTORE PUSH1 0x20 DUP5 ADD SWAP1 PUSH0 MSTORE PUSH1 0x20 PUSH0 KECCAK256 PUSH0 SWAP2 JUMPDEST DUP4 DUP4 LT PUSH2 0x3214 JUMPI POP POP POP POP JUMP JUMPDEST PUSH1 0x5 PUSH1 0x20 PUSH1 0x1 SWAP3 PUSH2 0x3224 DUP6 PUSH2 0x3180 JUMP JUMPDEST DUP2 MSTORE ADD SWAP3 ADD SWAP3 ADD SWAP2 SWAP1 PUSH2 0x3207 JUMP JUMPDEST SWAP1 PUSH1 0x40 MLOAD PUSH2 0x323F DUP2 PUSH2 0x2AAA JUMP JUMPDEST DUP1 SWAP3 DUP1 SLOAD DUP3 MSTORE PUSH1 0xFF PUSH1 0x1 DUP3 ADD SLOAD AND PUSH1 0x3 DUP2 LT ISZERO PUSH2 0x568 JUMPI PUSH1 0x20 DUP4 ADD MSTORE PUSH1 0x2 DUP2 ADD SLOAD PUSH1 0x40 DUP4 ADD MSTORE PUSH1 0x3 DUP2 ADD SLOAD PUSH1 0x60 DUP4 ADD MSTORE PUSH1 0x40 MLOAD DUP1 PUSH1 0x4 DUP4 ADD PUSH0 JUMPDEST PUSH1 0x34 PUSH1 0x1F DUP3 ADD LT PUSH2 0x33CC JUMPI POP PUSH1 0xFF PUSH2 0x260 SWAP2 SLOAD DUP2 DUP2 AND DUP5 MSTORE DUP2 DUP2 PUSH1 0x8 SHR AND PUSH1 0x20 DUP6 ADD MSTORE DUP2 DUP2 PUSH1 0x10 SHR AND PUSH1 0x40 DUP6 ADD MSTORE DUP2 DUP2 PUSH1 0x18 SHR AND PUSH1 0x60 DUP6 ADD MSTORE DUP2 DUP2 PUSH1 0x20 SHR AND PUSH1 0x80 DUP6 ADD MSTORE DUP2 DUP2 PUSH1 0x28 SHR AND PUSH1 0xA0 DUP6 ADD MSTORE DUP2 DUP2 PUSH1 0x30 SHR AND PUSH1 0xC0 DUP6 ADD MSTORE DUP2 DUP2 PUSH1 0x38 SHR AND PUSH1 0xE0 DUP6 ADD MSTORE DUP2 DUP2 PUSH1 0x40 SHR AND PUSH2 0x100 DUP6 ADD MSTORE DUP2 DUP2 PUSH1 0x48 SHR AND PUSH2 0x120 DUP6 ADD MSTORE DUP2 DUP2 PUSH1 0x50 SHR AND PUSH2 0x140 DUP6 ADD MSTORE DUP2 DUP2 PUSH1 0x58 SHR AND PUSH2 0x160 DUP6 ADD MSTORE DUP2 DUP2 PUSH1 0x60 SHR AND PUSH2 0x180 DUP6 ADD MSTORE DUP2 DUP2 PUSH1 0x68 SHR AND PUSH2 0x1A0 DUP6 ADD MSTORE DUP2 DUP2 PUSH1 0x70 SHR AND PUSH2 0x1C0 DUP6 ADD MSTORE DUP2 DUP2 PUSH1 0x78 SHR AND PUSH2 0x1E0 DUP6 ADD MSTORE DUP2 DUP2 PUSH1 0x80 SHR AND PUSH2 0x200 DUP6 ADD MSTORE DUP2 DUP2 PUSH1 0x88 SHR AND PUSH2 0x220 DUP6 ADD MSTORE DUP2 DUP2 PUSH1 0x90 SHR AND PUSH2 0x240 DUP6 ADD MSTORE PUSH1 0x98 SHR AND SWAP2 ADD MSTORE PUSH2 0x3375 PUSH2 0x680 DUP3 PUSH2 0x2AE3 JUMP JUMPDEST PUSH1 0x80 DUP4 ADD MSTORE PUSH1 0xFF PUSH1 0x6 DUP3 ADD SLOAD DUP2 DUP2 AND PUSH1 0xA0 DUP6 ADD MSTORE PUSH1 0x8 SHR AND PUSH1 0x6 DUP2 LT ISZERO PUSH2 0x568 JUMPI PUSH2 0x120 SWAP2 PUSH1 0xA SWAP2 PUSH1 0xC0 DUP6 ADD MSTORE PUSH2 0x33AE PUSH1 0x7 DUP3 ADD PUSH2 0x31DC JUMP JUMPDEST PUSH1 0xE0 DUP6 ADD MSTORE PUSH2 0x33BF PUSH1 0x8 DUP3 ADD PUSH2 0x2C90 JUMP JUMPDEST PUSH2 0x100 DUP6 ADD MSTORE ADD SLOAD SWAP2 ADD MSTORE JUMP JUMPDEST SWAP1 SWAP2 PUSH1 0x1 PUSH2 0x400 PUSH1 0x20 SWAP3 DUP6 SLOAD PUSH1 0xFF DUP2 AND DUP3 MSTORE PUSH1 0xFF DUP2 PUSH1 0x8 SHR AND DUP6 DUP4 ADD MSTORE PUSH1 0xFF DUP2 PUSH1 0x10 SHR AND PUSH1 0x40 DUP4 ADD MSTORE PUSH1 0xFF DUP2 PUSH1 0x18 SHR AND PUSH1 0x60 DUP4 ADD MSTORE PUSH1 0xFF DUP2 DUP7 SHR AND PUSH1 0x80 DUP4 ADD MSTORE PUSH1 0xFF DUP2 PUSH1 0x28 SHR AND PUSH1 0xA0 DUP4 ADD MSTORE PUSH1 0xFF DUP2 PUSH1 0x30 SHR AND PUSH1 0xC0 DUP4 ADD MSTORE PUSH1 0xFF DUP2 PUSH1 0x38 SHR AND PUSH1 0xE0 DUP4 ADD MSTORE PUSH1 0xFF DUP2 PUSH1 0x40 SHR AND PUSH2 0x100 DUP4 ADD MSTORE PUSH1 0xFF DUP2 PUSH1 0x48 SHR AND PUSH2 0x120 DUP4 ADD MSTORE PUSH1 0xFF DUP2 PUSH1 0x50 SHR AND PUSH2 0x140 DUP4 ADD MSTORE PUSH1 0xFF DUP2 PUSH1 0x58 SHR AND PUSH2 0x160 DUP4 ADD MSTORE PUSH1 0xFF DUP2 PUSH1 0x60 SHR AND PUSH2 0x180 DUP4 ADD MSTORE PUSH1 0xFF DUP2 PUSH1 0x68 SHR AND PUSH2 0x1A0 DUP4 ADD MSTORE PUSH1 0xFF DUP2 PUSH1 0x70 SHR AND PUSH2 0x1C0 DUP4 ADD MSTORE PUSH1 0xFF DUP2 PUSH1 0x78 SHR AND PUSH2 0x1E0 DUP4 ADD MSTORE PUSH1 0xFF DUP2 PUSH1 0x80 SHR AND PUSH2 0x200 DUP4 ADD MSTORE PUSH1 0xFF DUP2 PUSH1 0x88 SHR AND PUSH2 0x220 DUP4 ADD MSTORE PUSH1 0xFF DUP2 PUSH1 0x90 SHR AND PUSH2 0x240 DUP4 ADD MSTORE PUSH1 0xFF DUP2 PUSH1 0x98 SHR AND PUSH2 0x260 DUP4 ADD MSTORE PUSH1 0xFF DUP2 PUSH1 0xA0 SHR AND PUSH2 0x280 DUP4 ADD MSTORE PUSH1 0xFF DUP2 PUSH1 0xA8 SHR AND PUSH2 0x2A0 DUP4 ADD MSTORE PUSH1 0xFF DUP2 PUSH1 0xB0 SHR AND PUSH2 0x2C0 DUP4 ADD MSTORE PUSH1 0xFF DUP2 PUSH1 0xB8 SHR AND PUSH2 0x2E0 DUP4 ADD MSTORE PUSH1 0xFF DUP2 PUSH1 0xC0 SHR AND PUSH2 0x300 DUP4 ADD MSTORE PUSH1 0xFF DUP2 PUSH1 0xC8 SHR AND PUSH2 0x320 DUP4 ADD MSTORE PUSH1 0xFF DUP2 PUSH1 0xD0 SHR AND PUSH2 0x340 DUP4 ADD MSTORE PUSH1 0xFF DUP2 PUSH1 0xD8 SHR AND PUSH2 0x360 DUP4 ADD MSTORE PUSH1 0xFF DUP2 PUSH1 0xE0 SHR AND PUSH2 0x380 DUP4 ADD MSTORE PUSH1 0xFF DUP2 PUSH1 0xE8 SHR AND PUSH2 0x3A0 DUP4 ADD MSTORE PUSH1 0xFF DUP2 PUSH1 0xF0 SHR AND PUSH2 0x3C0 DUP4 ADD MSTORE PUSH1 0xF8 SHR PUSH2 0x3E0 DUP3 ADD MSTORE ADD SWAP4 ADD SWAP2 ADD PUSH2 0x3279 JUMP JUMPDEST PUSH1 0x40 MLOAD SWAP1 PUSH2 0x357B DUP3 PUSH2 0x2A8E JUMP JUMPDEST PUSH0 PUSH1 0x20 DUP4 DUP3 DUP2 MSTORE ADD MSTORE JUMP JUMPDEST PUSH1 0x40 MLOAD SWAP1 PUSH2 0x3595 PUSH1 0x20 DUP4 PUSH2 0x2AE3 JUMP JUMPDEST PUSH0 DUP1 DUP4 MSTORE DUP3 DUP2 JUMPDEST DUP3 DUP2 LT PUSH2 0x35A8 JUMPI POP POP POP JUMP JUMPDEST PUSH1 0x20 SWAP1 PUSH1 0x40 MLOAD PUSH2 0x35B7 DUP2 PUSH2 0x2A8E JUMP JUMPDEST PUSH0 DUP2 MSTORE PUSH0 DUP4 DUP3 ADD MSTORE DUP3 DUP3 DUP6 ADD ADD MSTORE ADD PUSH2 0x359C JUMP JUMPDEST DUP2 MLOAD DUP2 SLOAD PUSH1 0x20 SWAP4 SWAP1 SWAP4 ADD MLOAD PUSH2 0xFFFF NOT SWAP1 SWAP4 AND PUSH1 0xFF SWAP2 SWAP1 SWAP2 AND OR PUSH1 0x8 SWAP3 SWAP1 SWAP3 SHL PUSH2 0xFF00 AND SWAP2 SWAP1 SWAP2 OR SWAP1 SSTORE JUMP JUMPDEST DUP2 MLOAD DUP2 SLOAD PUSH1 0x1 PUSH1 0x1 PUSH1 0xA0 SHL SUB NOT AND PUSH1 0x1 PUSH1 0x1 PUSH1 0xA0 SHL SUB SWAP2 SWAP1 SWAP2 AND OR DUP2 SSTORE PUSH1 0x20 DUP1 DUP4 ADD MLOAD PUSH1 0x1 DUP4 ADD SSTORE PUSH1 0x40 DUP4 ADD MLOAD PUSH1 0x2 DUP4 ADD SSTORE PUSH1 0x60 DUP4 ADD MLOAD DUP1 MLOAD SWAP2 PUSH1 0x3 DUP5 ADD SWAP2 PUSH2 0x363F DUP5 DUP5 PUSH2 0x2E7A JUMP JUMPDEST ADD SWAP1 PUSH0 MSTORE PUSH1 0x20 PUSH0 KECCAK256 PUSH0 SWAP2 JUMPDEST DUP4 DUP4 LT PUSH2 0x3694 JUMPI POP POP POP POP SWAP1 PUSH1 0xA0 PUSH1 0x4 PUSH2 0x2FC6 SWAP4 ADD SWAP2 PUSH2 0x367C PUSH1 0x80 DUP3 ADD MLOAD ISZERO ISZERO DUP5 SWAP1 PUSH1 0xFF DUP1 NOT DUP4 SLOAD AND SWAP2 ISZERO ISZERO AND OR SWAP1 SSTORE JUMP JUMPDEST ADD MLOAD DUP2 SLOAD PUSH2 0xFF00 NOT AND SWAP1 ISZERO ISZERO PUSH1 0x8 SHL PUSH2 0xFF00 AND OR SWAP1 SSTORE JUMP JUMPDEST PUSH1 0x1 PUSH1 0x20 DUP3 PUSH2 0x36A5 DUP4 SWAP5 MLOAD DUP7 PUSH2 0x35CB JUMP JUMPDEST ADD SWAP3 ADD SWAP3 ADD SWAP2 SWAP1 PUSH2 0x364A JUMP JUMPDEST PUSH1 0x40 MLOAD SWAP1 PUSH2 0x36BE DUP3 PUSH2 0x2A8E JUMP JUMPDEST PUSH0 PUSH1 0x20 DUP4 PUSH1 0x60 DUP2 MSTORE ADD MSTORE JUMP JUMPDEST ISZERO PUSH2 0x36D1 JUMPI JUMP JUMPDEST PUSH1 0x40 MLOAD PUSH3 0x461BCD PUSH1 0xE5 SHL DUP2 MSTORE PUSH1 0x20 PUSH1 0x4 DUP3 ADD MSTORE PUSH1 0x12 PUSH1 0x24 DUP3 ADD MSTORE PUSH18 0x47616D65206973206E6F7420616374697665 PUSH1 0x70 SHL PUSH1 0x44 DUP3 ADD MSTORE PUSH1 0x64 SWAP1 REVERT JUMPDEST ISZERO PUSH2 0x3712 JUMPI JUMP JUMPDEST PUSH1 0x40 MLOAD PUSH3 0x461BCD PUSH1 0xE5 SHL DUP2 MSTORE PUSH1 0x20 PUSH1 0x4 DUP3 ADD MSTORE PUSH1 0x16 PUSH1 0x24 DUP3 ADD MSTORE PUSH22 0x4E6F7420706C61796572207475726E73207068617365 PUSH1 0x50 SHL PUSH1 0x44 DUP3 ADD MSTORE PUSH1 0x64 SWAP1 REVERT JUMPDEST ISZERO PUSH2 0x3757 JUMPI JUMP JUMPDEST PUSH1 0x40 MLOAD PUSH3 0x461BCD PUSH1 0xE5 SHL DUP2 MSTORE PUSH1 0x20 PUSH1 0x4 DUP3 ADD MSTORE PUSH1 0xD PUSH1 0x24 DUP3 ADD MSTORE PUSH13 0x2737BA103CB7BAB9103A3AB937 PUSH1 0x99 SHL PUSH1 0x44 DUP3 ADD MSTORE PUSH1 0x64 SWAP1 REVERT JUMPDEST PUSH0 NOT DUP2 EQ PUSH2 0x505 JUMPI PUSH1 0x1 ADD SWAP1 JUMP JUMPDEST SWAP1 DUP2 PUSH1 0x20 SWAP2 SUB SLT PUSH2 0x2BF JUMPI MLOAD PUSH1 0x1 PUSH1 0x1 PUSH1 0xA0 SHL SUB DUP2 AND DUP2 SUB PUSH2 0x2BF JUMPI SWAP1 JUMP JUMPDEST SWAP1 DUP2 ISZERO DUP1 ISZERO PUSH2 0x390D JUMPI JUMPDEST PUSH2 0x38CE JUMPI PUSH1 0x1 DUP1 PUSH1 0xA0 SHL SUB AND SWAP1 DUP2 PUSH0 MSTORE PUSH1 0x1 PUSH1 0x20 MSTORE DUP1 PUSH1 0x40 PUSH0 KECCAK256 SLOAD SUB PUSH2 0x38CE JUMPI PUSH0 NOT DUP2 ADD SWAP1 DUP2 GT PUSH2 0x505 JUMPI PUSH2 0x37F7 SWAP1 PUSH2 0x2BDB JUMP JUMPDEST POP SWAP1 PUSH1 0xFF PUSH1 0x1 DUP4 ADD SLOAD AND PUSH1 0x3 DUP2 LT ISZERO PUSH2 0x568 JUMPI PUSH1 0x1 EQ DUP1 ISZERO SWAP1 PUSH2 0x38EF JUMPI JUMPDEST PUSH2 0x38CE JUMPI PUSH1 0x7 PUSH0 SWAP3 ADD SWAP1 DUP2 SLOAD SWAP3 JUMPDEST DUP4 DUP2 LT PUSH2 0x3832 JUMPI POP POP POP POP PUSH0 SWAP1 JUMP JUMPDEST DUP2 PUSH2 0x383D DUP3 DUP6 PUSH2 0x2E24 JUMP JUMPDEST POP SLOAD PUSH1 0x1 PUSH1 0x1 PUSH1 0xA0 SHL SUB AND EQ PUSH2 0x3855 JUMPI PUSH1 0x1 ADD PUSH2 0x3823 JUMP JUMPDEST SWAP3 POP POP PUSH1 0xFF PUSH1 0x4 PUSH2 0x3866 DUP5 DUP5 PUSH2 0x2E24 JUMP JUMPDEST POP ADD SLOAD AND ISZERO DUP1 ISZERO PUSH2 0x38D4 JUMPI JUMPDEST PUSH2 0x38CE JUMPI PUSH0 JUMPDEST DUP3 DUP2 LT PUSH2 0x3887 JUMPI POP POP POP PUSH1 0x1 SWAP1 JUMP JUMPDEST PUSH1 0xFF PUSH1 0x4 PUSH2 0x3895 DUP4 DUP6 PUSH2 0x2E24 JUMP JUMPDEST POP ADD SLOAD AND DUP1 PUSH2 0x38B2 JUMPI JUMPDEST PUSH2 0x38AB JUMPI PUSH1 0x1 ADD PUSH2 0x3878 JUMP JUMPDEST POP POP POP PUSH0 SWAP1 JUMP JUMPDEST POP PUSH1 0xFF PUSH1 0x4 PUSH2 0x38C1 DUP4 DUP6 PUSH2 0x2E24 JUMP JUMPDEST POP ADD SLOAD PUSH1 0x8 SHR AND ISZERO PUSH2 0x389F JUMP JUMPDEST POP POP PUSH0 SWAP1 JUMP JUMPDEST POP PUSH1 0xFF PUSH1 0x4 PUSH2 0x38E3 DUP5 DUP5 PUSH2 0x2E24 JUMP JUMPDEST POP ADD SLOAD PUSH1 0x8 SHR AND PUSH2 0x3872 JUMP JUMPDEST POP PUSH1 0xFF PUSH1 0x6 DUP4 ADD SLOAD PUSH1 0x8 SHR AND PUSH1 0x6 DUP2 LT ISZERO PUSH2 0x568 JUMPI PUSH1 0x2 EQ ISZERO PUSH2 0x3815 JUMP JUMPDEST POP PUSH0 SLOAD DUP3 GT PUSH2 0x37C3 JUMP JUMPDEST ISZERO PUSH2 0x391E JUMPI JUMP JUMPDEST PUSH1 0x40 MLOAD PUSH3 0x461BCD PUSH1 0xE5 SHL DUP2 MSTORE PUSH1 0x20 PUSH1 0x4 DUP3 ADD MSTORE PUSH1 0xA PUSH1 0x24 DUP3 ADD MSTORE PUSH10 0x27B7363C9037BBB732B9 PUSH1 0xB1 SHL PUSH1 0x44 DUP3 ADD MSTORE PUSH1 0x64 SWAP1 REVERT JUMPDEST DUP1 ISZERO DUP1 ISZERO PUSH2 0x3A01 JUMPI JUMPDEST PUSH2 0x39FC JUMPI PUSH0 NOT DUP2 ADD SWAP1 DUP2 GT PUSH2 0x505 JUMPI PUSH2 0x3971 SWAP1 PUSH2 0x2BDB JUMP JUMPDEST POP PUSH1 0xFF PUSH1 0x6 DUP3 ADD SLOAD PUSH1 0x8 SHR AND PUSH1 0x6 DUP2 LT ISZERO PUSH2 0x568 JUMPI PUSH1 0x2 SUB PUSH2 0x39FC JUMPI PUSH1 0x7 ADD DUP1 SLOAD SWAP1 PUSH0 JUMPDEST DUP3 DUP2 LT PUSH2 0x39A3 JUMPI POP POP POP PUSH0 SWAP1 JUMP JUMPDEST PUSH1 0xFF PUSH1 0x4 PUSH2 0x39B1 DUP4 DUP6 PUSH2 0x2E24 JUMP JUMPDEST POP ADD SLOAD AND DUP1 PUSH2 0x39E0 JUMPI JUMPDEST PUSH2 0x39C7 JUMPI PUSH1 0x1 ADD PUSH2 0x3995 JUMP JUMPDEST SWAP1 PUSH2 0x39D2 SWAP3 POP PUSH2 0x2E24 JUMP JUMPDEST POP SLOAD PUSH1 0x1 PUSH1 0x1 PUSH1 0xA0 SHL SUB AND SWAP1 JUMP JUMPDEST POP PUSH1 0xFF PUSH1 0x4 PUSH2 0x39EF DUP4 DUP6 PUSH2 0x2E24 JUMP JUMPDEST POP ADD SLOAD PUSH1 0x8 SHR AND ISZERO PUSH2 0x39BB JUMP JUMPDEST POP PUSH0 SWAP1 JUMP JUMPDEST POP PUSH0 SLOAD DUP2 GT PUSH2 0x3959 JUMP JUMPDEST PUSH1 0x40 MLOAD PUSH2 0x3A17 DUP2 PUSH2 0x2AC7 JUMP JUMPDEST PUSH0 DUP2 MSTORE PUSH0 PUSH1 0x20 DUP3 ADD MSTORE PUSH0 PUSH1 0x40 DUP3 ADD MSTORE PUSH1 0x60 DUP1 DUP3 ADD MSTORE PUSH0 PUSH1 0x80 DUP3 ADD MSTORE PUSH0 PUSH1 0xA0 DUP3 ADD MSTORE POP DUP1 ISZERO ISZERO DUP1 PUSH2 0x3B00 JUMPI JUMPDEST PUSH2 0x3A4B SWAP1 PUSH2 0x2D95 JUMP JUMPDEST PUSH0 NOT DUP2 ADD SWAP1 DUP2 GT PUSH2 0x505 JUMPI PUSH0 JUMPDEST PUSH1 0x7 PUSH2 0x3A63 DUP4 PUSH2 0x2BDB JUMP JUMPDEST POP ADD SLOAD DUP2 LT ISZERO PUSH2 0x3ABB JUMPI PUSH2 0x3A83 DUP2 PUSH1 0x7 PUSH2 0x3A7C DUP6 PUSH2 0x2BDB JUMP JUMPDEST POP ADD PUSH2 0x2E24 JUMP JUMPDEST POP SLOAD PUSH1 0x1 PUSH1 0x1 PUSH1 0xA0 SHL SUB DUP5 DUP2 AND SWAP2 AND EQ PUSH2 0x3A9F JUMPI PUSH1 0x1 ADD PUSH2 0x3A58 JUMP JUMPDEST PUSH2 0x3AB8 SWAP3 POP PUSH1 0x7 PUSH2 0x3A7C PUSH2 0x3AB2 SWAP4 PUSH2 0x2BDB JUMP JUMPDEST POP PUSH2 0x3180 JUMP JUMPDEST SWAP1 JUMP JUMPDEST PUSH1 0x40 MLOAD PUSH3 0x461BCD PUSH1 0xE5 SHL DUP2 MSTORE PUSH1 0x20 PUSH1 0x4 DUP3 ADD MSTORE PUSH1 0x1E PUSH1 0x24 DUP3 ADD MSTORE PUSH32 0x506C61796572206E6F7420666F756E642061742074686973207461626C650000 PUSH1 0x44 DUP3 ADD MSTORE PUSH1 0x64 SWAP1 REVERT JUMPDEST POP PUSH0 SLOAD DUP2 GT ISZERO PUSH2 0x3A42 JUMP JUMPDEST DUP1 SLOAD DUP3 LT ISZERO PUSH2 0x2C13 JUMPI PUSH0 MSTORE PUSH1 0x20 PUSH0 KECCAK256 ADD SWAP1 PUSH0 SWAP1 JUMP JUMPDEST DUP1 ISZERO ISZERO DUP1 PUSH2 0x3B4A JUMPI JUMPDEST PUSH2 0x3B32 SWAP1 PUSH2 0x2D95 JUMP JUMPDEST PUSH0 NOT DUP2 ADD SWAP1 DUP2 GT PUSH2 0x505 JUMPI PUSH2 0x3B46 SWAP1 PUSH2 0x2BDB JUMP JUMPDEST POP SWAP1 JUMP JUMPDEST POP PUSH0 SLOAD DUP2 GT ISZERO PUSH2 0x3B29 JUMP JUMPDEST PUSH2 0x3B5E SWAP1 PUSH2 0x3B20 JUMP JUMPDEST PUSH1 0x7 ADD DUP1 SLOAD SWAP2 SWAP1 PUSH0 JUMPDEST DUP4 DUP2 LT PUSH2 0x3BA6 JUMPI PUSH1 0x40 MLOAD PUSH3 0x461BCD PUSH1 0xE5 SHL DUP2 MSTORE PUSH1 0x20 PUSH1 0x4 DUP3 ADD MSTORE PUSH1 0x10 PUSH1 0x24 DUP3 ADD MSTORE PUSH16 0x141B185E595C881B9BDD08199BDD5B99 PUSH1 0x82 SHL PUSH1 0x44 DUP3 ADD MSTORE PUSH1 0x64 SWAP1 REVERT JUMPDEST PUSH2 0x3BB0 DUP2 DUP4 PUSH2 0x2E24 JUMP JUMPDEST POP SLOAD PUSH1 0x1 PUSH1 0x1 PUSH1 0xA0 SHL SUB DUP5 DUP2 AND SWAP2 AND EQ PUSH2 0x3BCC JUMPI PUSH1 0x1 ADD PUSH2 0x3B67 JUMP JUMPDEST SWAP3 POP POP POP SWAP1 JUMP JUMPDEST PUSH2 0x3BDC SWAP1 PUSH2 0x3B20 JUMP JUMPDEST PUSH1 0x7 ADD DUP1 SLOAD SWAP1 PUSH0 JUMPDEST DUP3 DUP2 LT PUSH2 0x3BF2 JUMPI POP POP POP PUSH0 SWAP1 JUMP JUMPDEST PUSH1 0xFF PUSH1 0x4 PUSH2 0x3C00 DUP4 DUP6 PUSH2 0x2E24 JUMP JUMPDEST POP ADD SLOAD AND DUP1 PUSH2 0x3C85 JUMPI JUMPDEST PUSH2 0x3C17 JUMPI JUMPDEST PUSH1 0x1 ADD PUSH2 0x3BE4 JUMP JUMPDEST PUSH2 0x3C21 DUP2 DUP4 PUSH2 0x2E24 JUMP JUMPDEST POP SLOAD PUSH1 0x1 PUSH1 0x1 PUSH1 0xA0 SHL SUB AND CALLER SUB PUSH2 0x3C0F JUMPI SWAP2 POP PUSH0 JUMPDEST DUP3 DUP2 LT PUSH2 0x3C45 JUMPI POP POP POP PUSH1 0x1 SWAP1 JUMP JUMPDEST PUSH1 0xFF PUSH1 0x4 PUSH2 0x3C53 DUP4 DUP6 PUSH2 0x2E24 JUMP JUMPDEST POP ADD SLOAD AND DUP1 PUSH2 0x3C69 JUMPI JUMPDEST PUSH2 0x38AB JUMPI PUSH1 0x1 ADD PUSH2 0x3C36 JUMP JUMPDEST POP PUSH1 0xFF PUSH1 0x4 PUSH2 0x3C78 DUP4 DUP6 PUSH2 0x2E24 JUMP JUMPDEST POP ADD SLOAD PUSH1 0x8 SHR AND ISZERO PUSH2 0x3C5D JUMP JUMPDEST POP PUSH1 0xFF PUSH1 0x4 PUSH2 0x3C94 DUP4 DUP6 PUSH2 0x2E24 JUMP JUMPDEST POP ADD SLOAD PUSH1 0x8 SHR AND ISZERO PUSH2 0x3C0A JUMP JUMPDEST ISZERO PUSH2 0x3CA8 JUMPI JUMP JUMPDEST PUSH1 0x40 MLOAD PUSH3 0x461BCD PUSH1 0xE5 SHL DUP2 MSTORE PUSH1 0x20 PUSH1 0x4 DUP3 ADD MSTORE PUSH1 0xE PUSH1 0x24 DUP3 ADD MSTORE PUSH14 0x111958DAC8195E1A185D5CDD1959 PUSH1 0x92 SHL PUSH1 0x44 DUP3 ADD MSTORE PUSH1 0x64 SWAP1 REVERT JUMPDEST SWAP2 SWAP1 SWAP2 PUSH1 0x34 DUP4 LT ISZERO PUSH2 0x2C13 JUMPI PUSH1 0x1F SWAP1 DUP4 PUSH1 0x5 SHR ADD SWAP3 AND SWAP1 JUMP JUMPDEST PUSH1 0xFF AND PUSH1 0xFF DUP2 EQ PUSH2 0x505 JUMPI PUSH1 0x1 ADD SWAP1 JUMP JUMPDEST DUP1 SLOAD PUSH1 0x1 PUSH1 0x40 SHL DUP2 LT ISZERO PUSH2 0x2070 JUMPI PUSH2 0x3D25 SWAP2 PUSH1 0x1 DUP3 ADD DUP2 SSTORE PUSH2 0x3B0B JUMP JUMPDEST SWAP2 SWAP1 SWAP2 PUSH2 0x205D JUMPI PUSH2 0x2FC6 SWAP2 PUSH2 0x35CB JUMP JUMPDEST SWAP1 PUSH2 0x3D3F DUP3 PUSH2 0x3B20 JUMP JUMPDEST SWAP2 PUSH1 0x6 DUP4 ADD SWAP2 PUSH1 0xFF DUP4 SLOAD AND SWAP3 PUSH2 0x3D57 PUSH1 0x34 DUP6 LT PUSH2 0x3CA1 JUMP JUMPDEST PUSH1 0xFF PUSH2 0x3D80 PUSH2 0x3D7A DUP3 PUSH2 0x3D6D DUP9 PUSH1 0x4 DUP12 ADD PUSH2 0x3CDE JUMP JUMPDEST SWAP1 SLOAD SWAP1 PUSH1 0x3 SHL SHR AND PUSH2 0x46F5 JUMP JUMPDEST SWAP6 PUSH2 0x3CF7 JUMP JUMPDEST AND PUSH1 0xFF NOT DUP3 SLOAD AND OR SWAP1 SSTORE PUSH1 0x7 PUSH0 SWAP5 ADD SWAP4 JUMPDEST DUP5 SLOAD DUP2 LT ISZERO PUSH2 0x3E12 JUMPI PUSH2 0x3DA4 DUP2 DUP7 PUSH2 0x2E24 JUMP JUMPDEST POP SLOAD PUSH1 0x1 PUSH1 0x1 PUSH1 0xA0 SHL SUB DUP4 DUP2 AND SWAP2 AND EQ PUSH2 0x3DC0 JUMPI PUSH1 0x1 ADD PUSH2 0x3D91 JUMP JUMPDEST SWAP1 PUSH2 0x3DEA DUP5 PUSH1 0x3 PUSH2 0x3DE3 PUSH1 0x40 SWAP6 PUSH0 MLOAD PUSH1 0x20 PUSH2 0x47EB PUSH0 CODECOPY PUSH0 MLOAD SWAP1 PUSH0 MSTORE SWAP8 SWAP9 SWAP10 PUSH2 0x2E24 JUMP JUMPDEST POP ADD PUSH2 0x3D08 JUMP JUMPDEST PUSH2 0x3E05 DUP3 MLOAD DUP1 SWAP7 PUSH1 0xFF PUSH1 0x20 DUP1 SWAP3 DUP3 DUP2 MLOAD AND DUP6 MSTORE ADD MLOAD AND SWAP2 ADD MSTORE JUMP JUMPDEST PUSH1 0x1 PUSH1 0x1 PUSH1 0xA0 SHL SUB AND SWAP4 LOG3 JUMP JUMPDEST POP PUSH0 MLOAD PUSH1 0x20 PUSH2 0x47EB PUSH0 CODECOPY PUSH0 MLOAD SWAP1 PUSH0 MSTORE SWAP2 SWAP3 SWAP4 POP PUSH1 0x40 SWAP1 PUSH2 0x3DEA JUMP JUMPDEST PUSH2 0x3E36 DUP2 PUSH2 0x3B20 JUMP JUMPDEST PUSH1 0x7 ADD DUP1 SLOAD SWAP2 SWAP1 PUSH0 JUMPDEST DUP4 DUP2 LT PUSH2 0x3E52 JUMPI POP POP PUSH2 0x2FC6 SWAP2 POP PUSH2 0x3F81 JUMP JUMPDEST PUSH1 0xFF PUSH1 0x4 PUSH2 0x3E60 DUP4 DUP6 PUSH2 0x2E24 JUMP JUMPDEST POP ADD SLOAD AND DUP1 PUSH2 0x3E7C JUMPI JUMPDEST PUSH2 0x3E76 JUMPI PUSH1 0x1 ADD PUSH2 0x3E3F JUMP JUMPDEST POP POP POP POP JUMP JUMPDEST POP PUSH1 0xFF PUSH1 0x4 PUSH2 0x3E8B DUP4 DUP6 PUSH2 0x2E24 JUMP JUMPDEST POP ADD SLOAD PUSH1 0x8 SHR AND ISZERO PUSH2 0x3E6A JUMP JUMPDEST DUP1 MLOAD DUP3 LT ISZERO PUSH2 0x2C13 JUMPI PUSH1 0x20 SWAP2 PUSH1 0x5 SHL ADD ADD SWAP1 JUMP JUMPDEST PUSH0 SWAP2 SWAP1 DUP3 SWAP1 DUP2 JUMPDEST DUP2 MLOAD DUP6 LT ISZERO PUSH2 0x3F42 JUMPI PUSH1 0xE PUSH1 0xFF PUSH2 0x3ECA DUP8 DUP6 PUSH2 0x3E98 JUMP JUMPDEST MLOAD MLOAD AND SUB PUSH2 0x3EF3 JUMPI PUSH1 0xB DUP2 ADD DUP1 SWAP2 GT PUSH2 0x505 JUMPI PUSH2 0x3EE9 PUSH1 0x1 SWAP2 SWAP4 PUSH2 0x378C JUMP JUMPDEST SWAP5 JUMPDEST ADD SWAP4 SWAP2 PUSH2 0x3EB3 JUMP JUMPDEST PUSH1 0xA PUSH1 0xFF PUSH2 0x3F04 DUP8 DUP6 SWAP9 SWAP7 SWAP9 PUSH2 0x3E98 JUMP JUMPDEST MLOAD MLOAD AND GT ISZERO PUSH2 0x3F21 JUMPI PUSH1 0xA DUP2 ADD DUP1 SWAP2 GT PUSH2 0x505 JUMPI PUSH1 0x1 SWAP1 SWAP3 PUSH2 0x3EEB JUMP JUMPDEST PUSH2 0x3F3C PUSH1 0x1 SWAP2 PUSH1 0xFF PUSH2 0x3F33 DUP7 DUP7 PUSH2 0x3E98 JUMP JUMPDEST MLOAD MLOAD AND SWAP1 PUSH2 0x2E3D JUMP JUMPDEST SWAP3 PUSH2 0x3EEB JUMP JUMPDEST SWAP2 SWAP3 SWAP4 POP POP JUMPDEST PUSH1 0x15 DUP2 GT DUP1 PUSH2 0x3F78 JUMPI JUMPDEST ISZERO PUSH2 0x3F73 JUMPI PUSH1 0x9 NOT DUP2 ADD SWAP1 DUP2 GT PUSH2 0x505 JUMPI SWAP1 DUP1 ISZERO PUSH2 0x505 JUMPI PUSH0 NOT ADD SWAP1 PUSH2 0x3F48 JUMP JUMPDEST SWAP1 POP SWAP1 JUMP JUMPDEST POP DUP2 ISZERO ISZERO PUSH2 0x3F52 JUMP JUMPDEST SWAP1 PUSH2 0x3F8B DUP3 PUSH2 0x3B20 JUMP JUMPDEST PUSH1 0x6 DUP2 ADD SWAP1 PUSH2 0x300 PUSH2 0xFF00 NOT DUP4 SLOAD AND OR DUP3 SSTORE PUSH1 0x8 DUP2 ADD DUP1 SLOAD PUSH1 0x1 LT ISZERO PUSH2 0x2C13 JUMPI DUP1 PUSH0 MSTORE DUP5 PUSH32 0x7500685859874DA230D9E3B31D1CE014262E99E340E89CCB0B9C8B96818CB595 PUSH2 0x3FFC PUSH1 0x1 PUSH1 0x20 PUSH0 KECCAK256 ADD PUSH1 0x40 MLOAD SWAP2 DUP3 SWAP2 DUP3 SWAP2 SWAP1 SWAP2 PUSH1 0x20 PUSH1 0xFF PUSH1 0x40 DUP4 ADD SWAP5 SLOAD DUP2 DUP2 AND DUP5 MSTORE PUSH1 0x8 SHR AND SWAP2 ADD MSTORE JUMP JUMPDEST SUB SWAP1 LOG2 PUSH1 0x11 PUSH2 0x400D PUSH2 0x4BB DUP4 PUSH2 0x2C27 JUMP JUMPDEST LT PUSH2 0x4601 JUMPI POP PUSH1 0x9 ADD DUP1 SLOAD PUSH1 0xFF NOT AND PUSH1 0x1 OR SWAP1 SSTORE DUP1 SLOAD PUSH2 0xFF00 NOT AND PUSH2 0x400 OR SWAP1 SSTORE PUSH2 0x4037 DUP3 PUSH2 0x3B20 JUMP JUMPDEST SWAP1 PUSH2 0x4047 PUSH2 0x4BB PUSH1 0x8 DUP5 ADD PUSH2 0x2C27 JUMP JUMPDEST SWAP3 PUSH1 0x15 DUP5 GT PUSH0 PUSH1 0x7 PUSH0 SWAP6 ADD SWAP5 DUP6 SLOAD SWAP1 JUMPDEST DUP2 DUP2 LT PUSH2 0x4583 JUMPI POP POP PUSH2 0x4069 DUP2 PUSH2 0x2B05 JUMP JUMPDEST SWAP2 PUSH2 0x4077 PUSH1 0x40 MLOAD SWAP4 DUP5 PUSH2 0x2AE3 JUMP JUMPDEST DUP2 DUP4 MSTORE PUSH2 0x4083 DUP3 PUSH2 0x2B05 JUMP JUMPDEST PUSH1 0x20 DUP5 ADD SWAP7 SWAP1 PUSH1 0x1F NOT ADD CALLDATASIZE DUP9 CALLDATACOPY PUSH2 0x40B2 PUSH2 0x409C DUP5 PUSH2 0x2B05 JUMP JUMPDEST SWAP4 PUSH2 0x40AA PUSH1 0x40 MLOAD SWAP6 DUP7 PUSH2 0x2AE3 JUMP JUMPDEST DUP1 DUP6 MSTORE PUSH2 0x2B05 JUMP JUMPDEST PUSH1 0x20 DUP5 ADD SWAP7 SWAP1 PUSH1 0x1F NOT ADD CALLDATASIZE DUP9 CALLDATACOPY PUSH0 SWAP7 DUP8 JUMPDEST DUP4 SLOAD DUP10 LT ISZERO PUSH2 0x42E9 JUMPI PUSH2 0x40D6 DUP10 DUP6 PUSH2 0x2E24 JUMP JUMPDEST POP SWAP9 PUSH1 0xFF PUSH1 0x4 DUP12 ADD SLOAD AND ISZERO PUSH2 0x42DF JUMPI PUSH1 0x3 DUP11 ADD DUP13 PUSH2 0x4102 PUSH2 0x313 PUSH2 0x40FC PUSH2 0x4BB DUP6 PUSH2 0x2C27 JUMP JUMPDEST SWAP4 PUSH2 0x2C27 JUMP JUMPDEST SWAP2 PUSH1 0x15 DUP2 GT PUSH2 0x42D2 JUMPI DUP9 ISZERO PUSH2 0x41E9 JUMPI POP POP ISZERO PUSH2 0x41A2 JUMPI PUSH1 0x2 DUP11 ADD SLOAD SWAP2 PUSH1 0x3 DUP4 MUL DUP4 DUP2 DIV PUSH1 0x3 EQ DUP5 ISZERO OR ISZERO PUSH2 0x505 JUMPI PUSH0 MLOAD PUSH1 0x20 PUSH2 0x480B PUSH0 CODECOPY PUSH0 MLOAD SWAP1 PUSH0 MSTORE PUSH1 0x20 PUSH2 0x4178 PUSH1 0x1 DUP16 DUP16 SWAP6 DUP16 SWAP2 DUP16 DUP10 PUSH2 0x417E SWAP2 PUSH2 0x4184 SWAP6 PUSH2 0x4163 DUP9 SWAP16 DUP5 SWAP8 DUP11 SHR SWAP1 PUSH2 0x2E3D JUMP JUMPDEST SWAP9 DUP10 SWAP6 JUMPDEST DUP10 DUP1 PUSH1 0xA0 SHL SUB SWAP1 SLOAD AND SWAP14 DUP15 SWAP3 PUSH2 0x3E98 JUMP JUMPDEST MSTORE PUSH2 0x3E98 JUMP JUMPDEST MSTORE PUSH2 0x378C JUMP JUMPDEST SWAP16 ADD PUSH2 0x4191 DUP3 DUP3 SLOAD PUSH2 0x2E3D JUMP JUMPDEST SWAP1 SSTORE PUSH1 0x40 MLOAD SWAP1 DUP2 MSTORE LOG3 JUMPDEST ADD SWAP8 PUSH2 0x40C3 JUMP JUMPDEST PUSH1 0x2 DUP11 ADD SLOAD SWAP2 DUP3 PUSH1 0x1 SHL SWAP3 DUP1 DUP5 DIV PUSH1 0x2 EQ SWAP1 ISZERO OR ISZERO PUSH2 0x505 JUMPI DUP10 PUSH0 MLOAD PUSH1 0x20 PUSH2 0x480B PUSH0 CODECOPY PUSH0 MLOAD SWAP1 PUSH0 MSTORE PUSH1 0x20 PUSH2 0x4178 PUSH1 0x1 DUP16 DUP7 DUP16 SWAP2 DUP16 DUP3 PUSH2 0x417E SWAP2 PUSH2 0x4184 SWAP6 DUP8 SWAP15 SWAP9 DUP10 SWAP6 PUSH2 0x4167 JUMP JUMPDEST DUP2 DUP2 GT ISZERO PUSH2 0x42A5 JUMPI POP POP ISZERO PUSH2 0x425E JUMPI PUSH1 0x2 DUP11 ADD SLOAD SWAP2 PUSH1 0x3 DUP4 MUL DUP4 DUP2 DIV PUSH1 0x3 EQ DUP5 ISZERO OR ISZERO PUSH2 0x505 JUMPI PUSH0 MLOAD PUSH1 0x20 PUSH2 0x480B PUSH0 CODECOPY PUSH0 MLOAD SWAP1 PUSH0 MSTORE PUSH1 0x20 PUSH2 0x4178 PUSH1 0x1 DUP16 DUP16 SWAP6 DUP16 SWAP2 DUP16 DUP10 PUSH2 0x417E SWAP2 PUSH2 0x4243 SWAP6 PUSH2 0x4163 DUP9 SWAP16 DUP5 SWAP8 DUP11 SHR SWAP1 PUSH2 0x2E3D JUMP JUMPDEST SWAP16 ADD PUSH2 0x4250 DUP3 DUP3 SLOAD PUSH2 0x2E3D JUMP JUMPDEST SWAP1 SSTORE PUSH1 0x40 MLOAD SWAP1 DUP2 MSTORE LOG3 PUSH2 0x419B JUMP JUMPDEST PUSH1 0x2 DUP11 ADD SLOAD SWAP2 DUP3 PUSH1 0x1 SHL SWAP3 DUP1 DUP5 DIV PUSH1 0x2 EQ SWAP1 ISZERO OR ISZERO PUSH2 0x505 JUMPI DUP10 PUSH0 MLOAD PUSH1 0x20 PUSH2 0x480B PUSH0 CODECOPY PUSH0 MLOAD SWAP1 PUSH0 MSTORE PUSH1 0x20 PUSH2 0x4178 PUSH1 0x1 DUP16 DUP7 DUP16 SWAP2 DUP16 DUP3 PUSH2 0x417E SWAP2 PUSH2 0x4243 SWAP6 DUP8 SWAP15 SWAP9 DUP10 SWAP6 PUSH2 0x4167 JUMP JUMPDEST PUSH1 0x1 SWAP5 SWAP13 SWAP3 POP EQ PUSH2 0x42B7 JUMPI JUMPDEST POP PUSH2 0x419B JUMP JUMPDEST PUSH2 0x42CA DUP4 PUSH1 0x2 DUP4 ADD SLOAD SWAP3 ADD SWAP2 DUP3 SLOAD PUSH2 0x2E3D JUMP JUMPDEST SWAP1 SSTORE PUSH0 PUSH2 0x42B1 JUMP JUMPDEST POP POP POP PUSH1 0x1 SWAP2 SWAP10 POP PUSH2 0x419B JUMP JUMPDEST PUSH1 0x1 SWAP2 SWAP10 POP PUSH2 0x419B JUMP JUMPDEST POP SWAP6 SWAP8 SWAP5 SWAP7 POP SWAP8 POP POP POP DUP4 MLOAD PUSH2 0x44D5 JUMPI JUMPDEST POP POP POP POP PUSH2 0x4307 DUP2 PUSH2 0x3B20 JUMP JUMPDEST PUSH1 0x6 DUP2 ADD DUP1 SLOAD PUSH2 0xFF00 NOT AND SWAP1 SSTORE SWAP1 PUSH1 0x7 DUP3 ADD SWAP1 PUSH0 JUMPDEST DUP3 SLOAD DUP2 LT ISZERO PUSH2 0x43C4 JUMPI PUSH2 0x432D PUSH2 0x3586 JUMP JUMPDEST PUSH1 0x3 PUSH2 0x4339 DUP4 DUP7 PUSH2 0x2E24 JUMP JUMPDEST POP ADD PUSH1 0x20 DUP3 MLOAD SWAP3 PUSH2 0x434A DUP5 DUP5 PUSH2 0x2E7A JUMP JUMPDEST ADD SWAP1 PUSH0 MSTORE PUSH1 0x20 PUSH0 KECCAK256 SWAP1 PUSH0 SWAP1 JUMPDEST DUP4 DUP3 LT PUSH2 0x43A7 JUMPI POP POP POP POP DUP1 PUSH1 0x4 PUSH2 0x4370 PUSH1 0x1 SWAP4 DUP7 PUSH2 0x2E24 JUMP JUMPDEST POP ADD DUP1 SLOAD PUSH1 0xFF NOT AND SWAP1 SSTORE PUSH1 0x4 PUSH2 0x4386 DUP3 DUP7 PUSH2 0x2E24 JUMP JUMPDEST POP ADD DUP1 SLOAD PUSH2 0xFF00 NOT AND SWAP1 SSTORE PUSH0 PUSH1 0x2 PUSH2 0x439E DUP4 DUP8 PUSH2 0x2E24 JUMP JUMPDEST POP ADD SSTORE ADD PUSH2 0x431C JUMP JUMPDEST PUSH1 0x1 PUSH1 0x20 DUP3 PUSH2 0x43B8 DUP4 SWAP5 MLOAD DUP8 PUSH2 0x35CB JUMP JUMPDEST ADD SWAP4 ADD SWAP2 ADD SWAP1 SWAP2 PUSH2 0x4356 JUMP JUMPDEST POP SWAP2 SWAP1 POP PUSH2 0x43D0 PUSH2 0x3586 JUMP JUMPDEST PUSH1 0x8 DUP3 ADD PUSH1 0x20 DUP3 MLOAD SWAP3 PUSH2 0x43E3 DUP5 DUP5 PUSH2 0x2E7A JUMP JUMPDEST ADD SWAP1 PUSH0 MSTORE PUSH1 0x20 PUSH0 KECCAK256 PUSH0 SWAP2 JUMPDEST DUP4 DUP4 LT PUSH2 0x44B8 JUMPI POP POP POP POP PUSH1 0x9 ADD DUP1 SLOAD PUSH1 0xFF NOT AND SWAP1 SSTORE PUSH2 0x440D DUP2 PUSH2 0x3B20 JUMP JUMPDEST PUSH1 0x1 SWAP1 PUSH0 PUSH1 0x7 DUP3 ADD PUSH1 0x2 DUP2 SLOAD SWAP4 ADD SLOAD SWAP2 JUMPDEST DUP4 DUP2 LT PUSH2 0x448C JUMPI JUMPDEST POP POP POP POP PUSH2 0x445C JUMPI JUMPDEST PUSH32 0x70ECA82567B065893A5E6CC590178B6B320855676B6A9A066625933E0C8EBE58 PUSH1 0x20 PUSH1 0x40 MLOAD PUSH1 0x4 DUP2 MSTORE LOG2 JUMP JUMPDEST DUP1 PUSH32 0x70ECA82567B065893A5E6CC590178B6B320855676B6A9A066625933E0C8EBE58 PUSH1 0x20 PUSH1 0x40 MLOAD PUSH0 DUP2 MSTORE LOG2 PUSH2 0x442F JUMP JUMPDEST DUP3 PUSH1 0x1 PUSH2 0x4499 DUP4 DUP6 PUSH2 0x2E24 JUMP JUMPDEST POP ADD SLOAD LT PUSH2 0x44A9 JUMPI PUSH1 0x1 ADD PUSH2 0x441E JUMP JUMPDEST POP POP POP POP POP PUSH0 PUSH0 DUP1 DUP1 DUP1 PUSH2 0x4426 JUMP JUMPDEST PUSH1 0x1 PUSH1 0x20 DUP3 PUSH2 0x44C9 DUP4 SWAP5 MLOAD DUP7 PUSH2 0x35CB JUMP JUMPDEST ADD SWAP3 ADD SWAP3 ADD SWAP2 SWAP1 PUSH2 0x43EE JUMP JUMPDEST PUSH1 0x40 DUP1 MLOAD DUP2 DUP2 MSTORE SWAP5 MLOAD SWAP1 DUP6 ADD DUP2 SWAP1 MSTORE DUP6 SWAP5 SWAP4 SWAP3 PUSH1 0x60 DUP6 ADD SWAP3 SWAP2 PUSH0 JUMPDEST DUP2 DUP2 LT PUSH2 0x4561 JUMPI POP POP POP PUSH1 0x20 SWAP1 DUP5 DUP4 SUB DUP3 DUP7 ADD MSTORE MLOAD SWAP2 DUP3 DUP2 MSTORE ADD SWAP2 SWAP1 PUSH0 JUMPDEST DUP2 DUP2 LT PUSH2 0x4548 JUMPI POP POP POP SWAP1 DUP1 PUSH32 0xB8056501289C04AC55D8A0BE36479249FD1E49C5C138CA3CDA8248A6D07BFD10 SWAP3 SUB SWAP1 LOG2 PUSH0 DUP1 DUP1 DUP1 PUSH2 0x42FA JUMP JUMPDEST DUP3 MLOAD DUP5 MSTORE DUP7 SWAP6 POP PUSH1 0x20 SWAP4 DUP5 ADD SWAP4 SWAP1 SWAP3 ADD SWAP2 PUSH1 0x1 ADD PUSH2 0x450E JUMP JUMPDEST DUP3 MLOAD PUSH1 0x1 PUSH1 0x1 PUSH1 0xA0 SHL SUB AND DUP6 MSTORE DUP9 SWAP8 POP PUSH1 0x20 SWAP5 DUP6 ADD SWAP5 SWAP1 SWAP3 ADD SWAP2 PUSH1 0x1 ADD PUSH2 0x44F0 JUMP JUMPDEST PUSH2 0x458D DUP2 DUP9 PUSH2 0x2E24 JUMP JUMPDEST POP PUSH1 0xFF PUSH1 0x4 DUP3 ADD SLOAD AND ISZERO PUSH2 0x45F8 JUMPI PUSH2 0x4BB PUSH1 0x3 PUSH2 0x45AA SWAP3 ADD PUSH2 0x2C27 JUMP JUMPDEST PUSH1 0x15 DUP2 GT ISZERO SWAP1 DUP2 PUSH2 0x45DA JUMPI JUMPDEST POP PUSH2 0x45C6 JUMPI JUMPDEST PUSH1 0x1 SWAP1 JUMPDEST ADD PUSH2 0x4057 JUMP JUMPDEST SWAP2 PUSH2 0x45D2 PUSH1 0x1 SWAP2 PUSH2 0x378C JUMP JUMPDEST SWAP3 SWAP1 POP PUSH2 0x45BC JUMP JUMPDEST SWAP1 POP DUP9 DUP6 SWAP2 DUP7 ISZERO PUSH2 0x45EE JUMPI JUMPDEST POP POP PUSH0 PUSH2 0x45B6 JUMP JUMPDEST GT SWAP1 POP DUP9 PUSH0 PUSH2 0x45E6 JUMP JUMPDEST POP PUSH1 0x1 SWAP1 PUSH2 0x45C0 JUMP JUMPDEST PUSH2 0x460A DUP6 PUSH2 0x4745 JUMP JUMPDEST PUSH1 0x11 PUSH2 0x4618 PUSH2 0x4BB DUP4 PUSH2 0x2C27 JUMP JUMPDEST DUP7 PUSH32 0xBF4B56BBB9BDB14E56BBE6172AF19EA0186E1D51E3E595CD7680FC02AD786ABB PUSH1 0x40 MLOAD PUSH1 0x20 DUP2 MSTORE DUP1 PUSH2 0x4660 PUSH1 0x20 DUP3 ADD PUSH1 0x40 SWAP1 PUSH1 0x3 DUP2 MSTORE PUSH3 0x121A5D PUSH1 0xEA SHL PUSH1 0x20 DUP3 ADD MSTORE ADD SWAP1 JUMP JUMPDEST SUB SWAP1 LOG2 PUSH2 0x400D JUMP JUMPDEST PUSH1 0x2 DUP2 MLOAD SUB PUSH2 0x39FC JUMPI PUSH1 0x15 PUSH2 0x467C DUP3 PUSH2 0x3EAC JUMP JUMPDEST SUB PUSH2 0x39FC JUMPI PUSH0 SWAP1 PUSH0 SWAP1 PUSH0 JUMPDEST PUSH1 0x2 DUP2 LT PUSH2 0x469A JUMPI POP POP DUP2 PUSH2 0x3F73 JUMPI POP SWAP1 JUMP JUMPDEST PUSH1 0xE PUSH1 0xFF PUSH2 0x46A8 DUP4 DUP6 PUSH2 0x3E98 JUMP JUMPDEST MLOAD MLOAD AND EQ PUSH2 0x46DA JUMPI JUMPDEST PUSH1 0xA PUSH1 0xFF PUSH2 0x46BF DUP4 DUP6 PUSH2 0x3E98 JUMP JUMPDEST MLOAD MLOAD AND LT ISZERO PUSH2 0x46D1 JUMPI JUMPDEST PUSH1 0x1 ADD PUSH2 0x4687 JUMP JUMPDEST PUSH1 0x1 SWAP3 POP PUSH2 0x46C9 JUMP JUMPDEST PUSH1 0x1 SWAP4 POP PUSH2 0x46B1 JUMP JUMPDEST PUSH1 0xFF PUSH0 NOT SWAP2 AND ADD SWAP1 PUSH1 0xFF DUP3 GT PUSH2 0x505 JUMPI JUMP JUMPDEST PUSH2 0x46FD PUSH2 0x356E JUMP JUMPDEST POP PUSH1 0x2 PUSH1 0xFF PUSH1 0xD DUP2 PUSH2 0x471B DUP3 DUP3 PUSH2 0x4713 DUP9 PUSH2 0x46E3 JUMP JUMPDEST AND DIV SWAP6 PUSH2 0x46E3 JUMP JUMPDEST AND MOD AND ADD SWAP1 PUSH1 0xFF DUP3 GT PUSH2 0x505 JUMPI PUSH1 0xFF SWAP1 DUP2 PUSH1 0x40 MLOAD SWAP4 PUSH2 0x4739 DUP6 PUSH2 0x2A8E JUMP JUMPDEST AND DUP4 MSTORE AND PUSH1 0x20 DUP3 ADD MSTORE SWAP1 JUMP JUMPDEST PUSH2 0x4789 SWAP1 PUSH2 0x4799 PUSH2 0x4755 DUP3 PUSH2 0x3B20 JUMP JUMPDEST PUSH1 0x8 PUSH1 0x6 DUP3 ADD SWAP2 PUSH1 0xFF DUP4 SLOAD AND SWAP3 PUSH2 0x476E PUSH1 0x34 DUP6 LT PUSH2 0x3CA1 JUMP JUMPDEST PUSH1 0xFF PUSH2 0x4781 DUP2 PUSH2 0x3D6D DUP8 PUSH1 0x4 DUP8 ADD PUSH2 0x3CDE JUMP JUMPDEST SWAP8 DUP9 SWAP6 PUSH2 0x3CF7 JUMP JUMPDEST AND PUSH1 0xFF NOT DUP3 SLOAD AND OR SWAP1 SSTORE ADD PUSH2 0x3D08 JUMP JUMPDEST PUSH2 0x47B5 PUSH1 0x40 MLOAD DUP1 SWAP4 PUSH1 0xFF PUSH1 0x20 DUP1 SWAP3 DUP3 DUP2 MLOAD AND DUP6 MSTORE ADD MLOAD AND SWAP2 ADD MSTORE JUMP JUMPDEST PUSH0 MLOAD PUSH1 0x20 PUSH2 0x47EB PUSH0 CODECOPY PUSH0 MLOAD SWAP1 PUSH0 MSTORE PUSH1 0x40 ADDRESS SWAP4 LOG3 JUMP INVALID RETURN 0xD4 CREATE2 PUSH31 0x5AAE06B4017C0B2ED81F62AA6F19DEEF046D6A78AD2A4223858C4F0F6F217 STATICCALL 0xDD PUSH18 0x1758A20D81E016907AFE2ADBED4E4D72BE25 TIMESTAMP 0x4B SWAP16 JUMPF 0x1DDD LT EXTCALL 0xAC BLOBHASH PUSH12 0xF04B429BF7A6BB179271F319 BLOCKHASH PUSH7 0xE9462A4F0D8AFA 0xC0 PUSH6 0xEDD1F2BE36B8 LOG2 PUSH5 0x6970667358 0x22 SLT KECCAK256 ADDRESS 0xC4 PUSH9 0x2C76CEA357D519E494 0xC1 RJUMPI 0x1985 0xE 0xEB 0xE 0x4F CALLER 0xCA CALLDATALOAD 0xD6 DUP14 0x21 DUP4 DUP6 0xA8 BLOBHASH BLOBHASH SWAP1 PUSH5 0x736F6C6343 STOP ADDMOD 0x1E STOP CALLER "
		},
		"gasEstimates": {
			"creation": {
				"codeDepositCost": "3705600",
				"executionCost": "28453",
				"totalCost": "3734053"
			},
			"external": {
				"BLACKJACK_PAYOUT()": "835",
				"CHIPS_PER_ETH()": "901",
				"MAX_PLAYERS()": "527",
				"MAX_TABLES()": "505",
				"TURN_TIMEOUT()": "681",
				"WEI_PER_CHIP()": "989",
				"buyChips()": "32913",
				"calculateHandValue((uint8,uint8)[])": "infinite",
				"cashOut(uint256)": "infinite",
				"chipsToEth(uint256)": "645",
				"claimFreeChips()": "57500",
				"createTable(uint256,uint256)": "infinite",
				"doubleDown(uint256)": "infinite",
				"ethToChips(uint256)": "953",
				"forceDealerTurn(uint256)": "infinite",
				"getAllTables()": "infinite",
				"getConversionRates()": "457",
				"getDealerState(uint256)": "infinite",
				"getDetailedGameState(uint256)": "infinite",
				"getGameSummary(uint256)": "infinite",
				"getNextPlayer(uint256)": "infinite",
				"getPlayerChips(address)": "2450",
				"getPlayerInfo(address)": "7291",
				"getPlayerState(uint256,address)": "infinite",
				"getPlayerTableId(address)": "3308",
				"getTablePlayers(uint256)": "infinite",
				"getTableState(uint256)": "infinite",
				"getTablesCount()": "3135",
				"hasClaimedFreeChips(address)": "2528",
				"hasPlayerClaimedFreeChips(address)": "3408",
				"hit(uint256)": "infinite",
				"isBlackjack((uint8,uint8)[])": "infinite",
				"isBusted((uint8,uint8)[])": "infinite",
				"isPlayerTurn(uint256,address)": "infinite",
				"joinTable(uint256,uint256)": "infinite",
				"leaveTable(uint256)": "infinite",
				"owner()": "2927",
				"pause()": "25053",
				"paused()": "2780",
				"placeBet(uint256,uint256)": "infinite",
				"playerChips(address)": "2626",
				"playerTableId(address)": "2398",
				"stand(uint256)": "infinite",
				"tables(uint256)": "infinite",
				"transferOwnership(address)": "25596",
				"unpause()": "24755",
				"withdrawChips(uint256)": "infinite"
			},
			"internal": {
				"_advanceToNextPlayer(uint256)": "infinite",
				"_calculateHandValue(struct Blackjack.Card memory[] memory)": "infinite",
				"_checkForNaturalBlackjacks(uint256)": "infinite",
				"_checkForNextHand(uint256)": "infinite",
				"_dealCardToDealer(uint256)": "infinite",
				"_dealCardToPlayer(uint256,address)": "infinite",
				"_determineWinners(uint256)": "infinite",
				"_getCardFromIndex(uint8)": "infinite",
				"_getPlayerAtTable(uint256,address)": "infinite",
				"_getPlayerIndex(uint256,address)": "infinite",
				"_getTable(uint256)": "infinite",
				"_isBlackjack(struct Blackjack.Card memory[] memory)": "infinite",
				"_isBusted(struct Blackjack.Card memory[] memory)": "infinite",
				"_isMyTurn(uint256)": "infinite",
				"_resetHand(uint256)": "infinite",
				"_shuffleDeck(uint256)": "infinite",
				"_startDealerTurn(uint256)": "infinite",
				"_startNewHand(uint256)": "infinite"
			}
		},
		"methodIdentifiers": {
			"BLACKJACK_PAYOUT()": "9be47570",
			"CHIPS_PER_ETH()": "a73e38d6",
			"MAX_PLAYERS()": "4411b3eb",
			"MAX_TABLES()": "40cb15d8",
			"TURN_TIMEOUT()": "5e82ff65",
			"WEI_PER_CHIP()": "b62b29f6",
			"buyChips()": "9c3930ad",
			"calculateHandValue((uint8,uint8)[])": "57e73f02",
			"cashOut(uint256)": "5c7b79f5",
			"chipsToEth(uint256)": "55266422",
			"claimFreeChips()": "baf5ed86",
			"createTable(uint256,uint256)": "17f12247",
			"doubleDown(uint256)": "27a1d948",
			"ethToChips(uint256)": "9d325c23",
			"forceDealerTurn(uint256)": "80278ae3",
			"getAllTables()": "0e622b91",
			"getConversionRates()": "3e5c73fc",
			"getDealerState(uint256)": "3f47475f",
			"getDetailedGameState(uint256)": "2eb92332",
			"getGameSummary(uint256)": "af8ada5d",
			"getNextPlayer(uint256)": "705c64f2",
			"getPlayerChips(address)": "051036b6",
			"getPlayerInfo(address)": "59328401",
			"getPlayerState(uint256,address)": "b20bfbb9",
			"getPlayerTableId(address)": "d33ada98",
			"getTablePlayers(uint256)": "a88baa63",
			"getTableState(uint256)": "1ffc9a02",
			"getTablesCount()": "bbbe133b",
			"hasClaimedFreeChips(address)": "11568b33",
			"hasPlayerClaimedFreeChips(address)": "ef2490a7",
			"hit(uint256)": "ebf6e91d",
			"isBlackjack((uint8,uint8)[])": "ecd7aebd",
			"isBusted((uint8,uint8)[])": "dfd1e44f",
			"isPlayerTurn(uint256,address)": "3a240e98",
			"joinTable(uint256,uint256)": "1ff7efc0",
			"leaveTable(uint256)": "08ce2011",
			"owner()": "8da5cb5b",
			"pause()": "8456cb59",
			"paused()": "5c975abb",
			"placeBet(uint256,uint256)": "4afe62b5",
			"playerChips(address)": "27ef8c99",
			"playerTableId(address)": "01e22c12",
			"stand(uint256)": "96b76c23",
			"tables(uint256)": "71671bf2",
			"transferOwnership(address)": "f2fde38b",
			"unpause()": "3f4ba83a",
			"withdrawChips(uint256)": "034ae62b"
		}
	},
	"abi": [
		{
			"inputs": [],
			"stateMutability": "nonpayable",
			"type": "constructor"
		},
		{
			"anonymous": false,
			"inputs": [
				{
					"indexed": true,
					"internalType": "uint256",
					"name": "tableId",
					"type": "uint256"
				},
				{
					"indexed": true,
					"internalType": "address",
					"name": "player",
					"type": "address"
				},
				{
					"indexed": false,
					"internalType": "uint256",
					"name": "amount",
					"type": "uint256"
				}
			],
			"name": "BetPlaced",
			"type": "event"
		},
		{
			"anonymous": false,
			"inputs": [
				{
					"indexed": true,
					"internalType": "uint256",
					"name": "tableId",
					"type": "uint256"
				},
				{
					"indexed": true,
					"internalType": "address",
					"name": "player",
					"type": "address"
				},
				{
					"components": [
						{
							"internalType": "uint8",
							"name": "rank",
							"type": "uint8"
						},
						{
							"internalType": "uint8",
							"name": "suit",
							"type": "uint8"
						}
					],
					"indexed": false,
					"internalType": "struct Blackjack.Card",
					"name": "card",
					"type": "tuple"
				}
			],
			"name": "CardDealt",
			"type": "event"
		},
		{
			"anonymous": false,
			"inputs": [
				{
					"indexed": true,
					"internalType": "address",
					"name": "player",
					"type": "address"
				},
				{
					"indexed": false,
					"internalType": "uint256",
					"name": "ethAmount",
					"type": "uint256"
				},
				{
					"indexed": false,
					"internalType": "uint256",
					"name": "chipAmount",
					"type": "uint256"
				}
			],
			"name": "ChipsConverted",
			"type": "event"
		},
		{
			"anonymous": false,
			"inputs": [
				{
					"indexed": true,
					"internalType": "address",
					"name": "player",
					"type": "address"
				},
				{
					"indexed": false,
					"internalType": "uint256",
					"name": "ethAmount",
					"type": "uint256"
				},
				{
					"indexed": false,
					"internalType": "uint256",
					"name": "chipAmount",
					"type": "uint256"
				}
			],
			"name": "ChipsPurchased",
			"type": "event"
		},
		{
			"anonymous": false,
			"inputs": [
				{
					"indexed": true,
					"internalType": "address",
					"name": "player",
					"type": "address"
				},
				{
					"indexed": false,
					"internalType": "uint256",
					"name": "chipAmount",
					"type": "uint256"
				},
				{
					"indexed": false,
					"internalType": "uint256",
					"name": "ethAmount",
					"type": "uint256"
				}
			],
			"name": "ChipsWithdrawn",
			"type": "event"
		},
		{
			"anonymous": false,
			"inputs": [
				{
					"indexed": true,
					"internalType": "uint256",
					"name": "tableId",
					"type": "uint256"
				},
				{
					"indexed": false,
					"internalType": "string",
					"name": "action",
					"type": "string"
				}
			],
			"name": "DealerAction",
			"type": "event"
		},
		{
			"anonymous": false,
			"inputs": [
				{
					"indexed": true,
					"internalType": "uint256",
					"name": "tableId",
					"type": "uint256"
				},
				{
					"components": [
						{
							"internalType": "uint8",
							"name": "rank",
							"type": "uint8"
						},
						{
							"internalType": "uint8",
							"name": "suit",
							"type": "uint8"
						}
					],
					"indexed": false,
					"internalType": "struct Blackjack.Card",
					"name": "card",
					"type": "tuple"
				}
			],
			"name": "DealerCardRevealed",
			"type": "event"
		},
		{
			"anonymous": false,
			"inputs": [
				{
					"indexed": true,
					"internalType": "uint256",
					"name": "tableId",
					"type": "uint256"
				},
				{
					"components": [
						{
							"internalType": "uint8",
							"name": "rank",
							"type": "uint8"
						},
						{
							"internalType": "uint8",
							"name": "suit",
							"type": "uint8"
						}
					],
					"indexed": false,
					"internalType": "struct Blackjack.Card",
					"name": "card",
					"type": "tuple"
				}
			],
			"name": "DealerHoleCardRevealed",
			"type": "event"
		},
		{
			"anonymous": false,
			"inputs": [
				{
					"indexed": true,
					"internalType": "address",
					"name": "player",
					"type": "address"
				},
				{
					"indexed": false,
					"internalType": "uint256",
					"name": "amount",
					"type": "uint256"
				}
			],
			"name": "FreeChipsClaimed",
			"type": "event"
		},
		{
			"anonymous": false,
			"inputs": [
				{
					"indexed": true,
					"internalType": "uint256",
					"name": "tableId",
					"type": "uint256"
				}
			],
			"name": "GameStarted",
			"type": "event"
		},
		{
			"anonymous": false,
			"inputs": [
				{
					"indexed": true,
					"internalType": "uint256",
					"name": "tableId",
					"type": "uint256"
				}
			],
			"name": "HandStarted",
			"type": "event"
		},
		{
			"anonymous": false,
			"inputs": [
				{
					"indexed": true,
					"internalType": "uint256",
					"name": "tableId",
					"type": "uint256"
				},
				{
					"indexed": true,
					"internalType": "address",
					"name": "player",
					"type": "address"
				},
				{
					"indexed": false,
					"internalType": "uint256",
					"name": "value",
					"type": "uint256"
				}
			],
			"name": "HandValueCalculated",
			"type": "event"
		},
		{
			"anonymous": false,
			"inputs": [
				{
					"indexed": true,
					"internalType": "uint256",
					"name": "tableId",
					"type": "uint256"
				},
				{
					"indexed": true,
					"internalType": "address",
					"name": "player",
					"type": "address"
				},
				{
					"indexed": false,
					"internalType": "uint256",
					"name": "amount",
					"type": "uint256"
				}
			],
			"name": "PayoutSent",
			"type": "event"
		},
		{
			"anonymous": false,
			"inputs": [
				{
					"indexed": true,
					"internalType": "uint256",
					"name": "tableId",
					"type": "uint256"
				},
				{
					"indexed": false,
					"internalType": "enum Blackjack.GamePhase",
					"name": "newPhase",
					"type": "uint8"
				}
			],
			"name": "PhaseChanged",
			"type": "event"
		},
		{
			"anonymous": false,
			"inputs": [
				{
					"indexed": true,
					"internalType": "uint256",
					"name": "tableId",
					"type": "uint256"
				},
				{
					"indexed": true,
					"internalType": "address",
					"name": "player",
					"type": "address"
				},
				{
					"indexed": false,
					"internalType": "string",
					"name": "action",
					"type": "string"
				},
				{
					"indexed": false,
					"internalType": "uint256",
					"name": "amount",
					"type": "uint256"
				}
			],
			"name": "PlayerAction",
			"type": "event"
		},
		{
			"anonymous": false,
			"inputs": [
				{
					"indexed": true,
					"internalType": "uint256",
					"name": "tableId",
					"type": "uint256"
				},
				{
					"indexed": true,
					"internalType": "address",
					"name": "player",
					"type": "address"
				}
			],
			"name": "PlayerBusted",
			"type": "event"
		},
		{
			"anonymous": false,
			"inputs": [
				{
					"indexed": true,
					"internalType": "uint256",
					"name": "tableId",
					"type": "uint256"
				},
				{
					"indexed": true,
					"internalType": "address",
					"name": "player",
					"type": "address"
				},
				{
					"indexed": false,
					"internalType": "uint256",
					"name": "amount",
					"type": "uint256"
				}
			],
			"name": "PlayerJoined",
			"type": "event"
		},
		{
			"anonymous": false,
			"inputs": [
				{
					"indexed": true,
					"internalType": "uint256",
					"name": "tableId",
					"type": "uint256"
				},
				{
					"indexed": true,
					"internalType": "address",
					"name": "player",
					"type": "address"
				}
			],
			"name": "PlayerLeft",
			"type": "event"
		},
		{
			"anonymous": false,
			"inputs": [
				{
					"indexed": true,
					"internalType": "uint256",
					"name": "tableId",
					"type": "uint256"
				},
				{
					"indexed": true,
					"internalType": "address",
					"name": "player",
					"type": "address"
				}
			],
			"name": "PlayerStood",
			"type": "event"
		},
		{
			"anonymous": false,
			"inputs": [
				{
					"indexed": true,
					"internalType": "uint256",
					"name": "tableId",
					"type": "uint256"
				},
				{
					"indexed": true,
					"internalType": "address",
					"name": "creator",
					"type": "address"
				}
			],
			"name": "TableCreated",
			"type": "event"
		},
		{
			"anonymous": false,
			"inputs": [
				{
					"indexed": true,
					"internalType": "uint256",
					"name": "tableId",
					"type": "uint256"
				},
				{
					"indexed": false,
					"internalType": "address[]",
					"name": "winners",
					"type": "address[]"
				},
				{
					"indexed": false,
					"internalType": "uint256[]",
					"name": "amounts",
					"type": "uint256[]"
				}
			],
			"name": "WinnerDetermined",
			"type": "event"
		},
		{
			"inputs": [],
			"name": "BLACKJACK_PAYOUT",
			"outputs": [
				{
					"internalType": "uint256",
					"name": "",
					"type": "uint256"
				}
			],
			"stateMutability": "view",
			"type": "function"
		},
		{
			"inputs": [],
			"name": "CHIPS_PER_ETH",
			"outputs": [
				{
					"internalType": "uint256",
					"name": "",
					"type": "uint256"
				}
			],
			"stateMutability": "view",
			"type": "function"
		},
		{
			"inputs": [],
			"name": "MAX_PLAYERS",
			"outputs": [
				{
					"internalType": "uint256",
					"name": "",
					"type": "uint256"
				}
			],
			"stateMutability": "view",
			"type": "function"
		},
		{
			"inputs": [],
			"name": "MAX_TABLES",
			"outputs": [
				{
					"internalType": "uint256",
					"name": "",
					"type": "uint256"
				}
			],
			"stateMutability": "view",
			"type": "function"
		},
		{
			"inputs": [],
			"name": "TURN_TIMEOUT",
			"outputs": [
				{
					"internalType": "uint256",
					"name": "",
					"type": "uint256"
				}
			],
			"stateMutability": "view",
			"type": "function"
		},
		{
			"inputs": [],
			"name": "WEI_PER_CHIP",
			"outputs": [
				{
					"internalType": "uint256",
					"name": "",
					"type": "uint256"
				}
			],
			"stateMutability": "view",
			"type": "function"
		},
		{
			"inputs": [],
			"name": "buyChips",
			"outputs": [],
			"stateMutability": "payable",
			"type": "function"
		},
		{
			"inputs": [
				{
					"components": [
						{
							"internalType": "uint8",
							"name": "rank",
							"type": "uint8"
						},
						{
							"internalType": "uint8",
							"name": "suit",
							"type": "uint8"
						}
					],
					"internalType": "struct Blackjack.Card[]",
					"name": "cards",
					"type": "tuple[]"
				}
			],
			"name": "calculateHandValue",
			"outputs": [
				{
					"internalType": "uint256",
					"name": "",
					"type": "uint256"
				}
			],
			"stateMutability": "pure",
			"type": "function"
		},
		{
			"inputs": [
				{
					"internalType": "uint256",
					"name": "tableId",
					"type": "uint256"
				}
			],
			"name": "cashOut",
			"outputs": [],
			"stateMutability": "nonpayable",
			"type": "function"
		},
		{
			"inputs": [
				{
					"internalType": "uint256",
					"name": "chipAmount",
					"type": "uint256"
				}
			],
			"name": "chipsToEth",
			"outputs": [
				{
					"internalType": "uint256",
					"name": "",
					"type": "uint256"
				}
			],
			"stateMutability": "pure",
			"type": "function"
		},
		{
			"inputs": [],
			"name": "claimFreeChips",
			"outputs": [],
			"stateMutability": "nonpayable",
			"type": "function"
		},
		{
			"inputs": [
				{
					"internalType": "uint256",
					"name": "_minBuyIn",
					"type": "uint256"
				},
				{
					"internalType": "uint256",
					"name": "_maxBuyIn",
					"type": "uint256"
				}
			],
			"name": "createTable",
			"outputs": [],
			"stateMutability": "nonpayable",
			"type": "function"
		},
		{
			"inputs": [
				{
					"internalType": "uint256",
					"name": "tableId",
					"type": "uint256"
				}
			],
			"name": "doubleDown",
			"outputs": [],
			"stateMutability": "nonpayable",
			"type": "function"
		},
		{
			"inputs": [
				{
					"internalType": "uint256",
					"name": "ethAmount",
					"type": "uint256"
				}
			],
			"name": "ethToChips",
			"outputs": [
				{
					"internalType": "uint256",
					"name": "",
					"type": "uint256"
				}
			],
			"stateMutability": "pure",
			"type": "function"
		},
		{
			"inputs": [
				{
					"internalType": "uint256",
					"name": "tableId",
					"type": "uint256"
				}
			],
			"name": "forceDealerTurn",
			"outputs": [],
			"stateMutability": "nonpayable",
			"type": "function"
		},
		{
			"inputs": [],
			"name": "getAllTables",
			"outputs": [
				{
					"components": [
						{
							"internalType": "uint256",
							"name": "id",
							"type": "uint256"
						},
						{
							"internalType": "enum Blackjack.TableStatus",
							"name": "status",
							"type": "uint8"
						},
						{
							"internalType": "uint256",
							"name": "minBuyIn",
							"type": "uint256"
						},
						{
							"internalType": "uint256",
							"name": "maxBuyIn",
							"type": "uint256"
						},
						{
							"internalType": "uint8[52]",
							"name": "deck",
							"type": "uint8[52]"
						},
						{
							"internalType": "uint8",
							"name": "deckIndex",
							"type": "uint8"
						},
						{
							"internalType": "enum Blackjack.GamePhase",
							"name": "phase",
							"type": "uint8"
						},
						{
							"components": [
								{
									"internalType": "address",
									"name": "addr",
									"type": "address"
								},
								{
									"internalType": "uint256",
									"name": "chips",
									"type": "uint256"
								},
								{
									"internalType": "uint256",
									"name": "bet",
									"type": "uint256"
								},
								{
									"components": [
										{
											"internalType": "uint8",
											"name": "rank",
											"type": "uint8"
										},
										{
											"internalType": "uint8",
											"name": "suit",
											"type": "uint8"
										}
									],
									"internalType": "struct Blackjack.Card[]",
									"name": "cards",
									"type": "tuple[]"
								},
								{
									"internalType": "bool",
									"name": "isActive",
									"type": "bool"
								},
								{
									"internalType": "bool",
									"name": "hasActed",
									"type": "bool"
								}
							],
							"internalType": "struct Blackjack.Player[]",
							"name": "players",
							"type": "tuple[]"
						},
						{
							"components": [
								{
									"components": [
										{
											"internalType": "uint8",
											"name": "rank",
											"type": "uint8"
										},
										{
											"internalType": "uint8",
											"name": "suit",
											"type": "uint8"
										}
									],
									"internalType": "struct Blackjack.Card[]",
									"name": "cards",
									"type": "tuple[]"
								},
								{
									"internalType": "bool",
									"name": "hasFinished",
									"type": "bool"
								}
							],
							"internalType": "struct Blackjack.Dealer",
							"name": "dealer",
							"type": "tuple"
						},
						{
							"internalType": "uint256",
							"name": "lastActivityTimestamp",
							"type": "uint256"
						}
					],
					"internalType": "struct Blackjack.Table[]",
					"name": "",
					"type": "tuple[]"
				}
			],
			"stateMutability": "view",
			"type": "function"
		},
		{
			"inputs": [],
			"name": "getConversionRates",
			"outputs": [
				{
					"internalType": "uint256",
					"name": "chipsPerEth",
					"type": "uint256"
				},
				{
					"internalType": "uint256",
					"name": "weiPerChip",
					"type": "uint256"
				}
			],
			"stateMutability": "pure",
			"type": "function"
		},
		{
			"inputs": [
				{
					"internalType": "uint256",
					"name": "tableId",
					"type": "uint256"
				}
			],
			"name": "getDealerState",
			"outputs": [
				{
					"components": [
						{
							"components": [
								{
									"internalType": "uint8",
									"name": "rank",
									"type": "uint8"
								},
								{
									"internalType": "uint8",
									"name": "suit",
									"type": "uint8"
								}
							],
							"internalType": "struct Blackjack.Card[]",
							"name": "cards",
							"type": "tuple[]"
						},
						{
							"internalType": "bool",
							"name": "hasFinished",
							"type": "bool"
						}
					],
					"internalType": "struct Blackjack.Dealer",
					"name": "",
					"type": "tuple"
				}
			],
			"stateMutability": "view",
			"type": "function"
		},
		{
			"inputs": [
				{
					"internalType": "uint256",
					"name": "tableId",
					"type": "uint256"
				}
			],
			"name": "getDetailedGameState",
			"outputs": [
				{
					"internalType": "uint256",
					"name": "tableStatus",
					"type": "uint256"
				},
				{
					"internalType": "uint256",
					"name": "gamePhase",
					"type": "uint256"
				},
				{
					"internalType": "uint256",
					"name": "playerCount",
					"type": "uint256"
				},
				{
					"internalType": "uint256",
					"name": "activePlayers",
					"type": "uint256"
				},
				{
					"internalType": "bool",
					"name": "canPlayerAct",
					"type": "bool"
				},
				{
					"internalType": "address",
					"name": "nextPlayer",
					"type": "address"
				},
				{
					"internalType": "bool",
					"name": "isMyTurnResult",
					"type": "bool"
				}
			],
			"stateMutability": "view",
			"type": "function"
		},
		{
			"inputs": [
				{
					"internalType": "uint256",
					"name": "tableId",
					"type": "uint256"
				}
			],
			"name": "getGameSummary",
			"outputs": [
				{
					"internalType": "uint256",
					"name": "tableStatus",
					"type": "uint256"
				},
				{
					"internalType": "uint256",
					"name": "gamePhase",
					"type": "uint256"
				},
				{
					"internalType": "uint256",
					"name": "playerCount",
					"type": "uint256"
				},
				{
					"internalType": "uint256",
					"name": "activePlayers",
					"type": "uint256"
				},
				{
					"internalType": "address",
					"name": "nextPlayer",
					"type": "address"
				},
				{
					"internalType": "uint256",
					"name": "dealerCardCount",
					"type": "uint256"
				},
				{
					"internalType": "uint256",
					"name": "potSize",
					"type": "uint256"
				}
			],
			"stateMutability": "view",
			"type": "function"
		},
		{
			"inputs": [
				{
					"internalType": "uint256",
					"name": "tableId",
					"type": "uint256"
				}
			],
			"name": "getNextPlayer",
			"outputs": [
				{
					"internalType": "address",
					"name": "",
					"type": "address"
				}
			],
			"stateMutability": "view",
			"type": "function"
		},
		{
			"inputs": [
				{
					"internalType": "address",
					"name": "player",
					"type": "address"
				}
			],
			"name": "getPlayerChips",
			"outputs": [
				{
					"internalType": "uint256",
					"name": "",
					"type": "uint256"
				}
			],
			"stateMutability": "view",
			"type": "function"
		},
		{
			"inputs": [
				{
					"internalType": "address",
					"name": "player",
					"type": "address"
				}
			],
			"name": "getPlayerInfo",
			"outputs": [
				{
					"internalType": "uint256",
					"name": "chips",
					"type": "uint256"
				},
				{
					"internalType": "uint256",
					"name": "tableId",
					"type": "uint256"
				},
				{
					"internalType": "bool",
					"name": "hasClaimedFree",
					"type": "bool"
				},
				{
					"internalType": "bool",
					"name": "isAtTable",
					"type": "bool"
				}
			],
			"stateMutability": "view",
			"type": "function"
		},
		{
			"inputs": [
				{
					"internalType": "uint256",
					"name": "tableId",
					"type": "uint256"
				},
				{
					"internalType": "address",
					"name": "playerAddr",
					"type": "address"
				}
			],
			"name": "getPlayerState",
			"outputs": [
				{
					"components": [
						{
							"internalType": "address",
							"name": "addr",
							"type": "address"
						},
						{
							"internalType": "uint256",
							"name": "chips",
							"type": "uint256"
						},
						{
							"internalType": "uint256",
							"name": "bet",
							"type": "uint256"
						},
						{
							"components": [
								{
									"internalType": "uint8",
									"name": "rank",
									"type": "uint8"
								},
								{
									"internalType": "uint8",
									"name": "suit",
									"type": "uint8"
								}
							],
							"internalType": "struct Blackjack.Card[]",
							"name": "cards",
							"type": "tuple[]"
						},
						{
							"internalType": "bool",
							"name": "isActive",
							"type": "bool"
						},
						{
							"internalType": "bool",
							"name": "hasActed",
							"type": "bool"
						}
					],
					"internalType": "struct Blackjack.Player",
					"name": "",
					"type": "tuple"
				}
			],
			"stateMutability": "view",
			"type": "function"
		},
		{
			"inputs": [
				{
					"internalType": "address",
					"name": "player",
					"type": "address"
				}
			],
			"name": "getPlayerTableId",
			"outputs": [
				{
					"internalType": "uint256",
					"name": "",
					"type": "uint256"
				}
			],
			"stateMutability": "view",
			"type": "function"
		},
		{
			"inputs": [
				{
					"internalType": "uint256",
					"name": "tableId",
					"type": "uint256"
				}
			],
			"name": "getTablePlayers",
			"outputs": [
				{
					"components": [
						{
							"internalType": "address",
							"name": "addr",
							"type": "address"
						},
						{
							"internalType": "uint256",
							"name": "chips",
							"type": "uint256"
						},
						{
							"internalType": "uint256",
							"name": "bet",
							"type": "uint256"
						},
						{
							"components": [
								{
									"internalType": "uint8",
									"name": "rank",
									"type": "uint8"
								},
								{
									"internalType": "uint8",
									"name": "suit",
									"type": "uint8"
								}
							],
							"internalType": "struct Blackjack.Card[]",
							"name": "cards",
							"type": "tuple[]"
						},
						{
							"internalType": "bool",
							"name": "isActive",
							"type": "bool"
						},
						{
							"internalType": "bool",
							"name": "hasActed",
							"type": "bool"
						}
					],
					"internalType": "struct Blackjack.Player[]",
					"name": "",
					"type": "tuple[]"
				}
			],
			"stateMutability": "view",
			"type": "function"
		},
		{
			"inputs": [
				{
					"internalType": "uint256",
					"name": "tableId",
					"type": "uint256"
				}
			],
			"name": "getTableState",
			"outputs": [
				{
					"components": [
						{
							"internalType": "uint256",
							"name": "id",
							"type": "uint256"
						},
						{
							"internalType": "enum Blackjack.TableStatus",
							"name": "status",
							"type": "uint8"
						},
						{
							"internalType": "uint256",
							"name": "minBuyIn",
							"type": "uint256"
						},
						{
							"internalType": "uint256",
							"name": "maxBuyIn",
							"type": "uint256"
						},
						{
							"internalType": "uint8[52]",
							"name": "deck",
							"type": "uint8[52]"
						},
						{
							"internalType": "uint8",
							"name": "deckIndex",
							"type": "uint8"
						},
						{
							"internalType": "enum Blackjack.GamePhase",
							"name": "phase",
							"type": "uint8"
						},
						{
							"components": [
								{
									"internalType": "address",
									"name": "addr",
									"type": "address"
								},
								{
									"internalType": "uint256",
									"name": "chips",
									"type": "uint256"
								},
								{
									"internalType": "uint256",
									"name": "bet",
									"type": "uint256"
								},
								{
									"components": [
										{
											"internalType": "uint8",
											"name": "rank",
											"type": "uint8"
										},
										{
											"internalType": "uint8",
											"name": "suit",
											"type": "uint8"
										}
									],
									"internalType": "struct Blackjack.Card[]",
									"name": "cards",
									"type": "tuple[]"
								},
								{
									"internalType": "bool",
									"name": "isActive",
									"type": "bool"
								},
								{
									"internalType": "bool",
									"name": "hasActed",
									"type": "bool"
								}
							],
							"internalType": "struct Blackjack.Player[]",
							"name": "players",
							"type": "tuple[]"
						},
						{
							"components": [
								{
									"components": [
										{
											"internalType": "uint8",
											"name": "rank",
											"type": "uint8"
										},
										{
											"internalType": "uint8",
											"name": "suit",
											"type": "uint8"
										}
									],
									"internalType": "struct Blackjack.Card[]",
									"name": "cards",
									"type": "tuple[]"
								},
								{
									"internalType": "bool",
									"name": "hasFinished",
									"type": "bool"
								}
							],
							"internalType": "struct Blackjack.Dealer",
							"name": "dealer",
							"type": "tuple"
						},
						{
							"internalType": "uint256",
							"name": "lastActivityTimestamp",
							"type": "uint256"
						}
					],
					"internalType": "struct Blackjack.Table",
					"name": "",
					"type": "tuple"
				}
			],
			"stateMutability": "view",
			"type": "function"
		},
		{
			"inputs": [],
			"name": "getTablesCount",
			"outputs": [
				{
					"internalType": "uint256",
					"name": "",
					"type": "uint256"
				}
			],
			"stateMutability": "view",
			"type": "function"
		},
		{
			"inputs": [
				{
					"internalType": "address",
					"name": "",
					"type": "address"
				}
			],
			"name": "hasClaimedFreeChips",
			"outputs": [
				{
					"internalType": "bool",
					"name": "",
					"type": "bool"
				}
			],
			"stateMutability": "view",
			"type": "function"
		},
		{
			"inputs": [
				{
					"internalType": "address",
					"name": "player",
					"type": "address"
				}
			],
			"name": "hasPlayerClaimedFreeChips",
			"outputs": [
				{
					"internalType": "bool",
					"name": "",
					"type": "bool"
				}
			],
			"stateMutability": "view",
			"type": "function"
		},
		{
			"inputs": [
				{
					"internalType": "uint256",
					"name": "tableId",
					"type": "uint256"
				}
			],
			"name": "hit",
			"outputs": [],
			"stateMutability": "nonpayable",
			"type": "function"
		},
		{
			"inputs": [
				{
					"components": [
						{
							"internalType": "uint8",
							"name": "rank",
							"type": "uint8"
						},
						{
							"internalType": "uint8",
							"name": "suit",
							"type": "uint8"
						}
					],
					"internalType": "struct Blackjack.Card[]",
					"name": "cards",
					"type": "tuple[]"
				}
			],
			"name": "isBlackjack",
			"outputs": [
				{
					"internalType": "bool",
					"name": "",
					"type": "bool"
				}
			],
			"stateMutability": "pure",
			"type": "function"
		},
		{
			"inputs": [
				{
					"components": [
						{
							"internalType": "uint8",
							"name": "rank",
							"type": "uint8"
						},
						{
							"internalType": "uint8",
							"name": "suit",
							"type": "uint8"
						}
					],
					"internalType": "struct Blackjack.Card[]",
					"name": "cards",
					"type": "tuple[]"
				}
			],
			"name": "isBusted",
			"outputs": [
				{
					"internalType": "bool",
					"name": "",
					"type": "bool"
				}
			],
			"stateMutability": "pure",
			"type": "function"
		},
		{
			"inputs": [
				{
					"internalType": "uint256",
					"name": "tableId",
					"type": "uint256"
				},
				{
					"internalType": "address",
					"name": "player",
					"type": "address"
				}
			],
			"name": "isPlayerTurn",
			"outputs": [
				{
					"internalType": "bool",
					"name": "",
					"type": "bool"
				}
			],
			"stateMutability": "view",
			"type": "function"
		},
		{
			"inputs": [
				{
					"internalType": "uint256",
					"name": "tableId",
					"type": "uint256"
				},
				{
					"internalType": "uint256",
					"name": "buyInAmount",
					"type": "uint256"
				}
			],
			"name": "joinTable",
			"outputs": [],
			"stateMutability": "nonpayable",
			"type": "function"
		},
		{
			"inputs": [
				{
					"internalType": "uint256",
					"name": "tableId",
					"type": "uint256"
				}
			],
			"name": "leaveTable",
			"outputs": [],
			"stateMutability": "nonpayable",
			"type": "function"
		},
		{
			"inputs": [],
			"name": "owner",
			"outputs": [
				{
					"internalType": "address",
					"name": "",
					"type": "address"
				}
			],
			"stateMutability": "view",
			"type": "function"
		},
		{
			"inputs": [],
			"name": "pause",
			"outputs": [],
			"stateMutability": "nonpayable",
			"type": "function"
		},
		{
			"inputs": [],
			"name": "paused",
			"outputs": [
				{
					"internalType": "bool",
					"name": "",
					"type": "bool"
				}
			],
			"stateMutability": "view",
			"type": "function"
		},
		{
			"inputs": [
				{
					"internalType": "uint256",
					"name": "tableId",
					"type": "uint256"
				},
				{
					"internalType": "uint256",
					"name": "betAmount",
					"type": "uint256"
				}
			],
			"name": "placeBet",
			"outputs": [],
			"stateMutability": "nonpayable",
			"type": "function"
		},
		{
			"inputs": [
				{
					"internalType": "address",
					"name": "",
					"type": "address"
				}
			],
			"name": "playerChips",
			"outputs": [
				{
					"internalType": "uint256",
					"name": "",
					"type": "uint256"
				}
			],
			"stateMutability": "view",
			"type": "function"
		},
		{
			"inputs": [
				{
					"internalType": "address",
					"name": "",
					"type": "address"
				}
			],
			"name": "playerTableId",
			"outputs": [
				{
					"internalType": "uint256",
					"name": "",
					"type": "uint256"
				}
			],
			"stateMutability": "view",
			"type": "function"
		},
		{
			"inputs": [
				{
					"internalType": "uint256",
					"name": "tableId",
					"type": "uint256"
				}
			],
			"name": "stand",
			"outputs": [],
			"stateMutability": "nonpayable",
			"type": "function"
		},
		{
			"inputs": [
				{
					"internalType": "uint256",
					"name": "",
					"type": "uint256"
				}
			],
			"name": "tables",
			"outputs": [
				{
					"internalType": "uint256",
					"name": "id",
					"type": "uint256"
				},
				{
					"internalType": "enum Blackjack.TableStatus",
					"name": "status",
					"type": "uint8"
				},
				{
					"internalType": "uint256",
					"name": "minBuyIn",
					"type": "uint256"
				},
				{
					"internalType": "uint256",
					"name": "maxBuyIn",
					"type": "uint256"
				},
				{
					"internalType": "uint8",
					"name": "deckIndex",
					"type": "uint8"
				},
				{
					"internalType": "enum Blackjack.GamePhase",
					"name": "phase",
					"type": "uint8"
				},
				{
					"components": [
						{
							"components": [
								{
									"internalType": "uint8",
									"name": "rank",
									"type": "uint8"
								},
								{
									"internalType": "uint8",
									"name": "suit",
									"type": "uint8"
								}
							],
							"internalType": "struct Blackjack.Card[]",
							"name": "cards",
							"type": "tuple[]"
						},
						{
							"internalType": "bool",
							"name": "hasFinished",
							"type": "bool"
						}
					],
					"internalType": "struct Blackjack.Dealer",
					"name": "dealer",
					"type": "tuple"
				},
				{
					"internalType": "uint256",
					"name": "lastActivityTimestamp",
					"type": "uint256"
				}
			],
			"stateMutability": "view",
			"type": "function"
		},
		{
			"inputs": [
				{
					"internalType": "address",
					"name": "newOwner",
					"type": "address"
				}
			],
			"name": "transferOwnership",
			"outputs": [],
			"stateMutability": "nonpayable",
			"type": "function"
		},
		{
			"inputs": [],
			"name": "unpause",
			"outputs": [],
			"stateMutability": "nonpayable",
			"type": "function"
		},
		{
			"inputs": [
				{
					"internalType": "uint256",
					"name": "chipAmount",
					"type": "uint256"
				}
			],
			"name": "withdrawChips",
			"outputs": [],
			"stateMutability": "nonpayable",
			"type": "function"
		}
	]
}