{
	"data": {
		"bytecode": {
			"linkReferences": {},
			"object": "60808060405234601557613967908161001a8239f35b5f80fdfe60a0806040526004361015610012575f80fd5b5f3560e01c90816301e22c1214611b3d5750806308ce20111461191a5780631ff7efc0146116e15780631ffc9a0214610f4d5780632b09692614610dd457806340cb15d814610db95780634411b3eb14610d9e57806356adcb7614610bc35780635e82ff6514610ba85780635f72f45014610a5357806371671bf21461097c578063a4dd19a5146103de578063b20bfbb91461039c578063bff7a00b1461028f5763e52b2285146100c1575f80fd5b3461028b57602036600319011261028b576004356100e15f548210611c66565b335f5260016020526100f88160405f205414611ca9565b61010181611c1a565b5060ff6001820154169060038210156102775761012360016101469314611f25565b600781019060ff6006835492015460081c168091119182610259575b5050611f66565b61014f81611c1a565b50600781019161016960ff600684015460081c1684611cf5565b509160018301905f8254925560028401610184838254611d1b565b90818155600d830180548311610233575b505050506040519060408252600660408301526520b63616b4b760d11b60608301526020820152815f5160206138f25f395f51905f5260803393a35f5b8354811015610217578060ff60046101ec60019488611cf5565b500154166101fb575b016101d2565b60046102078287611cf5565b5001805461ff00191690556101f5565b506004610231920161010061ff0019825416179055612689565b005b8261024d92600e9461024793555490611d0e565b84611d0e565b9101555f808080610195565b6102639250611cf5565b50546001600160a01b031633145f8061013f565b634e487b7160e01b5f52602160045260245ffd5b5f80fd5b3461028b57602036600319011261028b576004356102af5f548210611c66565b335f5260016020526102c68160405f205414611ca9565b6102cf81611c1a565b509060ff600183015416600381101561027757610231926102f560016103179314611f25565b600781019060ff6006835492015460081c16809111918261037e575050611f66565b600461033a61032583611c1a565b50600760ff600683015460081c169101611cf5565b500160ff198154169055604051604081526004604082015263119bdb1960e21b60608201525f6020820152815f5160206138f25f395f51905f5260803393a3612689565b6103889250611cf5565b50546001600160a01b03163314848061013f565b3461028b57604036600319011261028b576024356001600160a01b038116810361028b576103cf61010091600435612069565b6103dc6040518092611b99565bf35b3461028b57608036600319011261028b575f54604435600435602435606435600a85101561093e5782151580610935575b8061092c575b156108f6578282106108ba57604051936106806104328187611da8565b3686376020946040516104458782611da8565b5f81526040519260a0840184811067ffffffffffffffff821117610776576040525f84525f888501525f60408501525f60608501525f60808501526040519561048e8988611da8565b5f87526040519761049e89611d8b565b8a89525f8a8a01526040890152606088015260808701528360a08701525f60c08701525f60e08701526101008601526101208501525f6101408501526101608401525f6101808401525f6101a08401526101c08301526101e082015242610200820152600160401b83101561077657600183015f5561051c83611c1a565b9290926108a75781518355600183018183015160038110156102775760ff8019835416911617905560408201516002840155606082015160038401556080820151600484015560a082015160058401556105a36006840160ff8060c0860151161660ff1982541617815560ff60e08501511661ff0082549160081b169061ff001916179055565b6007830161010083015190815191600160401b83116107765783908254848455808510610834575b5001905f52825f20835f925b8484106108155750505050506101208201515f5b600181106107d457505f905f5b83601482106107af57505050600984015560ff6101408301511660ff600a8501911660ff198254161790556101608201515f905f5b836005821061078a57505050600b840155600c830161018083015160068110156102775760ff801983541691161790556101a0820151600d8401556101c0820151600e840155600f83016101e083015191825192600160401b841161077657819083548585558086106106fd575b5001915f52805f205f925b8484106106e057610200860151601088015533887fe93806e02d09f53787d307ada312314ec4cb949dc9bedc8503f94bd46e45dc6b5f80a3005b600283826106f16001945186611fde565b019201930192906106a6565b9091506001600160ff1b0381168103610762576001600160ff1b038516850361076257908291845f52825f209060011b8101908660011b015b818110610743575061069b565b6002919293505f815561075860018201611fbb565b0190839291610736565b634e487b7160e01b5f52601160045260245ffd5b634e487b7160e01b5f52604160045260245ffd5b82519293919260019260ff600386901b81811b199092169216901b179301910161062d565b82519293919260019260ff600386901b81811b199092169216901b17930191016105f8565b5f5f5b848082106107f0575050858201600801556001016105eb565b845191949260019260ff600388901b81811b19909316911690911b17920193016107d7565b600191816108266006935186611dca565b0192019201919084906105d7565b809192506006029060068204036107625783600602600681048503610762575f848152869020869392810191015b81811061086f57506105cb565b6006919293505f81555f60018201555f60028201555f600482016108968160038501611d28565b555f60058201550190859291610862565b634e487b7160e01b5f525f60045260245ffd5b60405162461bcd60e51b8152602060048201526014602482015273496e76616c6964206275792d696e2072616e676560601b6044820152606490fd5b60405162461bcd60e51b815260206004820152600e60248201526d496e76616c6964207374616b657360901b6044820152606490fd5b50838111610415565b5083151561040f565b60405162461bcd60e51b815260206004820152601660248201527513585e1a5b5d5b481d18589b195cc81c995858da195960521b6044820152606490fd5b3461028b57602036600319011261028b576004355f5481101561028b576109a290611c1a565b50805490600181015460ff16906002810154600382015460048301546005840154600685015490600a86015460ff1692600c87015460ff1694600d88015496600e8901549860100154996040519b8c5260208c016109ff91611b8c565b60408b015260608a0152608089015260a088015260ff811660c088015260081c60ff1660e08701526101008601526101208501610a3b91611c0d565b6101408401526101608301526101808201526101a090f35b3461028b57602036600319011261028b57600435610a735f548210611c66565b335f526001602052610a8a8160405f205414611ca9565b610a9381611c1a565b5060ff60018201541690600382101561027757610ab56001610ad79314611f25565b600781019060ff6006835492015460081c168091119182610b8a575050611f66565b610ae081611c1a565b50600d6002610afc60ff600685015460081c1660078501611cf5565b50015491015403610b465761023190604051604081526005604082015264436865636b60d81b60608201525f6020820152815f5160206138f25f395f51905f5260803393a3612689565b606460405162461bcd60e51b815260206004820152602060248201527f43616e6e6f7420636865636b2c206d7573742063616c6c206f722072616973656044820152fd5b610b949250611cf5565b50546001600160a01b03163314838061013f565b3461028b575f36600319011261028b576020604051603c8152f35b3461028b57610bd136611b76565b90610bde5f548210611c66565b335f526001602052610bf58160405f205414611ca9565b610bfe81611c1a565b5060ff600182015416906003821015610277576102f56001610c209314611f25565b610c2981611c1a565b50906007820192610c4460ff600685015460081c1685611cf5565b5092600d81018054906002860190610c6785610c6284548096611d0e565b611d1b565b936001880194855491818310610d5957600e019485548810610d1b578796610c9283610c9995611d0e565b9055611d1b565b809255555560405190604082526005604083015264526169736560d81b60608301526020820152815f5160206138f25f395f51905f5260803393a35f5b8354811015610217578060ff6004610cf060019488611cf5565b50015416610cff575b01610cd6565b6004610d0b8287611cf5565b5001805461ff0019169055610cf9565b60405162461bcd60e51b815260206004820152601660248201527514985a5cd948185b5bdd5b9d081d1bdbc81cdb585b1b60521b6044820152606490fd5b60405162461bcd60e51b815260206004820152601b60248201527f496e73756666696369656e7420636869707320746f20726169736500000000006044820152606490fd5b3461028b575f36600319011261028b57602060405160098152f35b3461028b575f36600319011261028b576020604051600a8152f35b3461028b57602036600319011261028b57600435610df45f548210611c66565b335f526001602052610e0b8160405f205414611ca9565b610e1481611c1a565b5060ff60018201541690600382101561027757610ab56001610e369314611f25565b610e3f81611c1a565b5090600d610e5a60ff600685015460081c1660078501611cf5565b509201549160028101610e6f81548095611d0e565b918215610f16576001018054838110610ed15761023195610e9592610c92868094611d0e565b90556040519060408252600460408301526310d85b1b60e21b60608301526020820152815f5160206138f25f395f51905f5260803393a3612689565b60405162461bcd60e51b815260206004820152601a60248201527f496e73756666696369656e7420636869707320746f2063616c6c0000000000006044820152606490fd5b60405162461bcd60e51b815260206004820152600f60248201526e139bdd1a1a5b99c81d1bc818d85b1b608a1b6044820152606490fd5b3461028b57602036600319011261028b57600435604051610f6d81611d8b565b5f81525f60208201525f60408201525f60608201525f60808201525f60a08201525f60c08201525f60e0820152606061010082015261101561068092604051610fb68582611da8565b843682376101208401525f6101408401525f61020060a094604051610fdb8782611da8565b8636823761016082015282610180820152826101a0820152826101c082015260606101e082015201526110105f548210611c66565b611c1a565b506040519261102384611d8b565b8154845260ff600183015416600381101561027757602085015260028201546040850152600382015460608501526004820154608085015260058201548385015260ff600683015481811660c087015260081c1660e085015260078201805461108b81611e8f565b916110996040519384611da8565b81835260208301905f5260205f205f915b8383106116c357505050506101008501526040519081600884015f5b6034601f82011061152357509061026060ff6111c09493548181168452818160081c166020850152818160101c166040850152818160181c166060850152818160201c166080850152818160281c1689850152818160301c1660c0850152818160381c1660e0850152818160401c16610100850152818160481c16610120850152818160501c16610140850152818160581c16610160850152818160601c16610180850152818160681c166101a0850152818160701c166101c0850152818160781c166101e0850152818160801c16610200850152818160881c16610220850152818160901c1661024085015260981c1691015282611da8565b61012084015260ff600a8201541661014084015260405161121481600b840160ff608091548181168452818160081c166020850152818160101c166040850152818160181c16606085015260201c16910152565b61121e8382611da8565b61016084015260ff600c82015416600681101561027757610180840152600d8101546101a0840152600e8101546101c0840152600f81015461125f81611e8f565b9061126d6040519283611da8565b80825260208201600f84015f5260205f205f915b8383106114a3578787601088886101e085015201546102008301526040519060208252825160208301526112bd60208401516040840190611b8c565b604083015160608301526060830151608083015260808301518183015282015160c082015260ff60c08301511660e082015260ff60e08301511661010082015261010082015191610900610120830152825180610920840152602061094084019401905f5b818110611482575050506101208101515f61014084015b603482106114695750505061014081015160ff166107c08301526101608101515f6107e084015b600582106114505750505061137f610180820151610880840190611c0d565b6101a08101516108a08301526101c08101516108c08301526101e081015190601f19838503016108e0840152815180855260208501906020808260051b8801019401915f905b8282106113de5761020085015161090088015286860387f35b90919294601f19888203018252855160206060816040850193805186520151936040838201528451809452019201905f905b80821061142e575050506020806001929701920192019092916113c5565b82516001600160a01b0316845260209384019390920191600190910190611410565b60208060019260ff865116815201930191019091611360565b60208060019260ff865116815201930191019091611339565b9091946020610100826114986001948a51611b99565b019601929101611322565b6040516114af81611d53565b82548152600183016040519081602082549182815201915f5260205f20905f905b8082106115015750505092600292826114ef6020946001970382611da8565b83820152815201920192019190611281565b82546001600160a01b03168452602090930192600192830192909101906114d0565b90916001610400602092855460ff8116825260ff8160081c168583015260ff8160101c16604083015260ff8160181c16606083015260ff81861c16608083015260ff8160281c168b83015260ff8160301c1660c083015260ff8160381c1660e083015260ff8160401c1661010083015260ff8160481c1661012083015260ff8160501c1661014083015260ff8160581c1661016083015260ff8160601c1661018083015260ff8160681c166101a083015260ff8160701c166101c083015260ff8160781c166101e083015260ff8160801c1661020083015260ff8160881c1661022083015260ff8160901c1661024083015260ff8160981c1661026083015260ff818c1c1661028083015260ff8160a81c166102a083015260ff8160b01c166102c083015260ff8160b81c166102e083015260ff8160c01c1661030083015260ff8160c81c1661032083015260ff8160d01c1661034083015260ff8160d81c1661036083015260ff8160e01c1661038083015260ff8160e81c166103a083015260ff8160f01c166103c083015260f81c6103e082015201930191016110c6565b600660206001926116d385611ea7565b8152019201920191906110aa565b3461028b576116ef36611b76565b6116fb5f548310611c66565b61170482611c1a565b50906007820180549160098310156118e557335f52600160205260405f20546118a057600284015481101580611892575b15611855576040519261174784611d53565b5f84525f60208501526040519361175d85611d6f565b3385528260208601525f604086015260608501525f6080850152600160a08501524260c0850152600160401b811015610776578060016117a09201845583611cf5565b6108a7576002936117b091611dca565b335f5260016020528460405f2055426010850155604051908152847f03dfbe1fcb4e2d61f3b4a0c93d8f814c92250618b3387f396cc9fc9fafe2c20360203393a35410158061183d575b61180057005b600101600160ff1982541617905561181781612197565b7f50ad08f58a27f2851d7e3a1b3a6a46b290f2ce677e99642d30ff639721e777905f80a2005b5060ff600182015416600381101561027757156117fa565b60405162461bcd60e51b8152602060048201526015602482015274125b9d985b1a5908189d5e4b5a5b88185b5bdd5b9d605a1b6044820152606490fd5b506003840154811115611735565b60405162461bcd60e51b815260206004820152601960248201527f506c6179657220616c72656164792061742061207461626c65000000000000006044820152606490fd5b60405162461bcd60e51b815260206004820152600d60248201526c1518589b19481a5cc8199d5b1b609a1b6044820152606490fd5b3461028b57602036600319011261028b5760043561193a5f548210611c66565b335f5260016020526119518160405f205414611ca9565b61195a81611c1a565b50905f915f9260078201938454905b818110611b10575b50505b83545f19810190811161076257811015611a5a57600181018082116107625761199d9085611cf5565b50906119a98186611cf5565b6108a7578260019382036119c0575b505001611974565b60058091858060a01b03868060a01b03825416166bffffffffffffffffffffffff60a01b855416178455858101548685015560028101546002850155611a0c6003820160038601611d3e565b611a4e6004850160ff60048401611a3282825416849060ff801983541691151516179055565b5460081c1661ff00825491151560081b169061ff001916179055565b015491015585806119b8565b509180548015611afc575f190191611a728383611cf5565b9390936108a7575f600585826002975582600182015582878201558260048201611a9f8160038501611d28565b5501558255335f5260016020525f604081205533907fb2bd643202385c64d9814c6c3fa61b1ba098d6652292e9d9a6f1a0cdae6eb8245f80a35410611ae057005b806001600c920160ff1981541690550160ff1981541690555f80f35b634e487b7160e01b5f52603160045260245ffd5b611b1a8187611cf5565b50546001600160a01b03163314611b3357600101611969565b9150508480611971565b3461028b57602036600319011261028b576004356001600160a01b038116919082900361028b576020915f526001825260405f20548152f35b604090600319011261028b576004359060243590565b9060038210156102775752565b80516001600160a01b031682526020808201519083015260408082015190830152606080820151905f9084015b60028210611bf45750505060c081608060e0930151151560a085015260a08101511515828501520151910152565b60208060019260ff865116815201930191019091611bc6565b9060068210156102775752565b5f54811015611c52575f8080526011919091027f290decd9548b62a8d60345a988386fc84ba6bc95484008f6362f93160ef3e5630191565b634e487b7160e01b5f52603260045260245ffd5b15611c6d57565b60405162461bcd60e51b81526020600482015260146024820152731518589b1948191bd95cc81b9bdd08195e1a5cdd60621b6044820152606490fd5b15611cb057565b60405162461bcd60e51b815260206004820152601960248201527f596f7520617265206e6f742061742074686973207461626c65000000000000006044820152606490fd5b8054821015611c52575f52600660205f20910201905f90565b9190820391821161076257565b9190820180921161076257565b818110611d33575050565b5f8155600101611d28565b90808214611d4f575461ffff169055565b5050565b6040810190811067ffffffffffffffff82111761077657604052565b60e0810190811067ffffffffffffffff82111761077657604052565b610220810190811067ffffffffffffffff82111761077657604052565b90601f8019910116810190811067ffffffffffffffff82111761077657604052565b815181546001600160a01b0319166001600160a01b0391909116178155602082015160018201556040820151600282015560608201519091905f90815b60028110611e6157505060059160c0916003850155611e5a60048501611e3f60808401511515829060ff801983541691151516179055565b60a0830151815461ff00191690151560081b61ff0016179055565b0151910155565b90916020611e866001928460ff875116919060ff809160031b9316831b921b19161790565b93019101611e07565b67ffffffffffffffff81116107765760051b60200190565b90604051611eb481611d6f565b60c06005829460018060a01b038154168452600181015460208501526002810154604085015260405160ff6003830154818116835260081c166020820152611efd604082611da8565b606085015260ff60048201548181161515608087015260081c16151560a08501520154910152565b15611f2c57565b60405162461bcd60e51b815260206004820152601260248201527147616d65206973206e6f742061637469766560701b6044820152606490fd5b15611f6d57565b60405162461bcd60e51b815260206004820152600d60248201526c2737ba103cb7bab9103a3ab93760991b6044820152606490fd5b60405190611faf82611d53565b60606020835f81520152565b80545f825580611fc9575050565b611fdc915f5260205f2090810190611d28565b565b600160209183518155019101519081519167ffffffffffffffff831161077657600160401b831161077657602090825484845580851061204e575b5001905f5260205f205f5b8381106120315750505050565b82516001600160a01b031681830155602090920191600101612024565b61206390845f5285845f209182019101611d28565b5f612019565b6040519161207683611d6f565b5f83525f60208401525f604084015260409283516120948582611da8565b8436823760608201525f60808201525f60a08201525f60c0820152506120bc5f548310611c66565b5f5b60076120c984611c1a565b500154811015612123576120e98160076120e286611c1a565b5001611cf5565b50546001600160a01b03838116911614612105576001016120be565b9050612120925060076120e261211a93611c1a565b50611ea7565b90565b835162461bcd60e51b815260206004820152601e60248201527f506c61796572206e6f7420666f756e642061742074686973207461626c6500006044820152606490fd5b60ff60019116019060ff821161076257565b8115612183570690565b634e487b7160e01b5f52601260045260245ffd5b6121a081611c1a565b509060078201905f5b825481101561228e5760016121be8285611cf5565b500154156122705760046121d28285611cf5565b5001805460ff1916600117905560046121eb8285611cf5565b5001805461ff00191690555f60026122038386611cf5565b50015560405161221281611d53565b5f81525f60208201526122258285611cf5565b505f915f5b60028110612242575050600301556001905b016121a9565b909260206122676001928460ff885116919060ff809160031b9316831b921b19161790565b9401910161222a565b80600461227f60019386611cf5565b5001805460ff1916905561223c565b509190600f82018054905f81558161264b575b505060ff806122c660068596950193826122bd81875416612167565b91549116612179565b161660ff198254161790556122da81611c1a565b50600881015f5b603460ff821610612605575060405160208101904282524460408201523360601b606082015260548152612316607482611da8565b5190205f5b6034811061255f57505050600a01805460ff1916905561242a61233d82611c1a565b5060ff6124156006830192826122bd61235882875416612167565b92826123ca6123c0826123736007860198828a549116612179565b166004850154806002612386848c611cf5565b5001556123a26001612398848c611cf5565b5001918254611d0e565b905560046123b0828a611cf5565b5001805461ff0019169055612167565b8287549116612179565b1690600d6005820180548060026123e1878b611cf5565b5001556123f36001612398878b611cf5565b905560046124018589611cf5565b5001805461ff001916905554910155612167565b825461ff001916911660081b61ff0016179055565b61243381611c1a565b5060078101915f5b835481101561250c578060ff600461245560019488611cf5565b50015416612464575b0161243b565b60ff6124d460088601600a87019083612493818454168261248482612f56565b16831986541617855583612f3d565b90549060031b1c1660036124a7878c611cf5565b500180548619169186169190911790558154841691846124c684612f56565b168519825416179055612f3d565b90549060031b1c1661250560036124eb8489611cf5565b5001918483549060ff809160031b9316831b921b19161790565b905561245e565b50929050600c915001600160ff198254161790555f5160206139125f395f51905f526020604051837f17ef9d3684374ca660f2d6b5a52c09c0c1c6144b13c23ff3681fb0a9ba9fe4c35f80a260018152a2565b61256c8183979697611d1b565b908060340391603483116107625760019261258691612179565b6125fa60ff6125958388612f3d565b90549060031b1c166125ca60ff6125ac868a612f3d565b90549060031b1c166125e26125c1878b612f3d565b9390968b612f3d565b819391549060ff809160031b9316831b921b19161790565b905583549060ff809160031b9316831b921b19161790565b90550194939461231b565b60018161261660ff93979697612167565b61263f846126248488612f3d565b919093169083549060ff809160031b9316831b921b19161790565b905501169392936122e1565b6001600160ff1b0382168203610762575f5260205f209060011b8101905b818110156122a157805f6002925561268360018201611fbb565b01612669565b61269281611c1a565b50600660078201910160046126ae60ff835460081c1684611cf5565b500161010061ff00198254161790556126ce60ff825460081c1683611cf5565b506005429101556126de83612f67565b15612eab5750506126ee81611c1a565b50915f905f93600781019485545b808210612e86575050600f01915f608052602060805260405161272160805182611da8565b5f8082523681376040519161273583611d53565b8252608051820152825490600160401b8210156107765760018201808555821015611c525761277091845f526080515f209060011b01611fde565b5f5b84548110156128055760ff60046127898388611cf5565b5001541661279a575b600101612772565b60016127a584613059565b5001906127b28187611cf5565b505482546001600160a01b0390911690600160401b8110156107765760018101808555811015611c52576001935f526080515f2001906bffffffffffffffffffffffff60a01b8254161790559050612792565b509192505061281382611c1a565b50905f9260078301935b845481101561285657805f600261283660019489611cf5565b50015560046128458288611cf5565b5001805461ff00191690550161281d565b50919092505f600d8201556005810154600e82015560ff600c82015416600681101561027757600181036128c6575060ff600c5f5160206139125f395f51905f529260028319838301541617828201556128af856130da565b0154166128bf6040518092611c0d565b60805190a2565b600281036128fe575060ff600c5f5160206139125f395f51905f529260038319838301541617828201556128f9856130da565b6128af565b60038103612931575060ff600c5f5160206139125f395f51905f529260048319838301541617828201556128f9856130da565b600414612951575b60ff600c5f5160206139125f395f51905f52926128af565b600c8101805460ff1916600517905561296982611c1a565b5060405161014061297a8183611da8565b60098252601f1901366080518301375f612992611fa2565b925f9360078201948554905b818110612b28575050506129b182613027565b925f5b838110612b00575050600f6129c99101613059565b5054811561218357819004925f905b828210612a83575050509083916040519160408301604084528251809152606084019260805101905f5b818110612a6057505050927fedb6330b1b84cda51026e9a0aabf4ce11324d13d69e89d1033001317ad20039583600c945f5160206139125f395f51905f52979460ff976080518301520390a2612a5785612197565b92505050612939565b82516001600160a01b031685526080518997509485019490920191600101612a02565b92955f97919592975b8454811015612af157612a9f8186611cf5565b50546001600160a01b0390811690612ab7898b6130b8565b511614612ac657600101612a8c565b956001612ada86949a959882949a97611cf5565b5001612ae7878254611d1b565b90555b01906129d8565b50959290969194600190612aea565b6001906001600160a01b03612b1582856130b8565b5116612b2182886130b8565b52016129b4565b60ff6004612b36838a611cf5565b50015416612b47575b60010161299e565b916101009460405195612b5a8188611da8565b60078752601f19013660805188013760ff6003612b77868b611cf5565b50015416612b848761306b565b526003612b91858a611cf5565b5001546001929060081c60ff16612ba788613078565b525f835b612e41575b50612bb9611fa2565b50612bc48751613027565b612bce8851613027565b9084895f825b612de0575b5050505050612be6611fa2565b965f5b60078110612c9957505081612c2f575060019150612c2590612c0b858a611cf5565b50838060a01b03905416612c1f828a6130b8565b526130cc565b94925b9050612b3f565b612c3981886132c1565b5f811315612c6c57505050600190612c518489611cf5565b50828060a01b03905416612c648861306b565b529492612c28565b91965093915015612c80575b600190612c28565b93612c91600191612c0b878a611cf5565b949050612c78565b848101808211610762579085915b60078110612cb6575001612be9565b90918101808211610762579086915b60078110612cd7575001908591612ca7565b90918101808211610762579087915b60078110612cf8575001908691612cc5565b9091810181116107625780888092015b60078110612d1a575001908791612ce6565b9091508c5f612dc7612dc060c060405190612d358183611da8565b600582525060a03660805183013760ff612d4f8b8d6130b8565b5116612d5a8261306b565b5260ff612d678a8d6130b8565b5116612d7282613078565b5260ff612d7f898d6130b8565b5116612d8a82613088565b5260ff612d97888d6130b8565b5116612da282613098565b5260ff612daf878d6130b8565b5116612dba826130a8565b5261337b565b92836132c1565b13612dd8575b508801908891612d08565b9c5088612dcd565b8151811015612e3c5760ff600d81612e2581612e0f86888b612e1f83868a8f9e612e1683612e0f8682946130b8565b51166132af565b160616926130b8565b526130b8565b160416612e3282876130b8565b52018a9082612bd4565b612bd9565b6005811015612e815760ff600b8260051c8901015460f88360031b161c16906002810190818111610762578592612e7984938c6130b8565b520190612bab565b612bb0565b9093612ea36001916002612e9a888b611cf5565b50015490611d1b565b9401906126fc565b91509160ff825460081c169060019260ff855416948515945b15612ee5575b612ed45f94612167565b856121835760ff8791160693612ec4565b60ff6004612ef38684611cf5565b50015416158015612f22575b612eca5750909350611fdc92509061ff0082549160081b169061ff001916179055565b5060ff6004612f318684611cf5565b50015460081c16612eff565b9190916034831015611c5257601f908360051c01921690565b60ff1660ff81146107625760010190565b612f7090611c1a565b505f90600781018054925b838110612f8b5750505050600190565b60ff6004612f998385611cf5565b500154168061300b575b612fd15760ff6004612fb58385611cf5565b5001541680612ff0575b80612fd9575b612fd157600101612f7b565b505050505f90565b506001612fe68284611cf5565b5001541515612fc5565b506002612ffd8284611cf5565b500154600d84015411612fbf565b5060ff600461301a8385611cf5565b50015460081c1615612fa3565b9061303182611e8f565b61303e6040519182611da8565b828152809261304f601f1991611e8f565b0190602036910137565b805415611c52575f5260205f20905f90565b805115611c525760200190565b805160011015611c525760400190565b805160021015611c525760600190565b805160031015611c525760800190565b805160041015611c525760a00190565b8051821015611c525760209160051b010190565b5f1981146107625760010190565b6130e381611c1a565b5060ff600c82015416600681101561027757600b61320f7f86981aa8c80c36d41a56382bb6d7f4f432477216193063fc8196ede419c99ec09383600260a095145f1461321257506008810160ff6131b5600a840182613158818354168261314982612f56565b16831985541617845586612f3d565b90549060031b1c169387860194855485805f60031b9316831b921b19161785558361318a818454168261248482612f56565b90549060031b1c1685548580600160031b9316831b921b19161785558382541691846124c684612f56565b90549060031b1c16815460ff80600260031b9316831b921b19161790555b6040519283910160ff608091548181168452818160081c166020850152818160101c166040850152818160181c16606085015260201c16910152565ba2565b6003810361326a575060ff613245600a830182815416908361323383612f56565b16841982541617905560088401612f3d565b90549060031b1c1683820190815460ff806003801b9316831b921b19161790556131d3565b6004036131d35760ff613289600a830182815416908361323383612f56565b90549060031b1c1683820190815460ff80600460031b9316831b921b19161790556131d3565b60ff5f199116019060ff821161076257565b908151600a81101561027757815190600a8210156102775711613374578151600a81101561027757815190600a821015610277571061336d575f5b60208301805180518310156133645782613315916130b8565b519060208401916133278484516130b8565b511061335a578261333c8161334493516130b8565b5192516130b8565b5111613352576001016132fc565b5050505f1990565b5050505050600190565b50505050505f90565b50505f1990565b5050600190565b613383611fa2565b505f5b600481106137e7575060c06040519161339f8284611da8565b6005835260a0366020850137604051916133b98184611da8565b600583525060a03660208401375f5b6005811061379c575050604051906101c06133e38184611da8565b600d8352601f19013660208401375f5b6005811061376a57506134058161306b565b5161340f82613078565b5114908161374d575b81613730575b81613713575b5061342e8361306b565b51600181018091116107625761344384613078565b5114806136ed575b806136c7575b806136a1575b808061369a575b613642575f925f905f905f5b600d81106135cd5750506001146135a75760011491828061359d575b613577576135525761352e5761350b57600281146134e8576001146134c6576134ae9061386a565b604051906134bb82611d53565b5f8252602082015290565b6134cf9061386a565b604051906134dc82611d53565b60018252602082015290565b506134f29061386a565b604051906134ff82611d53565b60028252602082015290565b506135159061386a565b6040519061352282611d53565b60038252602082015290565b50506135399061386a565b6040519061354682611d53565b60048252602082015290565b50505061355e9061386a565b6040519061356b82611d53565b60058252602082015290565b505050506135849061386a565b6040519061359182611d53565b60068252602082015290565b5060018414613486565b505050506135b49061386a565b604051906135c182611d53565b60078252602082015290565b60026135d982846130b8565b5114613632575b60036135ec82846130b8565b5114613622575b60046135ff82846130b8565b511461360e575b60010161346a565b9161361a6001916130cc565b929050613606565b9261362c906130cc565b926135f3565b9561363c906130cc565b956135e0565b505050600c613650826130a8565b51146136785761365f9061386a565b6040519061366c82611d53565b60088252602082015290565b6136819061386a565b6040519061368e82611d53565b60098252602082015290565b508161345e565b506136ab83613098565b5160018101809111610762576136c0846130a8565b5114613457565b506136d183613088565b5160018101809111610762576136e684613098565b5114613451565b506136f783613078565b51600181018091116107625761370c84613088565b511461344b565b905061372861372182613098565b51916130a8565b51145f613424565b905061373b81613088565b5161374582613098565b51149061341e565b905061375881613078565b5161376282613088565b511490613418565b80613777600192866130b8565b5161379561378e61378883886130b8565b516130cc565b91866130b8565b52016133f3565b8060ff600d816137b281612e0f600197896130b8565b1606166137bf82876130b8565b5260ff600d816137d381612e0f86896130b8565b1604166137e082866130b8565b52016133c8565b919060018301808411610762575b6005811061380857509091600101613386565b60019060ff61381786856130b8565b511660ff61382583866130b8565b511610613833575b016137f5565b60ff61383f82856130b8565b511660ff61384d87866130b8565b511661385983866130b8565b5261386486856130b8565b5261382d565b905f905b82518210156138ed5760018201808311610762575b83518110156138e25760019061389984866130b8565b516138a482876130b8565b51116138b1575b01613883565b6138bb81866130b8565b516138c685876130b8565b516138d183886130b8565b526138dc85876130b8565b526138ab565b50906001019061386e565b905056fef3d4f57e05aae06b4017c0b2ed81f62aa6f19deef046d6a78ad2a4223858c4f070eca82567b065893a5e6cc590178b6b320855676b6a9a066625933e0c8ebe58a2646970667358221220706ab01d7d6643500562186ad03393355575d9f036ae4512d8fceab8e97e0f6964736f6c634300081e0033",
			"opcodes": "PUSH1 0x80 DUP1 PUSH1 0x40 MSTORE CALLVALUE PUSH1 0x15 JUMPI PUSH2 0x3967 SWAP1 DUP2 PUSH2 0x1A DUP3 CODECOPY RETURN JUMPDEST PUSH0 DUP1 REVERT INVALID PUSH1 0xA0 DUP1 PUSH1 0x40 MSTORE PUSH1 0x4 CALLDATASIZE LT ISZERO PUSH2 0x12 JUMPI PUSH0 DUP1 REVERT JUMPDEST PUSH0 CALLDATALOAD PUSH1 0xE0 SHR SWAP1 DUP2 PUSH4 0x1E22C12 EQ PUSH2 0x1B3D JUMPI POP DUP1 PUSH4 0x8CE2011 EQ PUSH2 0x191A JUMPI DUP1 PUSH4 0x1FF7EFC0 EQ PUSH2 0x16E1 JUMPI DUP1 PUSH4 0x1FFC9A02 EQ PUSH2 0xF4D JUMPI DUP1 PUSH4 0x2B096926 EQ PUSH2 0xDD4 JUMPI DUP1 PUSH4 0x40CB15D8 EQ PUSH2 0xDB9 JUMPI DUP1 PUSH4 0x4411B3EB EQ PUSH2 0xD9E JUMPI DUP1 PUSH4 0x56ADCB76 EQ PUSH2 0xBC3 JUMPI DUP1 PUSH4 0x5E82FF65 EQ PUSH2 0xBA8 JUMPI DUP1 PUSH4 0x5F72F450 EQ PUSH2 0xA53 JUMPI DUP1 PUSH4 0x71671BF2 EQ PUSH2 0x97C JUMPI DUP1 PUSH4 0xA4DD19A5 EQ PUSH2 0x3DE JUMPI DUP1 PUSH4 0xB20BFBB9 EQ PUSH2 0x39C JUMPI DUP1 PUSH4 0xBFF7A00B EQ PUSH2 0x28F JUMPI PUSH4 0xE52B2285 EQ PUSH2 0xC1 JUMPI PUSH0 DUP1 REVERT JUMPDEST CALLVALUE PUSH2 0x28B JUMPI PUSH1 0x20 CALLDATASIZE PUSH1 0x3 NOT ADD SLT PUSH2 0x28B JUMPI PUSH1 0x4 CALLDATALOAD PUSH2 0xE1 PUSH0 SLOAD DUP3 LT PUSH2 0x1C66 JUMP JUMPDEST CALLER PUSH0 MSTORE PUSH1 0x1 PUSH1 0x20 MSTORE PUSH2 0xF8 DUP2 PUSH1 0x40 PUSH0 KECCAK256 SLOAD EQ PUSH2 0x1CA9 JUMP JUMPDEST PUSH2 0x101 DUP2 PUSH2 0x1C1A JUMP JUMPDEST POP PUSH1 0xFF PUSH1 0x1 DUP3 ADD SLOAD AND SWAP1 PUSH1 0x3 DUP3 LT ISZERO PUSH2 0x277 JUMPI PUSH2 0x123 PUSH1 0x1 PUSH2 0x146 SWAP4 EQ PUSH2 0x1F25 JUMP JUMPDEST PUSH1 0x7 DUP2 ADD SWAP1 PUSH1 0xFF PUSH1 0x6 DUP4 SLOAD SWAP3 ADD SLOAD PUSH1 0x8 SHR AND DUP1 SWAP2 GT SWAP2 DUP3 PUSH2 0x259 JUMPI JUMPDEST POP POP PUSH2 0x1F66 JUMP JUMPDEST PUSH2 0x14F DUP2 PUSH2 0x1C1A JUMP JUMPDEST POP PUSH1 0x7 DUP2 ADD SWAP2 PUSH2 0x169 PUSH1 0xFF PUSH1 0x6 DUP5 ADD SLOAD PUSH1 0x8 SHR AND DUP5 PUSH2 0x1CF5 JUMP JUMPDEST POP SWAP2 PUSH1 0x1 DUP4 ADD SWAP1 PUSH0 DUP3 SLOAD SWAP3 SSTORE PUSH1 0x2 DUP5 ADD PUSH2 0x184 DUP4 DUP3 SLOAD PUSH2 0x1D1B JUMP JUMPDEST SWAP1 DUP2 DUP2 SSTORE PUSH1 0xD DUP4 ADD DUP1 SLOAD DUP4 GT PUSH2 0x233 JUMPI JUMPDEST POP POP POP POP PUSH1 0x40 MLOAD SWAP1 PUSH1 0x40 DUP3 MSTORE PUSH1 0x6 PUSH1 0x40 DUP4 ADD MSTORE PUSH6 0x20B63616B4B7 PUSH1 0xD1 SHL PUSH1 0x60 DUP4 ADD MSTORE PUSH1 0x20 DUP3 ADD MSTORE DUP2 PUSH0 MLOAD PUSH1 0x20 PUSH2 0x38F2 PUSH0 CODECOPY PUSH0 MLOAD SWAP1 PUSH0 MSTORE PUSH1 0x80 CALLER SWAP4 LOG3 PUSH0 JUMPDEST DUP4 SLOAD DUP2 LT ISZERO PUSH2 0x217 JUMPI DUP1 PUSH1 0xFF PUSH1 0x4 PUSH2 0x1EC PUSH1 0x1 SWAP5 DUP9 PUSH2 0x1CF5 JUMP JUMPDEST POP ADD SLOAD AND PUSH2 0x1FB JUMPI JUMPDEST ADD PUSH2 0x1D2 JUMP JUMPDEST PUSH1 0x4 PUSH2 0x207 DUP3 DUP8 PUSH2 0x1CF5 JUMP JUMPDEST POP ADD DUP1 SLOAD PUSH2 0xFF00 NOT AND SWAP1 SSTORE PUSH2 0x1F5 JUMP JUMPDEST POP PUSH1 0x4 PUSH2 0x231 SWAP3 ADD PUSH2 0x100 PUSH2 0xFF00 NOT DUP3 SLOAD AND OR SWAP1 SSTORE PUSH2 0x2689 JUMP JUMPDEST STOP JUMPDEST DUP3 PUSH2 0x24D SWAP3 PUSH1 0xE SWAP5 PUSH2 0x247 SWAP4 SSTORE SLOAD SWAP1 PUSH2 0x1D0E JUMP JUMPDEST DUP5 PUSH2 0x1D0E JUMP JUMPDEST SWAP2 ADD SSTORE PUSH0 DUP1 DUP1 DUP1 PUSH2 0x195 JUMP JUMPDEST PUSH2 0x263 SWAP3 POP PUSH2 0x1CF5 JUMP JUMPDEST POP SLOAD PUSH1 0x1 PUSH1 0x1 PUSH1 0xA0 SHL SUB AND CALLER EQ PUSH0 DUP1 PUSH2 0x13F JUMP JUMPDEST PUSH4 0x4E487B71 PUSH1 0xE0 SHL PUSH0 MSTORE PUSH1 0x21 PUSH1 0x4 MSTORE PUSH1 0x24 PUSH0 REVERT JUMPDEST PUSH0 DUP1 REVERT JUMPDEST CALLVALUE PUSH2 0x28B JUMPI PUSH1 0x20 CALLDATASIZE PUSH1 0x3 NOT ADD SLT PUSH2 0x28B JUMPI PUSH1 0x4 CALLDATALOAD PUSH2 0x2AF PUSH0 SLOAD DUP3 LT PUSH2 0x1C66 JUMP JUMPDEST CALLER PUSH0 MSTORE PUSH1 0x1 PUSH1 0x20 MSTORE PUSH2 0x2C6 DUP2 PUSH1 0x40 PUSH0 KECCAK256 SLOAD EQ PUSH2 0x1CA9 JUMP JUMPDEST PUSH2 0x2CF DUP2 PUSH2 0x1C1A JUMP JUMPDEST POP SWAP1 PUSH1 0xFF PUSH1 0x1 DUP4 ADD SLOAD AND PUSH1 0x3 DUP2 LT ISZERO PUSH2 0x277 JUMPI PUSH2 0x231 SWAP3 PUSH2 0x2F5 PUSH1 0x1 PUSH2 0x317 SWAP4 EQ PUSH2 0x1F25 JUMP JUMPDEST PUSH1 0x7 DUP2 ADD SWAP1 PUSH1 0xFF PUSH1 0x6 DUP4 SLOAD SWAP3 ADD SLOAD PUSH1 0x8 SHR AND DUP1 SWAP2 GT SWAP2 DUP3 PUSH2 0x37E JUMPI POP POP PUSH2 0x1F66 JUMP JUMPDEST PUSH1 0x4 PUSH2 0x33A PUSH2 0x325 DUP4 PUSH2 0x1C1A JUMP JUMPDEST POP PUSH1 0x7 PUSH1 0xFF PUSH1 0x6 DUP4 ADD SLOAD PUSH1 0x8 SHR AND SWAP2 ADD PUSH2 0x1CF5 JUMP JUMPDEST POP ADD PUSH1 0xFF NOT DUP2 SLOAD AND SWAP1 SSTORE PUSH1 0x40 MLOAD PUSH1 0x40 DUP2 MSTORE PUSH1 0x4 PUSH1 0x40 DUP3 ADD MSTORE PUSH4 0x119BDB19 PUSH1 0xE2 SHL PUSH1 0x60 DUP3 ADD MSTORE PUSH0 PUSH1 0x20 DUP3 ADD MSTORE DUP2 PUSH0 MLOAD PUSH1 0x20 PUSH2 0x38F2 PUSH0 CODECOPY PUSH0 MLOAD SWAP1 PUSH0 MSTORE PUSH1 0x80 CALLER SWAP4 LOG3 PUSH2 0x2689 JUMP JUMPDEST PUSH2 0x388 SWAP3 POP PUSH2 0x1CF5 JUMP JUMPDEST POP SLOAD PUSH1 0x1 PUSH1 0x1 PUSH1 0xA0 SHL SUB AND CALLER EQ DUP5 DUP1 PUSH2 0x13F JUMP JUMPDEST CALLVALUE PUSH2 0x28B JUMPI PUSH1 0x40 CALLDATASIZE PUSH1 0x3 NOT ADD SLT PUSH2 0x28B JUMPI PUSH1 0x24 CALLDATALOAD PUSH1 0x1 PUSH1 0x1 PUSH1 0xA0 SHL SUB DUP2 AND DUP2 SUB PUSH2 0x28B JUMPI PUSH2 0x3CF PUSH2 0x100 SWAP2 PUSH1 0x4 CALLDATALOAD PUSH2 0x2069 JUMP JUMPDEST PUSH2 0x3DC PUSH1 0x40 MLOAD DUP1 SWAP3 PUSH2 0x1B99 JUMP JUMPDEST RETURN JUMPDEST CALLVALUE PUSH2 0x28B JUMPI PUSH1 0x80 CALLDATASIZE PUSH1 0x3 NOT ADD SLT PUSH2 0x28B JUMPI PUSH0 SLOAD PUSH1 0x44 CALLDATALOAD PUSH1 0x4 CALLDATALOAD PUSH1 0x24 CALLDATALOAD PUSH1 0x64 CALLDATALOAD PUSH1 0xA DUP6 LT ISZERO PUSH2 0x93E JUMPI DUP3 ISZERO ISZERO DUP1 PUSH2 0x935 JUMPI JUMPDEST DUP1 PUSH2 0x92C JUMPI JUMPDEST ISZERO PUSH2 0x8F6 JUMPI DUP3 DUP3 LT PUSH2 0x8BA JUMPI PUSH1 0x40 MLOAD SWAP4 PUSH2 0x680 PUSH2 0x432 DUP2 DUP8 PUSH2 0x1DA8 JUMP JUMPDEST CALLDATASIZE DUP7 CALLDATACOPY PUSH1 0x20 SWAP5 PUSH1 0x40 MLOAD PUSH2 0x445 DUP8 DUP3 PUSH2 0x1DA8 JUMP JUMPDEST PUSH0 DUP2 MSTORE PUSH1 0x40 MLOAD SWAP3 PUSH1 0xA0 DUP5 ADD DUP5 DUP2 LT PUSH8 0xFFFFFFFFFFFFFFFF DUP3 GT OR PUSH2 0x776 JUMPI PUSH1 0x40 MSTORE PUSH0 DUP5 MSTORE PUSH0 DUP9 DUP6 ADD MSTORE PUSH0 PUSH1 0x40 DUP6 ADD MSTORE PUSH0 PUSH1 0x60 DUP6 ADD MSTORE PUSH0 PUSH1 0x80 DUP6 ADD MSTORE PUSH1 0x40 MLOAD SWAP6 PUSH2 0x48E DUP10 DUP9 PUSH2 0x1DA8 JUMP JUMPDEST PUSH0 DUP8 MSTORE PUSH1 0x40 MLOAD SWAP8 PUSH2 0x49E DUP10 PUSH2 0x1D8B JUMP JUMPDEST DUP11 DUP10 MSTORE PUSH0 DUP11 DUP11 ADD MSTORE PUSH1 0x40 DUP10 ADD MSTORE PUSH1 0x60 DUP9 ADD MSTORE PUSH1 0x80 DUP8 ADD MSTORE DUP4 PUSH1 0xA0 DUP8 ADD MSTORE PUSH0 PUSH1 0xC0 DUP8 ADD MSTORE PUSH0 PUSH1 0xE0 DUP8 ADD MSTORE PUSH2 0x100 DUP7 ADD MSTORE PUSH2 0x120 DUP6 ADD MSTORE PUSH0 PUSH2 0x140 DUP6 ADD MSTORE PUSH2 0x160 DUP5 ADD MSTORE PUSH0 PUSH2 0x180 DUP5 ADD MSTORE PUSH0 PUSH2 0x1A0 DUP5 ADD MSTORE PUSH2 0x1C0 DUP4 ADD MSTORE PUSH2 0x1E0 DUP3 ADD MSTORE TIMESTAMP PUSH2 0x200 DUP3 ADD MSTORE PUSH1 0x1 PUSH1 0x40 SHL DUP4 LT ISZERO PUSH2 0x776 JUMPI PUSH1 0x1 DUP4 ADD PUSH0 SSTORE PUSH2 0x51C DUP4 PUSH2 0x1C1A JUMP JUMPDEST SWAP3 SWAP1 SWAP3 PUSH2 0x8A7 JUMPI DUP2 MLOAD DUP4 SSTORE PUSH1 0x1 DUP4 ADD DUP2 DUP4 ADD MLOAD PUSH1 0x3 DUP2 LT ISZERO PUSH2 0x277 JUMPI PUSH1 0xFF DUP1 NOT DUP4 SLOAD AND SWAP2 AND OR SWAP1 SSTORE PUSH1 0x40 DUP3 ADD MLOAD PUSH1 0x2 DUP5 ADD SSTORE PUSH1 0x60 DUP3 ADD MLOAD PUSH1 0x3 DUP5 ADD SSTORE PUSH1 0x80 DUP3 ADD MLOAD PUSH1 0x4 DUP5 ADD SSTORE PUSH1 0xA0 DUP3 ADD MLOAD PUSH1 0x5 DUP5 ADD SSTORE PUSH2 0x5A3 PUSH1 0x6 DUP5 ADD PUSH1 0xFF DUP1 PUSH1 0xC0 DUP7 ADD MLOAD AND AND PUSH1 0xFF NOT DUP3 SLOAD AND OR DUP2 SSTORE PUSH1 0xFF PUSH1 0xE0 DUP6 ADD MLOAD AND PUSH2 0xFF00 DUP3 SLOAD SWAP2 PUSH1 0x8 SHL AND SWAP1 PUSH2 0xFF00 NOT AND OR SWAP1 SSTORE JUMP JUMPDEST PUSH1 0x7 DUP4 ADD PUSH2 0x100 DUP4 ADD MLOAD SWAP1 DUP2 MLOAD SWAP2 PUSH1 0x1 PUSH1 0x40 SHL DUP4 GT PUSH2 0x776 JUMPI DUP4 SWAP1 DUP3 SLOAD DUP5 DUP5 SSTORE DUP1 DUP6 LT PUSH2 0x834 JUMPI JUMPDEST POP ADD SWAP1 PUSH0 MSTORE DUP3 PUSH0 KECCAK256 DUP4 PUSH0 SWAP3 JUMPDEST DUP5 DUP5 LT PUSH2 0x815 JUMPI POP POP POP POP POP PUSH2 0x120 DUP3 ADD MLOAD PUSH0 JUMPDEST PUSH1 0x1 DUP2 LT PUSH2 0x7D4 JUMPI POP PUSH0 SWAP1 PUSH0 JUMPDEST DUP4 PUSH1 0x14 DUP3 LT PUSH2 0x7AF JUMPI POP POP POP PUSH1 0x9 DUP5 ADD SSTORE PUSH1 0xFF PUSH2 0x140 DUP4 ADD MLOAD AND PUSH1 0xFF PUSH1 0xA DUP6 ADD SWAP2 AND PUSH1 0xFF NOT DUP3 SLOAD AND OR SWAP1 SSTORE PUSH2 0x160 DUP3 ADD MLOAD PUSH0 SWAP1 PUSH0 JUMPDEST DUP4 PUSH1 0x5 DUP3 LT PUSH2 0x78A JUMPI POP POP POP PUSH1 0xB DUP5 ADD SSTORE PUSH1 0xC DUP4 ADD PUSH2 0x180 DUP4 ADD MLOAD PUSH1 0x6 DUP2 LT ISZERO PUSH2 0x277 JUMPI PUSH1 0xFF DUP1 NOT DUP4 SLOAD AND SWAP2 AND OR SWAP1 SSTORE PUSH2 0x1A0 DUP3 ADD MLOAD PUSH1 0xD DUP5 ADD SSTORE PUSH2 0x1C0 DUP3 ADD MLOAD PUSH1 0xE DUP5 ADD SSTORE PUSH1 0xF DUP4 ADD PUSH2 0x1E0 DUP4 ADD MLOAD SWAP2 DUP3 MLOAD SWAP3 PUSH1 0x1 PUSH1 0x40 SHL DUP5 GT PUSH2 0x776 JUMPI DUP2 SWAP1 DUP4 SLOAD DUP6 DUP6 SSTORE DUP1 DUP7 LT PUSH2 0x6FD JUMPI JUMPDEST POP ADD SWAP2 PUSH0 MSTORE DUP1 PUSH0 KECCAK256 PUSH0 SWAP3 JUMPDEST DUP5 DUP5 LT PUSH2 0x6E0 JUMPI PUSH2 0x200 DUP7 ADD MLOAD PUSH1 0x10 DUP9 ADD SSTORE CALLER DUP9 PUSH32 0xE93806E02D09F53787D307ADA312314EC4CB949DC9BEDC8503F94BD46E45DC6B PUSH0 DUP1 LOG3 STOP JUMPDEST PUSH1 0x2 DUP4 DUP3 PUSH2 0x6F1 PUSH1 0x1 SWAP5 MLOAD DUP7 PUSH2 0x1FDE JUMP JUMPDEST ADD SWAP3 ADD SWAP4 ADD SWAP3 SWAP1 PUSH2 0x6A6 JUMP JUMPDEST SWAP1 SWAP2 POP PUSH1 0x1 PUSH1 0x1 PUSH1 0xFF SHL SUB DUP2 AND DUP2 SUB PUSH2 0x762 JUMPI PUSH1 0x1 PUSH1 0x1 PUSH1 0xFF SHL SUB DUP6 AND DUP6 SUB PUSH2 0x762 JUMPI SWAP1 DUP3 SWAP2 DUP5 PUSH0 MSTORE DUP3 PUSH0 KECCAK256 SWAP1 PUSH1 0x1 SHL DUP2 ADD SWAP1 DUP7 PUSH1 0x1 SHL ADD JUMPDEST DUP2 DUP2 LT PUSH2 0x743 JUMPI POP PUSH2 0x69B JUMP JUMPDEST PUSH1 0x2 SWAP2 SWAP3 SWAP4 POP PUSH0 DUP2 SSTORE PUSH2 0x758 PUSH1 0x1 DUP3 ADD PUSH2 0x1FBB JUMP JUMPDEST ADD SWAP1 DUP4 SWAP3 SWAP2 PUSH2 0x736 JUMP JUMPDEST PUSH4 0x4E487B71 PUSH1 0xE0 SHL PUSH0 MSTORE PUSH1 0x11 PUSH1 0x4 MSTORE PUSH1 0x24 PUSH0 REVERT JUMPDEST PUSH4 0x4E487B71 PUSH1 0xE0 SHL PUSH0 MSTORE PUSH1 0x41 PUSH1 0x4 MSTORE PUSH1 0x24 PUSH0 REVERT JUMPDEST DUP3 MLOAD SWAP3 SWAP4 SWAP2 SWAP3 PUSH1 0x1 SWAP3 PUSH1 0xFF PUSH1 0x3 DUP7 SWAP1 SHL DUP2 DUP2 SHL NOT SWAP1 SWAP3 AND SWAP3 AND SWAP1 SHL OR SWAP4 ADD SWAP2 ADD PUSH2 0x62D JUMP JUMPDEST DUP3 MLOAD SWAP3 SWAP4 SWAP2 SWAP3 PUSH1 0x1 SWAP3 PUSH1 0xFF PUSH1 0x3 DUP7 SWAP1 SHL DUP2 DUP2 SHL NOT SWAP1 SWAP3 AND SWAP3 AND SWAP1 SHL OR SWAP4 ADD SWAP2 ADD PUSH2 0x5F8 JUMP JUMPDEST PUSH0 PUSH0 JUMPDEST DUP5 DUP1 DUP3 LT PUSH2 0x7F0 JUMPI POP POP DUP6 DUP3 ADD PUSH1 0x8 ADD SSTORE PUSH1 0x1 ADD PUSH2 0x5EB JUMP JUMPDEST DUP5 MLOAD SWAP2 SWAP5 SWAP3 PUSH1 0x1 SWAP3 PUSH1 0xFF PUSH1 0x3 DUP9 SWAP1 SHL DUP2 DUP2 SHL NOT SWAP1 SWAP4 AND SWAP2 AND SWAP1 SWAP2 SHL OR SWAP3 ADD SWAP4 ADD PUSH2 0x7D7 JUMP JUMPDEST PUSH1 0x1 SWAP2 DUP2 PUSH2 0x826 PUSH1 0x6 SWAP4 MLOAD DUP7 PUSH2 0x1DCA JUMP JUMPDEST ADD SWAP3 ADD SWAP3 ADD SWAP2 SWAP1 DUP5 SWAP1 PUSH2 0x5D7 JUMP JUMPDEST DUP1 SWAP2 SWAP3 POP PUSH1 0x6 MUL SWAP1 PUSH1 0x6 DUP3 DIV SUB PUSH2 0x762 JUMPI DUP4 PUSH1 0x6 MUL PUSH1 0x6 DUP2 DIV DUP6 SUB PUSH2 0x762 JUMPI PUSH0 DUP5 DUP2 MSTORE DUP7 SWAP1 KECCAK256 DUP7 SWAP4 SWAP3 DUP2 ADD SWAP2 ADD JUMPDEST DUP2 DUP2 LT PUSH2 0x86F JUMPI POP PUSH2 0x5CB JUMP JUMPDEST PUSH1 0x6 SWAP2 SWAP3 SWAP4 POP PUSH0 DUP2 SSTORE PUSH0 PUSH1 0x1 DUP3 ADD SSTORE PUSH0 PUSH1 0x2 DUP3 ADD SSTORE PUSH0 PUSH1 0x4 DUP3 ADD PUSH2 0x896 DUP2 PUSH1 0x3 DUP6 ADD PUSH2 0x1D28 JUMP JUMPDEST SSTORE PUSH0 PUSH1 0x5 DUP3 ADD SSTORE ADD SWAP1 DUP6 SWAP3 SWAP2 PUSH2 0x862 JUMP JUMPDEST PUSH4 0x4E487B71 PUSH1 0xE0 SHL PUSH0 MSTORE PUSH0 PUSH1 0x4 MSTORE PUSH1 0x24 PUSH0 REVERT JUMPDEST PUSH1 0x40 MLOAD PUSH3 0x461BCD PUSH1 0xE5 SHL DUP2 MSTORE PUSH1 0x20 PUSH1 0x4 DUP3 ADD MSTORE PUSH1 0x14 PUSH1 0x24 DUP3 ADD MSTORE PUSH20 0x496E76616C6964206275792D696E2072616E6765 PUSH1 0x60 SHL PUSH1 0x44 DUP3 ADD MSTORE PUSH1 0x64 SWAP1 REVERT JUMPDEST PUSH1 0x40 MLOAD PUSH3 0x461BCD PUSH1 0xE5 SHL DUP2 MSTORE PUSH1 0x20 PUSH1 0x4 DUP3 ADD MSTORE PUSH1 0xE PUSH1 0x24 DUP3 ADD MSTORE PUSH14 0x496E76616C6964207374616B6573 PUSH1 0x90 SHL PUSH1 0x44 DUP3 ADD MSTORE PUSH1 0x64 SWAP1 REVERT JUMPDEST POP DUP4 DUP2 GT PUSH2 0x415 JUMP JUMPDEST POP DUP4 ISZERO ISZERO PUSH2 0x40F JUMP JUMPDEST PUSH1 0x40 MLOAD PUSH3 0x461BCD PUSH1 0xE5 SHL DUP2 MSTORE PUSH1 0x20 PUSH1 0x4 DUP3 ADD MSTORE PUSH1 0x16 PUSH1 0x24 DUP3 ADD MSTORE PUSH22 0x13585E1A5B5D5B481D18589B195CC81C995858DA1959 PUSH1 0x52 SHL PUSH1 0x44 DUP3 ADD MSTORE PUSH1 0x64 SWAP1 REVERT JUMPDEST CALLVALUE PUSH2 0x28B JUMPI PUSH1 0x20 CALLDATASIZE PUSH1 0x3 NOT ADD SLT PUSH2 0x28B JUMPI PUSH1 0x4 CALLDATALOAD PUSH0 SLOAD DUP2 LT ISZERO PUSH2 0x28B JUMPI PUSH2 0x9A2 SWAP1 PUSH2 0x1C1A JUMP JUMPDEST POP DUP1 SLOAD SWAP1 PUSH1 0x1 DUP2 ADD SLOAD PUSH1 0xFF AND SWAP1 PUSH1 0x2 DUP2 ADD SLOAD PUSH1 0x3 DUP3 ADD SLOAD PUSH1 0x4 DUP4 ADD SLOAD PUSH1 0x5 DUP5 ADD SLOAD PUSH1 0x6 DUP6 ADD SLOAD SWAP1 PUSH1 0xA DUP7 ADD SLOAD PUSH1 0xFF AND SWAP3 PUSH1 0xC DUP8 ADD SLOAD PUSH1 0xFF AND SWAP5 PUSH1 0xD DUP9 ADD SLOAD SWAP7 PUSH1 0xE DUP10 ADD SLOAD SWAP9 PUSH1 0x10 ADD SLOAD SWAP10 PUSH1 0x40 MLOAD SWAP12 DUP13 MSTORE PUSH1 0x20 DUP13 ADD PUSH2 0x9FF SWAP2 PUSH2 0x1B8C JUMP JUMPDEST PUSH1 0x40 DUP12 ADD MSTORE PUSH1 0x60 DUP11 ADD MSTORE PUSH1 0x80 DUP10 ADD MSTORE PUSH1 0xA0 DUP9 ADD MSTORE PUSH1 0xFF DUP2 AND PUSH1 0xC0 DUP9 ADD MSTORE PUSH1 0x8 SHR PUSH1 0xFF AND PUSH1 0xE0 DUP8 ADD MSTORE PUSH2 0x100 DUP7 ADD MSTORE PUSH2 0x120 DUP6 ADD PUSH2 0xA3B SWAP2 PUSH2 0x1C0D JUMP JUMPDEST PUSH2 0x140 DUP5 ADD MSTORE PUSH2 0x160 DUP4 ADD MSTORE PUSH2 0x180 DUP3 ADD MSTORE PUSH2 0x1A0 SWAP1 RETURN JUMPDEST CALLVALUE PUSH2 0x28B JUMPI PUSH1 0x20 CALLDATASIZE PUSH1 0x3 NOT ADD SLT PUSH2 0x28B JUMPI PUSH1 0x4 CALLDATALOAD PUSH2 0xA73 PUSH0 SLOAD DUP3 LT PUSH2 0x1C66 JUMP JUMPDEST CALLER PUSH0 MSTORE PUSH1 0x1 PUSH1 0x20 MSTORE PUSH2 0xA8A DUP2 PUSH1 0x40 PUSH0 KECCAK256 SLOAD EQ PUSH2 0x1CA9 JUMP JUMPDEST PUSH2 0xA93 DUP2 PUSH2 0x1C1A JUMP JUMPDEST POP PUSH1 0xFF PUSH1 0x1 DUP3 ADD SLOAD AND SWAP1 PUSH1 0x3 DUP3 LT ISZERO PUSH2 0x277 JUMPI PUSH2 0xAB5 PUSH1 0x1 PUSH2 0xAD7 SWAP4 EQ PUSH2 0x1F25 JUMP JUMPDEST PUSH1 0x7 DUP2 ADD SWAP1 PUSH1 0xFF PUSH1 0x6 DUP4 SLOAD SWAP3 ADD SLOAD PUSH1 0x8 SHR AND DUP1 SWAP2 GT SWAP2 DUP3 PUSH2 0xB8A JUMPI POP POP PUSH2 0x1F66 JUMP JUMPDEST PUSH2 0xAE0 DUP2 PUSH2 0x1C1A JUMP JUMPDEST POP PUSH1 0xD PUSH1 0x2 PUSH2 0xAFC PUSH1 0xFF PUSH1 0x6 DUP6 ADD SLOAD PUSH1 0x8 SHR AND PUSH1 0x7 DUP6 ADD PUSH2 0x1CF5 JUMP JUMPDEST POP ADD SLOAD SWAP2 ADD SLOAD SUB PUSH2 0xB46 JUMPI PUSH2 0x231 SWAP1 PUSH1 0x40 MLOAD PUSH1 0x40 DUP2 MSTORE PUSH1 0x5 PUSH1 0x40 DUP3 ADD MSTORE PUSH5 0x436865636B PUSH1 0xD8 SHL PUSH1 0x60 DUP3 ADD MSTORE PUSH0 PUSH1 0x20 DUP3 ADD MSTORE DUP2 PUSH0 MLOAD PUSH1 0x20 PUSH2 0x38F2 PUSH0 CODECOPY PUSH0 MLOAD SWAP1 PUSH0 MSTORE PUSH1 0x80 CALLER SWAP4 LOG3 PUSH2 0x2689 JUMP JUMPDEST PUSH1 0x64 PUSH1 0x40 MLOAD PUSH3 0x461BCD PUSH1 0xE5 SHL DUP2 MSTORE PUSH1 0x20 PUSH1 0x4 DUP3 ADD MSTORE PUSH1 0x20 PUSH1 0x24 DUP3 ADD MSTORE PUSH32 0x43616E6E6F7420636865636B2C206D7573742063616C6C206F72207261697365 PUSH1 0x44 DUP3 ADD MSTORE REVERT JUMPDEST PUSH2 0xB94 SWAP3 POP PUSH2 0x1CF5 JUMP JUMPDEST POP SLOAD PUSH1 0x1 PUSH1 0x1 PUSH1 0xA0 SHL SUB AND CALLER EQ DUP4 DUP1 PUSH2 0x13F JUMP JUMPDEST CALLVALUE PUSH2 0x28B JUMPI PUSH0 CALLDATASIZE PUSH1 0x3 NOT ADD SLT PUSH2 0x28B JUMPI PUSH1 0x20 PUSH1 0x40 MLOAD PUSH1 0x3C DUP2 MSTORE RETURN JUMPDEST CALLVALUE PUSH2 0x28B JUMPI PUSH2 0xBD1 CALLDATASIZE PUSH2 0x1B76 JUMP JUMPDEST SWAP1 PUSH2 0xBDE PUSH0 SLOAD DUP3 LT PUSH2 0x1C66 JUMP JUMPDEST CALLER PUSH0 MSTORE PUSH1 0x1 PUSH1 0x20 MSTORE PUSH2 0xBF5 DUP2 PUSH1 0x40 PUSH0 KECCAK256 SLOAD EQ PUSH2 0x1CA9 JUMP JUMPDEST PUSH2 0xBFE DUP2 PUSH2 0x1C1A JUMP JUMPDEST POP PUSH1 0xFF PUSH1 0x1 DUP3 ADD SLOAD AND SWAP1 PUSH1 0x3 DUP3 LT ISZERO PUSH2 0x277 JUMPI PUSH2 0x2F5 PUSH1 0x1 PUSH2 0xC20 SWAP4 EQ PUSH2 0x1F25 JUMP JUMPDEST PUSH2 0xC29 DUP2 PUSH2 0x1C1A JUMP JUMPDEST POP SWAP1 PUSH1 0x7 DUP3 ADD SWAP3 PUSH2 0xC44 PUSH1 0xFF PUSH1 0x6 DUP6 ADD SLOAD PUSH1 0x8 SHR AND DUP6 PUSH2 0x1CF5 JUMP JUMPDEST POP SWAP3 PUSH1 0xD DUP2 ADD DUP1 SLOAD SWAP1 PUSH1 0x2 DUP7 ADD SWAP1 PUSH2 0xC67 DUP6 PUSH2 0xC62 DUP5 SLOAD DUP1 SWAP7 PUSH2 0x1D0E JUMP JUMPDEST PUSH2 0x1D1B JUMP JUMPDEST SWAP4 PUSH1 0x1 DUP9 ADD SWAP5 DUP6 SLOAD SWAP2 DUP2 DUP4 LT PUSH2 0xD59 JUMPI PUSH1 0xE ADD SWAP5 DUP6 SLOAD DUP9 LT PUSH2 0xD1B JUMPI DUP8 SWAP7 PUSH2 0xC92 DUP4 PUSH2 0xC99 SWAP6 PUSH2 0x1D0E JUMP JUMPDEST SWAP1 SSTORE PUSH2 0x1D1B JUMP JUMPDEST DUP1 SWAP3 SSTORE SSTORE SSTORE PUSH1 0x40 MLOAD SWAP1 PUSH1 0x40 DUP3 MSTORE PUSH1 0x5 PUSH1 0x40 DUP4 ADD MSTORE PUSH5 0x5261697365 PUSH1 0xD8 SHL PUSH1 0x60 DUP4 ADD MSTORE PUSH1 0x20 DUP3 ADD MSTORE DUP2 PUSH0 MLOAD PUSH1 0x20 PUSH2 0x38F2 PUSH0 CODECOPY PUSH0 MLOAD SWAP1 PUSH0 MSTORE PUSH1 0x80 CALLER SWAP4 LOG3 PUSH0 JUMPDEST DUP4 SLOAD DUP2 LT ISZERO PUSH2 0x217 JUMPI DUP1 PUSH1 0xFF PUSH1 0x4 PUSH2 0xCF0 PUSH1 0x1 SWAP5 DUP9 PUSH2 0x1CF5 JUMP JUMPDEST POP ADD SLOAD AND PUSH2 0xCFF JUMPI JUMPDEST ADD PUSH2 0xCD6 JUMP JUMPDEST PUSH1 0x4 PUSH2 0xD0B DUP3 DUP8 PUSH2 0x1CF5 JUMP JUMPDEST POP ADD DUP1 SLOAD PUSH2 0xFF00 NOT AND SWAP1 SSTORE PUSH2 0xCF9 JUMP JUMPDEST PUSH1 0x40 MLOAD PUSH3 0x461BCD PUSH1 0xE5 SHL DUP2 MSTORE PUSH1 0x20 PUSH1 0x4 DUP3 ADD MSTORE PUSH1 0x16 PUSH1 0x24 DUP3 ADD MSTORE PUSH22 0x14985A5CD948185B5BDD5B9D081D1BDBC81CDB585B1B PUSH1 0x52 SHL PUSH1 0x44 DUP3 ADD MSTORE PUSH1 0x64 SWAP1 REVERT JUMPDEST PUSH1 0x40 MLOAD PUSH3 0x461BCD PUSH1 0xE5 SHL DUP2 MSTORE PUSH1 0x20 PUSH1 0x4 DUP3 ADD MSTORE PUSH1 0x1B PUSH1 0x24 DUP3 ADD MSTORE PUSH32 0x496E73756666696369656E7420636869707320746F2072616973650000000000 PUSH1 0x44 DUP3 ADD MSTORE PUSH1 0x64 SWAP1 REVERT JUMPDEST CALLVALUE PUSH2 0x28B JUMPI PUSH0 CALLDATASIZE PUSH1 0x3 NOT ADD SLT PUSH2 0x28B JUMPI PUSH1 0x20 PUSH1 0x40 MLOAD PUSH1 0x9 DUP2 MSTORE RETURN JUMPDEST CALLVALUE PUSH2 0x28B JUMPI PUSH0 CALLDATASIZE PUSH1 0x3 NOT ADD SLT PUSH2 0x28B JUMPI PUSH1 0x20 PUSH1 0x40 MLOAD PUSH1 0xA DUP2 MSTORE RETURN JUMPDEST CALLVALUE PUSH2 0x28B JUMPI PUSH1 0x20 CALLDATASIZE PUSH1 0x3 NOT ADD SLT PUSH2 0x28B JUMPI PUSH1 0x4 CALLDATALOAD PUSH2 0xDF4 PUSH0 SLOAD DUP3 LT PUSH2 0x1C66 JUMP JUMPDEST CALLER PUSH0 MSTORE PUSH1 0x1 PUSH1 0x20 MSTORE PUSH2 0xE0B DUP2 PUSH1 0x40 PUSH0 KECCAK256 SLOAD EQ PUSH2 0x1CA9 JUMP JUMPDEST PUSH2 0xE14 DUP2 PUSH2 0x1C1A JUMP JUMPDEST POP PUSH1 0xFF PUSH1 0x1 DUP3 ADD SLOAD AND SWAP1 PUSH1 0x3 DUP3 LT ISZERO PUSH2 0x277 JUMPI PUSH2 0xAB5 PUSH1 0x1 PUSH2 0xE36 SWAP4 EQ PUSH2 0x1F25 JUMP JUMPDEST PUSH2 0xE3F DUP2 PUSH2 0x1C1A JUMP JUMPDEST POP SWAP1 PUSH1 0xD PUSH2 0xE5A PUSH1 0xFF PUSH1 0x6 DUP6 ADD SLOAD PUSH1 0x8 SHR AND PUSH1 0x7 DUP6 ADD PUSH2 0x1CF5 JUMP JUMPDEST POP SWAP3 ADD SLOAD SWAP2 PUSH1 0x2 DUP2 ADD PUSH2 0xE6F DUP2 SLOAD DUP1 SWAP6 PUSH2 0x1D0E JUMP JUMPDEST SWAP2 DUP3 ISZERO PUSH2 0xF16 JUMPI PUSH1 0x1 ADD DUP1 SLOAD DUP4 DUP2 LT PUSH2 0xED1 JUMPI PUSH2 0x231 SWAP6 PUSH2 0xE95 SWAP3 PUSH2 0xC92 DUP7 DUP1 SWAP5 PUSH2 0x1D0E JUMP JUMPDEST SWAP1 SSTORE PUSH1 0x40 MLOAD SWAP1 PUSH1 0x40 DUP3 MSTORE PUSH1 0x4 PUSH1 0x40 DUP4 ADD MSTORE PUSH4 0x10D85B1B PUSH1 0xE2 SHL PUSH1 0x60 DUP4 ADD MSTORE PUSH1 0x20 DUP3 ADD MSTORE DUP2 PUSH0 MLOAD PUSH1 0x20 PUSH2 0x38F2 PUSH0 CODECOPY PUSH0 MLOAD SWAP1 PUSH0 MSTORE PUSH1 0x80 CALLER SWAP4 LOG3 PUSH2 0x2689 JUMP JUMPDEST PUSH1 0x40 MLOAD PUSH3 0x461BCD PUSH1 0xE5 SHL DUP2 MSTORE PUSH1 0x20 PUSH1 0x4 DUP3 ADD MSTORE PUSH1 0x1A PUSH1 0x24 DUP3 ADD MSTORE PUSH32 0x496E73756666696369656E7420636869707320746F2063616C6C000000000000 PUSH1 0x44 DUP3 ADD MSTORE PUSH1 0x64 SWAP1 REVERT JUMPDEST PUSH1 0x40 MLOAD PUSH3 0x461BCD PUSH1 0xE5 SHL DUP2 MSTORE PUSH1 0x20 PUSH1 0x4 DUP3 ADD MSTORE PUSH1 0xF PUSH1 0x24 DUP3 ADD MSTORE PUSH15 0x139BDD1A1A5B99C81D1BC818D85B1B PUSH1 0x8A SHL PUSH1 0x44 DUP3 ADD MSTORE PUSH1 0x64 SWAP1 REVERT JUMPDEST CALLVALUE PUSH2 0x28B JUMPI PUSH1 0x20 CALLDATASIZE PUSH1 0x3 NOT ADD SLT PUSH2 0x28B JUMPI PUSH1 0x4 CALLDATALOAD PUSH1 0x40 MLOAD PUSH2 0xF6D DUP2 PUSH2 0x1D8B JUMP JUMPDEST PUSH0 DUP2 MSTORE PUSH0 PUSH1 0x20 DUP3 ADD MSTORE PUSH0 PUSH1 0x40 DUP3 ADD MSTORE PUSH0 PUSH1 0x60 DUP3 ADD MSTORE PUSH0 PUSH1 0x80 DUP3 ADD MSTORE PUSH0 PUSH1 0xA0 DUP3 ADD MSTORE PUSH0 PUSH1 0xC0 DUP3 ADD MSTORE PUSH0 PUSH1 0xE0 DUP3 ADD MSTORE PUSH1 0x60 PUSH2 0x100 DUP3 ADD MSTORE PUSH2 0x1015 PUSH2 0x680 SWAP3 PUSH1 0x40 MLOAD PUSH2 0xFB6 DUP6 DUP3 PUSH2 0x1DA8 JUMP JUMPDEST DUP5 CALLDATASIZE DUP3 CALLDATACOPY PUSH2 0x120 DUP5 ADD MSTORE PUSH0 PUSH2 0x140 DUP5 ADD MSTORE PUSH0 PUSH2 0x200 PUSH1 0xA0 SWAP5 PUSH1 0x40 MLOAD PUSH2 0xFDB DUP8 DUP3 PUSH2 0x1DA8 JUMP JUMPDEST DUP7 CALLDATASIZE DUP3 CALLDATACOPY PUSH2 0x160 DUP3 ADD MSTORE DUP3 PUSH2 0x180 DUP3 ADD MSTORE DUP3 PUSH2 0x1A0 DUP3 ADD MSTORE DUP3 PUSH2 0x1C0 DUP3 ADD MSTORE PUSH1 0x60 PUSH2 0x1E0 DUP3 ADD MSTORE ADD MSTORE PUSH2 0x1010 PUSH0 SLOAD DUP3 LT PUSH2 0x1C66 JUMP JUMPDEST PUSH2 0x1C1A JUMP JUMPDEST POP PUSH1 0x40 MLOAD SWAP3 PUSH2 0x1023 DUP5 PUSH2 0x1D8B JUMP JUMPDEST DUP2 SLOAD DUP5 MSTORE PUSH1 0xFF PUSH1 0x1 DUP4 ADD SLOAD AND PUSH1 0x3 DUP2 LT ISZERO PUSH2 0x277 JUMPI PUSH1 0x20 DUP6 ADD MSTORE PUSH1 0x2 DUP3 ADD SLOAD PUSH1 0x40 DUP6 ADD MSTORE PUSH1 0x3 DUP3 ADD SLOAD PUSH1 0x60 DUP6 ADD MSTORE PUSH1 0x4 DUP3 ADD SLOAD PUSH1 0x80 DUP6 ADD MSTORE PUSH1 0x5 DUP3 ADD SLOAD DUP4 DUP6 ADD MSTORE PUSH1 0xFF PUSH1 0x6 DUP4 ADD SLOAD DUP2 DUP2 AND PUSH1 0xC0 DUP8 ADD MSTORE PUSH1 0x8 SHR AND PUSH1 0xE0 DUP6 ADD MSTORE PUSH1 0x7 DUP3 ADD DUP1 SLOAD PUSH2 0x108B DUP2 PUSH2 0x1E8F JUMP JUMPDEST SWAP2 PUSH2 0x1099 PUSH1 0x40 MLOAD SWAP4 DUP5 PUSH2 0x1DA8 JUMP JUMPDEST DUP2 DUP4 MSTORE PUSH1 0x20 DUP4 ADD SWAP1 PUSH0 MSTORE PUSH1 0x20 PUSH0 KECCAK256 PUSH0 SWAP2 JUMPDEST DUP4 DUP4 LT PUSH2 0x16C3 JUMPI POP POP POP POP PUSH2 0x100 DUP6 ADD MSTORE PUSH1 0x40 MLOAD SWAP1 DUP2 PUSH1 0x8 DUP5 ADD PUSH0 JUMPDEST PUSH1 0x34 PUSH1 0x1F DUP3 ADD LT PUSH2 0x1523 JUMPI POP SWAP1 PUSH2 0x260 PUSH1 0xFF PUSH2 0x11C0 SWAP5 SWAP4 SLOAD DUP2 DUP2 AND DUP5 MSTORE DUP2 DUP2 PUSH1 0x8 SHR AND PUSH1 0x20 DUP6 ADD MSTORE DUP2 DUP2 PUSH1 0x10 SHR AND PUSH1 0x40 DUP6 ADD MSTORE DUP2 DUP2 PUSH1 0x18 SHR AND PUSH1 0x60 DUP6 ADD MSTORE DUP2 DUP2 PUSH1 0x20 SHR AND PUSH1 0x80 DUP6 ADD MSTORE DUP2 DUP2 PUSH1 0x28 SHR AND DUP10 DUP6 ADD MSTORE DUP2 DUP2 PUSH1 0x30 SHR AND PUSH1 0xC0 DUP6 ADD MSTORE DUP2 DUP2 PUSH1 0x38 SHR AND PUSH1 0xE0 DUP6 ADD MSTORE DUP2 DUP2 PUSH1 0x40 SHR AND PUSH2 0x100 DUP6 ADD MSTORE DUP2 DUP2 PUSH1 0x48 SHR AND PUSH2 0x120 DUP6 ADD MSTORE DUP2 DUP2 PUSH1 0x50 SHR AND PUSH2 0x140 DUP6 ADD MSTORE DUP2 DUP2 PUSH1 0x58 SHR AND PUSH2 0x160 DUP6 ADD MSTORE DUP2 DUP2 PUSH1 0x60 SHR AND PUSH2 0x180 DUP6 ADD MSTORE DUP2 DUP2 PUSH1 0x68 SHR AND PUSH2 0x1A0 DUP6 ADD MSTORE DUP2 DUP2 PUSH1 0x70 SHR AND PUSH2 0x1C0 DUP6 ADD MSTORE DUP2 DUP2 PUSH1 0x78 SHR AND PUSH2 0x1E0 DUP6 ADD MSTORE DUP2 DUP2 PUSH1 0x80 SHR AND PUSH2 0x200 DUP6 ADD MSTORE DUP2 DUP2 PUSH1 0x88 SHR AND PUSH2 0x220 DUP6 ADD MSTORE DUP2 DUP2 PUSH1 0x90 SHR AND PUSH2 0x240 DUP6 ADD MSTORE PUSH1 0x98 SHR AND SWAP2 ADD MSTORE DUP3 PUSH2 0x1DA8 JUMP JUMPDEST PUSH2 0x120 DUP5 ADD MSTORE PUSH1 0xFF PUSH1 0xA DUP3 ADD SLOAD AND PUSH2 0x140 DUP5 ADD MSTORE PUSH1 0x40 MLOAD PUSH2 0x1214 DUP2 PUSH1 0xB DUP5 ADD PUSH1 0xFF PUSH1 0x80 SWAP2 SLOAD DUP2 DUP2 AND DUP5 MSTORE DUP2 DUP2 PUSH1 0x8 SHR AND PUSH1 0x20 DUP6 ADD MSTORE DUP2 DUP2 PUSH1 0x10 SHR AND PUSH1 0x40 DUP6 ADD MSTORE DUP2 DUP2 PUSH1 0x18 SHR AND PUSH1 0x60 DUP6 ADD MSTORE PUSH1 0x20 SHR AND SWAP2 ADD MSTORE JUMP JUMPDEST PUSH2 0x121E DUP4 DUP3 PUSH2 0x1DA8 JUMP JUMPDEST PUSH2 0x160 DUP5 ADD MSTORE PUSH1 0xFF PUSH1 0xC DUP3 ADD SLOAD AND PUSH1 0x6 DUP2 LT ISZERO PUSH2 0x277 JUMPI PUSH2 0x180 DUP5 ADD MSTORE PUSH1 0xD DUP2 ADD SLOAD PUSH2 0x1A0 DUP5 ADD MSTORE PUSH1 0xE DUP2 ADD SLOAD PUSH2 0x1C0 DUP5 ADD MSTORE PUSH1 0xF DUP2 ADD SLOAD PUSH2 0x125F DUP2 PUSH2 0x1E8F JUMP JUMPDEST SWAP1 PUSH2 0x126D PUSH1 0x40 MLOAD SWAP3 DUP4 PUSH2 0x1DA8 JUMP JUMPDEST DUP1 DUP3 MSTORE PUSH1 0x20 DUP3 ADD PUSH1 0xF DUP5 ADD PUSH0 MSTORE PUSH1 0x20 PUSH0 KECCAK256 PUSH0 SWAP2 JUMPDEST DUP4 DUP4 LT PUSH2 0x14A3 JUMPI DUP8 DUP8 PUSH1 0x10 DUP9 DUP9 PUSH2 0x1E0 DUP6 ADD MSTORE ADD SLOAD PUSH2 0x200 DUP4 ADD MSTORE PUSH1 0x40 MLOAD SWAP1 PUSH1 0x20 DUP3 MSTORE DUP3 MLOAD PUSH1 0x20 DUP4 ADD MSTORE PUSH2 0x12BD PUSH1 0x20 DUP5 ADD MLOAD PUSH1 0x40 DUP5 ADD SWAP1 PUSH2 0x1B8C JUMP JUMPDEST PUSH1 0x40 DUP4 ADD MLOAD PUSH1 0x60 DUP4 ADD MSTORE PUSH1 0x60 DUP4 ADD MLOAD PUSH1 0x80 DUP4 ADD MSTORE PUSH1 0x80 DUP4 ADD MLOAD DUP2 DUP4 ADD MSTORE DUP3 ADD MLOAD PUSH1 0xC0 DUP3 ADD MSTORE PUSH1 0xFF PUSH1 0xC0 DUP4 ADD MLOAD AND PUSH1 0xE0 DUP3 ADD MSTORE PUSH1 0xFF PUSH1 0xE0 DUP4 ADD MLOAD AND PUSH2 0x100 DUP3 ADD MSTORE PUSH2 0x100 DUP3 ADD MLOAD SWAP2 PUSH2 0x900 PUSH2 0x120 DUP4 ADD MSTORE DUP3 MLOAD DUP1 PUSH2 0x920 DUP5 ADD MSTORE PUSH1 0x20 PUSH2 0x940 DUP5 ADD SWAP5 ADD SWAP1 PUSH0 JUMPDEST DUP2 DUP2 LT PUSH2 0x1482 JUMPI POP POP POP PUSH2 0x120 DUP2 ADD MLOAD PUSH0 PUSH2 0x140 DUP5 ADD JUMPDEST PUSH1 0x34 DUP3 LT PUSH2 0x1469 JUMPI POP POP POP PUSH2 0x140 DUP2 ADD MLOAD PUSH1 0xFF AND PUSH2 0x7C0 DUP4 ADD MSTORE PUSH2 0x160 DUP2 ADD MLOAD PUSH0 PUSH2 0x7E0 DUP5 ADD JUMPDEST PUSH1 0x5 DUP3 LT PUSH2 0x1450 JUMPI POP POP POP PUSH2 0x137F PUSH2 0x180 DUP3 ADD MLOAD PUSH2 0x880 DUP5 ADD SWAP1 PUSH2 0x1C0D JUMP JUMPDEST PUSH2 0x1A0 DUP2 ADD MLOAD PUSH2 0x8A0 DUP4 ADD MSTORE PUSH2 0x1C0 DUP2 ADD MLOAD PUSH2 0x8C0 DUP4 ADD MSTORE PUSH2 0x1E0 DUP2 ADD MLOAD SWAP1 PUSH1 0x1F NOT DUP4 DUP6 SUB ADD PUSH2 0x8E0 DUP5 ADD MSTORE DUP2 MLOAD DUP1 DUP6 MSTORE PUSH1 0x20 DUP6 ADD SWAP1 PUSH1 0x20 DUP1 DUP3 PUSH1 0x5 SHL DUP9 ADD ADD SWAP5 ADD SWAP2 PUSH0 SWAP1 JUMPDEST DUP3 DUP3 LT PUSH2 0x13DE JUMPI PUSH2 0x200 DUP6 ADD MLOAD PUSH2 0x900 DUP9 ADD MSTORE DUP7 DUP7 SUB DUP8 RETURN JUMPDEST SWAP1 SWAP2 SWAP3 SWAP5 PUSH1 0x1F NOT DUP9 DUP3 SUB ADD DUP3 MSTORE DUP6 MLOAD PUSH1 0x20 PUSH1 0x60 DUP2 PUSH1 0x40 DUP6 ADD SWAP4 DUP1 MLOAD DUP7 MSTORE ADD MLOAD SWAP4 PUSH1 0x40 DUP4 DUP3 ADD MSTORE DUP5 MLOAD DUP1 SWAP5 MSTORE ADD SWAP3 ADD SWAP1 PUSH0 SWAP1 JUMPDEST DUP1 DUP3 LT PUSH2 0x142E JUMPI POP POP POP PUSH1 0x20 DUP1 PUSH1 0x1 SWAP3 SWAP8 ADD SWAP3 ADD SWAP3 ADD SWAP1 SWAP3 SWAP2 PUSH2 0x13C5 JUMP JUMPDEST DUP3 MLOAD PUSH1 0x1 PUSH1 0x1 PUSH1 0xA0 SHL SUB AND DUP5 MSTORE PUSH1 0x20 SWAP4 DUP5 ADD SWAP4 SWAP1 SWAP3 ADD SWAP2 PUSH1 0x1 SWAP1 SWAP2 ADD SWAP1 PUSH2 0x1410 JUMP JUMPDEST PUSH1 0x20 DUP1 PUSH1 0x1 SWAP3 PUSH1 0xFF DUP7 MLOAD AND DUP2 MSTORE ADD SWAP4 ADD SWAP2 ADD SWAP1 SWAP2 PUSH2 0x1360 JUMP JUMPDEST PUSH1 0x20 DUP1 PUSH1 0x1 SWAP3 PUSH1 0xFF DUP7 MLOAD AND DUP2 MSTORE ADD SWAP4 ADD SWAP2 ADD SWAP1 SWAP2 PUSH2 0x1339 JUMP JUMPDEST SWAP1 SWAP2 SWAP5 PUSH1 0x20 PUSH2 0x100 DUP3 PUSH2 0x1498 PUSH1 0x1 SWAP5 DUP11 MLOAD PUSH2 0x1B99 JUMP JUMPDEST ADD SWAP7 ADD SWAP3 SWAP2 ADD PUSH2 0x1322 JUMP JUMPDEST PUSH1 0x40 MLOAD PUSH2 0x14AF DUP2 PUSH2 0x1D53 JUMP JUMPDEST DUP3 SLOAD DUP2 MSTORE PUSH1 0x1 DUP4 ADD PUSH1 0x40 MLOAD SWAP1 DUP2 PUSH1 0x20 DUP3 SLOAD SWAP2 DUP3 DUP2 MSTORE ADD SWAP2 PUSH0 MSTORE PUSH1 0x20 PUSH0 KECCAK256 SWAP1 PUSH0 SWAP1 JUMPDEST DUP1 DUP3 LT PUSH2 0x1501 JUMPI POP POP POP SWAP3 PUSH1 0x2 SWAP3 DUP3 PUSH2 0x14EF PUSH1 0x20 SWAP5 PUSH1 0x1 SWAP8 SUB DUP3 PUSH2 0x1DA8 JUMP JUMPDEST DUP4 DUP3 ADD MSTORE DUP2 MSTORE ADD SWAP3 ADD SWAP3 ADD SWAP2 SWAP1 PUSH2 0x1281 JUMP JUMPDEST DUP3 SLOAD PUSH1 0x1 PUSH1 0x1 PUSH1 0xA0 SHL SUB AND DUP5 MSTORE PUSH1 0x20 SWAP1 SWAP4 ADD SWAP3 PUSH1 0x1 SWAP3 DUP4 ADD SWAP3 SWAP1 SWAP2 ADD SWAP1 PUSH2 0x14D0 JUMP JUMPDEST SWAP1 SWAP2 PUSH1 0x1 PUSH2 0x400 PUSH1 0x20 SWAP3 DUP6 SLOAD PUSH1 0xFF DUP2 AND DUP3 MSTORE PUSH1 0xFF DUP2 PUSH1 0x8 SHR AND DUP6 DUP4 ADD MSTORE PUSH1 0xFF DUP2 PUSH1 0x10 SHR AND PUSH1 0x40 DUP4 ADD MSTORE PUSH1 0xFF DUP2 PUSH1 0x18 SHR AND PUSH1 0x60 DUP4 ADD MSTORE PUSH1 0xFF DUP2 DUP7 SHR AND PUSH1 0x80 DUP4 ADD MSTORE PUSH1 0xFF DUP2 PUSH1 0x28 SHR AND DUP12 DUP4 ADD MSTORE PUSH1 0xFF DUP2 PUSH1 0x30 SHR AND PUSH1 0xC0 DUP4 ADD MSTORE PUSH1 0xFF DUP2 PUSH1 0x38 SHR AND PUSH1 0xE0 DUP4 ADD MSTORE PUSH1 0xFF DUP2 PUSH1 0x40 SHR AND PUSH2 0x100 DUP4 ADD MSTORE PUSH1 0xFF DUP2 PUSH1 0x48 SHR AND PUSH2 0x120 DUP4 ADD MSTORE PUSH1 0xFF DUP2 PUSH1 0x50 SHR AND PUSH2 0x140 DUP4 ADD MSTORE PUSH1 0xFF DUP2 PUSH1 0x58 SHR AND PUSH2 0x160 DUP4 ADD MSTORE PUSH1 0xFF DUP2 PUSH1 0x60 SHR AND PUSH2 0x180 DUP4 ADD MSTORE PUSH1 0xFF DUP2 PUSH1 0x68 SHR AND PUSH2 0x1A0 DUP4 ADD MSTORE PUSH1 0xFF DUP2 PUSH1 0x70 SHR AND PUSH2 0x1C0 DUP4 ADD MSTORE PUSH1 0xFF DUP2 PUSH1 0x78 SHR AND PUSH2 0x1E0 DUP4 ADD MSTORE PUSH1 0xFF DUP2 PUSH1 0x80 SHR AND PUSH2 0x200 DUP4 ADD MSTORE PUSH1 0xFF DUP2 PUSH1 0x88 SHR AND PUSH2 0x220 DUP4 ADD MSTORE PUSH1 0xFF DUP2 PUSH1 0x90 SHR AND PUSH2 0x240 DUP4 ADD MSTORE PUSH1 0xFF DUP2 PUSH1 0x98 SHR AND PUSH2 0x260 DUP4 ADD MSTORE PUSH1 0xFF DUP2 DUP13 SHR AND PUSH2 0x280 DUP4 ADD MSTORE PUSH1 0xFF DUP2 PUSH1 0xA8 SHR AND PUSH2 0x2A0 DUP4 ADD MSTORE PUSH1 0xFF DUP2 PUSH1 0xB0 SHR AND PUSH2 0x2C0 DUP4 ADD MSTORE PUSH1 0xFF DUP2 PUSH1 0xB8 SHR AND PUSH2 0x2E0 DUP4 ADD MSTORE PUSH1 0xFF DUP2 PUSH1 0xC0 SHR AND PUSH2 0x300 DUP4 ADD MSTORE PUSH1 0xFF DUP2 PUSH1 0xC8 SHR AND PUSH2 0x320 DUP4 ADD MSTORE PUSH1 0xFF DUP2 PUSH1 0xD0 SHR AND PUSH2 0x340 DUP4 ADD MSTORE PUSH1 0xFF DUP2 PUSH1 0xD8 SHR AND PUSH2 0x360 DUP4 ADD MSTORE PUSH1 0xFF DUP2 PUSH1 0xE0 SHR AND PUSH2 0x380 DUP4 ADD MSTORE PUSH1 0xFF DUP2 PUSH1 0xE8 SHR AND PUSH2 0x3A0 DUP4 ADD MSTORE PUSH1 0xFF DUP2 PUSH1 0xF0 SHR AND PUSH2 0x3C0 DUP4 ADD MSTORE PUSH1 0xF8 SHR PUSH2 0x3E0 DUP3 ADD MSTORE ADD SWAP4 ADD SWAP2 ADD PUSH2 0x10C6 JUMP JUMPDEST PUSH1 0x6 PUSH1 0x20 PUSH1 0x1 SWAP3 PUSH2 0x16D3 DUP6 PUSH2 0x1EA7 JUMP JUMPDEST DUP2 MSTORE ADD SWAP3 ADD SWAP3 ADD SWAP2 SWAP1 PUSH2 0x10AA JUMP JUMPDEST CALLVALUE PUSH2 0x28B JUMPI PUSH2 0x16EF CALLDATASIZE PUSH2 0x1B76 JUMP JUMPDEST PUSH2 0x16FB PUSH0 SLOAD DUP4 LT PUSH2 0x1C66 JUMP JUMPDEST PUSH2 0x1704 DUP3 PUSH2 0x1C1A JUMP JUMPDEST POP SWAP1 PUSH1 0x7 DUP3 ADD DUP1 SLOAD SWAP2 PUSH1 0x9 DUP4 LT ISZERO PUSH2 0x18E5 JUMPI CALLER PUSH0 MSTORE PUSH1 0x1 PUSH1 0x20 MSTORE PUSH1 0x40 PUSH0 KECCAK256 SLOAD PUSH2 0x18A0 JUMPI PUSH1 0x2 DUP5 ADD SLOAD DUP2 LT ISZERO DUP1 PUSH2 0x1892 JUMPI JUMPDEST ISZERO PUSH2 0x1855 JUMPI PUSH1 0x40 MLOAD SWAP3 PUSH2 0x1747 DUP5 PUSH2 0x1D53 JUMP JUMPDEST PUSH0 DUP5 MSTORE PUSH0 PUSH1 0x20 DUP6 ADD MSTORE PUSH1 0x40 MLOAD SWAP4 PUSH2 0x175D DUP6 PUSH2 0x1D6F JUMP JUMPDEST CALLER DUP6 MSTORE DUP3 PUSH1 0x20 DUP7 ADD MSTORE PUSH0 PUSH1 0x40 DUP7 ADD MSTORE PUSH1 0x60 DUP6 ADD MSTORE PUSH0 PUSH1 0x80 DUP6 ADD MSTORE PUSH1 0x1 PUSH1 0xA0 DUP6 ADD MSTORE TIMESTAMP PUSH1 0xC0 DUP6 ADD MSTORE PUSH1 0x1 PUSH1 0x40 SHL DUP2 LT ISZERO PUSH2 0x776 JUMPI DUP1 PUSH1 0x1 PUSH2 0x17A0 SWAP3 ADD DUP5 SSTORE DUP4 PUSH2 0x1CF5 JUMP JUMPDEST PUSH2 0x8A7 JUMPI PUSH1 0x2 SWAP4 PUSH2 0x17B0 SWAP2 PUSH2 0x1DCA JUMP JUMPDEST CALLER PUSH0 MSTORE PUSH1 0x1 PUSH1 0x20 MSTORE DUP5 PUSH1 0x40 PUSH0 KECCAK256 SSTORE TIMESTAMP PUSH1 0x10 DUP6 ADD SSTORE PUSH1 0x40 MLOAD SWAP1 DUP2 MSTORE DUP5 PUSH32 0x3DFBE1FCB4E2D61F3B4A0C93D8F814C92250618B3387F396CC9FC9FAFE2C203 PUSH1 0x20 CALLER SWAP4 LOG3 SLOAD LT ISZERO DUP1 PUSH2 0x183D JUMPI JUMPDEST PUSH2 0x1800 JUMPI STOP JUMPDEST PUSH1 0x1 ADD PUSH1 0x1 PUSH1 0xFF NOT DUP3 SLOAD AND OR SWAP1 SSTORE PUSH2 0x1817 DUP2 PUSH2 0x2197 JUMP JUMPDEST PUSH32 0x50AD08F58A27F2851D7E3A1B3A6A46B290F2CE677E99642D30FF639721E77790 PUSH0 DUP1 LOG2 STOP JUMPDEST POP PUSH1 0xFF PUSH1 0x1 DUP3 ADD SLOAD AND PUSH1 0x3 DUP2 LT ISZERO PUSH2 0x277 JUMPI ISZERO PUSH2 0x17FA JUMP JUMPDEST PUSH1 0x40 MLOAD PUSH3 0x461BCD PUSH1 0xE5 SHL DUP2 MSTORE PUSH1 0x20 PUSH1 0x4 DUP3 ADD MSTORE PUSH1 0x15 PUSH1 0x24 DUP3 ADD MSTORE PUSH21 0x125B9D985B1A5908189D5E4B5A5B88185B5BDD5B9D PUSH1 0x5A SHL PUSH1 0x44 DUP3 ADD MSTORE PUSH1 0x64 SWAP1 REVERT JUMPDEST POP PUSH1 0x3 DUP5 ADD SLOAD DUP2 GT ISZERO PUSH2 0x1735 JUMP JUMPDEST PUSH1 0x40 MLOAD PUSH3 0x461BCD PUSH1 0xE5 SHL DUP2 MSTORE PUSH1 0x20 PUSH1 0x4 DUP3 ADD MSTORE PUSH1 0x19 PUSH1 0x24 DUP3 ADD MSTORE PUSH32 0x506C6179657220616C72656164792061742061207461626C6500000000000000 PUSH1 0x44 DUP3 ADD MSTORE PUSH1 0x64 SWAP1 REVERT JUMPDEST PUSH1 0x40 MLOAD PUSH3 0x461BCD PUSH1 0xE5 SHL DUP2 MSTORE PUSH1 0x20 PUSH1 0x4 DUP3 ADD MSTORE PUSH1 0xD PUSH1 0x24 DUP3 ADD MSTORE PUSH13 0x1518589B19481A5CC8199D5B1B PUSH1 0x9A SHL PUSH1 0x44 DUP3 ADD MSTORE PUSH1 0x64 SWAP1 REVERT JUMPDEST CALLVALUE PUSH2 0x28B JUMPI PUSH1 0x20 CALLDATASIZE PUSH1 0x3 NOT ADD SLT PUSH2 0x28B JUMPI PUSH1 0x4 CALLDATALOAD PUSH2 0x193A PUSH0 SLOAD DUP3 LT PUSH2 0x1C66 JUMP JUMPDEST CALLER PUSH0 MSTORE PUSH1 0x1 PUSH1 0x20 MSTORE PUSH2 0x1951 DUP2 PUSH1 0x40 PUSH0 KECCAK256 SLOAD EQ PUSH2 0x1CA9 JUMP JUMPDEST PUSH2 0x195A DUP2 PUSH2 0x1C1A JUMP JUMPDEST POP SWAP1 PUSH0 SWAP2 PUSH0 SWAP3 PUSH1 0x7 DUP3 ADD SWAP4 DUP5 SLOAD SWAP1 JUMPDEST DUP2 DUP2 LT PUSH2 0x1B10 JUMPI JUMPDEST POP POP JUMPDEST DUP4 SLOAD PUSH0 NOT DUP2 ADD SWAP1 DUP2 GT PUSH2 0x762 JUMPI DUP2 LT ISZERO PUSH2 0x1A5A JUMPI PUSH1 0x1 DUP2 ADD DUP1 DUP3 GT PUSH2 0x762 JUMPI PUSH2 0x199D SWAP1 DUP6 PUSH2 0x1CF5 JUMP JUMPDEST POP SWAP1 PUSH2 0x19A9 DUP2 DUP7 PUSH2 0x1CF5 JUMP JUMPDEST PUSH2 0x8A7 JUMPI DUP3 PUSH1 0x1 SWAP4 DUP3 SUB PUSH2 0x19C0 JUMPI JUMPDEST POP POP ADD PUSH2 0x1974 JUMP JUMPDEST PUSH1 0x5 DUP1 SWAP2 DUP6 DUP1 PUSH1 0xA0 SHL SUB DUP7 DUP1 PUSH1 0xA0 SHL SUB DUP3 SLOAD AND AND PUSH12 0xFFFFFFFFFFFFFFFFFFFFFFFF PUSH1 0xA0 SHL DUP6 SLOAD AND OR DUP5 SSTORE DUP6 DUP2 ADD SLOAD DUP7 DUP6 ADD SSTORE PUSH1 0x2 DUP2 ADD SLOAD PUSH1 0x2 DUP6 ADD SSTORE PUSH2 0x1A0C PUSH1 0x3 DUP3 ADD PUSH1 0x3 DUP7 ADD PUSH2 0x1D3E JUMP JUMPDEST PUSH2 0x1A4E PUSH1 0x4 DUP6 ADD PUSH1 0xFF PUSH1 0x4 DUP5 ADD PUSH2 0x1A32 DUP3 DUP3 SLOAD AND DUP5 SWAP1 PUSH1 0xFF DUP1 NOT DUP4 SLOAD AND SWAP2 ISZERO ISZERO AND OR SWAP1 SSTORE JUMP JUMPDEST SLOAD PUSH1 0x8 SHR AND PUSH2 0xFF00 DUP3 SLOAD SWAP2 ISZERO ISZERO PUSH1 0x8 SHL AND SWAP1 PUSH2 0xFF00 NOT AND OR SWAP1 SSTORE JUMP JUMPDEST ADD SLOAD SWAP2 ADD SSTORE DUP6 DUP1 PUSH2 0x19B8 JUMP JUMPDEST POP SWAP2 DUP1 SLOAD DUP1 ISZERO PUSH2 0x1AFC JUMPI PUSH0 NOT ADD SWAP2 PUSH2 0x1A72 DUP4 DUP4 PUSH2 0x1CF5 JUMP JUMPDEST SWAP4 SWAP1 SWAP4 PUSH2 0x8A7 JUMPI PUSH0 PUSH1 0x5 DUP6 DUP3 PUSH1 0x2 SWAP8 SSTORE DUP3 PUSH1 0x1 DUP3 ADD SSTORE DUP3 DUP8 DUP3 ADD SSTORE DUP3 PUSH1 0x4 DUP3 ADD PUSH2 0x1A9F DUP2 PUSH1 0x3 DUP6 ADD PUSH2 0x1D28 JUMP JUMPDEST SSTORE ADD SSTORE DUP3 SSTORE CALLER PUSH0 MSTORE PUSH1 0x1 PUSH1 0x20 MSTORE PUSH0 PUSH1 0x40 DUP2 KECCAK256 SSTORE CALLER SWAP1 PUSH32 0xB2BD643202385C64D9814C6C3FA61B1BA098D6652292E9D9A6F1A0CDAE6EB824 PUSH0 DUP1 LOG3 SLOAD LT PUSH2 0x1AE0 JUMPI STOP JUMPDEST DUP1 PUSH1 0x1 PUSH1 0xC SWAP3 ADD PUSH1 0xFF NOT DUP2 SLOAD AND SWAP1 SSTORE ADD PUSH1 0xFF NOT DUP2 SLOAD AND SWAP1 SSTORE PUSH0 DUP1 RETURN JUMPDEST PUSH4 0x4E487B71 PUSH1 0xE0 SHL PUSH0 MSTORE PUSH1 0x31 PUSH1 0x4 MSTORE PUSH1 0x24 PUSH0 REVERT JUMPDEST PUSH2 0x1B1A DUP2 DUP8 PUSH2 0x1CF5 JUMP JUMPDEST POP SLOAD PUSH1 0x1 PUSH1 0x1 PUSH1 0xA0 SHL SUB AND CALLER EQ PUSH2 0x1B33 JUMPI PUSH1 0x1 ADD PUSH2 0x1969 JUMP JUMPDEST SWAP2 POP POP DUP5 DUP1 PUSH2 0x1971 JUMP JUMPDEST CALLVALUE PUSH2 0x28B JUMPI PUSH1 0x20 CALLDATASIZE PUSH1 0x3 NOT ADD SLT PUSH2 0x28B JUMPI PUSH1 0x4 CALLDATALOAD PUSH1 0x1 PUSH1 0x1 PUSH1 0xA0 SHL SUB DUP2 AND SWAP2 SWAP1 DUP3 SWAP1 SUB PUSH2 0x28B JUMPI PUSH1 0x20 SWAP2 PUSH0 MSTORE PUSH1 0x1 DUP3 MSTORE PUSH1 0x40 PUSH0 KECCAK256 SLOAD DUP2 MSTORE RETURN JUMPDEST PUSH1 0x40 SWAP1 PUSH1 0x3 NOT ADD SLT PUSH2 0x28B JUMPI PUSH1 0x4 CALLDATALOAD SWAP1 PUSH1 0x24 CALLDATALOAD SWAP1 JUMP JUMPDEST SWAP1 PUSH1 0x3 DUP3 LT ISZERO PUSH2 0x277 JUMPI MSTORE JUMP JUMPDEST DUP1 MLOAD PUSH1 0x1 PUSH1 0x1 PUSH1 0xA0 SHL SUB AND DUP3 MSTORE PUSH1 0x20 DUP1 DUP3 ADD MLOAD SWAP1 DUP4 ADD MSTORE PUSH1 0x40 DUP1 DUP3 ADD MLOAD SWAP1 DUP4 ADD MSTORE PUSH1 0x60 DUP1 DUP3 ADD MLOAD SWAP1 PUSH0 SWAP1 DUP5 ADD JUMPDEST PUSH1 0x2 DUP3 LT PUSH2 0x1BF4 JUMPI POP POP POP PUSH1 0xC0 DUP2 PUSH1 0x80 PUSH1 0xE0 SWAP4 ADD MLOAD ISZERO ISZERO PUSH1 0xA0 DUP6 ADD MSTORE PUSH1 0xA0 DUP2 ADD MLOAD ISZERO ISZERO DUP3 DUP6 ADD MSTORE ADD MLOAD SWAP2 ADD MSTORE JUMP JUMPDEST PUSH1 0x20 DUP1 PUSH1 0x1 SWAP3 PUSH1 0xFF DUP7 MLOAD AND DUP2 MSTORE ADD SWAP4 ADD SWAP2 ADD SWAP1 SWAP2 PUSH2 0x1BC6 JUMP JUMPDEST SWAP1 PUSH1 0x6 DUP3 LT ISZERO PUSH2 0x277 JUMPI MSTORE JUMP JUMPDEST PUSH0 SLOAD DUP2 LT ISZERO PUSH2 0x1C52 JUMPI PUSH0 DUP1 DUP1 MSTORE PUSH1 0x11 SWAP2 SWAP1 SWAP2 MUL PUSH32 0x290DECD9548B62A8D60345A988386FC84BA6BC95484008F6362F93160EF3E563 ADD SWAP2 JUMP JUMPDEST PUSH4 0x4E487B71 PUSH1 0xE0 SHL PUSH0 MSTORE PUSH1 0x32 PUSH1 0x4 MSTORE PUSH1 0x24 PUSH0 REVERT JUMPDEST ISZERO PUSH2 0x1C6D JUMPI JUMP JUMPDEST PUSH1 0x40 MLOAD PUSH3 0x461BCD PUSH1 0xE5 SHL DUP2 MSTORE PUSH1 0x20 PUSH1 0x4 DUP3 ADD MSTORE PUSH1 0x14 PUSH1 0x24 DUP3 ADD MSTORE PUSH20 0x1518589B1948191BD95CC81B9BDD08195E1A5CDD PUSH1 0x62 SHL PUSH1 0x44 DUP3 ADD MSTORE PUSH1 0x64 SWAP1 REVERT JUMPDEST ISZERO PUSH2 0x1CB0 JUMPI JUMP JUMPDEST PUSH1 0x40 MLOAD PUSH3 0x461BCD PUSH1 0xE5 SHL DUP2 MSTORE PUSH1 0x20 PUSH1 0x4 DUP3 ADD MSTORE PUSH1 0x19 PUSH1 0x24 DUP3 ADD MSTORE PUSH32 0x596F7520617265206E6F742061742074686973207461626C6500000000000000 PUSH1 0x44 DUP3 ADD MSTORE PUSH1 0x64 SWAP1 REVERT JUMPDEST DUP1 SLOAD DUP3 LT ISZERO PUSH2 0x1C52 JUMPI PUSH0 MSTORE PUSH1 0x6 PUSH1 0x20 PUSH0 KECCAK256 SWAP2 MUL ADD SWAP1 PUSH0 SWAP1 JUMP JUMPDEST SWAP2 SWAP1 DUP3 SUB SWAP2 DUP3 GT PUSH2 0x762 JUMPI JUMP JUMPDEST SWAP2 SWAP1 DUP3 ADD DUP1 SWAP3 GT PUSH2 0x762 JUMPI JUMP JUMPDEST DUP2 DUP2 LT PUSH2 0x1D33 JUMPI POP POP JUMP JUMPDEST PUSH0 DUP2 SSTORE PUSH1 0x1 ADD PUSH2 0x1D28 JUMP JUMPDEST SWAP1 DUP1 DUP3 EQ PUSH2 0x1D4F JUMPI SLOAD PUSH2 0xFFFF AND SWAP1 SSTORE JUMP JUMPDEST POP POP JUMP JUMPDEST PUSH1 0x40 DUP2 ADD SWAP1 DUP2 LT PUSH8 0xFFFFFFFFFFFFFFFF DUP3 GT OR PUSH2 0x776 JUMPI PUSH1 0x40 MSTORE JUMP JUMPDEST PUSH1 0xE0 DUP2 ADD SWAP1 DUP2 LT PUSH8 0xFFFFFFFFFFFFFFFF DUP3 GT OR PUSH2 0x776 JUMPI PUSH1 0x40 MSTORE JUMP JUMPDEST PUSH2 0x220 DUP2 ADD SWAP1 DUP2 LT PUSH8 0xFFFFFFFFFFFFFFFF DUP3 GT OR PUSH2 0x776 JUMPI PUSH1 0x40 MSTORE JUMP JUMPDEST SWAP1 PUSH1 0x1F DUP1 NOT SWAP2 ADD AND DUP2 ADD SWAP1 DUP2 LT PUSH8 0xFFFFFFFFFFFFFFFF DUP3 GT OR PUSH2 0x776 JUMPI PUSH1 0x40 MSTORE JUMP JUMPDEST DUP2 MLOAD DUP2 SLOAD PUSH1 0x1 PUSH1 0x1 PUSH1 0xA0 SHL SUB NOT AND PUSH1 0x1 PUSH1 0x1 PUSH1 0xA0 SHL SUB SWAP2 SWAP1 SWAP2 AND OR DUP2 SSTORE PUSH1 0x20 DUP3 ADD MLOAD PUSH1 0x1 DUP3 ADD SSTORE PUSH1 0x40 DUP3 ADD MLOAD PUSH1 0x2 DUP3 ADD SSTORE PUSH1 0x60 DUP3 ADD MLOAD SWAP1 SWAP2 SWAP1 PUSH0 SWAP1 DUP2 JUMPDEST PUSH1 0x2 DUP2 LT PUSH2 0x1E61 JUMPI POP POP PUSH1 0x5 SWAP2 PUSH1 0xC0 SWAP2 PUSH1 0x3 DUP6 ADD SSTORE PUSH2 0x1E5A PUSH1 0x4 DUP6 ADD PUSH2 0x1E3F PUSH1 0x80 DUP5 ADD MLOAD ISZERO ISZERO DUP3 SWAP1 PUSH1 0xFF DUP1 NOT DUP4 SLOAD AND SWAP2 ISZERO ISZERO AND OR SWAP1 SSTORE JUMP JUMPDEST PUSH1 0xA0 DUP4 ADD MLOAD DUP2 SLOAD PUSH2 0xFF00 NOT AND SWAP1 ISZERO ISZERO PUSH1 0x8 SHL PUSH2 0xFF00 AND OR SWAP1 SSTORE JUMP JUMPDEST ADD MLOAD SWAP2 ADD SSTORE JUMP JUMPDEST SWAP1 SWAP2 PUSH1 0x20 PUSH2 0x1E86 PUSH1 0x1 SWAP3 DUP5 PUSH1 0xFF DUP8 MLOAD AND SWAP2 SWAP1 PUSH1 0xFF DUP1 SWAP2 PUSH1 0x3 SHL SWAP4 AND DUP4 SHL SWAP3 SHL NOT AND OR SWAP1 JUMP JUMPDEST SWAP4 ADD SWAP2 ADD PUSH2 0x1E07 JUMP JUMPDEST PUSH8 0xFFFFFFFFFFFFFFFF DUP2 GT PUSH2 0x776 JUMPI PUSH1 0x5 SHL PUSH1 0x20 ADD SWAP1 JUMP JUMPDEST SWAP1 PUSH1 0x40 MLOAD PUSH2 0x1EB4 DUP2 PUSH2 0x1D6F JUMP JUMPDEST PUSH1 0xC0 PUSH1 0x5 DUP3 SWAP5 PUSH1 0x1 DUP1 PUSH1 0xA0 SHL SUB DUP2 SLOAD AND DUP5 MSTORE PUSH1 0x1 DUP2 ADD SLOAD PUSH1 0x20 DUP6 ADD MSTORE PUSH1 0x2 DUP2 ADD SLOAD PUSH1 0x40 DUP6 ADD MSTORE PUSH1 0x40 MLOAD PUSH1 0xFF PUSH1 0x3 DUP4 ADD SLOAD DUP2 DUP2 AND DUP4 MSTORE PUSH1 0x8 SHR AND PUSH1 0x20 DUP3 ADD MSTORE PUSH2 0x1EFD PUSH1 0x40 DUP3 PUSH2 0x1DA8 JUMP JUMPDEST PUSH1 0x60 DUP6 ADD MSTORE PUSH1 0xFF PUSH1 0x4 DUP3 ADD SLOAD DUP2 DUP2 AND ISZERO ISZERO PUSH1 0x80 DUP8 ADD MSTORE PUSH1 0x8 SHR AND ISZERO ISZERO PUSH1 0xA0 DUP6 ADD MSTORE ADD SLOAD SWAP2 ADD MSTORE JUMP JUMPDEST ISZERO PUSH2 0x1F2C JUMPI JUMP JUMPDEST PUSH1 0x40 MLOAD PUSH3 0x461BCD PUSH1 0xE5 SHL DUP2 MSTORE PUSH1 0x20 PUSH1 0x4 DUP3 ADD MSTORE PUSH1 0x12 PUSH1 0x24 DUP3 ADD MSTORE PUSH18 0x47616D65206973206E6F7420616374697665 PUSH1 0x70 SHL PUSH1 0x44 DUP3 ADD MSTORE PUSH1 0x64 SWAP1 REVERT JUMPDEST ISZERO PUSH2 0x1F6D JUMPI JUMP JUMPDEST PUSH1 0x40 MLOAD PUSH3 0x461BCD PUSH1 0xE5 SHL DUP2 MSTORE PUSH1 0x20 PUSH1 0x4 DUP3 ADD MSTORE PUSH1 0xD PUSH1 0x24 DUP3 ADD MSTORE PUSH13 0x2737BA103CB7BAB9103A3AB937 PUSH1 0x99 SHL PUSH1 0x44 DUP3 ADD MSTORE PUSH1 0x64 SWAP1 REVERT JUMPDEST PUSH1 0x40 MLOAD SWAP1 PUSH2 0x1FAF DUP3 PUSH2 0x1D53 JUMP JUMPDEST PUSH1 0x60 PUSH1 0x20 DUP4 PUSH0 DUP2 MSTORE ADD MSTORE JUMP JUMPDEST DUP1 SLOAD PUSH0 DUP3 SSTORE DUP1 PUSH2 0x1FC9 JUMPI POP POP JUMP JUMPDEST PUSH2 0x1FDC SWAP2 PUSH0 MSTORE PUSH1 0x20 PUSH0 KECCAK256 SWAP1 DUP2 ADD SWAP1 PUSH2 0x1D28 JUMP JUMPDEST JUMP JUMPDEST PUSH1 0x1 PUSH1 0x20 SWAP2 DUP4 MLOAD DUP2 SSTORE ADD SWAP2 ADD MLOAD SWAP1 DUP2 MLOAD SWAP2 PUSH8 0xFFFFFFFFFFFFFFFF DUP4 GT PUSH2 0x776 JUMPI PUSH1 0x1 PUSH1 0x40 SHL DUP4 GT PUSH2 0x776 JUMPI PUSH1 0x20 SWAP1 DUP3 SLOAD DUP5 DUP5 SSTORE DUP1 DUP6 LT PUSH2 0x204E JUMPI JUMPDEST POP ADD SWAP1 PUSH0 MSTORE PUSH1 0x20 PUSH0 KECCAK256 PUSH0 JUMPDEST DUP4 DUP2 LT PUSH2 0x2031 JUMPI POP POP POP POP JUMP JUMPDEST DUP3 MLOAD PUSH1 0x1 PUSH1 0x1 PUSH1 0xA0 SHL SUB AND DUP2 DUP4 ADD SSTORE PUSH1 0x20 SWAP1 SWAP3 ADD SWAP2 PUSH1 0x1 ADD PUSH2 0x2024 JUMP JUMPDEST PUSH2 0x2063 SWAP1 DUP5 PUSH0 MSTORE DUP6 DUP5 PUSH0 KECCAK256 SWAP2 DUP3 ADD SWAP2 ADD PUSH2 0x1D28 JUMP JUMPDEST PUSH0 PUSH2 0x2019 JUMP JUMPDEST PUSH1 0x40 MLOAD SWAP2 PUSH2 0x2076 DUP4 PUSH2 0x1D6F JUMP JUMPDEST PUSH0 DUP4 MSTORE PUSH0 PUSH1 0x20 DUP5 ADD MSTORE PUSH0 PUSH1 0x40 DUP5 ADD MSTORE PUSH1 0x40 SWAP3 DUP4 MLOAD PUSH2 0x2094 DUP6 DUP3 PUSH2 0x1DA8 JUMP JUMPDEST DUP5 CALLDATASIZE DUP3 CALLDATACOPY PUSH1 0x60 DUP3 ADD MSTORE PUSH0 PUSH1 0x80 DUP3 ADD MSTORE PUSH0 PUSH1 0xA0 DUP3 ADD MSTORE PUSH0 PUSH1 0xC0 DUP3 ADD MSTORE POP PUSH2 0x20BC PUSH0 SLOAD DUP4 LT PUSH2 0x1C66 JUMP JUMPDEST PUSH0 JUMPDEST PUSH1 0x7 PUSH2 0x20C9 DUP5 PUSH2 0x1C1A JUMP JUMPDEST POP ADD SLOAD DUP2 LT ISZERO PUSH2 0x2123 JUMPI PUSH2 0x20E9 DUP2 PUSH1 0x7 PUSH2 0x20E2 DUP7 PUSH2 0x1C1A JUMP JUMPDEST POP ADD PUSH2 0x1CF5 JUMP JUMPDEST POP SLOAD PUSH1 0x1 PUSH1 0x1 PUSH1 0xA0 SHL SUB DUP4 DUP2 AND SWAP2 AND EQ PUSH2 0x2105 JUMPI PUSH1 0x1 ADD PUSH2 0x20BE JUMP JUMPDEST SWAP1 POP PUSH2 0x2120 SWAP3 POP PUSH1 0x7 PUSH2 0x20E2 PUSH2 0x211A SWAP4 PUSH2 0x1C1A JUMP JUMPDEST POP PUSH2 0x1EA7 JUMP JUMPDEST SWAP1 JUMP JUMPDEST DUP4 MLOAD PUSH3 0x461BCD PUSH1 0xE5 SHL DUP2 MSTORE PUSH1 0x20 PUSH1 0x4 DUP3 ADD MSTORE PUSH1 0x1E PUSH1 0x24 DUP3 ADD MSTORE PUSH32 0x506C61796572206E6F7420666F756E642061742074686973207461626C650000 PUSH1 0x44 DUP3 ADD MSTORE PUSH1 0x64 SWAP1 REVERT JUMPDEST PUSH1 0xFF PUSH1 0x1 SWAP2 AND ADD SWAP1 PUSH1 0xFF DUP3 GT PUSH2 0x762 JUMPI JUMP JUMPDEST DUP2 ISZERO PUSH2 0x2183 JUMPI MOD SWAP1 JUMP JUMPDEST PUSH4 0x4E487B71 PUSH1 0xE0 SHL PUSH0 MSTORE PUSH1 0x12 PUSH1 0x4 MSTORE PUSH1 0x24 PUSH0 REVERT JUMPDEST PUSH2 0x21A0 DUP2 PUSH2 0x1C1A JUMP JUMPDEST POP SWAP1 PUSH1 0x7 DUP3 ADD SWAP1 PUSH0 JUMPDEST DUP3 SLOAD DUP2 LT ISZERO PUSH2 0x228E JUMPI PUSH1 0x1 PUSH2 0x21BE DUP3 DUP6 PUSH2 0x1CF5 JUMP JUMPDEST POP ADD SLOAD ISZERO PUSH2 0x2270 JUMPI PUSH1 0x4 PUSH2 0x21D2 DUP3 DUP6 PUSH2 0x1CF5 JUMP JUMPDEST POP ADD DUP1 SLOAD PUSH1 0xFF NOT AND PUSH1 0x1 OR SWAP1 SSTORE PUSH1 0x4 PUSH2 0x21EB DUP3 DUP6 PUSH2 0x1CF5 JUMP JUMPDEST POP ADD DUP1 SLOAD PUSH2 0xFF00 NOT AND SWAP1 SSTORE PUSH0 PUSH1 0x2 PUSH2 0x2203 DUP4 DUP7 PUSH2 0x1CF5 JUMP JUMPDEST POP ADD SSTORE PUSH1 0x40 MLOAD PUSH2 0x2212 DUP2 PUSH2 0x1D53 JUMP JUMPDEST PUSH0 DUP2 MSTORE PUSH0 PUSH1 0x20 DUP3 ADD MSTORE PUSH2 0x2225 DUP3 DUP6 PUSH2 0x1CF5 JUMP JUMPDEST POP PUSH0 SWAP2 PUSH0 JUMPDEST PUSH1 0x2 DUP2 LT PUSH2 0x2242 JUMPI POP POP PUSH1 0x3 ADD SSTORE PUSH1 0x1 SWAP1 JUMPDEST ADD PUSH2 0x21A9 JUMP JUMPDEST SWAP1 SWAP3 PUSH1 0x20 PUSH2 0x2267 PUSH1 0x1 SWAP3 DUP5 PUSH1 0xFF DUP9 MLOAD AND SWAP2 SWAP1 PUSH1 0xFF DUP1 SWAP2 PUSH1 0x3 SHL SWAP4 AND DUP4 SHL SWAP3 SHL NOT AND OR SWAP1 JUMP JUMPDEST SWAP5 ADD SWAP2 ADD PUSH2 0x222A JUMP JUMPDEST DUP1 PUSH1 0x4 PUSH2 0x227F PUSH1 0x1 SWAP4 DUP7 PUSH2 0x1CF5 JUMP JUMPDEST POP ADD DUP1 SLOAD PUSH1 0xFF NOT AND SWAP1 SSTORE PUSH2 0x223C JUMP JUMPDEST POP SWAP2 SWAP1 PUSH1 0xF DUP3 ADD DUP1 SLOAD SWAP1 PUSH0 DUP2 SSTORE DUP2 PUSH2 0x264B JUMPI JUMPDEST POP POP PUSH1 0xFF DUP1 PUSH2 0x22C6 PUSH1 0x6 DUP6 SWAP7 SWAP6 ADD SWAP4 DUP3 PUSH2 0x22BD DUP2 DUP8 SLOAD AND PUSH2 0x2167 JUMP JUMPDEST SWAP2 SLOAD SWAP2 AND PUSH2 0x2179 JUMP JUMPDEST AND AND PUSH1 0xFF NOT DUP3 SLOAD AND OR SWAP1 SSTORE PUSH2 0x22DA DUP2 PUSH2 0x1C1A JUMP JUMPDEST POP PUSH1 0x8 DUP2 ADD PUSH0 JUMPDEST PUSH1 0x34 PUSH1 0xFF DUP3 AND LT PUSH2 0x2605 JUMPI POP PUSH1 0x40 MLOAD PUSH1 0x20 DUP2 ADD SWAP1 TIMESTAMP DUP3 MSTORE PREVRANDAO PUSH1 0x40 DUP3 ADD MSTORE CALLER PUSH1 0x60 SHL PUSH1 0x60 DUP3 ADD MSTORE PUSH1 0x54 DUP2 MSTORE PUSH2 0x2316 PUSH1 0x74 DUP3 PUSH2 0x1DA8 JUMP JUMPDEST MLOAD SWAP1 KECCAK256 PUSH0 JUMPDEST PUSH1 0x34 DUP2 LT PUSH2 0x255F JUMPI POP POP POP PUSH1 0xA ADD DUP1 SLOAD PUSH1 0xFF NOT AND SWAP1 SSTORE PUSH2 0x242A PUSH2 0x233D DUP3 PUSH2 0x1C1A JUMP JUMPDEST POP PUSH1 0xFF PUSH2 0x2415 PUSH1 0x6 DUP4 ADD SWAP3 DUP3 PUSH2 0x22BD PUSH2 0x2358 DUP3 DUP8 SLOAD AND PUSH2 0x2167 JUMP JUMPDEST SWAP3 DUP3 PUSH2 0x23CA PUSH2 0x23C0 DUP3 PUSH2 0x2373 PUSH1 0x7 DUP7 ADD SWAP9 DUP3 DUP11 SLOAD SWAP2 AND PUSH2 0x2179 JUMP JUMPDEST AND PUSH1 0x4 DUP6 ADD SLOAD DUP1 PUSH1 0x2 PUSH2 0x2386 DUP5 DUP13 PUSH2 0x1CF5 JUMP JUMPDEST POP ADD SSTORE PUSH2 0x23A2 PUSH1 0x1 PUSH2 0x2398 DUP5 DUP13 PUSH2 0x1CF5 JUMP JUMPDEST POP ADD SWAP2 DUP3 SLOAD PUSH2 0x1D0E JUMP JUMPDEST SWAP1 SSTORE PUSH1 0x4 PUSH2 0x23B0 DUP3 DUP11 PUSH2 0x1CF5 JUMP JUMPDEST POP ADD DUP1 SLOAD PUSH2 0xFF00 NOT AND SWAP1 SSTORE PUSH2 0x2167 JUMP JUMPDEST DUP3 DUP8 SLOAD SWAP2 AND PUSH2 0x2179 JUMP JUMPDEST AND SWAP1 PUSH1 0xD PUSH1 0x5 DUP3 ADD DUP1 SLOAD DUP1 PUSH1 0x2 PUSH2 0x23E1 DUP8 DUP12 PUSH2 0x1CF5 JUMP JUMPDEST POP ADD SSTORE PUSH2 0x23F3 PUSH1 0x1 PUSH2 0x2398 DUP8 DUP12 PUSH2 0x1CF5 JUMP JUMPDEST SWAP1 SSTORE PUSH1 0x4 PUSH2 0x2401 DUP6 DUP10 PUSH2 0x1CF5 JUMP JUMPDEST POP ADD DUP1 SLOAD PUSH2 0xFF00 NOT AND SWAP1 SSTORE SLOAD SWAP2 ADD SSTORE PUSH2 0x2167 JUMP JUMPDEST DUP3 SLOAD PUSH2 0xFF00 NOT AND SWAP2 AND PUSH1 0x8 SHL PUSH2 0xFF00 AND OR SWAP1 SSTORE JUMP JUMPDEST PUSH2 0x2433 DUP2 PUSH2 0x1C1A JUMP JUMPDEST POP PUSH1 0x7 DUP2 ADD SWAP2 PUSH0 JUMPDEST DUP4 SLOAD DUP2 LT ISZERO PUSH2 0x250C JUMPI DUP1 PUSH1 0xFF PUSH1 0x4 PUSH2 0x2455 PUSH1 0x1 SWAP5 DUP9 PUSH2 0x1CF5 JUMP JUMPDEST POP ADD SLOAD AND PUSH2 0x2464 JUMPI JUMPDEST ADD PUSH2 0x243B JUMP JUMPDEST PUSH1 0xFF PUSH2 0x24D4 PUSH1 0x8 DUP7 ADD PUSH1 0xA DUP8 ADD SWAP1 DUP4 PUSH2 0x2493 DUP2 DUP5 SLOAD AND DUP3 PUSH2 0x2484 DUP3 PUSH2 0x2F56 JUMP JUMPDEST AND DUP4 NOT DUP7 SLOAD AND OR DUP6 SSTORE DUP4 PUSH2 0x2F3D JUMP JUMPDEST SWAP1 SLOAD SWAP1 PUSH1 0x3 SHL SHR AND PUSH1 0x3 PUSH2 0x24A7 DUP8 DUP13 PUSH2 0x1CF5 JUMP JUMPDEST POP ADD DUP1 SLOAD DUP7 NOT AND SWAP2 DUP7 AND SWAP2 SWAP1 SWAP2 OR SWAP1 SSTORE DUP2 SLOAD DUP5 AND SWAP2 DUP5 PUSH2 0x24C6 DUP5 PUSH2 0x2F56 JUMP JUMPDEST AND DUP6 NOT DUP3 SLOAD AND OR SWAP1 SSTORE PUSH2 0x2F3D JUMP JUMPDEST SWAP1 SLOAD SWAP1 PUSH1 0x3 SHL SHR AND PUSH2 0x2505 PUSH1 0x3 PUSH2 0x24EB DUP5 DUP10 PUSH2 0x1CF5 JUMP JUMPDEST POP ADD SWAP2 DUP5 DUP4 SLOAD SWAP1 PUSH1 0xFF DUP1 SWAP2 PUSH1 0x3 SHL SWAP4 AND DUP4 SHL SWAP3 SHL NOT AND OR SWAP1 JUMP JUMPDEST SWAP1 SSTORE PUSH2 0x245E JUMP JUMPDEST POP SWAP3 SWAP1 POP PUSH1 0xC SWAP2 POP ADD PUSH1 0x1 PUSH1 0xFF NOT DUP3 SLOAD AND OR SWAP1 SSTORE PUSH0 MLOAD PUSH1 0x20 PUSH2 0x3912 PUSH0 CODECOPY PUSH0 MLOAD SWAP1 PUSH0 MSTORE PUSH1 0x20 PUSH1 0x40 MLOAD DUP4 PUSH32 0x17EF9D3684374CA660F2D6B5A52C09C0C1C6144B13C23FF3681FB0A9BA9FE4C3 PUSH0 DUP1 LOG2 PUSH1 0x1 DUP2 MSTORE LOG2 JUMP JUMPDEST PUSH2 0x256C DUP2 DUP4 SWAP8 SWAP7 SWAP8 PUSH2 0x1D1B JUMP JUMPDEST SWAP1 DUP1 PUSH1 0x34 SUB SWAP2 PUSH1 0x34 DUP4 GT PUSH2 0x762 JUMPI PUSH1 0x1 SWAP3 PUSH2 0x2586 SWAP2 PUSH2 0x2179 JUMP JUMPDEST PUSH2 0x25FA PUSH1 0xFF PUSH2 0x2595 DUP4 DUP9 PUSH2 0x2F3D JUMP JUMPDEST SWAP1 SLOAD SWAP1 PUSH1 0x3 SHL SHR AND PUSH2 0x25CA PUSH1 0xFF PUSH2 0x25AC DUP7 DUP11 PUSH2 0x2F3D JUMP JUMPDEST SWAP1 SLOAD SWAP1 PUSH1 0x3 SHL SHR AND PUSH2 0x25E2 PUSH2 0x25C1 DUP8 DUP12 PUSH2 0x2F3D JUMP JUMPDEST SWAP4 SWAP1 SWAP7 DUP12 PUSH2 0x2F3D JUMP JUMPDEST DUP2 SWAP4 SWAP2 SLOAD SWAP1 PUSH1 0xFF DUP1 SWAP2 PUSH1 0x3 SHL SWAP4 AND DUP4 SHL SWAP3 SHL NOT AND OR SWAP1 JUMP JUMPDEST SWAP1 SSTORE DUP4 SLOAD SWAP1 PUSH1 0xFF DUP1 SWAP2 PUSH1 0x3 SHL SWAP4 AND DUP4 SHL SWAP3 SHL NOT AND OR SWAP1 JUMP JUMPDEST SWAP1 SSTORE ADD SWAP5 SWAP4 SWAP5 PUSH2 0x231B JUMP JUMPDEST PUSH1 0x1 DUP2 PUSH2 0x2616 PUSH1 0xFF SWAP4 SWAP8 SWAP7 SWAP8 PUSH2 0x2167 JUMP JUMPDEST PUSH2 0x263F DUP5 PUSH2 0x2624 DUP5 DUP9 PUSH2 0x2F3D JUMP JUMPDEST SWAP2 SWAP1 SWAP4 AND SWAP1 DUP4 SLOAD SWAP1 PUSH1 0xFF DUP1 SWAP2 PUSH1 0x3 SHL SWAP4 AND DUP4 SHL SWAP3 SHL NOT AND OR SWAP1 JUMP JUMPDEST SWAP1 SSTORE ADD AND SWAP4 SWAP3 SWAP4 PUSH2 0x22E1 JUMP JUMPDEST PUSH1 0x1 PUSH1 0x1 PUSH1 0xFF SHL SUB DUP3 AND DUP3 SUB PUSH2 0x762 JUMPI PUSH0 MSTORE PUSH1 0x20 PUSH0 KECCAK256 SWAP1 PUSH1 0x1 SHL DUP2 ADD SWAP1 JUMPDEST DUP2 DUP2 LT ISZERO PUSH2 0x22A1 JUMPI DUP1 PUSH0 PUSH1 0x2 SWAP3 SSTORE PUSH2 0x2683 PUSH1 0x1 DUP3 ADD PUSH2 0x1FBB JUMP JUMPDEST ADD PUSH2 0x2669 JUMP JUMPDEST PUSH2 0x2692 DUP2 PUSH2 0x1C1A JUMP JUMPDEST POP PUSH1 0x6 PUSH1 0x7 DUP3 ADD SWAP2 ADD PUSH1 0x4 PUSH2 0x26AE PUSH1 0xFF DUP4 SLOAD PUSH1 0x8 SHR AND DUP5 PUSH2 0x1CF5 JUMP JUMPDEST POP ADD PUSH2 0x100 PUSH2 0xFF00 NOT DUP3 SLOAD AND OR SWAP1 SSTORE PUSH2 0x26CE PUSH1 0xFF DUP3 SLOAD PUSH1 0x8 SHR AND DUP4 PUSH2 0x1CF5 JUMP JUMPDEST POP PUSH1 0x5 TIMESTAMP SWAP2 ADD SSTORE PUSH2 0x26DE DUP4 PUSH2 0x2F67 JUMP JUMPDEST ISZERO PUSH2 0x2EAB JUMPI POP POP PUSH2 0x26EE DUP2 PUSH2 0x1C1A JUMP JUMPDEST POP SWAP2 PUSH0 SWAP1 PUSH0 SWAP4 PUSH1 0x7 DUP2 ADD SWAP5 DUP6 SLOAD JUMPDEST DUP1 DUP3 LT PUSH2 0x2E86 JUMPI POP POP PUSH1 0xF ADD SWAP2 PUSH0 PUSH1 0x80 MSTORE PUSH1 0x20 PUSH1 0x80 MSTORE PUSH1 0x40 MLOAD PUSH2 0x2721 PUSH1 0x80 MLOAD DUP3 PUSH2 0x1DA8 JUMP JUMPDEST PUSH0 DUP1 DUP3 MSTORE CALLDATASIZE DUP2 CALLDATACOPY PUSH1 0x40 MLOAD SWAP2 PUSH2 0x2735 DUP4 PUSH2 0x1D53 JUMP JUMPDEST DUP3 MSTORE PUSH1 0x80 MLOAD DUP3 ADD MSTORE DUP3 SLOAD SWAP1 PUSH1 0x1 PUSH1 0x40 SHL DUP3 LT ISZERO PUSH2 0x776 JUMPI PUSH1 0x1 DUP3 ADD DUP1 DUP6 SSTORE DUP3 LT ISZERO PUSH2 0x1C52 JUMPI PUSH2 0x2770 SWAP2 DUP5 PUSH0 MSTORE PUSH1 0x80 MLOAD PUSH0 KECCAK256 SWAP1 PUSH1 0x1 SHL ADD PUSH2 0x1FDE JUMP JUMPDEST PUSH0 JUMPDEST DUP5 SLOAD DUP2 LT ISZERO PUSH2 0x2805 JUMPI PUSH1 0xFF PUSH1 0x4 PUSH2 0x2789 DUP4 DUP9 PUSH2 0x1CF5 JUMP JUMPDEST POP ADD SLOAD AND PUSH2 0x279A JUMPI JUMPDEST PUSH1 0x1 ADD PUSH2 0x2772 JUMP JUMPDEST PUSH1 0x1 PUSH2 0x27A5 DUP5 PUSH2 0x3059 JUMP JUMPDEST POP ADD SWAP1 PUSH2 0x27B2 DUP2 DUP8 PUSH2 0x1CF5 JUMP JUMPDEST POP SLOAD DUP3 SLOAD PUSH1 0x1 PUSH1 0x1 PUSH1 0xA0 SHL SUB SWAP1 SWAP2 AND SWAP1 PUSH1 0x1 PUSH1 0x40 SHL DUP2 LT ISZERO PUSH2 0x776 JUMPI PUSH1 0x1 DUP2 ADD DUP1 DUP6 SSTORE DUP2 LT ISZERO PUSH2 0x1C52 JUMPI PUSH1 0x1 SWAP4 PUSH0 MSTORE PUSH1 0x80 MLOAD PUSH0 KECCAK256 ADD SWAP1 PUSH12 0xFFFFFFFFFFFFFFFFFFFFFFFF PUSH1 0xA0 SHL DUP3 SLOAD AND OR SWAP1 SSTORE SWAP1 POP PUSH2 0x2792 JUMP JUMPDEST POP SWAP2 SWAP3 POP POP PUSH2 0x2813 DUP3 PUSH2 0x1C1A JUMP JUMPDEST POP SWAP1 PUSH0 SWAP3 PUSH1 0x7 DUP4 ADD SWAP4 JUMPDEST DUP5 SLOAD DUP2 LT ISZERO PUSH2 0x2856 JUMPI DUP1 PUSH0 PUSH1 0x2 PUSH2 0x2836 PUSH1 0x1 SWAP5 DUP10 PUSH2 0x1CF5 JUMP JUMPDEST POP ADD SSTORE PUSH1 0x4 PUSH2 0x2845 DUP3 DUP9 PUSH2 0x1CF5 JUMP JUMPDEST POP ADD DUP1 SLOAD PUSH2 0xFF00 NOT AND SWAP1 SSTORE ADD PUSH2 0x281D JUMP JUMPDEST POP SWAP2 SWAP1 SWAP3 POP PUSH0 PUSH1 0xD DUP3 ADD SSTORE PUSH1 0x5 DUP2 ADD SLOAD PUSH1 0xE DUP3 ADD SSTORE PUSH1 0xFF PUSH1 0xC DUP3 ADD SLOAD AND PUSH1 0x6 DUP2 LT ISZERO PUSH2 0x277 JUMPI PUSH1 0x1 DUP2 SUB PUSH2 0x28C6 JUMPI POP PUSH1 0xFF PUSH1 0xC PUSH0 MLOAD PUSH1 0x20 PUSH2 0x3912 PUSH0 CODECOPY PUSH0 MLOAD SWAP1 PUSH0 MSTORE SWAP3 PUSH1 0x2 DUP4 NOT DUP4 DUP4 ADD SLOAD AND OR DUP3 DUP3 ADD SSTORE PUSH2 0x28AF DUP6 PUSH2 0x30DA JUMP JUMPDEST ADD SLOAD AND PUSH2 0x28BF PUSH1 0x40 MLOAD DUP1 SWAP3 PUSH2 0x1C0D JUMP JUMPDEST PUSH1 0x80 MLOAD SWAP1 LOG2 JUMP JUMPDEST PUSH1 0x2 DUP2 SUB PUSH2 0x28FE JUMPI POP PUSH1 0xFF PUSH1 0xC PUSH0 MLOAD PUSH1 0x20 PUSH2 0x3912 PUSH0 CODECOPY PUSH0 MLOAD SWAP1 PUSH0 MSTORE SWAP3 PUSH1 0x3 DUP4 NOT DUP4 DUP4 ADD SLOAD AND OR DUP3 DUP3 ADD SSTORE PUSH2 0x28F9 DUP6 PUSH2 0x30DA JUMP JUMPDEST PUSH2 0x28AF JUMP JUMPDEST PUSH1 0x3 DUP2 SUB PUSH2 0x2931 JUMPI POP PUSH1 0xFF PUSH1 0xC PUSH0 MLOAD PUSH1 0x20 PUSH2 0x3912 PUSH0 CODECOPY PUSH0 MLOAD SWAP1 PUSH0 MSTORE SWAP3 PUSH1 0x4 DUP4 NOT DUP4 DUP4 ADD SLOAD AND OR DUP3 DUP3 ADD SSTORE PUSH2 0x28F9 DUP6 PUSH2 0x30DA JUMP JUMPDEST PUSH1 0x4 EQ PUSH2 0x2951 JUMPI JUMPDEST PUSH1 0xFF PUSH1 0xC PUSH0 MLOAD PUSH1 0x20 PUSH2 0x3912 PUSH0 CODECOPY PUSH0 MLOAD SWAP1 PUSH0 MSTORE SWAP3 PUSH2 0x28AF JUMP JUMPDEST PUSH1 0xC DUP2 ADD DUP1 SLOAD PUSH1 0xFF NOT AND PUSH1 0x5 OR SWAP1 SSTORE PUSH2 0x2969 DUP3 PUSH2 0x1C1A JUMP JUMPDEST POP PUSH1 0x40 MLOAD PUSH2 0x140 PUSH2 0x297A DUP2 DUP4 PUSH2 0x1DA8 JUMP JUMPDEST PUSH1 0x9 DUP3 MSTORE PUSH1 0x1F NOT ADD CALLDATASIZE PUSH1 0x80 MLOAD DUP4 ADD CALLDATACOPY PUSH0 PUSH2 0x2992 PUSH2 0x1FA2 JUMP JUMPDEST SWAP3 PUSH0 SWAP4 PUSH1 0x7 DUP3 ADD SWAP5 DUP6 SLOAD SWAP1 JUMPDEST DUP2 DUP2 LT PUSH2 0x2B28 JUMPI POP POP POP PUSH2 0x29B1 DUP3 PUSH2 0x3027 JUMP JUMPDEST SWAP3 PUSH0 JUMPDEST DUP4 DUP2 LT PUSH2 0x2B00 JUMPI POP POP PUSH1 0xF PUSH2 0x29C9 SWAP2 ADD PUSH2 0x3059 JUMP JUMPDEST POP SLOAD DUP2 ISZERO PUSH2 0x2183 JUMPI DUP2 SWAP1 DIV SWAP3 PUSH0 SWAP1 JUMPDEST DUP3 DUP3 LT PUSH2 0x2A83 JUMPI POP POP POP SWAP1 DUP4 SWAP2 PUSH1 0x40 MLOAD SWAP2 PUSH1 0x40 DUP4 ADD PUSH1 0x40 DUP5 MSTORE DUP3 MLOAD DUP1 SWAP2 MSTORE PUSH1 0x60 DUP5 ADD SWAP3 PUSH1 0x80 MLOAD ADD SWAP1 PUSH0 JUMPDEST DUP2 DUP2 LT PUSH2 0x2A60 JUMPI POP POP POP SWAP3 PUSH32 0xEDB6330B1B84CDA51026E9A0AABF4CE11324D13D69E89D1033001317AD200395 DUP4 PUSH1 0xC SWAP5 PUSH0 MLOAD PUSH1 0x20 PUSH2 0x3912 PUSH0 CODECOPY PUSH0 MLOAD SWAP1 PUSH0 MSTORE SWAP8 SWAP5 PUSH1 0xFF SWAP8 PUSH1 0x80 MLOAD DUP4 ADD MSTORE SUB SWAP1 LOG2 PUSH2 0x2A57 DUP6 PUSH2 0x2197 JUMP JUMPDEST SWAP3 POP POP POP PUSH2 0x2939 JUMP JUMPDEST DUP3 MLOAD PUSH1 0x1 PUSH1 0x1 PUSH1 0xA0 SHL SUB AND DUP6 MSTORE PUSH1 0x80 MLOAD DUP10 SWAP8 POP SWAP5 DUP6 ADD SWAP5 SWAP1 SWAP3 ADD SWAP2 PUSH1 0x1 ADD PUSH2 0x2A02 JUMP JUMPDEST SWAP3 SWAP6 PUSH0 SWAP8 SWAP2 SWAP6 SWAP3 SWAP8 JUMPDEST DUP5 SLOAD DUP2 LT ISZERO PUSH2 0x2AF1 JUMPI PUSH2 0x2A9F DUP2 DUP7 PUSH2 0x1CF5 JUMP JUMPDEST POP SLOAD PUSH1 0x1 PUSH1 0x1 PUSH1 0xA0 SHL SUB SWAP1 DUP2 AND SWAP1 PUSH2 0x2AB7 DUP10 DUP12 PUSH2 0x30B8 JUMP JUMPDEST MLOAD AND EQ PUSH2 0x2AC6 JUMPI PUSH1 0x1 ADD PUSH2 0x2A8C JUMP JUMPDEST SWAP6 PUSH1 0x1 PUSH2 0x2ADA DUP7 SWAP5 SWAP11 SWAP6 SWAP9 DUP3 SWAP5 SWAP11 SWAP8 PUSH2 0x1CF5 JUMP JUMPDEST POP ADD PUSH2 0x2AE7 DUP8 DUP3 SLOAD PUSH2 0x1D1B JUMP JUMPDEST SWAP1 SSTORE JUMPDEST ADD SWAP1 PUSH2 0x29D8 JUMP JUMPDEST POP SWAP6 SWAP3 SWAP1 SWAP7 SWAP2 SWAP5 PUSH1 0x1 SWAP1 PUSH2 0x2AEA JUMP JUMPDEST PUSH1 0x1 SWAP1 PUSH1 0x1 PUSH1 0x1 PUSH1 0xA0 SHL SUB PUSH2 0x2B15 DUP3 DUP6 PUSH2 0x30B8 JUMP JUMPDEST MLOAD AND PUSH2 0x2B21 DUP3 DUP9 PUSH2 0x30B8 JUMP JUMPDEST MSTORE ADD PUSH2 0x29B4 JUMP JUMPDEST PUSH1 0xFF PUSH1 0x4 PUSH2 0x2B36 DUP4 DUP11 PUSH2 0x1CF5 JUMP JUMPDEST POP ADD SLOAD AND PUSH2 0x2B47 JUMPI JUMPDEST PUSH1 0x1 ADD PUSH2 0x299E JUMP JUMPDEST SWAP2 PUSH2 0x100 SWAP5 PUSH1 0x40 MLOAD SWAP6 PUSH2 0x2B5A DUP2 DUP9 PUSH2 0x1DA8 JUMP JUMPDEST PUSH1 0x7 DUP8 MSTORE PUSH1 0x1F NOT ADD CALLDATASIZE PUSH1 0x80 MLOAD DUP9 ADD CALLDATACOPY PUSH1 0xFF PUSH1 0x3 PUSH2 0x2B77 DUP7 DUP12 PUSH2 0x1CF5 JUMP JUMPDEST POP ADD SLOAD AND PUSH2 0x2B84 DUP8 PUSH2 0x306B JUMP JUMPDEST MSTORE PUSH1 0x3 PUSH2 0x2B91 DUP6 DUP11 PUSH2 0x1CF5 JUMP JUMPDEST POP ADD SLOAD PUSH1 0x1 SWAP3 SWAP1 PUSH1 0x8 SHR PUSH1 0xFF AND PUSH2 0x2BA7 DUP9 PUSH2 0x3078 JUMP JUMPDEST MSTORE PUSH0 DUP4 JUMPDEST PUSH2 0x2E41 JUMPI JUMPDEST POP PUSH2 0x2BB9 PUSH2 0x1FA2 JUMP JUMPDEST POP PUSH2 0x2BC4 DUP8 MLOAD PUSH2 0x3027 JUMP JUMPDEST PUSH2 0x2BCE DUP9 MLOAD PUSH2 0x3027 JUMP JUMPDEST SWAP1 DUP5 DUP10 PUSH0 DUP3 JUMPDEST PUSH2 0x2DE0 JUMPI JUMPDEST POP POP POP POP POP PUSH2 0x2BE6 PUSH2 0x1FA2 JUMP JUMPDEST SWAP7 PUSH0 JUMPDEST PUSH1 0x7 DUP2 LT PUSH2 0x2C99 JUMPI POP POP DUP2 PUSH2 0x2C2F JUMPI POP PUSH1 0x1 SWAP2 POP PUSH2 0x2C25 SWAP1 PUSH2 0x2C0B DUP6 DUP11 PUSH2 0x1CF5 JUMP JUMPDEST POP DUP4 DUP1 PUSH1 0xA0 SHL SUB SWAP1 SLOAD AND PUSH2 0x2C1F DUP3 DUP11 PUSH2 0x30B8 JUMP JUMPDEST MSTORE PUSH2 0x30CC JUMP JUMPDEST SWAP5 SWAP3 JUMPDEST SWAP1 POP PUSH2 0x2B3F JUMP JUMPDEST PUSH2 0x2C39 DUP2 DUP9 PUSH2 0x32C1 JUMP JUMPDEST PUSH0 DUP2 SGT ISZERO PUSH2 0x2C6C JUMPI POP POP POP PUSH1 0x1 SWAP1 PUSH2 0x2C51 DUP5 DUP10 PUSH2 0x1CF5 JUMP JUMPDEST POP DUP3 DUP1 PUSH1 0xA0 SHL SUB SWAP1 SLOAD AND PUSH2 0x2C64 DUP9 PUSH2 0x306B JUMP JUMPDEST MSTORE SWAP5 SWAP3 PUSH2 0x2C28 JUMP JUMPDEST SWAP2 SWAP7 POP SWAP4 SWAP2 POP ISZERO PUSH2 0x2C80 JUMPI JUMPDEST PUSH1 0x1 SWAP1 PUSH2 0x2C28 JUMP JUMPDEST SWAP4 PUSH2 0x2C91 PUSH1 0x1 SWAP2 PUSH2 0x2C0B DUP8 DUP11 PUSH2 0x1CF5 JUMP JUMPDEST SWAP5 SWAP1 POP PUSH2 0x2C78 JUMP JUMPDEST DUP5 DUP2 ADD DUP1 DUP3 GT PUSH2 0x762 JUMPI SWAP1 DUP6 SWAP2 JUMPDEST PUSH1 0x7 DUP2 LT PUSH2 0x2CB6 JUMPI POP ADD PUSH2 0x2BE9 JUMP JUMPDEST SWAP1 SWAP2 DUP2 ADD DUP1 DUP3 GT PUSH2 0x762 JUMPI SWAP1 DUP7 SWAP2 JUMPDEST PUSH1 0x7 DUP2 LT PUSH2 0x2CD7 JUMPI POP ADD SWAP1 DUP6 SWAP2 PUSH2 0x2CA7 JUMP JUMPDEST SWAP1 SWAP2 DUP2 ADD DUP1 DUP3 GT PUSH2 0x762 JUMPI SWAP1 DUP8 SWAP2 JUMPDEST PUSH1 0x7 DUP2 LT PUSH2 0x2CF8 JUMPI POP ADD SWAP1 DUP7 SWAP2 PUSH2 0x2CC5 JUMP JUMPDEST SWAP1 SWAP2 DUP2 ADD DUP2 GT PUSH2 0x762 JUMPI DUP1 DUP9 DUP1 SWAP3 ADD JUMPDEST PUSH1 0x7 DUP2 LT PUSH2 0x2D1A JUMPI POP ADD SWAP1 DUP8 SWAP2 PUSH2 0x2CE6 JUMP JUMPDEST SWAP1 SWAP2 POP DUP13 PUSH0 PUSH2 0x2DC7 PUSH2 0x2DC0 PUSH1 0xC0 PUSH1 0x40 MLOAD SWAP1 PUSH2 0x2D35 DUP2 DUP4 PUSH2 0x1DA8 JUMP JUMPDEST PUSH1 0x5 DUP3 MSTORE POP PUSH1 0xA0 CALLDATASIZE PUSH1 0x80 MLOAD DUP4 ADD CALLDATACOPY PUSH1 0xFF PUSH2 0x2D4F DUP12 DUP14 PUSH2 0x30B8 JUMP JUMPDEST MLOAD AND PUSH2 0x2D5A DUP3 PUSH2 0x306B JUMP JUMPDEST MSTORE PUSH1 0xFF PUSH2 0x2D67 DUP11 DUP14 PUSH2 0x30B8 JUMP JUMPDEST MLOAD AND PUSH2 0x2D72 DUP3 PUSH2 0x3078 JUMP JUMPDEST MSTORE PUSH1 0xFF PUSH2 0x2D7F DUP10 DUP14 PUSH2 0x30B8 JUMP JUMPDEST MLOAD AND PUSH2 0x2D8A DUP3 PUSH2 0x3088 JUMP JUMPDEST MSTORE PUSH1 0xFF PUSH2 0x2D97 DUP9 DUP14 PUSH2 0x30B8 JUMP JUMPDEST MLOAD AND PUSH2 0x2DA2 DUP3 PUSH2 0x3098 JUMP JUMPDEST MSTORE PUSH1 0xFF PUSH2 0x2DAF DUP8 DUP14 PUSH2 0x30B8 JUMP JUMPDEST MLOAD AND PUSH2 0x2DBA DUP3 PUSH2 0x30A8 JUMP JUMPDEST MSTORE PUSH2 0x337B JUMP JUMPDEST SWAP3 DUP4 PUSH2 0x32C1 JUMP JUMPDEST SGT PUSH2 0x2DD8 JUMPI JUMPDEST POP DUP9 ADD SWAP1 DUP9 SWAP2 PUSH2 0x2D08 JUMP JUMPDEST SWAP13 POP DUP9 PUSH2 0x2DCD JUMP JUMPDEST DUP2 MLOAD DUP2 LT ISZERO PUSH2 0x2E3C JUMPI PUSH1 0xFF PUSH1 0xD DUP2 PUSH2 0x2E25 DUP2 PUSH2 0x2E0F DUP7 DUP9 DUP12 PUSH2 0x2E1F DUP4 DUP7 DUP11 DUP16 SWAP15 PUSH2 0x2E16 DUP4 PUSH2 0x2E0F DUP7 DUP3 SWAP5 PUSH2 0x30B8 JUMP JUMPDEST MLOAD AND PUSH2 0x32AF JUMP JUMPDEST AND MOD AND SWAP3 PUSH2 0x30B8 JUMP JUMPDEST MSTORE PUSH2 0x30B8 JUMP JUMPDEST AND DIV AND PUSH2 0x2E32 DUP3 DUP8 PUSH2 0x30B8 JUMP JUMPDEST MSTORE ADD DUP11 SWAP1 DUP3 PUSH2 0x2BD4 JUMP JUMPDEST PUSH2 0x2BD9 JUMP JUMPDEST PUSH1 0x5 DUP2 LT ISZERO PUSH2 0x2E81 JUMPI PUSH1 0xFF PUSH1 0xB DUP3 PUSH1 0x5 SHR DUP10 ADD ADD SLOAD PUSH1 0xF8 DUP4 PUSH1 0x3 SHL AND SHR AND SWAP1 PUSH1 0x2 DUP2 ADD SWAP1 DUP2 DUP2 GT PUSH2 0x762 JUMPI DUP6 SWAP3 PUSH2 0x2E79 DUP5 SWAP4 DUP13 PUSH2 0x30B8 JUMP JUMPDEST MSTORE ADD SWAP1 PUSH2 0x2BAB JUMP JUMPDEST PUSH2 0x2BB0 JUMP JUMPDEST SWAP1 SWAP4 PUSH2 0x2EA3 PUSH1 0x1 SWAP2 PUSH1 0x2 PUSH2 0x2E9A DUP9 DUP12 PUSH2 0x1CF5 JUMP JUMPDEST POP ADD SLOAD SWAP1 PUSH2 0x1D1B JUMP JUMPDEST SWAP5 ADD SWAP1 PUSH2 0x26FC JUMP JUMPDEST SWAP2 POP SWAP2 PUSH1 0xFF DUP3 SLOAD PUSH1 0x8 SHR AND SWAP1 PUSH1 0x1 SWAP3 PUSH1 0xFF DUP6 SLOAD AND SWAP5 DUP6 ISZERO SWAP5 JUMPDEST ISZERO PUSH2 0x2EE5 JUMPI JUMPDEST PUSH2 0x2ED4 PUSH0 SWAP5 PUSH2 0x2167 JUMP JUMPDEST DUP6 PUSH2 0x2183 JUMPI PUSH1 0xFF DUP8 SWAP2 AND MOD SWAP4 PUSH2 0x2EC4 JUMP JUMPDEST PUSH1 0xFF PUSH1 0x4 PUSH2 0x2EF3 DUP7 DUP5 PUSH2 0x1CF5 JUMP JUMPDEST POP ADD SLOAD AND ISZERO DUP1 ISZERO PUSH2 0x2F22 JUMPI JUMPDEST PUSH2 0x2ECA JUMPI POP SWAP1 SWAP4 POP PUSH2 0x1FDC SWAP3 POP SWAP1 PUSH2 0xFF00 DUP3 SLOAD SWAP2 PUSH1 0x8 SHL AND SWAP1 PUSH2 0xFF00 NOT AND OR SWAP1 SSTORE JUMP JUMPDEST POP PUSH1 0xFF PUSH1 0x4 PUSH2 0x2F31 DUP7 DUP5 PUSH2 0x1CF5 JUMP JUMPDEST POP ADD SLOAD PUSH1 0x8 SHR AND PUSH2 0x2EFF JUMP JUMPDEST SWAP2 SWAP1 SWAP2 PUSH1 0x34 DUP4 LT ISZERO PUSH2 0x1C52 JUMPI PUSH1 0x1F SWAP1 DUP4 PUSH1 0x5 SHR ADD SWAP3 AND SWAP1 JUMP JUMPDEST PUSH1 0xFF AND PUSH1 0xFF DUP2 EQ PUSH2 0x762 JUMPI PUSH1 0x1 ADD SWAP1 JUMP JUMPDEST PUSH2 0x2F70 SWAP1 PUSH2 0x1C1A JUMP JUMPDEST POP PUSH0 SWAP1 PUSH1 0x7 DUP2 ADD DUP1 SLOAD SWAP3 JUMPDEST DUP4 DUP2 LT PUSH2 0x2F8B JUMPI POP POP POP POP PUSH1 0x1 SWAP1 JUMP JUMPDEST PUSH1 0xFF PUSH1 0x4 PUSH2 0x2F99 DUP4 DUP6 PUSH2 0x1CF5 JUMP JUMPDEST POP ADD SLOAD AND DUP1 PUSH2 0x300B JUMPI JUMPDEST PUSH2 0x2FD1 JUMPI PUSH1 0xFF PUSH1 0x4 PUSH2 0x2FB5 DUP4 DUP6 PUSH2 0x1CF5 JUMP JUMPDEST POP ADD SLOAD AND DUP1 PUSH2 0x2FF0 JUMPI JUMPDEST DUP1 PUSH2 0x2FD9 JUMPI JUMPDEST PUSH2 0x2FD1 JUMPI PUSH1 0x1 ADD PUSH2 0x2F7B JUMP JUMPDEST POP POP POP POP PUSH0 SWAP1 JUMP JUMPDEST POP PUSH1 0x1 PUSH2 0x2FE6 DUP3 DUP5 PUSH2 0x1CF5 JUMP JUMPDEST POP ADD SLOAD ISZERO ISZERO PUSH2 0x2FC5 JUMP JUMPDEST POP PUSH1 0x2 PUSH2 0x2FFD DUP3 DUP5 PUSH2 0x1CF5 JUMP JUMPDEST POP ADD SLOAD PUSH1 0xD DUP5 ADD SLOAD GT PUSH2 0x2FBF JUMP JUMPDEST POP PUSH1 0xFF PUSH1 0x4 PUSH2 0x301A DUP4 DUP6 PUSH2 0x1CF5 JUMP JUMPDEST POP ADD SLOAD PUSH1 0x8 SHR AND ISZERO PUSH2 0x2FA3 JUMP JUMPDEST SWAP1 PUSH2 0x3031 DUP3 PUSH2 0x1E8F JUMP JUMPDEST PUSH2 0x303E PUSH1 0x40 MLOAD SWAP2 DUP3 PUSH2 0x1DA8 JUMP JUMPDEST DUP3 DUP2 MSTORE DUP1 SWAP3 PUSH2 0x304F PUSH1 0x1F NOT SWAP2 PUSH2 0x1E8F JUMP JUMPDEST ADD SWAP1 PUSH1 0x20 CALLDATASIZE SWAP2 ADD CALLDATACOPY JUMP JUMPDEST DUP1 SLOAD ISZERO PUSH2 0x1C52 JUMPI PUSH0 MSTORE PUSH1 0x20 PUSH0 KECCAK256 SWAP1 PUSH0 SWAP1 JUMP JUMPDEST DUP1 MLOAD ISZERO PUSH2 0x1C52 JUMPI PUSH1 0x20 ADD SWAP1 JUMP JUMPDEST DUP1 MLOAD PUSH1 0x1 LT ISZERO PUSH2 0x1C52 JUMPI PUSH1 0x40 ADD SWAP1 JUMP JUMPDEST DUP1 MLOAD PUSH1 0x2 LT ISZERO PUSH2 0x1C52 JUMPI PUSH1 0x60 ADD SWAP1 JUMP JUMPDEST DUP1 MLOAD PUSH1 0x3 LT ISZERO PUSH2 0x1C52 JUMPI PUSH1 0x80 ADD SWAP1 JUMP JUMPDEST DUP1 MLOAD PUSH1 0x4 LT ISZERO PUSH2 0x1C52 JUMPI PUSH1 0xA0 ADD SWAP1 JUMP JUMPDEST DUP1 MLOAD DUP3 LT ISZERO PUSH2 0x1C52 JUMPI PUSH1 0x20 SWAP2 PUSH1 0x5 SHL ADD ADD SWAP1 JUMP JUMPDEST PUSH0 NOT DUP2 EQ PUSH2 0x762 JUMPI PUSH1 0x1 ADD SWAP1 JUMP JUMPDEST PUSH2 0x30E3 DUP2 PUSH2 0x1C1A JUMP JUMPDEST POP PUSH1 0xFF PUSH1 0xC DUP3 ADD SLOAD AND PUSH1 0x6 DUP2 LT ISZERO PUSH2 0x277 JUMPI PUSH1 0xB PUSH2 0x320F PUSH32 0x86981AA8C80C36D41A56382BB6D7F4F432477216193063FC8196EDE419C99EC0 SWAP4 DUP4 PUSH1 0x2 PUSH1 0xA0 SWAP6 EQ PUSH0 EQ PUSH2 0x3212 JUMPI POP PUSH1 0x8 DUP2 ADD PUSH1 0xFF PUSH2 0x31B5 PUSH1 0xA DUP5 ADD DUP3 PUSH2 0x3158 DUP2 DUP4 SLOAD AND DUP3 PUSH2 0x3149 DUP3 PUSH2 0x2F56 JUMP JUMPDEST AND DUP4 NOT DUP6 SLOAD AND OR DUP5 SSTORE DUP7 PUSH2 0x2F3D JUMP JUMPDEST SWAP1 SLOAD SWAP1 PUSH1 0x3 SHL SHR AND SWAP4 DUP8 DUP7 ADD SWAP5 DUP6 SLOAD DUP6 DUP1 PUSH0 PUSH1 0x3 SHL SWAP4 AND DUP4 SHL SWAP3 SHL NOT AND OR DUP6 SSTORE DUP4 PUSH2 0x318A DUP2 DUP5 SLOAD AND DUP3 PUSH2 0x2484 DUP3 PUSH2 0x2F56 JUMP JUMPDEST SWAP1 SLOAD SWAP1 PUSH1 0x3 SHL SHR AND DUP6 SLOAD DUP6 DUP1 PUSH1 0x1 PUSH1 0x3 SHL SWAP4 AND DUP4 SHL SWAP3 SHL NOT AND OR DUP6 SSTORE DUP4 DUP3 SLOAD AND SWAP2 DUP5 PUSH2 0x24C6 DUP5 PUSH2 0x2F56 JUMP JUMPDEST SWAP1 SLOAD SWAP1 PUSH1 0x3 SHL SHR AND DUP2 SLOAD PUSH1 0xFF DUP1 PUSH1 0x2 PUSH1 0x3 SHL SWAP4 AND DUP4 SHL SWAP3 SHL NOT AND OR SWAP1 SSTORE JUMPDEST PUSH1 0x40 MLOAD SWAP3 DUP4 SWAP2 ADD PUSH1 0xFF PUSH1 0x80 SWAP2 SLOAD DUP2 DUP2 AND DUP5 MSTORE DUP2 DUP2 PUSH1 0x8 SHR AND PUSH1 0x20 DUP6 ADD MSTORE DUP2 DUP2 PUSH1 0x10 SHR AND PUSH1 0x40 DUP6 ADD MSTORE DUP2 DUP2 PUSH1 0x18 SHR AND PUSH1 0x60 DUP6 ADD MSTORE PUSH1 0x20 SHR AND SWAP2 ADD MSTORE JUMP JUMPDEST LOG2 JUMP JUMPDEST PUSH1 0x3 DUP2 SUB PUSH2 0x326A JUMPI POP PUSH1 0xFF PUSH2 0x3245 PUSH1 0xA DUP4 ADD DUP3 DUP2 SLOAD AND SWAP1 DUP4 PUSH2 0x3233 DUP4 PUSH2 0x2F56 JUMP JUMPDEST AND DUP5 NOT DUP3 SLOAD AND OR SWAP1 SSTORE PUSH1 0x8 DUP5 ADD PUSH2 0x2F3D JUMP JUMPDEST SWAP1 SLOAD SWAP1 PUSH1 0x3 SHL SHR AND DUP4 DUP3 ADD SWAP1 DUP2 SLOAD PUSH1 0xFF DUP1 PUSH1 0x3 DUP1 SHL SWAP4 AND DUP4 SHL SWAP3 SHL NOT AND OR SWAP1 SSTORE PUSH2 0x31D3 JUMP JUMPDEST PUSH1 0x4 SUB PUSH2 0x31D3 JUMPI PUSH1 0xFF PUSH2 0x3289 PUSH1 0xA DUP4 ADD DUP3 DUP2 SLOAD AND SWAP1 DUP4 PUSH2 0x3233 DUP4 PUSH2 0x2F56 JUMP JUMPDEST SWAP1 SLOAD SWAP1 PUSH1 0x3 SHL SHR AND DUP4 DUP3 ADD SWAP1 DUP2 SLOAD PUSH1 0xFF DUP1 PUSH1 0x4 PUSH1 0x3 SHL SWAP4 AND DUP4 SHL SWAP3 SHL NOT AND OR SWAP1 SSTORE PUSH2 0x31D3 JUMP JUMPDEST PUSH1 0xFF PUSH0 NOT SWAP2 AND ADD SWAP1 PUSH1 0xFF DUP3 GT PUSH2 0x762 JUMPI JUMP JUMPDEST SWAP1 DUP2 MLOAD PUSH1 0xA DUP2 LT ISZERO PUSH2 0x277 JUMPI DUP2 MLOAD SWAP1 PUSH1 0xA DUP3 LT ISZERO PUSH2 0x277 JUMPI GT PUSH2 0x3374 JUMPI DUP2 MLOAD PUSH1 0xA DUP2 LT ISZERO PUSH2 0x277 JUMPI DUP2 MLOAD SWAP1 PUSH1 0xA DUP3 LT ISZERO PUSH2 0x277 JUMPI LT PUSH2 0x336D JUMPI PUSH0 JUMPDEST PUSH1 0x20 DUP4 ADD DUP1 MLOAD DUP1 MLOAD DUP4 LT ISZERO PUSH2 0x3364 JUMPI DUP3 PUSH2 0x3315 SWAP2 PUSH2 0x30B8 JUMP JUMPDEST MLOAD SWAP1 PUSH1 0x20 DUP5 ADD SWAP2 PUSH2 0x3327 DUP5 DUP5 MLOAD PUSH2 0x30B8 JUMP JUMPDEST MLOAD LT PUSH2 0x335A JUMPI DUP3 PUSH2 0x333C DUP2 PUSH2 0x3344 SWAP4 MLOAD PUSH2 0x30B8 JUMP JUMPDEST MLOAD SWAP3 MLOAD PUSH2 0x30B8 JUMP JUMPDEST MLOAD GT PUSH2 0x3352 JUMPI PUSH1 0x1 ADD PUSH2 0x32FC JUMP JUMPDEST POP POP POP PUSH0 NOT SWAP1 JUMP JUMPDEST POP POP POP POP POP PUSH1 0x1 SWAP1 JUMP JUMPDEST POP POP POP POP POP PUSH0 SWAP1 JUMP JUMPDEST POP POP PUSH0 NOT SWAP1 JUMP JUMPDEST POP POP PUSH1 0x1 SWAP1 JUMP JUMPDEST PUSH2 0x3383 PUSH2 0x1FA2 JUMP JUMPDEST POP PUSH0 JUMPDEST PUSH1 0x4 DUP2 LT PUSH2 0x37E7 JUMPI POP PUSH1 0xC0 PUSH1 0x40 MLOAD SWAP2 PUSH2 0x339F DUP3 DUP5 PUSH2 0x1DA8 JUMP JUMPDEST PUSH1 0x5 DUP4 MSTORE PUSH1 0xA0 CALLDATASIZE PUSH1 0x20 DUP6 ADD CALLDATACOPY PUSH1 0x40 MLOAD SWAP2 PUSH2 0x33B9 DUP2 DUP5 PUSH2 0x1DA8 JUMP JUMPDEST PUSH1 0x5 DUP4 MSTORE POP PUSH1 0xA0 CALLDATASIZE PUSH1 0x20 DUP5 ADD CALLDATACOPY PUSH0 JUMPDEST PUSH1 0x5 DUP2 LT PUSH2 0x379C JUMPI POP POP PUSH1 0x40 MLOAD SWAP1 PUSH2 0x1C0 PUSH2 0x33E3 DUP2 DUP5 PUSH2 0x1DA8 JUMP JUMPDEST PUSH1 0xD DUP4 MSTORE PUSH1 0x1F NOT ADD CALLDATASIZE PUSH1 0x20 DUP5 ADD CALLDATACOPY PUSH0 JUMPDEST PUSH1 0x5 DUP2 LT PUSH2 0x376A JUMPI POP PUSH2 0x3405 DUP2 PUSH2 0x306B JUMP JUMPDEST MLOAD PUSH2 0x340F DUP3 PUSH2 0x3078 JUMP JUMPDEST MLOAD EQ SWAP1 DUP2 PUSH2 0x374D JUMPI JUMPDEST DUP2 PUSH2 0x3730 JUMPI JUMPDEST DUP2 PUSH2 0x3713 JUMPI JUMPDEST POP PUSH2 0x342E DUP4 PUSH2 0x306B JUMP JUMPDEST MLOAD PUSH1 0x1 DUP2 ADD DUP1 SWAP2 GT PUSH2 0x762 JUMPI PUSH2 0x3443 DUP5 PUSH2 0x3078 JUMP JUMPDEST MLOAD EQ DUP1 PUSH2 0x36ED JUMPI JUMPDEST DUP1 PUSH2 0x36C7 JUMPI JUMPDEST DUP1 PUSH2 0x36A1 JUMPI JUMPDEST DUP1 DUP1 PUSH2 0x369A JUMPI JUMPDEST PUSH2 0x3642 JUMPI PUSH0 SWAP3 PUSH0 SWAP1 PUSH0 SWAP1 PUSH0 JUMPDEST PUSH1 0xD DUP2 LT PUSH2 0x35CD JUMPI POP POP PUSH1 0x1 EQ PUSH2 0x35A7 JUMPI PUSH1 0x1 EQ SWAP2 DUP3 DUP1 PUSH2 0x359D JUMPI JUMPDEST PUSH2 0x3577 JUMPI PUSH2 0x3552 JUMPI PUSH2 0x352E JUMPI PUSH2 0x350B JUMPI PUSH1 0x2 DUP2 EQ PUSH2 0x34E8 JUMPI PUSH1 0x1 EQ PUSH2 0x34C6 JUMPI PUSH2 0x34AE SWAP1 PUSH2 0x386A JUMP JUMPDEST PUSH1 0x40 MLOAD SWAP1 PUSH2 0x34BB DUP3 PUSH2 0x1D53 JUMP JUMPDEST PUSH0 DUP3 MSTORE PUSH1 0x20 DUP3 ADD MSTORE SWAP1 JUMP JUMPDEST PUSH2 0x34CF SWAP1 PUSH2 0x386A JUMP JUMPDEST PUSH1 0x40 MLOAD SWAP1 PUSH2 0x34DC DUP3 PUSH2 0x1D53 JUMP JUMPDEST PUSH1 0x1 DUP3 MSTORE PUSH1 0x20 DUP3 ADD MSTORE SWAP1 JUMP JUMPDEST POP PUSH2 0x34F2 SWAP1 PUSH2 0x386A JUMP JUMPDEST PUSH1 0x40 MLOAD SWAP1 PUSH2 0x34FF DUP3 PUSH2 0x1D53 JUMP JUMPDEST PUSH1 0x2 DUP3 MSTORE PUSH1 0x20 DUP3 ADD MSTORE SWAP1 JUMP JUMPDEST POP PUSH2 0x3515 SWAP1 PUSH2 0x386A JUMP JUMPDEST PUSH1 0x40 MLOAD SWAP1 PUSH2 0x3522 DUP3 PUSH2 0x1D53 JUMP JUMPDEST PUSH1 0x3 DUP3 MSTORE PUSH1 0x20 DUP3 ADD MSTORE SWAP1 JUMP JUMPDEST POP POP PUSH2 0x3539 SWAP1 PUSH2 0x386A JUMP JUMPDEST PUSH1 0x40 MLOAD SWAP1 PUSH2 0x3546 DUP3 PUSH2 0x1D53 JUMP JUMPDEST PUSH1 0x4 DUP3 MSTORE PUSH1 0x20 DUP3 ADD MSTORE SWAP1 JUMP JUMPDEST POP POP POP PUSH2 0x355E SWAP1 PUSH2 0x386A JUMP JUMPDEST PUSH1 0x40 MLOAD SWAP1 PUSH2 0x356B DUP3 PUSH2 0x1D53 JUMP JUMPDEST PUSH1 0x5 DUP3 MSTORE PUSH1 0x20 DUP3 ADD MSTORE SWAP1 JUMP JUMPDEST POP POP POP POP PUSH2 0x3584 SWAP1 PUSH2 0x386A JUMP JUMPDEST PUSH1 0x40 MLOAD SWAP1 PUSH2 0x3591 DUP3 PUSH2 0x1D53 JUMP JUMPDEST PUSH1 0x6 DUP3 MSTORE PUSH1 0x20 DUP3 ADD MSTORE SWAP1 JUMP JUMPDEST POP PUSH1 0x1 DUP5 EQ PUSH2 0x3486 JUMP JUMPDEST POP POP POP POP PUSH2 0x35B4 SWAP1 PUSH2 0x386A JUMP JUMPDEST PUSH1 0x40 MLOAD SWAP1 PUSH2 0x35C1 DUP3 PUSH2 0x1D53 JUMP JUMPDEST PUSH1 0x7 DUP3 MSTORE PUSH1 0x20 DUP3 ADD MSTORE SWAP1 JUMP JUMPDEST PUSH1 0x2 PUSH2 0x35D9 DUP3 DUP5 PUSH2 0x30B8 JUMP JUMPDEST MLOAD EQ PUSH2 0x3632 JUMPI JUMPDEST PUSH1 0x3 PUSH2 0x35EC DUP3 DUP5 PUSH2 0x30B8 JUMP JUMPDEST MLOAD EQ PUSH2 0x3622 JUMPI JUMPDEST PUSH1 0x4 PUSH2 0x35FF DUP3 DUP5 PUSH2 0x30B8 JUMP JUMPDEST MLOAD EQ PUSH2 0x360E JUMPI JUMPDEST PUSH1 0x1 ADD PUSH2 0x346A JUMP JUMPDEST SWAP2 PUSH2 0x361A PUSH1 0x1 SWAP2 PUSH2 0x30CC JUMP JUMPDEST SWAP3 SWAP1 POP PUSH2 0x3606 JUMP JUMPDEST SWAP3 PUSH2 0x362C SWAP1 PUSH2 0x30CC JUMP JUMPDEST SWAP3 PUSH2 0x35F3 JUMP JUMPDEST SWAP6 PUSH2 0x363C SWAP1 PUSH2 0x30CC JUMP JUMPDEST SWAP6 PUSH2 0x35E0 JUMP JUMPDEST POP POP POP PUSH1 0xC PUSH2 0x3650 DUP3 PUSH2 0x30A8 JUMP JUMPDEST MLOAD EQ PUSH2 0x3678 JUMPI PUSH2 0x365F SWAP1 PUSH2 0x386A JUMP JUMPDEST PUSH1 0x40 MLOAD SWAP1 PUSH2 0x366C DUP3 PUSH2 0x1D53 JUMP JUMPDEST PUSH1 0x8 DUP3 MSTORE PUSH1 0x20 DUP3 ADD MSTORE SWAP1 JUMP JUMPDEST PUSH2 0x3681 SWAP1 PUSH2 0x386A JUMP JUMPDEST PUSH1 0x40 MLOAD SWAP1 PUSH2 0x368E DUP3 PUSH2 0x1D53 JUMP JUMPDEST PUSH1 0x9 DUP3 MSTORE PUSH1 0x20 DUP3 ADD MSTORE SWAP1 JUMP JUMPDEST POP DUP2 PUSH2 0x345E JUMP JUMPDEST POP PUSH2 0x36AB DUP4 PUSH2 0x3098 JUMP JUMPDEST MLOAD PUSH1 0x1 DUP2 ADD DUP1 SWAP2 GT PUSH2 0x762 JUMPI PUSH2 0x36C0 DUP5 PUSH2 0x30A8 JUMP JUMPDEST MLOAD EQ PUSH2 0x3457 JUMP JUMPDEST POP PUSH2 0x36D1 DUP4 PUSH2 0x3088 JUMP JUMPDEST MLOAD PUSH1 0x1 DUP2 ADD DUP1 SWAP2 GT PUSH2 0x762 JUMPI PUSH2 0x36E6 DUP5 PUSH2 0x3098 JUMP JUMPDEST MLOAD EQ PUSH2 0x3451 JUMP JUMPDEST POP PUSH2 0x36F7 DUP4 PUSH2 0x3078 JUMP JUMPDEST MLOAD PUSH1 0x1 DUP2 ADD DUP1 SWAP2 GT PUSH2 0x762 JUMPI PUSH2 0x370C DUP5 PUSH2 0x3088 JUMP JUMPDEST MLOAD EQ PUSH2 0x344B JUMP JUMPDEST SWAP1 POP PUSH2 0x3728 PUSH2 0x3721 DUP3 PUSH2 0x3098 JUMP JUMPDEST MLOAD SWAP2 PUSH2 0x30A8 JUMP JUMPDEST MLOAD EQ PUSH0 PUSH2 0x3424 JUMP JUMPDEST SWAP1 POP PUSH2 0x373B DUP2 PUSH2 0x3088 JUMP JUMPDEST MLOAD PUSH2 0x3745 DUP3 PUSH2 0x3098 JUMP JUMPDEST MLOAD EQ SWAP1 PUSH2 0x341E JUMP JUMPDEST SWAP1 POP PUSH2 0x3758 DUP2 PUSH2 0x3078 JUMP JUMPDEST MLOAD PUSH2 0x3762 DUP3 PUSH2 0x3088 JUMP JUMPDEST MLOAD EQ SWAP1 PUSH2 0x3418 JUMP JUMPDEST DUP1 PUSH2 0x3777 PUSH1 0x1 SWAP3 DUP7 PUSH2 0x30B8 JUMP JUMPDEST MLOAD PUSH2 0x3795 PUSH2 0x378E PUSH2 0x3788 DUP4 DUP9 PUSH2 0x30B8 JUMP JUMPDEST MLOAD PUSH2 0x30CC JUMP JUMPDEST SWAP2 DUP7 PUSH2 0x30B8 JUMP JUMPDEST MSTORE ADD PUSH2 0x33F3 JUMP JUMPDEST DUP1 PUSH1 0xFF PUSH1 0xD DUP2 PUSH2 0x37B2 DUP2 PUSH2 0x2E0F PUSH1 0x1 SWAP8 DUP10 PUSH2 0x30B8 JUMP JUMPDEST AND MOD AND PUSH2 0x37BF DUP3 DUP8 PUSH2 0x30B8 JUMP JUMPDEST MSTORE PUSH1 0xFF PUSH1 0xD DUP2 PUSH2 0x37D3 DUP2 PUSH2 0x2E0F DUP7 DUP10 PUSH2 0x30B8 JUMP JUMPDEST AND DIV AND PUSH2 0x37E0 DUP3 DUP7 PUSH2 0x30B8 JUMP JUMPDEST MSTORE ADD PUSH2 0x33C8 JUMP JUMPDEST SWAP2 SWAP1 PUSH1 0x1 DUP4 ADD DUP1 DUP5 GT PUSH2 0x762 JUMPI JUMPDEST PUSH1 0x5 DUP2 LT PUSH2 0x3808 JUMPI POP SWAP1 SWAP2 PUSH1 0x1 ADD PUSH2 0x3386 JUMP JUMPDEST PUSH1 0x1 SWAP1 PUSH1 0xFF PUSH2 0x3817 DUP7 DUP6 PUSH2 0x30B8 JUMP JUMPDEST MLOAD AND PUSH1 0xFF PUSH2 0x3825 DUP4 DUP7 PUSH2 0x30B8 JUMP JUMPDEST MLOAD AND LT PUSH2 0x3833 JUMPI JUMPDEST ADD PUSH2 0x37F5 JUMP JUMPDEST PUSH1 0xFF PUSH2 0x383F DUP3 DUP6 PUSH2 0x30B8 JUMP JUMPDEST MLOAD AND PUSH1 0xFF PUSH2 0x384D DUP8 DUP7 PUSH2 0x30B8 JUMP JUMPDEST MLOAD AND PUSH2 0x3859 DUP4 DUP7 PUSH2 0x30B8 JUMP JUMPDEST MSTORE PUSH2 0x3864 DUP7 DUP6 PUSH2 0x30B8 JUMP JUMPDEST MSTORE PUSH2 0x382D JUMP JUMPDEST SWAP1 PUSH0 SWAP1 JUMPDEST DUP3 MLOAD DUP3 LT ISZERO PUSH2 0x38ED JUMPI PUSH1 0x1 DUP3 ADD DUP1 DUP4 GT PUSH2 0x762 JUMPI JUMPDEST DUP4 MLOAD DUP2 LT ISZERO PUSH2 0x38E2 JUMPI PUSH1 0x1 SWAP1 PUSH2 0x3899 DUP5 DUP7 PUSH2 0x30B8 JUMP JUMPDEST MLOAD PUSH2 0x38A4 DUP3 DUP8 PUSH2 0x30B8 JUMP JUMPDEST MLOAD GT PUSH2 0x38B1 JUMPI JUMPDEST ADD PUSH2 0x3883 JUMP JUMPDEST PUSH2 0x38BB DUP2 DUP7 PUSH2 0x30B8 JUMP JUMPDEST MLOAD PUSH2 0x38C6 DUP6 DUP8 PUSH2 0x30B8 JUMP JUMPDEST MLOAD PUSH2 0x38D1 DUP4 DUP9 PUSH2 0x30B8 JUMP JUMPDEST MSTORE PUSH2 0x38DC DUP6 DUP8 PUSH2 0x30B8 JUMP JUMPDEST MSTORE PUSH2 0x38AB JUMP JUMPDEST POP SWAP1 PUSH1 0x1 ADD SWAP1 PUSH2 0x386E JUMP JUMPDEST SWAP1 POP JUMP INVALID RETURN 0xD4 CREATE2 PUSH31 0x5AAE06B4017C0B2ED81F62AA6F19DEEF046D6A78AD2A4223858C4F070ECA8 0x25 PUSH8 0xB065893A5E6CC590 OR DUP12 PUSH12 0x320855676B6A9A066625933E 0xC DUP15 0xBE PC LOG2 PUSH5 0x6970667358 0x22 SLT KECCAK256 PUSH17 0x6AB01D7D6643500562186AD03393355575 0xD9 CREATE CALLDATASIZE 0xAE GASLIMIT SLT 0xD8 0xFC 0xEA 0xB8 0xE9 PUSH31 0xF6964736F6C634300081E0033000000000000000000000000000000000000 "
		},
		"gasEstimates": {
			"creation": {
				"codeDepositCost": "2939000",
				"executionCost": "3237",
				"totalCost": "2942237"
			},
			"external": {
				"MAX_PLAYERS()": "288",
				"MAX_TABLES()": "266",
				"TURN_TIMEOUT()": "332",
				"allIn(uint256)": "infinite",
				"call(uint256)": "infinite",
				"check(uint256)": "infinite",
				"createTable(uint256,uint256,uint256,uint256)": "infinite",
				"fold(uint256)": "infinite",
				"getPlayerState(uint256,address)": "infinite",
				"getTableState(uint256)": "infinite",
				"joinTable(uint256,uint256)": "infinite",
				"leaveTable(uint256)": "infinite",
				"playerTableId(address)": "2365",
				"raise(uint256,uint256)": "infinite",
				"tables(uint256)": "30352"
			},
			"internal": {
				"_advanceAction(uint256)": "infinite",
				"_compareHands(struct TexasHoldem.HandEvaluation memory,struct TexasHoldem.HandEvaluation memory)": "infinite",
				"_dealCommunityCards(uint256)": "infinite",
				"_dealHoleCards(uint256)": "infinite",
				"_determineWinner(uint256)": "infinite",
				"_endBettingRound(uint256)": "infinite",
				"_evaluate5CardHand(uint8[] memory)": "infinite",
				"_evaluateBestHand(uint8[] memory)": "infinite",
				"_isBettingRoundOver(uint256)": "infinite",
				"_managePots(uint256)": "infinite",
				"_postBlinds(uint256)": "infinite",
				"_shuffleDeck(uint256)": "infinite",
				"_sortedRanks(uint256[] memory)": "infinite",
				"_startNewHand(uint256)": "infinite"
			}
		},
		"methodIdentifiers": {
			"MAX_PLAYERS()": "4411b3eb",
			"MAX_TABLES()": "40cb15d8",
			"TURN_TIMEOUT()": "5e82ff65",
			"allIn(uint256)": "e52b2285",
			"call(uint256)": "2b096926",
			"check(uint256)": "5f72f450",
			"createTable(uint256,uint256,uint256,uint256)": "a4dd19a5",
			"fold(uint256)": "bff7a00b",
			"getPlayerState(uint256,address)": "b20bfbb9",
			"getTableState(uint256)": "1ffc9a02",
			"joinTable(uint256,uint256)": "1ff7efc0",
			"leaveTable(uint256)": "08ce2011",
			"playerTableId(address)": "01e22c12",
			"raise(uint256,uint256)": "56adcb76",
			"tables(uint256)": "71671bf2"
		}
	},
	"abi": [
		{
			"anonymous": false,
			"inputs": [
				{
					"indexed": true,
					"internalType": "uint256",
					"name": "tableId",
					"type": "uint256"
				},
				{
					"indexed": false,
					"internalType": "uint8[5]",
					"name": "communityCards",
					"type": "uint8[5]"
				}
			],
			"name": "CommunityCardsDealt",
			"type": "event"
		},
		{
			"anonymous": false,
			"inputs": [
				{
					"indexed": true,
					"internalType": "uint256",
					"name": "tableId",
					"type": "uint256"
				}
			],
			"name": "GameStarted",
			"type": "event"
		},
		{
			"anonymous": false,
			"inputs": [
				{
					"indexed": true,
					"internalType": "uint256",
					"name": "tableId",
					"type": "uint256"
				}
			],
			"name": "HandStarted",
			"type": "event"
		},
		{
			"anonymous": false,
			"inputs": [
				{
					"indexed": true,
					"internalType": "uint256",
					"name": "tableId",
					"type": "uint256"
				},
				{
					"indexed": false,
					"internalType": "enum TexasHoldem.GamePhase",
					"name": "newPhase",
					"type": "uint8"
				}
			],
			"name": "PhaseChanged",
			"type": "event"
		},
		{
			"anonymous": false,
			"inputs": [
				{
					"indexed": true,
					"internalType": "uint256",
					"name": "tableId",
					"type": "uint256"
				},
				{
					"indexed": true,
					"internalType": "address",
					"name": "player",
					"type": "address"
				},
				{
					"indexed": false,
					"internalType": "string",
					"name": "action",
					"type": "string"
				},
				{
					"indexed": false,
					"internalType": "uint256",
					"name": "amount",
					"type": "uint256"
				}
			],
			"name": "PlayerAction",
			"type": "event"
		},
		{
			"anonymous": false,
			"inputs": [
				{
					"indexed": true,
					"internalType": "uint256",
					"name": "tableId",
					"type": "uint256"
				},
				{
					"indexed": true,
					"internalType": "address",
					"name": "player",
					"type": "address"
				},
				{
					"indexed": false,
					"internalType": "uint256",
					"name": "amount",
					"type": "uint256"
				}
			],
			"name": "PlayerJoined",
			"type": "event"
		},
		{
			"anonymous": false,
			"inputs": [
				{
					"indexed": true,
					"internalType": "uint256",
					"name": "tableId",
					"type": "uint256"
				},
				{
					"indexed": true,
					"internalType": "address",
					"name": "player",
					"type": "address"
				}
			],
			"name": "PlayerLeft",
			"type": "event"
		},
		{
			"anonymous": false,
			"inputs": [
				{
					"indexed": true,
					"internalType": "uint256",
					"name": "tableId",
					"type": "uint256"
				},
				{
					"indexed": true,
					"internalType": "address",
					"name": "creator",
					"type": "address"
				}
			],
			"name": "TableCreated",
			"type": "event"
		},
		{
			"anonymous": false,
			"inputs": [
				{
					"indexed": true,
					"internalType": "uint256",
					"name": "tableId",
					"type": "uint256"
				},
				{
					"indexed": false,
					"internalType": "address[]",
					"name": "winners",
					"type": "address[]"
				},
				{
					"indexed": false,
					"internalType": "uint256",
					"name": "amount",
					"type": "uint256"
				}
			],
			"name": "WinnerDetermined",
			"type": "event"
		},
		{
			"inputs": [],
			"name": "MAX_PLAYERS",
			"outputs": [
				{
					"internalType": "uint256",
					"name": "",
					"type": "uint256"
				}
			],
			"stateMutability": "view",
			"type": "function"
		},
		{
			"inputs": [],
			"name": "MAX_TABLES",
			"outputs": [
				{
					"internalType": "uint256",
					"name": "",
					"type": "uint256"
				}
			],
			"stateMutability": "view",
			"type": "function"
		},
		{
			"inputs": [],
			"name": "TURN_TIMEOUT",
			"outputs": [
				{
					"internalType": "uint256",
					"name": "",
					"type": "uint256"
				}
			],
			"stateMutability": "view",
			"type": "function"
		},
		{
			"inputs": [
				{
					"internalType": "uint256",
					"name": "tableId",
					"type": "uint256"
				}
			],
			"name": "allIn",
			"outputs": [],
			"stateMutability": "nonpayable",
			"type": "function"
		},
		{
			"inputs": [
				{
					"internalType": "uint256",
					"name": "tableId",
					"type": "uint256"
				}
			],
			"name": "call",
			"outputs": [],
			"stateMutability": "nonpayable",
			"type": "function"
		},
		{
			"inputs": [
				{
					"internalType": "uint256",
					"name": "tableId",
					"type": "uint256"
				}
			],
			"name": "check",
			"outputs": [],
			"stateMutability": "nonpayable",
			"type": "function"
		},
		{
			"inputs": [
				{
					"internalType": "uint256",
					"name": "_minBuyIn",
					"type": "uint256"
				},
				{
					"internalType": "uint256",
					"name": "_maxBuyIn",
					"type": "uint256"
				},
				{
					"internalType": "uint256",
					"name": "_smallBlind",
					"type": "uint256"
				},
				{
					"internalType": "uint256",
					"name": "_bigBlind",
					"type": "uint256"
				}
			],
			"name": "createTable",
			"outputs": [],
			"stateMutability": "nonpayable",
			"type": "function"
		},
		{
			"inputs": [
				{
					"internalType": "uint256",
					"name": "tableId",
					"type": "uint256"
				}
			],
			"name": "fold",
			"outputs": [],
			"stateMutability": "nonpayable",
			"type": "function"
		},
		{
			"inputs": [
				{
					"internalType": "uint256",
					"name": "tableId",
					"type": "uint256"
				},
				{
					"internalType": "address",
					"name": "playerAddr",
					"type": "address"
				}
			],
			"name": "getPlayerState",
			"outputs": [
				{
					"components": [
						{
							"internalType": "address",
							"name": "addr",
							"type": "address"
						},
						{
							"internalType": "uint256",
							"name": "chips",
							"type": "uint256"
						},
						{
							"internalType": "uint256",
							"name": "bet",
							"type": "uint256"
						},
						{
							"internalType": "uint8[2]",
							"name": "holeCards",
							"type": "uint8[2]"
						},
						{
							"internalType": "bool",
							"name": "inHand",
							"type": "bool"
						},
						{
							"internalType": "bool",
							"name": "hasActed",
							"type": "bool"
						},
						{
							"internalType": "uint256",
							"name": "lastActionTimestamp",
							"type": "uint256"
						}
					],
					"internalType": "struct TexasHoldem.Player",
					"name": "",
					"type": "tuple"
				}
			],
			"stateMutability": "view",
			"type": "function"
		},
		{
			"inputs": [
				{
					"internalType": "uint256",
					"name": "tableId",
					"type": "uint256"
				}
			],
			"name": "getTableState",
			"outputs": [
				{
					"components": [
						{
							"internalType": "uint256",
							"name": "id",
							"type": "uint256"
						},
						{
							"internalType": "enum TexasHoldem.TableStatus",
							"name": "status",
							"type": "uint8"
						},
						{
							"internalType": "uint256",
							"name": "minBuyIn",
							"type": "uint256"
						},
						{
							"internalType": "uint256",
							"name": "maxBuyIn",
							"type": "uint256"
						},
						{
							"internalType": "uint256",
							"name": "smallBlind",
							"type": "uint256"
						},
						{
							"internalType": "uint256",
							"name": "bigBlind",
							"type": "uint256"
						},
						{
							"internalType": "uint8",
							"name": "dealerIndex",
							"type": "uint8"
						},
						{
							"internalType": "uint8",
							"name": "actionIndex",
							"type": "uint8"
						},
						{
							"components": [
								{
									"internalType": "address",
									"name": "addr",
									"type": "address"
								},
								{
									"internalType": "uint256",
									"name": "chips",
									"type": "uint256"
								},
								{
									"internalType": "uint256",
									"name": "bet",
									"type": "uint256"
								},
								{
									"internalType": "uint8[2]",
									"name": "holeCards",
									"type": "uint8[2]"
								},
								{
									"internalType": "bool",
									"name": "inHand",
									"type": "bool"
								},
								{
									"internalType": "bool",
									"name": "hasActed",
									"type": "bool"
								},
								{
									"internalType": "uint256",
									"name": "lastActionTimestamp",
									"type": "uint256"
								}
							],
							"internalType": "struct TexasHoldem.Player[]",
							"name": "players",
							"type": "tuple[]"
						},
						{
							"internalType": "uint8[52]",
							"name": "deck",
							"type": "uint8[52]"
						},
						{
							"internalType": "uint8",
							"name": "deckIndex",
							"type": "uint8"
						},
						{
							"internalType": "uint8[5]",
							"name": "communityCards",
							"type": "uint8[5]"
						},
						{
							"internalType": "enum TexasHoldem.GamePhase",
							"name": "phase",
							"type": "uint8"
						},
						{
							"internalType": "uint256",
							"name": "currentBet",
							"type": "uint256"
						},
						{
							"internalType": "uint256",
							"name": "minRaise",
							"type": "uint256"
						},
						{
							"components": [
								{
									"internalType": "uint256",
									"name": "size",
									"type": "uint256"
								},
								{
									"internalType": "address[]",
									"name": "eligiblePlayers",
									"type": "address[]"
								}
							],
							"internalType": "struct TexasHoldem.Pot[]",
							"name": "pots",
							"type": "tuple[]"
						},
						{
							"internalType": "uint256",
							"name": "lastActivityTimestamp",
							"type": "uint256"
						}
					],
					"internalType": "struct TexasHoldem.Table",
					"name": "",
					"type": "tuple"
				}
			],
			"stateMutability": "view",
			"type": "function"
		},
		{
			"inputs": [
				{
					"internalType": "uint256",
					"name": "tableId",
					"type": "uint256"
				},
				{
					"internalType": "uint256",
					"name": "buyInAmount",
					"type": "uint256"
				}
			],
			"name": "joinTable",
			"outputs": [],
			"stateMutability": "nonpayable",
			"type": "function"
		},
		{
			"inputs": [
				{
					"internalType": "uint256",
					"name": "tableId",
					"type": "uint256"
				}
			],
			"name": "leaveTable",
			"outputs": [],
			"stateMutability": "nonpayable",
			"type": "function"
		},
		{
			"inputs": [
				{
					"internalType": "address",
					"name": "",
					"type": "address"
				}
			],
			"name": "playerTableId",
			"outputs": [
				{
					"internalType": "uint256",
					"name": "",
					"type": "uint256"
				}
			],
			"stateMutability": "view",
			"type": "function"
		},
		{
			"inputs": [
				{
					"internalType": "uint256",
					"name": "tableId",
					"type": "uint256"
				},
				{
					"internalType": "uint256",
					"name": "raiseAmount",
					"type": "uint256"
				}
			],
			"name": "raise",
			"outputs": [],
			"stateMutability": "nonpayable",
			"type": "function"
		},
		{
			"inputs": [
				{
					"internalType": "uint256",
					"name": "",
					"type": "uint256"
				}
			],
			"name": "tables",
			"outputs": [
				{
					"internalType": "uint256",
					"name": "id",
					"type": "uint256"
				},
				{
					"internalType": "enum TexasHoldem.TableStatus",
					"name": "status",
					"type": "uint8"
				},
				{
					"internalType": "uint256",
					"name": "minBuyIn",
					"type": "uint256"
				},
				{
					"internalType": "uint256",
					"name": "maxBuyIn",
					"type": "uint256"
				},
				{
					"internalType": "uint256",
					"name": "smallBlind",
					"type": "uint256"
				},
				{
					"internalType": "uint256",
					"name": "bigBlind",
					"type": "uint256"
				},
				{
					"internalType": "uint8",
					"name": "dealerIndex",
					"type": "uint8"
				},
				{
					"internalType": "uint8",
					"name": "actionIndex",
					"type": "uint8"
				},
				{
					"internalType": "uint8",
					"name": "deckIndex",
					"type": "uint8"
				},
				{
					"internalType": "enum TexasHoldem.GamePhase",
					"name": "phase",
					"type": "uint8"
				},
				{
					"internalType": "uint256",
					"name": "currentBet",
					"type": "uint256"
				},
				{
					"internalType": "uint256",
					"name": "minRaise",
					"type": "uint256"
				},
				{
					"internalType": "uint256",
					"name": "lastActivityTimestamp",
					"type": "uint256"
				}
			],
			"stateMutability": "view",
			"type": "function"
		}
	]
}